:020000040800F2
:10000000687400207D8D0008997000089B700008BE
:100010009F700008A3700008A7700008000000008F
:10002000000000000000000000000000AB700008AD
:10003000AD70000800000000AF700008B17000084B
:10004000978D0008978D0008978D0008978D000800
:10005000978D0008978D0008978D0008978D0008F0
:10006000978D0008978D0008978D0008978D0008E0
:10007000978D0008978D0008978D0008978D0008D0
:10008000978D0008978D0008978D0008978D0008C0
:10009000978D0008978D0008978D00086173000800
:1000A000978D0008978D0008978D0008978D0008A0
:1000B000397200089573000803760008978D0008D0
:1000C000978D0008978D0008978D0008978D000880
:1000D000978D00083B7200080B730008978D00088D
:1000E000978D0008978D0008978D0008A57500086A
:1000F000E7750008CB750008000000000000000054
:100100000000000000000000D3700008978D000878
:100110000000000000000000978D0008978D000887
:10012000978D0008978D0008B3700008978D000820
:10013000978D00086F760008978D0008978D00084E
:10014000978D000800000000000000000000000083
:10015000000000000000000000000000000000009F
:100160000000000000000000978D0008978D000837
:10017000978D000800000000978D00080000000027
:1001800000000000978D0008DFF80CD011F0EAFCA9
:1001900000480047010200086874002010B50024E0
:1001A0000DF0E3FD0BF06CFB0BF064FB0EF00AFAB4
:1001B0000EF037FA0EF06FFA0DF099FE0FF0D5FF42
:1001C0004FF4E13010F06DFA4FF4FA700BF095FB3C
:1001D00010F029F9044610F0EBF810F08CF80EF04E
:1001E000F8FE10F0B5FA10F010FB10F0B5FB10F0AF
:1001F00045FB4FF4E16010F071FB10F0D5FA10BD33
:10020000FFF7CCFF1A48006820F4707018490860A6
:100210000121184809F00CFE28E017480078012851
:1002200011D100201449087014480088401C13495B
:1002300008800846008841F21851884203D10EF028
:10024000F0F90BF087FB0E480078012803D00D4829
:100250000078012804D100200849088000F005FB3F
:1002600000F0E4F802F0DEFD08F0A2FAD5E70000A5
:100270000004014000040040DE04002000000020D3
:10028000A1040020A20400209FEDF70AF74880EDAA
:10029000000A9FEDF50AF64880ED000A9FEDF20A8C
:1002A000F44880ED000A9FEDF00AF34880ED000A63
:1002B0009FEDED0AF14880ED000A9FEDEB0AF04852
:1002C00080ED000A9FEDE80AEE4880ED000A9FED00
:1002D000E60AED4880ED000A9FEDE30AEB4880ED69
:1002E000000A704710B5EA480078072810DC10F0C3
:1002F00046FB10F052FB0121E64809F0B6FA012155
:10030000E54809F0B2FA0121E44809F091FD1BE04B
:10031000DF480078082817DBDD4800780F2813D065
:1003200010F034FB10F040FB0021DA4809F09DFA90
:100330000021D94809F099FA0021D84809F078FD40
:100340000021D74809F074FD10BD10B5D0480078E1
:10035000801F052865D2DFE800F0031A1E3647002B
:10036000D048007820B1012806D002280CD107E03F
:1003700004200FF046FE08E003200FF042FE04E0E8
:1003800004200FF03EFE00E000BF00BF4AE0042062
:100390000FF037FE46E0C348007810B101280FD1B6
:1003A00003E005200FF02DFE0BE0BF48007818B9E0
:1003B00004200FF026FE02E012200FF022FE00E0E3
:1003C00000BF00BF2EE0B748007810B1012808D167
:1003D00003E009200FF015FE04E00A200FF011FEE3
:1003E00000E000BF00BF1DE0AE48007830B101283A
:1003F00008D002280AD0032810D10BE007200FF004
:1004000000FE0CE00B200FF0FCFD08E013200FF0C5
:10041000F8FD04E013200FF0F4FD00E000BF00BF82
:1004200000E000BF00BFFFF75DFF10BD10B59F48A3
:100430000078002875D196480078801F052871D271
:10044000DFE800F0031527475E0063200EF09EFEF4
:10045000BCEEC00A10EE100A9549087060200EF03C
:1004600095FE944880ED000A0CF029F87AE06320AC
:100470000EF08CFEBCEEC00A10EE100A8C4908701B
:1004800060200EF083FE8B4880ED000A0CF017F818
:1004900068E08548007830B960200EF077FE854826
:1004A00080ED000A14E080480078012806D1612020
:1004B0000EF06CFE7F4880ED000A09E07A48007873
:1004C000022805D162200EF061FE7B4880ED000A13
:1004D00048E07448007810B101280ED106E0602091
:1004E0000EF054FE734880ED000A07E060200EF025
:1004F0004DFE704880ED000A00E000BF00BF31E013
:100500006848007830B101280DD0022812D00328A5
:1005100024D116E060200EF039FE664880ED000A16
:100520001DE020E01DE060200EF030FE614880ED0F
:10053000000A14E060200EF029FE5E4880ED000AFB
:100540000DE060200EF022FE9FED5C1ADFED5C0AEC
:1005500040EE010A5748C0ED000A00E000BF00BFAE
:1005600000E000BF00BF10BD10B55648007810B1C4
:1005700001280CD105E0002202211D200DF0DDFF35
:1005800006E0012202211D200DF0D7FF00E000BF90
:1005900000BF10BD10B54C48007820B101280DD027
:1005A000022821D115E0002211460A200DF0C5FFD6
:1005B000002201210A200DF0C0FF16E000221146A2
:1005C0000A200DF0BAFF012211460A200DF0B5FFF6
:1005D0000BE0012200210A200DF0AFFF00220121D3
:1005E0000A200DF0AAFF00E000BF00BF10BD10B54B
:1005F0003648007810B101280CD105E000221146E0
:1006000009200DF09AFF06E00122002109200DF0DB
:1006100094FF00E000BF00BF10BD10B52C4800786B
:1006200001280AD1012202211C200DF086FF0022A0
:1006300003211C200DF081FF09E0002202211C2073
:100640000DF07BFF012203211C200DF076FF10BD71
:10065000F0EE400A01285DD11B490978D1B3012988
:100660003AD0022954D145E000000000B003002038
:1006700064040020B40300206804002090000020DF
:10068000880000208C000020780000207C000020E2
:10069000A60400200060014000640140005C0140AD
:1006A000000C0040080000200F0000201000002077
:1006B0009D000020B8040020BC0400206666E63FD0
:1006C00000000042090000200A0000200C00002069
:1006D00013000020FFE71CE0FD4991ED000AF4EE55
:1006E000C00AF1EE10FA01DDC1ED000AF84991ED02
:1006F000000A7047F74991ED000AF4EEC00AF1EEE6
:1007000010FA01D2C1ED000AF24991ED000AF0E7BA
:1007100000BF28E0022826D1EF49097821B101293C
:1007200003D002291DD10EE01CE0EC4991ED000A36
:10073000F4EEC00AF1EE10FA01DDC1ED000AE7495E
:1007400091ED000AD5E7E64991ED000AF4EEC00A02
:10075000F1EE10FA01D2C1ED000AE14991ED000A73
:10076000C7E700BF00BFB0EE600AC2E7F0EE400A84
:10077000012805D1DB4991ED000A30EEC00A70472F
:10078000022805D1D84991ED000A30EEC00AF6E7FB
:1007900000BFF4E700B5B0EE401A0246CE4800783C
:1007A00028B11046B0EE410AFFF752FF00BDCF4816
:1007B000007828B11046B0EE410AFFF7D7FFF5E701
:1007C000B0EE410AF2E700B5F0EE401A03461846D3
:1007D000B0EE610AFFF7DEFF9FEDC51AC0EE010A19
:1007E000B0EE600A00BD10B5B0EE402A04462046C7
:1007F000B0EE420AFFF7E7FF9FEDBD1AC0EE010A17
:10080000B0EE600A10BD10B59223002242215020A4
:100810000EF05AFC50200EF08BFCB64908700846CA
:100820000078012820D100200870512108460EF0E0
:100830004BFC51200EF07CFCAE4908700846007855
:10084000012811D100200870AB48407800F0010069
:1008500028B1012203211D200DF06FFE04E00022CB
:1008600003211D200DF069FE10BD10B52DED088B84
:10087000A2480078012856D1FFF706FD00209F49C5
:1008800008700FF091FC00209D4908709249087093
:100890009C490870954908709B4908709B490870ED
:1008A0009B4908709B4908709B490870002404E02C
:1008B00000209A490855601CC4B2102CF8DB9848F7
:1008C0000078801F052826D2DFE800F0030B1319FB
:1008D0001F002420914988730820087380208872A3
:1008E0001AE004208D498873112048730420C872CF
:1008F00012E0052089498873082008730CE0012064
:10090000864908702020087306E020208349087378
:100910000420887300E000BF00BF0DF0A0FEFFF7C9
:1009200023FEFFF712FD7F480078012842F0538232
:10093000FFF7AAFC00207B4908700FF035FC7848CF
:100940000078801F052882F0E881DFE810F00500BC
:10095000BA05D80BB80EB60F7348007801282CD111
:100960006C480078012828D170480078032824D0EA
:100970006E480078052820D067480078E8B9002044
:1009800069490870634908700DF04BFE0122114659
:100990001D200DF0D2FD012202211C200DF0CDFD05
:1009A0000122032118200DF0C8FD0122032115208A
:1009B0000DF0C3FD00205E4908705C4800780628F1
:1009C0007ED2DFE800F003C2EFEEEDEC564800788F
:1009D000012876D14B4800780028FAD14A4800789F
:1009E0000028F6D14A4800780028F2D14A48007819
:1009F0000028EED1384908703C4908704349087016
:100A00004449087001204B4908700DF00AFE3C482B
:100A1000007820B1012806D002280CD107E001207F
:100A20003749087008E002203549087004E00020CA
:100A30003349087000E000BF00BF3148007820B1A2
:100A4000012812D0022877D124E0012211461D206E
:100A50000DF073FD0122032118200DF06EFD01221F
:100A6000032115200DF069FD67E0012200211C2003
:100A70000DF063FD002201211D200DF05EFD01221D
:100A8000032118200DF059FD0122032115200DF03E
:100A900054FD52E0012200211C200DF04EFD0122E8
:100AA00000211D200DF049FD012211461D200DF0F1
:100AB00044FD0122032118200DF03FFD012201E039
:100AC000E8E341E0032115200DF037FD35E033E088
:100AD0001C000020200000200A000020240000202C
:100AE000280000202C000020300000200C000020F6
:100AF00000007A44B3040020486C0020A1040020C8
:100B0000080000200B0000200D0000200E00002037
:100B10000F0000201200002010000020386C002080
:100B2000A6040020A2040020A3040020A8040020A2
:100B3000AC0300201300002000BF00BFFFF72AFD18
:100B4000FFF755FDFFF769FD8FE2FB4800780128AC
:100B500056D1FA480078002852D1F9480078002888
:100B60004ED1F848007800284AD1F3490870F64978
:100B70000870F6490870F648007820B1012806D0C0
:100B8000022810D107E00120F14908700CE0022092
:100B9000EF49087008E00020ED49087004E0FDE32B
:100BA00036E363E2DDE000BF00BFFFF7F3FCFFF7D1
:100BB0001EFDE7480078012858D1E648007800BBC0
:100BC000E54890ED000AE548D0ED000A30EE600AF5
:100BD000E34880ED000A90ED000AE24880ED000A4B
:100BE000E14890ED000AE148D0ED000A30EE600ADD
:100BF000DF4880ED000A90ED000ADE4880ED000A33
:100C000034E0D4480078012816D1D44890ED000A89
:100C1000D34880ED000A90ED000AD24880ED000A2A
:100C2000D24890ED000AD24880ED000A90ED000A0B
:100C3000D04880ED000A19E0C6480078022815D196
:100C4000C54890ED000AC64880ED000A90ED000A04
:100C5000C44880ED000AC44890ED000AC44880ED05
:100C6000000A90ED000AC34880ED000AB2480078FF
:100C7000012820D1B1480078E8B1B2480078D0B955
:100C80000020AD490870B0490870B14800780128CB
:100C900002D0022808D103E00220AD49087004E028
:100CA0000120AB49087000E000BF00BFFFF772FCF5
:100CB000FFF79DFC54E0B0480078012850D1A048CF
:100CC0000078E8BBAD480078D0BBA0480078B8BB3E
:100CD0009C480078A0BB0020A74908709A4908707A
:100CE0009B48007868B99548007850B9012093492D
:100CF0000870974908700122114609200DF01DFC6B
:100D00000CE08E48007848B100208C49087090496A
:100D100008700022012109200DF00FFCFFF73AFCBA
:100D2000FFF765FC85480078012819D1944890EDBB
:100D3000000A8B4880ED000A924890ED000A00E01E
:100D40000EE0884880ED000A8F4890ED000A884840
:100D500080ED000A8D4890ED000A864880ED000A7B
:100D6000ACE37548007801286AD1744800780028FF
:100D700066D173480078002862D172480078002854
:100D80005ED16D49087072490870704908706E48EC
:100D9000007810B1012808D103E001206A490870E9
:100DA00004E000206849087000E000BF00BFFFF7C2
:100DB0001EFCFFF7EFFB64480078002873D06548FD
:100DC0000078E0BB6548006810F0B0FC41EC1B0BFC
:100DD000B0EE4B0AF0EE6B0A11F0BEFBB0EE409A9B
:100DE000F0EE609A5C48006810F0A0FC41EC1A0B31
:100DF00053EC192B10F084FB41EC180B10F0DAFCCB
:100E0000634908605948006810F090FC41EC1B0BE6
:100E1000B0EE4B0AF0EE6B0A11F09EFBB0EE409A7A
:100E2000F0EE609A5048006810F080FC41EC1A0B1C
:100E300053EC192B10F064FB41EC180B01E005E0BA
:100E40004EE010F0B7FC5349086020E041480078BC
:100E500001280CD1414890ED000A4D4880ED000A70
:100E6000424890ED000A4B4880ED000A0FE03948F7
:100E7000007802280BD1384890ED000A444880EDF4
:100E8000000A394890ED000A424880ED000A4248C5
:100E9000007848B93E4890ED000AF2EE040A20EED0
:100EA000200A80ED000AE0E03B480078012809D1E3
:100EB000374890ED000ADFED390A20EE200A80ED78
:100EC000000AD2E034480078022808D1304890ED7A
:100ED000000A5FEDF90A20EE200A80ED000AC4E066
:100EE00025480078012825D114480078002821D110
:100EF0002248007800281DD114480078002819D114
:100F000010480078B0B900201B49087010490870DB
:100F10000D490870224908701849087001202149BC
:100F200008700020204908700548007818B1012891
:100F300044D13FE099E039E0A30400200B000020F9
:100F40000D000020100000200C00002012000020E6
:100F50000A00002008000020B003002064040020E4
:100F60001C00002020000020B403002068040020A2
:100F70002400002028000020A40400200F000020EE
:100F8000C0030020C8030020C4030020CC030020BD
:100F90002C000020300000209D0000200000C842EE
:100FA0000E00002013000020140000200120FC4946
:100FB000087004E00020FA49087000E000BF00BF9C
:100FC000F748007810B1012847D113E0002203212F
:100FD0001B200DF0B2FA0122032118200DF0ADFA0A
:100FE0000122032115200DF0A8FA0021ED4808F098
:100FF0001FFF33E00022022110460DF09EFA00226E
:1010000002210A200DF099FA012203211B200DF084
:1010100094FA0022032118200DF08FFA00220321F8
:1010200015200DF08AFA01200DF0EFFE02200DF0E0
:10103000ECFE0121DB4808F0FBFE0020DA490880C5
:101040000021084607F0CEFE1021D84809F0C7FA63
:101050000121D74808F0ECFE00E000BF00BFFFF719
:10106000C6FAFFF797FAFFF7D8FA27E2D1480078D7
:10107000012866D1D0480078C0BBC9480078A8BB19
:10108000CE48007890BBCE48007878BBCD48007839
:1010900060BB0020C7490870CB490870CB49087075
:1010A000CB480078012812D10020C94908705B2183
:1010B00008460EF009F85B200EF03AF8C5490870B2
:1010C00008460078012835D10020087032E0C24877
:1010D000007806282CD2DFE800F0030A10171E253E
:1010E0000120BD4908700EF0A4FF22E029E0022093
:1010F000B94908700EF09DFF1BE00320B649087047
:1011000000200EF096FF14E00420B349087001207F
:101110000EF08FFF0DE00520AF49087002200EF0A1
:1011200088FF06E00020AC4908700EF082FF00E066
:1011300000BF00BFFFF771FAFFF759FAFFF72AFA6D
:1011400065E09C480078012834D19D48007801284A
:1011500030D19C48007868BB0020964908709F49B0
:10116000087001200DF05AFE9B48007810B101284C
:1011700008D103E001209849087004E00020964956
:10118000087000E000BF00BF9348007810B101284C
:101190000ED106E0032102209FED910A0DF007FB1E
:1011A00007E0042102209FED8F0A0DF000FB00E014
:1011B00000BF2CE08C480078012828D17E480078B8
:1011C00028BB8048007810BB002087490870804801
:1011D000007801281BD001207D4908705A2108465B
:1011E0000DF072FF5A200DF0A3FF7A4908700846EF
:1011F0000078012801D100200870012202211C2062
:101200000DF09BF9002203211C200DF096F955E109
:101210006848007801283CD167480078C8BB60481E
:101220000078B0BB6748007898BB0020614908701F
:10123000654908706549087067490870012064496C
:1012400008700DF0EEF95D48007830B1012808D043
:1012500002280AD0032810D10BE00120574908705A
:101260000CE002205549087008E00320534908703B
:1012700004E000205149087000E000BF00BF4F4863
:10128000007840B1012811D002281AD0032829D1B2
:1012900022E056E011E10122032118200DF04DF962
:1012A0000122032115200DF048F91CE00122002144
:1012B00013200DF042F90122002115200DF03DF917
:1012C00011E00122002113200DF037F90122002145
:1012D00014200DF032F906E00122114616200DF01F
:1012E0002CF900E000BF00BF4048007820B1012881
:1012F00008D002281CD10BE0012211461D200DF060
:101300001CF916E0012200211C200DF016F910E056
:10131000012200211C200DF010F9012200211D20C6
:101320000DF00BF9012211461D200DF006F900E029
:1013300000BF00BFFFF72EF9FFF759F9FFF76DF96E
:101340006DE029480078012869D11B48007830BB3E
:101350001348007818BB1948007800BB184800787B
:10136000E8B918480078D0B900201F49087016491C
:101370000870164908701849087010490870012053
:101380000F490870124908700DF04BF90122022133
:1013900017200DF0D2F80122002129E040E03EE0C4
:1013A0000D00002000200040C4040020000C00407C
:1013B000005C0140A30400200B0000200F0000206F
:1013C00012000020100000200A0000200C00002065
:1013D00013000020B30400200E000020AC03002006
:1013E000000016440000FA44A40400200800002075
:1013F0001A200DF0A2F80122032115200DF09DF80E
:1014000001200DF00BFD032102201FED0B0A0DF052
:10141000CEF9FFF7ECF8FFF7BDF8FFF7FEF84DE067
:10142000FB480078012826D10020F9490870F948C6
:10143000007810B1012808D103E00120F5490870B7
:1014400004E00020F349087000E000BF00BFF1484D
:10145000007810B101280CD105E0002201211C20E8
:101460000DF06BF806E0012211461C200DF065F826
:1014700000E000BF20E0E848007801281CD10020EF
:10148000E5490870E548007810B1012808D103E06B
:101490000120E249087004E00020E049087000E003
:1014A00000BF00BFDD48007810B1012802D100E084
:1014B00001E000E000BF00BF00E000BF00BF01F09E
:1014C0002DBCD748007806287CD2DFE800F003C1A5
:1014D000FCFBFAF9CE480078012861D1D1480078A8
:1014E000D0BBD1480078B8BBCA480078A0BB002068
:1014F000CE490870CE490870CE490870CE480078B1
:1015000020B1012806D002280CD107E00120CA49E9
:10151000087008E00220C849087004E00020C649AD
:10152000087000E000BF00BFC348007820B1012868
:1015300013D002282CD120E00022012117200CF02A
:10154000FCFF012200211A200CF0F7FF01220021EC
:101550001B200CF0F2FF1CE022E0002211461A20B2
:101560000CF0EBFF002211461B200CF0E6FF0122DD
:10157000002119200CF0E1FF0BE000221146192098
:101580000CF0DBFF0122114617200CF0D6FF00E023
:1015900000BF00BFFEF7FEFFFFF729F8FFF73DF899
:1015A0009B480078012852D19E48007888B399481A
:1015B000007870BBA048007828B1012807D0022825
:1015C0000DD108E0EFE301209B49087008E00220FC
:1015D0009949087004E000209749087000E000BFB6
:1015E00000BF9548007820B1012813D002282CD1E3
:1015F00020E00022012117200CF09FFF0122002192
:101600001A200CF09AFF012200211B200CF095FFFC
:101610001CE01CE0002211461A200CF08EFF002274
:1016200011461B200CF089FF0122002119200CF02B
:1016300084FF0BE00022114619200CF07EFF0122EE
:10164000114617200CF079FF00E000BF00BF8AE3CD
:101650006F480078012837D172480078A0BB6D48E8
:10166000007888BB00206A490870714908706F488B
:10167000007820B1012806D002280CD107E0012013
:101680006A49087008E002206849087004E00020F8
:101690006649087000E000BF00BFFEF77BFFFEF761
:1016A000A6FF62480078012870D15F48007880BBAF
:1016B0006148007848B1012813D002282AD11CE0E3
:1016C000EFE352E350E36AE1DBE05C4890ED000AAF
:1016D0005B4880ED000A90ED000A5A4880ED000A50
:1016E00019E0594890ED000A554880ED000A90ED48
:1016F000000A544880ED000A0DE0544890ED000ABD
:101700004F4880ED000A90ED000A4E4880ED000A37
:1017100001E03EE000BF00BF4D48007830B1012835
:1017200010D002281AD0032831D123E0494890ED87
:10173000000A494880ED000A90ED000A474880ED14
:10174000000A25E0464890ED000A434880ED000A73
:1017500090ED000A414880ED000A19E0414890ED03
:10176000000A3D4880ED000A90ED000A3B4880EDFC
:10177000000A0DE03C4890ED000A374880ED000A71
:1017800090ED000A354880ED000A01E03FE000BF1F
:1017900004E125480078012839D12D48007830B17E
:1017A000012810D002281AD0032868D123E02F483E
:1017B00090ED000A224880ED000A90ED000A2148D1
:1017C00080ED000A5CE02A4890ED000A1C4880ED9C
:1017D000000A90ED000A1B4880ED000A50E0254801
:1017E00090ED000A164880ED000A90ED000A1548B9
:1017F00080ED000A44E0204890ED000A104880ED9A
:10180000000A90ED000A0F4880ED000A38E076E00B
:10181000A304002010000020A404002011000020D8
:10182000A80400200B000020120000200A00002065
:101830000C0000200E00002008000020D80300202B
:101840001C00002020000020DC030020E00300201A
:101850000F000020F40300202400002028000020B6
:10186000F8030020100400200C040020E4030020F2
:10187000E8030020EC030020F0030020FFE700BF96
:101880008CE0FB480078012839D1FA480078B0BBD9
:10189000F948007898BB0020F5490870F7490870AE
:1018A000F7490870F74908700CF0BBFEF64800785D
:1018B00010B1012808D103E00120F349087004E0C9
:1018C0000020F149087000E000BF00BFEE4800783A
:1018D00010B101285CD12BE0EC48007820B1012840
:1018E0000ED0022818D111E0012200211A200CF09C
:1018F00024FE012200211B200CF01FFE0DE04DE014
:101900000122002119200CF018FE06E001221146E8
:1019100017200CF012FE00E000BF00BF01220221E0
:1019200016200CF00AFE0021D94808F081FA30E0B8
:101930000122032109200CF000FE012200210B20CE
:101940000CF0FBFDD148007820B101280DD0022811
:1019500017D110E0012200211A200CF0EEFD012227
:1019600000211B200CF0E9FD0CE0012200211920D0
:101970000CF0E3FD06E00122114617200CF0DDFD1E
:1019800000E000BF00BF0121C14808F051FA00E0AB
:1019900000BF00BFFEF72BFEFEF73FFEADE3BD48E4
:1019A0000078012833D1B848007880BBB24800786D
:1019B00068BB0020B7490870AE490870AF4800788E
:1019C00010B1012808D103E00120AC49087004E0FF
:1019D0000020AA49087000E000BF00BFFEF707FE24
:1019E000FEF7D8FDA548007888B1AB48007880BBE9
:1019F000A648007820B101280AD0022816D10EE0AE
:101A0000A64890ED000AA64880ED000A0FE064E0C9
:101A1000A44890ED000AA24880ED000A07E0A24821
:101A200090ED000A9E4880ED000A00E000BF00BF74
:101A30009348007830B101280CD0022811D0032837
:101A40001DD115E0994890ED000A994880ED000AF3
:101A500016E016E0974890ED000A954880ED000AE0
:101A60000EE0954890ED000A914880ED000A07E0ED
:101A7000924890ED000A8E4880ED000A00E000BF19
:101A80002BE085480078012827D17D48007830B1C7
:101A900001280BD0022810D003281CD114E088485C
:101AA00090ED000A7E4880ED000A15E0854890ED33
:101AB000000A7B4880ED000A0EE0834890ED000AA2
:101AC000774880ED000A07E0804890ED000A7448EE
:101AD00080ED000A00E000BF00BF6E4800780128DA
:101AE0003CD169480078012838D163480078A8BB08
:101AF00064480078072878D2DFE800F0041A3178CB
:101B00007C80840001205F490870644890ED000AE1
:101B10006F4880ED000A634890ED000A6D4880ED43
:101B2000000A614890ED000A6B4880ED000A6EE003
:101B3000022054490870594890ED000A674880ED2A
:101B4000000A584890ED000A654880ED000A5648A2
:101B500090ED000A634880ED000A58E0EFE00320B2
:101B6000484908704D4890ED000A5F4880ED000A32
:101B70004C4890ED000A5D4880ED000A4A4890ED1F
:101B8000000A5B4880ED000A514890ED000A534876
:101B9000D0ED000A30EE200A5348D0ED000A30EEB6
:101BA000200A544880ED000A4A4890ED000A4C484B
:101BB000D0ED000A30EE200A4C48D0ED000A30EE9D
:101BC000200A4D4880ED000A434890ED000A454840
:101BD000D0ED000A30EE200A4548D0ED000A30EE84
:101BE000200A464880ED000A11E00FE00420254954
:101BF00008700CE005202349087008E00620214900
:101C0000087004E003201F49087000E000BF00BF17
:101C10001C480078072873D2DFE800F004050B1198
:101C2000737E89008AE00022032109200CF085FCE4
:101C300084E0002203210A200CF07FFC7EE00022D9
:101C4000022109200CF079FC002201210B200CF06C
:101C500074FC0122032109200CF06FFC01220021F9
:101C60000B200CF06AFC0021094808F0E1F865E05F
:101C7000A40400200A000020100000200C00002016
:101C80000F0000200D0000200B00002008000020A5
:101C900000200040A304002012000020D8030020F0
:101CA0002C000020DC030020E0030020F4030020CF
:101CB00030000020F8030020100400200C04002055
:101CC000E4030020E8030020EC030020F0030020E0
:101CD0003C0000204000002044000020480000207C
:101CE0004C0000205000002054000020580000202C
:101CF0005C000020600000206400002068000020DC
:101D00001BE00022032109200CF017FC0122032113
:101D10000A200CF012FC11E0002203210A200CF032
:101D20000CFC012211460B200CF007FC06E00122FE
:101D3000022109200CF001FC00E000BF13E0FE4886
:101D4000007801280FD1FD48007860B9FC48007880
:101D500048B90020F849087001200DF04CF84FF404
:101D60007A7009F0CAFDC8E1C7E1F6480078012899
:101D70006BD1F248007878BBF348007860BBF0483C
:101D8000007848BB0020EF490870F048007830B177
:101D9000012809D002280BD0032811D10CE0012022
:101DA000EA4908700DE0A7E10220E849087008E060
:101DB0000320E649087004E00020E449087000E0D0
:101DC00000BF00BFE148007838B1012815D00228D3
:101DD00019D0032837D12BE037E000221146132019
:101DE0000CF0ABFB0022114614200CF0A6FB0122E4
:101DF000022116200CF0A1FB26E00122032116206F
:101E00000CF09BFB20E00022032116200CF095FB38
:101E10000022022116200CF090FB01220021132049
:101E20000CF08BFB0122002115200CF086FB0BE04F
:101E30000022114615200CF080FB01220021142005
:101E40000CF07BFB00E000BF08E1BE4800780128F1
:101E500044D1BD480078012840D1B9480078E8BB9A
:101E60000020B8490870BA490870BA490870B748E4
:101E7000007830B1012808D002280AD0032811D1F7
:101E80000BE00120B14908700DE00220AF49087055
:101E900009E00320AD49087005E00020AB49087057
:101EA00001E0DCE000BF00BFA848007830B10128A5
:101EB0001BD0022829D0032856D140E0012200215E
:101EC00008200CF03AFB0122002119200CF035FB10
:101ED0000122002118200CF030FB00E04DE0002230
:101EE000032117200CF029FB3FE0012200211A20DA
:101EF0000CF023FB012200211B200CF01EFB002212
:101F0000114619200CF019FB2FE0012202211820A4
:101F10000CF013FB0122114617200CF00EFB0022DF
:101F2000114608200CF009FB002211461A200CF083
:101F300004FB002211461B200CF0FFFA15E00122E1
:101F4000032117200CF0F9FA0022022118200CF0CE
:101F5000F4FA0022012117200CF0EFFA00221146BA
:101F600018200CF0EAFA00E000BF00BFFEF712FBF9
:101F7000FEF73DFBFEF751FB70E06F48007801284B
:101F80006CD16E48007880BB6D48007868BB00203B
:101F900069490870704908706D4908706D4908708A
:101FA0006E490870694908706D4908809FED6D0A97
:101FB0006D4880ED000A9FED6B0A6C4880ED000AC9
:101FC0009FED680A6A4880ED000A0CF02AFB5E4823
:101FD000007810B1012809D103E001205A490870A6
:101FE00005E000205849087001E037E000BF00BF5D
:101FF0005548007810B1012828D113E001220021B2
:102000001A200CF09AFA012200211B200CF095FAFC
:102010000122022116200CF090FA0021554807F009
:1020200007FF14E00122002108200CF086FA0122AB
:10203000002119200CF081FA0122002118200CF057
:102040007CFA01214B4807F0F3FE00E000BF00BF1F
:10205000FEF7A0FAFEF7CBFAFEF7DFFA4DE03948BB
:102060000078012826D100203649087034480078CD
:1020700010B1012808D103E001203149087004E0C3
:1020800000202F49087000E000BF00BF2C480078F6
:1020900010B101280CD105E0002201211C200CF018
:1020A0004CFA06E0012211461C200CF046FA00E032
:1020B00000BF20E02048007801281CD100201E49E4
:1020C00008702D48007810B1012808D103E00120E4
:1020D0002949087004E000202749087000E000BF8B
:1020E00000BF2548007810B1012802D100E001E0CE
:1020F00000E000BF00BF00E000BF00BFDEE21F48FD
:102100000078062877D2DFE800F00377BDE7FEFD10
:102110000C48007801286DD10C48007890BB084825
:10212000007878BB00200A4908700A4908700B49FA
:1021300008700120124926E0A40400200B000020B2
:1021400010000020A3040020120000200F00002037
:102150000A0000200C000020080000200E000020D3
:10216000DA04002000000000E4030020E80300205F
:10217000EC0300200018004011000020A8040020FB
:102180001300002036E008700CF04BFAF748007896
:1021900010B1012808D103E00120F449087004E0DF
:1021A0000020F249087000E000BF00BFEF4800784F
:1021B00010B1012816D10AE0012200211C200CF0E8
:1021C000BCF90122032118200CF0B7F90BE0012221
:1021D00011461D200CF0B1F90122032118200CF04A
:1021E000ACF900E000BF00BFFEF7D4F9FEF7FFF93D
:1021F000FEF713FA61E25FE2DD480078012840D182
:10220000DC48007888BB0020D9490870DA4908709A
:10221000DA48007820B1012806D002280CD107E066
:102220000120D649087008E00220D449087004E073
:102230000020D249087000E000BF00BFFEF7AAF9F5
:10224000FEF7D5F9CD48007801281AD1CC4800789E
:1022500002280BD0CB4890ED000ACB4880ED000A55
:1022600090ED000AC94880ED000A0AE0C84890EDE8
:10227000000AC84880ED000A90ED000AC64880EDCB
:10228000000A1AE2BA480078012824D1B948007837
:1022900008BB0020B6490870B8490870B6480078F5
:1022A00010B1012808D103E00120B349087004E00F
:1022B0000020B149087000E000BF00BFFEF797F9A9
:1022C000FEF768F9AC48007828B1AE4890ED000AF6
:1022D000B24880ED000AF0E1A548007801283BD122
:1022E000A7480078C0BBA3480078A8BB0020A0493D
:1022F0000870A2490870A04908709C48007828B16D
:10230000012801E08BE114E17FD141E0A44800788D
:10231000012812D10020A24908705B2108460CF068
:10232000D3FE5B200CF004FF9E490870084600783D
:1023300001282CD10020087029E09B48007805284E
:1023400023D2DFE800F0030A10161C000120964992
:1023500008700DF06EFE19E060E0022092490870EE
:102360000DF067FE12E003208F4908700DF061FE4A
:102370000CE004208C4908700DF05BFE06E00020A4
:10238000894908700DF055FE00E000BF00BF3DE038
:1023900083480078012812D10020814908705B2110
:1023A00008460CF091FE5B200CF0C2FE7D490870DF
:1023B00008460078012827D10020087024E07A48D8
:1023C000007830B101280AD002280FD0032819D193
:1023D00012E00120744908700DF02BFE13E002207A
:1023E000714908700DF025FE0DE00EE003206E49E6
:1023F00008700DF01EFE06E000206B4908700DF01D
:1024000018FE00E000BF00BF00E000BF00BFFEF705
:1024100004F9FEF7ECF8FEF7BDF889E054480078BF
:1024200001285BD156480078012857D151480078DF
:1024300090BB00204E490870504908704E49087002
:1024400057480078012812D10020554908705B21B7
:1024500008460CF039FE5B200CF06AFE514908700A
:1024600008460078012832D1002008702FE04E483D
:102470000078062829D2DFE800F0030910161C2294
:102480000120494908700DF0D4FD1FE002204649A3
:1024900008700DF0CEFD19E020E0032042490870DD
:1024A0000DF0C7FD12E004203F4908700DF0C1FD9A
:1024B0000CE005203C4908700DF0BBFD06E0002053
:1024C000394908700DF0B5FD00E000BF00BFFEF710
:1024D000A4F8FEF78CF8FEF75DF829E033480078A1
:1024E000012825D12348007810BB00202F4908700F
:1024F0002B48007801281BD00120294908705A2157
:1025000008460CF0E1FD5A200CF012FE2549087037
:1025100008460078012801D100200870012202211C
:102520001C200CF00AF8002203211C200CF005F8F6
:10253000C3E00F480078012870D10C4800780128CA
:102540006CD10C48007880B900200C4908700A4909
:102550000870154908700CF064F80948007838B321
:1025600001282AD0022830D12BE057E008000020B3
:10257000A3040020100000200C0000200A0000200E
:102580000F000020B80400201C00002020000020C4
:10259000BC04002024000020280000202C00002083
:1025A00013000020B30400200E000020A40400202B
:1025B000FFE70120FE49087008E00220FC4908708E
:1025C00004E00020FA49087000E000BF00BFF848AE
:1025D000007828B90122032118200BF0AEFF12E089
:1025E000F3480078012805D10122114618200BF08C
:1025F000A4FF08E0EE480078022804D10122114629
:1026000014200BF09AFF012211461D200BF095FFBC
:10261000FDF7C0FFFDF7EBFFFDF7FFFF4DE0E548DD
:102620000078012826D10020E2490870E2480078AD
:1026300010B1012808D103E00120DF49087004E04F
:102640000020DD49087000E000BF00BFDA480078D4
:1026500010B101280CD105E0002201211C200BF053
:102660006CFF06E0012211461C200BF066FF00E023
:1026700000BF20E0D148007801281CD10020CF49BC
:102680000870CF48007810B1012808D103E001207C
:10269000CB49087004E00020C949087000E000BF81
:1026A00000BFC748007810B1012802D100E001E066
:1026B00000E000BF00BF00E000BF00BF2EE3C14844
:1026C000007806287CD2DFE800F003457CA6A7A8A6
:1026D000B848007801283CD1B748007890BB00206A
:1026E000B9490870B94908700BF09BFFB8480078E9
:1026F00010B1012808D103E00120B549087004E0B9
:102700000020B349087000E000BF00BFB048007867
:1027100010B1012817D10AE00122002108460BF070
:102720000CFF0122114619200BF007FF0CE00122DB
:10273000114600200BF001FF0122032118200BF0AD
:10274000FCFE01E005E000BF00BFFDF723FFFDF741
:102750004EFFB0E097480078012830D196480078C5
:1027600068BB002093490870984908709648007823
:1027700020B1012806D002280CD107E0012092499F
:10278000087008E002209049087004E000208E499B
:10279000087000E000BF00BFFDF7FCFEFDF727FF5B
:1027A0008948007801280AD18A4890ED000A8A48B1
:1027B00080ED000A90ED000A884880ED000A7AE07A
:1027C00078E07C480078012824D17B48007808BB59
:1027D0000020784908707C4908707C48007810B166
:1027E000012808D103E001207849087004E00020A6
:1027F0007649087000E000BF00BFFDF7F8FEFDF766
:10280000C9FE7248007828B1724890ED000A7448F9
:1028100080ED000A4FE04EE04DE066480078012868
:1028200026D10020634908706348007810B1012860
:1028300008D103E001206049087004E000205E49EF
:10284000087000E000BF00BF5B48007810B10128AD
:102850000CD105E0002201211C200BF06EFE06E0E9
:10286000012211461C200BF068FE00E000BF20E0B2
:102870005248007801281CD1002050490870504867
:10288000007810B1012808D103E001204C490870FC
:1028900004E000204A49087000E000BF00BF48483B
:1028A000007810B1012802D100E001E000E000BF93
:1028B00000BF00E000BF00BF30E2424800780628B9
:1028C00074D2DFE800F00363BAE4FDFC3948007815
:1028D00001285AD13848007888BB00203A4908704E
:1028E0003A4908703F49087001203F4908700BF0D1
:1028F00098FE3748007830B1012808D002280AD065
:10290000032810D10BE00120314908700CE00220AF
:102910002F49087008E003202D49087004E00020CA
:102920002B49087000E000BF00BF2948007838B18B
:10293000012810D0022814D003281ED117E024E06B
:102940000122114619200BF0F8FD012202211C2062
:102950000BF0F3FD12E00122032119200BF0EDFD35
:102960000CE00122114615200BF0E7FD06E00122E4
:10297000002116200BF0E1FD00E000BF00BFFDF7D5
:1029800009FEFDF734FEFDF748FEC4E10948007872
:10299000012851D10848007848B90020054908703D
:1029A0000A4908700848007828B31FE0B2E143E004
:1029B0000F000020A304002010000020A404002029
:1029C00011000020A80400200A0000200C000020B4
:1029D00008000020B80400201C0000202000002077
:1029E0002C0000200E00002013000020012806D03B
:1029F00002280CD107E00120F849087008E0022005
:102A0000F649087004E00020F449087000E000BFB7
:102A100000BFFDF7BFFDFDF7EAFDF0480078012893
:102A20000AD1EF4890ED000AEE4880ED000A90EDE3
:102A3000000AED4880ED000A6DE1EC4800780128BD
:102A400024D1EB48007808BB0020E8490870E3492E
:102A50000870E848007810B1012808D103E001208F
:102A6000E449087004E00020E249087000E000BF7B
:102A700000BFFDF7BCFDFDF78DFDDE48007828B1F5
:102A8000D74890ED000ADC4880ED000A43E1D748C2
:102A9000007801283BD1D6480078C0BB0020D3493C
:102AA0000870CE490870D3490870D448007840B106
:102AB00001284ED0022874D0032873D1A7E0DCE0AF
:102AC000DAE0CF480078012812D10020CC49087004
:102AD0005B2108460CF0F8FA5B200CF029FBC94991
:102AE000087008460078012832D1002008702FE0D5
:102AF000C5480078062829D2DFE800F0030A10163E
:102B00001C220120C04908700DF093FA1FE088E0F4
:102B10000220BD4908700DF08CFA18E00320BA4974
:102B200008700DF086FA12E00420B74908700DF025
:102B300080FA0CE00520B44908700DF07AFA06E03E
:102B40000020B14908700DF074FA00E000BF00BF2A
:102B50005FE0AB480078012812D10020A849087036
:102B60005B2108460CF0B0FA5B200CF0E1FAA549B5
:102B7000087008460078012847D10020087044E01A
:102B8000A148007808283ED2DFE800F0040D141BAD
:102B90002229303701209C49087000200DF049FAA5
:102BA00032E033E034E002209749087000200DF055
:102BB00040FA29E003209449087001200DF039FA09
:102BC00022E004209049087002200DF032FA1BE048
:102BD00005208D49087002200DF02BFA14E0062024
:102BE0008949087003200DF024FA0DE0072086497A
:102BF000087003200DF01DFA06E0002082490870DD
:102C00000DF017FA00E000BF00BF02E001E000E0B5
:102C100000BF00BFFDF701FDFDF7E9FCFDF7BAFCC1
:102C200029E07A480078012825D17148007810BB46
:102C30000020764908707248007801281BD00120D6
:102C40006F4908705A2108460CF03EFA5A200CF0E1
:102C50006FFA6C49087008460078012801D10020FD
:102C60000870012202211C200BF067FC00220321C6
:102C70001C200BF062FC4EE04DE05C48007801281F
:102C800026D10020594908705948007810B1012810
:102C900008D103E001205649087004E0002054499F
:102CA000087000E000BF00BF5148007810B1012853
:102CB0000CD105E0002201211C200BF03EFC06E0B7
:102CC000012211461C200BF038FC00E000BF20E080
:102CD0004E48007801281CD100204C4908704C480F
:102CE000007810B1012808D103E00120484908709C
:102CF00004E000204649087000E000BF00BF4448DF
:102D0000007810B1012802D100E001E000E000BF2E
:102D100000BF00E000BF00BF00E000BF00BF3D48B3
:102D2000007838BB39480078012823D13048007832
:102D300000BB0020354908703748007810B10128E1
:102D400008D103E001203449087004E00020324932
:102D5000087000E000BF00BF2F48007810B10128C4
:102D600006D102E00DF02EFE03E00DF024FE00E09F
:102D700000BF00BFFDF7F8FB2648007898B91B4854
:102D8000007801280FD11A48007860B9002017494F
:102D9000087022480078082802D121480078D0B96C
:102DA000FDF7D3FA17E01D480078082813D1194819
:102DB000007804280FD10D48007801280BD10F4866
:102DC0000078012807D10A48007820B90020074977
:102DD0000870FDF7BAFABDEC088B10BD0A000020A0
:102DE000B80400201C00002020000020A3040020C4
:102DF000100000200C0000202C0000200800002003
:102E000013000020B30400200E000020A4040020C2
:102E100011000020A804002009000020A6040020C2
:102E20000F00002000B589B0FB480078002844F06E
:102E30001C81FDF7E8FCF9480078801F052884F024
:102E40001281DFE810F00500070D58105618C5185C
:102E5000F34890ED000AF34880ED000A90ED000A77
:102E6000F3EE0E0AB4EEE00AF1EE10FA05DD0122EF
:102E7000032100200BF061FB04E000220321104637
:102E80000BF05BFBE8480078002841F08681E748BA
:102E900000780028F9D1E64800780028F5D1E54807
:102EA00000780028F1D1E448007800287ED1DC4881
:102EB00090ED000AE14880ED000AE14890ED000A3B
:102EC000E04880ED000A0120DC4991ED000AFDF7A1
:102ED00061FCDD4880ED000A0220DA4991ED000A2C
:102EE000FDF758FCD94880ED000AD948007806283B
:102EF0007DD2DFE800F0035FDEFDFCFBD548007803
:102F0000012842D1CD4890ED000AF1EE080AB4EE56
:102F1000E00AF1EE10FA09D801210846CA4A92EDFA
:102F2000000A0BF044FCCC4908700CE001200BF0C7
:102F300075FF0122002102200BF0FFFAC44800783F
:102F4000401CC3490870BF4890ED000ADFEDC30A7A
:102F5000B4EEE00AF1EE10FA09D803210220BB4AD0
:102F600092ED000A0BF023FCBB49087021E002201F
:102F70000BF054FF0122002111200BF0DEFAB448BF
:102F80000078C01CB249087013E001210846AE4A1F
:102F900092ED000A0BF00BFCAF49087003210220F0
:102FA000AA4A92ED000A0BF002FC00E08DE2AA4969
:102FB000087088E2A7480078012867D19F4890ED03
:102FC000000ADFEDA70AB4EEE00AF1EE10FA14D819
:102FD00090ED000AF1EE080AB4EEE00AF1EE10FA04
:102FE0000BDD02210120984A92ED000A00E069E21F
:102FF0000BF0DDFB9849087026E0904890ED000A40
:10300000F1EE080AB4EEE00AF1EE10FA05D89048A5
:103010000078401E8E4908700EE0884890ED000A46
:10302000DFED8F0AB4EEE00AF1EE10FA04DD884815
:103030000078401C8649087001200BF0EFFE012249
:10304000002104200BF079FA7E4890ED000ADFEDB4
:10305000830AB4EEE00AF1EE10FA09D80321022047
:103060007A4A92ED000A0BF0A2FB7B4908701FE040
:1030700002200BF0D3FE0122002111200BF05DFA9B
:1030800073480078C01C7249087011E002210120C9
:103090006D4A92ED000A0BF08AFB6F49087003211C
:1030A00002206A4A92ED000A0BF081FB6A4908701F
:1030B00009E268480078012859D1604890ED000A7B
:1030C000DFED660AB4EEE00AF1EE10FA16D890EDE4
:1030D000000ADFED630AB4EEE00AF1EE10FA0DDD4E
:1030E00003210120584A92ED000A02E06FE1E2E07C
:1030F00050E00BF05CFB5849087016E04F4890ED2B
:10310000000ADFED570AB4EEE00AF1EE10FA04D837
:103110004F480078401E4E49087001200BF07EFE9B
:103120000122002106200BF008FA464890ED000A23
:10313000DFED4A0AB4EEE00AF1EE10FA09D80321F5
:103140000220424A92ED000A0BF031FB424908701E
:103150001FE002200BF062FE0122002111200BF083
:10316000ECF93B480078C01C3949087011E0032194
:103170000120354A92ED000A0BF019FB3649087020
:1031800003210220314A92ED000A0BF010FB324974
:10319000087098E12F480078012879D1274890EDF0
:1031A000000AF1EE080AB4EEE00AF1EE10FA09D8CE
:1031B00001210846244A92ED000A0BF0F8FA26494C
:1031C00008700CE001200BF029FE012200210220F2
:1031D0000BF0B3F91E480078401C1D4908701948CF
:1031E00090ED000ADFED1F0AB4EEE00AF1EE10FAEE
:1031F0003AD890ED000ADFED190AB4EEE00AF1EEDC
:1032000010FA31DD04210220104A92ED000A0BF081
:10321000CEFA114908704DE010000020A6040020ED
:10322000B0030020900000200F00002012000020BA
:103230000B0000200D000020080000208800002066
:10324000B40300208C000020780000207C000020C7
:103250000E0000201300002074000020000016441F
:10326000000070420000FA44FE4890ED000A5FED55
:10327000050AB4EEE00AF1EE10FA1BD802200BF0BA
:10328000CDFDF9480078C01EF749087012E0FFE74D
:1032900001210846F54A92ED000A0BF088FAF4493C
:1032A000087004210220F34A92ED000A0BF07FFA25
:1032B000EF49087007E1F0480078012874D1EF4821
:1032C00090ED000A5FED1A0AB4EEE00AF1EE10FA92
:1032D00012D890ED000AF1EE080AB4EEE00AF1EE21
:1032E00010FA09DD02210120E04A92ED000A0BF0FC
:1032F0005EFADF49087026E0E04890ED000AF1EE42
:10330000080AB4EEE00AF1EE10FA05D8D6480078C3
:10331000401ED54908700EE0D84890ED000A5FEDD8
:10332000300AB4EEE00AF1EE10FA04DDCE4800787F
:10333000401CCD49087001200BF070FD01220021D6
:1033400004200BF0FAF8C74890ED000A5FED3B0A45
:10335000B4EEE00AF1EE10FA12D890ED000A5FED3B
:10336000410AB4EEE00AF1EE10FA09DD0421022070
:10337000C04A92ED000A0BF01AFABD49087025E028
:10338000B84890ED000A5FED4B0AB4EEE00AF1EEAA
:1033900010FA1BD802200BF041FDB3480078C01E84
:1033A000B149087012E0FFE702210120AF4A92ED17
:1033B000000A0BF0FCF9AE49087004210220AD4A66
:1033C00092ED000A0BF0F3F9A94908707BE0AA48D6
:1033D0000078012863D1A94890ED000A5FED610AE9
:1033E000B4EEE00AF1EE10FA12D890ED000A5FEDAB
:1033F000640AB4EEE00AF1EE10FA09DD03210120BF
:103400009A4A92ED000A0BF0D2F99949087016E039
:103410009A4890ED000A5FED6E0AB4EEE00AF1EE14
:1034200010FA04D890480078401E8F490870012097
:103430000BF0F4FC0122002106200BF07EF88948F5
:1034400090ED000A5FED790AB4EEE00AF1EE10FAB1
:1034500012D890ED000A5FED7F0AB4EEE00AF1EEBB
:1034600010FA09DD04210220824A92ED000A0BF0D5
:103470009EF97F49087024E07A4890ED000A5FEDDC
:10348000890AB4EEE00AF1EE10FA1AD802200BF025
:10349000C5FC75480078C01E7349087011E003210F
:1034A0000120724A92ED000A0BF081F97049087010
:1034B000042102206F4A92ED000A0BF078F96C4962
:1034C000087000E000BF01F0B9B96D48007801282C
:1034D00073D16C4890ED000A684880ED000A6A4894
:1034E00090ED000A5F4880ED000A0120634991EDEC
:1034F000000AFDF74FF95D4880ED000A02205949A6
:1035000091ED000AFDF746F95A4880ED000A5B4844
:1035100000680EF00BF9CDE904019DED040B0FF0EE
:103520001BF88DED060B9DED060B51EC100B0EF00C
:1035300041F9564908604C48007806287ED2DFE8F9
:1035400000F0035EF8F6F5F44B480078012843D10B
:103550004E4890ED000AF1EE080AB4EEE00AF1EEF2
:1035600010FA09D801210846404A92ED000A0BF0F2
:103570001EF93F4908700CE001200BF04FFC0122BE
:10358000002102200AF0D9FF37480078401C364954
:103590000870344890ED000A5FEDD00AB4EEE00AFE
:1035A000F1EE10FA0AD803210220324A92ED000A05
:1035B0000BF0FDF82E49087020E0B0E202200BF07D
:1035C0002DFC0122002111200AF0B7FF26480078C7
:1035D000C01C2549087011E001210846234A92EDDC
:1035E000000A0BF0E4F82249087003210220214A66
:1035F00092ED000A0BF0DBF81D4908708EE21E48C0
:10360000007801287ED1214890ED000A5FEDEC0A98
:10361000B4EEE00AF1EE10FA14D890ED000AF1EEE3
:10362000080AB4EEE00AF1EE10FA0BDD02210120E7
:103630000E4A92ED000A0BF0BAF800E06DE20C4978
:1036400008703CE0114890ED000AF1EE080AB4EE73
:10365000E00AF1EE10FA1BD803480078401E024938
:10366000087024E08C0000200E000020780000206C
:10367000740000207C00002013000020880000203F
:10368000080000206404002068040020940000204A
:10369000FE4890ED000ADFEDFE0AB4EEE00AF1EE1E
:1036A00010FA04DDFB480078401CFA49087001203C
:1036B0000BF0B4FB0122002104200AF03EFFF64883
:1036C00090ED000ADFEDF50AB4EEE00AF1EE10FA33
:1036D0000AD803210220F24A92ED000A0BF067F8A3
:1036E000F049087020E00DE002200BF097FB01226A
:1036F000002111200AF021FFE6480078C01CE549AE
:10370000087011E002210120E74A92ED000A0BF057
:103710004EF8E449087003210220E14A92ED000AC4
:103720000BF045F8DF490870F8E163E1D6E06DE0A1
:10373000FFE7DE480078012855D1D44890ED000A13
:10374000DFEDD60AB4EEE00AF1EE10FA12D890EDF1
:10375000000ADFEDCF0AB4EEE00AF1EE10FA09DD5F
:1037600003210120D04A92ED000A0BF020F8CD4948
:10377000087016E0C54890ED000ADFEDC50AB4EE0A
:10378000E00AF1EE10FA04D8C2480078401EC149A0
:10379000087001200BF042FB0122002106200AF0F4
:1037A000CCFEBD4890ED000ADFEDBC0AB4EEE00AA5
:1037B000F1EE10FA09D803210220B94A92ED000A6D
:1037C0000AF0F5FFB74908701FE002200BF026FB56
:1037D0000122002111200AF0B0FEAE480078C01C82
:1037E000AC49087011E003210120AF4A92ED000AB4
:1037F0000AF0DDFFAB49087003210220A84A92EDD0
:10380000000A0AF0D4FFA749087087E1A7480078AA
:10381000012850D19D4890ED000AF1EE080AB4EE5F
:10382000E00AF1EE10FA09D8012108469E4A92ED0D
:10383000000A0AF0BCFF9B4908700CE001200BF065
:10384000EDFA0122002102200AF077FE914800786B
:10385000401C90490870904890ED000ADFED940AF2
:10386000B4EEE00AF1EE10FA12D890ED000ADFEDA6
:103870008B0AB4EEE00AF1EE10FA09DD0421022011
:10388000874A92ED000A0AF092FF8649087024E008
:10389000814890ED000ADFED810AB4EEE00AF1EE16
:1038A00010FA1AD802200BF0B9FA7A480078C01E34
:1038B0007849087011E0012108467B4A92ED000A20
:1038C0000AF075FF7749087004210220744A92EDCE
:1038D000000A0AF06CFF734908701FE17348007812
:1038E000012874D1694890ED000ADFED690AB4EE51
:1038F000E00AF1EE10FA12D890ED000AF1EE080A93
:10390000B4EEE00AF1EE10FA09DD02210120664A68
:1039100092ED000A0AF04BFF6249087026E05B480E
:1039200090ED000AF1EE080AB4EEE00AF1EE10FAAA
:1039300005D858480078401E564908700EE0534894
:1039400090ED000ADFED520AB4EEE00AF1EE10FA53
:1039500004DD50480078401C4E49087001200BF0EF
:103960005DFA0122002104200AF0E7FD4A4890EDAB
:10397000000ADFED4F0AB4EEE00AF1EE10FA12D8B9
:1039800090ED000ADFED450AB4EEE00AF1EE10FA20
:1039900009DD04210220424A92ED000A0AF007FFE5
:1039A0004049087025E03C4890ED000ADFED3B0AF5
:1039B000B4EEE00AF1EE10FA1BD802200BF02EFA5A
:1039C00034480078C01E3349087012E0FFE7022136
:1039D0000120354A92ED000A0AF0E9FE31490870EB
:1039E000042102202E4A92ED000A0AF0E0FE2D4941
:1039F000087093E02D48007801287BD1234890ED92
:103A0000000ADFED260AB4EEE00AF1EE10FA12D851
:103A100090ED000ADFED1E0AB4EEE00AF1EE10FAB6
:103A200009DD03210120204A92ED000A0AF0BFFEC1
:103A30001C49087016E0154890ED000ADFED140AE5
:103A4000B4EEE00AF1EE10FA04D812480078401EF5
:103A50001049087001200BF0E1F901220021062035
:103A60000AF06BFD0C4890ED000ADFED120AB4EE8F
:103A7000E00AF1EE10FA29D890ED000ADFED070A0E
:103A8000B4EEE00AF1EE10FA20DD15E0940000201B
:103A9000000070420E0000208C0000200000164440
:103AA0007C0000207400002078000020130000201B
:103AB00000803B450000FA4404210220FE4A92EDBA
:103AC000000A0AF074FEFD49087025E0FC4890EDFC
:103AD000000A5FED0E0AB4EEE00AF1EE10FA1BD810
:103AE00002200BF09BF9F7480078C01EF5490870DA
:103AF00012E0FFE703210120F34A92ED000A0AF0E9
:103B000056FEEE49087004210220EB4A92ED000AAD
:103B10000AF04DFEE949087000E000BFD3E4EB482D
:103B200000780228FAD1EA4800680DF0FFFDCDE9DF
:103B300000019DED000B0EF00FFD8DED040BE5482F
:103B400000680DF0F3FDCDE902019DED040B53EC8F
:103B5000102B9DED020B51EC100B0DF0D1FCCDE9BB
:103B600006019DED060B51EC100B0DF023FEDA491A
:103B70000860DA4800680DF0D9FDCDE900019DED3F
:103B8000000B0EF0E9FC8DED040BD54800680DF03C
:103B9000CDFDCDE902019DED040B53EC102B9DED05
:103BA000020B51EC100B0DF0ABFCCDE906019DEDC5
:103BB000060B51EC100B0DF0FDFDC1490860012012
:103BC000C54991ED000AFCF7E5FDBF4880ED000A0C
:103BD0000220BB4991ED000AFCF7DCFDB64880ED00
:103BE000000AB848007806287ED2DFE800F0035DBE
:103BF000DCFDFCFBBB480078012842D1B64890EDC3
:103C0000000AF1EE080AB4EEE00AF1EE10FA09D863
:103C100001210846AC4A92ED000A0AF0C8FDA74906
:103C200008700CE001200BF0F9F8012200210220BD
:103C30000AF083FCA3480078401CA2490870A04801
:103C400090ED000A5FED6B0AB4EEE00AF1EE10FAB7
:103C500009D803210220984A92ED000A0AF0A7FD34
:103C6000964908701FE002200BF0D8F801220021CD
:103C700011200AF062FC93480078C01C914908703A
:103C800011E001210846904A92ED000A0AF08FFDEA
:103C90008A49087003210220874A92ED000A0AF03F
:103CA00086FD8649087077E28E480078012867D142
:103CB000894890ED000A5FED8A0AB4EEE00AF1EE61
:103CC00010FA14D890ED000AF1EE080AB4EEE00AFA
:103CD000F1EE10FA0BDD022101207B4A92ED000A81
:103CE0000AF065FD754900E055E2087026E07A4863
:103CF00090ED000AF1EE080AB4EEE00AF1EE10FAD7
:103D000005D870480078401E6E4908700EE0724871
:103D100090ED000A5FEDA20AB4EEE00AF1EE10FAAF
:103D200004DD68480078401C6649087001200BF0EB
:103D300075F80122002104200AF0FFFB604890ED95
:103D4000000A5FEDAA0AB4EEE00AF1EE10FA09D813
:103D500003210220584A92ED000A0AF028FD574933
:103D600008701FE002200BF059F8012200211120F9
:103D70000AF0E3FB53480078C01C5249087011E078
:103D800002210120504A92ED000A0AF010FD4B4931
:103D9000087003210220484A92ED000A0AF007FD4C
:103DA00046490870F8E14F480078012859D14A483F
:103DB00090ED000A5FEDC70AB4EEE00AF1EE10FAEA
:103DC00016D890ED000A5FEDCE0AB4EEE00AF1EEEF
:103DD00010FA0DDD032101203B4A92ED000A0AF0A2
:103DE000E6FC02E05CE1CFE04EE03449087016E00A
:103DF000394890ED000A5FEDDA0AB4EEE00AF1EE20
:103E000010FA04D82F480078401E2E49087001206F
:103E10000BF004F80122002106200AF08EFB28484E
:103E200090ED000A5FEDE30AB4EEE00AF1EE10FA5D
:103E300009D803210220204A92ED000A0AF0B7FCBB
:103E40001E4908701FE002200AF0E8FF012200214D
:103E500011200AF072FB1B480078C01C1949087039
:103E600011E003210120184A92ED000A0AF09FFC9C
:103E700012490870032102200F4A92ED000A0AF04D
:103E800096FC0E49087087E116480078012868D131
:103E9000114890ED000AF1EE080AB4EEE00AF1EEE6
:103EA00010FA21D801210846074A92ED000A0AF0CB
:103EB0007EFC0249087024E07C0000207400002091
:103EC0008C0000200E000020780000200800002058
:103ED00064040020B0030020880000206804002053
:103EE000B40300201300002001200AF097FF0122F4
:103EF000002102200AF021FBF9480078401CF84913
:103F00000870F84890ED000ADFEDF70AB4EEE00A19
:103F1000F1EE10FA12D890ED000ADFEDF40AB4EEDB
:103F2000E00AF1EE10FA09DD04210220F04A92EDD8
:103F3000000A0AF03CFCEF49087024E0E94890EDE3
:103F4000000ADFEDEA0AB4EEE00AF1EE10FA1AD840
:103F500002200AF063FFE2480078C01EE0490870C2
:103F600011E001210846E44A92ED000A0AF01FFC24
:103F7000E049087004210220DD4A92ED000A0AF0AF
:103F800016FCDC49087007E1DC480078012874D190
:103F9000DB4890ED000ADFEDDB0AB4EEE00AF1EE5B
:103FA00010FA12D890ED000AF1EE080AB4EEE00A19
:103FB000F1EE10FA09DD02210120CF4A92ED000A4C
:103FC0000AF0F5FBCB49087026E0CD4890ED000AD9
:103FD000F1EE080AB4EEE00AF1EE10FA05D8C04896
:103FE0000078401EBE4908700EE0C54890ED000AFA
:103FF000DFEDC40AB4EEE00AF1EE10FA04DDB848D1
:104000000078401CB649087001200AF007FF012221
:10401000002104200AF091FAB24890ED000ADFED89
:10402000B20AB4EEE00AF1EE10FA12D890ED000AEE
:10403000DFEDAE0AB4EEE00AF1EE10FA09DD04217C
:104040000220AB4A92ED000A0AF0B1FBA9490870C0
:1040500025E0A44890ED000ADFEDA40AB4EEE00AE2
:10406000F1EE10FA1BD802200AF0D8FE9C48007826
:10407000C01E9B49087012E0FFE7022101209E4A02
:1040800092ED000A0AF093FB9A490870042102207D
:10409000974A92ED000A0AF08AFB964908707BE085
:1040A00096480078012863D1954890ED000ADFED2D
:1040B0008F0AB4EEE00AF1EE10FA12D890ED000A81
:1040C000DFED900AB4EEE00AF1EE10FA09DD03210B
:1040D0000120894A92ED000A0AF069FB85490870BF
:1040E00016E0874890ED000ADFED860AB4EEE00A9C
:1040F000F1EE10FA04D87A480078401E784908702A
:1041000001200AF08BFE0122002106200AF015FA98
:10411000744890ED000ADFED740AB4EEE00AF1EEA7
:1041200010FA12D890ED000ADFED700AB4EEE00A42
:10413000F1EE10FA09DD042102206D4A92ED000A29
:104140000AF035FB6B49087024E0664890ED000AE0
:10415000DFED660AB4EEE00AF1EE10FA1AD802209A
:104160000AF05CFE5E480078C01E5D49087011E0F0
:1041700003210120604A92ED000A0AF018FB5D4914
:104180000870042102205A4A92ED000A0AF00FFB3F
:104190005849087000E000BF50E35B480078C8B39E
:1041A00059480078012804D0022834D003287DD152
:1041B00062E0564890ED000A514880ED000A012067
:1041C0004F4991ED000AFCF7E5FA4B4880ED000AF3
:1041D0000A210120484A92ED000A0AF0E8FA45490E
:1041E00008704B4890ED000A3E4880ED000A02201E
:1041F0003C4991ED000AFCF7CDFA3D4880ED000AFC
:104200000A2102203A4A92ED000A0AF0D0FA39490E
:10421000087088E088E03F4890ED000A384880ED5B
:10422000000A0120364991ED000AFCF7B3FA324842
:1042300080ED000A0A2101202F4A92ED000A0AF0BF
:10424000B6FA2C490870344890ED000A254880EDF4
:10425000000A0220234991ED000AFCF79BFA24484A
:1042600080ED000A0A210220214A92ED000A0AF09C
:104270009EFA2049087056E0284890ED000A204830
:1042800080ED000A01201E4991ED000AFCF782FA38
:10429000194880ED000A02210120174A92ED000A18
:1042A0000AF085FA134908701D4800E03AE090EDE5
:1042B000000A0C4880ED000A02200A4991ED000A2C
:1042C000FCF768FA0A4880ED000A02210846084A0D
:1042D00092ED000A0AF06BFA0649087023E000002C
:1042E0000E0000208C0000200000FA44000016445C
:1042F0007C000020740000207800002013000020C3
:1043000088000020000070420F0000200004002000
:1043100008040020FC03002004040020D003002037
:10432000D403002000BF89E2FE48007868B1FE484F
:1043300000780228F7D10A210120FC4A92ED000AF8
:104340000AF035FAFA49087078E2FA48007878B34A
:10435000F9480078012802D0022853D129E0F74813
:1043600090ED000AF64880ED000A90ED000AF5484D
:1043700080ED000A0A210120F24A92ED000A0AF0BB
:1043800016FAEB490870F04890ED000AEF4880ED0E
:10439000000A90ED000AEE4880ED000A0A21022092
:1043A000EB4A92ED000A0AF002FAE14908702AE0AD
:1043B0002AE0E84890ED000AE14880ED000A90ED1F
:1043C000000AE04880ED000A0A210120DD4A92ED52
:1043D000000A0AF0ECF9D6490870DF4890ED000AAF
:1043E000DA4880ED000A90ED000AD94880ED000A15
:1043F0000A210220D64A92ED000A0AF0D8F9CC49E7
:10440000087000E000BF19E2D448007800288AD084
:10441000D348008800F40040B0B3D24800780428A4
:104420004DD1D14800680690002801DB069801E0D4
:104430000698404214280CDBCB480068A0F5B47005
:104440000790002801DB079801E0079840421428F4
:1044500002DA02200AF0F6FCC348006878380790B8
:10446000002801DB079801E007984042142803DA8E
:1044700002200AF0F1FC13E0BB480068F038079016
:10448000002802DB079802E019E007984042142850
:1044900003DA02200AF0EAFC02E002200AF0ABFC98
:1044A0000A210120B04A92ED000AB8EE400A0AF053
:1044B0007EF99F4908700520AA49087054E0A84871
:1044C000008800F4804048B3A6480078042825DA24
:1044D000A6480078012847D10020A4490870A448C4
:1044E000007810B1012808D103E00120A04908702C
:1044F00004E000209E49087000E000BF00BF9C4817
:104500000078012803D102200AF0BAFC02E0022060
:104510000AF07BFC01200AF095FC25E09048008819
:1045200000F4804000BB9148007801281CD1002095
:104530008E4908708E48007810B1012808D103E038
:1045400001208B49087004E000208949087000E0D0
:1045500000BF00BF86480078012802D10AF068FC3D
:1045600002E001200AF051FC7D48008800F4004080
:1045700020B37C480078032820D100217D4805F035
:1045800057FC7D4800687D490988B0FBF1F201FBCA
:1045900012007B490860084600684FF4B471484334
:1045A00076490988B0FBF1F0754908600846006853
:1045B0006D49086004206B4908703FE16848008835
:1045C00000F48040D8B36F4890ED000A5F4880ED5A
:1045D000000A0A2102205D4A92ED000A0AF0E7F87B
:1045E00053490870594890ED000AF2EE040AB4EEFF
:1045F000E00AF1EE10FA0AD25A480078012806D1F2
:1046000002205849087000200BF0CEFD0FE04F4803
:1046100090ED000AF2EE040AB4EEE00AF1EE10FAB0
:1046200005DD50480078012801D14E4908704D48F9
:104630000078022842D1454890ED000A00E04FE0A2
:10464000DFED510AB4EEE00AF1EE10FA31DD4F4829
:104650000078401C4D49087008460078012805D1B3
:104660003A4890ED000A4A4880ED000A4748007831
:1046700005281ED1354890ED000A4548D0ED000AC6
:1046800030EE600ABDEEC00A8DED070A07980028DB
:1046900001DB079801E00798404205280ADA01216A
:1046A000002004F09FFB00203849087003202D49AA
:1046B0000870C3E0002035490870BFE02948007841
:1046C00003280CD1214890ED000AF2EE040AB4EE62
:1046D000E00AF1EE10FA02D2022022490870ADE0A1
:1046E0001F48008800F48040D0B9264890ED000AA9
:1046F000164880ED000A0A210220144A92ED000AB1
:104700000AF055F80A490870104890ED000ADFEDEC
:104710001E0AB4EEE00AF1EE10FA76DD114839E037
:104720008CE0000012000020AC030020B803002041
:10473000740000200B0000200A000020C0030020AD
:104740008800002078000020C40300208C00002096
:104750007C000020C8030020CC0300200D000020B6
:10476000C40400201400002070000020DD0400209C
:1047700018000020000C0040C8040020CC040020D9
:1047800038000020B00300200000C8429C00002038
:1047900098000020007870BBFA480078012806D104
:1047A000F94890ED000AF94880ED000A27E0F54845
:1047B0000078052823D1F44890ED000AF348D0EDA5
:1047C000000A30EE600ABDEEC00A8DED070A0798B8
:1047D000002801DB079801E00798404205280BDA22
:1047E0000121002004F0FEFA0020E64908700120B3
:1047F000E749087003E008E00020E2490870E1485A
:104800000078401CDF49087018E0DF4890ED000A8E
:104810005FED230AB4EEE00AF1EE10FA0ED2DC48A6
:10482000007801280AD10020D949087000210846E3
:1048300004F0D8FA0021D74805F0FAFAD6480078F3
:1048400030B101210846D54A92ED000A09F0AFFFC8
:1048500002F00ABCD24890ED000AD24880ED000A6E
:1048600090ED000AF3EE0E0AB4EEE00AF1EE10FA53
:1048700005DD01220321002009F05FFE04E0002293
:104880000321104609F059FEC7480078E0BBC7482D
:104890000078C8BBC648007820B101281BD0022888
:1048A0004CD132E0C34890ED000AC34880ED000AC5
:1048B0000120C14991ED000AFBF76CFFB74880ED7C
:1048C000000A0A210120B54A92ED000A09F06FFFA3
:1048D000BA49087033E0BA4890ED000AB64880ED56
:1048E000000A0120B44991ED000AFBF753FFAB48E1
:1048F00080ED000A0A210120A84A92ED000A09F081
:1049000056FFAE4908701AE08AE0AE4890ED000A02
:10491000A94880ED000A0120A74991ED000AFBF7A4
:1049200039FF9E4880ED000A0A2101209B4A92ED42
:10493000000A09F03CFFA149087000E000BF00BF79
:10494000A148007830B101281DD0022834D00328B6
:1049500064D14AE09D4890ED000A8B4880ED000A42
:104960000220894991ED000AFBF714FF8B4880ED86
:10497000000A01210220894A92ED000A09F017FF7E
:104980008E4908704BE0924890ED000A7E4880ED19
:10499000000A02207C4991ED000AFBF7FBFE7F48EC
:1049A00080ED000A012102207C4A92ED000A09F004
:1049B000FEFE8249087032E0864890ED000A724897
:1049C00080ED000A0220704991ED000AFBF7E2FE3B
:1049D000724880ED000A0A210220704A92ED000A16
:1049E00009F0E5FE7549087019E07B4890ED000A72
:1049F000654880ED000A0220634991ED000AFBF74B
:104A0000C9FE664880ED000A0A210220634A92ED41
:104A1000000A09F0CCFE6949087000E000BF69E2B5
:104A20006248007898B36D48007801280CD10020C6
:104A30006A4908700A210220694A128800EE102A89
:104A4000B8EE400A09F0B3FE5F48007830B10128A3
:104A50001ED0022835D0032865D14BE0614890ED87
:104A6000000A554880ED000A0120534991ED000AE3
:104A7000FBF790FE494880ED000A0A210120474AD1
:104A800092ED000A09F093FE4C4908704CE04CE0AE
:104A9000554890ED000A484880ED000A012046493B
:104AA00091ED000AFBF776FE3C4880ED000A0A21F2
:104AB00001203A4A92ED000A09F079FE3F49087058
:104AC00032E04A4890ED000A3B4880ED000A0120A0
:104AD000394991ED000AFBF75DFE304880ED000A90
:104AE0000A2101202D4A92ED000A09F060FE3349A7
:104AF000087019E03E4890ED000A2F4880ED000A4A
:104B000001202D4991ED000AFBF744FE234880ED7A
:104B1000000A0A210120214A92ED000A09F047FE0D
:104B20002649087000E000BFE4E11F480078002833
:104B3000FAD030480078012812D100202D490870A1
:104B40002D48007810B1012808D103E001202A493E
:104B5000087004E000202849087000E000BF00BF92
:104B600026480078072875D2DFE800F0048CD3F2DD
:104B7000F1F0EF002048007810B1012856D14AE04A
:104B80003EE000009C0000208C00002098000020E7
:104B900014000020000C00400C00002078000020D1
:104BA000B0030020900000200B0000201200002025
:104BB00008000020D8030020880000207400002096
:104BC000DC030020E00300200F000020F40300209D
:104BD000F8030020100400200C04002074040020BE
:104BE000DA040020E4030020E8030020EC030020A6
:104BF00034000020DD040020180000200D000020FB
:104C000000220321092009F098FC002211460B2004
:104C100009F093FC0BE001220321092009F08DFC2F
:104C2000012200210B2009F088FC00E000BF00BF3A
:104C3000FA48007820B101280DD002281FD114E0D5
:104C40000A210120F64A92ED000A09F0B0FDF5496B
:104C5000087015E04CE10A210120F34A92ED000AA8
:104C600009F0A5FDEF4908700AE00A210120EF4A8A
:104C700092ED000A09F09BFDEA49087000E000BFD0
:104C800000BF36E1EA48007810B1012816D10AE0E9
:104C9000002203210A2009F050FC002211460B20BB
:104CA00009F04BFC0BE0012203210A2009F045FC2E
:104CB000012200210B2009F040FC00E000BF00BFF2
:104CC000D648007820B101280CD002281ED113E06C
:104CD0000A210120D24A92ED000A09F068FDD1496B
:104CE000087014E00A210120CF4A92ED000A09F071
:104CF0005EFDCC4908700AE00A210120CB4A92ED02
:104D0000000A09F054FDC749087000E000BF00BF69
:104D1000EFE0C748007810B101281AD10AE000225C
:104D200001210B2009F009FC002211460B2009F09B
:104D300004FC0FE0012211460B2009F0FEFB0122CA
:104D400000210B2009F0F9FB04E0A8E07EE054E02C
:104D50002AE000BF00BFB148007820B101280CD084
:104D600002281ED113E00A210120AD4A92ED000A6B
:104D700009F01DFDAB49087014E00A210120AA4A80
:104D800092ED000A09F013FDA64908700AE00A2115
:104D90000120A64A92ED000A09F009FDA149087018
:104DA00000E000BF00BFA4E09C48007820B10128CB
:104DB0000CD002281ED113E00A2101209D4A92ED59
:104DC000000A09F0F4FC9749087014E00A21012058
:104DD000994A92ED000A09F0EAFC924908700AE04B
:104DE0000A210120954A92ED000A09F0E0FC8D4964
:104DF000087000E000BF00BF7BE08848007820B169
:104E000001280CD002281ED113E00A2101208C4A6F
:104E100092ED000A09F0CBFC8249087014E00A21E7
:104E20000120884A92ED000A09F0C1FC7D49087012
:104E30000AE00A210120844A92ED000A09F0B7FC39
:104E40007849087000E000BF00BF52E07348007866
:104E500020B101280CD002281ED113E00A21012024
:104E60007A4A92ED000A09F0A2FC6E49087014E03B
:104E70000A210120764A92ED000A09F098FC69495E
:104E800008700AE00A210120724A92ED000A09F036
:104E90008EFC6449087000E000BF00BF29E05F4855
:104EA000007820B101280CD002281ED113E00A217D
:104EB0000120694A92ED000A09F079FC594908700D
:104EC00014E00A210120654A92ED000A09F06FFC06
:104ED000544908700AE00A210120614A92ED000A53
:104EE00009F065FC4F49087000E000BF00BF00E01A
:104EF00000BF00BFACE449480078A8BB594890ED1A
:104F0000000A594880ED000A0120574991ED000A36
:104F1000FBF740FC554880ED000A9FED550A5548C7
:104F200080ED000A54480078052876D2DFE800F0CA
:104F3000033FC6FAF900012202211A2009F0FDFA06
:104F40004E480078012819D14D48007968B94D487C
:104F5000006841F63801884207D80120434991EDA5
:104F6000000A09F068FE1CE0D0E1012009F056FFBC
:104F700041480078401C4049087012E040480079E0
:104F800060B94048006841F63801884206D80120DF
:104F9000364991ED000A09F04EFE02E0012009F0C9
:104FA00040FE01220021062009F0C7FA97E1002205
:104FB00002211A2009F0C1FA30480078012863D193
:104FC0002F480079012811D12E48006841F6380198
:104FD00088420BD82B480068B0F5117F06D301201A
:104FE000224991ED000A09F026FE61E0012009F056
:104FF00015FF23480079012805DA1F480078401E74
:105000001D49087054E01E480079012850DD1A48F7
:105010000078401C184908704AE05FE10800002051
:10502000D803002074000020DC030020E0030020EF
:10503000180000203C000020400000204400002018
:10504000480000204C0000205000002054000020A8
:10505000580000205C000020600000206400002058
:1050600068000020B80400208000002078000020A4
:1050700000000000900000200E000020130000201F
:10508000486C0020B4040020FC48007901280CD1B1
:10509000FB48006841F63801884206D80120F949EA
:1050A00091ED000A09F0C7FD02E0012009F0B9FD09
:1050B00001220021022009F040FA10E1F2480078B4
:1050C00001283AD1ED48007902281DD1EC4800684A
:1050D00041F63801884217D8E9480068B0F5117FD9
:1050E00012D30120E74991ED000A09F0A4FDE4483C
:1050F00090ED000AB8EE400ADFEDE40A80EE201AD7
:10510000E34880ED001A38E0012009F087FEDB4813
:105110000079022807DADF480078401EDD49087070
:105120002BE093E02FE0D5480079022825DDD9480F
:105130000078401CD74908701FE0D0480079022849
:1051400018D1CF48006841F63801884212D80120B2
:10515000CC4991ED000A09F06EFDC94890ED000AB6
:10516000B8EE400ADFEDC90A80EE201AC84880ED8B
:10517000001A02E0012009F054FD01220021042060
:1051800009F0DBF9ABE0C0480078012838D1BB4812
:10519000007903281DD1BA48006841F638018842D9
:1051A00017D8B7480068B0F5117F12D30120B54970
:1051B00091ED000A09F03FFDB14890ED000AB8EE0C
:1051C000400AF2EE040A80EE201AB14880ED001A7F
:1051D00036E0012009F022FEA8480079032805DA0C
:1051E000AC480078401EAB49087029E0A34800791C
:1051F000032825DDA7480078401CA64908701FE059
:105200009E480079032818D19D48006841F638016E
:10521000884212D801209B4991ED000A09F00BFD4C
:10522000974890ED000AB8EE400AF2EE040A80EECC
:10523000201A974880ED001A02E0012009F0F1FCE5
:1052400001220021062009F078F948E08E48007814
:10525000012827D189480079042818D18848006896
:10526000B0F5117F13D386480068B0F57A7F0ED869
:105270000120844991ED000A09F0DDFC804890EDA1
:10528000000AB8EE400A824880ED000A25E00120BD
:1052900009F0C4FD7948007904281EDA03207D490D
:1052A00008701AE075480079042813D17448006822
:1052B000B0F57A7F0ED80120724991ED000A09F00D
:1052C000BAFC6F4890ED000AB8EE400A704880EDD5
:1052D000000A02E0012009F0A4FC00E000BF00BFCA
:1052E0006B4890ED000ADFED6C0AB4EEE00AF1EED7
:1052F00010FA05DD01220321002009F01EF9FCE36C
:1053000000220321104609F018F9F6E363480078FB
:105310000128F4D16248007888BB624890ED000A09
:10532000614880ED000A01205F4991ED000AFBF71A
:1053300031FA544880ED000A1FEDB30A544880ED5D
:10534000000A5448007830B101283BD0022876D0BA
:10535000032875D116E14C480078012819D1474837
:10536000007968B94648006841F63801884207D894
:105370000120444991ED000A09F05DFC1CE05FE169
:10538000012009F04BFD43480078401C414908705A
:1053900012E03A48007960B93948006841F63801AE
:1053A000884206D80120374991ED000A09F043FCF4
:1053B00002E0012009F035FC01220021022009F061
:1053C000BCF826E13048007801283AD12B48007912
:1053D00001281DD12A48006841F63801884217D8B3
:1053E00027480068B0F5117F12D30120254991EDBF
:1053F000000A09F020FC224890ED000AB8EE400AAD
:10540000DFED220A80EE201A214880ED001A50E0DC
:10541000012009F003FD19480079012805DA1D482B
:105420000078401E1B49087043E0144800790128A9
:105430003FDD18480078401C1649087039E03EE00E
:10544000E6E00E480079012830D10D48006841F6A9
:10545000380188422AD801200A4991ED000A09F052
:10546000EAFB074890ED000AB8EE400ADFED070AB4
:1054700080EE201A064880ED001A1AE0486C0020E1
:10548000B404002078000020130000200000C8426F
:10549000900000200E00002000004842080000207C
:1054A0000F000020B804002080000020012009F037
:1054B000B8FB01220021042009F03FF8A9E0FE48D2
:1054C0000078012838D1FD48007902281DD1FC4818
:1054D000006841F63801884217D8F9480068B0F5ED
:1054E000117F12D30120F74991ED000A09F0A3FBC7
:1054F000F34890ED000AB8EE400AF2EE040A80EE9E
:10550000201AF14880ED001A36E0012009F086FCEF
:10551000EA480079022805DAEC480078401EEB4999
:10552000087029E0E5480079022825DDE748007881
:10553000401CE64908701FE0E0480079022818D1B5
:10554000DF48006841F63801884212D80120DD4961
:1055500091ED000A09F06FFBD94890ED000AB8EE12
:10556000400AF2EE040A80EE201AD74880ED001AB5
:1055700002E0012009F055FB01220021062008F07D
:10558000DCFF46E0CC480078012829D1CB480079DF
:10559000032818D1CA480068B0F57A7F13D8C848E4
:1055A0000068B0F5117F0ED30120C64991ED000AC5
:1055B00009F041FBC24890ED000AB8EE400AC2482B
:1055C00080ED000A23E0012009F028FCBB480079A7
:1055D00003281CDABD480078401EBC49087016E05C
:1055E000B7480068B0F57A7F0ED80120B54991ED33
:1055F000000A09F020FBB24890ED000AB8EE400A1C
:10560000B14880ED000A02E0012009F00AFB00E049
:1056100000BF00BFAC4890ED000AF3EE0E0AB4EEF6
:10562000E00AF1EE10FA05DD01220321002008F066
:1056300084FF62E200220321104608F07EFF5CE254
:10564000A348007801287DD1A24890ED000AA24825
:1056500080ED000A0120A04991ED000AFBF79AF8BD
:10566000984880ED000A9948007806286BD2DFE858
:1056700000F00352E4FDFCFB002201211B2008F096
:105680005CFF002201211A2008F057FF8A480078A9
:1056900001281CD1904890ED000ADFED900AB4EE8D
:1056A000E00AF1EE10FA09D802210120854A92EDB4
:1056B000000A09F07CF88A49087026E0012009F008
:1056C000ADFB82480078401C804908701DE082488C
:1056D00000680CF02BF89FED830B53EC102BCDE9F9
:1056E00006019DED060B51EC100B0CF033F809D8B8
:1056F00002210120734A92ED000A09F058F8784916
:10570000087002E0012009F08CFA01220021042037
:1057100008F013FFCFE3002201211B2008F00DFF4A
:10572000002201211A2008F008FF634800780128B0
:105730005FD1694800680BF0F9FF9FED6C0B53ECEB
:10574000102B01E0B8E3B5E3CDE906019DED060BB2
:1057500051EC100B0BF0FEFF1AD85F4800680BF0FD
:10576000E5FF9FED600B53EC102BCDE906019DED9D
:10577000060B51EC100B0CF005F809D203210120A7
:10578000504A92ED000A09F012F8554908704EE0AF
:10579000012009F043FB504800680BF0C7FF9FED64
:1057A000510B53EC102BCDE906019DED060B51EC8E
:1057B000100B0BF0CFFF05D844480078401E43493A
:1057C000087034E0444800680BF0B0FF9FED470BD1
:1057D00053EC102BCDE906019DED060B51EC100B9F
:1057E0000BF0D0FF23D239480078401C37490870AD
:1057F0001DE0394800680BF099FF9FED3C0B53EC1E
:10580000102BCDE906019DED060B51EC100B0BF0B2
:10581000A1FF09D8032101202A4A92ED000A08F0CD
:10582000C6FF2F49087002E0012009F0FAF90122B1
:105830000021062008F081FE3DE3012211461B20D5
:1058400008F07BFE002201211A2008F076FE1D4898
:1058500090ED000ADFED270A80EE201A80ED001A95
:1058600015480078012802E050E283E1BFE072D1E0
:105870001948D0ED000A9FED1F1A80EE810A8DEDC8
:10588000050A05980BF052FF9FED1B0B53EC102BF4
:10589000CDE906019DED060B51EC100B0BF05AFF04
:1058A0003FD80D4800680BF041FF9FED100B53EC03
:1058B000102BCDE9060123E013000020486C0020E6
:1058C000B404002078000020900000200E0000208A
:1058D0000F000020B804002080000020E1FAC74239
:1058E000740000208FC2F5285CFF584033333333F7
:1058F000333F8F4000007A44736891ED7CFF234072
:105900009DED060B51EC100B0BF03CFF09D2012171
:105910000846F94A92ED000A08F049FFF749087075
:105920005FE0012009F07AFAF54800680BF0FEFE0E
:105930001FED120B53EC102BCDE906019DED060B6C
:1059400051EC100B0BF006FF06D8EE480078401E15
:10595000EC49087045E01EE0E948D0ED000A1FED73
:105960001B1A80EE810A8DED050A05980BF0DEFE0C
:105970001FED1F0B53EC102BCDE906019DED060B1F
:1059800051EC100B0BF0FEFE2BD2DE480078401CD1
:10599000DC49087025E0DA48D0ED000A1FED2B1A2B
:1059A00080EE810A8DED050A05980BF0BFFE1FED14
:1059B0002E0B53EC102BCDE906019DED060B51EC9F
:1059C000100B0BF0C7FE09D801210846CA4A92ED18
:1059D000000A08F0ECFEC949087002E0012009F055
:1059E00020F901220021022008F0A7FD63E2012234
:1059F00011461B2008F0A1FD002201211A2008F009
:105A00009CFDBD4890ED000A5FED460A80EE201A2D
:105A100080ED001ABC48007801287FD1B848D0ED4D
:105A2000000A1FED4C1A80EE810A8DED050A0598DB
:105A30000BF07CFE1FED550B53EC102BCDE906014E
:105A40009DED060B51EC100B0BF084FE22D8AC48F8
:105A5000D0ED000A1FED591A80EE810A8DED050A7E
:105A600005980BF063FE1FED5C0B53EC102BCDE99A
:105A700006019DED060B51EC100B0BF083FE09D2D5
:105A8000022101209C4A92ED000A08F090FE9B49F9
:105A9000087069E0012009F0C1F99948D0ED000AC9
:105AA0001FED6C1A80EE810A8DED050A05980BF04A
:105AB0003DFE1FED6F0B53EC102BCDE906019DED64
:105AC000060B51EC100B0BF045FE05D88D48007805
:105AD000401E8C49087047E08948D0ED000A1FED50
