:020000040800F2
:10000000D8760020E19000080577000807770008FF
:100010000B7700080F770008137700080000000036
:10002000000000000000000000000000177700083A
:1000300019770008000000001B7700081D770008F2
:10004000FB900008FB900008FB900008FB90000864
:10005000FB900008FB900008FB900008FB90000854
:10006000CD790008FB900008FB900008FB90000889
:10007000FB900008FB900008FB900008FB90000834
:10008000FB900008FB900008FB900008FB90000824
:10009000FB900008FB900008FB900008E579000841
:1000A000FB900008FB900008FB900008FB90000804
:1000B000A5780008197A00087B7C0008FB900008EE
:1000C000FB900008FB900008FB900008FB900008E4
:1000D000FB900008A778000877790008FB900008DB
:1000E000FB900008FB900008FB9000081D7C0008B6
:1000F0005F7C0008437C0008000000000000000056
:1001000000000000000000003F770008FB9000089E
:100110000000000000000000FB900008FB900008B9
:10012000FB900008FB9000081F770008FB90000878
:10013000FB900008E77C0008FB900008FB9000089B
:10014000FB9000080000000000000000000000001C
:10015000000000000000000000000000000000009F
:100160000000000000000000FB900008FB90000869
:10017000FB90000800000000FB9000080000000059
:1001800000000000FB900008DFF80CD012F0E0F84F
:100190000048004701020008D876002010B500246E
:1001A0000EF07EF90BF01EFD0BF016FD0EF0D6FDE5
:1001B0000EF003FE0EF03BFE0EF039FA10F0ABFB32
:1001C0004FF4E13010F065FE4FF4FA700BF047FD8C
:1001D00010F0FFFC044610F0C1FC10F062FC0FF0C0
:1001E000D0FA10F0ADFE10F008FF10F0ADFF10F0E7
:1001F0003DFF4FF4E16010F069FF10F0CDFE10BD3F
:10020000FFF7CCFF0EF0C6FA3649087008460078B2
:1002100005280DD10F2008700120334908700EF019
:10022000CCFD01200FF002FA4FF4FA600BF017FD3D
:100230002E48006820F470702C49086001212C4879
:1002400009F0A8FF4DE02B480078012836D10020A6
:100250002849087028480088401C2749088008461B
:10026000008841F28831884204D10EF0A6FD0BF0DF
:1002700023FD23E02048008814281FD101211F48B6
:1002800009F0B0FC00224FF480311D4809F07AFDDE
:1002900000211A4809F0B1FC00221A49174809F058
:1002A00087FC01221104164809F06CFD0121134856
:1002B00009F0A3FC0021114809F094FC12480078D1
:1002C000012803D011480078012804D100200A49F0
:1002D000088000F03CFB00F011F902F0B4FF08F0D8
:1002E0001FFEB0E7300500200000002000040140A0
:1002F0000004004066050020020000200064014068
:100300000060014000010800290500202A050020A6
:10031000FE4890ED000AFE4880ED000AFD4890ED91
:10032000000AFD4880ED000AFC4890ED000AFC48F8
:1003300080ED000AFB4890ED000AFB4880ED000AC2
:100340009FEDFA0AF14880ED000A9FEDF80AF148A6
:1003500080ED000A9FEDF50AF04880ED000A9FED60
:10036000F30AF04880ED000A9FEDF00AF04880EDB6
:10037000000A9FEDEE0AEF4880ED000A9FEDEB0AC0
:10038000ED4880ED000A9FEDE90AEC4880ED000A97
:100390009FEDE60AEA4880ED000A704710B5E9488B
:1003A0000078072810DC10F0FEFE10F00AFF012193
:1003B000E54809F00CFC0121E44809F008FC0121A2
:1003C000E34809F0E7FE1BE0DE480078082817DB69
:1003D000DC4800780F2813D010F0ECFE10F0F8FE87
:1003E0000021D94809F0F3FB0021D84809F0EFFBC0
:1003F0000021D74809F0CEFE0021D64809F0CAFEF8
:1004000010BD10B5CF480078801F052871D2DFE8F5
:1004100000F0032529415200CF48007820B101287F
:1004200006D002280CD107E0042010F0C0F908E043
:10043000032010F0BCF904E0042010F0B8F900E04B
:1004400000BF00BFC5480078032803DA012010F080
:10045000CFFC02E0002010F0CBFC4BE0042010F0B9
:10046000A6F947E0BC48007810B101280FD103E09D
:10047000052010F09CF90BE0B948007818B9042069
:1004800010F095F902E0122010F091F900E000BFA1
:1004900000BF2FE0B048007810B1012808D103E078
:1004A000092010F084F904E00A2010F080F900E03F
:1004B00000BF00BF1EE0A848007830B1012808D076
:1004C00002280AD0032810D10BE0072010F06FF9A2
:1004D0000CE00B2010F06BF908E0132010F067F926
:1004E00004E0132010F063F900E000BF00BF01E05A
:1004F000FFE700BF00BFFFF751FF10BD10B59948DF
:100500000078002875D18F480078801F052871D2A7
:10051000DFE800F0031527475E0063200FF00AFABA
:10052000BCEEC00A10EE100A8F49087060200FF070
:1005300001FA8E4880ED000A0CF0BCFB7AE06320E3
:100540000FF0F8F9BCEEC00A10EE100A86490870E8
:1005500060200FF0EFF9854880ED000A0CF0AAFB4F
:1005600068E07F48007830B960200FF0E3F97F48F9
:1005700080ED000A14E07A480078012806D1612055
:100580000FF0D8F9794880ED000A09E07448007846
:10059000022805D162200FF0CDF9754880ED000AE0
:1005A00048E06D48007810B101280ED106E06020C7
:1005B0000FF0C0F96D4880ED000A07E060200FF0F1
:1005C000B9F96A4880ED000A00E000BF00BF31E0E1
:1005D0006148007830B101280DD0022812D00328DC
:1005E00024D116E060200FF0A5F9604880ED000AE4
:1005F0001DE020E01DE060200FF09CF95B4880EDDD
:10060000000A14E060200FF095F9584880ED000AC8
:100610000DE060200FF08EF99FED561ADFED560ABF
:1006200040EE010A5148C0ED000A00E000BF00BFE3
:1006300000E000BF00BF10BD10B55048007810B1F9
:1006400001280CD105E0002202211D200EF041FB03
:1006500006E0012202211D200EF03BFB00E000BF5E
:1006600000BF10BD10B54648007820B101280DD05C
:10067000022821D115E0002211460A200EF029FBA4
:10068000002201210A200EF024FB16E00022114670
:100690000A200EF01EFB012211460A200EF019FB63
:1006A0000BE0012200210A200EF013FB00220121A1
:1006B0000A200EF00EFB00E000BF00BF10BD10B519
:1006C0003048007810B101280CD105E00022114615
:1006D00009200EF0FEFA06E00122002109200EF0AA
:1006E000F8FA00E000BF00BF10BD10B52648007842
:1006F00001284BD1012202211C200EF0EAFA00222F
:1007000003211C200EF0E5FA4AE000003804002026
:10071000A0000020EC040020A40000203C040020E5
:10072000A8000020F0040020AC0000200000000021
:1007300090000020880000208C000020780000201D
:100740007C0000202E050020006001400064014074
:10075000005C0140000C0040080000200E0000205A
:100760000F000020100000209D0000204005002008
:10077000440500206666E63F0000004209000020B4
:100780000A0000200C00002013000020002202219B
:100790001C200EF09EFA012203211C200EF099FA73
:1007A00010BDF0EE400A012826D1FE49097821B19A
:1007B000012903D002291DD10EE01CE0FA4991ED78
:1007C000000AF4EEC00AF1EE10FA01DDC1ED000AF4
:1007D000F54991ED000A7047F44991ED000AF4EEF5
:1007E000C00AF1EE10FA01D2C1ED000AEF4991ED15
:1007F000000AF0E700BF28E0022826D1E94909787D
:1008000021B1012903D002291DD10EE01CE0E849E5
:1008100091ED000AF4EEC00AF1EE10FA01DDC1ED2F
:10082000000AE34991ED000AD5E7E24991ED000A9B
:10083000F4EEC00AF1EE10FA01D2C1ED000ADD4972
:1008400091ED000AC7E700BF00BFB0EE600AC2E743
:10085000F0EE400A012805D1D74991ED000A30EEAB
:10086000C00A7047022805D1D44991ED000A30EE44
:10087000C00AF6E700BFF4E700B5B0EE401A024642
:10088000C848007828B11046B0EE410AFFF789FF4A
:1008900000BDCB48007828B11046B0EE410AFFF702
:1008A000D7FFF5E7B0EE410AF2E700B5F0EE401AE7
:1008B00003461846B0EE610AFFF7DEFF9FEDC11A4E
:1008C000C0EE010AB0EE600A00BD10B5B0EE402ADD
:1008D00004462046B0EE420AFFF7E7FF9FEDB91A43
:1008E000C0EE010AB0EE600A10BD10B592230022DE
:1008F000422150200EF0BCFF50200EF0EDFFB24917
:10090000087008460078012820D100200870512185
:1009100008460EF0ADFF51200EF0DEFFAA49087028
:1009200008460078012811D100200870A7484078B7
:1009300000F0010028B1012203211D200EF0C9F9A9
:1009400004E0002203211D200EF0C3F910BD10B5F4
:100950002DED088B9E480078012856D1FFF7D8FC72
:1009600000209B4908700FF0F5FF0020994908709E
:100970008C49087098490870914908709749087027
:100980009749087097490870974908709749087007
:10099000002404E0002096490855601CC4B2102CC5
:1009A000F8DB94480078801F052826D2DFE800F0A5
:1009B000030B13191F0024208D4988730820087326
:1009C000802088721AE004208949887311204873B6
:1009D0000420C87212E00520854988730820087336
:1009E0000CE00120824908702020087306E02020D6
:1009F0007F4908730420887300E000BF00BF0EF039
:100A0000FAF9FFF719FEFFF7FCFC7B480078012894
:100A100042F01684FFF77CFC0020774908700FF045
:100A200099FF74480078801F052882F0AB83DFE8C7
:100A300010F00500C805E60B170F15106F48007879
:100A400001282CD168480078012828D16C4800780A
:100A5000032824D06A480078052820D0634800780D
:100A6000E8B90020654908705F4908700EF0A5F9E3
:100A7000012211461D200EF02CF9012202211C201A
:100A80000EF027F90122032118200EF022F901228D
:100A9000032115200EF01DF900205A49087058480E
:100AA000007806287BD2DFE800F003C2EFEEEDEC21
:100AB00052480078012873D1474800780028FAD1BD
:100AC000464800780028F6D1464800780028F2D140
:100AD000464800780028EED132490870384908703D
:100AE0003F490870404908700120474908700EF0DE
:100AF00064F93848007820B1012806D002280CD1CA
:100B000007E001203349087008E0022031490870ED
:100B100004E000202F49087000E000BF00BF2D480E
:100B2000007820B1012812D0022877D124E00122D8
:100B300011461D200EF0CDF80122032118200EF0E1
:100B4000C8F80122032115200EF0C3F867E0012246
:100B500000211C200EF0BDF8002201211D200EF006
:100B6000B8F80122032118200EF0B3F80122032166
:100B700015200EF0AEF852E0012200211C200EF0EC
:100B8000A8F8012200211D200EF0A3F80122114631
:100B90001D200EF09EF801220321182036E0F7E315
:100BA00044E03BE00A0000201C0000202000002060
:100BB00024000020280000202C000020300000200D
:100BC0000C00002000007A443B050020B86E002095
:100BD00029050020080000200B0000200D00002047
:100BE0000E0000200F000020120000201000002046
:100BF000A86E00202E0500202A0500202B050020CD
:100C00003005002034040020130000200EF061F8AD
:100C10000122032115200EF05CF800E000BF00BFA8
:100C2000FFF720FDFFF74BFDFFF75FFD6FE2F9488F
:100C30000078012856D1F8480078002852D1F748AA
:100C4000007800284ED1F648007800284AD1F149B2
:100C50000870F4490870F4490870F448007820B12D
:100C6000012806D0022810D107E00120EF490870C2
:100C70000CE00220ED49087008E00020EB49087004
:100C800004E0FDE321E343E2DDE000BF00BFFFF746
:100C9000E9FCFFF714FDE5480078012858D1E44845
:100CA000007800BBE34890ED000AE348D0ED000A6D
:100CB00030EE600AE14880ED000A90ED000AE0485D
:100CC00080ED000ADF4890ED000ADF48D0ED000A11
:100CD00030EE600ADD4880ED000A90ED000ADC4845
:100CE00080ED000A34E0D2480078012816D1D248BD
:100CF00090ED000AD14880ED000A90ED000AD0483E
:100D000080ED000AD04890ED000AD04880ED000A3E
:100D100090ED000ACE4880ED000A19E0C448007842
:100D2000022815D1C34890ED000AC44880ED000A9E
:100D300090ED000AC24880ED000AC24890ED000A1A
:100D4000C24880ED000A90ED000AC14880ED000A1B
:100D5000B0480078012820D1AF480078E8B1B04809
:100D60000078D0B90020AB490870AE490870AF4890
:100D70000078012802D0022808D103E00220AB4904
:100D8000087004E00120A949087000E000BF00BF1E
:100D9000FFF768FCFFF793FC54E0AE4800780128A9
:100DA00050D19E480078E8BBAB480078D0BB9E4845
:100DB0000078B8BB9A480078A0BB0020A54908700D
:100DC000984908709948007868B99348007850B9F4
:100DD00001209149087095490870012211460920A7
:100DE0000DF077FF0CE08C48007848B100208A496C
:100DF00008708E4908700022012109200DF069FF5A
:100E0000FFF730FCFFF75BFC83480078012819D11D
:100E1000924890ED000A894880ED000A904890EDD4
:100E2000000A00E00EE0864880ED000A8D4890ED53
:100E3000000A864880ED000A8B4890ED000A84483D
:100E400080ED000ABAE373480078012844D1724863
:100E50000078002840D171480078E8BB70480078DD
:100E6000D0BB00206B490870704908706E4908704B
:100E70006C48007810B1012808D103E001206949CD
:100E8000087004E000206749087000E000BF00BF60
:100E9000FFF715FCFFF7E6FB62480078002846D014
:100EA00063480078F0BB7148006811F053F841ECDA
:100EB0001B0BB0EE4B0AF0EE6B0A11F0B9FDB0EE71
:100EC000409AF0EE609A6A48006811F043F841ECED
:100ED0001A0B53EC192B00E04CE010F025FF41EC0D
:100EE000180B11F07BF8634908606348006811F043
:100EF00031F841EC1B0BB0EE4B0AF0EE6B0A11F02F
:100F000097FDB0EE409AF0EE609A5C48006811F0F0
:100F100021F841EC1A0B53EC192B10F005FF41ECB2
:100F2000180B00E004E011F059F855490860EEE0B4
:100F30003F48007801280CD14C4890ED000A4D48FC
:100F400080ED000A4C4890ED000A4D4880ED000A03
:100F5000DDE03748007802280BD1454890ED000AC3
:100F6000444880ED000A454890ED000A444880ED71
:100F7000000ACCE037480078012849D1264800789B
:100F8000002845D134480078002841D1264800780F
:100F900000283DD122480078002839D12D49087019
:100FA000224908701F490870364908702A4908709C
:100FB000012035490870002034490870174800782E
:100FC00010B1012808D103E001201449087004E0A1
:100FD00000201249087000E000BF00BF0F480078F1
:100FE00010B101287ED155E0002203211B200DF015
:100FF00070FE0122032118200DF06BFE0122032157
:1010000015200DF066FE0021214809F0C3F877E0B5
:101010007DE000002B0500200B0000200D000020CB
:10102000100000200C000020120000200A00002008
:101030000800002038040020EC0400201C000020E0
:10104000200000203C040020F004002024000020A8
:10105000280000202C0500200F000020480400205C
:10106000500400204C04002054040020A400002060
:10107000A00000202C000020AC000020A8000020D0
:10108000300000200E00002013000020140000207B
:10109000002000400022022110460DF01AFE00221E
:1010A00002210A200DF015FE012203211B200DF064
:1010B00010FE0022032118200DF00BFE0022032158
:1010C00015200DF006FE01200EF06BFA02200EF046
:1010D00068FA0121FB4809F05DF80020FA49088010
:1010E000002100E00BE0084608F02EF81021F74838
:1010F00009F027FC0121F64809F04CF800E000BF98
:1011000000BFFFF7DCFAFFF7ADFAFFF7EEFA55E2A2
:10111000F0480078012871D1EF480078C0BBEF4853
:101120000078A8BBEE48007890BBEE48007878BB0A
:10113000ED48007860BB0020E6490870EB49087074
:10114000EB490870EB480078012812D10020E949EA
:1011500008705B2108460EF08BFB5B200EF0BCFB99
:10116000E549087008460078012835D1002008704C
:1011700032E0E248007806282CD2DFE800F0030ACB
:1011800010171E250120DD4908700FF028FB22E012
:1011900034E00220D94908700FF021FB1BE0032046
:1011A000D649087000200FF01AFB14E00420D34940
:1011B000087001200FF013FB0DE00520CF490870E7
:1011C00002200FF00CFB06E00020CC4908700FF065
:1011D00006FB00E000BF00BFC8480078032803DA20
:1011E00001200FF005FE02E000200FF001FEFFF7E6
:1011F0007CFAFFF764FAFFF735FA65E0B548007846
:10120000012834D1B7480078012830D1B648007899
:1012100068BB0020AF490870B949087001200EF082
:10122000C9F9B648007810B1012808D103E00120BF
:10123000B249087004E00020B049087000E000BF27
:1012400000BFAE48007810B101280ED106E003219E
:1012500002209FEDAC0A0DF076FE07E0042102208B
:101260009FEDA90A0DF06FFE00E000BF2CE0A7483B
:101270000078012828D19848007828BB9A4800783F
:1012800010BB0020A14908709A48007801281BD0A3
:101290000120984908705A2108460EF0E9FA5A20B0
:1012A0000EF01AFB9449087008460078012801D115
:1012B00000200870012202211C200DF00AFD0022EE
:1012C00003211C200DF005FD78E1824800780128FB
:1012D0003CD181480078C8BB80480078B0BB8248C8
:1012E000007898BB00207B490870804908708049CD
:1012F00008708249087001207E4908700DF05DFD7C
:101300007748007830B1012808D002280AD0032895
:1013100010D10BE00120724908700CE002207049E6
:10132000087008E003206E49087004E000206C4952
:10133000087000E000BF00BF6948007838B101289C
:1013400010D0022819D0032829D122E056E001222A
:10135000032118200DF0BDFC0122032115200DF002
:10136000B8FC1DE00122002113200DF0B2FC012287
:10137000002115200DF0ADFC12E001220021132008
:101380000DF0A7FC0122002114200DF0A2FC07E0C3
:1013900013E10122114616200DF09BFC00E000BF76
:1013A00000BF5B48007820B1012808D002281CD17A
:1013B0000BE0012211461D200DF08BFC16E00122EE
:1013C00000211C200DF085FC10E0012200211C20D2
:1013D0000DF07FFC012200211D200DF07AFC01227E
:1013E00011461D200DF075FC00E000BF00BFFFF7A7
:1013F00039F9FFF764F9FFF778F945E043480078D9
:10140000012841D134480078D8BB34480078C0BBAB
:1014100033480078A8BB3348007890BB3248007846
:1014200078BB00203949087030490870304908708D
:10143000324908702A49087001202A4908702D494C
:1014400008700DF0BAFC0122022117200DF041FCBA
:10145000012200211A200DF03CFC0122032115205D
:101460000DF037FC01200EF0A5F8032102209FEDBE
:10147000250A0DF068FDFFF722F9FFF7F3F801E008
:1014800003E001E0FFF731F998E0224800780128F5
:1014900046D121480078062813D11D48007801283C
:1014A0000FD11E49087000200FF054FA4FF47A70E3
:1014B0000AF0D5FB00200FF04DFA4FF47A700AF0D5
:1014C000CEFB79E0002000404C050020000C0040DD
:1014D000005C01402B0500200B0000200D000020C7
:1014E0000F00002012000020100000200A00002041
:1014F0000C000020130000203B0500200E000020FF
:1015000034040020000016440000FA442C0500209A
:1015100008000020000000202E05002015000020FB
:10152000FB480078012826D10020F9490870F948C5
:10153000007810B1012808D103E00120F5490870B6
:1015400004E00020F349087000E000BF00BFF1484C
:10155000007810B101280CD105E0002201211C20E7
:101560000DF0B7FB06E0012211461C200DF0B1FB87
:1015700000E000BF20E0E848007801281CD10020EE
:10158000E5490870E548007810B1012808D103E06A
:101590000120E249087004E00020E049087000E002
:1015A00000BF00BFDD48007810B1012802D100E083
:1015B00001E000E000BF00BF00E000BF00BF01F09D
:1015C000E2BDD748007806287CD2DFE800F003C1EE
:1015D000FCFBFAF9CE480078012861D1D1480078A7
:1015E000D0BBD1480078B8BBCA480078A0BB002067
:1015F000CE490870CE490870CE490870CE480078B0
:1016000020B1012806D002280CD107E00120CA49E8
:10161000087008E00220C849087004E00020C649AC
:10162000087000E000BF00BFC348007820B1012867
:1016300013D002282CD120E00022012117200DF028
:1016400048FB012200211A200DF043FB012200215A
:101650001B200DF03EFB1CE022E0002211461A2068
:101660000DF037FB002211461B200DF032FB01224A
:10167000002119200DF02DFB0BE00022114619204E
:101680000DF027FB0122114617200DF022FB00E090
:1016900000BF00BFFEF7E6FFFFF711F8FFF725F8E0
:1016A0009B480078012852D19E48007888B3994819
:1016B000007870BBA048007828B1012807D0022824
:1016C0000DD108E0EFE301209B49087008E00220FB
:1016D0009949087004E000209749087000E000BFB5
:1016E00000BF9548007820B1012813D002282CD1E2
:1016F00020E00022012117200DF0EBFA0122002149
:101700001A200DF0E6FA012200211B200DF0E1FA6B
:101710001CE01CE0002211461A200DF0DAFA00222B
:1017200011461B200DF0D5FA0122002119200DF0E1
:10173000D0FA0BE00022114619200DF0CAFA01225E
:10174000114617200DF0C5FA00E000BF00BF8AE384
:101750006F480078012837D172480078A0BB6D48E7
:10176000007888BB00206A490870714908706F488A
:10177000007820B1012806D002280CD107E0012012
:101780006A49087008E002206849087004E00020F7
:101790006649087000E000BF00BFFEF763FFFEF778
:1017A0008EFF62480078012870D15F48007880BBC6
:1017B0006148007848B1012813D002282AD11CE0E2
:1017C000EFE352E350E36AE1DBE05C4890ED000AAE
:1017D0005B4880ED000A90ED000A5A4880ED000A4F
:1017E00019E0594890ED000A554880ED000A90ED47
:1017F000000A544880ED000A0DE0544890ED000ABC
:101800004F4880ED000A90ED000A4E4880ED000A36
:1018100001E03EE000BF00BF4D48007830B1012834
:1018200010D002281AD0032831D123E0494890ED86
:10183000000A494880ED000A90ED000A474880ED13
:10184000000A25E0464890ED000A434880ED000A72
:1018500090ED000A414880ED000A19E0414890ED02
:10186000000A3D4880ED000A90ED000A3B4880EDFB
:10187000000A0DE03C4890ED000A374880ED000A70
:1018800090ED000A354880ED000A01E03FE000BF1E
:1018900004E125480078012839D12D48007830B17D
:1018A000012810D002281AD0032868D123E02F483D
:1018B00090ED000A224880ED000A90ED000A2148D0
:1018C00080ED000A5CE02A4890ED000A1C4880ED9B
:1018D000000A90ED000A1B4880ED000A50E0254800
:1018E00090ED000A164880ED000A90ED000A1548B8
:1018F00080ED000A44E0204890ED000A104880ED99
:10190000000A90ED000A0F4880ED000A38E076E00A
:101910002B050020100000202C05002011000020C5
:10192000300500200B000020120000200A000020DB
:101930000C0000200E0000200800002060040020A1
:101940001C00002020000020640400206804002007
:101950000F0000207C04002024000020280000202C
:101960008004002098040020940400206C040020CF
:10197000700400207404002078040020FFE700BFFA
:101980008CE0FB480078012839D1FA480078B0BBD8
:10199000F948007898BB0020F5490870F7490870AD
:1019A000F7490870F74908700DF007FAF648007813
:1019B00010B1012808D103E00120F349087004E0C8
:1019C0000020F149087000E000BF00BFEE48007839
:1019D00010B101285CD12BE0EC48007820B101283F
:1019E0000ED0022818D111E0012200211A200DF09A
:1019F00070F9012200211B200DF06BF90DE04DE084
:101A00000122002119200DF064F906E0012211469F
:101A100017200DF05EF900E000BF00BF0122022197
:101A200016200DF056F90021D94808F0B3FB30E03C
:101A30000122032109200DF04CF9012200210B2085
:101A40000DF047F9D148007820B101280DD00228C7
:101A500017D110E0012200211A200DF03AF90122DD
:101A600000211B200DF035F90CE001220021192086
:101A70000DF02FF906E00122114617200DF029F98B
:101A800000E000BF00BF0121C14808F083FB00E077
:101A900000BF00BFFEF713FEFEF727FEADE3BD4813
:101AA0000078012833D1B848007880BBB24800786C
:101AB00068BB0020B7490870AE490870AF4800788D
:101AC00010B1012808D103E00120AC49087004E0FE
:101AD0000020AA49087000E000BF00BFFEF7EFFD3C
:101AE000FEF7C0FDA548007888B1AB48007880BB00
:101AF000A648007820B101280AD0022816D10EE0AD
:101B0000A64890ED000AA64880ED000A0FE064E0C8
:101B1000A44890ED000AA24880ED000A07E0A24820
:101B200090ED000A9E4880ED000A00E000BF00BF73
:101B30009348007830B101280CD0022811D0032836
:101B40001DD115E0994890ED000A994880ED000AF2
:101B500016E016E0974890ED000A954880ED000ADF
:101B60000EE0954890ED000A914880ED000A07E0EC
:101B7000924890ED000A8E4880ED000A00E000BF18
:101B80002BE085480078012827D17D48007830B1C6
:101B900001280BD0022810D003281CD114E088485B
:101BA00090ED000A7E4880ED000A15E0854890ED32
:101BB000000A7B4880ED000A0EE0834890ED000AA1
:101BC000774880ED000A07E0804890ED000A7448ED
:101BD00080ED000A00E000BF00BF6E4800780128D9
:101BE0003CD169480078012838D163480078A8BB07
:101BF00064480078072878D2DFE800F0041A3178CA
:101C00007C80840001205F490870644890ED000AE0
:101C10006F4880ED000A634890ED000A6D4880ED42
:101C2000000A614890ED000A6B4880ED000A6EE002
:101C3000022054490870594890ED000A674880ED29
:101C4000000A584890ED000A654880ED000A5648A1
:101C500090ED000A634880ED000A58E0EFE00320B1
:101C6000484908704D4890ED000A5F4880ED000A31
:101C70004C4890ED000A5D4880ED000A4A4890ED1E
:101C8000000A5B4880ED000A514890ED000A534875
:101C9000D0ED000A30EE200A5348D0ED000A30EEB5
:101CA000200A544880ED000A4A4890ED000A4C484A
:101CB000D0ED000A30EE200A4C48D0ED000A30EE9C
:101CC000200A4D4880ED000A434890ED000A45483F
:101CD000D0ED000A30EE200A4548D0ED000A30EE83
:101CE000200A464880ED000A11E00FE00420254953
:101CF00008700CE005202349087008E006202149FF
:101D0000087004E003201F49087000E000BF00BF16
:101D10001C480078072873D2DFE800F004050B1197
:101D2000737E89008AE00022032109200CF0D1FF94
:101D300084E0002203210A200CF0CBFF7EE0002289
:101D4000022109200CF0C5FF002201210B200CF01C
:101D5000C0FF0122032109200CF0BBFF012200215A
:101D60000B200CF0B6FF0021094808F013FA65E0DB
:101D70002C0500200A000020100000200C0000208C
:101D80000F0000200D0000200B00002008000020A4
:101D9000002000402B0500201200002060040020DD
:101DA0002C00002064040020680400207C04002033
:101DB00030000020800400209804002094040020BB
:101DC0006C040020700400207404002078040020BB
:101DD0003C0000204000002044000020480000207B
:101DE0004C0000205000002054000020580000202B
:101DF0005C000020600000206400002068000020DB
:101E00001BE00022032109200CF063FF01220321C3
:101E10000A200CF05EFF11E0002203210A200CF0E2
:101E200058FF012211460B200CF053FF06E001225F
:101E3000022109200CF04DFF00E000BF13E0FE4836
:101E4000007801280FD1FD48007860B9FC4800787F
:101E500048B90020F849087001200DF098FB4FF4B4
:101E60007A7009F0FCFEC8E1C7E1F6480078012865
:101E70006BD1F248007878BBF348007860BBF0483B
:101E8000007848BB0020EF490870F048007830B176
:101E9000012809D002280BD0032811D10CE0012021
:101EA000EA4908700DE0A7E10220E849087008E05F
:101EB0000320E649087004E00020E449087000E0CF
:101EC00000BF00BFE148007838B1012815D00228D2
:101ED00019D0032837D12BE037E000221146132018
:101EE0000CF0F7FE0022114614200CF0F2FE012245
:101EF000022116200CF0EDFE26E00122032116201F
:101F00000CF0E7FE20E00022032116200CF0E1FE99
:101F10000022022116200CF0DCFE012200211320F9
:101F20000CF0D7FE0122002115200CF0D2FE0BE0B0
:101F30000022114615200CF0CCFE012200211420B5
:101F40000CF0C7FE00E000BF08E1BE4800780128A1
:101F500044D1BD480078012840D1B9480078E8BB99
:101F60000020B8490870BA490870BA490870B748E3
:101F7000007830B1012808D002280AD0032811D1F6
:101F80000BE00120B14908700DE00220AF49087054
:101F900009E00320AD49087005E00020AB49087056
:101FA00001E0DCE000BF00BFA848007830B10128A4
:101FB0001BD0022829D0032856D140E0012200215D
:101FC00008200CF086FE0122002119200CF081FE71
:101FD0000122002118200CF07CFE00E04DE00022E0
:101FE000032117200CF075FE3FE0012200211A208A
:101FF0000CF06FFE012200211B200CF06AFE002273
:10200000114619200CF065FE2FE001220221182054
:102010000CF05FFE0122114617200CF05AFE002240
:10202000114608200CF055FE002211461A200CF033
:1020300050FE002211461B200CF04BFE15E0012241
:10204000032117200CF045FE0022022118200CF07D
:1020500040FE0022012117200CF03BFE0022114619
:1020600018200CF036FE00E000BF00BFFEF7FAFAC1
:10207000FEF725FBFEF739FB70E06F48007801287A
:102080006CD16E48007880BB6D48007868BB00203A
:1020900069490870704908706D4908706D49087089
:1020A0006E490870694908706D4908809FED6D0A96
:1020B0006D4880ED000A9FED6B0A6C4880ED000AC8
:1020C0009FED680A6A4880ED000A0CF076FE5E48D3
:1020D000007810B1012809D103E001205A490870A5
:1020E00005E000205849087001E037E000BF00BF5C
:1020F0005548007810B1012828D113E001220021B1
:102100001A200CF0E6FD012200211B200CF0E1FD5D
:102110000122022116200CF0DCFD0021554808F0B8
:1021200039F814E00122002108200CF0D2FD012230
:10213000002119200CF0CDFD0122002118200CF007
:10214000C8FD01214B4808F025F800E000BF00BFA2
:10215000FEF788FAFEF7B3FAFEF7C7FA4DE0394802
:102160000078012826D100203649087034480078CC
:1021700010B1012808D103E001203149087004E0C2
:1021800000202F49087000E000BF00BF2C480078F5
:1021900010B101280CD105E0002201211C200CF017
:1021A00098FD06E0012211461C200CF092FD00E093
:1021B00000BF20E02048007801281CD100201E49E3
:1021C00008702D48007810B1012808D103E00120E3
:1021D0002949087004E000202749087000E000BF8A
:1021E00000BF2548007810B1012802D100E001E0CD
:1021F00000E000BF00BF00E000BF00BF2FE31F48AA
:102200000078062877D2DFE800F00377BDE7FEFD0F
:102210000C48007801286DD10C48007890BB084824
:10222000007878BB00200A4908700A4908700B49F9
:1022300008700120124926E02C0500200B00002028
:10224000100000202B050020120000200F000020AD
:102250000A0000200C000020080000200E000020D2
:1022600062050020000000006C04002070040020C3
:1022700074040020001800401100002030050020E8
:102280001300002036E008700CF097FDF748007846
:1022900010B1012808D103E00120F449087004E0DE
:1022A0000020F249087000E000BF00BFEF4800784E
:1022B00010B1012816D10AE0012200211C200CF0E7
:1022C00008FD0122032118200CF003FD0BE0012280
:1022D00011461D200CF0FDFC0122032118200CF0FA
:1022E000F8FC00E000BF00BFFEF7BCF9FEF7E7F91D
:1022F000FEF7FBF9B2E2B0E2DD480078012840D1F8
:10230000DC48007888BB0020D9490870DA49087099
:10231000DA48007820B1012806D002280CD107E065
:102320000120D649087008E00220D449087004E072
:102330000020D249087000E000BF00BFFEF792F90C
:10234000FEF7BDF9CD48007801281AD1CC480078B5
:1023500002280BD0CB4890ED000ACB4880ED000A54
:1023600090ED000AC94880ED000A0AE0C84890EDE7
:10237000000AC84880ED000A90ED000AC64880EDCA
:10238000000A6BE2BA480078012824D1B9480078E5
:1023900008BB0020B6490870B8490870B6480078F4
:1023A00010B1012808D103E00120B349087004E00E
:1023B0000020B149087000E000BF00BFFEF77FF9C0
:1023C000FEF750F9AC48007828B1AE4890ED000A0D
:1023D000B24880ED000A41E2A548007801283BD1CF
:1023E000A7480078C0BBA3480078A8BB0020A0493C
:1023F0000870A2490870A04908709C48007828B16C
:10240000012801E08BE114E17FD141E0A44800788C
:10241000012812D10020A24908705B2108460DF066
:1024200027FA5B200DF058FA9E490870084600789C
:1024300001282CD10020087029E09B48007805284D
:1024400023D2DFE800F0030A10161C000120964991
:1024500008700EF0C4F919E060E00220924908709B
:102460000EF0BDF912E003208F4908700EF0B7F9A5
:102470000CE004208C4908700EF0B1F906E0002051
:10248000894908700EF0ABF900E000BF00BF3DE0E5
:1024900083480078012812D10020814908705B210F
:1024A00008460DF0E5F95B200DF016FA7D4908703D
:1024B00008460078012827D10020087024E07A48D7
:1024C000007830B101280AD002280FD0032819D192
:1024D00012E00120744908700EF081F913E0022027
:1024E000714908700EF07BF90DE00EE003206E4993
:1024F00008700EF074F906E000206B4908700EF0C9
:102500006EF900E000BF00BF00E000BF00BFFEF7B3
:10251000ECF8FEF7D4F8FEF7A5F889E05448007807
:1025200001285BD156480078012857D151480078DE
:1025300090BB00204E490870504908704E49087001
:1025400057480078012812D10020554908705B21B6
:1025500008460DF08DF95B200DF0BEF95149087069
:1025600008460078012832D1002008702FE04E483C
:102570000078062829D2DFE800F0030910161C2293
:102580000120494908700EF02AF91FE0022046494F
:1025900008700EF024F919E020E003204249087089
:1025A0000EF01DF912E004203F4908700EF017F9F3
:1025B0000CE005203C4908700EF011F906E00020FF
:1025C000394908700EF00BF900E000BF00BFFEF7BC
:1025D0008CF8FEF774F8FEF745F829E033480078E8
:1025E000012825D12348007810BB00202F4908700E
:1025F0002B48007801281BD00120294908705A2156
:1026000008460DF035F95A200DF066F92549087095
:1026100008460078012801D100200870012202211B
:102620001C200CF056FB002203211C200CF051FB57
:1026300014E10F480078012870D10C480078012877
:102640006CD10C48007880B900200C4908700A4908
:102650000870154908700CF0B0FB0948007838B3D1
:1026600001282AD0022830D12BE057E008000020B2
:102670002B050020100000200C0000200A00002084
:102680000F000020400500201C000020200000203A
:102690004405002024000020280000202C000020F9
:1026A000130000203B0500200E0000202C05002018
:1026B000FFE70120FC49087008E00220FA49087091
:1026C00004E00020F849087000E000BF00BFF648B1
:1026D000007828B90122032118200CF0FAFA12E040
:1026E000F1480078012805D10122114618200CF08C
:1026F000F0FA08E0EC480078022804D101221146E3
:1027000014200CF0E6FA012211461D200CF0E1FA2B
:10271000FDF7A8FFFDF7D3FFFDF7E7FF9EE0E348D5
:10272000007801284CD1E24890ED000ADFEDE10A83
:10273000B4EEE00AF1EE10FA1ED2DF48DF49097864
:1027400000EB810090ED000AD948D0ED000A80EE40
:10275000801AD9481438D949097800EB810090EDE6
:10276000000A31EE000AD4481438D449097800EB45
:10277000810080ED000A20E0CD4890ED000ADFEDF9
:10278000D00AB4EEE00AF1EE10FA16DDCA48CB49E1
:10279000097800EB810090ED000ADFEDCA0A20EE17
:1027A000200AC348D0ED000A80EE201AC248C3496F
:1027B000097800EB810080ED001A0BF015FD4BE06D
:1027C000C1480078012826D10020BF490870BF48C1
:1027D000007810B1012808D103E00120BB4908703E
:1027E00004E00020B949087000E000BF00BFB7480E
:1027F000007810B101280CD105E0002201211C2035
:102800000CF067FA06E0012211461C200CF061FA78
:1028100000E000BF20E0AE48007801281CD1002075
:10282000AB490870AB48007810B1012808D103E02B
:102830000120A849087004E00020A649087000E0C3
:1028400000BF00BFA348007810B1012802D100E00A
:1028500001E000E000BF00BF00E000BF00BFE9E30F
:102860009D48007806287CD2DFE800F003457CA66E
:10287000A7A89548007801283CD19448007890BBDF
:10288000002096490870964908700CF096FA954811
:10289000007810B1012808D103E0012091490870A7
:1028A00004E000208F49087000E000BF00BF8D48A1
:1028B000007810B1012817D10AE001220021084652
:1028C0000CF007FA0122114619200CF002FA0CE074
:1028D0000122114600200CF0FCF9012203211820EE
:1028E0000CF0F7F901E005E000BF00BFFDF7BAFE0C
:1028F000FDF7E5FEB0E074480078012830D1734858
:10290000007868BB002070490870754908707348EA
:10291000007820B1012806D002280CD107E0012060
:102920006E49087008E002206C49087004E000203D
:102930006A49087000E000BF00BFFDF793FEFDF795
:10294000BEFE6648007801280AD1674890ED000A6B
:10295000664880ED000A90ED000A654880ED000AA7
:102960007AE078E058480078012824D15748007868
:1029700008BB00205449087058490870584800782E
:1029800010B1012808D103E001205549087004E086
:1029900000205349087000E000BF00BFFDF78FFE24
:1029A000FDF760FE4E48007828B14F4890ED000AD0
:1029B000504880ED000A4FE04EE04DE0424800787C
:1029C000012826D10020404908704048007810B105
:1029D000012808D103E001203C49087004E00020F0
:1029E0003A49087000E000BF00BF3848007810B1D5
:1029F00001280CD105E0002201211C200CF069F90E
:102A000006E0012211461C200CF063F900E000BF33
:102A100020E02F48007801281CD100202C490870A4
:102A20002C48007810B1012808D103E00120294981
:102A3000087004E000202749087000E000BF00BFD4
:102A40002448007810B1012802D100E001E000E044
:102A500000BF00BF00E000BF00BF94E31E48007845
:102A6000062874D2DFE800F0038FC5FDFCFB164892
:102A70000078012842D115480078F8BB002017499A
:102A80000870174908700D49087001201A4908702C
:102A90000CF093F91348007888B3012834D0022849
:102AA00036D003283CD137E00F0000200000002082
:102AB000B400002000007A44446E00200E00002084
:102AC00000C05A4500409C452B0500201000002006
:102AD0002C05002011000020300500200A000020F5
:102AE0000C00002008000020400500201C000020F1
:102AF000200000202C0000201300002042E0FFE70F
:102B00000120FA4908700CE00220F849087008E03A
:102B10000320F649087004E00020F449087000E042
:102B200000BF00BFF148007830B1012810D0022862
:102B300014D003281ED117E00122114619200CF0F1
:102B4000C8F8012202211C200CF0C3F813E016E3A0
:102B50000122032119200CF0BCF80CE001221146DF
:102B600015200CF0B6F806E00122002116200CF02A
:102B7000B0F800E000BF00BFFDF774FDFDF79FFD5A
:102B8000FDF7B3FDFCE2DA480078012830D1D948DE
:102B9000007868BB0020D6490870D7490870D7482C
:102BA000007820B1012806D002280CD107E00120CE
:102BB000D249087008E00220D049087004E00020E3
:102BC000CE49087000E000BF00BFFDF74BFDFDF7E8
:102BD00076FDCA48007801280AD1C94890ED000A5C
:102BE000C84880ED000A90ED000AC74880ED000A51
:102BF000C6E2C648007801285BD1BC48007810B115
:102C0000012854D100E053E0C1480078012806D0E3
:102C1000032814D0052825D0062843D132E0BD482A
:102C200090ED560ABC48D0ED000A80EE801AB948F3
:102C300090ED520A31EE000A80ED520A33E0B548B9
:102C400090ED570AB448D0ED000A80EE801AB148E2
:102C500090ED530A31EE000A80ED530A23E066E15D
:102C600064E150E0AB4890ED580AAB48D0ED000A63
:102C700080EE801AA74890ED540A31EE000A80EDEC
:102C8000540A10E0A34890ED560AA348D0ED000A7C
:102C900080EE801A9F4890ED550A31EE000A80EDD3
:102CA000550A00E000BF00BF0BF09EFA00E000BF35
:102CB00028E08F480078012824D18E48007808BB8E
:102CC00000208B4908708D4908708B48007810B13E
:102CD000012808D103E001208749087004E00020A2
:102CE0008549087000E000BF00BFFDF7E8FCFDF774
:102CF000B9FC8148007828B1814890ED000A8748E6
:102D000080ED000A3CE27A480078012839D1794800
:102D10000078B0BB00207649087078490870764981
:102D200008707248007830B101284CD0022872D067
:102D3000032871D1A5E07A480078012812D100203B
:102D4000774908705B2108460CF092FD5B200CF07F
:102D5000C3FD7449087008460078012832D100206C
:102D600008702FE06A480078062829D2DFE800F0D2
:102D7000030A10161C220120654908700DF02FFD72
:102D80001FE088E00220624908700DF028FD18E07D
:102D900003205F4908700DF022FD12E004205C4919
:102DA00008700DF01CFD0CE00520594908700DF06D
:102DB00016FD06E00020564908700DF010FD00E0F9
:102DC00000BF00BF5FE056480078012812D1002004
:102DD000534908705B2108460CF04AFD5B200CF05B
:102DE0007BFD5049087008460078012847D1002033
:102DF000087044E04648007808283ED2DFE800F03A
:102E0000040D141B2229303701204149087000208D
:102E10000DF0E5FC32E033E034E002203C4908707C
:102E200000200DF0DCFC29E0032039490870012066
:102E30000DF0D5FC22E004203549087002200DF089
:102E4000CEFC1BE005203249087002200DF0C7FCC3
:102E500014E006202E49087003200DF0C0FC0DE0A0
:102E600007202B49087003200DF0B9FC06E0002074
:102E7000274908700DF0B3FC00E000BF00BF02E07E
:102E800001E000E000BF00BFFDF72FFCFDF717FCDD
:102E9000FDF7E8FB29E024480078012825D11548F2
:102EA000007810BB0020204908701D4800780128D8
:102EB0001BD001201A4908705A2108460CF0D8FC92
:102EC0005A200CF009FD17490870084600780128BF
:102ED00001D100200870012202211C200BF0F9FE14
:102EE000002203211C200BF0F4FE49E10800002021
:102EF0002B050020100000200C0000200A000020FC
:102F0000400500201C0000202000002000000020C0
:102F10000E000020406D0020BC0000202C0000208E
:102F2000130000203B0500202C05002028E1FE486E
:102F3000007801287BD1FD48007830B1012851D0BC
:102F4000022875D0032874D1C9E0F94890ED000A31
:102F5000DFEDF80AB4EEE00AF1EE10FA1ED2F64800
:102F6000F649097800EB810090ED000AF048D0EDB9
:102F7000000A80EE801AF0481838F049097800EB12
:102F8000810090ED000A31EE000AEB481838EB4959
:102F9000097800EB810080ED000A20E0E44890ED24
:102FA000000ADFEDE70AB4EEE00AF1EE10FA16DDF2
:102FB000E148E249097800EB810090ED000ADFED7D
:102FC000E10A20EE200ADA48D0ED000A80EE201A4D
:102FD000D948DA49097800EB810080ED001A0BF03E
:102FE00003F97EE0D5480078012806D0032822D0D6
:102FF00005283AD006286CD151E0D34890ED000A5C
:10300000F3EE0E0AB4EEE00AF1EE10FA0EDDCF4850
:1030100090ED560ADFEDCE0A20EE200ACA48D0ED28
:10302000000A80EE201AC94880ED561A52E059E095
:1030300054E055E0A7E0C44890ED000ADFEDC50A72
:10304000B4EEE00AF1EE10FA0EDDC04890ED570A3A
:10305000DFEDBC0A20EE200ABB48D0ED000A80EE6E
:10306000201ABA4880ED571A34E0B74890ED000AAC
:10307000DFEDB90AB4EEE00AF1EE10FA0EDDB34866
:1030800090ED580ADFEDB50A20EE200AAE48D0EDEB
:10309000000A80EE201AAD4880ED581A1AE0AA48BE
:1030A00090ED000ADFEDAE0AB4EEE00AF1EE10FAA0
:1030B0000EDDA64890ED590ADFEDAA0A20EE200A9F
:1030C000A148D0ED000A80EE201AA04880ED591AE0
:1030D00000E000BF00BF0BF087F802E001E000E075
:1030E00000BF4BE0A0480078012826D100209E496F
:1030F00008709E48007810B1012808D103E0012033
:103100009A49087004E000209849087000E000BF68
:1031100000BF9648007810B101280CD105E00022CC
:1031200001211C200BF0D5FD06E0012211461C20D8
:103130000BF0CFFD00E000BF20E08D4800780128B3
:103140001CD100208A4908708A48007810B10128F3
:1031500008D103E001208749087004E00020854978
:10316000087000E000BF00BF8248007810B101285D
:1031700002D100E001E000E000BF00BF00E000BFBE
:1031800000BF00E000BF00BF7B48007838BB784834
:103190000078012823D17548007800BB00207449CD
:1031A00008707648007810B1012808D103E00120AA
:1031B0007249087004E000207049087000E000BF08
:1031C00000BF6E48007810B1012806D102E00EF071
:1031D0000DF803E00EF003F800E000BF00BFFDF7BC
:1031E0002BFA6548007898B95F48007801280FD11C
:1031F0005E48007860B900205B490870604800783C
:10320000082802D15F480078D0B9FDF7FAF817E036
:103210005B480078082813D15748007804280FD15C
:103220005148007801280BD140480078012807D187
:103230004E48007820B900204B490870FDF7E1F8AE
:10324000BDEC088B10BD00B589B000200890474840
:103250000078002844F03782FDF747FB48480078A3
:10326000801F052884F02D82DFE810F005001C0D7A
:103270008110A6180319444890ED000A434880EDD8
:10328000000A90ED000AF3EE0E0AB4EEE00AF1EE49
:1032900010FA05DD0122032100200BF01AFD04E0E5
:1032A0000022032110460BF014FD36480078002858
:1032B00041F0CA81364800780028F9D135480078B5
:1032C0000028F5D1344800780028F1D1174800785B
:1032D000002828D1314800680EF03CFECDE90001FD
:1032E0009DED000B0FF0A4FB8DED040B264800684C
:1032F0000EF030FECDE902019DED040B53EC102BD6
:103300009DED020B51EC100B0EF00EFDCDE9060108
:103310009DED060B51EC100B0EF060FE204908608D
:103320002048006840E066E300000020080000201C
:10333000B80000200000C842706E00200E0000207F
:1033400000C05A4500409C45BC000020406D002054
:103350000000484200803B45007C92480024F4482D
:10336000001B374A8096984A2B0500201000002049
:103370002C0500201100002030050020090000204D
:103380002E0500200F0000203804002090000020AF
:10339000120000200B0000200D000020EC04002093
:1033A00088000020F00400200EF0D4FDCDE90001DB
:1033B0009DED000B0FF03CFB8DED040BFE4800680B
:1033C0000EF0C8FDCDE902019DED040B53EC102B6E
:1033D0009DED020B51EC100B0EF0A6FCCDE90601A1
:1033E0009DED060B51EC100B0EF0F8FDF349086053
:1033F0000120F34991ED000AFDF73EFAF14880ED16
:10340000000A0220ED4991ED000AFDF735FAEE4879
:1034100080ED000AED4800780890EC480078062816
:103420007ED2DFE800F0035EDDFCFBFAE8480078BE
:10343000012843D1E24890ED000AF1EE080AB4EE0B
:10344000E00AF1EE10FA09D801210846DD4A92EDB2
:10345000000A0BF078FDDF4908700CE001200CF049
:10346000A9F80122002102200BF033FCD748007894
:10347000401CD6490870D14890ED000ADFEDD60A0D
:10348000B4EEE00AF1EE10FA09D803210220CE4A88
:1034900092ED000A0BF057FDCE49087020E00220A3
:1034A0000CF088F80122002111200BF012FCC74813
:1034B0000078C01CC1B2C548017011E00121084666
:1034C000C04A92ED000A0BF03EFDC249087003218C
:1034D0000220BD4A92ED000A0BF035FDBD4908708F
:1034E00077E2BB480078012867D1B54890ED000A23
:1034F000DFEDBA0AB4EEE00AF1EE10FA14D890ED5E
:10350000000AF1EE080AB4EEE00AF1EE10FA0BDD63
:1035100002210120AB4A92ED000A0BF014FD00E0FD
:1035200056E2AC49087026E0A54890ED000AF1EE9D
:10353000080AB4EEE00AF1EE10FA05D8A3480078C4
:10354000401EA24908700EE09D4890ED000ADFED94
:10355000A30AB4EEE00AF1EE10FA04DD9B4800780D
:10356000401C9A49087001200CF024F80122002127
:1035700004200BF0AEFB914890ED000ADFED960AB7
:10358000B4EEE00AF1EE10FA09D8032102208E4AC7
:1035900092ED000A0BF0D7FC8E4908701FE0022064
:1035A0000CF008F80122002111200BF092FB874853
:1035B0000078C01C8549087011E002210120814A71
:1035C00092ED000A0BF0BFFC824908700321022033
:1035D0007D4A92ED000A0BF0B6FC7E490870F8E1D6
:1035E0007B480078012859D1754890ED000ADFED3D
:1035F0007A0AB4EEE00AF1EE10FA16D890ED000A5D
:10360000DFED760AB4EEE00AF1EE10FA0DDD0321EB
:1036100001206C4A92ED000A02E05EE1B9E050E060
:103620000BF091FC6B49087016E0654890ED000ABC
:10363000DFED6A0AB4EEE00AF1EE10FA04D863484E
:103640000078401E6149087001200BF0B3FF012291
:10365000002106200BF03DFB584890ED000ADFEDFD
:103660005E0AB4EEE00AF1EE10FA09D80321022056
:10367000554A92ED000A0BF066FC564908701FE0AF
:1036800002200BF097FF0122002111200BF021FBFB
:103690004E480078C01C4D49087011E003210120FC
:1036A000484A92ED000A0BF04EFC4A49087003218B
:1036B0000220454A92ED000A0BF045FC454908708E
:1036C00087E143480078012850D13D4890ED000A39
:1036D000F1EE080AB4EEE00AF1EE10FA09D8012181
:1036E0000846384A92ED000A0BF02DFC3949087063
:1036F0000CE001200BF05EFF0122002102200BF004
:10370000E8FA32480078401C304908702B4890EDA8
:10371000000ADFED330AB4EEE00AF1EE10FA12D837
:1037200090ED000ADFED2C0AB4EEE00AF1EE10FA9B
:1037300009DD04210220244A92ED000A0BF003FC6B
:103740002449087024E01D4890ED000ADFED220AAC
:10375000B4EEE00AF1EE10FA1AD802200BF02AFFBC
:103760001A480078C01E1949087011E00121084666
:10377000144A92ED000A0BF0E6FB1649087004218A
:103780000220114A92ED000A0BF0DDFB114908708E
:103790001FE10F480078012878D1094890ED000A10
:1037A000DFED0E0AB4EEE00AF1EE10FA29D890ED42
:1037B000000AF1EE080A15E03C0400208C0000200D
:1037C00088000020780000207C0000200E000020EF
:1037D0001300002074000020000016440000704216
:1037E0000000FA44B4EEE00AF1EE10FA09DD02211D
:1037F0000120FD4A92ED000A0BF0A5FBFB49087081
:1038000027E0FB4890ED000AF1EE080AB4EEE00A6A
:10381000F1EE10FA05D8F7480078401EF549087017
:103820000FE0F34890ED000A5FED140AB4EEE00AF1
:10383000F1EE10FA05DDEF480078401CC1B2ED480A
:10384000017001200BF0B6FE0122002104200BF0D4
:1038500040FAE94890ED000A5FED1F0AB4EEE00A75
:10386000F1EE10FA13D890ED000A5FED250AB4EEE0
:10387000E00AF1EE10FA0ADD04210220DF4A92ED9F
:10388000000A0BF060FBD949087025E012E0DA4825
:1038900090ED000A5FED300AB4EEE00AF1EE10FAA6
:1038A0001AD802200BF086FED2480078C01ED149FB
:1038B000087011E002210120CB4A92ED000A0BF0C2
:1038C00042FBCA49087004210220CC4A92ED000A4A
:1038D0000BF039FBC54908707BE0C9480078012826
:1038E00063D1C34890ED000A5FED450AB4EEE00AEB
:1038F000F1EE10FA12D890ED000A5FED480AB4EE2E
:10390000E00AF1EE10FA09DD03210120B64A92ED3A
:10391000000A0BF018FBB549087016E0B44890EDAA
:10392000000A5FED520AB4EEE00AF1EE10FA04D894
:10393000B0480078401EAF49087001200BF03AFEF5
:103940000122002106200BF0C4F9AB4890ED000ADB
:103950005FED5D0AB4EEE00AF1EE10FA12D890EDD8
:10396000000A5FED630AB4EEE00AF1EE10FA09DD39
:1039700004210220A14A92ED000A0BF0E4FA9B49CF
:10398000087024E09C4890ED000A5FED6D0AB4EEEB
:10399000E00AF1EE10FA1AD802200BF00BFE95485F
:1039A0000078C01E9349087011E0032101208E4A5F
:1039B00092ED000A0BF0C7FA8C490870042102202E
:1039C0008E4A92ED000A0BF0BEFA8849087000E0BA
:1039D00000BF00BF874909780898884206D085480B
:1039E0000078032803DA01200DF002FAFEE300203C
:1039F0000DF0FEF9FAE783480078012873D1824878
:103A000090ED000A7A4880ED000A804890ED000AA7
:103A1000794880ED000A0120754991ED000AFCF714
:103A20002BFF714880ED000A0220734991ED000AD6
:103A3000FCF722FF714880ED000A6D4800680EF027
:103A400089FACDE904019DED040B0EF0F1FF8DED37
:103A5000060B9DED060B51EC100B0EF0BFFA6C49F6
:103A600008606448007806287ED2DFE800F0035E34
:103A7000F8F6F5F462480078012843D1644890EDE7
:103A8000000AF1EE080AB4EEE00AF1EE10FA09D8E5
:103A900001210846544A92ED000A0BF054FA5349AA
:103AA00008700CE001200BF085FD012200210220AE
:103AB0000BF00FF94F480078401C4E4908704E48F3
:103AC00090ED000A5FEDBC0AB4EEE00AF1EE10FAE8
:103AD0000AD803210220494A92ED000A0BF033FA7A
:103AE0004249087020E0AFE202200BF063FD0122A2
:103AF000002111200BF0EDF83E480078C01C3D4934
:103B0000087011E001210846374A92ED000A0BF0D7
:103B10001AFA3649087003210220384A92ED000A49
:103B20000BF011FA314908708DE235480078012810
:103B30007ED1374890ED000A5FEDD80AB4EEE00A76
:103B4000F1EE10FA14D890ED000AF1EE080AB4EE86
:103B5000E00AF1EE10FA0BDD02210120224A92ED7B
:103B6000000A0BF0F0F900E06CE22049087026E052
:103B7000274890ED000AF1EE080AB4EEE00AF1EEF3
:103B800010FA05D81B480078401E1A4908700EE04C
:103B90001F4890ED000A5FEDEF0AB4EEE00AF1EE87
:103BA00010FA04DD13480078401C12490870012007
:103BB0000BF000FD0122002104200BF08AF80E48D2
:103BC00090ED000A5FEDFC0AB4EEE00AF1EE10FAA7
:103BD00020D803210220094A92ED000A0BF0B3F924
:103BE0000249087036E023E07800002074000020CD
:103BF000880000200E0000208C0000207C000020A7
:103C00001300002008000020EC040020F004002035
:103C10009400002002200BF0CDFC01220021112095
:103C20000BF057F8FC480078C01CFB49087011E005
:103C300002210120F94A92ED000A0BF084F9F849BB
:103C4000087003210220F74A92ED000A0BF07BF97D
:103C5000F3490870F7E163E1D6E06DE0FFE7F24871
:103C60000078012855D1F14890ED000ADFEDF00A07
:103C7000B4EEE00AF1EE10FA12D890ED000ADFED92
:103C8000ED0AB4EEE00AF1EE10FA09DD032101209D
:103C9000E24A92ED000A0BF056F9E149087016E08D
:103CA000E24890ED000ADFEDE30AB4EEE00AF1EE3F
:103CB00010FA04D8D8480078401ED749087001206F
:103CC0000BF078FC0122002106200BF002F8DA4804
:103CD00090ED000ADFEDD60AB4EEE00AF1EE10FA3C
:103CE00009D803210220CF4A92ED000A0BF02BF9EC
:103CF000CB4908701FE002200BF05CFC0122002180
:103D000011200AF0E6FFC4480078C01CC2490870C0
:103D100011E003210120C14A92ED000A0BF013F9D2
:103D2000BF49087003210220BE4A92ED000A0BF041
:103D30000AF9BB49087086E1BB480078012850D1D8
:103D4000BA4890ED000AF1EE080AB4EEE00AF1EE8E
:103D500010FA09D801210846B04A92ED000A0BF08A
:103D6000F2F8AF4908700CE001200BF023FC0122AF
:103D7000002102200AF0ADFFA7480078401CA649A8
:103D80000870AD4890ED000ADFEDAC0AB4EEE00A31
:103D9000F1EE10FA12D890ED000ADFEDA50AB4EEAC
:103DA000E00AF1EE10FA09DD042102209D4A92EDAD
:103DB000000A0BF0C8F89A49087024E09E4890ED7C
:103DC000000ADFED9B0AB4EEE00AF1EE10FA1AD811
:103DD00002200BF0EFFB90480078C01E8E4908705F
:103DE00011E0012108468D4A92ED000A0BF0ABF874
:103DF0008B490870042102208A4A92ED000A0BF0D8
:103E0000A2F8874908701EE187480078012874D11C
:103E1000864890ED000ADFED870AB4EEE00AF1EE85
:103E200010FA12D890ED000AF1EE080AB4EEE00A9A
:103E3000F1EE10FA09DD02210120784A92ED000A24
:103E40000BF081F87649087026E0784890ED000A7A
:103E5000F1EE080AB4EEE00AF1EE10FA05D86E4869
:103E60000078401E6C4908700EE0704890ED000A22
:103E7000DFED700AB4EEE00AF1EE10FA04DD6648F8
:103E80000078401C6449087001200BF093FB01226C
:103E9000002104200AF01DFF674890ED000ADFEDC5
:103EA000670AB4EEE00AF1EE10FA12D890ED000ABB
:103EB000DFED5F0AB4EEE00AF1EE10FA09DD04214D
:103EC0000220584A92ED000A0BF03DF85449087060
:103ED00025E0594890ED000ADFED550AB4EEE00AFE
:103EE000F1EE10FA1BD802200BF064FB4A48007870
:103EF000C01E4949087012E0FFE702210120474A2D
:103F000092ED000A0BF01FF84549087004210220C9
:103F1000444A92ED000A0BF016F84149087092E00D
:103F200041480078012863D1404890ED000ADFED58
:103F3000400AB4EEE00AF1EE10FA12D890ED000A51
:103F4000DFED3C0AB4EEE00AF1EE10FA09DD0321E0
:103F50000120324A92ED000A0AF0F5FF304908705C
:103F600016E0324890ED000ADFED320AB4EEE00AC6
:103F7000F1EE10FA04D828480078401E264908704F
:103F800001200BF017FB0122002106200AF0A1FE00
:103F9000294890ED000ADFED2A0AB4EEE00AF1EEBE
:103FA00010FA12D890ED000ADFED210AB4EEE00A13
:103FB000F1EE10FA09DD042102201A4A92ED000AFE
:103FC0000AF0C1FF1649087024E01B4890ED000A72
:103FD000DFED170AB4EEE00AF1EE10FA1AD802206B
:103FE0000BF0E8FA0C480078C01E0B49087011E08D
:103FF00003210120094A92ED000A0AF0A4FF0849B2
:10400000087004210220074A92ED000A0AF09BFF83
:104010000349087017E000000E000020780000201F
:10402000740000207C000020130000209400002079
:1040300000001644000070428C00002000803B45C8
:104040000000FA4400BFD1E4FE4800780228FAD10B
:10405000FD4890ED000AFD4880ED000AFC4890ED17
:10406000000AFC4880ED000A0120F84991ED000AA1
:10407000FCF702FCF84880ED000A0220F54991EDBA
:10408000000AFCF7F9FBF54880ED000AF4480078D7
:1040900006287DD2DFE800F0035DDFFEFDFCF1487D
:1040A0000078012842D1E94890ED000AF1EE080AB3
:1040B000B4EEE00AF1EE10FA09D801210846E64A0A
:1040C00092ED000A0AF03FFFE74908700CE001207A
:1040D0000BF070FA0122002102200AF0FAFDE048FC
:1040E0000078401CDE490870DA4890ED000A5FED68
:1040F000300AB4EEE00AF1EE10FA09D803210220EA
:10410000D64A92ED000A0AF01EFFD74908701FE058
:1041100002200BF04FFA0122002111200AF0D9FDF4
:10412000CF480078C01CCE49087011E00121084634
:10413000C94A92ED000A0AF006FFCB490870032134
:104140000220C64A92ED000A0AF0FDFEC649087038
:1041500079E2C448007801286AD1BC4890ED000A91
:104160005FED4C0AB4EEE00AF1EE10FA14D890EDCF
:10417000000AF1EE080AB4EEE00AF1EE10FA0BDDE7
:1041800002210120B44A92ED000A0AF0DCFE00E0B0
:1041900058E2B549087027E0AC4890ED000AF1EE0E
:1041A000080AB4EEE00AF1EE10FA05D8AC4800783F
:1041B000401EAB4908700FE0A44890ED000A5FED87
:1041C000630AB4EEE00AF1EE10FA05DDA4480078C7
:1041D000401CC1B2A248017001200BF0EBF9012292
:1041E000002104200AF075FD9A4800E02BE290EDD2
:1041F000000A5FED710AB4EEE00AF1EE10FA09D898
:1042000003210220954A92ED000A0AF09CFE96498D
:1042100008701FE002200BF0CDF9012200211120CF
:104220000AF057FD8E480078C01C8D49087011E0D7
:1042300002210120884A92ED000A0AF084FE8A4990
:10424000087003210220854A92ED000A0AF07BFEE5
:1042500085490870F7E183480078012859D17B48E7
:1042600090ED000A5FED8E0AB4EEE00AF1EE10FA6E
:1042700016D890ED000A5FED910AB4EEE00AF1EE77
:1042800010FA0DDD03210120734A92ED000A02E0CD
:104290005CE1B9E050E00AF056FE7349087016E0A0
:1042A0006A4890ED000A5FED9D0AB4EEE00AF1EE77
:1042B00010FA04D86A480078401E69490870012045
:1042C0000BF078F90122002106200AF002FD614876
:1042D00090ED000A5FEDAA0AB4EEE00AF1EE10FAE2
:1042E00009D8032102205D4A92ED000A0AF02BFE54
:1042F0005D4908701FE002200BF05CF901220021EB
:1043000011200AF0E6FC56480078C01C5449087099
:1043100011E003210120504A92ED000A0AF013FE39
:1043200051490870032102204C4A92ED000A0AF01C
:104330000AFE4D49087086E14A480078012850D1AC
:10434000424890ED000AF1EE080AB4EEE00AF1EE00
:1043500010FA09D8012108463F4A92ED000A0AF0F6
:10436000F2FD414908700CE001200BF023F9012215
:10437000002102200AF0ADFC39480078401C384981
:104380000870344890ED000A5FEDD30AB4EEE00AFD
:10439000F1EE10FA12D890ED000A5FEDDB0AB4EEF0
:1043A000E00AF1EE10FA09DD042102202B4A92ED19
:1043B000000A0AF0C8FD2C49087024E0254890ED59
:1043C000000A5FEDE50AB4EEE00AF1EE10FA1AD841
:1043D00002200BF0EFF822480078C01E2049087038
:1043E00011E0012108461C4A92ED000A0AF0ABFDDB
:1043F0001D49087004210220184A92ED000A0AF0B3
:10440000A2FD194908701EE116480078012876D1EE
:104410000E4890ED000A5FEDF90AB4EEE00AF1EE05
:1044200010FA28D890ED000AF1EE080AB4EEE00A7E
:10443000F1EE10FA1FDD02210120074A92ED000A79
:1044400014E000000800002038040020880000204C
:104450003C0400208C000020780000207C0000201C
:104460000E00002013000020740000200AF06BFDF5
:10447000FE49087026E0FE4890ED000AF1EE080AB9
:10448000B4EEE00AF1EE10FA05D8FA480078401EC2
:10449000F84908700EE0F64890ED000ADFEDF60AE4
:1044A000B4EEE00AF1EE10FA04DDF2480078401CA8
:1044B000F049087001200BF07DF801220021042052
:1044C0000AF007FCED4890ED000ADFEDED0AB4EECE
:1044D000E00AF1EE10FA13D890ED000ADFEDE90AD8
:1044E000B4EEE00AF1EE10FA0ADD04210220E64AF9
:1044F00092ED000A0AF027FDDC49087025E012E081
:10450000DE4890ED000ADFEDDF0AB4EEE00AF1EEDE
:1045100010FA1AD802200BF04DF8D6480078C01EC9
:10452000D449087011E002210120D84A92ED000A16
:104530000AF009FDCD49087004210220D24A92ED0B
:10454000000A0AF000FDC94908707CE0D0480078F4
:10455000012864D1C64890ED000ADFEDCA0AB4EE26
:10456000E00AF1EE10FA12D890ED000ADFEDC20A6F
:10457000B4EEE00AF1EE10FA09DD03210120C34A8E
:1045800092ED000A0AF0DFFCB849087016E0B8485E
:1045900090ED000ADFEDB80AB4EEE00AF1EE10FA91
:1045A00004D8B4480078401EB249087001200BF0CE
:1045B00001F80122002106200AF08BFBAF4890EDA4
:1045C000000ADFEDAF0AB4EEE00AF1EE10FA12D8FD
:1045D00090ED000ADFEDAB0AB4EEE00AF1EE10FA5E
:1045E00009DD04210220A84A92ED000A0AF0ABFC82
:1045F0009E49087025E0A14890ED000ADFEDA10A70
:10460000B4EEE00AF1EE10FA1BD802200AF0D2FF55
:1046100098480078C01EC1B29648017011E003218D
:1046200001209A4A92ED000A0AF08DFC8F49087029
:1046300004210220944A92ED000A0AF084FC8B497E
:10464000087000E000BF2BE392480078C8B391489F
:104650000078012804D0022834D003287DD162E0FC
:104660008D4890ED000A824880ED000A01208049C3
:1046700091ED000AFCF700F9844880ED000A0A2158
:104680000120824A92ED000A0AF05DFC7749087029
:10469000824890ED000A794880ED000A02207749AF
:1046A00091ED000AFCF7E8F8774880ED000A0A214E
:1046B0000220754A92ED000A0AF045FC6B49087029
:1046C00065E065E0764890ED000A694880ED000AF3
:1046D0000120674991ED000AFCF7CEF86B4880EDA8
:1046E000000A0A210120694A92ED000A0AF02BFC17
:1046F0005E4908706B4890ED000A604880ED000A42
:1047000002205E4991ED000AFCF7B6F85E4880EDA4
:10471000000A0A2102205C4A92ED000A0AF013FC0A
:104720005249087033E0604890ED000A504880ED2F
:10473000000A01204E4991ED000AFCF79DF853480C
:1047400080ED000A02210120504A92ED000A0AF091
:10475000FAFB46490870554800E017E090ED000A62
:10476000464880ED000A0220444991ED000AFCF71A
:1047700083F8454880ED000A02210846424A92ED3E
:10478000000A0AF0E0FB3949087000E000BF87E248
:104790004748007868B1474800780228F7D10A21D5
:1047A0000120454A92ED000A0AF0CDFB2F4908701E
:1047B00076E24248007878B341480078012802D078
:1047C000022851D129E03F4890ED000A284880EDA9
:1047D000000A90ED000A2D4880ED000A0A21012010
:1047E0002A4A92ED000A0AF0AEFB204908703648CA
:1047F00090ED000A214880ED000A90ED000A224861
:1048000080ED000A0A2102201F4A92ED000A0AF0F8
:104810009AFB1649087061E061E02C4890ED000AAF
:10482000134880ED000A90ED000A184880ED000A58
:104830000A210120154A92ED000A0AF084FB0B4977
:104840000870234890ED000A0C4880ED000A90EDB6
:10485000000A0D4880ED000A0A2102200A4A92ED62
:10486000000A0AF070FB35E037E000007400002019
:10487000880000200E000020000070428C00002004
:104880000000FA44000016447C000020780000205C
:10489000130000200F000020880400209004002056
:1048A000840400208C040020580400205C040020B4
:1048B0001200002034040020400400200B000020DF
:1048C0000A000020480400204C040020500400206E
:1048D00054040020FE49087000E000BFE0E1FD48FC
:1048E00000780028FAD0FC48008800F4004070B33B
:1048F000FA48007804284DD1F9480068069000284D
:1049000001DB069801E00698404214280CDBF448CD
:104910000068A0F5B4700790002801DB079801E05B
:1049200007984042142802DA02200AF057FEEC48A9
:10493000006878380790002801DB079801E00798A5
:104940004042142804DA02200AF052FE13E021E06B
:10495000E3480068F0380790002801DB079801E081
:1049600007984042142803DA02200AF04BFE02E0C6
:1049700002200AF00CFE0A210120D94A92ED000A19
:10498000B8EE400A0AF0DFFAD14908700521D34891
:10499000017054E0D048008800F4804048B3CF480C
:1049A0000078042825DACF480078012847D1002074
:1049B000CC490870CC48007810B1012808D103E038
:1049C0000120C949087004E00020C749087000E0D0
:1049D00000BF00BFC4480078012803D102200AF0BC
:1049E0001BFE02E002200AF0DCFD01200AF0F6FDC9
:1049F00025E0B948008800F4804000BBB948007841
:104A000001281CD10020B7490870B748007810B1C0
:104A1000012808D103E00120B349087004E0002018
:104A2000B149087000E000BF00BFAF48007801281E
:104A300002D10AF0C9FD02E001200AF0B2FDA64849
:104A4000008800F4004020B3A4480078032820D157
:104A50000021A64805F09EFBA5480068A5490988E5
:104A6000B0FBF1F201FB1200A349086008460068A0
:104A70004FF4B47148439F490988B0FBF1F09E4957
:104A80000860084600689649086004209349087049
:104A900006E19148008800F48040E8B3974890ED23
:104AA000000A974880ED000A0A210220944A92EDFC
:104AB000000A0AF048FA86490870914890ED000A09
:104AC000F2EE040AB4EEE00AF1EE10FA0AD28348DC
:104AD0000078012806D102208049087000200BF0E0
:104AE00039FF0FE0864890ED000AF2EE040AB4EEBA
:104AF000E00AF1EE10FA05DD78480078012801D1CE
:104B00007649087075480078022842D17C4890EDBB
:104B1000000ADFED7C0A00E04DE0B4EEE00AF1EEC1
:104B200010FA31DD78480078401C77490870084653
:104B30000078012805D1724890ED000A734880ED95
:104B4000000A7148007805281ED16D4890ED000AD2
:104B50006E48D0ED000A30EE600ABDEEC00A8DED61
:104B6000070A0798002801DB079801E007984042F0
:104B700005280ADA0121002004F0E6FA0020624943
:104B800008700320554908708AE000205E490870CB
:104B900086E05248007803280CD1594890ED000A6D
:104BA000F2EE040AB4EEE00AF1EE10FA78D2022036
:104BB0004A49087074E04848008800F48040D8BB37
:104BC0004E4890ED000A4E4880ED000A0A2102206E
:104BD0004B4A92ED000A0AF0B6F93D490870484880
:104BE00090ED000ADFED470AB4EEE00AF1EE10FAAC
:104BF0003DDD3A48007878BB43480078012806D16B
:104C00003F4890ED000A414880ED000A28E03E4808
:104C10000078052824D13A4890ED000A3B48D0EDB1
:104C2000000A30EE600ABDEEC00A8DED070A079853
:104C3000002802DB079802E032E00798404205288E
:104C40000BDA0121002004F07FFA00202E490870C1
:104C500001202249087003E009E000202A49087079
:104C600029480078401CC1B22748017018E0244848
:104C700090ED000ADFED230AB4EEE00AF1EE10FA3F
:104C80000ED21648007801280AD100201349087076
:104C90000021084604F058FA0021144805F07AFA79
:104CA00002F010BD154890ED000A194880ED000A89
:104CB00090ED000AF3EE0E0AB4EEE00AF1EE10FAFF
:104CC00028DD0122032100200AF003F827E000007C
:104CD000740000200D0000204C050020140000206E
:104CE000700000206505002018000020000C004026
:104CF0005005002054050020380000203804002012
:104D00008C0000200000C8429C0000209800002079
:104D10009000002000220321104609F0DAFFF74836
:104D20000078E0BBF6480078C8BBF648007820B1B0
:104D300001281BD002284CD132E0F34890ED000A44
:104D4000F24880ED000A0120F04991ED000AFBF7DE
:104D500093FDEF4880ED000A0A210120EC4A92ED14
:104D6000000A0AF0F0F8EB49087033E0EA4890EDE9
:104D7000000AE64880ED000A0120E44991ED000AAE
:104D8000FBF77AFDE24880ED000A0A210120E04AA3
:104D900092ED000A0AF0D7F8DE4908701AE08AE0BE
:104DA000DE4890ED000AD94880ED000A0120D7497D
:104DB00091ED000AFBF760FDD54880ED000A0A215D
:104DC0000120D34A92ED000A0AF0BDF8D1490870DB
:104DD00000E000BF00BFD248007830B101281DD0EC
:104DE000022834D0032864D14AE0CE4890ED000A6E
:104DF000CD4880ED000A0220CB4991ED000AFBF777
:104E00003BFDC34880ED000A01210220C04A92ED1B
:104E1000000A0AF098F8BF4908704BE0C34890EDCB
:104E2000000AC14880ED000A0220BF4991ED000A46
:104E3000FBF722FDB64880ED000A01210220B44AAA
:104E400092ED000A0AF07FF8B249087032E0B848E3
:104E500090ED000AB44880ED000A0220B24991EDBD
:104E6000000AFBF709FDAA4880ED000A0A2102208A
:104E7000A74A92ED000A0AF066F8A649087019E000
:104E8000AC4890ED000AA84880ED000A0220A6492F
:104E900091ED000AFBF7F0FC9D4880ED000A0A2125
:104EA00002209B4A92ED000A0AF04DF899490870D9
:104EB00000E000BF5AE29248007898B39E4800781C
:104EC00001280CD100209C4908700A2102209B4A2D
:104ED000128800EE102AB8EE400A0AF034F8904822
:104EE000007830B101281ED0022835D0032865D1C2
:104EF0004BE0934890ED000A844880ED000A0120C1
:104F0000824991ED000AFBF7B7FC814880ED000A69
:104F10000A2101207E4A92ED000A0AF014F87D4928
:104F200008704CE04CE0874890ED000A774880ED2F
:104F3000000A0120754991ED000AFBF79DFC7448B9
:104F400080ED000A0A210120714A92ED000A09F061
:104F5000FAFF7049087032E07B4890ED000A6B4818
:104F600080ED000A0120694991ED000AFBF784FCFD
:104F7000674880ED000A0A210120654A92ED000A87
:104F800009F0E1FF6349087019E0704890ED000AEC
:104F90005E4880ED000A01205C4991ED000AFBF7B4
:104FA0006BFC5B4880ED000A0A210120584A92ED13
:104FB000000A09F0C8FF5749087000E000BFD5E1BA
:104FC0004E4800780028FAD061480078012812D1B4
:104FD00000205F4908705F48007810B1012808D1AF
:104FE00003E001205B49087004E000205949087083
:104FF00000E000BF00BF58480078072872D2DFE801
:1050000000F0044BC4F7F6F5F4005248007810B1F4
:10501000012816D10AE000220321092009F059FED7
:10502000002211460B2009F054FE0BE0012203215F
:10503000092009F04EFE012200210B2009F049FE53
:1050400000E000BF00BF2F48007820B101280CD03D
:1050500002281ED113E00A2101202B4A92ED000AFA
:1050600009F071FF2B49087014E00A2101202A4A37
:1050700092ED000A09F067FF264908700AE00A214C
:105080000120264A92ED000A09F05DFF21490870CF
:1050900000E000BF00BF68E12E48007810B1012891
:1050A00016D10AE0002203210A2009F012FE002294
:1050B00011460B2009F00DFE0BE0012203210A200E
:1050C00009F007FE012200210B2009F002FE00E09A
:1050D00000BF00BF0B48007828B101283ED002284D
:1050E00050D145E040E10A210120074A92ED000A33
:1050F00009F029FF0749087045E000000B00002077
:105100001200002008000020600400208800002019
:10511000780000207400002064040020680400204F
:105120000F0000207C0400208C0000208004002060
:105130009804002094040020FD0400206205002053
:105140006C0400207004002074040020340000204F
:1051500065050020180000200D0000200A21012014
:10516000FD4A92ED000A09F0EEFEFC4908700AE0E3
:105170000A210120FA4A92ED000A09F0E4FEF749FB
:10518000087000E000BF00BFEFE0F648007810B103
:10519000012816D10AE0002201210B2009F099FD17
:1051A000002211460B2009F094FD0BE0012211466C
:1051B0000B2009F08EFD012200210B2009F089FD52
:1051C00000E000BF00BFE848007820B1012810D0FF
:1051D000022822D117E00A210120E44A92ED000AB8
:1051E00009F0B1FEDD49087018E094E06AE040E0A3
:1051F00016E00A210120D84A92ED000A09F0A3FE28
:10520000D64908700AE00A210120D54A92ED000A29
:1052100009F099FED149087000E000BF00BFA4E08A
:10522000D148007820B101280CD002281ED113E00B
:105230000A210120CE4A92ED000A09F084FEC749F6
:10524000087014E00A210120CA4A92ED000A09F010
:105250007AFEC24908700AE00A210120C64A92ED8E
:10526000000A09F070FEBD49087000E000BF00BFF1
:105270007BE0BD48007820B101280CD002281ED167
:1052800013E00A210120BD4A92ED000A09F05BFEFD
:10529000B249087014E00A210120B94A92ED000ACF
:1052A00009F051FEAD4908700AE00A210120B54A13
:1052B00092ED000A09F047FEA849087000E000BF1F
:1052C00000BF52E0A848007820B101280CD0022885
:1052D0001ED113E00A210120AB4A92ED000A09F029
:1052E00032FE9E49087014E00A210120A74A92ED7F
:1052F000000A09F028FE994908700AE00A210120F5
:10530000A34A92ED000A09F01EFE9449087000E0DD
:1053100000BF00BF29E09448007820B101280CD0DC
:1053200002281ED113E00A2101209A4A92ED000AB8
:1053300009F009FE8949087014E00A210120964A03
:1053400092ED000A09F0FFFD844908700AE00A2185
:105350000120924A92ED000A09F0F5FD7F4908709C
:1053600000E000BF00BF00E000BF00BF98E47E483F
:105370000078002875D18A4890ED000A894880EDB0
:10538000000A89488949097800EB810090ED000AFC
:105390008448D0ED000A30EEC00A834814308349B7
:1053A000097800EB8100D0ED000A20EE200A7D484C
:1053B00080ED000A90ED000A7D4880ED000A012092
:1053C000784991ED000AFBF757FA7A4880ED000A18
:1053D0009FED790A794880ED000A74480078052825
:1053E00078D2DFE800F0033F92F5B80001220221F5
:1053F0001A2009F06EFC72480078012818D1714813
:10540000007960B97048006841F63801884206D8D2
:105410000120684991ED000A09F0D9FF1BE0012045
:105420000AF0C8F861480078401C6049087012E032
:105430006448007960B96448016841F638008142E7
:1054400006D801205B4991ED000A09F0C0FF02E097
:10545000012009F0B2FF01220021062009F039FCE9
:10546000A1E1B7E1002202211A2009F032FC5448E0
:10547000007801282FD153480079012811D15248D2
:10548000016841F6380081420BD84F480068B0F5FA
:10549000117F06D30120474991ED000A09F097FFDB
:1054A0002DE001200AF086F846480079012806DA46
:1054B0003E480078401EC1B23C4801701FE04148A0
:1054C000007901281BDD39480078401CC1B23748FB
:1054D000017014E066E13B48007901280CD13A489C
:1054E000006841F63801884206D80120314991ED23
:1054F000000A09F06CFF02E0012009F05EFF0122C2
:105500000021022009F0E5FB4DE12D48007801283B
:1055100077D12C48007902285BD12B48006841F6EE
:105520003801884255D828480068B0F5117F50D31B
:105530000120204991ED000A09F049FF224890ED31
:10554000000AB8EE400ADFED210A80EE201A1B485F
:1055500080ED001A75E0DDE0640400207400002096
:1055600068040020180000200800002060040020CB
:105570003C000020400000204400002048000020A3
:105580004C00002050000020540000205800002053
:105590005C00002060000020640000206800002003
:1055A0004005002080000020306E00200E0000200A
:1055B000B4000020780000200000000090000020CF
:1055C00013000020B86E00203C0500200000C842F7
:1055D0003DE0012009F0EEFFF8480079022805DAE5
:1055E000F7480078401EF64908702AE0F348007931
:1055F000022826DDF2480078401CF149087020E0BE
:10560000FFE7EE480079022818D1EE48006841F61D
:105610003801884212D80120EB4991ED000A09F0C7
:10562000D6FEE84890ED000AB8EE400A5FED190A90
:1056300080EE201AE54880ED001A02E0012009F012
:10564000BCFE01220021042009F043FBABE0E0484E
:105650000078012838D1D948007903281DD1D948CC
:10566000006841F63801884217D8D6480068B0F57E
:10567000117F12D30120D44991ED000A09F0A7FE51
:10568000D04890ED000AB8EE400AF2EE040A80EE2F
:10569000201ACE4880ED001A36E0012009F08AFF7A
:1056A000C6480079032805DAC5480078401EC44979
:1056B000087029E0C1480079032825DDC04800783A
:1056C000401CBF4908701FE0BC480079032818D16E
:1056D000BC48016841F63800814212D80120BA491D
:1056E00091ED000A09F073FEB64890ED000AB8EE9D
:1056F000400AF2EE040A80EE201AB44880ED001A47
:1057000002E0012009F059FE01220021062009F0E3
:10571000E0FA48E0AE480078012827D1A748007990
:10572000042818D1A7480068B0F5117F13D3A54805
:105730000068B0F57A7F0ED80120A34991ED000AE8
:1057400009F045FE9F4890ED000AB8EE400A9F48D8
:1057500080ED000A25E0012009F02CFF9748007930
:1057600004281EDA0320964908701AE0934800794D
:10577000042813D193480068B0F57A7F0ED8012031
:10578000914991ED000A09F022FE8E4890ED000A41
:10579000B8EE400A8D4880ED000A02E0012009F0D1
:1057A0000CFE00E000BF00BF884890ED000ADFED6E
:1057B000890AB4EEE00AF1EE10FA05DD01220321B8
:1057C000002009F086FAFDE300220321104609F0CB
:1057D00080FAF7E3804800780128F4D17F48007808
:1057E00088BB7F4890ED000A7E4880ED000A0120CA
:1057F0007C4991ED000AFBF73FF8734880ED000A01
:105800001FED930A714880ED000A6D48007830B1B1
:1058100001283BD0022876D0032875D114E16C48CA
:105820000078012819D16548007968B96548006891
:1058300041F63801884207D80120634991ED000AFA
:1058400009F0C5FD1CE05DE1012009F0B3FE5C48F4
:105850000078401C5A49087012E05848007960B935
:105860005848006841F63801884206D80120564958
:1058700091ED000A09F0ABFD02E0012009F09DFD69
:1058800001220021022009F024FA24E15048007886
:1058900001283AD14948007901281DD149480068BA
:1058A00041F63801884217D846480068B0F5117FA4
:1058B00012D30120444991ED000A09F088FD4148C6
:1058C00090ED000AB8EE400A5FEDC00A80EE201AA3
:1058D0003E4880ED001A38E0012009F06BFE3748A1
:1058E0000079012805DA36480078401E34490870EE
:1058F0002BE032480079012827DD31480078401C30
:105900002F49087021E026E0E4E02C4800790128C6
:1059100018D12C48016841F63800814212D8012084
:10592000294991ED000A09F052FD264890ED000A40
:10593000B8EE400A5FEDDB0A80EE201A234880EDC6
:10594000001A02E0012009F038FD012200210420A4
:1059500009F0BFF9BFE01E48007801284ED1174872
:10596000007902281DD11748006841F638018842A5
:1059700017D814480068B0F5117F12D301201249DE
:1059800091ED000A09F023FD0E4890ED000AB8EEF3
:10599000400AF2EE040A80EE201A0C4880ED001A4C
:1059A0004CE0012009F006FE0448007902281BDAC9
:1059B00003480078401E024908703FE0B86E00209E
:1059C0000E0000203C050020780000209000002000
:1059D0001300002000004842080000200F000020B3
:1059E0004005002080000020F9480079022825DDCC
:1059F000F8480078401CF74908701FE0F448007927
:105A0000022818D1F448016841F63800814212D8C2
:105A10000120F24991ED000A09F0D9FCEE4890ED21
:105A2000000AB8EE400AF2EE040A80EE201AEC48B2
:105A300080ED001A02E0012009F0BFFC01220021E4
:105A4000062009F046F946E0E6480078012829D109
:105A5000DF480079032818D1DF480068B0F57A7F65
:105A600013D8DD480068B0F5117F0ED30120DB4963
:105A700091ED000A09F0ABFCD74890ED000AB8EEB2
:105A8000400AD74880ED000A23E0012009F092FD8A
:105A9000CF48007903281CDACE480078401ECD4953
:105AA000087016E0CC480068B0F57A7F0ED8012067
:105AB000CA4991ED000A09F08AFCC74890ED000A36
:105AC000B8EE400AC64880ED000A02E0012009F065
:105AD00074FC00E000BF00BFC14890ED000AF3EE87
