:020000040800F2
:10000000C0780020B5AA0008358F0008378F000897
:100010003B8F00083F8F0008438F0008000000005E
:10002000000000000000000000000000478F0008F2
:10003000498F0008000000004B8F00084D8F00081A
:10004000CBAA0008CBAA0008CBAA0008CBAA0008BC
:10005000CBAA0008CBAA0008CBAA0008CBAA0008AC
:10006000FD910008CBAA0008CBAA0008CBAA000883
:10007000CBAA0008CBAA0008CBAA0008CBAA00088C
:10008000CBAA0008CBAA0008CBAA0008CBAA00087C
:10009000CBAA0008CBAA0008CBAA0008159200083A
:1000A000CBAA0008CBAA0008CBAA0008CBAA00085C
:1000B000D590000849920008B5940008CBAA000822
:1000C000CBAA0008CBAA0008CBAA0008CBAA00083C
:1000D000CBAA0008D7900008A7910008CBAA000877
:1000E000CBAA0008CBAA0008CBAA00084D940008B0
:1000F0008F940008739400080000000000000000C6
:1001000000000000000000006F8F0008CBAA00086C
:100110000000000000000000CBAA0008CBAA0008E5
:10012000CBAA0008CBAA00084F8F0008CBAA000872
:10013000CBAA00081F950008CBAA0008CBAA00088C
:10014000CBAA000800000000000000000000000032
:10015000000000000000000000000000000000009F
:100160000000000000000000CBAA0008CBAA000895
:10017000CBAA000800000000CBAA00080000000085
:1001800000000000CBAA0008DFF80CD013F0C6FD79
:10019000004800474B020008C078002010B509F065
:1001A0008CFA10BD10B50024FFF7F8FF0FF044FEE5
:1001B0000DF0FEF90DF0F6F910F0A4FA10F0D1FAF6
:1001C00010F009FB0FF005FF12F079F84FF416500C
:1001D00012F03DFB14200DF028FA12F0CEF904467F
:1001E00012F092F912F033F910F09FFF12F098FB21
:1001F00012F0F3FB12F098FC12F028FC4FF4AF6001
:1002000012F054FC12F0B8FB0FF096FF284908706A
:100210000846007805280DD10F20087001202549D7
:10022000087010F09EFA012010F0D4FE4FF4FA602E
:100230000DF0FBF92048006820F470701E4908603A
:1002400001211E480BF08CFC10BDFFF7ABFF2DE029
:100250001B480078012816D1002019490870194858
:100260000088401C174908800846008841F2883100
:10027000884203D0144800780B2804D10DF002FA0C
:1002800000201049088011480078012803D0104848
:100290000078012804D100200A49088000F044FBBE
:1002A00000F01CF903F07CF80AF0C6FAD0E7000071
:1002B0003805002000000020000401400004004038
:1002C0006E050020020000203605002031050020C8
:1002D00032050020F84890ED000AF84880ED000A49
:1002E000F74890ED000AF74880ED000AF64890EDD7
:1002F000000AF64880ED000AF54890ED000AF5483E
:1003000080ED000A9FEDF40AEB4880ED000A9FEDB6
:10031000F20AEB4880ED000A9FEDEF0AEA4880ED13
:10032000000A9FEDED0AEA4880ED000A9FEDEA0A17
:10033000EA4880ED000A9FEDE80AE94880ED000AEE
:100340009FEDE50AE74880ED000A9FEDE30AE648E5
:1003500080ED000A9FEDE00AE44880ED000A704756
:1003600010B5E3480078072817DC12F01AFC0121C9
:10037000E0480BF012F90121DF480BF00EF90121E2
:10038000DE480BF0EDFB0121DD480BF0E9FB01221B
:100390001021DB480BF093FF22E0D54800780828B5
:1003A0001EDBD34800780F281AD012F001FC002180
:1003B000D0480BF0F2F80021CF480BF0EEF8002106
:1003C000CE480BF0CDFB0021CD480BF0C9FB00223D
:1003D0001021CB480BF073FF1021C9480BF097FF99
:1003E00010BD10B5C2480078801F052871D2DFE823
:1003F00000F0032529415200C248007820B10128AD
:1004000006D002280CD107E0042011F0A4FE08E079
:10041000032011F0A0FE04E0042011F09CFE00E097
:1004200000BF00BFB8480078032803DA012012F0AB
:10043000B3F902E0002012F0AFF94BE0042011F014
:100440008AFE47E0AF48007810B101280FD103E0E1
:10045000052011F080FE0BE0AC48007818B90420AC
:1004600011F079FE02E0042011F075FE00E000BFFB
:1004700000BF2FE0A348007810B1012808D103E0A5
:10048000092011F068FE04E00A2011F064FE00E08B
:1004900000BF00BF1EE09B48007830B1012808D0A3
:1004A00002280AD0032810D10BE0072011F053FED8
:1004B0000CE00B2011F04FFE08E0132011F04BFE72
:1004C00004E0132011F047FE00E000BF00BF01E090
:1004D000FFE700BF00BFFFF743FF10BD10B58C481A
:1004E0000078002875D182480078801F052871D2D5
:1004F000DFE800F0031527475E00632010F0EEFEF2
:10050000BCEEC00A10EE100A82490870602010F09C
:10051000E5FE814880ED000A0EF0BDF87AE0632028
:1005200010F0DCFEBCEEC00A10EE100A794908702B
:10053000602010F0D3FE784880ED000A0EF0ABF892
:1005400068E07248007830B9602010F0C7FE724849
:1005500080ED000A14E06D480078012806D1612082
:1005600010F0BCFE6C4880ED000A09E06748007896
:10057000022805D1622010F0B1FE684880ED000A23
:1005800048E06048007810B101280ED106E06020F4
:1005900010F0A4FE604880ED000A07E0602010F033
:1005A0009DFE5D4880ED000A00E000BF00BF31E025
:1005B0005448007830B101280DD0022812D0032809
:1005C00024D116E0602010F089FE534880ED000A27
:1005D0001DE020E01DE0602010F080FE4E4880ED20
:1005E000000A14E0602010F079FE4B4880ED000A0C
:1005F0000DE0602010F072FE9FED491ADFED490A10
:1006000040EE010A4448C0ED000A00E000BF00BF10
:1006100000E000BF00BF10BD10B54348007810B126
:1006200001280CD105E0002202211D2010F025F840
:1006300006E0012202211D2010F01FF800E000BF9B
:1006400000BF10BD10B53948007820B101280DD089
:10065000022821D115E0002211460A2010F00DF8E1
:10066000002201210A2010F008F816E000221146AD
:100670000A2010F002F8012211460A200FF0FDFFB7
:100680000BE0012200210A200FF0F7FF00220121D8
:100690000A200FF0F2FF00E000BF00BF10BD10B550
:1006A0002348007810B101284AD143E000221146C6
:1006B00009200FF0E2FF44E040040020A0000020E9
:1006C000F4040020A400002044040020A80000201E
:1006D000F8040020AC000020000000009000002082
:1006E000880000208C000020780000207C00002082
:1006F000360500200060014000640140005C0140BC
:10070000000C0040080000200E0000200F00002018
:10071000100000209D000020480500204C0500200E
:100720006666E63F00000042090000200A00002043
:100730000C0000200122002109200FF09EFF00E0A4
:1007400000BF00BF10BD10B5FB48007801280AD1DA
:10075000012202211C200FF090FF002203211C2007
:100760000FF08BFF09E0002202211C200FF085FF13
:10077000012203211C200FF080FF10BDF0EE400A83
:10078000012826D1ED49097821B1012903D0022998
:100790001DD10EE01CE0EA4991ED000AF4EEC00A1A
:1007A000F1EE10FA01DDC1ED000AE54991ED000A14
:1007B0007047E44991ED000AF4EEC00AF1EE10FA38
:1007C00001D2C1ED000ADF4991ED000AF0E700BF58
:1007D00028E0022826D1D949097821B1012903D07E
:1007E00002291DD10EE01CE0D74991ED000AF4EE7C
:1007F000C00AF1EE10FA01DDC1ED000AD24991ED17
:10080000000AD5E7D14991ED000AF4EEC00AF1EEF5
:1008100010FA01D2C1ED000ACC4991ED000AC7E7F8
:1008200000BF00BFB0EE600AC2E7F0EE400A012848
:1008300005D1C74991ED000A30EEC00A7047022881
:1008400005D1C44991ED000A30EEC00AF6E700BFB9
:10085000F4E700B5B0EE401A0246B848007828B177
:100860001046B0EE410AFFF789FF00BDBA48007894
:1008700028B11046B0EE410AFFF7D7FFF5E7B0EE1A
:10088000410AF2E700B5F0EE401A03461846B0EE12
:10089000610AFFF7DEFF9FEDB11AC0EE010AB0EE6C
:1008A000600A00BD10B5B0EE402A04462046B0EE06
:1008B000420AFFF7E7FF9FEDA91AC0EE010AB0EE6A
:1008C000600A10BD10B5912300224121502010F084
:1008D000A3FC502010F0D4FCA14908700846007811
:1008E000012820D1002008705121084610F094FC06
:1008F000512010F0C5FC9A4908700846007801287C
:1009000011D1002008709748407800F0080028B105
:10091000012203211D200FF0B0FE04E0002203217C
:100920001D200FF0AAFE10BD10B58F4800780128D9
:1009300056D1FFF7CFFC00208B49087011F0DFFC87
:1009400000208A4908707D490870894908708249E9
:100950000870884908708849087088490870884973
:10096000087088490870002404E000208649085572
:10097000601CC4B2102CF8DB84480078801F052866
:1009800026D2DFE800F0030B13191F0024207E4954
:10099000887308200873802088721AE004207A493E
:1009A0008873112048730420C87212E0052076492C
:1009B0008873082008730CE0012073490870202018
:1009C000087306E02020704908730420887300E053
:1009D00000BF00BF0FF0E3FEFFF71EFEFFF701FDB3
:1009E0006B480078012842F0DA846A4800780528CC
:1009F00005D068480078012801D0FFF76BFC002083
:100A00006349087011F07BFC60480078801F05285E
:100A100082F03584DFE810F005009E05BC0B940FD2
:100A2000C0105D48007801282CD155480078012875
:100A300028D158480078032824D056480078052843
:100A400020D050480078E8B90020534908704C493C
:100A500008700FF086FE012211461D200FF00DFEDA
:100A6000012202211C200FF008FE01220321182080
:100A70000FF003FE0122032115200FF0FEFD0020E0
:100A80004649087043480078062853D2DFE800F052
:100A900003C1EEEDECEB4048007801284BD134481F
:100AA00000780028FAD1334800780028F6D133487E
:100AB00000780028F2D13348007800283BD11F4944
:100AC0000870254908702C4908702D4908700120CC
:100AD000194908700FF045FE2448007820B101281C
:100AE00006D002280CD107E001202049087008E058
:100AF00002201E49087004E000201C49087000E034
:100B000000BF00BF1948007820B1012848D0022852
:100B100076D15AE0012211461D200FF0AEFD0122D0
:100B2000032118200FF0A9FD0122032115200FF049
:100B3000A4FD66E0F1E36BE0130000200A00002052
:100B40001C0000202000002024000020280000209D
:100B50002C000020300000200C00002000007A440F
:100B600043050020A070002031050020080000206F
:100B70000B0000200D0000200E0000200F000020C0
:100B80001200002010000020907000203605002088
:100B90003205002038050020330500203C040020E9
:100BA000012200211C200FF068FD002201211D20E0
:100BB0000FF063FD0122032118200FF05EFD0122DA
:100BC000032115200FF059FD1BE0012200211C20FC
:100BD0000FF053FD012200211D200FF04EFD0122D8
:100BE00011461D200FF049FD0122032118200FF0AE
:100BF00044FD0122032115200FF03FFD01E0FFE736
:100C000000BF00BFFFF71EFDFFF749FDFFF79BFD8B
:100C100046E2FC480078012856D1FB4800780028BD
:100C200052D1FA48007800284ED1F94800780028BF
:100C30004AD1F4490870F7490870F7490870F74835
:100C4000007820B1012806D0022810D107E0012049
:100C5000F24908700CE00220F049087008E000201A
:100C6000EE49087004E0DDE3FFE21AE2DDE000BFD8
:100C700000BFFFF7E7FCFFF712FDE8480078012806
:100C800058D1E748007800BBE64890ED000AE648F6
:100C9000D0ED000A30EE600AE44880ED000A90EDE5
:100CA000000AE34880ED000AE24890ED000AE248BD
:100CB000D0ED000A30EE600AE04880ED000A90EDC9
:100CC000000ADF4880ED000A34E0D54800780128AA
:100CD00016D1D54890ED000AD44880ED000A90ED79
:100CE000000AD34880ED000AD34890ED000AD348AB
:100CF00080ED000A90ED000AD14880ED000A19E06D
:100D0000C7480078022815D1C64890ED000AC748A8
:100D100080ED000A90ED000AC54880ED000AC54844
:100D200090ED000AC54880ED000A90ED000AC44825
:100D300080ED000AB3480078012820D1B24800783D
:100D4000E8B1B3480078D0B90020AE490870B14985
:100D50000870B2480078012802D0022808D103E0C8
:100D60000220AE49087004E00120AC49087000E0A0
:100D700000BF00BFFFF766FCFFF791FC54E0B148ED
:100D80000078012850D1A1480078E8BBAE4800782F
:100D9000D0BBA1480078B8BB9D480078A0BB00201C
:100DA000A84908709B4908709C48007868B9964823
:100DB000007850B9012094490870984908700122C0
:100DC000114609200FF059FC0CE08F48007848B11B
:100DD00000208D49087091490870002201210920E6
:100DE0000FF04BFCFFF72EFCFFF759FC864800780C
:100DF000012819D1954890ED000A8C4880ED000A31
:100E0000934890ED000A00E00EE0894880ED000A6A
:100E1000904890ED000A894880ED000A8E4890EDD8
:100E2000000A874880ED000A91E37648007801289F
:100E300065D175480078E0BB74480078C8BB744839
:100E40000078B0BB00206F4908707449087072497F
:100E500008707048007810B1012808D103E0012023
:100E60006C49087004E000206A49087000E000BF87
:100E700000BFFFF714FCFFF7E5FB66480078002889
:100E80001AD067480078C0B9744890ED000A7448D9
:100E9000D0ED000A30EE600A724880ED000A724818
:100EA00090ED000A7148D0ED000A30EE600A7048FB
:100EB00000E024E080ED000AF2E0594800780128C3
:100EC0000CD1674890ED000A664880ED000A67483B
:100ED00090ED000A664880ED000AE1E05048007895
:100EE00002280BD15D4890ED000A5E4880ED000AB3
:100EF0005D4890ED000A5E4880ED000AD0E0514860
:100F00000078012849D140480078002845D14E4852
:100F10000078002841D14048007800283DD13C4865
:100F20000078D0BB0020474908703C490870394917
:100F30000870504908704449087001204E490870F3
:100F400000204E4908703148007810B1012808D1BE
:100F500003E001202D49087004E000202B490870AF
:100F600000E000BF00BF2948007810B1012848D137
:100F700014E0002203211B200FF07FFB012203213C
:100F800018200FF07AFB0122032115200FF075FBCA
:100F900000213B480AF0E4FD7BE081E000220221D1
:100FA00010460FF06AFB002202210A200FF065FBB9
:100FB000012203211B200FF060FB002203211820D7
:100FC0000FF05BFB0022032115200FF056FB0120E0
:100FD0000FF0BBFF02200FF0B8FF012128480AF0F4
:100FE000BFFD0020274908800021084609F092FD36
:100FF000102125480BF08BF9012124480AF0B0FD9F
:1010000047E045E0330500200B0000200D000020E4
:10101000100000200C000020120000200A00002018
:101020000800002040040020F40400201C000020E0
:101030002000002044040020F804002024000020A8
:1010400028000020340500200F000020500400205C
:1010500058040020540400205C040020A00000205C
:10106000A40000202C000020A8000020AC000020DC
:10107000300000200E00002013000020140000208B
:101080000020004054050020000C0040005C01409E
:1010900000BF00BFFFF703FBFFF7D4FAFFF753FBD6
:1010A00055E2F7480078012878D1F6480078D8BB97
:1010B000F5480078C0BBF5480078A8BBF448007834
:1010C00090BBF448007878BB0020ED490870F249E5
:1010D0000870F2490870F2480078012812D1002007
:1010E000EF4908705B21084610F096F85B2010F07D
:1010F000C7F8EC49087008460078012847D100205D
:10110000087044E0E848007806283ED2DFE800F0A6
:10111000030D16202A340120E349087011F033F83A
:10112000012011F039FB31E038E00220DE4908707F
:1011300011F029F8012011F02FFB27E00320DA49F4
:101140000870002011F01FF8002011F025FB1DE0B1
:101150000420D5490870012011F015F8002011F085
:101160001BFB13E00520D0490870022011F00BF89A
:10117000002011F011FB09E00020CB49087011F0AC
:1011800002F8012011F008FB00E000BF00BFFFF7EC
:10119000DAFAFFF784FAFFF755FA65E0B848007805
:1011A000012834D1BA480078012830D1B9480078F4
:1011B00068BB0020B2490870BC49087001200FF0DC
:1011C000CDFEB948007810B1012808D103E0012014
:1011D000B549087004E00020B349087000E000BF82
:1011E00000BFB148007810B101280ED106E00321FC
:1011F00002209FEDAF0A0FF07AFB07E004210220E6
:101200009FEDAC0A0FF073FB00E000BF2CE0AA4892
:101210000078012828D19B48007828BB9D48007899
:1012200010BB0020A44908709D48007801281BD0FD
:1012300001209B4908705A2108460FF0EDFF5A2003
:1012400010F01EF89749087008460078012801D16F
:1012500000200870012202211C200FF00EFA00224B
:1012600003211C200FF009FA71E18548007801285C
:101270003CD184480078C8BB83480078B0BB85481F
:10128000007898BB00207E49087083490870834924
:101290000870854908700120814908700FF061FAD3
:1012A0007A48007830B1012808D002280AD00328F3
:1012B00010D10BE00120754908700CE00220734941
:1012C000087008E003207149087004E000206F49AD
:1012D000087000E000BF00BF6C48007838B10128FA
:1012E00010D002281AD0032829D122E056E001228A
:1012F000032118200FF0C1F90122032115200FF05E
:10130000BCF91DE00122002113200FF0B6F90122E3
:10131000002115200FF0B1F912E017E101220021A0
:1013200013200FF0AAF90122002114200FF0A5F9D3
:1013300006E00122114616200FF09FF900E000BFE1
:1013400000BF5E48007820B1012808D002281CD1D7
:101350000BE0012211461D200FF08FF916E001224B
:1013600000211C200FF089F910E0012200211C202F
:101370000FF083F9012200211D200FF07EF90122D8
:1013800011461D200FF079F900E000BF00BFFFF704
:1013900059F9FFF784F9FFF7D6F942E0464800789B
:1013A00001283ED137480078D8BB37480078C0BB09
:1013B00036480078A8BB3648007890BB354800789E
:1013C00078BB00203C4908703349087033490870E5
:1013D000354908702D49087001202D4908703049A1
:1013E00008700FF0BEF90122022117200FF045F915
:1013F000012200211A200FF040F9012203211520BB
:101400000FF03BF901200FF0A9FD032102209FED11
:10141000280A0FF06CFAFFF742F9FFF713F9FFF70C
:1014200092F994E026480078012818D125480078E0
:10143000062813D12148007801280FD122490870CD
:10144000002010F05CFF4FF47A700CF0EEF80020F2
:1014500010F055FF4FF47A700CF0E7F875E008488B
:10146000007801284CD1002005490870094800780F
:1014700010B101282ED129E00120064908702AE088
:10148000330500200B0000200D0000200F0000207D
:1014900012000020100000200A0000200C00002094
:1014A00013000020430500200E0000203C04002013
:1014B000000016440000FA44340500200800002013
:1014C0000000002036050020150000200020FD4906
:1014D000087000E000BF00BFFA48007810B1012892
:1014E0000CD105E0002201211C200FF0C6F806E017
:1014F000012211461C200FF0C0F800E000BF24E0DC
:10150000F1480078012820D10020EF490870EF4809
:10151000007810B1012808D103E00120EB490870E0
:1015200004E00020E949087000E000BF00BFE74880
:10153000007810B1012806D102E010F004FF03E0AA
:1015400010F008FF00E000BF00BF00E000BF00BFD8
:1015500001F096BEDE48007806287CD2DFE800F075
:1015600003C1FCFBFAF9DB480078012861D1DA48B5
:101570000078D0BBD9480078B8BBD2480078A0BB6F
:101580000020D7490870D7490870D7490870D74854
:10159000007820B1012806D002280CD107E00120F4
:1015A000D249087008E00220D049087004E0002009
:1015B000CE49087000E000BF00BFCC48007820B1E1
:1015C000012813D002282CD120E00022012117206D
:1015D0000FF053F8012200211A200FF04EF80122DB
:1015E00000211B200FF049F81CE022E000221146E8
:1015F0001A200FF042F8002211461B200FF03DF890
:101600000122002119200FF038F80BE000221146CA
:1016100019200FF032F80122114617200FF02DF893
:1016200000E000BF00BFFFF70DF8FFF738F8FFF745
:101630008AF8A8480078012852D1A748007888B3D2
:10164000A048007870BBA948007828B1012807D0CD
:1016500002280DD108E0F0E30120A449087008E059
:101660000220A249087004E00020A049087000E0B0
:1016700000BF00BF9D48007820B1012813D0022888
:101680002CD120E00022012117200EF0F6FF0122CC
:1016900000211A200EF0F1FF012200211B200EF084
:1016A000ECFF1CE01CE0002211461A200EF0E5FFC2
:1016B000002211461B200EF0E0FF0122002119201C
:1016C0000EF0DBFF0BE00022114619200EF0D5FFD3
:1016D0000122114617200EF0D0FF00E000BF00BF2E
:1016E00087E37C480078012837D17B480078A0BB8D
:1016F0007448007888BB00207649087079490870E2
:101700007748007820B1012806D002280CD107E0E4
:1017100001207349087008E002207149087004E054
:1017200000206F49087000E000BF00BFFEF78AFF8D
:10173000FEF7B5FF6A480078012870D16748007845
:1017400080BB6A48007848B1012813D002282AD10A
:101750001CE0F8E34FE34DE369E1A3E0644890ED5A
:10176000000A644880ED000A90ED000A624880EDAE
:10177000000A19E0614890ED000A5E4880ED000A19
:1017800090ED000A5C4880ED000A0DE05C4890EDA9
:10179000000A584880ED000A90ED000A564880ED96
:1017A000000A01E03EE000BF00BF5648007830B1BB
:1017B000012810D002281AD0032831D123E0524842
:1017C00090ED000A514880ED000A90ED000A504863
:1017D00080ED000A25E04F4890ED000A4B4880ED6F
:1017E000000A90ED000A4A4880ED000A19E04A48D4
:1017F00090ED000A454880ED000A90ED000A44484B
:1018000080ED000A0DE0454890ED000A3F4880ED6C
:10181000000A90ED000A3E4880ED000A01E040E039
:1018200000BF03E12D48007801283AD135480078FF
:1018300030B1012810D002281AD0032830D123E07B
:10184000374890ED000A2B4880ED000A90ED000A21
:10185000294880ED000A24E0324890ED000A25482E
:1018600080ED000A90ED000A234880ED000A18E0A0
:101870002D4890ED000A1F4880ED000A90ED000A07
:101880001D4880ED000A0CE0284890ED000A194838
:1018900080ED000A90ED000A174880ED000A00E094
:1018A00000BFC3E008480078012841D10C48007807
:1018B000F0BB04480078D8BB0020034908700949F0
:1018C000087036E0100000203405002011000020D0
:1018D00038050020330500200B00002012000020F6
:1018E0000A0000200C0000200E000020080000204C
:1018F000680400201C000020200000206C04002050
:10190000700400200F000020840400202400002028
:101910002800002088040020A00400209C0400204F
:1019200074040020780400207C040020800400203F
:101930007CE0F9490870F94908700EF012FFF84888
:10194000007810B1012808D103E00120F4490870A3
:1019500004E00020F249087000E000BF00BFF0483A
:10196000007810B101285BD12AE0EE48007820B160
:1019700001280DD0022817D110E0012200211A20E1
:101980000EF07BFE012200211B200EF076FE0CE003
:101990000122002119200EF070FE06E001221146FE
:1019A00017200EF06AFE00E000BF00BF01220221F6
:1019B00016200EF062FE0021DB480AF0D1F830E07C
:1019C0000122032109200EF058FE012200210B20E4
:1019D0000EF053FED348007820B101280DD0022824
:1019E00017D110E0012200211A200EF046FE01223C
:1019F00000211B200EF041FE0CE0012200211920E5
:101A00000EF03BFE06E00122114617200EF035FED7
:101A100000E000BF00BF0121C3480AF0A1F800E0C8
:101A200000BF00BFFEF73BFEFEF78DFEAEE3BF48F2
:101A30000078012833D1BA48007880BBBC480078D0
:101A400068BB0020B9490870BA490870BA480078E4
:101A500010B1012808D103E00120B749087004E063
:101A60000020B549087000E000BF00BFFEF717FE78
:101A7000FEF7E8FDB048007888B1B048007880BB38
:101A8000A848007820B101280AD0022816D10EE01B
:101A9000AB4890ED000AAB4880ED000A0FE064E02F
:101AA000A94890ED000AA74880ED000A07E0A74882
:101AB00090ED000AA34880ED000A00E000BF00BFDF
:101AC0009548007830B101280CD0022811D00328A5
:101AD0001DD115E09E4890ED000A9E4880ED000A59
:101AE00016E016E09C4890ED000A9A4880ED000A46
:101AF0000EE09A4890ED000A964880ED000A07E053
:101B0000974890ED000A934880ED000A00E000BF7E
:101B10002BE08A480078012827D17F48007830B12F
:101B200001280BD0022810D003281CD114E08D48C6
:101B300090ED000A834880ED000A15E08A4890ED98
:101B4000000A804880ED000A0EE0884890ED000A07
:101B50007C4880ED000A07E0854890ED000A79484E
:101B600080ED000A00E000BF00BF70480078012847
:101B70003CD16B480078012838D16D480078A8BB6B
:101B800066480078072878D2DFE800F0041A317838
:101B90007C808400012061490870694890ED000A4A
:101BA000744880ED000A684890ED000A724880EDA4
:101BB000000A664890ED000A704880ED000A6EE069
:101BC0000220564908705E4890ED000A6C4880ED8E
:101BD000000A5D4890ED000A6A4880ED000A5B4803
:101BE00090ED000A684880ED000A58E0EDE003201F
:101BF0004A490870524890ED000A644880ED000A96
:101C0000514890ED000A624880ED000A4F4890ED7F
:101C1000000A604880ED000A564890ED000A5848D6
:101C2000D0ED000A30EE200A5848D0ED000A30EE20
:101C3000200A594880ED000A4F4890ED000A5148AB
:101C4000D0ED000A30EE200A5148D0ED000A30EE07
:101C5000200A524880ED000A484890ED000A4A48A0
:101C6000D0ED000A30EE200A4A48D0ED000A30EEEE
:101C7000200A4B4880ED000A11E00FE004202749BC
:101C800008700CE005202549087008E0062023496B
:101C9000087004E003202149087000E000BF00BF85
:101CA0001E480078072836D2DFE800F004050B1143
:101CB0002A7C870088E00022032109200EF0DDFC49
:101CC00082E0002203210A200EF0D7FC7CE00022F3
:101CD000022109200EF0D1FC002201210B200EF080
:101CE000CCFC0122032109200EF0C7FC01220021B7
:101CF0000B200EF0C2FC00210B4809F031FF63E01D
:101D00000022032109200EF0B8FC012203210A2041
:101D10000EF0B3FC58E056E00F0000200D0000204C
:101D20000B000020080000200020004033050020A8
:101D3000100000200A0000200C00002012000020EB
:101D4000680400202C0000206C0400207004002097
:101D5000840400203000002088040020A00400201B
:101D60009C04002074040020780400207C040020DF
:101D7000800400203C00002040000020440000209F
:101D8000480000204C00002050000020540000209B
:101D9000580000205C00002060000020640000204B
:101DA00068000020002203210A200EF066FC0122B8
:101DB00011460B200EF061FC06E0012202210920F1
:101DC0000EF05BFC00E000BF13E0FE480078012845
:101DD0000FD1FD48007860B9FC48007848B9002070
:101DE000F849087001200FF0A6F84FF47A700BF054
:101DF0001CFCCBE1CAE1F648007801286BD1F2481F
:101E0000007878BBF348007860BBF048007848BBA6
:101E10000020EF490870F048007830B1012808D060
:101E200002280BD0032811D10CE00120EA490870E8
:101E30000DE00220E849087009E0A6E10320E64928
:101E4000087004E00020E449087000E000BF00BF13
:101E5000E148007838B1012815D0022819D00328AC
:101E600037D12BE037E00022114613200EF005FC9D
:101E70000022114614200EF000FC0122022116203F
:101E80000EF0FBFB26E00122032116200EF0F5FBED
:101E900020E00022032116200EF0EFFB0022022199
:101EA00016200EF0EAFB0122002113200EF0E5FBC4
:101EB0000122002115200EF0E0FB0BE0002211466C
:101EC00015200EF0DAFB0122002114200EF0D5FBC4
:101ED00000E000BF07E1BE480078012834D1BD48CA
:101EE0000078012830D1B948007868BB0020B84993
:101EF0000870BA490870BA490870B748007830B11C
:101F0000012808D002280AD0032810D10BE00120B4
:101F1000B14908700CE00220AF49087008E00320C6
:101F2000AD49087004E00020AB49087000E000BF34
:101F300000BFA948007840B101281BD0022829D051
:101F4000032856D140E0CFE05CE0012200210820C8
:101F50000EF093FB0122002119200EF08EFB0122CE
:101F6000002118200EF089FB0022032117200EF01B
:101F700084FB3FE0012200211A200EF07EFB0122AB
:101F800000211B200EF079FB0022114619200EF0D3
:101F900074FB2FE00122022118200EF06EFB0122BB
:101FA000114617200EF069FB0022114608200EF0A2
:101FB00064FB002211461A200EF05FFB002211463E
:101FC0001B200EF05AFB15E00122032117200EF012
:101FD00054FB0022022118200EF04FFB00220121A9
:101FE00017200EF04AFB0022114618200EF045FB88
:101FF00000E000BF00BFFEF725FBFEF750FBFEF739
:10200000A2FB70E06F48007801286CD16E48007820
:1020100080BB6E48007868BB00206A49087071492F
:1020200008706E4908706E4908706F4908706A49F7
:1020300008706E4908809FED6E0A6E4880ED000AB8
:102040009FED6B0A6C4880ED000A9FED690A6B48B2
:1020500080ED000A0EF085FB5E48007810B1012883
:1020600009D103E001205B49087005E000205949CF
:10207000087001E037E000BF00BF5648007810B19B
:10208000012828D113E0012200211A200EF0F5FAD0
:10209000012200211B200EF0F0FA0122022116205D
:1020A0000EF0EBFA0021564809F05AFD14E0012227
:1020B000002108200EF0E1FA0122002119200EF083
:1020C000DCFA0122002118200EF0D7FA01214C4839
:1020D00009F046FD00E000BF00BFFEF7B3FAFEF7CF
:1020E000DEFAFEF730FB51E039480078012826D1AE
:1020F0000020374908703548007810B1012808D110
:1021000003E001203149087004E000202F490870E5
:1021100000E000BF00BF2D48007810B101280CD1AD
:1021200005E0002201211C200EF0A7FA06E00122A2
:1021300011461C200EF0A1FA00E000BF24E0214867
:102140000078012820D100201E4908702D48007811
:1021500010B1012808D103E001202A49087004E0E9
:1021600000202849087000E000BF00BF2548007823
:1021700010B1012806D102E010F0E5F803E010F0FC
:10218000E9F800E000BF00BF00E000BF00BFD6E3F9
:102190001D480078062875D2DFE800F00375BBFE05
:1021A000FDFC0B48007801286BD10B48007868BB18
:1021B0000648007850BB002008490870084908709C
:1021C000094924E0340500200B0000201000002005
:1021D00033050020120000200F0000200A0000201C
:1021E0000C000020080000200E0000206A050020DE
:1021F0000000000074040020780400207C0400200B
:1022000000180040110000203805002039E0087057
:102210000120F84908700EF0A4FAF748007810B1D0
:10222000012808D103E00120F349087004E00020F0
:10223000F149087000E000BF00BFEF48007810B11E
:10224000012816D10AE0012200211C200EF015FA07
:102250000122032118200EF010FA0BE00122114692
:102260001D200EF00AFA0122032118200EF005FAB3
:1022700000E000BF00BFFEF7E5F9FEF710FAFEF739
:1022800062FA5BE359E3DD480078012840D1DC487D
:10229000007888BB0020D9490870DA490870DA480C
:1022A000007820B1012806D002280CD107E00120D7
:1022B000D549087008E00220D349087004E00020E6
:1022C000D149087000E000BF00BFFEF7BBF9FEF780
:1022D000E6F9CD48007801281AD1CC4800780228C8
:1022E0000BD0CB4890ED000ACA4880ED000A90ED73
:1022F000000AC94880ED000A0AE0C84890ED000ACB
:10230000C74880ED000A90ED000AC64880ED000A3B
:1023100014E3BA48007801287AD1B9480078E0BBC4
:102320000020B6490870B8490870B648007810B166
:10233000012808D103E00120B249087004E0002020
:10234000B049087000E000BF00BFFEF7A8F9FEF733
:1023500079F9AC48007800B3AC480078F0BBA648E7
:102360000078F0B9B048B149097800EB810090EDF0
:10237000000AA748D0ED000A30EEC00AAA4814307F
:10238000AA49097800EB8100D0ED000A20EE200A6E
:10239000A74803E0DFE18BE13BE023E080ED000AAA
:1023A00036E095480078012832D19F489F49097846
:1023B000491C00EB810090ED000A9548D0ED000A21
:1023C00030EEC00A9848143098490978491C00EB4F
:1023D0008100D0ED000A20EE200A00E003E09448DE
:1023E00080ED000A14E089480078012806D1884869
:1023F00090ED000A8E4880ED000A09E083480078DD
:10240000022805D1824890ED000A8A4880ED000A32
:1024100094E27A480078012838D17C480078A8BB3B
:102420007748007890BB002074490870764908709E
:10243000744908707048007810B101287FD141E0DC
:102440006C480078012812D100206A4908705B218D
:1024500008460EF0E1FE5B200EF012FF7649087090
:102460000846007801282CD10020087029E06F4828
:102470000078052823D2DFE800F0030A10161C00BC
:1024800001206A4908700FF07EFE19E060E002202A
:10249000664908700FF077FE12E003206349087068
:1024A0000FF071FE0CE00420604908700FF06BFE25
:1024B00006E000205D4908700FF065FE00E000BFF7
:1024C00000BF3DE04B480078012812D10020494967
:1024D00008705B2108460EF09FFE5B200EF0D0FED8
:1024E0005549087008460078012827D10020087057
:1024F00024E04E48007830B101280AD002280FD0DD
:10250000032819D112E00120484908700FF03BFE62
:1025100013E00220454908700FF035FE0DE00EE093
:102520000320424908700FF02EFE06E000203F49CC
:1025300008700FF028FE00E000BF00BF00E000BF01
:1025400000BFFEF700F9FEF7AAF8FEF77BF8AEE051
:102550002A480078012839D12C48007801287CD1FC
:102560002748007890BB002024490870264908704D
:10257000244908701F480078012812D100201D4905
:1025800008705B2108460EF047FE5B200EF078FED7
:102590002949087008460078012857D100200870A2
:1025A00054E02248007806284ED2DFE800F0030904
:1025B00010161C4701201D4908700FF0E4FD44E08F
:1025C00002201A4908700FF0DEFD3EE045E00320CE
:1025D000164908700FF0D7FD37E004201349087042
:1025E0000FF0D1FD31E00520104908700FF0CBFD50
:1025F0002BE000001300002008000020330500201D
:10260000100000200C0000200A0000200F00002015
:10261000480500201C000020200000204C05002060
:102620002400002028000020187000200E00002048
:102630002C00002030000020430500200020F74936
:1026400008700FF0A0FD00E000BF00BFFEF77BF8B0
:10265000FEF725F8FDF7F6FF29E0F148007801289C
:1026600025D1F048007810BB0020ED490870EE48F5
:10267000007801281BD00120EB4908705A21084638
:102680000EF0CAFD5A200EF0FBFDE849087008461E
:102690000078012801D100200870012202211C20AD
:1026A0000DF0EBFF002203211C200DF0E6FF45E1B9
:1026B000DF48007801284DD1DE480078012849D153
:1026C000D848007888BB0020DB490870DB490870D7
:1026D000D24908700EF045F8D948007820B1012899
:1026E00006D002280CD107E00120D549087008E087
:1026F0000220D349087004E00020D149087000E0AE
:1027000000BF00BFCE48007828B90122032118205D
:102710000DF0B3FF13E0CA480078012806D101226A
:10272000114618200DF0A9FF09E013E0C448007815
:10273000022804D10122114614200DF09EFF01222F
:1027400011461D200DF099FFFDF77CFFFDF7A7FF57
:10275000FDF7F9FFF2E0BB480078012877D1AF48D8
:10276000007804284AD1B84890ED000ADFEDB70A96
:10277000B4EEE00AF1EE10FA1ED2B548A749097886
:1027800000EB810090ED000AAF48D0ED000A80EE2A
:10279000801AAF481438A149097800EB810090ED08
:1027A000000A31EE000AAA4814389C49097800EB67
:1027B000810080ED000A6CE0A34890ED000ADFED97
:1027C000A50AB4EEE00AF1EE10FA62DDA0489349E2
:1027D000097800EB810090ED000ADFED9F0A20EE02
:1027E000200A9948D0ED000A80EE201A98488B49BB
:1027F000097800EB810080ED001A4AE0924890EDE4
:10280000000ADFED950AB4EEE00AF1EE10FA1FD2ED
:102810008F488249097800EB810090ED000A8A48D0
:10282000D0ED000A80EE801A894814387B49097877
:1028300000EB810090ED000A31EE000A8448143864
:102840007649097800EB810080ED000A21E023E061
:102850007D4890ED000ADFED810AB4EEE00AF1EE6A
:1028600010FA16DD7A486D49097800EB810090ED89
:10287000000ADFED7B0A20EE200A7348D0ED000A43
:1028800080EE201A72486549097800EB810080EDDE
:10289000001A0DF075F94FE065480078012826D13F
:1028A0000020634908705F48007810B1012808D102
:1028B00003E001205B49087004E0002059490870DA
:1028C00000E000BF00BF5748007810B101280CD1CC
:1028D00005E0002201211C200DF0CFFE06E00122C0
:1028E00011461C200DF0C9FE00E000BF24E04C485A
:1028F0000078012820D10020494908705948007803
:1029000010B1012808D103E001205649087004E005
:1029100000205449087000E000BF00BF5148007813
:1029200010B1012806D102E00FF00DFD03E00FF019
:1029300011FD00E000BF00BF00E000BF00BFF2E3F8
:1029400049480078062866D2DFE800F00345A6D0A3
:10295000D1D23748007801283CD13248007890BB6A
:10296000002035490870354908700DF0FAFE3148ED
:10297000007810B1012808D103E001202D4908702A
:1029800004E000202B49087000E000BF00BF294888
:10299000007810B1012817D10AE001220021084671
:1029A0000DF06BFE0122114619200DF066FE0CE0C1
:1029B0000122114600200DF060FE012203211820A3
:1029C0000DF05BFE01E005E000BF00BFFDF73AFE41
:1029D000FDF765FEDEE01648007801285BD111485E
:1029E0000078C8B9002012490870144908701248CC
:1029F000007820B1012806D0022837D107E0012055
:102A00000D49087033E002200B4908702FE00020C8
:102A1000094908702BE0BCE03DE000000E000020FA
:102A20003405002010000020130000204305002082
:102A300033050020080000200A0000200C000020C0
:102A40000F00002000000020B400002000004843D8
:102A50002C7000200000FA4300007A4400C05A4560
:102A600000409C45110000203805002000BF00BF39
:102A7000FDF7E8FDFDF713FEFC48007801280AD1B8
:102A8000FB4890ED000AFB4880ED000A90ED000A3B
:102A9000F94880ED000A7DE0F8480078012824D14B
:102AA000F748007808BB0020F4490870EF49087027
:102AB000F448007810B1012808D103E00120F14961
:102AC000087004E00020EF49087000E000BF00BF7C
:102AD000FDF7E5FDFDF7B6FDEA48007828B1E448CA
:102AE00090ED000AE84880ED000A53E052E051E022
:102AF000E2480078012826D10020E0490870E0482B
:102B0000007810B1012808D103E00120DC490870E9
:102B100004E00020DA49087000E000BF00BFD84898
:102B2000007810B101280CD105E0002201211C2001
:102B30000DF0A3FD06E0012211461C200DF09DFDC5
:102B400000E000BF24E0D1480078012820D1002017
:102B5000CE490870CE48007810B1012808D103E0B2
:102B60000120CB49087004E00020C949087000E04A
:102B700000BF00BFC648007810B1012806D102E0AE
:102B80000FF0E1FB03E00FF0E5FB00E000BF00BF4A
:102B900000E000BF00BF73E3BE480078062878D28B
:102BA000DFE800F003639AF2F1F0B44800780128FE
:102BB0005AD1B348007888BB0020AC490870B149AD
:102BC0000870B54908700120B44908700DF0C9FDBE
:102BD000B348007830B1012808D002280AD0032871
:102BE00010D10BE00120AE4908700CE00220AC4986
:102BF000087008E00320AA49087004E00020A849F2
:102C0000087000E000BF00BFA548007838B1012877
:102C100010D0022814D003281ED117E024E001228E
:102C2000114619200DF029FD012202211C200DF072
:102C300024FD12E00122032119200DF01EFD0CE0FD
:102C40000122114615200DF018FD06E00122002199
:102C500016200DF012FD00E000BF00BFFDF7F2FCF2
:102C6000FDF71DFDFDF76FFD07E38448007801289F
:102C700031D18348007870BB0020804908708149B9
:102C800008707A48007828B1012807D002280DD1B1
:102C900008E0F1E201207549087008E0022073495C
:102CA000087004E000207149087000E000BF00BF18
:102CB000FDF7C8FCFDF7F3FC6C48007801280AD149
:102CC0006B4890ED000A6B4880ED000A90ED000A19
:102CD000694880ED000AD0E27248007801285BD193
:102CE0006F48007810B1012854D100E053E06A48E1
:102CF0000078012806D0032814D0052822D0062801
:102D000043D12FE0684890ED560A6848D0ED000A9C
:102D100080EE801A644890ED520A31EE000A80ED90
:102D2000520A33E0604890ED570A6048D0ED000A3F
:102D300080EE801A5C4890ED530A31EE000A80ED77
:102D4000530A23E0584890ED580A5848D0ED000A3D
:102D500080EE801A544890ED540A31EE000A80ED5E
:102D6000540A13E0504890ED560A5048D0ED000A3E
:102D700080EE801A4C4890ED550A31EE000A80ED45
:102D8000550A03E04CE14AE130E000BF00BF0CF01F
:102D9000F7FE00E000BF28E038480078012824D181
:102DA0003748007808BB0020344908702F49087064
:102DB0003448007810B1012808D103E001203149DE
:102DC000087004E000202F49087000E000BF00BF39
:102DD000FDF765FCFDF736FC2A48007828B1244849
:102DE00090ED000A284880ED000A46E2234800786A
:102DF000012839D122480078B0BB00201F49087053
:102E00001A4908701F4908702548007830B1012818
:102E100074D0022870D003286FD1CBE01F4800780F
:102E2000012812D100201D4908705B2108460EF0D0
:102E3000F3F95B200EF024FA1D490870084600786B
:102E4000012857D10020087054E013480078062864
:102E50004ED2DFE800F0032F353B414701200E49F9
:102E600008700FF090F944E0AEE000000A00002086
:102E7000480500201C000020200000203305002011
:102E8000100000200C0000202C0000203405002041
:102E900011000020380500200E0000201300002043
:102EA0000800002000000020286F0020BC00002047
:102EB000430500200220FC4908700FF064F918E077
:102EC0000320F94908700FF05EF912E00420F6497A
:102ED00008700FF058F90CE00520F34908700FF066
:102EE00052F906E00020F04908700FF04CF900E0BC
:102EF00000BF00BF60E001E05BE05CE0EB48007811
:102F0000012812D10020E94908705B2108460EF023
:102F100083F95B200EF0B4F9E549087008460078A3
:102F2000012845D10020087042E0DF4800780828D9
:102F30003CD2DFE800F0040B121920272E350120C7
:102F4000D949087000200FF01EF930E00220D64960
:102F5000087000200FF017F929E00320D24908700B
:102F600001200FF010F922E00420CF490870022060
:102F70000FF009F91BE00520CB49087002200FF083
:102F800002F914E00620C849087003200FF0FBF88E
:102F90000DE00720C449087003200FF0F4F806E0A4
:102FA0000020C14908700FF0EEF800E000BF00BF3C
:102FB00002E001E000E000BF00BFFDF7C4FBFDF749
:102FC0006EFBFDF73FFB29E0BA480078012825D1C8
:102FD000B948007810BB0020B6490870B3480078A3
:102FE00001281BD00120B14908705A2108460EF073
:102FF00013F95A200EF044F9AD49087008460078DC
:10300000012801D100200870012202211C200DF0AE
:1030100034FB002203211C200DF02FFB2DE12CE1BD
:10302000A648007801287BD1A548007830B1012856
:1030300051D0022875D0032874D1C9E0A14890ED81
:10304000000ADFEDA10AB4EEE00AF1EE10FA1ED29A
:103050009E489549097800EB810090ED000A994857
:10306000D0ED000A80EE801A984818388E49097809
:1030700000EB810090ED000A31EE000A9348183809
:103080008949097800EB810080ED000A20E08D4835
:1030900090ED000ADFED8E0AB4EEE00AF1EE10FAD0
:1030A00016DD8A488049097800EB810090ED000A1E
:1030B000DFED880A20EE200A8248D0ED000A80EE7B
:1030C000201A82487849097800EB810080ED001AC7
:1030D0000CF056FD7EE074480078012806D00328E5
:1030E00022D005283AD006286CD151E07A4890EDDC
:1030F000000AF3EE0E0AB4EEE00AF1EE10FA0EDD6D
:10310000764890ED560ADFED760A20EE200A7248E6
:10311000D0ED000A80EE201A704880ED561A52E079
:1031200059E054E055E0ABE06B4890ED000ADFED6C
:103130006D0AB4EEE00AF1EE10FA0EDD674890ED8C
:10314000570ADFED640A20EE200A6348D0ED000A3A
:1031500080EE201A614880ED571A34E05E4890ED09
:10316000000ADFED610AB4EEE00AF1EE10FA0EDDBE
:103170005A4890ED580ADFED5D0A20EE200A5648C5
:10318000D0ED000A80EE201A544880ED581A1AE05B
:10319000514890ED000ADFED560AB4EEE00AF1EE78
:1031A00010FA0EDD4D4890ED590ADFED520A20EE7F
:1031B000200A4948D0ED000A80EE201A474880EDE9
:1031C000591A00E000BF00BF0CF0DAFC02E001E099
:1031D00000E000BF4FE048480078012826D10020D9
:1031E000454908703448007810B1012808D103E03F
:1031F00001203149087004E000202F49087000E0E8
:1032000000BF00BF2C48007810B101280CD105E0A8
:10321000002201211C200DF030FA06E001221146A7
:103220001C200DF02AFA00E000BF24E021480078BD
:10323000012820D100201F4908703048007810B1C3
:10324000012808D103E001202C49087004E0002087
:103250002A49087000E000BF00BF2848007810B17C
:10326000012806D102E00FF06EF803E00FF072F8CB
:1032700000E000BF00BF00E000BF00BF00E000BFF3
:1032800000BF1F480078F8BB0A480078012855D1D4
:1032900009480078C0BB002006490870194800782A
:1032A00098B301283AD135E00E0000201300002029
:1032B00043050020340500201000002000000020FD
:1032C00008000020B80000200000C842587000200C
:1032D00000C05A4500409C45BC000020286F0020DB
:1032E0000000484200803B45007C92480024F4489E
:1032F000001B374A8096984A3305002011000020B1
:10330000380500200900002018E0FFE70120FE49F1
:10331000087004E00020FC49087000E000BF00BF16
:10332000F948007810B1012806D102E00FF04EFCF8
:1033300003E00FF044FC00E000BF00BFFDF76CF9B4
:10334000F248007898B9F248007801280FD1F14886
:10335000007860B90020EE490870EF48007808282E
:1033600002D1EE480078D0B9FDF73BF817E0EA4803
:103370000078082813D1E548007804280FD1E448E4
:10338000007801280BD1E6480078012807D1E148F0
:10339000007820B90020DE490870FDF722F810BD42
:1033A00000B595B000200490DA480078002845F078
:1033B000A985FDF787FAD8480078801F052885F091
:1033C0009F85DFE810F00500A312C4176722FA22D8
:1033D000D44890ED000AD44880ED000A90ED000A30
:1033E000F3EE0E0AB4EEE00AF1EE10FA05DD01226A
:1033F000032100200DF041F904E0002203211046D2
:103400000DF03BF9C5480078002841F0F985C74820
:1034100000780028F9D1C64800780028F5D1C548C1
:1034200000780028F1D1BE48007800287BD1BD4843
:1034300090ED000AC048D0ED000A30EE600ABF48A7
:1034400080ED000ABE4890ED000ABE48D0ED000AAB
:1034500030EE600ABC4880ED000A0120B74991EDCA
:10346000000AFDF7F6F9B94880ED000A0220B649D6
:1034700091ED000AFDF7EDF9B54880ED000AB54879
:10348000007806287ED2DFE800F00398F7F6F5F41E
:10349000B1480078012847D1A84890ED000AF1EE24
:1034A000080AB4EEE00AF1EE10FA09D80121084644
:1034B000A64A92ED000A0DF01AFAA84908700CE02D
:1034C00001200DF04BFD0122002102200DF0D5F866
:1034D000A0480078401C9F4908709B4890ED000A66
:1034E000DFED9F0AB4EEE00AF1EE10FA09D80321ED
:1034F0000220974A92ED000A0DF0F9F997490870F9
:1035000024E002200DF02AFD0122002111200DF0FF
:10351000B4F890480078C01CC1B28E4801700020F9
:103520000FF03AF912E0FDE301210846874A92EDD7
:10353000000A0DF0DCF98949087003210220844A51
:1035400092ED000A0DF0D3F98449087085A18648F0
:1035500010F01AF87D48006810F0E3F9CDE9020197
:103560009DED020B53EC102B80A105A810F042FC3E
:1035700005A97D480FF0EEFF7EA17B480FF0EAFF22
:103580007EA100E0FEE378480FF0E4FF7048006899
:1035900010F0C7F9CDE902019DED020B53EC102BA1
:1035A00077A105A810F026FC05A96F480FF0D2FFFF
:1035B00075A16D480FF0CEFFF0E367480078012851
:1035C0006CD15E4890ED000ADFED710AB4EEE00ABE
:1035D000F1EE10FA12D890ED000AF1EE080AB4EEFE
:1035E000E00AF1EE10FA09DD02210120574A92EDBE
:1035F000000A0DF07CF95949087026E04F4890ED1B
:10360000000AF1EE080AB4EEE00AF1EE10FA05D86D
:1036100050480078401E4F4908700EE0474890ED32
:10362000000ADFED5B0AB4EEE00AF1EE10FA04DD09
:1036300048480078401C4749087001200DF08EFC76
:103640000122002104200DF018F83F4890ED000AF7
:10365000DFED430AB4EEE00AF1EE10FA0DD80321D3
:1036600002203B4A92ED000A0DF041F93B490870F7
:1036700026E0D6E2F5E150E1A5E002200DF06EFC77
:103680000122002111200CF0F8FF32480078C01C04
:103690003049087000200FF07FF811E0022101206E
:1036A0002A4A92ED000A0DF022F92C4908700321F4
:1036B0000220274A92ED000A0DF019F927490870F7
:1036C00028A129480FF060FF2048006810F029F970
:1036D000CDE902019DED020B53EC102B2DA105A8A5
:1036E00010F088FB05A920480FF034FF21A11E48E7
:1036F0000FF030FF21A11C480FF02CFF1448006888
:1037000010F00FF94AE00000090000203805002001
:103710003305002010000020360500200F00002097
:10372000080000204004002090000020120000202B
:103730000B0000200D000020F40400208800002071
:1037400044040020F80400208C00002078000020B1
:103750007C0000200E0000201300002074000020D8
:10376000000016444D20000084070020252E3366FB
:1037700000000000204143560D0A000053200000C5
:10378000252E316600000000204143410D0A000053
:1037900000007042252E326600000000CDE90201D3
:1037A0009DED020B53EC102BAFF22C0105A810F08D
:1037B00021FB05A9FE480FF0CDFEAFF23401FC4815
:1037C0000FF0C8FEEAE2FB480078012858D1FA4819
:1037D00090ED000A5FED1E0AB4EEE00AF1EE10FA79
:1037E00012D890ED000A5FED160AB4EEE00AF1EE91
:1037F00010FA09DD03210120F04A92ED000A0DF0D4
:1038000076F8EF49087016E0EB4890ED000A5FED9E
:10381000200AB4EEE00AF1EE10FA04D8E948007884
:10382000401EE849087001200DF098FB012200219C
:1038300006200CF022FFE44890ED000A5FED380A04
:10384000B4EEE00AF1EE10FA09D803210220DF4AB3
:1038500092ED000A0DF04BF8D949087022E00220E1
:103860000DF07CFB0122002111200CF006FFD54851
:103870000078C01CD349087000200EF08DFF11E0C5
:1038800003210120CD4A92ED000A0DF030F8CC4919
:10389000087003210220CD4A92ED000A0DF027F8AE
:1038A000C7490870AFF24411C1480FF06DFEC3481C
:1038B000006810F036F8CDE902019DED020B53ECE3
:1038C000102BAFF2441105A810F094FA05A9B848DE
:1038D0000FF040FEAFF26411B5480FF03BFEAFF2BF
:1038E0006411B3480FF036FEB848006810F019F8BC
:1038F000CDE902019DED020B53EC102BAFF28011CC
:1039000005A810F077FA05A9A9480FF023FEAFF239
:103910008811A7480FF01EFE40E2A6480078012853
:1039200053D1A54890ED000AF1EE080AB4EEE00A82
:10393000F1EE10FA09D801210846A04A92ED000ADA
:103940000CF0D5FF9E4908700CE001200DF006FB3D
:103950000122002102200CF090FE9A480078401CC1
:1039600098490870984890ED000ADFED990AB4EE86
:10397000E00AF1EE10FA12D890ED000A5FED880A25
:10398000B4EEE00AF1EE10FA09DD042102208F4ABC
:1039900092ED000A0CF0ABFF8949087027E08A48D5
:1039A00090ED000A5FED920AB4EEE00AF1EE10FA33
:1039B0001DD802200DF0D2FA82480078C01E81493D
:1039C000087001200EF0E8FE11E0012108467B4A54
:1039D00092ED000A0CF08BFF794908700421022057
:1039E0007A4A92ED000A0CF082FF75490870AFF236
:1039F0008C216F480FF0C8FD704800680FF091FFF0
:103A0000CDE902019DED020B53EC102BAFF2A42186
:103A100005A810F0EFF905A965480FF09BFDAFF27E
:103A2000AC2163480FF096FDAFF2B02160480FF073
:103A300091FD664800680FF074FFCDE902019DED2D
:103A4000020B53EC102B63A105A810F0D3F905A9C4
:103A500057480FF07FFDAFF2D02155480FF07AFDA7
:103A60009CE154480078012877D1534890ED000A32
:103A70005FEDB90AB4EEE00AF1EE10FA12D890ED5B
:103A8000000AF1EE080AB4EEE00AF1EE10FA09DDE0
:103A900002210120494A92ED000A0CF028FF484912
:103AA000087026E0444890ED000AF1EE080AB4EEF2
:103AB000E00AF1EE10FA05D842480078401E41496C
:103AC00008700EE03C4890ED000A5FEDCF0AB4EEBE
:103AD000E00AF1EE10FA04DD3A480078401C39495A
:103AE000087001200DF03AFA0122002104200CF0A8
:103AF000C4FD354890ED000ADFED350AB4EEE00A6A
:103B0000F1EE10FA12D890ED000A5FEDEB0AB4EE78
:103B1000E00AF1EE10FA09DD042102202B4A92EDB1
:103B2000000A0CF0E4FE2649087028E0264890EDD3
:103B3000000A5FEDF50AB4EEE00AF1EE10FA1ED8C5
:103B400002200DF00BFA1F480078C01E1D490870B6
:103B500001200EF021FE12E0FFE702210120174AAA
:103B600092ED000A0CF0C3FE1549087004210220F2
:103B7000164A92ED000A0CF0BAFE11490870AFF235
:103B80001C410B480FF000FD0C4800680FF0C9FE07
:103B9000CDE902019DED020B53EC102BAFF20C416D
:103BA00005A810F027F905A901480FF0D3FC15E08E
:103BB00084070020130000208800002078000020E7
:103BC000740000200E0000208C0000207C000020EB
:103BD0000000FA44252E306600000000AFF26C4170
:103BE000FE480FF0B7FCAFF26C41FC480FF0B2FC9E
:103BF000FB4800680FF095FECDE902019DED020B38
:103C000053EC102BAFF2340105A810F0F3F805A91E
:103C1000F2480FF09FFCAFF29041F0480FF09AFC91
:103C2000BCE0F0480078012866D1EF4890ED000A2A
:103C3000DFEDEE0AB4EEE00AF1EE10FA12D890EDE4
:103C4000000ADFEDEB0AB4EEE00AF1EE10FA09DD4E
:103C500003210120E74A92ED000A0CF048FEE649F4
:103C6000087016E0E04890ED000ADFEDE10AB4EEDE
:103C7000E00AF1EE10FA04D8E0480078401EDF496F
:103C8000087001200DF06AF90122002106200CF0D5
:103C9000F4FCDB4890ED000A5FED330AB4EEE00A75
:103CA000F1EE10FA12D890ED000ADFEDD00AB4EE72
:103CB000E00AF1EE10FA09DD04210220C84A92ED73
:103CC000000A0CF014FECC49087027E0CC4890EDB7
:103CD000000ADFEDC60AB4EEE00AF1EE10FA1DD8D4
:103CE00002200DF03BF9C5480078C01EC34908709A
:103CF00001200EF051FD11E003210120BD4A92ED9B
:103D0000000A0CF0F4FDBC49087004210220B44AFA
:103D100092ED000A0CF0EBFDB7490870AFF2BC5110
:103D2000AE4800E03CE00FF02FFCB24800680FF016
:103D3000F8FDCDE902019DED020B53EC102BAFF223
:103D4000C05105A810F056F805A9A4480FF002FCD0
:103D5000AFF2E051A1480FF0FDFBAFF2E0519F48F8
:103D60000FF0F8FB9E4800680FF0DBFDCDE9020183
:103D70009DED020B53EC102BAFF2A81105A810F02B
:103D800039F800E009E005A994480FF0E3FBAFF231
:103D9000086192480FF0DEFB00E000BF01F0B4BD07
:103DA00098480078012873D1974890ED000A8E4812
:103DB00080ED000A954890ED000A914880ED000AD8
:103DC0000120894991ED000AFCF743FD894880ED07
:103DD000000A02208A4991ED000AFCF73AFD80486A
:103DE00080ED000A804800680FF09BFDCDE90001DE
:103DF0009DED000B10F0F4FA8DED020B9DED020B22
:103E000051EC100B0FF0D0FD814908607B48007821
:103E100006287CD2DFE800F0039BE0DFDEDD71489E
:103E20000078012846D17A4890ED000AF1EE080AA0
:103E3000B4EEE00AF1EE10FA09D8012108466D4A05
:103E400092ED000A0CF053FD6B4908700CE0012064
:103E50000DF084F80122002102200CF00EFC6748CE
:103E60000078401C65490870654890ED000ADFED58
:103E70005F0AB4EEE00AF1EE10FA0AD8032102203C
:103E8000574A92ED000A0CF032FD5B49087023E0BE
:103E9000FEE302200DF062F80122002111200CF057
:103EA000ECFB56480078C01C5449087000200EF006
:103EB00073FC11E0012108464E4A92ED000A0CF015
:103EC00016FD4D49087003210220454A92ED000A73
:103ED0000CF00DFD48490870AFF278713F480FF0C3
:103EE00053FB444800680FF01CFDCDE902019DED35
:103EF000020B53EC102BAFF28C7105A80FF07AFF78
:103F000005A936480FF026FB42A1344800E0E9E35A
:103F10000FF020FBAFF29C7130480FF01BFB3048D4
:103F200000680FF0FEFCCDE902019DED020B53ECA1
:103F3000102BAFF2B47105A80FF05CFF05A927485C
:103F40000FF008FB35A125480FF004FBCBE3254813
:103F50000078012841D12E4890ED000ADFED240AB7
:103F6000B4EEE00AF1EE10FA12D890ED000AF1EE8C
:103F7000080AB4EEE00AF1EE10FA09DD0221012090
:103F80001C4A92ED000A0CF0B2FC1B49087050E08C
:103F90001F4890ED000AF1EE080AB4EEE00AF1EED7
:103FA00010FA05D815480078401E144908700EE034
:103FB000174890ED000ADFED0E0AB4EEE00AF1EECC
:103FC00010FA04DD0D480078401C0C4908700120EF
:103FD00028E0CDE2F0E149E19DE04FE084070020D8
:103FE0007C00002013000020880000200000164400
:103FF0000000704278000020740000200E000020B5
:104000008C00002008000020F4040020F8040020A8
:1040100094000020204443560D0A000020444341F0
:104020000D0A00000CF09AFF0122002104200CF080
:1040300024FBFA4890ED000A5FED140AB4EEE00AA2
:10404000F1EE10FA09D803210220F54A92ED000A98
:104050000CF04DFCF349087022E002200CF07EFFCA
:104060000122002111200CF008FBEF480078C01C51
:10407000ED49087000200EF08FFB11E002210120B5
:10408000EA4A92ED000A0CF032FCE649087003217E
:104090000220E34A92ED000A0CF029FCE149087085
:1040A000AFF64011E2480FF06FFAE04800680FF0F9
:1040B00038FCCDE902019DED020B53EC102BAFF65D
:1040C0002C1105A80FF096FE05A9D9480FF042FA69
:1040D000AFF2C001D6480FF03DFAAFF66011D448F8
:1040E0000FF038FACE4800680FF01BFCCDE9020152
:1040F0009DED020B53EC102BAFF67C1105A80FF0D1
:1041000079FE05A9CA480FF025FAAFF2F001C848B8
:104110000FF020FAE7E2C7480078012859D1C648D5
:1041200090ED000A5FED4F0AB4EEE00AF1EE10FAEE
:1041300012D890ED000A5FED520AB4EEE00AF1EEFB
:1041400010FA09DD03210120B84A92ED000A0CF0B3
:10415000CEFBB449087017E0B74890ED000A5FED58
:104160005C0AB4EEE00AF1EE10FA05D8AE48007829
:10417000401EC1B2AC48017001200CF0EFFE0122DC
:10418000002106200CF079FAA44890ED000A5FEDBA
:10419000690AB4EEE00AF1EE10FA09D80321022010
:1041A0009F4A92ED000A0CF0A2FB9E49087022E0A3
:1041B00002200CF0D3FE0122002111200CF05DFA48
:1041C00099480078C01C9849087000200EF0E4FA65
:1041D00011E003210120954A92ED000A0CF087FBC3
:1041E00090490870032102208D4A92ED000A0CF0DC
:1041F0007EFB8C490870AFF694218D480FF0C4F90E
:104200008A4800680FF08DFBCDE902019DED020B9D
:1042100053EC102BAFF6982105A80FF0EBFD05A984
:1042200083480FF097F9AFF2142181480FF092F90B
:10423000AFF6B8217E480FF08DF9794800680FF08D
:1042400070FBCDE902019DED020B53EC102BAFF694
:10425000D02105A80FF0CEFD05A975480FF07AF919
:10426000AFF2482172480FF075F93CE271480078CE
:10427000012854D1704890ED000AF1EE080AB4EE1E
:10428000E00AF1EE10FA09D801210846674A92EDDA
:10429000000A0CF02CFB634908700DE001200CF0C3
:1042A0005DFE0122002102200CF0E7F95E48007853
:1042B000401CC1B25C480170584890ED000ADFED27
:1042C0005F0AB4EEE00AF1EE10FA12D890ED000A9F
:1042D0005FEDBA0AB4EEE00AF1EE10FA09DD04214E
:1042E00002204F4A92ED000A0CF001FB4D49087084
:1042F00027E04A4890ED000A5FEDC40AB4EEE00AF8
:10430000F1EE10FA1DD802200CF028FE4648007885
:10431000C01E4549087001200EF03EFA11E001214F
:104320000846424A92ED000A0CF0E1FA3D49087055
:10433000042102203A4A92ED000A0CF0D8FA3949D9
:104340000870AFF6E0313A480FF01EF937480068C0
:104350000FF0E7FACDE902019DED020B53EC102BB3
:10436000AFF6F83105A80FF045FD05A930480FF06C
:10437000F1F8AFF260312E480FF0ECF8AFF60441DF
:104380002B480FF0E7F8264800680FF0CAFACDE98D
:1043900002019DED020B53EC102BAFF2C87105A882
:1043A0000FF028FD05A922480FF0D4F8AFF29431A0
:1043B0001F480FF0CFF896E11E480078012873D10E
:1043C0001D4890ED000A5FEDF60AB4EEE00AF1EE4A
:1043D00010FA12D890ED000AF1EE080AB4EEE00AE5
:1043E000F1EE10FA09DD02210120104A92ED000AD7
:1043F0000CF07DFA0B49087039E00F4890ED000A87
:10440000F1EE080AB4EEE00AF1EE10FA18D8064808
:104410000078401E0449087021E000008C00002054
:104420007C000020740000200E0000207800002096
:1044300084070020130000209400002000803B45EA
:10444000FC4890ED000ADFEDFC0AB4EEE00AF1EE64
:1044500010FA04DDF9480078401CF8490870012082
:104460000CF07CFD0122002104200CF006F9F44838
:1044700090ED000A5FED0F0AB4EEE00AF1EE10FADB
:1044800013D890ED000ADFEDEF0AB4EEE00AF1EE8A
:1044900010FA0ADD04210220EB4A92ED000A0CF02A
:1044A00026FAEA49087028E015E0E54890ED000A90
:1044B000DFEDE40AB4EEE00AF1EE10FA1DD80220B6
:1044C0000CF04CFDDD480078C01EDC49087001206E
:1044D0000EF062F911E002210120DD4A92ED000A9E
:1044E0000CF005FAD949087004210220D64A92ED51
:1044F000000A0CF0FCF9D5490870AFF69851D54880
:104500000FF042F8D24800680FF00BFACDE9020133
:104510009DED020B53EC102BAFF6885105A80FF060
:1045200069FC05A9CB480FF015F8AFF21851C9483E
:104530000FF010F8AFF6BC51C6480FF00BF8C248A8
:1045400000680FF0EEF9CDE902019DED020B53EC8E
:10455000102BAFF6801105A80FF04CFC05A9BD4843
:104560000EF0F8FFAFF24C51BA480EF0F3FFBAE08C
:10457000B9480078012866D1AE4890ED000ADFED19
:10458000B10AB4EEE00AF1EE10FA12D890ED000A8A
:10459000DFEDA90AB4EEE00AF1EE10FA09DD03211D
:1045A0000120AB4A92ED000A0CF0A1F9A74908706E
:1045B00016E0A04890ED000ADFED9F0AB4EEE00A95
:1045C000F1EE10FA04D89D480078401E9B4908700F
:1045D00001200CF0C3FC0122002106200CF04DF854
:1045E000974890ED000ADFED9D0AB4EEE00AF1EE87
:1045F00010FA12D890ED000ADFED920AB4EEE00A4C
:10460000F1EE10FA09DD042102208F4A92ED000A32
:104610000CF06DF98D49087027E0894890ED000A8B
:10462000DFED880AB4EEE00AF1EE10FA1DD80220A0
:104630000CF094FC81480078C01E8049087001206D
:104640000EF0AAF811E003210120814A92ED000A40
:104650000CF04DF97D490870042102207A4A92ED50
:10466000000A0CF044F979490870AFF608717948EE
:104670000EF08AFF764800680FF053F9CDE9020189
:104680009DED020B53EC102BAFF60C7105A800E06A
:104690002BE00FF0AFFB05A96E480EF05BFFAFF209
:1046A0008C616C480EF056FFAFF6307169480EF021
:1046B00051FF654800680FF034F9CDE902019DED26
:1046C000020B53EC102BAFF6F42105A80FF092FB70
:1046D00005A960480EF03EFFAFF2C0615D480EF0E4
:1046E00039FF00E000BF01F00FB95D4800780228F3
:1046F000F9D15C4890ED000A5B4880ED000A5B4808
:1047000090ED000A4E4880ED000A0120564991EDD7
:10471000000AFCF79EF84E4880ED000A0220484946
:1047200091ED000AFCF795F8474880ED000A4348F0
:10473000007806287DD2DFE800F003C0F4F3F2F140
:1047400045480078012845D1474890ED000AF1EE30
:10475000080AB4EEE00AF1EE10FA09D80121084681
:104760003B4A92ED000A0CF0C2F8384908700CE0A0
:1047700001200CF0F3FB0122002102200BF07DFF51
:104780002E480078401C2D4908702D4890ED000AF5
:10479000DFED2C0AB4EEE00AF1EE10FA09D803219D
:1047A0000220294A92ED000A0CF0A1F8274908706E
:1047B00022E002200CF0D2FB0122002111200BF09C
:1047C0005CFF1E480078C01C1C49087000200DF0DA
:1047D000E3FF11E0012108461D4A92ED000A0CF0AA
:1047E00086F81A49087003210220174A92ED000A40
:1047F0000CF07DF8154908701DA116480EF0C4FE96
:10480000134800680FF08DF8CDE902019DED020B11
:1048100053EC102B174905A80FF0ECFA05A90D4829
:104820000EF098FE14A10B480EF094FE15A1094855
:104830002AE0E3E394000020000070420E00002014
:104840008C000020000016447C0000207400002032
:104850007800002084070020130000200000FA44A4
:1048600008000020400400208800002044040020AC
:104870004D2000006C3700082041432B4443560D67
:104880000A000000532000000EF064FEFE4800689D
:104890000FF047F8CDE902019DED020B53EC102B10
:1048A000FA4905A80FF0A6FA05A9F9480EF052FE3C
:1048B000F8A1F7480EF04EFEA1E3F9480078012870
:1048C0006CD1F84890ED000A5FED250AB4EEE00ADD
:1048D000F1EE10FA12D890ED000AF1EE080AB4EEEB
:1048E000E00AF1EE10FA09DD02210120EE4A92ED14
:1048F000000A0BF0FCFFED4908702AE0E94890ED52
:10490000000AF1EE080AB4EEE00AF1EE10FA09D856
:10491000E7480078401EE649087012E0B6E2EDE193
:104920002EE186E0DF4890ED000A5FED3D0AB4EE2F
:10493000E00AF1EE10FA04DDDD480078401CDC49A5
:10494000087001200CF00AFB0122002104200BF06A
:1049500094FED84890ED000A5FED460AB4EEE00AF6
:10496000F1EE10FA09D803210220C74A92ED000A9D
:104970000BF0BDFFCD49087022E002200CF0EEFAEA
:104980000122002111200BF078FEC9480078C01CDC
:10499000C749087000200DF0FFFE11E00221012040
:1049A000C14A92ED000A0BF0A2FFC0490870032132
:1049B0000220B54A92ED000A0BF099FFBB4908703E
:1049C000AFF25411B2480EF0DFFDB74800680EF0A8
:1049D000A8FFCDE902019DED020B53EC102BAB4972
:1049E000143105A80FF006FA05A9A9480EF0B2FD8A
:1049F000AFF27C11A6480EF0ADFDAFF27811A448DD
:104A00000EF0A8FDA04800680EF08BFFCDE9020172
:104A10009DED020B53EC102B9C4905A80FF0EAF911
:104A200005A99B480EF096FD9AA199480EF092FDBB
:104A3000E5E29B480078012858D19A4890ED000A99
:104A40005FED800AB4EEE00AF1EE10FA12D890EDB4
:104A5000000A5FED870AB4EEE00AF1EE10FA09DD14
:104A600003210120904A92ED000A0BF040FF8F498C
:104A7000087016E08B4890ED000A5FED910AB4EEE5
:104A8000E00AF1EE10FA04D889480078401E8849FF
:104A9000087001200CF062FA0122002106200BF0C0
:104AA000ECFD844890ED000A5FED9A0AB4EEE00A4E
:104AB000F1EE10FA09D803210220734A92ED000AA0
:104AC0000BF015FF7949087022E002200CF046FA3D
:104AD0000122002111200BF0D0FD75480078C01C88
:104AE0007349087000200DF057FE11E003210120EA
:104AF0006D4A92ED000A0BF0FAFE6C490870032132
:104B00000220614A92ED000A0BF0F1FE674908703D
:104B1000AFF2A4215E480EF037FD634800680EF046
:104B200000FFCDE902019DED020B53EC102B57491C
:104B300005A80FF05FF905A955480EF00BFDAFF27F
:104B4000C82153480EF006FDAFF2C82150480EF0C0
:104B500001FD4D4800680EF0E4FECDE902019DED37
:104B6000020B53EC102B494905A80FF043F905A996
:104B700047480EF0EFFC47A145480EF0EBFC3EE243
:104B800047480078012853D1464890ED000AF1EEDD
:104B9000080AB4EEE00AF1EE10FA09D8012108463D
:104BA000414A92ED000A0BF0A2FE404908700CE069
:104BB00001200CF0D3F90122002102200BF05DFD51
:104BC0003B480078401C3A4908703A4890ED000A8A
:104BD0005FEDDE0AB4EEE00AF1EE10FA12D890EDC5
:104BE000000A5FEDE80AB4EEE00AF1EE10FA09DD22
:104BF00004210220244A92ED000A0BF078FE2B4992
:104C0000087027E02B4890ED000A5FEDF20AB4EE41
:104C1000E00AF1EE10FA1DD802200CF09FF92448AA
:104C20000078C01E2249087001200DF0B5FD11E08A
:104C3000012108461C4A92ED000A0BF058FE1B4960
:104C4000087004210220104A92ED000A0BF04FFE7A
:104C500016490870AFF2E8310D480EF095FC124885
:104C600000680EF05EFECDE902019DED020B53ECF3
:104C7000102B0649143905A80FF0BCF805A9044803
:104C80000EF068FC18E000007C000020803700086F
:104C9000840700202041432B4443410D0A000000BB
:104CA00013000020880000207800002074000020FD
:104CB0000E0000208C000020AFF24441FE480EF0B0
:104CC00049FCAFF24041FC480EF044FCFB48006850
:104CD0000EF027FECDE902019DED020B53EC102BE7
:104CE000F74905A80FF086F805A9F3480EF032FC45
:104CF000AFF26001F0480EF02DFC80E1F148007841
:104D0000012878D1F04890ED000ADFEDF00AB4EE0A
:104D1000E00AF1EE10FA12D890ED000AF1EE080A5E
:104D2000B4EEE00AF1EE10FA09DD02210120E84AB2
:104D300092ED000A0BF0DBFDE649087027E0E2483F
:104D400090ED000AF1EE080AB4EEE00AF1EE10FA76
:104D500005D8E1480078401EDF4908700FE0DA48C6
:104D600090ED000ADFEDD90AB4EEE00AF1EE10FA98
:104D700005DDD9480078401CC1B2D7480170012038
:104D80000CF0ECF80122002104200BF076FCD34853
:104D900090ED000ADFEDD20AB4EEE00AF1EE10FA6F
:104DA00012D890ED000ADFEDCF0AB4EEE00AF1EE82
:104DB00010FA09DD04210220C04A92ED000A0BF02E
:104DC00096FDC449087028E0C44890ED000ADFED64
:104DD000C50AB4EEE00AF1EE10FA1ED802200CF07B
:104DE000BDF8BD480078C01EBB49087001200DF019
:104DF000D3FC12E0FFE702210120B54A92ED000A40
:104E00000BF075FDB349087004210220AB4A92ED06
:104E1000000A0BF06CFDAF490870AFF2AC51A64828
:104E20000EF0B2FBAA4800680EF07BFDCDE902014E
:104E30009DED020B53EC102BAB4905A80EF0DAFFE9
:104E400005A99D480EF086FBAFF2D4519A480EF0AA
:104E500081FBAFF2D05198480EF07CFB9748006878
:104E60000EF05FFDCDE902019DED020B53EC102B1E
:104E7000934905A80EF0BEFF05A98F480EF06AFB06
:104E8000AFF2F0118C480EF065FBB8E08D48007869
:104E9000012867D18C4890ED000ADFED920AB4EE4C
:104EA000E00AF1EE10FA12D890ED000ADFED870A61
:104EB000B4EEE00AF1EE10FA09DD03210120844A84
:104EC00092ED000A0BF013FD8249087017E07E484E
:104ED00090ED000ADFED7D0AB4EEE00AF1EE10FA83
:104EE00005D87D480078401EC1B27B480170012082
:104EF0000CF034F80122002106200BF0BEFB7748AD
:104F000090ED000ADFED760AB4EEE00AF1EE10FA59
:104F100012D890ED000ADFED730AB4EEE00AF1EE6C
:104F200010FA09DD04210220644A92ED000A0BF018
:104F3000DEFC6849087027E0684890ED000ADFED64
:104F4000690AB4EEE00AF1EE10FA1DD802200CF066
:104F500005F861480078C01E5F49087001200DF017
:104F60001BFC11E003210120594A92ED000A0BF0CD
:104F7000BEFC5849087004210220504A92ED000AF4
:104F80000BF0B5FC53490870AFF21C714A480EF0A3
:104F9000FBFA4F4800680EF0C4FCCDE902019DED1C
:104FA000020B53EC102B5049143905A80EF022FFC8
:104FB00005A941480EF0CEFAAFF244713E480EF01A
:104FC000C9FAAFF240713C480EF0C4FA3B480068A1
:104FD0000EF0A7FCCDE902019DED020B53EC102B66
:104FE000374905A80EF006FF05A933480EF0B2FABE
:104FF000AFF2603130480EF0ADFA00E000BF4DE294
:105000003A48007800287DD038480078012804D03C
:10501000022878D0032877D1F9E0354890ED000ACE
:10502000294880ED000A0120274991ED000AFBF78D
:1050300010FC274880ED000A0A210120244A92ED45
:10504000000A0BF054FC234908702A4890ED000A2E
:10505000224880ED000A0220204991ED000AFBF76A
:10506000F8FB164880ED000A0A210220134A92ED4F
:10507000000A0BF03CFC17490870AFF60C010E4813
:105080000EF082FA124800680EF04BFCCDE90201E6
:105090009DED020B53EC102B1349283905A80EF097
:1050A000A9FE05A904480EF055FA13A102480EF016
:1050B00051FAAFF6300128E0840700207C00002080
:1050C000D43B00081300002088000020000070423C
:1050D00078000020740000200E0000208C000020CA
:1050E0000000FA4400001644943700080F00002026
:1050F00090040020980400202054484425665F5600
:105100000D0A0000ECE01AE0E8E0FD480EF022FA9B
:10511000FC4800680EF005FCCDE902019DED020B94
:1051200053EC102BF84905A80EF064FE05A9F448CD
:105130000EF010FAF5A1F2480EF00CFACFE0F648A6
:1051400090ED000AF54880ED000A0120F34991ED49
:10515000000AFBF77EFBF24880ED000A0A210120DD
:10516000EF4A92ED000A0BF0C2FBEE490870EE48E0
:1051700090ED000AED4880ED000A0220EB4991ED28
:10518000000AFBF766FBDF4880ED000A0A210220D7
:10519000DC4A92ED000A0BF0AAFBE2490870AFF678
:1051A0003011D7480EF0F0F9DD4800680EF0B9FB79
:1051B000CDE902019DED020B53EC102BD24905A85D
:1051C0000EF018FE05A9CE480EF0C4F9AFF2D801D2
:1051D000CB480EF0BFF9AFF65411C9480EF0BAF93A
:1051E000C84800680EF09DFBCDE902019DED020B61
:1051F00053EC102BC44905A80EF0FCFD05A9C048CE
:105200000EF0A8F9C1A1BE480EF0A4F967E0C848A5
:1052100090ED000AC14880ED000A0120BF4991EDE0
:10522000000AFBF716FBBE4880ED000A02210120B0
:10523000BB4A92ED000A0BF05AFBBA490870BD4810
:1052400090ED000AB94880ED000A0220B74991EDBF
:10525000000AFBF7FEFAAB4880ED000A022108467F
:10526000A84A92ED000A0BF042FBAE490870AFF677
:105270000021A3480EF088F9A94800680EF051FB00
:10528000CDE902019DED020B53EC102B9E4905A8C0
:105290000EF0B0FD05A99A480EF05CF9A6A1984859
:1052A0000EF058F9AFF6242195480EF053F99548C1
:1052B00000680EF036FBCDE902019DED020B53ECC8
:1052C000102B914905A80EF095FD05A98C480EF00C
:1052D00041F99BA18A480EF03DF900E000BF13E3BD
:1052E0009948007868B1994800780228F7D10A21D6
:1052F0000120974A92ED000A0BF0F9FA89490870EB
:1053000002E394480078E0B393480078012802D083
:1053100002287CD160E0914890ED000A7F4880ED42
:10532000000A90ED000A7E4880ED000A0A21012063
:105330007B4A92ED000A0BF0DAFA7A490870884845
:1053400090ED000A794880ED000A90ED000A6D4862
:1053500080ED000A0A2102206A4A92ED000A0BF051
:10536000C6FA70490870AFF6F82165480EF00CF9DE
:105370006B4800680EF0D5FACDE902019DED020BF5
:1053800000E08CE053EC102B5F4905A80EF032FDD5
:1053900005A95B480EF0DEF872A159480EF0DAF864
:1053A000AFF6203156480EF0D5F8564800680EF09A
:1053B000B8FACDE902019DED020B53EC102B5249D6
:1053C00005A80EF017FD05A94D480EF0C3F868A119
:1053D0004B480EF0BFF861E0684890ED000A4F4876
:1053E00080ED000A90ED000A4D4880ED000A0A2188
:1053F00001204B4A92ED000A0BF079FA49490870F6
:105400005F4890ED000A494880ED000A00E044E062
:1054100090ED000A3B4880ED000A0A210220394A3B
:1054200092ED000A0BF063FA3E490870AFF6C03106
:1054300033480EF0A9F83A4800680EF072FACDE948
:1054400002019DED020B53EC102B2F4905A80EF025
:10545000D1FC05A92A480EF07DF84AA128480EF093
:1054600079F8AFF6E03126480EF074F82548006868
:105470000EF057FACDE902019DED020B53EC102B13
:10548000214905A80EF0B6FC05A91D480EF062F8EA
:105490003FA11B480EF05EF800E000BF34E23F4839
:1054A00000780028FAD03E48008800F4004030B36D
:1054B0003C480078042822D13B480068029000282C
:1054C00001DB029801E00298404214280CDB3648C8
:1054D0000068A0F5B4700390002801DB039801E098
:1054E00003984042142802DA02200BF04BFD2E48AC
:1054F000006878380390002858DB039858E07FE074
:10550000840700207C0000206C37000820544844A9
:1055100025665F410D0A00008C04002088000020F1
:105520007800002074000020940400208C000020EB
:1055300060040020640400202043465F560D0A00EA
:105540002043465F410D0A00120000203C04002069
:10555000480400200B0000200A0000205004002016
:1055600054040020204D41585F560D0A00000000F1
:10557000204D41585F410D0A0000000058040020F2
:105580005C040020204D494E5F560D0A00000000CB
:10559000204D494E5F410D0A000000000D00002023
:1055A00054050020140000207000002003984042A1
:1055B000142803DA02200BF0EFFC12E0FE4800682A
:1055C000F0380390002801DB039801E00398404283
:1055D000142803DA02200BF0E9FC02E002200BF0B1
:1055E000AAFC0A210120F44A92ED000AB8EE400A12
:1055F0000BF07DF9F14908700520F149087054E07D
:10560000F048008800F4804048B3ED480078042852
:1056100025DAED480078012847D10020EA490870D2
:10562000EA48007810B1012808D103E00120E749D9
:10563000087004E00020E549087000E000BF00BFEA
:10564000E2480078012803D102200BF0B9FC02E007
:1056500002200BF07AFC01200BF094FC25E0D948E5
:10566000008800F4804000BBD748007801281CD196
:105670000020D5490870D548007810B1012808D11C
:1056800003E00121D148017004E00020CF490870F7
:1056900000E000BF00BFCD480078012802D10BF028
:1056A00067FC02E001200BF050FCC648008800F4C3
:1056B000004010B3C248007803281ED10021C4481E
:1056C00006F04EFAC3480068C3490988B0FBF1F2FE
:1056D00001FB1201C148016000684FF4B4714843F6
:1056E000BD490988B0FBF1F1BC4801600068B249CE
:1056F00008600420B249087006E1B248008800F44E
:105700008040E0B3B64890ED000AB64880ED000A4C
:105710000A210220B34A92ED000A0BF0E8F8A749EB
:105720000870B04890ED000AF2EE040AB4EEE00A08
:10573000F1EE10FA0AD2A2480078012806D1022020
:105740009F49087000200CF0DAFD10E0A54890EDAC
:10575000000AF2EE040AB4EEE00AF1EE10FA06DDF9
:1057600097480078012802D101219548017094489A
:105770000078022842D19B4890ED000A00E04FE0FB
:10578000DFED990AB4EEE00AF1EE10FA31DD974848
:105790000078401C9549087008460078012805D11A
:1057A000904890ED000A924880ED000A8F480078FA
:1057B00005281ED18B4890ED000A8D48D0ED000AD7
:1057C00030EE600ABDEEC00A8DED030A0398002892
:1057D00001DB039801E00398404205280ADA012121
:1057E000002005F097F900208049087003207449D3
:1057F000087089E000207D49087085E070480078D5
:1058000003280CD1774890ED000AF2EE040AB4EEBA
:10581000E00AF1EE10FA77D202206949087073E0CD
:105820006848008800F48040D8BB6D4890ED000ABD
:105830006C4880ED000A0A2102206A4A92ED000AB3
:105840000BF055F85D490870664890ED000ADFEDF1
:10585000660AB4EEE00AF1EE10FA3CDD5848007832
:1058600078BB62480078012806D15E4890ED000AB6
:105870005F4880ED000A28E05C480078052824D1C4
:10588000584890ED000A5A48D0ED000A30EE600A00
:10589000BDEEC00A8DED030A0398002802DB0398D1
:1058A00002E031E00398404205280BDA0121002094
:1058B00005F030F900204D4908700120404908707A
:1058C00003E008E000204949087048480078401C7F
:1058D0004649087018E0434890ED000ADFED420A9F
:1058E000B4EEE00AF1EE10FA0ED235480078012845
:1058F0000AD10020324908700021084605F00AF953
:105900000021334806F02CF903F0FBBA344890ED3F
:10591000000A384880ED000A90ED000AF3EE0E0A06
:10592000B4EEE00AF1EE10FA05DD012203210020B9
:105930000AF0A3FE04E00022032110460AF09DFEB7
:105940002D480078002869D12C4800780028FAD129
:105950002B48007820B1012869D002287ED19CE034
:10596000284890ED000A284880ED000A01202649C9
:1059700091ED000AFAF76DFF244880ED000A0A2134
:105980000120224A92ED000A0AF0B1FF0B4908708B
:105990001FA120480DF0F8FD1C4800680DF0C1FF64
:1059A000CDE902019DED020B53EC102B1A4905A81D
:1059B0000EF020FA05A932E07000002074000020EB
:1059C00014000020540500206D0500201800002060
:1059D000000C0040580500205C0500203800002025
:1059E000400400208C0000200000C8429C000020E1
:1059F00098000020900000200B00002012000020E2
:105A000008000020680400208800002078000020A2
:105A10004D200000840700206C37000851E1FE484B
:105A20000DF098FDFDA1FC480DF094FD6AE0FD48E5
:105A300090ED000AFC4880ED000A0120FA4991ED42
:105A4000000AFAF706FFF94880ED000A0A21012052
:105A5000F64A92ED000A0AF04AFF00E051E0F449EC
:105A60000870AFF25401EC480DF08EFDEF4800686D
:105A70000DF057FFCDE902019DED020B53EC102B09
:105A8000EC4905A80EF0B6F905A9E3480DF062FD52
:105A9000E9A1E1480DF05EFD34E0E94890ED000A2F
:105AA000E14880ED000A0120DF4991ED000AFAF794
:105AB000D0FEDE4880ED000A0A210120DB4A92ED8B
:105AC000000A0AF014FFDA490870AFF2BC01D248AC
:105AD0000DF05AFDD54800680DF023FFCDE9020115
