:020000040800F2
:1000000068750020418F0008D9700008DB70000877
:10001000DF700008E3700008E770000800000000CF
:10002000000000000000000000000000EB7000086D
:10003000ED70000800000000EF700008F17000088B
:100040005B8F00085B8F00085B8F00085B8F0008E8
:100050005B8F00085B8F00085B8F00085B8F0008D8
:100060005B8F00085B8F00085B8F00085B8F0008C8
:100070005B8F00085B8F00085B8F00085B8F0008B8
:100080005B8F00085B8F00085B8F00085B8F0008A8
:100090005B8F00085B8F00085B8F0008A17300086E
:1000A0005B8F00085B8F00085B8F00085B8F000888
:1000B00079720008D5730008437600085B8F00084A
:1000C0005B8F00085B8F00085B8F00085B8F000868
:1000D0005B8F00087B7200084B7300085B8F000881
:1000E0005B8F00085B8F00085B8F0008E5750008D8
:1000F000277600080B7600080000000000000000D2
:100100000000000000000000137100085B8F000871
:1001100000000000000000005B8F00085B8F0008FB
:100120005B8F00085B8F0008F37000085B8F00088E
:100130005B8F0008AF7600085B8F00085B8F0008BC
:100140005B8F0008000000000000000000000000BD
:10015000000000000000000000000000000000009F
:1001600000000000000000005B8F00085B8F0008AB
:100170005B8F0008000000005B8F0008000000009B
:10018000000000005B8F0008DFF80CD011F042FE89
:1001900000480047010200086875002010B50024DF
:1001A0000DF02FFF0BF04EFC0BF046FC0EF056FB53
:1001B0000EF083FB0EF0BBFB0DF0E5FF10F01FF916
:1001C0004FF4E13010F0B7FB4FF4FA700BF077FC0E
:1001D00010F073FA044610F035FA10F0D6F90FF06B
:1001E00044F810F0FFFB10F05AFC10F0FFFC10F088
:1001F0008FFC4FF4E16010F0BBFC10F01FFC10BD51
:10020000FFF7CCFF0EF045F82D490870084600783E
:10021000052820D10F20087001202A4908700020ED
:1002200010F00CF94FF47A700BF049FC002010F03C
:1002300005F94FF47A700BF042FC002010F0FEF844
:100240004FF47A700BF03BFC002010F0F7F84FF4FD
:100250007A700BF034FC1C48006820F470701A4966
:1002600008600121194809F0C5FE28E01848007807
:10027000012811D100201649087016480088401C3A
:10028000144908800846008841F21851884203D179
:100290000EF013FB0BF040FC0F480078012803D050
:1002A0000E480078012804D100200A49088000F097
:1002B00008FB00F0E7F802F0E1FD08F015FBD5E7D8
:1002C0000C05002000000020000401400004004054
:1002D0004205002002000020050500200605002040
:1002E0009FEDF70AF74880ED000A9FEDF50AF64802
:1002F00080ED000A9FEDF20AF44880ED000A9FEDC0
:10030000F00AF34880ED000A9FEDED0AF14880ED18
:10031000000A9FEDEB0AF04880ED000A9FEDE80A25
:10032000EE4880ED000A9FEDE60AED4880ED000AF8
:100330009FEDE30AEB4880ED000A704710B5EA48EC
:100340000078072810DC10F06FFC10F07BFC012116
:10035000E64809F06CFB0121E54809F068FB012142
:10036000E44809F047FE1BE0DF480078082817DB67
:10037000DD4800780F2813D010F05DFC10F069FC08
:100380000021DA4809F053FB0021D94809F04FFB5E
:100390000021D84809F02EFE0021D74809F02AFE96
:1003A00010BD10B5D0480078801F052865D2DFE861
:1003B00000F0031A1E364700D048007820B101280B
:1003C00006D002280CD107E004200FF064FF08E0FB
:1003D00003200FF060FF04E004200FF05CFF00E05A
:1003E00000BF00BF4AE004200FF055FF46E0C348BD
:1003F000007810B101280FD103E005200FF04BFF6A
:100400000BE0BF48007818B904200FF044FF02E069
:1004100012200FF040FF00E000BF00BF2EE0B74801
:10042000007810B1012808D103E009200FF033FF54
:1004300004E00A200FF02FFF00E000BF00BF1DE026
:10044000AE48007830B1012808D002280AD003282D
:1004500010D10BE007200FF01EFF0CE00B200FF077
:100460001AFF08E013200FF016FF04E013200FF02E
:1004700012FF00E000BF00BF00E000BF00BFFFF7B9
:100480005DFF10BD10B59F480078002875D19648D3
:100490000078801F052871D2DFE800F00315274798
:1004A0005E0063200EF0BAFFBCEEC00A10EE100A28
:1004B0009549087060200EF0B1FF944880ED000A65
:1004C0000CF04CF97AE063200EF0A8FFBCEEC00AF5
:1004D00010EE100A8C49087060200EF09FFF8B48C8
:1004E00080ED000A0CF03AF968E08548007830B9F0
:1004F00060200EF093FF854880ED000A14E08048EC
:100500000078012806D161200EF088FF7F4880ED39
:10051000000A09E07A480078022805D162200EF02E
:100520007DFF7B4880ED000A48E07448007810B1F8
:1005300001280ED106E060200EF070FF734880EDB8
:10054000000A07E060200EF069FF704880ED000AA5
:1005500000E000BF00BF31E06848007830B10128FA
:100560000DD0022812D0032824D116E060200EF00E
:1005700055FF664880ED000A1DE020E01DE0602088
:100580000EF04CFF614880ED000A14E060200EF090
:1005900045FF5E4880ED000A0DE060200EF03EFF52
:1005A0009FED5C1ADFED5C0A40EE010A5748C0ED92
:1005B000000A00E000BF00BF00E000BF00BF10BDA8
:1005C00010B55648007810B101280CD105E0002282
:1005D00002211D200EF0FDF806E0012202211D205F
:1005E0000EF0F7F800E000BF00BF10BD10B54C489A
:1005F000007820B101280DD0022821D115E0002279
:1006000011460A200EF0E5F8002201210A200EF022
:10061000E0F816E0002211460A200EF0DAF8012276
:1006200011460A200EF0D5F80BE0012200210A2025
:100630000EF0CFF8002201210A200EF0CAF800E0E7
:1006400000BF00BF10BD10B53648007810B10128BA
:100650000CD105E00022114609200EF0BAF806E0A0
:100660000122002109200EF0B4F800E000BF00BF15
:1006700010BD10B52C48007801280AD101220221B2
:100680001C200EF0A6F8002203211C200EF0A1F879
:1006900009E0002202211C200EF09BF80122032118
:1006A0001C200EF096F810BDF0EE400A01285DD136
:1006B0001B490978D1B301293AD0022954D145E028
:1006C0000000000014040020C804002018040020CA
:1006D000CC04002090000020880000208C00002026
:1006E000780000207C0000200A0500200060014006
:1006F00000640140005C0140000C00400800002044
:100700000F000020100000209D0000201C0500208C
:10071000200500206666E63F000000420900002038
:100720000A0000200C00002013000020FFE71CE05E
:10073000FD4991ED000AF4EEC00AF1EE10FA01DD78
:10074000C1ED000AF84991ED000A7047F74991EDB3
:10075000000AF4EEC00AF1EE10FA01D2C1ED000A6F
:10076000F24991ED000AF0E700BF28E0022826D107
:10077000EF49097821B1012903D002291DD10EE0EA
:100780001CE0EC4991ED000AF4EEC00AF1EE10FA1B
:1007900001DDC1ED000AE74991ED000AD5E7E64920
:1007A00091ED000AF4EEC00AF1EE10FA01D2C1EDAB
:1007B000000AE14991ED000AC7E700BF00BFB0EEB3
:1007C000600AC2E7F0EE400A012805D1DB4991ED4D
:1007D000000A30EEC00A7047022805D1D84991EDD1
:1007E000000A30EEC00AF6E700BFF4E700B5B0EE4D
:1007F000401A0246CE48007828B11046B0EE410AB1
:10080000FFF752FF00BDCF48007828B11046B0EE88
:10081000410AFFF7D7FFF5E7B0EE410AF2E700B56E
:10082000F0EE401A03461846B0EE610AFFF7DEFF0D
:100830009FEDC51AC0EE010AB0EE600A00BD10B50A
:10084000B0EE402A04462046B0EE420AFFF7E7FF2A
:100850009FEDBD1AC0EE010AB0EE600A10BD10B5E2
:1008600092230022422150200EF076FD50200EF0FF
:10087000A7FDB649087008460078012820D100205D
:100880000870512108460EF067FD51200EF098FDCA
:10089000AE49087008460078012811D10020087080
:1008A000AB48407800F0010028B1012203211D204F
:1008B0000DF08FFF04E0002203211D200DF089FFC1
:1008C00010BD10B52DED088BA2480078012856D137
:1008D000FFF706FD00209F4908700FF0AFFD0020D4
:1008E0009D490870924908709C49087095490870A4
:1008F0009B4908709B4908709B4908709B49087088
:100900009B490870002404E000209A490855601CA7
:10091000C4B2102CF8DB98480078801F052826D236
:10092000DFE800F0030B13191F002420914988739E
:1009300008200873802088721AE004208D4988738B
:10094000112048730420C87212E005208949887379
:10095000082008730CE001208649087020200873E5
:1009600006E02020834908730420887300E000BF5C
:1009700000BF0DF0C0FFFFF723FEFFF712FD7F4819
:100980000078012842F05382FFF7AAFC00207B493F
:1009900008700FF053FD78480078801F052882F01A
:1009A000E881DFE810F00500BA05D80BB80EB60FE5
:1009B0007348007801282CD16C480078012828D190
:1009C00070480078032824D06E480078052820D08D
:1009D00067480078E8B900206949087063490870E1
:1009E0000DF06BFF012211461D200DF0F2FE0122D9
:1009F00002211C200DF0EDFE0122032118200DF034
:100A0000E8FE0122032115200DF0E3FE00205E49DF
:100A100008705C48007806287ED2DFE800F003C248
:100A2000EFEEEDEC56480078012876D14B4800787F
:100A30000028FAD14A4800780028F6D14A480078C0
:100A40000028F2D14A4800780028EED138490870D1
:100A50003C490870434908704449087001204B49DB
:100A600008700DF02AFF3C48007820B1012806D01C
:100A700002280CD107E001203749087008E0022065
:100A80003549087004E000203349087000E000BFD9
:100A900000BF3148007820B1012812D0022877D158
:100AA00024E0012211461D200DF093FE01220321B6
:100AB00018200DF08EFE0122032115200DF089FE75
:100AC00067E0012200211C200DF083FE002201219D
:100AD0001D200DF07EFE0122032118200DF079FE6D
:100AE0000122032115200DF074FE52E001220021A5
:100AF0001C200DF06EFE012200211D200DF069FE6C
:100B0000012211461D200DF064FE01220321182050
:100B10000DF05FFE012201E0E8E341E00321152032
:100B20000DF057FE35E033E01C00002020000020CF
:100B30000A00002024000020280000202C000020B3
:100B4000300000200C00002000007A44170500202F
:100B5000486D002005050020080000200B00002043
:100B60000D0000200E0000200F00002012000020C9
:100B700010000020386D00200A0500200605002026
:100B8000070500200C0500201004002013000020A1
:100B900000BF00BFFFF72AFDFFF755FDFFF769FD16
:100BA0008FE2FB480078012856D1FA4800780028E7
:100BB00052D1F948007800284ED1F8480078002832
:100BC0004AD1F3490870F6490870F6490870F648AA
:100BD000007820B1012806D0022810D107E00120BA
:100BE000F14908700CE00220EF49087008E000208D
:100BF000ED49087004E0FDE336E363E2DDE000BFA9
:100C000000BFFFF7F3FCFFF71EFDE748007801285F
:100C100058D1E648007800BBE54890ED000AE54869
:100C2000D0ED000A30EE600AE34880ED000A90ED56
:100C3000000AE24880ED000AE14890ED000AE14830
:100C4000D0ED000A30EE600ADF4880ED000A90ED3A
:100C5000000ADE4880ED000A34E0D448007801281C
:100C600016D1D44890ED000AD34880ED000A90EDEB
:100C7000000AD24880ED000AD24890ED000AD2481E
:100C800080ED000A90ED000AD04880ED000A19E0DE
:100C9000C6480078022815D1C54890ED000AC6481C
:100CA00080ED000A90ED000AC44880ED000AC448B7
:100CB00090ED000AC44880ED000A90ED000AC34898
:100CC00080ED000AB2480078012820D1B1480078B0
:100CD000E8B1B2480078D0B90020AD490870B049F9
:100CE0000870B1480078012802D0022808D103E03A
:100CF0000220AD49087004E00120AB49087000E013
:100D000000BF00BFFFF772FCFFF79DFC54E0B04846
:100D10000078012850D1A0480078E8BBAD480078A1
:100D2000D0BBA0480078B8BB9C480078A0BB00208E
:100D3000A74908709A4908709B48007868B9954897
:100D4000007850B901209349087097490870012232
:100D5000114609200DF03DFD0CE08E48007848B1A9
:100D600000208C4908709049087000220121092058
:100D70000DF02FFDFFF73AFCFFF765FC8548007882
:100D8000012819D1944890ED000A8B4880ED000AA3
:100D9000924890ED000A00E00EE0884880ED000ADD
:100DA0008F4890ED000A884880ED000A8D4890ED4C
:100DB000000A864880ED000AACE3754800780128F7
:100DC0006AD174480078002866D1734800780028FA
:100DD00062D17248007800285ED16D49087072496E
:100DE0000870704908706E48007810B1012808D169
:100DF00003E001206A49087004E000206849087097
:100E000000E000BF00BFFFF71EFCFFF7EFFB6448E8
:100E10000078002873D065480078E0BB654800681A
:100E200010F0DCFD41EC1B0BB0EE4B0AF0EE6B0A50
:100E300011F0EAFCB0EE409AF0EE609A5C4800686F
:100E400010F0CCFD41EC1A0B53EC192B10F0B0FC58
:100E500041EC180B10F006FE634908605948006821
:100E600010F0BCFD41EC1B0BB0EE4B0AF0EE6B0A30
:100E700011F0CAFCB0EE409AF0EE609A504800685B
:100E800010F0ACFD41EC1A0B53EC192B10F090FC58
:100E900041EC180B01E005E04EE010F0E3FD534992
:100EA000086020E04148007801280CD1414890EDCD
:100EB000000A4D4880ED000A424890ED000A4B4878
:100EC00080ED000A0FE03948007802280BD138483D
:100ED00090ED000A444880ED000A394890ED000A80
:100EE000424880ED000A4248007848B93E4890EDFB
:100EF000000AF2EE040A20EE200A80ED000AE0E08B
:100F00003B480078012809D1374890ED000ADFED11
:100F1000390A20EE200A80ED000AD2E03448007839
:100F2000022808D1304890ED000A5FEDF90A20EE62
:100F3000200A80ED000AC4E025480078012825D168
:100F400014480078002821D12248007800281DD1BB
:100F500014480078002819D110480078B0B9002052
:100F60001B490870104908700D4908702249087023
:100F70001849087001202149087000202049087094
:100F80000548007818B1012844D13FE099E039E0E4
:100F9000070500200B0000200D000020100000209D
:100FA0000C000020120000200A0000200800002091
:100FB00014040020C80400201C0000202000002091
:100FC00018040020CC040020240000202800002069
:100FD000080500200F000020240400202C0400201D
:100FE00028040020300400202C00002030000020C5
:100FF0009D0000200000C8420E00002013000020C9
:10100000140000200120FC49087004E00020FA4987
:10101000087000E000BF00BFF748007810B1012859
:1010200047D113E0002203211B200DF0D2FB012247
:10103000032118200DF0CDFB0122032115200DF016
:10104000C8FB0021ED4808F0D5FF33E00022022163
:1010500010460DF0BEFB002202210A200DF0B9FB64
:10106000012203211B200DF0B4FB002203211820D4
:101070000DF0AFFB0022032115200DF0AAFB01208B
:101080000EF00FF802200EF00CF80121DB4808F0FA
:10109000B1FF0020DA4908800021084607F084FFEC
:1010A0001021D84809F07DFB0121D74808F0A2FFA4
:1010B00000E000BF00BFFFF7C6FAFFF797FAFFF79F
:1010C000D8FA27E2D1480078012866D1D0480078C4
:1010D000C0BBC9480078A8BBCE48007890BBCE48BA
:1010E000007878BBCD48007860BB0020C749087005
:1010F000CB490870CB490870CB480078012812D141
:101100000020C94908705B2108460EF025F95B20D4
:101110000EF056F9C549087008460078012835D107
:101120000020087032E0C248007806282CD2DFE8A0
:1011300000F0030A10171E250120BD4908700FF0AA
:10114000C2F822E029E00220B94908700FF0BBF88C
:101150001BE00320B649087000200FF0B4F814E03B
:101160000420B349087001200FF0ADF80DE0052010
:10117000AF49087002200FF0A6F806E00020AC4945
:1011800008700FF0A0F800E000BF00BFFFF771FA91
:10119000FFF759FAFFF72AFA65E09C480078012822
:1011A00034D19D480078012830D19C48007868BB34
:1011B0000020964908709F49087001200DF07AFFC1
:1011C0009B48007810B1012808D103E0012098491C
:1011D000087004E000209649087000E000BF00BFDE
:1011E0009348007810B101280ED106E003210220B7
:1011F0009FED910A0DF027FC07E0042102209FEDEE
:101200008F0A0DF020FC00E000BF2CE08C48007835
:10121000012828D17E48007828BB8048007810BB80
:101220000020874908708048007801281BD00120E1
:101230007D4908705A2108460EF08EF85A200EF0AB
:10124000BFF87A49087008460078012801D10020CB
:101250000870012202211C200DF0BBFA002203219C
:101260001C200DF0B6FA55E16848007801283CD101
:1012700067480078C8BB60480078B0BB6748007812
:1012800098BB00206149087065490870654908707D
:10129000674908700120644908700DF00EFB5D4835
:1012A000007830B1012808D002280AD0032810D1D4
:1012B0000BE00120574908700CE0022055490870E6
:1012C00008E003205349087004E0002051490870E9
:1012D00000E000BF00BF4F48007840B1012811D0A6
:1012E00002281AD0032829D122E056E011E1012278
:1012F000032118200DF06DFA0122032115200DF0B5
:1013000068FA1CE00122002113200DF062FA01228C
:10131000002115200DF05DFA11E0012200211320BB
:101320000DF057FA0122002114200DF052FA06E0C8
:101330000122114616200DF04CFA00E000BF00BF5C
:101340004048007820B1012808D002281CD10BE0C9
:10135000012211461D200DF03CFA16E00122002169
:101360001C200DF036FA10E0012200211C200DF0A7
:1013700030FA012200211D200DF02BFA0122114626
:101380001D200DF026FA00E000BF00BFFFF72EF988
:10139000FFF759F9FFF76DF96DE02948007801284A
:1013A00069D11B48007830BB1348007818BB194836
:1013B000007800BB18480078E8B918480078D0B920
:1013C00000201F490870164908701649087018490E
:1013D00008701049087001200F4908701249087000
:1013E0000DF06BFA0122022117200DF0F2F9012213
:1013F000002129E040E03EE00D00002000200040F8
:1014000028050020000C0040005C0140070500207A
:101410000B0000200F000020120000201000002010
:101420000A0000200C0000201300002017050020F7
:101430000E00002010040020000016440000FA44B2
:1014400008050020080000201A200DF0C2F9012232
:10145000032115200DF0BDF901200DF02BFE032115
:1014600002201FED0B0A0DF0EEFAFFF7ECF8FFF784
:10147000BDF8FFF7FEF84DE0FB480078012826D1C3
:101480000020F9490870F948007810B1012808D106
:1014900003E00120F549087004E00020F3490870DA
:1014A00000E000BF00BFF148007810B101280CD166
:1014B00005E0002201211C200DF08BF906E001223D
:1014C00011461C200DF085F900E000BF20E0E8483F
:1014D000007801281CD10020E5490870E548007813
:1014E00010B1012808D103E00120E249087004E0AE
:1014F0000020E049087000E000BF00BFDD48007830
:1015000010B1012802D100E001E000E000BF00BFFF
:1015100000E000BF00BF01F02DBCD74800780628CE
:101520007CD2DFE800F003C1FCFBFAF9CE4800787A
:10153000012861D1D1480078D0BBD1480078B8BB30
:10154000CA480078A0BB0020CE490870CE49087078
:10155000CE490870CE48007820B1012806D0022874
:101560000CD107E00120CA49087008E00220C849F0
:10157000087004E00020C649087000E000BF00BF0A
:10158000C348007820B1012813D002282CD120E0D4
:101590000022012117200DF01CF9012200211A2040
:1015A0000DF017F9012200211B200DF012F91CE0AB
:1015B00022E0002211461A200DF00BF900221146FC
:1015C0001B200DF006F90122002119200DF001F970
:1015D0000BE00022114619200DF0FBF80122114604
:1015E00017200DF0F6F800E000BF00BFFEF7FEFF89
:1015F000FFF729F8FFF73DF89B480078012852D102
:101600009E48007888B39948007870BBA04800785D
:1016100028B1012807D002280DD108E0EFE301200E
:101620009B49087008E002209949087004E00020F6
:101630009749087000E000BF00BF9548007820B1CE
:10164000012813D002282CD120E0002201211720EC
:101650000DF0BFF8012200211A200DF0BAF8012286
:1016600000211B200DF0B5F81CE01CE00022114603
:101670001A200DF0AEF8002211461B200DF0A9F83B
:101680000122002119200DF0A4F80BE000221146E0
:1016900019200DF09EF80122114617200DF099F83F
:1016A00000E000BF00BF8AE36F480078012837D10F
:1016B00072480078A0BB6D48007888BB00206A495A
:1016C0000870714908706F48007820B1012806D071
:1016D00002280CD107E001206A49087008E00220C6
:1016E0006849087004E000206649087000E000BF07
:1016F00000BFFEF77BFFFEF7A6FF624800780128D7
:1017000070D15F48007880BB6148007848B10128FB
:1017100013D002282AD11CE0EFE352E350E36AE140
:10172000DBE05C4890ED000A5B4880ED000A90ED3C
:10173000000A5A4880ED000A19E0594890ED000A65
:10174000554880ED000A90ED000A544880ED000AEB
:101750000DE0544890ED000A4F4880ED000A90EDEE
:10176000000A4E4880ED000A01E03EE000BF00BFE5
:101770004D48007830B1012810D002281AD0032833
:1017800031D123E0494890ED000A494880ED000A34
:1017900090ED000A474880ED000A25E0464890EDAC
:1017A000000A434880ED000A90ED000A414880EDB0
:1017B000000A19E0414890ED000A3D4880ED000A1A
:1017C00090ED000A3B4880ED000A0DE03C4890EDAA
:1017D000000A374880ED000A90ED000A354880ED98
:1017E000000A01E03FE000BF04E12548007801283D
:1017F00039D12D48007830B1012810D002281AD0F4
:10180000032868D123E02F4890ED000A224880ED9C
:10181000000A90ED000A214880ED000A5CE02A48A9
:1018200090ED000A1C4880ED000A90ED000A1B486C
:1018300080ED000A50E0254890ED000A164880ED42
:10184000000A90ED000A154880ED000A44E02048A7
:1018500090ED000A104880ED000A90ED000A0F4854
:1018600080ED000A38E076E0070500201000002037
:1018700008050020110000200C0500200B000020AE
:10188000120000200A0000200C0000200E000020A2
:10189000080000203C0400201C0000202000002044
:1018A00040040020440400200F00002058040020C1
:1018B00024000020280000205C0400207404002084
:1018C00070040020480400204C0400205004002034
:1018D00054040020FFE700BF8CE0FB48007801289B
:1018E00039D1FA480078B0BBF948007898BB00209D
:1018F000F5490870F7490870F7490870F74908700A
:101900000CF0DBFFF648007810B1012808D103E0A5
:101910000120F349087004E00020F149087000E05C
:1019200000BF00BFEE48007810B101285CD12BE069
:10193000EC48007820B101280ED0022818D111E01F
:10194000012200211A200CF044FF012200211B205B
:101950000CF03FFF0DE04DE00122002119200CF0BA
:1019600038FF06E00122114617200CF032FF00E09C
:1019700000BF00BF0122022116200CF02AFF002127
:10198000D94808F037FB30E00122032109200CF090
:1019900020FF012200210B200CF01BFFD148007812
:1019A00020B101280DD0022817D110E0012200211A
:1019B0001A200CF00EFF012200211B200CF009FF61
:1019C0000CE00122002119200CF003FF06E00122A7
:1019D000114617200CF0FDFE00E000BF00BF012102
:1019E000C14808F007FB00E000BF00BFFEF72BFE78
:1019F000FEF73FFEADE3BD480078012833D1B8487B
:101A0000007880BBB248007868BB0020B7490870F6
:101A1000AE490870AF48007810B1012808D103E042
:101A20000120AC49087004E00020AA49087000E0D9
:101A300000BF00BFFEF707FEFEF7D8FDA5480078FF
:101A400088B1AB48007880BBA648007820B1012857
:101A50000AD0022816D10EE0A64890ED000AA6484A
:101A600080ED000A0FE064E0A44890ED000AA2486F
:101A700080ED000A07E0A24890ED000A9E4880ED44
:101A8000000A00E000BF00BF9348007830B1012891
:101A90000CD0022811D003281DD115E0994890EDF3
:101AA000000A994880ED000A16E016E0974890ED8C
:101AB000000A954880ED000A0EE0954890ED000A76
:101AC000914880ED000A07E0924890ED000A8E48A8
:101AD00080ED000A00E000BF2BE085480078012877
:101AE00027D17D48007830B101280BD0022810D0D2
:101AF00003281CD114E0884890ED000A7E4880ED50
:101B0000000A15E0854890ED000A7B4880ED000A48
:101B10000EE0834890ED000A774880ED000A07E068
:101B2000804890ED000A744880ED000A00E000BF94
:101B300000BF6E48007801283CD169480078012830
:101B400038D163480078A8BB64480078072878D269
:101B5000DFE800F0041A31787C80840001205F49BE
:101B60000870644890ED000A6F4880ED000A6348F1
:101B700090ED000A6D4880ED000A614890ED000A82
:101B80006B4880ED000A6EE0022054490870594805
:101B900090ED000A674880ED000A584890ED000A71
:101BA000654880ED000A564890ED000A634880EDD4
:101BB000000A58E0EFE00320484908704D4890EDD6
:101BC000000A5F4880ED000A4C4890ED000A5D482D
:101BD00080ED000A4A4890ED000A5B4880ED000A5B
:101BE000514890ED000A5348D0ED000A30EE200A2B
:101BF0005348D0ED000A30EE200A544880ED000A28
:101C00004A4890ED000A4C48D0ED000A30EE200A18
:101C10004C48D0ED000A30EE200A4D4880ED000A15
:101C2000434890ED000A4548D0ED000A30EE200A06
:101C30004548D0ED000A30EE200A464880ED000A03
:101C400011E00FE00420254908700CE0052023492D
:101C5000087008E006202149087004E003201F49AD
:101C6000087000E000BF00BF1C480078072873D24E
:101C7000DFE800F004050B11737E89008AE0002282
:101C8000032109200CF0A5FD84E0002203210A2095
:101C90000CF09FFD7EE00022022109200CF099FD4E
:101CA000002201210B200CF094FD012203210920C8
:101CB0000CF08FFD012200210B200CF08AFD002189
:101CC000094808F097F965E0080500200A0000209F
:101CD000100000200C0000200F0000200D0000204C
:101CE0000B00002008000020002000400705002015
:101CF000120000203C0400202C00002040040020A2
:101D00004404002058040020300000205C0400201F
:101D10007404002070040020480400204C040020BB
:101D200050040020540400203C000020400000200B
:101D300044000020480000204C00002050000020FB
:101D400054000020580000205C00002060000020AB
:101D500064000020680000201BE00022032109200D
:101D60000CF037FD012203210A200CF032FD11E0B6
:101D7000002203210A200CF02CFD012211460B2029
:101D80000CF027FD06E00122022109200CF021FDC4
:101D900000E000BF13E0FE48007801280FD1FD48A5
:101DA000007860B9FC48007848B90020F84908700C
:101DB00001200DF06CF94FF47A7009F080FEC8E153
:101DC000C7E1F648007801286BD1F248007878BB6B
:101DD000F348007860BBF048007848BB0020EF492A
:101DE0000870F048007830B1012809D002280BD0E3
:101DF000032811D10CE00120EA4908700DE0A7E1A9
:101E00000220E849087008E00320E649087004E071
:101E10000020E449087000E000BF00BFE1480078FE
:101E200038B1012815D0022819D0032837D12BE06A
:101E300037E00022114613200CF0CBFC00221146A3
:101E400014200CF0C6FC0122022116200CF0C1FC6B
:101E500026E00122032116200CF0BBFC20E000222A
:101E6000032116200CF0B5FC0022022116200CF0F4
:101E7000B0FC0122002113200CF0ABFC0122002158
:101E800015200CF0A6FC0BE00022114615200CF0EA
:101E9000A0FC0122002114200CF09BFC00E000BFFC
:101EA00008E1BE480078012844D1BD4800780128E7
:101EB00040D1B9480078E8BB0020B8490870BA4959
:101EC0000870BA490870B748007830B1012808D0C6
:101ED00002280AD0032811D10BE00120B149087073
:101EE0000DE00220AF49087009E00320AD490870F9
:101EF00005E00020AB49087001E0DCE000BF00BF56
:101F0000A848007830B101281BD0022829D0032826
:101F100056D140E00122002108200CF05AFC012299
:101F2000002119200CF055FC0122002118200CF092
:101F300050FC00E04DE00022032117200CF049FC8A
:101F40003FE0012200211A200CF043FC0122002175
:101F50001B200CF03EFC0022114619200CF039FC2D
:101F60002FE00122022118200CF033FC012211463F
:101F700017200CF02EFC0022114608200CF029FC42
:101F8000002211461A200CF024FC002211461B20CE
:101F90000CF01FFC15E00122032117200CF019FCA6
:101FA0000022022118200CF014FC0022012117202D
:101FB0000CF00FFC0022114618200CF00AFC00E087
:101FC00000BF00BFFEF712FBFEF73DFBFEF751FB23
:101FD00070E06F48007801286CD16E48007880BBB3
:101FE0006D48007868BB0020694908707049087026
:101FF0006D4908706D4908706E490870694908702C
:102000006D4908809FED6D0A6D4880ED000A9FEDD7
:102010006B0A6C4880ED000A9FED680A6A4880ED03
:10202000000A0CF04AFC5E48007810B1012809D182
:1020300003E001205A49087005E000205849087063
:1020400001E037E000BF00BF5548007810B101281B
:1020500028D113E0012200211A200CF0BAFB012242
:1020600000211B200CF0B5FB0122022116200CF0F0
:10207000B0FB0021554807F0BDFF14E0012200210C
:1020800008200CF0A6FB0122002119200CF0A1FB76
:102090000122002118200CF09CFB01214B4807F085
:1020A000A9FF00E000BF00BFFEF7A0FAFEF7CBFAE1
:1020B000FEF7DFFA4DE039480078012826D10020EC
:1020C000364908703448007810B1012808D103E07F
:1020D00001203149087004E000202F49087000E019
:1020E00000BF00BF2C48007810B101280CD105E0DA
:1020F000002201211C200CF06CFB06E0012211469D
:102100001C200CF066FB00E000BF20E020480078B7
:1021100001281CD100201E4908702D48007810B1FC
:10212000012808D103E001202949087004E00020BB
:102130002749087000E000BF00BF2548007810B1B3
:10214000012802D100E001E000E000BF00BF00E094
:1021500000BF00BFDEE21F480078062877D2DFE824
:1021600000F00377BDE7FEFD0C48007801286DD133
:102170000C48007890BB0848007878BB00200A49DA
:1021800008700A4908700B4908700120124926E0BE
:10219000080500200B00002010000020070500208B
:1021A000120000200F0000200A0000200C00002078
:1021B000080000200E0000203E0500200000000066
:1021C000480400204C040020500400200018004067
:1021D000110000200C0500201300002036E00870DC
:1021E0000CF06BFBF748007810B1012808D103E030
:1021F0000120F449087004E00020F249087000E072
:1022000000BF00BFEF48007810B1012816D10AE0E6
:10221000012200211C200CF0DCFA012203211820ED
:102220000CF0D7FA0BE0012211461D200CF0D1FA78
:102230000122032118200CF0CCFA00E000BF00BFFF
:10224000FEF7D4F9FEF7FFF9FEF713FA61E25FE259
:10225000DD480078012840D1DC48007888BB0020A8
:10226000D9490870DA490870DA48007820B10128A5
:1022700006D002280CD107E00120D649087008E0FA
:102280000220D449087004E00020D249087000E020
:1022900000BF00BFFEF7AAF9FEF7D5F9CD480078D8
:1022A00001281AD1CC48007802280BD0CB4890EDF9
:1022B000000ACB4880ED000A90ED000AC94880ED85
:1022C000000A0AE0C84890ED000AC84880ED000AFC
:1022D00090ED000AC64880ED000A1AE2BA4800787C
:1022E000012824D1B948007808BB0020B6490870FD
:1022F000B8490870B648007810B1012808D103E049
:102300000120B349087004E00020B149087000E0E2
:1023100000BF00BFFEF797F9FEF768F9AC480078F8
:1023200028B1AE4890ED000AB24880ED000AF0E115
:10233000A548007801283BD1A7480078C0BBA34836
:102340000078A8BB0020A0490870A2490870A049E5
:1023500008709C48007828B1012801E08BE114E165
:102360007FD141E0A4480078012812D10020A24981
:1023700008705B2108460CF0EFFF5B200DF020F8A1
:102380009E4908700846007801282CD1002008706A
:1023900029E09B480078052823D2DFE800F0030AF3
:1023A00010161C000120964908700DF08CFF19E0F2
:1023B00060E00220924908700DF085FF12E00320D2
:1023C0008F4908700DF07FFF0CE004208C490870E5
:1023D0000DF079FF06E00020894908700DF073FFC9
:1023E00000E000BF00BF3DE083480078012812D123
:1023F0000020814908705B2108460CF0ADFF5B208E
:102400000CF0DEFF7D49087008460078012827D1CE
:102410000020087024E07A48007830B101280AD002
:1024200002280FD0032819D112E001207449087046
:102430000DF049FF13E00220714908700DF043FFD1
:102440000DE00EE003206E4908700DF03CFF06E041
:1024500000206B4908700DF036FF00E000BF00BFA0
:1024600000E000BF00BFFEF704F9FEF7ECF8FEF74E
:10247000BDF889E05448007801285BD156480078BF
:10248000012857D15148007890BB00204E49087070
:10249000504908704E49087057480078012812D1F9
:1024A0000020554908705B2108460CF055FF5B2061
:1024B0000CF086FF5149087008460078012832D197
:1024C000002008702FE04E480078062829D2DFE867
:1024D00000F0030910161C220120494908700DF074
:1024E000F2FE1FE00220464908700DF0ECFE19E0F4
:1024F00020E00320424908700DF0E5FE12E00420C0
:102500003F4908700DF0DFFE0CE005203C490870E3
:102510000DF0D9FE06E00020394908700DF0D3FE19
:1025200000E000BF00BFFEF7A4F8FEF78CF8FEF74E
:102530005DF829E033480078012825D12348007848
:1025400010BB00202F4908702B48007801281BD0B1
:102550000120294908705A2108460CF0FDFE5A2036
:102560000CF02EFF2549087008460078012801D19B
:1025700000200870012202211C200CF02AF9002200
:1025800003211C200CF025F9C3E00F480078012836
:1025900070D10C48007801286CD10C48007880B9C3
:1025A00000200C4908700A490870154908700CF0A1
:1025B00084F90948007838B301282AD0022830D19C
:1025C0002BE057E008000020070500201000002045
:1025D0000C0000200A0000200F0000201C05002035
:1025E0001C000020200000202005002024000020E6
:1025F000280000202C0000201300002017050020D8
:102600000E00002008050020FFE70120FE490870A9
:1026100008E00220FC49087004E00020FA49087034
:1026200000E000BF00BFF848007828B9012203216C
:1026300018200CF0CEF812E0F3480078012805D1FC
:102640000122114618200CF0C4F808E0EE4800788A
:10265000022804D10122114614200CF0BAF80122FC
:1026600011461D200CF0B5F8FDF7C0FFFDF7EBFF9C
:10267000FDF7FFFF4DE0E5480078012826D1002056
:10268000E2490870E248007810B1012808D103E05F
:102690000120DF49087004E00020DD49087000E0F7
:1026A00000BF00BFDA48007810B101280CD105E066
:1026B000002201211C200CF08CF806E001221146BA
:1026C0001C200CF086F800E000BF20E0D148007824
:1026D00001281CD10020CF490870CF48007810B1E4
:1026E000012808D103E00120CB49087004E0002054
:1026F000C949087000E000BF00BFC748007810B1AA
:10270000012802D100E001E000E000BF00BF00E0CE
:1027100000BF00BF2EE3C148007806287CD2DFE866
:1027200000F003457CA6A7A8B848007801283CD152
:10273000B748007890BB0020B9490870B9490870C3
:102740000CF0BBF8B848007810B1012808D103E0BC
:102750000120B549087004E00020B349087000E08A
:1027600000BF00BFB048007810B1012817D10AE0BF
:102770000122002108460CF02CF8012211461920F4
:102780000CF027F80CE00122114600200CF021F893
:102790000122032118200CF01CF801E005E000BF25
:1027A00000BFFDF723FFFDF74EFFB0E0974800782C
:1027B000012830D19648007868BB00209349087002
:1027C000984908709648007820B1012806D0022860
:1027D0000CD107E001209249087008E002209049DE
:1027E000087004E000208E49087000E000BF00BFC0
:1027F000FDF7FCFEFDF727FF8948007801280AD184
:102800008A4890ED000A8A4880ED000A90ED000A9F
:10281000884880ED000A7AE078E07C48007801285A
:1028200024D17B48007808BB0020784908707C4997
:1028300008707C48007810B1012808D103E001201D
:102840007849087004E000207649087000E000BF75
:1028500000BFFDF7F8FEFDF7C9FE7248007828B109
:10286000724890ED000A744880ED000A4FE04EE097
:102870004DE066480078012826D1002063490870A1
:102880006348007810B1012808D103E001206049B5
:10289000087004E000205E49087000E000BF00BF3F
:1028A0005B48007810B101280CD105E0002201211D
:1028B0001C200BF08EFF06E0012211461C200BF0BD
:1028C00088FF00E000BF20E05248007801281CD1BA
:1028D0000020504908705048007810B1012808D1F4
:1028E00003E001204C49087004E000204A490870C8
:1028F00000E000BF00BF4848007810B1012802D1B5
:1029000000E001E000E000BF00BF00E000BF00BF4A
:1029100030E242480078062874D2DFE800F0036312
:10292000BAE4FDFC3948007801285AD138480078CB
:1029300088BB00203A4908703A4908703F4908703E
:1029400001203F4908700BF0B8FF3748007830B1DC
:10295000012808D002280AD0032810D10BE001205A
:10296000314908700CE002202F49087008E003206C
:102970002D49087004E000202B49087000E000BFDA
:1029800000BF2948007838B1012810D0022814D09F
:1029900003281ED117E024E00122114619200BF074
:1029A00018FF012202211C200BF013FF12E001226C
:1029B000032119200BF00DFF0CE001221146152018
:1029C0000BF007FF06E00122002116200BF001FFAB
:1029D00000E000BF00BFFDF709FEFDF734FEFDF784
:1029E00048FEC4E109480078012851D10848007820
:1029F00048B90020054908700A490870084800785D
:102A000028B31FE0B2E143E00F00002007050020DB
:102A10001000002008050020110000200C050020F7
:102A20000A0000200C000020080000201C050020E7
:102A30001C000020200000202C0000200E000020A0
:102A400013000020012806D002280CD107E0012045
:102A5000F849087008E00220F649087004E00020F8
:102A6000F449087000E000BF00BFFDF7BFFDFDF7AF
:102A7000EAFDF048007801280AD1EF4890ED000AFD
:102A8000EE4880ED000A90ED000AED4880ED000A66
:102A90006DE1EC480078012824D1EB48007808BBB0
:102AA0000020E8490870E3490870E848007810B150
:102AB000012808D103E00120E449087004E0002067
:102AC000E249087000E000BF00BFFDF7BCFDFDF764
:102AD0008DFDDE48007828B1D74890ED000ADC482B
:102AE00080ED000A43E1D748007801283BD1D64861
:102AF0000078C0BB0020D3490870CE490870D34984
:102B00000870D448007840B101284ED0022874D013
:102B1000032873D1A7E0DCE0DAE0CF480078012891
:102B200012D10020CC4908705B2108460CF014FC3F
:102B30005B200CF045FCC949087008460078012864
:102B400032D1002008702FE0C5480078062829D22D
:102B5000DFE800F0030A10161C220120C0490870AB
:102B60000DF0B1FB1FE088E00220BD4908700DF0B8
:102B7000AAFB18E00320BA4908700DF0A4FB12E08C
:102B80000420B74908700DF09EFB0CE00520B44905
:102B900008700DF098FB06E00020B14908700DF0B8
:102BA00092FB00E000BF00BF5FE0AB480078012867
:102BB00012D10020A84908705B2108460CF0CCFB1C
:102BC0005B200CF0FDFBA549087008460078012841
:102BD00047D10020087044E0A148007808283ED280
:102BE000DFE800F0040D141B2229303701209C4936
:102BF000087000200DF067FB32E033E034E0022083
:102C00009749087000200DF05EFB29E003209449ED
:102C1000087001200DF057FB22E004209049087055
:102C200002200DF050FB1BE005208D4908700220AA
:102C30000DF049FB14E006208949087003200DF0CF
:102C400042FB0DE007208649087003200DF03BFB96
:102C500006E00020824908700DF035FB00E000BF5F
:102C600000BF02E001E000E000BF00BFFDF701FD92
:102C7000FDF7E9FCFDF7BAFC29E07A480078012865
:102C800025D17148007810BB002076490870724841
:102C9000007801281BD001206F4908705A2108468E
:102CA0000CF05AFB5A200CF08BFB6C49087008465C
:102CB0000078012801D100200870012202211C2087
:102CC0000BF087FD002203211C200BF082FD4EE05B
:102CD0004DE05C480078012826D100205949087051
:102CE0005948007810B1012808D103E00120564965
:102CF000087004E000205449087000E000BF00BFE5
:102D00005148007810B101280CD105E000220121C2
:102D10001C200BF05EFD06E0012211461C200BF08A
:102D200058FD00E000BF20E04E48007801281CD18B
:102D300000204C4908704C48007810B1012808D197
:102D400003E001204849087004E00020464908706B
:102D500000E000BF00BF4448007810B1012802D154
:102D600000E001E000E000BF00BF00E000BF00BFE6
:102D700000E000BF00BF3D48007838BB394800780C
:102D8000012823D13048007800BB00203549087065
:102D90003748007810B1012808D103E001203449F8
:102DA000087004E000203249087000E000BF00BF56
:102DB0002F48007810B1012806D102E00DF057FF2E
:102DC00003E00DF04DFF00E000BF00BFFDF7F8FB92
:102DD0002648007898B91B48007801280FD11A4876
:102DE000007860B900201749087022480078082848
:102DF00002D121480078D0B9FDF7D3FA17E01D4879
:102E00000078082813D11948007804280FD10D48FC
:102E1000007801280BD10F480078012807D10A4813
:102E2000007820B9002007490870FDF7BAFABDEC18
:102E3000088B10BD0A0000201C0500201C0000208B
:102E40002000002007050020100000200C000020BA
:102E50002C0000200800002013000020170500208F
:102E60000E00002008050020110000200C050020A5
:102E7000090000200A0500200F00002000B589B0DD
:102E8000FB480078002844F01081FDF7E8FCF94881
:102E90000078801F052884F00681DFE810F0050027
:102EA000FD0C4B104A18B918F34890ED000AF3488E
:102EB00080ED000A90ED000AF3EE0E0AB4EEE00A8F
:102EC000F1EE10FA05DD0122032100200BF081FC58
:102ED00004E00022032110460BF07BFCE848007858
:102EE000002841F08681E74800780028F9D1E648BB
:102EF00000780028F5D1E54800780028F1D1E448B1
:102F0000007800287ED1DC4890ED000AE14880ED91
:102F1000000AE14890ED000AE04880ED000A012037
:102F2000DC4991ED000AFDF761FCDD4880ED000A07
:102F30000220DA4991ED000AFDF758FCD94880EDEE
:102F4000000AD948007806287DD2DFE800F0035F48
:102F5000DEFDFCFBD5480078012842D1CD4890ED3C
:102F6000000AF1EE080AB4EEE00AF1EE10FA09D810
:102F700001210846CA4A92ED000A0BF064FDCC49D3
:102F800008700CE001200CF095F8012200210220CD
:102F90000BF01FFCC4480078401CC3490870BF48B0
:102FA00090ED000ADFEDC30AB4EEE00AF1EE10FA8C
:102FB00009D803210220BB4A92ED000A0BF043FD21
:102FC000BB49087021E002200CF074F801220021B6
:102FD00011200BF0FEFBB4480078C01CB249087009
:102FE00013E001210846AE4A92ED000A0BF02BFDDA
:102FF000AF49087003210220AA4A92ED000A0BF0A3
:1030000022FD00E08DE2AA49087088E2A748007816
:10301000012867D19F4890ED000ADFEDA70AB4EEC2
:10302000E00AF1EE10FA14D890ED000AF1EE080A69
:10303000B4EEE00AF1EE10FA0BDD02210120984A0D
:1030400092ED000A00E069E20BF0FDFC984908707F
:1030500026E0904890ED000AF1EE080AB4EEE00A8E
:10306000F1EE10FA05D890480078401E8E4908709D
:103070000EE0884890ED000ADFED8F0AB4EEE00A1A
:10308000F1EE10FA04DD88480078401C864908708B
:1030900001200CF00FF80122002104200BF099FB15
:1030A0007E4890ED000ADFED830AB4EEE00AF1EE0F
:1030B00010FA09D8032102207A4A92ED000A0BF097
:1030C000C2FC7B4908701FE002200BF0F3FF0122D5
:1030D000002111200BF07DFB73480078C01C724961
:1030E000087011E0022101206D4A92ED000A0BF0F8
:1030F000AAFC6F490870032102206A4A92ED000A77
:103100000BF0A1FC6A49087009E2684800780128C0
:1031100059D1604890ED000ADFED660AB4EEE00A8E
:10312000F1EE10FA16D890ED000ADFED630AB4EE66
:10313000E00AF1EE10FA0DDD03210120584A92ED6C
:10314000000A02E06FE1E2E050E00BF07CFC58493D
:10315000087016E04F4890ED000ADFED570AB4EE14
:10316000E00AF1EE10FA04D84F480078401E4E49AC
:10317000087001200BF09EFF0122002106200BF0B9
:1031800028FB464890ED000ADFED4A0AB4EEE00A5B
:10319000F1EE10FA09D803210220424A92ED000A0A
:1031A0000BF051FC424908701FE002200BF082FF37
:1031B0000122002111200BF00CFB3B480078C01CC1
:1031C0003949087011E003210120354A92ED000AC7
:1031D0000BF039FC3649087003210220314A92ED88
:1031E000000A0BF030FC3249087098E12F48007853
:1031F000012879D1274890ED000AF1EE080AB4EED3
:10320000E00AF1EE10FA09D801210846244A92EDAD
:10321000000A0BF018FC264908700CE001200BF0A6
:1032200049FF0122002102200BF0D3FA1E4800784A
:10323000401C1D490870194890ED000ADFED1F0A77
:10324000B4EEE00AF1EE10FA3AD890ED000ADFEDA4
:10325000190AB4EEE00AF1EE10FA31DD0421022081
:10326000104A92ED000A0BF0EEFB114908704DE098
:10327000100000200A050020140400209000002007
:103280000F000020120000200B0000200D00002085
:103290000800002088000020180400208C00002076
:1032A000780000207C0000200E0000201300002089
:1032B0007400002000001644000070420000FA4430
:1032C000FE4890ED000A5FED050AB4EEE00AF1EE6B
:1032D00010FA1BD802200BF0EDFEF9480078C01E52
:1032E000F749087012E0FFE701210846F54A92ED20
:1032F000000A0BF0A8FBF449087004210220F34AED
:1033000092ED000A0BF09FFBEF49087007E1F048CF
:103310000078012874D1EF4890ED000A5FED1A0A99
:10332000B4EEE00AF1EE10FA12D890ED000AF1EED8
:10333000080AB4EEE00AF1EE10FA09DD02210120DC
:10334000E04A92ED000A0BF07EFBDF49087026E0B0
:10335000E04890ED000AF1EE080AB4EEE00AF1EE62
:1033600010FA05D8D6480078401ED54908700EE0FE
:10337000D84890ED000A5FED300AB4EEE00AF1EEB5
:1033800010FA04DDCE480078401CCD4908700120B9
:103390000BF090FE0122002104200BF01AFAC7481E
:1033A00090ED000A5FED3B0AB4EEE00AF1EE10FA90
:1033B00012D890ED000A5FED410AB4EEE00AF1EE9A
:1033C00010FA09DD04210220C04A92ED000A0BF038
:1033D0003AFBBD49087025E0B84890ED000A5FED62
:1033E0004B0AB4EEE00AF1EE10FA1BD802200BF003
:1033F00061FEB3480078C01EB149087012E0FFE7D3
:1034000002210120AF4A92ED000A0BF01CFBAE49ED
:10341000087004210220AD4A92ED000A0BF013FB64
:10342000A94908707BE0AA480078012863D1A9481F
:1034300090ED000A5FED610AB4EEE00AF1EE10FAD9
:1034400012D890ED000A5FED640AB4EEE00AF1EEE6
:1034500010FA09DD032101209A4A92ED000A0BF0CF
:10346000F2FA9949087016E09A4890ED000A5FED6B
:103470006E0AB4EEE00AF1EE10FA04D89048007833
:10348000401E8F49087001200BF014FE012200211C
:1034900006200BF09EF9894890ED000A5FED790A4D
:1034A000B4EEE00AF1EE10FA12D890ED000A5FEDEA
:1034B0007F0AB4EEE00AF1EE10FA09DD04210220E1
:1034C000824A92ED000A0BF0BEFA7F49087024E0B0
:1034D0007A4890ED000A5FED890AB4EEE00AF1EE59
:1034E00010FA1AD802200BF0E5FD75480078C01ECE
:1034F0007349087011E003210120724A92ED000A1D
:103500000BF0A1FA70490870042102206F4A92ED75
:10351000000A0BF098FA6C49087000E000BF01F057
:10352000B9B96D480078012873D16C4890ED000A54
:10353000684880ED000A6A4890ED000A5F4880ED17
:10354000000A0120634991ED000AFDF74FF95D483B
:1035500080ED000A0220594991ED000AFDF746F975
:103560005A4880ED000A5B4800680EF037FACDE952
:1035700004019DED040B0FF047F98DED060B9DED59
:10358000060B51EC100B0EF06DFA564908604C48D2
:10359000007806287ED2DFE800F0035EF8F6F5F446
:1035A0004B480078012843D14E4890ED000AF1EED7
:1035B000080AB4EEE00AF1EE10FA09D80121084633
:1035C000404A92ED000A0BF03EFA3F4908700CE0C9
:1035D00001200BF06FFD0122002102200BF0F9F811
:1035E00037480078401C36490870344890ED000A8E
:1035F0005FEDD00AB4EEE00AF1EE10FA0AD803212A
:103600000220324A92ED000A0BF01DFA2E49087092
:1036100020E0B0E202200BF04DFD0122002111203C
:103620000BF0D7F826480078C01C2549087011E037
:1036300001210846234A92ED000A0BF004FA2249C0
:10364000087003210220214A92ED000A0BF0FBF9D9
:103650001D4908708EE21E48007801287ED121485D
:1036600090ED000A5FEDEC0AB4EEE00AF1EE10FA1C
:1036700014D890ED000AF1EE080AB4EEE00AF1EE7B
:1036800010FA0BDD022101200E4A92ED000A0BF028
:10369000DAF900E06DE20C4908703CE0114890ED69
:1036A000000AF1EE080AB4EEE00AF1EE10FA1BD8B7
:1036B00003480078401E0249087024E08C00002076
:1036C0000E00002078000020740000207C00002004
:1036D000130000208800002008000020C8040020FB
:1036E000CC04002094000020FE4890ED000ADFED9D
:1036F000FE0AB4EEE00AF1EE10FA04DDFB480078B1
:10370000401CFA49087001200BF0D4FC0122002172
:1037100004200BF05EF8F64890ED000ADFEDF50AA4
:10372000B4EEE00AF1EE10FA0AD803210220F24AC0
:1037300092ED000A0BF087F9F049087020E00DE0E7
:1037400002200BF0B7FC0122002111200BF041F800
:10375000E6480078C01CE549087011E0022101200C
:10376000E74A92ED000A0BF06EF9E4490870032174
:103770000220E14A92ED000A0BF065F9DF4908707A
:10378000F8E163E1D6E06DE0FFE7DE48007801286C
:1037900055D1D44890ED000ADFEDD60AB4EEE00A28
:1037A000F1EE10FA12D890ED000ADFEDCF0AB4EE78
:1037B000E00AF1EE10FA09DD03210120D04A92ED72
:1037C000000A0BF040F9CD49087016E0C54890EDAD
:1037D000000ADFEDC50AB4EEE00AF1EE10FA04D8F3
:1037E000C2480078401EC149087001200BF062FCFD
:1037F0000122002106200AF0ECFFBD4890ED000AEE
:10380000DFEDBC0AB4EEE00AF1EE10FA09D80321AC
:103810000220B94A92ED000A0BF015F9B749087079
:103820001FE002200BF046FC0122002111200AF0CB
:10383000D0FFAE480078C01CAC49087011E00321ED
:103840000120AF4A92ED000A0BF0FDF8AB49087079
:1038500003210220A84A92ED000A0BF0F4F8A749D0
:10386000087087E1A7480078012850D19D4890ED65
:10387000000AF1EE080AB4EEE00AF1EE10FA09D8F7
:10388000012108469E4A92ED000A0BF0DCF89B49A4
:1038900008700CE001200BF00DFC01220021022039
:1038A0000AF097FF91480078401C904908709048B2
:1038B00090ED000ADFED940AB4EEE00AF1EE10FAA2
:1038C00012D890ED000ADFED8B0AB4EEE00AF1EEBB
:1038D00010FA09DD04210220874A92ED000A0BF05C
:1038E000B2F88649087024E0814890ED000ADFEDC7
:1038F000810AB4EEE00AF1EE10FA1AD802200BF0B9
:10390000D9FB7A480078C01E7849087011E001217F
:1039100008467B4A92ED000A0BF095F8774908704B
:1039200004210220744A92ED000A0BF08CF87349CE
:1039300008701FE173480078012874D1694890ED40
:10394000000ADFED690AB4EEE00AF1EE10FA12D8CF
:1039500090ED000AF1EE080AB4EEE00AF1EE10FA7A
:1039600009DD02210120664A92ED000A0BF06BF896
:103970006249087026E05B4890ED000AF1EE080A03
:10398000B4EEE00AF1EE10FA05D858480078401E6F
:10399000564908700EE0534890ED000ADFED520AD8
:1039A000B4EEE00AF1EE10FA04DD50480078401C55
:1039B0004E49087001200BF07DFB012200210420FC
:1039C0000AF007FF4A4890ED000ADFED4F0AB4EE17
:1039D000E00AF1EE10FA12D890ED000ADFED450A88
:1039E000B4EEE00AF1EE10FA09DD04210220424AA9
:1039F00092ED000A0BF027F84049087025E03C489A
:103A000090ED000ADFED3B0AB4EEE00AF1EE10FAA9
:103A10001BD802200BF04EFB34480078C01E3349FF
:103A2000087012E0FFE702210120354A92ED000AFA
:103A30000BF009F831490870042102202E4A92ED5A
:103A4000000A0BF000F82D49087093E02D4800782B
:103A500001287BD1234890ED000ADFED260AB4EE61
:103A6000E00AF1EE10FA12D890ED000ADFED1E0A1E
:103A7000B4EEE00AF1EE10FA09DD03210120204A3C
:103A800092ED000A0AF0DFFF1C49087016E01548A5
:103A900090ED000ADFED140AB4EEE00AF1EE10FA40
:103AA00004D812480078401E1049087001200BF01D
:103AB00001FB0122002106200AF08BFE0C4890ED4C
:103AC000000ADFED120AB4EEE00AF1EE10FA29D88E
:103AD00090ED000ADFED070AB4EEE00AF1EE10FA0D
:103AE00020DD15E094000020000070420E00002050
:103AF0008C000020000016447C0000207400002090
:103B0000780000201300002000803B450000FA44AC
:103B100004210220FE4A92ED000A0AF094FFFD49BA
:103B2000087025E0FC4890ED000A5FED0E0AB4EE47
:103B3000E00AF1EE10FA1BD802200BF0BBFAF748AE
:103B40000078C01EF549087012E0FFE7032101204C
:103B5000F34A92ED000A0AF076FFEE49087004215C
:103B60000220EB4A92ED000A0AF06DFFE949087065
:103B700000E000BFD3E4EB4800780228FAD1EA481D
:103B800000680DF02BFFCDE900019DED000B0EF05C
:103B90003BFE8DED040BE54800680DF01FFFCDE9FD
:103BA00002019DED040B53EC102B9DED020B51EC2B
:103BB000100B0DF0FDFDCDE906019DED060B51EC5E
:103BC000100B0DF04FFFDA490860DA4800680DF07D
:103BD00005FFCDE900019DED000B0EF015FE8DED0A
:103BE000040BD54800680DF0F9FECDE902019DED0A
:103BF000040B53EC102B9DED020B51EC100B0DF050
:103C0000D7FDCDE906019DED060B51EC100B0DF033
:103C100029FFC14908600120C54991ED000AFCF760
:103C2000E5FDBF4880ED000A0220BB4991ED000A86
:103C3000FCF7DCFDB64880ED000AB848007806289D
:103C40007ED2DFE800F0035DDCFDFCFBBB480078C2
:103C5000012842D1B64890ED000AF1EE080AB4EE10
:103C6000E00AF1EE10FA09D801210846AC4A92EDBB
:103C7000000A0AF0E8FEA74908700CE001200BF0EA
:103C800019FA0122002102200AF0A3FDA3480078BE
:103C9000401CA2490870A04890ED000A5FED6B0A35
:103CA000B4EEE00AF1EE10FA09D803210220984A96
:103CB00092ED000A0AF0C7FE964908701FE0022044
:103CC0000BF0F8F90122002111200AF082FD93483F
:103CD0000078C01C9149087011E001210846904A03
:103CE00092ED000A0AF0AFFE8A4908700321022013
:103CF000874A92ED000A0AF0A6FE8649087077E22C
:103D00008E480078012867D1894890ED000A5FED60
:103D10008A0AB4EEE00AF1EE10FA14D890ED000A27
:103D2000F1EE080AB4EEE00AF1EE10FA0BDD022122
:103D300001207B4A92ED000A0AF085FE754900E0F9
:103D400055E2087026E07A4890ED000AF1EE080A84
:103D5000B4EEE00AF1EE10FA05D870480078401E83
:103D60006E4908700EE0724890ED000A5FEDA20AFD
:103D7000B4EEE00AF1EE10FA04DD68480078401C69
:103D80006649087001200BF095F9012200210420FA
:103D90000AF01FFD604890ED000A5FEDAA0AB4EE3C
:103DA000E00AF1EE10FA09D803210220584A92EDF8
:103DB000000A0AF048FE574908701FE002200BF085
:103DC00079F90122002111200AF003FD53480078FF
:103DD000C01C5249087011E002210120504A92EDA6
:103DE000000A0AF030FE4B49087003210220484ABD
:103DF00092ED000A0AF027FE46490870F8E14F48A4
:103E00000078012859D14A4890ED000A5FEDC70AB1
:103E1000B4EEE00AF1EE10FA16D890ED000A5FED6C
:103E2000CE0AB4EEE00AF1EE10FA0DDD0321012016
:103E30003B4A92ED000A0AF006FE02E05CE1CFE0A8
:103E40004EE03449087016E0394890ED000A5FED05
:103E5000DA0AB4EEE00AF1EE10FA04D82F4800783E
:103E6000401E2E49087001200BF024F90122002188
:103E700006200AF0AEFC284890ED000A5FEDE30A48
:103E8000B4EEE00AF1EE10FA09D803210220204A2C
:103E900092ED000A0AF0D7FD1E4908701FE00220CB
:103EA0000BF008F90122002111200AF092FC1B48B6
:103EB0000078C01C1949087011E003210120184A3C
:103EC00092ED000A0AF0BFFD12490870032102209A
:103ED0000F4A92ED000A0AF0B6FD0E49087087E11C
:103EE00016480078012868D1114890ED000AF1EEDB
:103EF000080AB4EEE00AF1EE10FA21D801210846D2
:103F0000074A92ED000A0AF09EFD0249087024E07B
:103F10007C000020740000208C0000200E00002097
:103F20007800002008000020C804002014040020AD
:103F300088000020CC04002018040020130000207A
:103F400001200BF0B7F80122002102200AF041FC09
:103F5000F9480078401CF8490870F84890ED000ACC
:103F6000DFEDF70AB4EEE00AF1EE10FA12D890EDA8
:103F7000000ADFEDF40AB4EEE00AF1EE10FA09DD12
:103F800004210220F04A92ED000A0AF05CFDEF499C
:103F9000087024E0E94890ED000ADFEDEA0AB4EE8B
:103FA000E00AF1EE10FA1AD802200BF083F8E2488A
:103FB0000078C01EE049087011E001210846E44A7B
:103FC00092ED000A0AF03FFDE0490870042102204A
:103FD000DD4A92ED000A0AF036FDDC49087007E17F
:103FE000DC480078012874D1DB4890ED000ADFED51
:103FF000DB0AB4EEE00AF1EE10FA12D890ED000AF6
:10400000F1EE080AB4EEE00AF1EE10FA09DD022141
:104010000120CF4A92ED000A0AF015FDCB49087045
:1040200026E0CD4890ED000AF1EE080AB4EEE00A71
:10403000F1EE10FA05D8C0480078401EBE4908705D
:104040000EE0C54890ED000ADFEDC40AB4EEE00AC8
:10405000F1EE10FA04DDB8480078401CB64908704B
:1040600001200BF027F80122002104200AF0B1FB07
:10407000B24890ED000ADFEDB20AB4EEE00AF1EECC
:1040800010FA12D890ED000ADFEDAE0AB4EEE00AA5
:10409000F1EE10FA09DD04210220AB4A92ED000A8C
:1040A0000AF0D1FCA949087025E0A44890ED000A67
:1040B000DFEDA40AB4EEE00AF1EE10FA1BD80220FC
:1040C0000AF0F8FF9C480078C01E9B49087012E077
:1040D000FFE7022101209E4A92ED000A0AF0B3FC9C
:1040E0009A49087004210220974A92ED000A0AF0CA
:1040F000AAFC964908707BE096480078012863D1B5
:10410000954890ED000ADFED8F0AB4EEE00AF1EE7B
:1041100010FA12D890ED000ADFED900AB4EEE00A32
:10412000F1EE10FA09DD03210120894A92ED000A1F
:104130000AF089FC8549087016E0874890ED000A6E
:10414000DFED860AB4EEE00AF1EE10FA04D87A4800
:104150000078401E7849087001200AF0ABFF012268
:10416000002106200AF035FB744890ED000ADFEDCF
:10417000740AB4EEE00AF1EE10FA12D890ED000ADB
:10418000DFED700AB4EEE00AF1EE10FA09DD042169
:1041900002206D4A92ED000A0AF055FC6B49087046
:1041A00024E0664890ED000ADFED660AB4EEE00A0E
:1041B000F1EE10FA1AD802200AF07CFF5E4800786F
:1041C000C01E5D49087011E003210120604A92ED94
:1041D000000A0AF038FC5D490870042102205A4A9E
:1041E00092ED000A0AF02FFC5849087000E000BF69
:1041F00050E35B480078C8B359480078012804D0E0
:10420000022834D003287DD162E0564890ED000AA0
:10421000514880ED000A01204F4991ED000AFCF75A
:10422000E5FA4B4880ED000A0A210120484A92ED48
:10423000000A0AF008FC454908704B4890ED000A56
:104240003E4880ED000A02203C4991ED000AFCF74F
:10425000CDFA3D4880ED000A0A2102203A4A92ED4B
:10426000000A0AF0F0FB3949087088E088E03F480E
:1042700090ED000A384880ED000A0120364991EDA2
:10428000000AFCF7B3FA324880ED000A0A21012047
:104290002F4A92ED000A0AF0D6FB2C4908703448E8
:1042A00090ED000A254880ED000A0220234991ED97
:1042B000000AFCF79BFA244880ED000A0A2102203C
:1042C000214A92ED000A0AF0BEFB2049087056E030
:1042D000284890ED000A204880ED000A01201E4980
:1042E00091ED000AFCF782FA194880ED000A0221DC
:1042F0000120174A92ED000A0AF0A5FB1349087045
:104300001D4800E03AE090ED000A0C4880ED000AFC
:1043100002200A4991ED000AFCF768FA0A4880ED8C
:10432000000A02210846084A92ED000A0AF08BFBB7
:104330000649087023E000000E0000208C000020D9
:104340000000FA44000016447C00002074000020A5
:104350007800002013000020880000200000704238
:104360000F000020640400206C0400206004002082
:1043700068040020340400203804002000BF89E2D3
:10438000FE48007868B1FE4800780228F7D10A217B
:104390000120FC4A92ED000A0AF055FBFA49087028
:1043A00078E2FA48007878B3F9480078012802D01A
:1043B000022853D129E0F74890ED000AF64880ED35
:1043C000000A90ED000AF54880ED000A0A2101205C
:1043D000F24A92ED000A0AF036FBEB490870F04809
:1043E00090ED000AEF4880ED000A90ED000AEE48DB
:1043F00080ED000A0A210220EB4A92ED000A0AF041
:1044000022FBE14908702AE02AE0E84890ED000A22
:10441000E14880ED000A90ED000AE04880ED000AD6
:104420000A210120DD4A92ED000A0AF00CFBD64970
:104430000870DF4890ED000ADA4880ED000A90ED40
:10444000000AD94880ED000A0A210220D64A92EDDE
:10445000000A0AF0F8FACC49087000E000BF19E23F
:10446000D448007800288AD0D348008800F400405F
:10447000B0B3D248007804284DD1D14800680690E6
:10448000002801DB069801E00698404214280CDB66
:10449000CB480068A0F5B4700790002801DB0798AE
:1044A00001E007984042142802DA02200AF016FEC2
:1044B000C348006878380790002801DB079801E0BE
:1044C00007984042142803DA02200AF011FE13E094
:1044D000BB480068F0380790002802DB079802E02C
:1044E00019E007984042142803DA02200AF00AFE75
:1044F00002E002200AF0CBFD0A210120B04A92ED31
:10450000000AB8EE400A0AF09EFA9F49087005209A
:10451000AA49087054E0A848008800F4804048B3D5
:10452000A6480078042825DAA6480078012847D153
:104530000020A4490870A448007810B1012808D1CF
:1045400003E00120A049087004E000209E490870A3
:1045500000E000BF00BF9C480078012803D1022082
:104560000AF0DAFD02E002200AF09BFD01200AF0C9
:10457000B5FD25E09048008800F4804000BB9148DC
:10458000007801281CD100208E4908708E480078E0
:1045900010B1012808D103E001208B49087004E024
:1045A00000208949087000E000BF00BF86480078FD
:1045B000012802D10AF088FD02E001200AF071FD15
:1045C0007D48008800F4004020B37C480078032830
:1045D00020D100217D4805F00DFD7D4800687D4912
:1045E0000988B0FBF1F201FB12007B490860084624
:1045F00000684FF4B471484376490988B0FBF1F084
:1046000075490860084600686D49086004206B49D8
:1046100008703FE16848008800F48040D8B36F48D4
:1046200090ED000A5F4880ED000A0A2102205D4AF1
:1046300092ED000A0AF007FA53490870594890EDC4
:10464000000AF2EE040AB4EEE00AF1EE10FA0AD221
:104650005A480078012806D10220584908700020E5
:104660000BF0ECFE0FE04F4890ED000AF2EE040A6A
:10467000B4EEE00AF1EE10FA05DD504800780128AA
:1046800001D14E4908704D480078022842D1454872
:1046900090ED000A00E04FE0DFED510AB4EEE00AD1
:1046A000F1EE10FA31DD4F480078401C4D4908709A
:1046B00008460078012805D13A4890ED000A4A489A
:1046C00080ED000A4748007805281ED1354890ED56
:1046D000000A4548D0ED000A30EE600ABDEEC00A7F
:1046E0008DED070A0798002801DB079801E007987D
:1046F000404205280ADA0121002004F055FC002080
:104700003849087003202D490870C3E0002035495E
:104710000870BFE02948007803280CD1214890EDAB
:10472000000AF2EE040AB4EEE00AF1EE10FA02D248
:10473000022022490870ADE01F48008800F4804044
:10474000D0B9264890ED000A164880ED000A0A21EB
:104750000220144A92ED000A0AF075F90A4908701D
:10476000104890ED000ADFED1E0AB4EEE00AF1EE0B
:1047700010FA76DD114839E08CE0000012000020CC
:10478000100400201C040020740000200B000020F6
:104790000A00002024040020880000207800002067
:1047A000280400208C0000207C0000202C04002025
:1047B000300400200D0000202805002014000020F7
:1047C000700000204105002018000020000C00406F
:1047D0002C050020300500203800002014040020A3
:1047E0000000C8429C00002098000020007870BBA8
:1047F000FA480078012806D1F94890ED000AF948F6
:1048000080ED000A27E0F5480078052823D1F44818
:1048100090ED000AF348D0ED000A30EE600ABDEEDC
:10482000C00A8DED070A0798002801DB079801E010
:104830000798404205280BDA0121002004F0B4FB60
:104840000020E64908700120E749087003E008E00D
:104850000020E2490870E1480078401CDF490870F8
:1048600018E0DF4890ED000A5FED230AB4EEE00A9D
:10487000F1EE10FA0ED2DC48007801280AD10020AF
:10488000D94908700021084604F08EFB0021D74862
:1048900005F0B0FB02F008BCD54890ED000AD54801
:1048A00080ED000A90ED000AF3EE0E0AB4EEE00A85
:1048B000F1EE10FA05DD01220321002009F089FF45
:1048C00004E000220321104609F083FFCA48007863
:1048D000E0BBCA480078C8BBC948007820B10128AD
:1048E0001BD002284CD132E0C64890ED000AC648E1
:1048F00080ED000A0120C44991ED000AFBF776FF24
:10490000C24880ED000A0A210120C04A92ED000A47
:104910000AF099F8BE49087033E0BE4890ED000AED
:10492000B94880ED000A0120B74991ED000AFBF774
:104930005DFFB64880ED000A0A210120B34A92EDDE
:10494000000A0AF080F8B24908701AE08AE0B2481A
:1049500090ED000AAC4880ED000A0120AA4991EDD3
:10496000000AFBF743FFA94880ED000A0A21012055
:10497000A64A92ED000A0AF066F8A549087000E020
:1049800000BF00BFA548007830B101281DD0022823
:1049900034D0032864D14AE0A14890ED000A904841
:1049A00080ED000A02208E4991ED000AFBF71EFF00
:1049B000964880ED000A01210220944A92ED000AF7
:1049C0000AF041F8924908704BE0964890ED000AD1
:1049D000834880ED000A0220814991ED000AFBF72F
:1049E00005FF8A4880ED000A01210220874A92EDE6
:1049F000000A0AF028F88649087032E08A4890EDEB
:104A0000000A774880ED000A0220754991ED000AFE
:104A1000FBF7ECFE7D4880ED000A0A2102207B4A6C
:104A200092ED000A0AF00FF87949087019E07F4802
:104A300090ED000A6A4880ED000A0220684991ED75
:104A4000000AFBF7D3FE714880ED000A0A2102201C
:104A50006E4A92ED000A09F0F6FF6D49087000E019
:104A600000BF66E26548007898B371480078012875
:104A70000CD100206E4908700A2102206D4A12886C
:104A800000EE102AB8EE400A09F0DDFF6348007816
:104A900030B101281ED0022835D0032865D14BE063
:104AA000654890ED000A584880ED000A01205649FB
:104AB00091ED000AFBF79AFE544880ED000A0A21A6
:104AC0000120524A92ED000A09F0BDFF50490870DA
:104AD0004CE04CE0594890ED000A4B4880ED000A4C
:104AE0000120494991ED000AFBF780FE474880ED1F
:104AF000000A0A210120454A92ED000A09F0A3FFAD
:104B00004349087032E04E4890ED000A3E4880ED7F
:104B1000000A01203C4991ED000AFBF767FE3B4883
:104B200080ED000A0A210120384A92ED000A09F0BE
:104B30008AFF3749087019E0424890ED000A324870
:104B400080ED000A0120304991ED000AFBF74EFE8E
:104B50002E4880ED000A0A2101202C4A92ED000A1D
:104B600009F071FF2A49087000E000BFE1E1224826
:104B700000780028FAD034480078012812D10020AB
:104B8000314908703148007810B1012808D103E09C
:104B900001202E49087004E000202C49087000E034
:104BA00000BF00BF2A480078072872D2DFE800F073
:104BB0000489D0EFEEEDEC002448007810B1012814
:104BC00053D147E000220321092009F002FE002210
:104BD00011460B2009F0FDFD48E000009C0000207C
:104BE0008C0000209800002014000020000C0040E1
:104BF00014040020900000200B0000201200002070
:104C0000080000203C0400208800002078000020DC
:104C10007400002040040020440400200F00002005
:104C2000580400205C04002074040020700400205C
:104C3000D90400203E050020480400204C04002038
:104C400050040020340000204105002018000020FE
:104C50000D00002001220321092009F0BAFD0122E4
:104C600000210B2009F0B5FD00E000BF00BFFB48AC
:104C7000007820B101280DD002281FD114E00A21AC
:104C80000120F74A92ED000A09F0DDFEF5490870AF
:104C900015E04CE10A210120F34A92ED000A09F0E7
:104CA000D2FEF04908700AE00A210120EF4A92ED95
:104CB000000A09F0C8FEEB49087000E000BF00BF21
:104CC00036E1EB48007810B1012816D10AE0002245
:104CD00003210A2009F07DFD002211460B2009F076
:104CE00078FD0BE0012203210A2009F072FD012268
:104CF00000210B2009F06DFD00E000BF00BFD74888
:104D0000007820B101280CD002281ED113E00A211E
:104D10000120D34A92ED000A09F095FED1490870AE
:104D200014E00A210120D04A92ED000A09F08BFE1E
:104D3000CC4908700AE00A210120CC4A92ED000A11
:104D400009F081FEC749087000E000BF00BFEFE036
:104D5000C748007810B101281AD10AE000220121C9
:104D60000B2009F036FD002211460B2009F031FD21
:104D70000FE0012211460B2009F02BFD012200213A
:104D80000B2009F026FD04E0A8E07EE054E02AE0D4
:104D900000BF00BFB148007820B101280CD0022824
:104DA0001ED113E00A210120AD4A92ED000A09F05C
:104DB0004AFEAC49087014E00A210120AA4A92ED8B
:104DC000000A09F040FEA74908700AE00A21012004
:104DD000A64A92ED000A09F036FEA249087000E0EA
:104DE00000BF00BFA4E09D48007820B101280CD08E
:104DF00002281ED113E00A2101209E4A92ED000AEA
:104E000009F021FE9749087014E00A2101209A4A0E
:104E100092ED000A09F017FE924908700AE00A2193
:104E20000120964A92ED000A09F00DFE8D490870A6
:104E300000E000BF00BF7BE08848007820B1012877
:104E40000CD002281ED113E00A2101208C4A92EDD9
:104E5000000A09F0F8FD8349087014E00A210120D6
:104E6000884A92ED000A09F0EEFD7E4908700AE0DA
:104E70000A210120844A92ED000A09F0E4FD7949F3
:104E8000087000E000BF00BF52E07448007820B115
:104E900001280CD002281ED113E00A2101207B4AF0
:104EA00092ED000A09F0CFFD6E49087014E00A2166
:104EB0000120774A92ED000A09F0C5FD69490870A2
:104EC0000AE00A210120734A92ED000A09F0BBFDB5
:104ED0006449087000E000BF00BF29E05F48007827
:104EE00020B101280CD002281ED113E00A21012094
:104EF000694A92ED000A09F0A6FD5A49087014E0CB
:104F00000A210120654A92ED000A09F09CFD5549ED
:104F100008700AE00A210120614A92ED000A09F0B6
:104F200092FD5049087000E000BF00BF00E000BFE4
:104F300000BFAFE449480078A8BB5A4890ED000A8A
:104F4000594880ED000A0120574991ED000AFBF70E
:104F50004DFC564880ED000A9FED550A554880EDFE
:104F6000000A55480078052876D2DFE800F0033FB4
:104F7000C7FBFA00012202211A2009F02AFC4F483F
:104F80000078012819D14E48007968B94D48006869
:104F900041F63801884207D80120444991ED000AC2
:104FA00009F095FF1CE0D1E101200AF083F84248A6
:104FB0000078401C4049087012E04148007960B90F
:104FC0004048006841F63801884206D80120374938
:104FD00091ED000A09F07BFF02E0012009F06DFF6E
:104FE00001220021062009F0F4FB98E100220221B1
:104FF0001A2009F0EEFB31480078012864D13048CE
:105000000079012811D12F48006841F63801884203
:105010000BD82C480068B0F5117F06D30120234936
:1050200091ED000A09F053FF62E001200AF042F816
:1050300023480079012805DA1F480078401E1E49E0
:10504000087055E01E480079012851DD1A480078A3
:10505000401C194908704BE060E135E00800002071
:105060003C04002074000020400400204404002080
:10507000180000203C0000204000002044000020D8
:10508000480000204C000020500000205400002068
:10509000580000205C000020600000206400002018
:1050A000680000201C0500208000002078000020FF
:1050B00000000000900000200E00002013000020DF
:1050C000486D002018050020FC48007901280CD10B
:1050D000FB48006841F63801884206D80120F949AA
:1050E00091ED000A09F0F3FE02E0012009F0E5FE6F
:1050F00001220021022009F06CFB10E1F248007847
:1051000001283AD1ED48007902281DD1EC48006809
:1051100041F63801884217D8E9480068B0F5117F98
:1051200012D30120E74991ED000A09F0D0FEE448CE
:1051300090ED000AB8EE400ADFEDE40A80EE201A96
:10514000E34880ED001A38E0012009F0B3FFDB48A6
:105150000079022807DADF480078401EDD49087030
:105160002BE093E02FE0D5480079022825DDD948CF
:105170000078401CD74908701FE0D0480079022809
:1051800018D1CF48006841F63801884212D8012072
:10519000CC4991ED000A09F09AFEC94890ED000A49
:1051A000B8EE400ADFEDC90A80EE201AC84880ED4B
:1051B000001A02E0012009F080FE012200210420F3
:1051C00009F007FBABE0C0480078012838D1BB48A4
:1051D000007903281DD1BA48006841F63801884299
:1051E00017D8B7480068B0F5117F12D30120B54930
:1051F00091ED000A09F06BFEB14890ED000AB8EE9F
:10520000400AF2EE040A80EE201AB14880ED001A3E
:1052100036E0012009F04EFFA8480079032805DA9E
:10522000AC480078401EAB49087029E0A3480079DB
:10523000032825DDA7480078401CA64908701FE018
:105240009E480079032818D19D48006841F638012E
:10525000884212D801209B4991ED000A09F037FEDF
:10526000974890ED000AB8EE400AF2EE040A80EE8C
:10527000201A974880ED001A02E0012009F01DFE77
:1052800001220021062009F0A4FA48E08E480078A7
:10529000012827D189480079042818D18848006856
:1052A000B0F5117F13D386480068B0F57A7F0ED829
:1052B0000120844991ED000A09F009FE804890ED33
:1052C000000AB8EE400A824880ED000A25E001207D
:1052D00009F0F0FE7948007904281EDA03207D49A0
:1052E00008701AE075480079042813D174480068E2
:1052F000B0F57A7F0ED80120724991ED000A09F0CD
:10530000E6FD6F4890ED000AB8EE400A704880ED67
:10531000000A02E0012009F0D0FD00E000BF00BF5C
:105320006B4890ED000ADFED6C0AB4EEE00AF1EE96
:1053300010FA05DD01220321002009F04AFAFCE3FE
:1053400000220321104609F044FAF6E3634800788E
:105350000128F4D16248007888BB624890ED000AC9
:10536000614880ED000A01205F4991ED000AFBF7DA
:105370003DFA544880ED000A1FEDB30A544880ED11
:10538000000A5448007830B101283BD0022876D07A
:10539000032875D116E14C480078012819D14748F7
:1053A000007968B94648006841F63801884207D854
:1053B0000120444991ED000A09F089FD1CE05FE1FC
:1053C000012009F077FE43480078401C41490870ED
:1053D00012E03A48007960B93948006841F638016E
:1053E000884206D80120374991ED000A09F06FFD87
:1053F00002E0012009F061FD01220021022009F0F4
:10540000E8F926E13048007801283AD12B480079A4
:1054100001281DD12A48006841F63801884217D872
:1054200027480068B0F5117F12D30120254991ED7E
:10543000000A09F04CFD224890ED000AB8EE400A3F
:10544000DFED220A80EE201A214880ED001A50E09C
:10545000012009F02FFE19480079012805DA1D48BE
:105460000078401E1B49087043E014480079012869
:105470003FDD18480078401C1649087039E03EE0CE
:10548000E6E00E480079012830D10D48006841F669
:10549000380188422AD801200A4991ED000A09F012
:1054A00016FD074890ED000AB8EE400ADFED070A46
:1054B00080EE201A064880ED001A1AE0486D0020A0
:1054C0001805002078000020130000200000C842CA
:1054D000900000200E00002000004842080000203C
:1054E0000F0000201C05002080000020012009F092
:1054F000E4FC01220021042009F06BF9A9E0FE4838
:105500000078012838D1FD48007902281DD1FC48D7
:10551000006841F63801884217D8F9480068B0F5AC
:10552000117F12D30120F74991ED000A09F0CFFC59
:10553000F34890ED000AB8EE400AF2EE040A80EE5D
:10554000201AF14880ED001A36E0012009F0B2FD82
:10555000EA480079022805DAEC480078401EEB4959
:10556000087029E0E5480079022825DDE748007841
:10557000401CE64908701FE0E0480079022818D175
:10558000DF48006841F63801884212D80120DD4921
:1055900091ED000A09F09BFCD94890ED000AB8EEA5
:1055A000400AF2EE040A80EE201AD74880ED001A75
:1055B00002E0012009F081FC01220021062009F00F
:1055C00008F946E0CC480078012829D1CB48007979
:1055D000032818D1CA480068B0F57A7F13D8C848A4
:1055E0000068B0F5117F0ED30120C64991ED000A85
:1055F00009F06DFCC24890ED000AB8EE400AC248BE
:1056000080ED000A23E0012009F054FDBB48007939
:1056100003281CDABD480078401EBC49087016E01B
:10562000B7480068B0F57A7F0ED80120B54991EDF2
:10563000000A09F04CFCB24890ED000AB8EE400AAE
:10564000B14880ED000A02E0012009F036FC00E0DC
:1056500000BF00BFAC4890ED000AF3EE0E0AB4EEB6
:10566000E00AF1EE10FA05DD01220321002009F025
:10567000B0F862E200220321104609F0AAF85CE2C9
:10568000A348007801287DD1A24890ED000AA248E5
:1056900080ED000A0120A04991ED000AFBF7A6F871
:1056A000984880ED000A9948007806286BD2DFE818
:1056B00000F00352E4FDFCFB002201211B2009F055
:1056C00088F8002201211A2009F083F88A4800781E
:1056D00001281CD1904890ED000ADFED900AB4EE4D
:1056E000E00AF1EE10FA09D802210120854A92ED74
:1056F000000A09F0A8F98A49087026E0012009F09B
:10570000D9FC82480078401C804908701DE082481E
:1057100000680CF063F99FED830B53EC102BCDE97F
:1057200006019DED060B51EC100B0CF06BF909D83E
:1057300002210120734A92ED000A09F084F97849A8
:10574000087002E0012009F0B8FB012200210420CA
:1057500009F03FF8CFE3002201211B2009F039F8BE
:10576000002201211A2009F034F86348007801284A
:105770005FD1694800680CF031F99FED6C0B53EC78
:10578000102B01E0B8E3B5E3CDE906019DED060B72
:1057900051EC100B0CF036F91AD85F4800680CF089
:1057A0001DF99FED600B53EC102BCDE906019DED2B
:1057B000060B51EC100B0CF03DF909D2032101202E
:1057C000504A92ED000A09F03EF9554908704EE042
:1057D000012009F06FFC504800680CF0FFF89FEDC5
:1057E000510B53EC102BCDE906019DED060B51EC4E
:1057F000100B0CF007F905D844480078401E4349C7
:10580000087034E0444800680CF0E8F89FED470B5E
:1058100053EC102BCDE906019DED060B51EC100B5E
:105820000CF008F923D239480078401C3749087039
:105830001DE0394800680CF0D1F89FED3C0B53ECAB
:10584000102BCDE906019DED060B51EC100B0CF071
:10585000D9F809D8032101202A4A92ED000A09F05B
:10586000F2F82F49087002E0012009F026FB01221E
:105870000021062008F0ADFF3DE3012211461B2068
:1058800008F0A7FF002201211A2008F0A2FF1D48FE
:1058900090ED000ADFED270A80EE201A80ED001A55
:1058A00015480078012802E050E283E1BFE072D1A0
:1058B0001948D0ED000A9FED1F1A80EE810A8DED88
:1058C000050A05980CF08AF89FED1B0B53EC102B82
:1058D000CDE906019DED060B51EC100B0CF092F892
:1058E0003FD80D4800680CF079F89FED100B53EC91
:1058F000102BCDE9060123E013000020486D0020A5
:105900001805002078000020900000200E000020E4
:105910000F0000201C05002080000020E1FAC74293
:10592000740000208FC2F5285CFF584033333333B6
:10593000333F8F4000007A44736891ED7CFF234031
:105940009DED060B51EC100B0CF074F809D20121FF
:105950000846F94A92ED000A09F075F8F74908700F
:105960005FE0012009F0A6FBF54800680CF036F86E
:105970001FED120B53EC102BCDE906019DED060B2C
:1059800051EC100B0CF03EF806D8EE480078401EA3
:10599000EC49087045E01EE0E948D0ED000A1FED33
:1059A0001B1A80EE810A8DED050A05980CF016F899
:1059B0001FED1F0B53EC102BCDE906019DED060BDF
:1059C00051EC100B0CF036F82BD2DE480078401C5E
:1059D000DC49087025E0DA48D0ED000A1FED2B1AEB
:1059E00080EE810A8DED050A05980BF0F7FF1FED9B
:1059F0002E0B53EC102BCDE906019DED060B51EC5F
:105A0000100B0BF0FFFF09D801210846CA4A92ED9E
:105A1000000A09F018F8C949087002E0012009F0ED
:105A20004CFA01220021022008F0D3FE63E2012299
:105A300011461B2008F0CDFE002201211A2008F09B
:105A4000C8FEBD4890ED000A5FED460A80EE201AC0
:105A500080ED001ABC48007801287FD1B848D0ED0D
:105A6000000A1FED4C1A80EE810A8DED050A05989B
:105A70000BF0B4FF1FED550B53EC102BCDE90601D5
:105A80009DED060B51EC100B0BF0BCFF22D8AC487F
:105A9000D0ED000A1FED591A80EE810A8DED050A3E
:105AA00005980BF09BFF1FED5C0B53EC102BCDE921
:105AB00006019DED060B51EC100B0BF0BBFF09D25C
:105AC000022101209C4A92ED000A08F0BCFF9B498C
:105AD000087069E0012009F0EDFA9948D0ED000A5C
