:020000040800F2
:10000000D8760020AD920008017800080378000837
:10001000077800080B7800080F780008000000003F
:10002000000000000000000000000000137800083D
:1000300015780008000000001778000819780008FB
:10004000C3920008C3920008C3920008C39200083C
:10005000C3920008C3920008C3920008C39200082C
:10006000C97A0008C3920008C3920008C39200082E
:10007000C3920008C3920008C3920008C39200080C
:10008000C3920008C3920008C3920008C3920008FC
:10009000C3920008C3920008C3920008E17A0008E6
:1000A000C3920008C3920008C3920008C3920008DC
:1000B000A1790008157B0008777D0008C39200082D
:1000C000C3920008C3920008C3920008C3920008BC
:1000D000C3920008A3790008737A0008C39200084D
:1000E000C3920008C3920008C3920008197D00085B
:1000F0005B7D00083F7D000800000000000000005C
:1001000000000000000000003B780008C3920008D7
:100110000000000000000000C3920008C392000825
:10012000C3920008C39200081B780008C39200081D
:10013000C3920008E37D0008C3920008C392000840
:10014000C392000800000000000000000000000052
:10015000000000000000000000000000000000009F
:100160000000000000000000C3920008C3920008D5
:10017000C392000800000000C392000800000000C5
:1001800000000000C3920008DFF80CD012F0ECF978
:10019000004800474B020008D876002010B507F051
:1001A000ECFE10BD10B50024FFF7F8FF0EF076FA54
:1001B0000BF0FAFD0BF0F2FD0EF0D2FE0EF0FFFE9A
:1001C0000EF037FF0EF037FB10F0A7FC4FF416507F
:1001D00010F06FFF14200BF024FE10F0FCFD04461D
:1001E00010F0BEFD10F05FFD0FF0CDFB10F0CAFF68
:1001F00011F025F811F0CAF811F05AF84FF4AF6079
:1002000011F086F810F0EAFF0EF0C8FB28490870DC
:100210000846007805280DD10F20087001202549D7
:1002200008700EF0CCFE01200FF002FB4FF4FA60D4
:100230000BF0F7FD2048006820F470701E4908603C
:1002400001211E480AF088F810BDFFF7ABFF2DE032
:100250001B480078012816D1002019490870194858
:100260000088401C174908800846008841F2883100
:10027000884203D0144800780B2804D10BF0FEFD0F
:1002800000201049088011480078012803D0104848
:100290000078012804D100200A49088000F039FBC9
:1002A00000F00EF903F011F808F010FFD0E700009D
:1002B000340500200000002000040140000400403C
:1002C0006A05002002000020320500202D050020D4
:1002D0002E050020FE4890ED000AFE4880ED000A41
:1002E000FD4890ED000AFD4880ED000AFC4890EDC5
:1002F000000AFC4880ED000AFB4890ED000AFB482C
:1003000080ED000A9FEDFA0AF14880ED000A9FEDAA
:10031000F80AF14880ED000A9FEDF50AF04880EDFB
:10032000000A9FEDF30AF04880ED000A9FEDF00A05
:10033000F04880ED000A9FEDEE0AEF4880ED000ADC
:100340009FEDEB0AED4880ED000A9FEDE90AEC48CD
:1003500080ED000A9FEDE60AEA4880ED000A70474A
:1003600010B5E9480078072810DC11F03EF811F0CC
:100370004AF80121E54809F00CFD0121E44809F0A3
:1003800008FD0121E34809F0E7FF1BE0DE480078A3
:10039000082817DBDC4800780F2813D011F02CF860
:1003A00011F038F80021D94809F0F3FC0021D848B1
:1003B00009F0EFFC0021D74809F0CEFF0021D64814
:1003C00009F0CAFF10BD10B5CF480078801F05287E
:1003D00071D2DFE800F0032529415200CF480078B0
:1003E00020B1012806D002280CD107E0042010F02B
:1003F000E0FA08E0032010F0DCFA04E0042010F03A
:10040000D8FA00E000BF00BFC5480078032803DA2F
:10041000012010F0EFFD02E0002010F0EBFD4BE0BA
:10042000042010F0C6FA47E0BC48007810B101285B
:100430000FD103E0052010F0BCFA0BE0B9480078BA
:1004400018B9042010F0B5FA02E0042010F0B1FA57
:1004500000E000BF00BF2FE0B048007810B10128D5
:1004600008D103E0092010F0A4FA04E00A2010F0FB
:10047000A0FA00E000BF00BF1EE0A848007830B13D
:10048000012808D002280AD0032810D10BE0072049
:1004900010F08FFA0CE00B2010F08BFA08E013201C
:1004A00010F087FA04E0132010F083FA00E000BF98
:1004B00000BF01E0FFE700BF00BFFFF751FF10BD25
:1004C00010B599480078002875D18F480078801FB2
:1004D000052871D2DFE800F0031527475E0063208E
:1004E0000FF029FBBCEEC00A10EE100A8F4908700D
:1004F00060200FF020FB8E4880ED000A0CF0D4FC49
:100500007AE063200FF017FBBCEEC00A10EE100A71
:100510008649087060200FF00EFB854880ED000AC8
:100520000CF0C2FC68E07F48007830B960200FF022
:1005300002FB7F4880ED000A14E07A480078012829
:1005400006D161200FF0F7FA794880ED000A09E042
:1005500074480078022805D162200FF0ECFA754843
:1005600080ED000A48E06D48007810B101280ED1F6
:1005700006E060200FF0DFFA6D4880ED000A07E02A
:1005800060200FF0D8FA6A4880ED000A00E000BF52
:1005900000BF31E06148007830B101280DD0022859
:1005A00012D0032824D116E060200FF0C4FA60486E
:1005B00080ED000A1DE020E01DE060200FF0BBFA96
:1005C0005B4880ED000A14E060200FF0B4FA584850
:1005D00080ED000A0DE060200FF0ADFA9FED561A95
:1005E000DFED560A40EE010A5148C0ED000A00E076
:1005F00000BF00BF00E000BF00BF10BD10B55048F5
:10060000007810B101280CD105E0002202211D2044
:100610000EF061FC06E0012202211D200EF05BFCC1
:1006200000E000BF00BF10BD10B54648007820B103
:1006300001280DD0022821D115E0002211460A2000
:100640000EF049FC002201210A200EF044FC16E0C5
:10065000002211460A200EF03EFC012211460A201B
:100660000EF039FC0BE0012200210A200EF033FCD1
:10067000002201210A200EF02EFC00E000BF00BF86
:1006800010BD10B53048007810B101280CD105E03C
:100690000022114609200EF01EFC06E00122002176
:1006A00009200EF018FC00E000BF00BF10BD10B51F
:1006B0002648007801284BD1012202211C200EF08F
:1006C0000AFC002203211C200EF005FC4AE0000079
:1006D0003C040020A0000020F0040020A400002022
:1006E00040040020A8000020F4040020AC000020FA
:1006F0000000000090000020880000208C000020F6
:10070000780000207C0000203205002000600140BD
:1007100000640140005C0140000C00400800002023
:100720000E0000200F000020100000209D0000207F
:1007300044050020480500206666E63F00000042B0
:10074000090000200A0000200C00002013000020F7
:10075000002202211C200EF0BEFB012203211C20DE
:100760000EF0B9FB10BDF0EE400A012826D1FE497B
:10077000097821B1012903D002291DD10EE01CE026
:10078000FA4991ED000AF4EEC00AF1EE10FA01DD2B
:10079000C1ED000AF54991ED000A7047F44991ED69
:1007A000000AF4EEC00AF1EE10FA01D2C1ED000A1F
:1007B000EF4991ED000AF0E700BF28E0022826D1BA
:1007C000E949097821B1012903D002291DD10EE0A0
:1007D0001CE0E84991ED000AF4EEC00AF1EE10FACF
:1007E00001DDC1ED000AE34991ED000AD5E7E249D8
:1007F00091ED000AF4EEC00AF1EE10FA01D2C1ED5B
:10080000000ADD4991ED000AC7E700BF00BFB0EE66
:10081000600AC2E7F0EE400A012805D1D74991ED00
:10082000000A30EEC00A7047022805D1D44991ED84
:10083000000A30EEC00AF6E700BFF4E700B5B0EEFC
:10084000401A0246C848007828B11046B0EE410A66
:10085000FFF789FF00BDCB48007828B11046B0EE05
:10086000410AFFF7D7FFF5E7B0EE410AF2E700B51E
:10087000F0EE401A03461846B0EE610AFFF7DEFFBD
:100880009FEDC11AC0EE010AB0EE600A00BD10B5BE
:10089000B0EE402A04462046B0EE420AFFF7E7FFDA
:1008A0009FEDB91AC0EE010AB0EE600A10BD10B596
:1008B00091230022412150200FF0DBF850200FF04F
:1008C0000CF9B249087008460078012820D10020B0
:1008D0000870512108460FF0CCF851200FF0FDF8B8
:1008E000AA49087008460078012811D10020087034
:1008F000A748407800F0080028B1012203211D20FC
:100900000EF0E9FA04E0002203211D200EF0E3FAC4
:1009100010BD10B52DED088B9E480078012856D1EA
:10092000FFF7D8FC00209B49087010F015F9002053
:10093000994908708C490870984908709149087065
:100940009749087097490870974908709749087047
:1009500097490870002404E0002096490855601C5F
:10096000C4B2102CF8DB94480078801F052826D2EA
:10097000DFE800F0030B13191F0024208D49887352
:1009800008200873802088721AE00420894988733F
:10099000112048730420C87212E00520854988732D
:1009A000082008730CE00120824908702020087399
:1009B00006E020207F4908730420887300E000BF10
:1009C00000BF0EF01AFBFFF719FEFFF7FCFC7B4897
:1009D0000078012842F07684FFF77CFC00207749FC
:1009E000087010F0B9F874480078801F052882F06C
:1009F0000B84DFE810F00500D105EF0B700F9B10A2
:100A00006F48007801282CD168480078012828D147
:100A10006C480078032824D06A480078052820D044
:100A200063480078E8B90020654908705F4908709C
:100A30000EF0C5FA012211461D200EF04CFA0122DB
:100A400002211C200EF047FA0122032118200EF08B
:100A500042FA0122032115200EF03DFA00205A49E6
:100A600008705848007806287BD2DFE800F003C2FF
:100A7000EFEEEDEC52480078012873D1474800783A
:100A80000028FAD1464800780028F6D14648007878
:100A90000028F2D1464800780028EED1324908708B
:100AA000384908703F49087040490870012047499B
:100AB00008700EF084FA3848007820B1012806D07A
:100AC00002280CD107E001203349087008E0022019
:100AD0003149087004E000202F49087000E000BF91
:100AE00000BF2D48007820B1012812D0022877D10C
:100AF00024E0012211461D200EF0EDF90122032110
:100B000018200EF0E8F90122032115200EF0E3F978
:100B100067E0012200211C200EF0DDF900220121F6
:100B20001D200EF0D8F90122032118200EF0D3F970
:100B30000122032115200EF0CEF952E001220021FE
:100B40001C200EF0C8F9012200211D200EF0C3F96F
:100B5000012211461D200EF0BEF9012203211820AA
:100B600036E0F3E344E03BE00A0000201C000020F4
:100B70002000002024000020280000202C0000205D
:100B8000300000200C00002000007A443F050020C7
:100B9000B86E00202D050020080000200B0000206A
:100BA0000D0000200E0000200F0000201200002089
:100BB00010000020A86E0020320500202E05002025
:100BC0002F050020340500203804002013000020E9
:100BD0000EF081F90122032115200EF07CF900E0CE
:100BE00000BF00BFFFF720FDFFF74BFDFFF75FFDE4
:100BF0006FE2F9480078012856D1F84800780028BB
:100C000052D1F748007800284ED1F64800780028E5
:100C10004AD1F1490870F4490870F4490870F44861
:100C2000007820B1012806D0022810D107E0012069
:100C3000EF4908700CE00220ED49087008E0002040
:100C4000EB49087004E0FCE328E343E2DDE000BF89
:100C500000BFFFF7E9FCFFF714FDE5480078012825
:100C600058D1E448007800BBE34890ED000AE3481F
:100C7000D0ED000A30EE600AE14880ED000A90ED08
:100C8000000AE04880ED000ADF4890ED000ADF48E6
:100C9000D0ED000A30EE600ADD4880ED000A90EDEC
:100CA000000ADC4880ED000A34E0D24800780128D0
:100CB00016D1D24890ED000AD14880ED000A90ED9F
:100CC000000AD04880ED000AD04890ED000AD048D4
:100CD00080ED000A90ED000ACE4880ED000A19E090
:100CE000C4480078022815D1C34890ED000AC448D2
:100CF00080ED000A90ED000AC24880ED000AC2486B
:100D000090ED000AC24880ED000A90ED000AC1484B
:100D100080ED000AB0480078012820D1AF48007863
:100D2000E8B1B0480078D0B90020AB490870AE49AE
:100D30000870AF480078012802D0022808D103E0EB
:100D40000220AB49087004E00120A949087000E0C6
:100D500000BF00BFFFF768FCFFF793FC54E0AE480C
:100D60000078012850D19E480078E8BBAB48007855
:100D7000D0BB9E480078B8BB9A480078A0BB002042
:100D8000A5490870984908709948007868B993484F
:100D9000007850B9012091490870954908700122E6
:100DA000114609200EF097F80CE08C48007848B105
:100DB00000208A4908708E4908700022012109200C
:100DC0000EF089F8FFF730FCFFF75BFC83480078F2
:100DD000012819D1924890ED000A894880ED000A57
:100DE000904890ED000A00E00EE0864880ED000A91
:100DF0008D4890ED000A864880ED000A8B4890ED02
:100E0000000A844880ED000AC3E373480078012893
:100E100044D172480078002840D171480078E8BB7E
:100E200070480078D0BB00206B490870704908708A
:100E30006E4908706C48007810B1012808D103E0B1
:100E400001206949087004E000206749087000E04B
:100E500000BF00BFFFF715FCFFF7E6FB6248007814
:100E6000002846D063480078F0BB7148006811F054
:100E70007DF941EC1B0BB0EE4B0AF0EE6B0A11F062
:100E8000E3FEB0EE409AF0EE609A6A48006811F016
:100E90006DF941EC1A0B53EC192B00E04CE011F00A
:100EA0004FF841EC180B11F0A5F96349086063484D
:100EB000006811F05BF941EC1B0BB0EE4B0AF0EE51
:100EC0006B0A11F0C1FEB0EE409AF0EE609A5C48F9
:100ED000006811F04BF941EC1A0B53EC192B11F08F
:100EE0002FF841EC180B00E004E011F083F95549AC
:100EF0000860EEE03F48007801280CD14C4890EDA6
:100F0000000A4D4880ED000A4C4890ED000A4D481B
:100F100080ED000ADDE03748007802280BD1454813
:100F200090ED000A444880ED000A454890ED000A23
:100F3000444880ED000ACCE037480078012849D1C8
:100F400026480078002845D134480078002841D14F
:100F50002648007800283DD122480078002839D161
:100F60002D490870224908701F49087036490870D9
:100F70002A4908700120354908700020344908705A
:100F80001748007810B1012808D103E00120144966
:100F9000087004E000201249087000E000BF00BFA4
:100FA0000F48007810B101287ED155E000220321BE
:100FB0001B200DF090FF0122032118200DF08BFF64
:100FC0000122032115200DF086FF0021214809F0A0
:100FD000C3F977E07DE000002F0500200B00002022
:100FE0000D000020100000200C0000201200002046
:100FF0000A000020080000203C040020F00400202B
:101000001C0000202000002040040020F4040020E8
:101010002400002028000020300500200F000020C0
:101020004C040020540400205004002058040020E8
:10103000A4000020A00000202C000020AC00002014
:10104000A8000020300000200E0000201300002027
:1010500014000020002000400022022110460DF064
:101060003AFF002202210A200DF035FF0122032160
:101070001B200DF030FF0022032118200DF02BFF64
:101080000022032115200DF026FF01200EF08BFB1E
:1010900002200EF088FB0121FE4809F05DF90020D6
:1010A000FD490880002100E00BE0084608F02EF919
:1010B0001021FA4809F027FD0121F94809F04CF9FF
:1010C00000E000BF00BFFFF7DCFAFFF7ADFAFFF763
:1010D000EEFA5EE2F3480078012878D1F248007811
:1010E000D8BBF2480078C0BBF1480078A8BBF148F3
:1010F000007890BBF048007878BB0020E949087080
:10110000EE490870EE490870EE480078012812D1C7
:101110000020EC4908705B2108460EF0AAFC5B2019
:101120000EF0DBFCE849087008460078012847D13A
:101130000020087044E0E548007806283ED2DFE849
:1011400000F0030D16202A340120E04908700FF04A
:1011500048FC01200FF04EFF31E038E00220DB496F
:1011600008700FF03EFC01200FF044FF27E0032041
:10117000D649087000200FF034FC00200FF03AFF31
:101180001DE00420D149087001200FF02AFC002046
:101190000FF030FF13E00520CC49087002200FF05B
:1011A00020FC00200FF026FF09E00020C74908704E
:1011B0000FF017FC01200FF01DFF00E000BF00BF83
:1011C000FFF775FAFFF75DFAFFF72EFA65E0B5480D
:1011D0000078012834D1B7480078012830D1B648CA
:1011E000007868BB0020AF490870B9490870012039
:1011F0000EF0E2FAB548007810B1012808D103E0FA
:101200000120B249087004E00020B049087000E0F5
:1012100000BF00BFAD48007810B101280ED106E034
:10122000032102209FEDAB0A0DF08FFF07E00421A0
:1012300002209FEDA90A0DF088FF00E000BF2CE01E
:10124000A6480078012828D19748007828BB9A48FA
:10125000007810BB0020A14908709A480078012846
:101260001BD00120974908705A2108460EF001FC56
:101270005A200EF032FC9449087008460078012884
:1012800001D100200870012202211C200DF023FE54
:10129000002203211C200DF01EFE7AE18148007817
:1012A00001283CD180480078C8BB80480078B0BB9A
:1012B0008148007898BB00207A4908707F490870FF
:1012C0007F4908708149087001207E4908700DF03F
:1012D00076FE7748007830B1012808D002280AD07D
:1012E000032810D10BE00120714908700CE00220A6
:1012F0006F49087008E003206D49087004E0002081
:101300006B49087000E000BF00BF6948007838B141
:10131000012810D002281AD0032829D122E056E053
:101320000122032118200DF0D6FD012203211520F2
:101330000DF0D1FD1DE00122002113200DF0CBFDA9
:101340000122002115200DF0C6FD12E020E101224E
:10135000002113200DF0BFFD0122002114200DF00B
:10136000BAFD06E00122114616200DF0B4FD00E0A2
:1013700000BF00BF5A48007820B1012808D00228D9
:101380001CD10BE0012211461D200DF0A4FD16E03A
:10139000012200211C200DF09EFD10E00122002101
:1013A0001C200DF098FD012200211D200DF093FD61
:1013B000012211461D200DF08EFD00E000BF00BF90
:1013C000FFF732F9FFF75DF9FFF771F945E04348A0
:1013D0000078012841D13448007898BB3348007820
:1013E00080BB3348007868BB3248007850BB324835
:1013F000007838BB002039490870304908703049FE
:101400000870324908702A4908700120294908707B
:101410002C4908700DF0D3FD0122022117200DF098
:101420005AFD012200211A200DF055FD0122032151
:1014300015200DF050FD01200EF0BEF90321022011
:1014400001E00BE009E09FED230A0DF07EFEFFF7BF
:1014500018F9FFF7E9F8FFF72AF99AE02148007830
:10146000012848D120480078062843D11C4800783C
:1014700001283FD11D49087000200FF06DFB4FF48B
:101480007A700AF0CEFC00200FF066FB4FF47A7001
:101490002EE000000020004050050020000C00401D
:1014A000005C01402F0500200B0000200D000020F3
:1014B0000F00002012000020100000200A00002071
:1014C0000C000020130000203F0500200E0000202B
:1014D00038040020000016440000FA4430050020C3
:1014E0000800002000000020320500201500002028
:1014F0000AF097FC4BE0FB480078012826D1002039
:10150000F8490870F848007810B1012808D103E0C4
:101510000120F549087004E00020F349087000E05C
:1015200000BF00BFF048007810B101280CD105E0E1
:10153000002201211C200DF0CEFC06E00122114604
:101540001C200DF0C8FC00E000BF20E0E748007858
:1015500001281CD10020E5490870E548007810B149
:10156000012808D103E00120E149087004E00020CF
:10157000DF49087000E000BF00BFDD48007810B10F
:10158000012802D100E001E000E000BF00BF00E060
:1015900000BF00BF01F039BED648007806287CD2D3
:1015A000DFE800F003C1FCFBFAF9CE48007801281F
:1015B00061D1D1480078D0BBD0480078B8BBCA48C8
:1015C0000078A0BB0020CE490870CE490870CE49F3
:1015D0000870CE48007820B1012806D002280CD12E
:1015E00007E00120C949087008E00220C7490870D7
:1015F00004E00020C549087000E000BF00BFC348F8
:10160000007820B1012813D002282CD120E000223C
:10161000012117200DF05FFC012200211A200DF09E
:101620005AFC012200211B200DF055FC1CE022E099
:10163000002211461A200DF04EFC002211461B20FC
:101640000DF049FC0122002119200DF044FC0BE0B3
:101650000022114619200DF03EFC012211461720F0
:101660000DF039FC00E000BF00BFFEF7DDFFFFF723
:1016700008F8FFF71CF89B480078012852D19E48D3
:10168000007888B39848007870BBA048007828B1EB
:10169000012807D002280DD108E0EFE301209B4983
:1016A000087008E002209949087004E0002097497A
:1016B000087000E000BF00BF9448007820B1012806
:1016C00013D002282CD120E00022012117200DF098
:1016D00002FC012200211A200DF0FDFB0122002155
:1016E0001B200DF0F8FB1CE01CE0002211461A2024
:1016F0000DF0F1FB002211461B200DF0ECFB012246
:10170000002119200DF0E7FB0BE000221146192003
:101710000DF0E1FB0122114617200DF0DCFB00E08B
:1017200000BF00BF8AE36F480078012837D17248B4
:101730000078A0BB6C48007888BB0020694908701D
:10174000704908706E48007820B1012806D0022840
:101750000CD107E001206A49087008E002206849BE
:10176000087004E000206649087000E000BF00BF78
:10177000FEF75AFFFEF785FF61480078012870D117
:101780005E48007880BB6148007848B1012813D0DA
:1017900002282AD11CE0EFE352E350E36AE1DBE0E8
:1017A0005B4890ED000A5B4880ED000A90ED000A6E
:1017B000594880ED000A19E0584890ED000A554854
:1017C00080ED000A90ED000A534880ED000A0DE01C
:1017D000534890ED000A4F4880ED000A90ED000A52
:1017E0004D4880ED000A01E03EE000BF00BF4D48DB
:1017F000007830B1012810D002281AD0032831D146
:1018000023E0494890ED000A484880ED000A90ED39
:10181000000A474880ED000A25E0464890ED000A9E
:10182000424880ED000A90ED000A414880ED000A30
:1018300019E0414890ED000A3C4880ED000A90ED27
:10184000000A3B4880ED000A0DE03C4890ED000A9C
:10185000364880ED000A90ED000A354880ED000A18
:1018600001E075E000BF04E12448007801286FD151
:101870002C48007830B1012810D002281AD0032853
:1018800068D123E02E4890ED000A224880ED000A3E
:1018900090ED000A204880ED000A5CE0294890EDB8
:1018A000000A1C4880ED000A90ED000A1A4880EDFD
:1018B000000A50E0244890ED000A164880ED000A26
:1018C00090ED000A144880ED000A44E01F4890EDB6
:1018D000000A104880ED000A90ED000A0E4880EDE5
:1018E000000A38E02F0500201000002030050020FD
:1018F00011000020340500200B0000201200002001
:101900000A0000200C0000200E000020080000202B
:10191000640400201C000020200000206804002037
:101920006C0400200F000020800400202400002010
:1019300028000020840400209C040020980400203B
:101940007004002074040020780400207C0400202F
:1019500040E0FFE700BF8CE0FB480078012839D168
:10196000FA480078B0BBFA48007898BB0020F649E6
:101970000870F8490870F8490870F84908700DF0C7
:101980001EFBF748007810B1012808D103E00120C0
:10199000F349087004E00020F149087000E000BF3E
:1019A00000BFEF48007810B101285CD12BE0ED4872
:1019B000007820B101280ED0022818D111E00122B0
:1019C00000211A200DF087FA012200211B200DF0C2
:1019D00082FA0DE04DE00122002119200DF07BFA82
:1019E00006E00122114617200DF075FA00E000BF55
:1019F00000BF0122022116200DF06DFA0021DA4805
:101A000008F0AAFC30E00122032109200DF063FA5E
:101A1000012200210B200DF05EFAD248007820B19F
:101A200001280DD0022817D110E0012200211A2030
:101A30000DF051FA012200211B200DF04CFA0CE0B0
:101A40000122002119200DF046FA06E0012211467C
:101A500017200DF040FA00E000BF00BF0121C2488E
:101A600008F07AFC00E000BF00BFFEF70AFEFEF7B8
:101A70001EFEADE3BD480078012833D1B848007898
:101A800080BBB348007868BB0020B8490870AF49F4
:101A90000870B048007810B1012808D103E0012097
:101AA000AC49087004E00020AA49087000E000BFBB
:101AB00000BFFEF7E6FDFEF7B7FDA648007888B147
:101AC000AB48007880BBA748007820B101280AD035
:101AD000022816D10EE0A74890ED000AA64880ED36
:101AE000000A0FE064E0A54890ED000AA24880EDEE
:101AF000000A07E0A24890ED000A9F4880ED000A26
:101B000000E000BF00BF9448007830B101280CD03D
:101B1000022811D003281DD115E09A4890ED000A43
:101B2000994880ED000A16E016E0984890ED000A0A
:101B3000954880ED000A0EE0954890ED000A924825
:101B400080ED000A07E0934890ED000A8E4880ED92
:101B5000000A00E000BF2BE085480078012827D16B
:101B60007D48007830B101280BD0022810D003281E
:101B70001CD114E0884890ED000A7F4880ED000AEF
:101B800015E0864890ED000A7B4880ED000A0EE0E3
:101B9000834890ED000A784880ED000A07E081480C
:101BA00090ED000A744880ED000A00E000BF00BF1D
:101BB0006E48007801283CD169480078012838D166
:101BC00063480078A8BB65480078072878D2DFE82A
:101BD00000F0041A31787C80840001205F4908708D
:101BE000644890ED000A704880ED000A634890ED6B
:101BF000000A6E4880ED000A614890ED000A6C48CA
:101C000080ED000A6EE0022054490870594890EDBA
:101C1000000A684880ED000A584890ED000A6648BE
:101C200080ED000A564890ED000A644880ED000AF5
:101C300058E0EFE00320494908704E4890ED000A53
:101C40005F4880ED000A4D4890ED000A5D4880ED48
:101C5000000A4B4890ED000A5B4880ED000A5248AC
:101C600090ED000A5348D0ED000A30EE200A5448A7
:101C7000D0ED000A30EE200A544880ED000A4B48AF
:101C800090ED000A4C48D0ED000A30EE200A4D4895
:101C9000D0ED000A30EE200A4D4880ED000A44489D
:101CA00090ED000A4548D0ED000A30EE200A464883
:101CB000D0ED000A30EE200A464880ED000A11E01F
:101CC0000FE00420254908700CE005202349087026
:101CD00008E006202149087004E003201F4908702D
:101CE00000E000BF00BF1D48007807282BD2DFE8C6
:101CF00000F004050B11737E89008AE000220321A5
:101D000009200DF0E8F884E0002203210A200DF0FC
:101D1000E2F87EE00022022109200DF0DCF800222A
:101D200001210B200DF0D7F80122032109200DF02D
:101D3000D2F8012200210B200DF0CDF800210A4835
:101D400008F00AFB65E063E0300500200A0000208F
:101D5000100000200C0000200F0000200D000020CB
:101D60000B00002008000020002000402F0500206C
:101D700012000020640400202C00002068040020D1
:101D80006C04002080040020300000208404002027
:101D90009C0400209804002070040020740400209B
:101DA000780400207C0400203C000020400000203B
:101DB00044000020480000204C000020500000207B
:101DC00054000020580000205C000020600000202B
:101DD00064000020680000200022032109200DF08B
:101DE0007AF8012203210A200DF075F811E0002293
:101DF00003210A200DF06FF8012211460B200DF08F
:101E00006AF806E00122022109200DF064F800E0E2
:101E100000BF13E0FE48007801280FD1FD4800788C
:101E200060B9FD48007848B90020F94908700120E0
:101E30000DF0AFFC4FF47A7009F0F3FFC8E1C7E191
:101E4000F648007801286BD1F248007878BBF44856
:101E5000007860BBF048007848BB0020EF4908706C
:101E6000F048007830B1012809D002280BD00328AF
:101E700011D10CE00120EB4908700DE0A7E1022030
:101E8000E849087008E00320E649087004E00020F3
:101E9000E449087000E000BF00BFE248007838B1B4
:101EA000012815D0022819D0032837D12BE037E0BC
:101EB0000022114613200DF00EF8002211461420C6
:101EC0000DF009F80122022116200DF004F826E099
:101ED0000122032116200CF0FEFF20E00022032146
:101EE00016200CF0F8FF0022022116200CF0F3FF60
:101EF0000122002113200CF0EEFF01220021152009
:101F00000CF0E9FF0BE00022114615200CF0E3FF76
:101F10000122002114200CF0DEFF00E000BF08E1E8
:101F2000BE480078012845D1BD480078012841D13C
:101F3000B9480078F0BB0020B8490870BA49087069
:101F4000BA490870B748007830B1012808D0022893
:101F50000AD0032811D10BE00120B24908700DE02E
:101F60000220B049087009E00320AE49087005E07E
:101F70000020AC49087001E0DCE000BF00BFA948C8
:101F8000007830B101281BD0022829D0032856D16F
:101F900040E00122002108200CF09DFF01220021D9
:101FA00019200CF098FF0122002118200CF093FF5B
:101FB000002200E04CE0032117200CF08CFF3FE0F2
:101FC000012200211A200CF086FF012200211B2093
:101FD0000CF081FF0022114619200CF07CFF2FE04D
:101FE0000122022118200CF076FF01221146172051
:101FF0000CF071FF0022114608200CF06CFF00224B
:1020000011461A200CF067FF002211461B200CF02D
:1020100062FF15E00122032117200CF05CFF002273
:10202000022118200CF057FF0022012117200CF08C
:1020300052FF0022114618200CF04DFF00E000BFB7
:1020400000BFFEF7F1FAFEF71CFBFEF730FB70E075
:102050006F48007801286CD16E48007880BB6E48CC
:10206000007868BB00206A490870714908706E49A1
:1020700008706E4908706F4908706A4908706E49A7
:1020800008809FED6E0A6E4880ED000A9FED6B0A96
:102090006C4880ED000A9FED690A6B4880ED000AEC
:1020A0000CF08DFF5E48007810B1012809D103E0E3
:1020B00001205B49087005E000205949087001E0E3
:1020C00037E000BF00BF5648007810B1012828D182
:1020D00013E0012200211A200CF0FDFE0122002154
:1020E0001B200CF0F8FE0122022116200CF0F3FE5A
:1020F0000021564808F030F914E0012200210820A0
:102100000CF0E9FE0122002119200CF0E4FE01226E
:10211000002118200CF0DFFE01214C4808F01CF9CA
:1021200000E000BF00BFFEF77FFAFEF7AAFAFEF755
:10213000BEFA4DE039480078012826D10020374901
:1021400008703548007810B1012808D103E001205B
:102150003149087004E000202F49087000E000BFFA
:1021600000BF2D48007810B101280CD105E00022F5
:1021700001211C200CF0AFFE06E0012211461C20BC
:102180000CF0A9FE00E000BF20E021480078012803
:102190001CD100201E4908702D48007810B101287C
:1021A00008D103E001202A49087004E000202849F2
:1021B000087000E000BF00BF2548007810B101287A
:1021C00002D100E001E000E000BF00BF00E000BF7E
:1021D00000BF7FE31F48007806286ED2DFE800F0DA
:1021E0000377BDE7FDFC0D48007801286ED10D484E
:1021F000007898BB0848007880BB00200A49087026
:102200000A4908700B49087001201349087026E03C
:10221000300500200B000020100000202F050020BA
:10222000120000200F0000200A0000200C000020F7
:10223000080000200E0000206605002000000000BD
:10224000700400207404002078040020001800406E
:1022500011000020340500201300002036E00CF0AF
:10226000AEFEF748007810B1012808D103E0012044
:10227000F349087004E00020F149087000E000BF55
:1022800000BFEF48007810B1012817D10AE0012201
:1022900000211C200CF01FFE0122032118200CF04D
:1022A0001AFE0CE0012211461D200CF014FE012242
:1022B000032118200CF00FFE01E009E300BF00BF6E
:1022C000FEF7B2F9FEF7DDF9FEF7F1F901E3DD48BB
:1022D0000078012840D1DC48007888BB0020D9492B
:1022E0000870DA490870DA48007820B1012806D071
:1022F00002280CD107E00120D549087008E002202F
:10230000D349087004E00020D149087000E000BF04
:1023100000BFFEF789F9FEF7B4F9CD48007801282F
:102320001AD1CC48007802280BD0CB4890ED000A97
:10233000CA4880ED000A90ED000AC94880ED000A05
:102340000AE0C84890ED000AC74880ED000A90ED09
:10235000000AC64880ED000ABBE2BA4800780128AE
:1023600024D1B948007808BB0020B6490870B849A4
:102370000870B648007810B1012808D103E00120A8
:10238000B249087004E00020B049087000E000BFC6
:1023900000BFFEF776F9FEF747F9AC48007828B1A0
:1023A000AD4890ED000AB24880ED000A91E2A548E0
:1023B000007801283BD1A7480078C0BBA24800782C
:1023C000A8BB00209F490870A14908709F49087068
:1023D0009B48007828B101E08CE115E101287FD10C
:1023E00041E0A4480078012812D10020A1490870DA
:1023F0005B2108460DF03DFB5B200DF06EFB9E4916
:1024000008700846007801282CD10020087029E0C7
:102410009A480078052823D2DFE800F0030A101656
:102420001C000120954908700EF0DBFA19E060E00D
:102430000220924908700EF0D4FA12E003208F496E
:1024400008700EF0CEFA0CE004208C4908700EF0F3
:10245000C8FA06E00020894908700EF0C2FA00E0D0
:1024600000BF00BF3DE083480078012812D1002062
:10247000804908705B2108460DF0FBFA5B200DF0E7
:102480002CFB7D49087008460078012827D10020E0
:10249000087024E07948007830B101280AD0022879
:1024A0000FD0032819D112E00120744908700EF0F2
:1024B00098FA13E00220714908700EF092FA0DE0CC
:1024C0000EE003206D4908700EF08BFA06E0002044
:1024D0006A4908700EF085FA00E000BF00BF00E016
:1024E00000BF00BFFEF7E3F8FEF7CBF8FEF79CF85D
:1024F00089E05448007801285BD1564800780128CB
:1025000057D15148007890BB00204E49087050497F
:1025100008704E49087057480078012812D10020F1
:10252000544908705B2108460DF0A3FA5B200DF0BA
:10253000D4FA5149087008460078012832D10020A9
:1025400008702FE04D480078062829D2DFE800F017
:10255000030910161C220120484908700EF041FAA8
:102560001FE00220454908700EF03BFA19E020E018
:102570000320424908700EF034FA12E004203F496B
:1025800008700EF02EFA0CE005203C4908700EF0A1
:1025900028FA06E00020394908700EF022FA00E01F
:1025A00000BF00BFFEF783F8FEF76BF8FEF73CF8BC
:1025B00029E033480078012825D12348007810BB52
:1025C00000202F4908702B48007801281BD00120DB
:1025D000284908705A2108460DF04BFA5A200DF090
:1025E0007CFA2549087008460078012801D10020AE
:1025F0000870012202211C200CF06DFC0022032136
:102600001C200CF068FC64E10E480078012870D1B1
:102610000B48007801286CD10B48007890BB002053
:102620000B49087009490870144908700CF0C7FC80
:102630000848007838B301282AD0022830D12BE08E
:10264000080000202F050020100000200C000020B2
:102650000A0000200F000020440500201C0000207C
:102660002000002048050020240000202800002031
:102670002C000020130000203F0500200E00002049
:102680003005002035E0FFE70120F849087008E038
:102690000220F649087004E00020F449087000E0C8
:1026A00000BF00BFF148007828B90122032118209B
:1026B0000CF011FC12E0ED480078012805D1012250
:1026C000114618200CF007FC08E0E84800780228C2
:1026D00004D10122114614200CF0FDFB0122114609
:1026E0001D200CF0F8FBFDF79FFFFDF7CAFFFDF77B
:1026F000DEFFEEE0DE480078012877D1DD48007883
:1027000004284AD1DC4890ED000ADFEDDC0AB4EE83
:10271000E00AF1EE10FA1ED2D948D649097800EB4A
:10272000810090ED000AD448D0ED000A80EE801AB6
:10273000D3481438CF49097800EB810090ED000AA6
:1027400031EE000ACE481438CA49097800EB8100FE
:1027500080ED000A6CE0C84890ED000ADFEDC90A80
:10276000B4EEE00AF1EE10FA62DDC548C14909781D
:1027700000EB810090ED000ADFEDC30A20EE200A95
:10278000BD48D0ED000A80EE201ABD48B94909784D
:1027900000EB810080ED001A4AE0B74890ED000A96
:1027A000DFEDB90AB4EEE00AF1EE10FA1FD2B44838
:1027B000B049097800EB810090ED000AAE48D0EDF9
:1027C000000A80EE801AAE481438AA49097800EB56
:1027D000810090ED000A31EE000AA9481438A5499D
:1027E000097800EB810080ED000A21E023E0A24897
:1027F00090ED000ADFEDA50AB4EEE00AF1EE10FA62
:1028000016DD9F489B49097800EB810090ED000A96
:10281000DFED9F0A20EE200A9748D0ED000A80EEF7
:10282000201A97489349097800EB810080ED001A3F
:102830000BF0D8FD4BE097480078012826D1002006
:10284000944908709448007810B1012808D103E039
:1028500001209149087004E000208F49087000E0D1
:1028600000BF00BF8C48007810B101280CD105E0F2
:10287000002201211C200CF02EFB06E00122114653
:102880001C200CF028FB00E000BF20E0834800780B
:1028900001281CD10020814908708148007810B1BE
:1028A000012808D103E001207D49087004E00020E0
:1028B0007B49087000E000BF00BF7948007810B184
:1028C000012802D100E001E000E000BF00BF00E00D
:1028D00000BF00BFF0E37348007806287CD2DFE831
:1028E00000F003457CA6A7A86A48007801283CD1DF
:1028F0006948007890BB00206B4908706B490870EC
:102900000CF05DFB6A48007810B1012808D103E0A3
:1029100001206749087004E000206549087000E064
:1029200000BF00BF6248007810B1012817D10AE04B
:102930000122002108460CF0CEFA0122114619208E
:102940000CF0C9FA0CE00122114600200CF0C3FA89
:102950000122032118200CF0BEFA01E005E000BFBF
:1029600000BFFDF761FEFDF78CFEDDE04948007811
:10297000012830D14848007868BB002045490870DC
:102980004A4908704848007820B1012806D002283A
:102990000CD107E001204449087008E002204249B8
:1029A000087004E000204049087000E000BF00BF4C
:1029B000FDF73AFEFDF765FE3B48007801280AD195
:1029C0003C4890ED000A3C4880ED000A90ED000A7A
:1029D0003A4880ED000AA7E0A5E02E4800780128DB
:1029E00024D12D48007808BB00202A4908702E49C0
:1029F00008702E48007810B1012808D103E00120AA
:102A00002A49087004E000202849087000E000BF4F
:102A100000BFFDF736FEFDF707FE2448007828B119
:102A2000244890ED000A264880ED000A7CE07BE017
:102A30007AE018480078012853D100201549087021
:102A40001548007810B1012808D103E0012012498F
:102A5000087004E000201049087000E000BF00BFCB
:102A60000D48007870B3012839D132E00F00002002
:102A7000000000200E000020B400002000004843A9
:102A8000446E00200000FA4300007A4400C05A451A
:102A900000409C452F05002010000020300500203C
:102AA00011000020340500200A0000200C00002046
:102AB00008000020440500201C0000202000002009
:102AC0002C000020FFE7002201211C200CF003FA5B
:102AD00006E0012211461C200CF0FDF900E000BFC9
:102AE00020E0F748007801281CD10020F449087044
:102AF000F448007810B1012808D103E00120F14921
:102B0000087004E00020EF49087000E000BF00BF3B
:102B1000EC48007810B1012802D100E001E000E0AB
:102B200000BF00BF00E000BF00BF6EE3E6480078D2
:102B3000062878D2DFE800F003639AF2F1F0E34868
:102B4000007801285AD1E248007888BB0020E1498A
:102B50000870E1490870E14908700120E0490870F7
:102B60000CF02DFADF48007830B1012808D0022897
:102B70000AD0032810D10BE00120DA4908700CE0DC
:102B80000220D849087008E00320D649087004E004
:102B90000020D449087000E000BF00BFD148007891
:102BA00038B1012810D0022814D003281ED117E014
:102BB00024E00122114619200CF08DF90122022196
:102BC0001C200CF088F912E00122032119200CF0DE
:102BD00082F90CE00122114615200CF07CF906E088
:102BE0000122002116200CF076F900E000BF00BFA2
:102BF000FDF71AFDFDF745FDFDF759FD02E3B3486A
:102C00000078012831D1B248007870BB0020AF496C
:102C10000870B1490870AF48007828B1012807D082
:102C200002280DD108E0ECE20120AA49087008E072
:102C30000220A849087004E00020A649087000E0BE
:102C400000BF00BFFDF7F0FCFDF71BFDA1480078B9
:102C500001280AD1A44890ED000AA44880ED000A9A
:102C600090ED000AA24880ED000ACBE2A14800786E
:102C700001285BD19B48007810B1012854D100E0B5
:102C800053E096480078012806D0032814D0052880
:102C900022D0062843D12FE0974890ED560A974856
:102CA000D0ED000A80EE801A934890ED520A31EE82
:102CB000000A80ED520A33E08F4890ED570A8F48A2
:102CC000D0ED000A80EE801A8B4890ED530A31EE69
:102CD000000A80ED530A23E0874890ED580A8748A0
:102CE000D0ED000A80EE801A834890ED540A31EE50
:102CF000000A80ED540A13E07F4890ED560A7F48A1
:102D0000D0ED000A80EE801A7B4890ED550A31EE36
:102D1000000A80ED550A03E04BE149E130E000BFD5
:102D200000BF0BF05FFB00E000BF28E067480078C1
:102D3000012824D16648007808BB00206349087048
:102D4000644908706448007810B1012808D103E094
:102D500001206149087004E000205F49087000E02C
:102D600000BF00BFFDF78DFCFDF75EFC5A48007800
:102D700028B15D4890ED000A614880ED000A41E20B
:102D800052480078012839D151480078B0BB002062
:102D90004E4908704F4908704F49087051480078F3
:102DA00030B101284CD0022872D0032871D1CAE07A
:102DB0004B480078012812D10020494908705B2156
:102DC00008460CF056FE5B200CF087FE4D4908705B
:102DD00008460078012832D1002008702FE03F48D3
:102DE0000078062829D2DFE800F0030A10161C221A
:102DF00001203A4908700DF0F4FD1FE0ADE002201B
:102E0000364908700DF0EDFD18E0032033490870D5
:102E10000DF0E7FD12E00420304908700DF0E1FDEF
:102E20000CE005202D4908700DF0DBFD06E00020C8
:102E30002A4908700DF0D5FD00E000BF00BF84E016
:102E400027480078012812D10020254908705B210D
:102E500008460CF00EFE5B200CF03FFE294908707E
:102E60000846007801286CD10020087069E01B48F2
:102E70000078082863D2DFE800F0040D141B474EE9
:102E8000555C01201549087000200DF0AAFD57E09F
:102E900058E059E002201149087000200DF0A1FD12
:102EA0004EE003200D49087001200DF09AFD47E027
:102EB00004200A49087002200DF093FD40E0000054
:102EC0003005002011000020340500202F050020CF
:102ED000100000200A0000200C0000200E0000203E
:102EE0001300002008000020440500201C000020E2
:102EF0002000002000000020406D0020BC000020C9
:102F00002C0000203F0500200520F9490870022010
:102F10000DF067FD14E00620F549087003200DF060
:102F200060FD0DE00720F249087003200DF059FD07
:102F300006E00020EE4908700DF053FD00E000BFF0
:102F400000BF02E001E000E000BF00BFFDF7AFFB03
:102F5000FDF797FBFDF768FB29E0E64800780128BC
:102F600025D1E548007810BB0020E2490870E3480D
:102F7000007801281BD00120E04908705A2108463A
:102F80000CF077FD5A200CF0A8FDDD4908700846CA
:102F90000078012801D100200870012202211C20A4
:102FA0000BF099FF002203211C200BF094FF29E174
:102FB00028E1D448007801287BD1D348007830B18B
:102FC000012851D0022875D0032874D1C9E0CF4818
:102FD00090ED000ADFEDCE0AB4EEE00AF1EE10FA51
:102FE0001ED2CC48C249097800EB810090ED000A5E
:102FF000C648D0ED000A80EE801AC6481838BC4991
:10300000097800EB810090ED000A31EE000AC1481A
:103010001838B749097800EB810080ED000A20E0FC
:10302000BA4890ED000ADFEDBC0AB4EEE00AF1EE1A
:1030300010FA16DDB748AE49097800EB810090ED33
:10304000000ADFEDB60A20EE200AB048D0ED000AF3
:1030500080EE201AAF48A649097800EB810080ED88
:10306000001A0BF0BFF97EE0A1480078012806D0D5
:10307000032822D005283AD006286CD151E0A84870
:1030800090ED000AF3EE0E0AB4EEE00AF1EE10FA4B
:103090000EDDA44890ED560ADFEDA30A20EE200ACB
:1030A0009F48D0ED000A80EE201A9E4880ED561A07
:1030B00052E059E054E055E0A7E0994890ED000A4D
:1030C000DFED9A0AB4EEE00AF1EE10FA0EDD954853
:1030D00090ED570ADFED910A20EE200A9048D0EDDE
:1030E000000A80EE201A8F4880ED571A34E08C4891
:1030F00090ED000ADFED8E0AB4EEE00AF1EE10FA70
:103100000EDD884890ED580ADFED8A0A20EE200A8D
:103110008348D0ED000A80EE201A824880ED581ACC
:103120001AE07F4890ED000ADFED830AB4EEE00A72
:10313000F1EE10FA0EDD7B4890ED590ADFED7F0AC3
:1031400020EE200A7648D0ED000A80EE201A75485D
:1031500080ED591A00E000BF00BF0BF043F902E018
:1031600001E000E000BF4BE075480078012826D15F
:103170000020734908706048007810B1012808D118
:1031800003E001205C49087004E000205A490870FF
:1031900000E000BF00BF5848007810B101280CD1F2
:1031A00005E0002201211C200BF095FE06E0012223
:1031B00011461C200BF08FFE00E000BF20E04D48C0
:1031C000007801281CD100204A4908705D48007829
:1031D00010B1012808D103E001205A49087004E029
:1031E00000205849087000E000BF00BF5548007833
:1031F00010B1012802D100E001E000E000BF00BFF3
:1032000000E000BF00BF00E000BF00BF4E480078F4
:1032100038BB38480078012823D13748007800BBF4
:103220000020344908704948007810B1012808D1BD
:1032300003E001204549087004E00020434908707C
:1032400000E000BF00BF4148007810B1012806D15E
:1032500002E00EF0EDF803E00EF0E3F800E000BF4E
:1032600000BFFDF7CBF93848007898B934480078AA
:1032700001280FD12048007860B90020304908703B
:1032800033480078082802D132480078D0B9FDF7D9
:103290009AF817E02E480078082813D12A480078B9
:1032A00004280FD12648007801280BD11648007851
:1032B000012807D11048007820B900202049087063
:1032C000FDF781F8BDEC088B10BD00B589B000207A
:1032D000089009480078002844F08182FDF7E7FA59
:1032E0001B480078801F052884F0778234E00000B6
:1032F0000E000020300500201000002013000020E8
:103300003F0500200000002008000020B800002039
:103310000000C842706E002000C05A4500409C4525
:10332000BC000020406D00200000484200803B456A
:10333000007C92480024F448001B374A8096984A43
:103340002F05002011000020340500200900002076
:10335000320500200F000020DFE810F005002D0DE1
:103360007710A4180119FE4890ED000AFD4880ED81
:10337000000A90ED000AF3EE0E0AB4EEE00AF1EE58
:1033800010FA05DD0122032100200BF0A4FD04E06A
:103390000022032110460BF09EFDF3480078002820
:1033A00041F0BC81F14800780028F9D1F04800785C
:1033B0000028F5D1EF4800780028F1D1EE480078D8
:1033C00000287DD1ED4800680EF0D0FECDE9000167
:1033D0009DED000B0FF038FC8DED040BE04800680C
:1033E0000EF0C4FECDE902019DED040B53EC102B51
:1033F0009DED020B51EC100B0EF0A2FDCDE9060184
:103400009DED060B51EC100B0EF0F4FEDC4908604C
:10341000DC4800680EF0AAFECDE900019DED000B2E
:103420000FF012FC8DED040BD74800680EF09EFEE5
:10343000CDE902019DED040B53EC102B9DED020B29
:1034400051EC100B0EF07CFDCDE906019DED060B55
:1034500051EC100B0EF0CEFECC4908600120C8499B
:1034600091ED000AFDF7EAF9C94880ED000A022053
:10347000C64991ED000AFDF7E1F9C64880ED000A62
:10348000C548007806287DD2DFE800F00362E4FE3C
:10349000FDFCC2480078012847D1B94890ED000AE8
:1034A000F1EE080AB4EEE00AF1EE10FA0BD80121B1
:1034B0000846B74A92ED000A0BF047FEB84900E013
:1034C000E0E208700CE001200CF076F90122002106
:1034D00002200BF000FDB0480078401CAE49087097
:1034E000AA4890ED000ADFEDAF0AB4EEE00AF1EE73
:1034F00010FA09D803210220A64A92ED000A0BF027
:1035000024FEA749087022E002200CF055F90122A0
:10351000002111200BF0DFFC9F480078C01C9E4961
:10352000087000200DF066FD11E001210846984A60
:1035300092ED000A0BF009FE994908700321022060
:10354000944A92ED000A0BF000FE9549087097E24C
:103550009248007801286AD1894890ED000ADFED91
:10356000920AB4EEE00AF1EE10FA14D890ED000AD7
:10357000F1EE080AB4EEE00AF1EE10FA0BDD0221DA
:10358000012000E07BE2824A92ED000A0BF0DDFDB3
:103590008349087026E07A4890ED000AF1EE080AA7
:1035A000B4EEE00AF1EE10FA05D87B480078401E30
:1035B000794908700EE0724890ED000ADFED7A0A52
:1035C000B4EEE00AF1EE10FA04DD73480078401C16
:1035D0007149087001200CF0EFF80122002104204D
:1035E0000BF079FC694890ED000ADFED6E0AB4EE4D
:1035F000E00AF1EE10FA09D803210220654A92EDA3
:10360000000A0BF0A2FD6649087022E002200CF0CF
:10361000D3F80122002111200BF05DFC5E480078F8
:10362000C01C5D49087000200DF0E4FC11E002218F
:103630000120574A92ED000A0BF087FD58490870A7
:1036400003210220534A92ED000A0BF07EFD5449FB
:10365000087015E25148007801285CD1484890ED87
:10366000000ADFED500AB4EEE00AF1EE10FA16D8C7
:1036700090ED000ADFED4C0AB4EEE00AF1EE10FA2C
:103680000DDD02E07DE1ECE058E003210120404A3D
:1036900092ED000A0BF059FD4149087016E03848D8
:1036A00090ED000ADFED400AB4EEE00AF1EE10FA08
:1036B00004D839480078401E3749087001200CF0C2
:1036C0007BF80122002106200BF005FC2F4890ED2D
:1036D000000ADFED340AB4EEE00AF1EE10FA09D880
:1036E000032102202B4A92ED000A0BF02EFD2C49FB
:1036F000087022E002200CF05FF801220021112066
:103700000BF0E9FB24480078C01C23490870002016
:103710000DF070FC11E0032101201D4A92ED000A1A
:103720000BF013FD1E49087003210220194A92ED87
:10373000000A0BF00AFD1A490870A1E11748007849
:1037400001287BD10E4890ED000AF1EE080AB4EE94
:10375000E00AF1EE10FA30D8012108460C4A25E0C3
:103760003C040020900000200F00002012000020E8
:103770000B0000200D00002008000020F0040020B5
:1037800088000020F4040020400400208C00002069
:10379000780000207C0000200E0000201300002094
:1037A00074000020000016440000704292ED000AF0
:1037B0000BF0CBFCF84908700CE001200BF0FCFF8B
:1037C0000122002102200BF086FBF4480078401C07
:1037D000F2490870F24890ED000ADFEDF20AB4EE0B
:1037E000E00AF1EE10FA12D890ED000A5FED130A2C
:1037F000B4EEE00AF1EE10FA09DD04210220EA4AF3
:1038000092ED000A0BF0A1FCE349087028E0E448BF
:1038100090ED000A5FED1D0AB4EEE00AF1EE10FA39
:103820001ED802200BF0C8FFDC480078C01EDB4920
:10383000087001200DF0DEFB12E0FFE701210846D1
:10384000DA4A92ED000A0BF080FCD349087004219B
:103850000220D54A92ED000A0BF077FCCE490870A1
:103860000EE1D3480078012878D1D24890ED000AC3
:103870005FED330AB4EEE00AF1EE10FA12D890EDE3
:10388000000AF1EE080AB4EEE00AF1EE10FA09DDE2
:1038900002210120C54A92ED000A0BF056FCBE49F8
:1038A000087027E0C34890ED000AF1EE080AB4EE74
:1038B000E00AF1EE10FA06D8B8480078401EC1B20E
:1038C000B64801700EE0BB4890ED000A5FED4A0A71
:1038D000B4EEE00AF1EE10FA04DDB0480078401CC6
:1038E000AE49087001200BF067FF0122002104207F
:1038F0000BF0F1FAAA4890ED000ADFEDAA0AB4EE47
:10390000E00AF1EE10FA12D890ED000A5FED5B0AC2
:10391000B4EEE00AF1EE10FA09DD04210220A24A19
:1039200092ED000A0BF011FC9B49087028E09C48BE
:1039300090ED000A5FED650AB4EEE00AF1EE10FAD0
:103940001ED802200BF038FF94480078C01E93491F
:10395000087001200DF04EFB12E0FFE7022101206C
:10396000924A92ED000A0BF0F0FB8B49087004219B
:1039700002208D4A92ED000A0BF0E7FB86490870A1
:103980007EE08B480078012866D18A4890ED000AD5
:103990005FED7C0AB4EEE00AF1EE10FA12D890ED79
:1039A000000A5FED7F0AB4EEE00AF1EE10FA09DDDD
:1039B000032101207D4A92ED000A0BF0C6FB7649F7
:1039C000087016E07B4890ED000A5FED890AB4EEBE
:1039D000E00AF1EE10FA04D870480078401E6F49F2
:1039E000087001200BF0E8FE0122002106200BF0F8
:1039F00072FA6B4890ED000ADFED6A0AB4EEE00A55
:103A0000F1EE10FA12D890ED000A5FED9A0AB4EECA
:103A1000E00AF1EE10FA09DD04210220624A92ED7B
:103A2000000A0BF092FB5C49087027E05C4890EDBF
:103A3000000A5FEDA40AB4EEE00AF1EE10FA1DD818
:103A400002200BF0B9FE55480078C01E534908709B
:103A500001200DF0CFFA11E003210120534A92ED2D
:103A6000000A0BF072FB4C490870042102204E4AF8
:103A700092ED000A0BF069FB4749087000E000BFB7
:103A800001F097B94C480078012873D14B4890ED6C
:103A9000000A484880ED000A494890ED000A404875
:103AA00080ED000A0120434991ED000AFCF7C6FEB3
:103AB0003E4880ED000A0220394991ED000AFCF7EA
:103AC000BDFE394880ED000A3A4800680EF04EFB12
:103AD000CDE904019DED040B0FF0B6F88DED060B5A
:103AE0009DED060B51EC100B0EF084FB3549086080
:103AF0002A480078062867D2DFE800F0037AFEFC47
:103B0000FBFA2B48007801285FD12E4890ED000A7F
:103B1000F1EE080AB4EEE00AF1EE10FA09D801213C
:103B20000846224A92ED000A0BF00FFB1A49087072
:103B30000CE001200BF040FE0122002102200BF0DE
:103B4000CAF916480078401C14490870144890EDD2
:103B5000000A5FEDEC0AB4EEE00AF1EE10FA0AD8C2
:103B600003210220104A92ED000A0BF0EEFA0A49F6
:103B700008703CE0BFE202200BF01EFE0122002193
:103B800011200BF0A8F905480078C01C0349087003
:103B900000200DF02FFA2AE0740000200E00002013
:103BA0008C0000200000FA447C00002078000020F7
:103BB000130000208800002008000020F0040020EE
:103BC000F40400209400002093E201210846F64A04
:103BD00092ED000A0BF0B9FAF449087003210220B3
:103BE000F34A92ED000A0BF0B0FAF049087081E256
:103BF000F0480078012868D1EF4890ED000ADFED29
:103C0000EF0AB4EEE00AF1EE10FA12D890ED000AD5
:103C1000F1EE080AB4EEE00AF1EE10FA09DD022135
:103C20000120E14A92ED000A0BF08FFADF4908709B
:103C300026E0E14890ED000AF1EE080AB4EEE00A51
:103C4000F1EE10FA05D8DE480078401EDC49087015
:103C50000EE0D94890ED000ADFEDD80AB4EEE00A94
:103C6000F1EE10FA04DDD6480078401CD449087003
:103C700001200BF0A1FD0122002104200BF02BF903
:103C8000D04890ED000ADFEDD00AB4EEE00AF1EE84
:103C900010FA09D803210220C54A92ED000A0BF060
:103CA00054FAC249087022E002200BF085FD01227F
:103CB000002111200BF00FF9C1480078C01CC04949
:103CC000087000200DF096F911E002210120B64A9B
:103CD00092ED000A0BF039FAB44908700321022072
:103CE000B34A92ED000A0BF030FAB049087001E2D5
:103CF00081E1DCE070E0FFE7AE480078012858D1B0
:103D0000AD4890ED000ADFEDB00AB4EEE00AF1EE46
:103D100010FA12D890ED000ADFEDA80AB4EEE00A1E
:103D2000F1EE10FA09DD032101209F4A92ED000A0D
:103D30000BF00BFA9D49087016E09F4890ED000AC1
:103D4000DFED9E0AB4EEE00AF1EE10FA04D89C48CA
:103D50000078401E9A49087001200BF02DFD0122C9
:103D6000002106200BF0B7F8964890ED000ADFED31
:103D7000960AB4EEE00AF1EE10FA09D80321022007
:103D80008B4A92ED000A0BF0E0F98849087022E0B6
:103D900002200BF011FD0122002111200BF09BF8F5
:103DA00087480078C01C8649087000200DF022F971
:103DB00011E0032101207C4A92ED000A0BF0C5F9C5
:103DC0007A49087003210220794A92ED000A0BF02B
:103DD000BCF9764908708DE176480078012853D106
:103DE000754890ED000AF1EE080AB4EEE00AF1EE33
:103DF00010FA09D8012108466B4A92ED000A0BF02F
:103E0000A4F96A4908700CE001200BF0D5FC0122EE
:103E1000002102200BF05FF869480078401C6849D7
:103E20000870684890ED000ADFED680AB4EEE00A19
:103E3000F1EE10FA12D890ED000ADFED630AB4EE4D
:103E4000E00AF1EE10FA09DD04210220584A92ED51
:103E5000000A0BF07AF95549087027E0594890EDAF
:103E6000000ADFED590AB4EEE00AF1EE10FA1DD8AF
:103E700002200BF0A1FC52480078C01E5049087087
:103E800001200DF0B7F811E001210846464A92EDF5
:103E9000000A0BF05AF94549087004210220444AEF
:103EA00092ED000A0BF051F94049087022E14148B7
:103EB0000078012876D1404890ED000ADFED3F0AF6
:103EC000B4EEE00AF1EE10FA12D890ED000AF1EE2D
:103ED000080AB4EEE00AF1EE10FA09DD0221012031
:103EE000314A92ED000A0BF030F93049087026E0B3
:103EF000314890ED000AF1EE080AB4EEE00AF1EE66
:103F000010FA05D82E480078401E2D4908700EE0A2
:103F1000294890ED000ADFED290AB4EEE00AF1EE3F
:103F200010FA04DD26480078401C2549087001205D
:103F30000BF042FC0122002104200AF0CCFF2148B2
:103F400090ED000ADFED210AB4EEE00AF1EE10FA7E
:103F500012D890ED000ADFED1C0AB4EEE00AF1EE93
:103F600010FA09DD04210220114A92ED000A0BF03B
:103F7000ECF80E4908703DE0124890ED000ADFEDC4
:103F8000120AB4EEE00AF1EE10FA33D802200BF078
:103F900013FC0B480078C01E0949087001200DF081
:103FA00029F827E014E000007800002074000020C9
:103FB0007C000020130000209400002000007042CC
:103FC0000E0000208C0000200000164400803B45BD
:103FD00002210120FE4A92ED000A0BF0B6F8FD49DD
:103FE000087004210220FC4A92ED000A0BF0ADF8A3
:103FF000F84908707EE0F9480078012866D1F84851
:1040000090ED000A5FED100AB4EEE00AF1EE10FA4E
:1040100012D890ED000A5FED170AB4EEE00AF1EE57
:1040200010FA09DD03210120E94A92ED000A0BF0A4
:104030008CF8E849087016E0E94890ED000A5FED59
:10404000210AB4EEE00AF1EE10FA04D8E54800784F
:10405000401EE449087001200BF0AEFB0122002154
:1040600006200AF038FFE04890ED000ADFEDDF0A95
:10407000B4EEE00AF1EE10FA12D890ED000A5FED0E
:104080002E0AB4EEE00AF1EE10FA09DD0421022056
:10409000D14A92ED000A0BF058F8CE49087027E09B
:1040A000D14890ED000A5FED380AB4EEE00AF1EE77
:1040B00010FA1DD802200BF07FFBCA480078C01E02
:1040C000C849087001200CF095FF11E00321012080
:1040D000BF4A92ED000A0BF038F8BE49087004217F
:1040E0000220BD4A92ED000A0BF02FF8B949087082
:1040F00000E000BFC4E4BE4800780228FAD1BD4801
:1041000090ED000ABC4880ED000ABC4890ED000A22
:10411000B54880ED000A0120B74991ED000AFCF78F
:104120008DFBAB4880ED000A0220AF4991ED000AFB
:10413000FCF784FBA84880ED000AAA48007806280E
:104140007ED2DFE800F00360E2FDFCFBA3480078CC
:10415000012845D1A84890ED000AF1EE080AB4EE16
:10416000E00AF1EE10FA09D801210846984A92EDCA
:10417000000A0AF0EAFF974908700CE001200BF0F2
:104180001BFB0122002102200AF0A5FE95480078C1
:10419000401C94490870944890ED000A5FED760A3F
:1041A000B4EEE00AF1EE10FA09D8032102208A4A9F
:1041B00092ED000A0AF0C9FF8649087022E0022049
:1041C0000BF0FAFA0122002111200AF084FE854842
:1041D0000078C01C8349087000200CF00BFF11E030
:1041E000012108467A4A92ED000A0AF0AEFF7949A9
:1041F000087003210220784A92ED000A0AF0A5FF18
:104200007449087089E27548007801286AD17A48B3
:1042100090ED000A5FED970AB4EEE00AF1EE10FAB5
:1042200014D890ED000AF1EE080AB4EEE00AF1EEBF
:1042300010FA0BDD02210120654A92ED000A00E030
:104240006AE20AF082FF6349087026E06A4890ED4E
:10425000000AF1EE080AB4EEE00AF1EE10FA05D811
:1042600060480078401E5F4908700EE0624890ED9B
:10427000000A5FEDAE0AB4EEE00AF1EE10FA04DDDA
:1042800058480078401C5749087001200BF094FAF8
:104290000122002104200AF01EFE534890ED000A7E
:1042A0005FEDB70AB4EEE00AF1EE10FA09D8032187
:1042B0000220494A92ED000A0AF047FF454908707A
:1042C00022E002200BF078FA0122002111200AF0EE
:1042D00002FE44480078C01C4249087000200CF0DF
:1042E00089FE11E002210120394A92ED000A0AF00C
:1042F0002CFF3849087003210220374A92ED000A4A
:104300000AF023FF3349087007E234480078012897
:1043100076D1394890ED000A5FEDD50AB4EEE00A97
:10432000F1EE10FA16D890ED000A5FEDDC0AB4EE5B
:10433000E00AF1EE10FA0DDD032102E06EE1DEE0AD
:1043400071E00120224A92ED000A0AF0FEFE2149A6
:10435000087017E0284890ED000A5FEDE80AB4EE17
:10436000E00AF1EE10FA05D81E480078401EC1B2EE
:104370001C48017001200BF01FFA012200210620C9
:104380000AF0A9FD184890ED000A5FEDF10AB4EEBD
:10439000E00AF1EE10FA09D8032102200E4A92ED4C
:1043A000000A0AF0D2FE0B4908703BE002200BF035
:1043B00003FA0122002111200AF08DFD094800783E
:1043C000C01C0849087000200CF014FE2AE017E019
:1043D00078000020740000207C00002013000020E2
:1043E000940000200E0000208C0000200000FA4401
:1043F000080000203C040020880000204004002029
:1044000003210120FD4A92ED000A0AF09EFEFC49BC
:10441000087003210220FB4A92ED000A0AF095FE83
:10442000F749087079E1F8480078012854D1F74835
:1044300090ED000AF1EE080AB4EEE00AF1EE10FA8F
:1044400009D801210846ED4A92ED000A0AF07DFEE6
:10445000EB4908700DE001200BF0AEF901220021BC
:1044600002200AF038FDEA480078401CC1B2E84852
:104470000170E84890ED000A5FED240AB4EEE00A0E
:10448000F1EE10FA12D890ED000ADFEDE30AB4EE77
:10449000E00AF1EE10FA09DD04210220D94A92ED7A
:1044A000000A0AF052FED649087027E0D94890ED7C
:1044B000000ADFEDD90AB4EEE00AF1EE10FA1DD8D9
:1044C00002200BF079F9D2480078C01ED04908705C
:1044D00001200CF08FFD11E001210846C74A92ED42
:1044E000000A0AF032FEC649087004210220C54ABB
:1044F00092ED000A0AF029FEC14908700DE1C24898
:104500000078012877D1C14890ED000ADFEDC30A99
:10451000B4EEE00AF1EE10FA12D890ED000AF1EED6
:10452000080AB4EEE00AF1EE10FA09DD02210120DA
:10453000B24A92ED000A0AF008FEB149087026E07E
:10454000B24890ED000AF1EE080AB4EEE00AF1EE8E
:1045500010FA05D8AE480078401EAD4908700EE04C
:10456000AA4890ED000ADFEDAD0AB4EEE00AF1EEE4
:1045700010FA04DDA6480078401CA5490870012007
:104580000BF01AF90122002104200AF0A4FCA14832
:1045900090ED000A5FED6B0AB4EEE00AF1EE10FA5E
:1045A00012D890ED000ADFED9C0AB4EEE00AF1EEBD
:1045B00010FA09DD04210220924A92ED000A0AF065
:1045C000C4FD8F49087028E0924890ED000ADFEDA5
:1045D000920AB4EEE00AF1EE10FA1ED802200BF0B7
:1045E000EBF88B480078C01E8949087001200CF058
:1045F00001FD12E0FFE702210120804A92ED000A4E
:104600000AF0A3FD7E490870042102207D4A92ED44
:10461000000A0AF09AFD7A4908707EE07A4800782C
:10462000012866D1794890ED000ADFED7B0AB4EEEF
:10463000E00AF1EE10FA12D890ED000ADFED770AE9
:10464000B4EEE00AF1EE10FA09DD032101206B4A15
:1046500092ED000A0AF079FD6949087016E06B488E
:1046600090ED000ADFED6D0AB4EEE00AF1EE10FA0B
:1046700004D867480078401E6549087001200BF097
:104680009BF80122002106200AF025FC614890EDEC
:10469000000A5FEDAA0AB4EEE00AF1EE10FA12D8B1
:1046A00090ED000ADFED5C0AB4EEE00AF1EE10FADC
:1046B00009DD04210220534A92ED000A0AF045FD6B
:1046C0004F49087027E0534890ED000ADFED520A89
:1046D000B4EEE00AF1EE10FA1DD802200BF06CF8EF
:1046E0004B480078C01E4A49087001200CF082FC3B
:1046F00011E003210120414A92ED000A0AF025FD54
:104700003F490870042102203E4A92ED000A0AF057
:104710001CFD3B49087000E000BF4AE340480078B8
:10472000C8B33F480078012804D0022834D00328B9
:1047300063D17FE03B4890ED000A344880ED000AE9
:104740000120324991ED000AFCF778F82B4880ED02
:10475000000A0A210120294A92ED000A0AF0F5FC1C
:1047600027490870304890ED000A2A4880ED000A79
:104770000220284991ED000AFCF760F8214880EDFD
:10478000000A0A2102201F4A92ED000A0AF0DDFC0D
:104790001B49087080E080E0244890ED000A1B4827
:1047A00080ED000A0120194991ED000AFCF746F856
:1047B000124880ED000A0A210120104A92ED000AF9
:1047C0000AF0C3FC0E490870194890ED000A114820
:1047D00080ED000A02200F4991ED000AFCF72EF847
:1047E000084880ED000A0A210220064A92ED000ADC
:1047F0000AF0ABFC024908704EE04CE07800002063
:10480000740000207C00002013000020880000209D
:104810000E0000208C0000200000164400007042B2
:104820000F0000208C040020940400208804002045
:1048300090040020FC4890ED000AFC4880ED000A3E
:104840000120FA4991ED000AFBF7F8FFF84880EDE6
:10485000000A02210120F64A92ED000A0AF075FCD6
:10486000F4490870F44890ED000AF44880ED000A1D
:104870000220F24991ED000AFBF7E0FFF04880EDDD
:10488000000A02210846EE4A92ED000A0AF05DFC99
:10489000E849087000E000BF8BE2EA48007868B1A0
:1048A000E94800780228F7D10A210120E74A92ED71
:1048B000000A0AF04AFCDF4908707AE2E44800780E
:1048C00078B3E4480078012802D0022853D129E0C7
:1048D000E14890ED000AD54880ED000A90ED000A0D
:1048E000D34880ED000A0A210120D14A92ED000A46
:1048F0000AF02BFCCF490870D84890ED000ACF4849
:1049000080ED000A90ED000ACD4880ED000A0A21F2
:104910000220CB4A92ED000A0AF017FCC549087044
:104920002AE02AE0CE4890ED000AC04880ED000A57
:1049300090ED000ABE4880ED000A0A210120BC4A21
:1049400092ED000A0AF001FCBA490870C54890EDE2
:10495000000ABA4880ED000A90ED000AB84880EDE0
:10496000000A0A210220B64A92ED000A0AF0EDFB85
:10497000B049087000E000BF1BE2BB480078002887
:104980008AD0BA48008800F4004070B3B848007874
:1049900004284DD1B74800680690002801DB06982E
:1049A00001E00698404214280CDBB2480068A0F5EC
:1049B000B4700790002801DB079801E00798404297
:1049C000142802DA02200AF00BFFAA48006878389F
:1049D0000790002801DB079801E00798404214285F
:1049E00004DA02200AF006FF13E021E0A148006883
:1049F000F0380790002801DB079801E00798404253
:104A0000142803DA02200AF0FFFE02E002200AF076
:104A1000C0FE0A210120974A92ED000AB8EE400A32
:104A20000AF093FB8349087005209149087054E00F
:104A30008E48008800F4804048B38D4800780428F0
:104A400025DA8D480078012847D100208A4908706E
:104A50008A48007810B1012808D103E00120874975
:104A6000087004E000208549087000E000BF00BF26
:104A700082480078012803D102200AF0CFFE02E02C
:104A800002200AF090FE01200AF0AAFE25E07748F5
:104A9000008800F4804000BB7748007801281CD1D2
:104AA0000020754908707548007810B1012808D1B8
:104AB00003E001217148017004E000206F49087093
:104AC00000E000BF00BF6D480078012802D10AF065
:104AD0007DFE02E001200AF066FE6448008800F4D2
:104AE000004020B362480078032820D100216448A8
:104AF00005F032FC6348006863490988B0FBF1F2B5
:104B000001FB120061490860084600684FF4B47167
:104B100048435D490988B0FBF1F05C4908600846EC
:104B200000685449086004205149087041E14F4829
:104B3000008800F48040E8B3554890ED000A3F48F3
:104B400080ED000A0A2102203C4A92ED000A0AF098
:104B5000FCFA38490870394890ED000AF2EE040A70
:104B6000B4EEE00AF1EE10FA0AD2414800780128CA
:104B700006D102203E49087000200BF0EDFF0FE047
:104B80002E4890ED000AF2EE040AB4EEE00AF1EECF
:104B900010FA05DD36480078012801D13449087043
:104BA0003348007802287FD1244890ED000ADFEDD9
:104BB000390A00E08AE0B4EEE00AF1EE10FA31DDE5
:104BC00035480078401C34490870084600780128B0
:104BD00005D11A4890ED000A304880ED000A2E48B1
:104BE000007805281ED1154890ED000A2B48D0ED1D
:104BF000000A30EE600ABDEEC00A8DED070A079884
:104C0000002801DB079801E007984042052847DAB1
:104C10000121002004F07AFB00201F4908700320C6
:104C200013490870C5E03FE05C04002088000020C4
:104C30007800002074000020600400208C00002018
:104C40007C000020120000203804002044040020D2
:104C50000B0000200A0000204C040020500400201B
:104C600054040020580400200D00002050050020AE
:104C700014000020700000206905002018000020AA
:104C8000000C00405405002058050020380000208A
:104C90003C0400200000C8429C0000209800002036
:104CA0000020FA49087084E0F948007803280CD104
:104CB000F84890ED000AF2EE040AB4EEE00AF1EED4
:104CC00010FA76D20220F249087072E0F2480088A9
:104CD00000F48040D8BBF14890ED000AED4880ED2B
:104CE000000A0A210220EB4A92ED000A0AF02DFA8E
:104CF000EB490870E74890ED000A5FED1A0AB4EE40
:104D0000E00AF1EE10FA3CDDE148007878BBDF48BC
:104D10000078012806D1DF4890ED000AE14880EDD7
:104D2000000A28E0D9480078052824D1D94890ED18
:104D3000000ADC48D0ED000A30EE600ABDEEC00A81
:104D40008DED070A0798002802DB079802E030E0A3
:104D50000798404205280BDA0121002004F0D6FA1A
:104D60000020CA4908700120C949087003E008E022
:104D70000020C6490870C5480078401CC349087027
:104D800017E0C44890ED000A5FED3E0AB4EEE00A79
:104D9000F1EE10FA0DD2BE480078012809D10021A9
:104DA000BB480170084604F0B1FA0021BE4805F086
:104DB000D3FA02F013BDB94890ED000ABB4880ED6C
:104DC000000A90ED000AF3EE0E0AB4EEE00AF1EEEE
:104DD00010FA05DD0122032100200AF07CF804E02E
:104DE0000022032110460AF076F8B1480078E0BBB3
:104DF000B0480078C8BBB048007820B101281BD06B
:104E000002284CD132E0AD4890ED000AAC4880ED6C
:104E1000000A0120AA4991ED000AFBF70FFDA948FD
:104E200080ED000A0A210120A64A92ED000A0AF04C
:104E30008CF99B49087033E0A34890ED000AA04824
:104E400080ED000A01209E4991ED000AFBF7F6FC77
:104E50009C4880ED000A0A2101209A4A92ED000A3E
:104E60000AF073F98E4908701AE08AE0974890EDCD
:104E7000000A934880ED000A0120914991ED000A53
:104E8000FBF7DCFC8F4880ED000A0A2101208D4AE7
:104E900092ED000A0AF059F98149087000E000BF5C
:104EA00000BF8B48007830B101281DD0022834D0D3
:104EB000032864D14AE0874890ED000A754880EDE8
:104EC000000A0220734991ED000AFBF7B7FC7D4808
:104ED00080ED000A012102207A4A92ED000A0AF0D0
:104EE00034F96F4908704BE07B4890ED000A69483F
:104EF00080ED000A0220674991ED000AFBF79EFC55
:104F0000704880ED000A012102206E4A92ED000AED
:104F10000AF01BF96249087032E0704890ED000A0F
:104F20005C4880ED000A02205A4991ED000AFBF727
:104F300085FC644880ED000A0A210220614A92ED56
:104F4000000A0AF002F95649087019E0644890ED29
:104F5000000A504880ED000A02204E4991ED000AF7
:104F6000FBF76CFC574880ED000A0A210220554AE5
:104F700092ED000A0AF0E9F84949087000E000BF24
:104F800062E24C48007898B35648007801280CD16A
:104F90000020544908700A210220534A128800EE6A
:104FA000102AB8EE400A0AF0D0F84948007830B12B
:104FB00001281ED0022835D0032865D14BE04B488C
:104FC00090ED000A3E4880ED000A01203C4991ED39
:104FD000000AFBF733FC3B4880ED000A0A21012060
:104FE000384A92ED000A0AF0B0F82D49087086E0C0
:104FF00086E03F4890ED000A314880ED000A01202C
:105000002F4991ED000AFBF719FC2E4880ED000AAC
:105010000A2101202B4A92ED000A0AF096F8204955
:1050200008706CE0334890ED000A254880ED000AD6
:105030000120234991ED000AFBF700FC214880ED97
:10504000000A0A2101201F4A92ED000A0AF07DF8A9
:105050001349087053E0284890ED000A184880ED85
:10506000000A0120164991ED000AFBF7E7FB1548FD
:1050700080ED000A0A210120124A92ED000A0AF08E
:1050800064F8074908703AE038E000009C0000200E
:10509000140000208C000020500500203C0400205B
:1050A0007400002098000020000C004090000020B8
:1050B0000B000020120000200800002064040020E3
:1050C0008800002078000020680400206C04002084
:1050D0000F00002080040020840400209C04002095
:1050E00098040020010500206605002070040020BF
:1050F00074040020780400203400002000BFA3E1E5
:10510000FE4800780028FAD0FD480078012812D126
:105110000020FB490870FB48007810B1012808D135
:1051200003E00120F749087004E00020F549087009
:1051300000E000BF00BFF4480078072872D2DFE823
:1051400000F0044B93DAEEEDEC00EE48007810B17D
:10515000012816D10AE000220321092009F0BBFE34
:10516000002211460B2009F0B6FE0BE001220321BC
:10517000092009F0B0FE012200210B2009F0ABFE4E
:1051800000E000BF00BFE148007820B101280CD04A
:1051900002281ED113E00A210120DD4A92ED000A07
:1051A00009F0D3FFDB49087014E00A210120DA4A34
:1051B00092ED000A09F0C9FFD64908700AE00A21F9
:1051C0000120D64A92ED000A09F0BFFFD1490870CC
:1051D00000E000BF00BF36E1CA48007810B10128E6
:1051E00016D10AE0002203210A2009F074FE0022F1
:1051F00011460B2009F06FFE0BE0012203210A206B
:1052000009F069FE012200210B2009F064FE00E094
:1052100000BF00BFBD48007828B101280DD002288A
:105220001FD114E00EE10A210120B94A92ED000AD3
:1052300009F08BFFB749087014E00A210120B64A33
:1052400092ED000A09F081FFB24908700AE00A21D4
:105250000120B24A92ED000A09F077FFAD490870CB
:1052600000E000BF00BFEEE0A648007810B10128C2
:1052700016D10AE0002201210B2009F02CFE0022A9
:1052800011460B2009F027FE0BE0012211460B20EE
:1052900009F021FE012200210B2009F01CFE00E094
:1052A00000BF00BF9948007820B101280CD0022827
:1052B0001ED113E00A210120954A92ED000A09F05F
:1052C00044FF9449087014E00A210120924A92EDAB
:1052D000000A09F03AFF8F4908700AE00A2101200C
:1052E0008E4A92ED000A09F030FF8A49087000E00A
:1052F00000BF00BFA7E08548007820B101280FD08B
:10530000022821D116E00A210120854A92ED000AE7
:1053100009F01BFF7F49087017E06AE040E016E0E3
:105320000A2101207F4A92ED000A09F00EFF794917
:1053300008700AE00A2101207B4A92ED000A09F078
:1053400004FF7449087000E000BF00BF7BE06F48B5
:10535000007820B101280CD002281ED113E00A21C8
:105360000120724A92ED000A09F0EFFE69490870C7
:1053700014E00A2101206E4A92ED000A09F0E5FED0
:10538000644908700AE00A2101206A4A92ED000A85
:1053900009F0DBFE5F49087000E000BF00BF52E08B
:1053A0005A48007820B101280CD002281ED113E001
:1053B0000A210120604A92ED000A09F0C6FE554913
:1053C000087014E00A2101205C4A92ED000A09F0FD
:1053D000BCFE504908700AE00A210120584A92EDAB
:1053E000000A09F0B2FE4B49087000E000BF00BFA0
:1053F00029E04648007820B101280CD002281ED1AF
:1054000013E00A2101204F4A92ED000A09F09DFEA7
:105410004049087014E00A2101204B4A92ED000A2D
:1054200009F093FE3B4908700AE00A210120474A2F
:1054300092ED000A09F089FE3649087000E000BFCD
:1054400000BF00E000BF00BFB3E430480078002890
:1054500051D13F4890ED000A3E4880ED000A3E4899
:105460003E49097800EB810090ED000A3948D0ED03
:10547000000A30EEC00A384814303849097800EB89
:105480008100D0ED000A20EE200A324880ED000AAB
:1054900090ED000A324880ED000A01202D4991ED7F
:1054A000000AFBF7CBF92F4880ED000A9FED2E0A8A
:1054B0002E4880ED000A2948007805287AD2DFE8D6
:1054C00000F00383D4FBFA00012202211A2009F024
:1054D00002FD2748007801285CD12648007958B998
:1054E0002548006841F6380188424AD801201D4904
:1054F00091ED000A42E0E1E143E000000B000020F2
:1055000069050020180000200D0000200800002080
:105510006404002074000020680400206C04002053
:105520003C000020400000204400002048000020F3
:105530004C000020500000205400002058000020A3
:105540005C00002060000020640000206800002053
:105550004405002080000020306E00200E00002056
:10556000B40000207800002000000000900000201F
:1055700013000020B86E0020400500200AF029F832
:105580001CE001200AF018F9FA480078401CF9499B
:10559000087013E0F848007968B9F848006841F6E7
:1055A0003801884207D80120F54991ED000A0AF038
:1055B00010F803E06AE101200AF001F8012200215D
:1055C000062009F088FC62E1002202211A2009F07D
:1055D00082FCEC48007801282DD1E74800790128A9
:1055E00011D1E648006841F6380188420BD8E348FB
:1055F0000068B0F5117F06D30120E14991ED000A62
:1056000009F0E7FF2BE001200AF0D6F8DA4800792C
:10561000012806DAD7480078401EC1B2D54801708B
:105620001DE0D5480079012819DDD2480078401CDA
:10563000D049087013E0D048007901280CD1CF4838
:10564000016841F63800814206D80120CC4991ED2D
:10565000000A09F0BEFF02E0012009F0B0FF0122BC
:105660000021022009F037FC11E1C648007801282A
:105670003AD1C148007902281FD1C048006841F6DC
:105680003801884219D8BD480068B0F5117F14D39D
:105690000120BB4991ED000A09F09BFFB74890ED4E
:1056A000000AB8EE400ADFEDB80A80EE201AB748CB
:1056B00080ED001A38E0A1E03CE001200AF07CF81F
:1056C000AD480079022805DAAA480078401EA949A9
:1056D000087029E0A8480079022825DDA54800784F
:1056E000401CA44908701FE0A3480079022818D183
:1056F000A248006841F63801884212D80120A0492A
:1057000091ED000A09F065FF9C4890ED000AB8EEA3
:10571000400ADFED9D0A80EE201A9C4880ED001AB9
:1057200002E0012009F04BFF01220021042009F0D2
:10573000D2FBACE093480078012839D18E4800793B
:1057400003281DD18D48006841F63801884217D8DA
:105750008A480068B0F5117F12D30120884991ED85
:10576000000A09F036FF854890ED000AB8EE400ABD
:10577000F2EE040A80EE201A844880ED001A37E029
:1057800001200AF019F87C480079032805DA7948E5
:105790000078401E774908702AE07748007903288E
:1057A00026DD74480078401CC1B2724801701FE0C9
:1057B00071480079032818D17048016841F6380013
:1057C000814212D801206E4991ED000A09F001FFD3
:1057D0006A4890ED000AB8EE400AF2EE040A80EE44
:1057E000201A6A4880ED001A02E0012009F0E7FE65
:1057F00001220021062009F06EFB48E06148007894
:10580000012827D15C480079042818D15B4800683A
:10581000B0F5117F13D359480068B0F57A7F0ED8E0
:105820000120574991ED000A09F0D3FE534890ED4D
:10583000000AB8EE400A554880ED000A25E0012034
:1058400009F0BAFF4C48007904281EDA03204949C0
:1058500008701AE048480079042813D147480068C6
:10586000B0F57A7F0ED80120454991ED000A09F084
:10587000B0FE424890ED000AB8EE400A434880ED81
:10588000000A02E0012009F09AFE00E000BF00BF1C
:105890003E4890ED000ADFED3E0AB4EEE00AF1EE7C
:1058A00010FA05DD01220321002009F014FBFCE3BE
:1058B00000220321104609F00EFBF6E3354800787C
:1058C0000128F4D13448007888BB344890ED000AB0
:1058D000334880ED000A0120314991ED000AFAF7C2
:1058E000ADFF274880ED000A1FEDE10A274880ED53
:1058F000000A2048007830B1012853D0022877D020
:10590000032876D116E11F480078012819D11A48DA
:10591000007968B91948006841F63801884207D80B
:105920000120174991ED000A09F053FE1CE05FE1E8
:10593000012009F041FF0F480078401C0D49087014
:1059400012E00D48007960B90C48006841F6380152
:10595000884206D801200A4991ED000A09F039FE73
:1059600002E0012009F02BFE01220021022009F0B3
:10597000B2FA26E10E000020B86E0020400500209B
:1059800078000020130000200000C8429000002092
:1059900000004842080000200F00002044050020BD
:1059A00080000020FE48007801283AD1FD480079A7
:1059B00001281FD1FC48016841F63800814219D8FE
:1059C000F9480068B0F5117F14D30120F74991ED33
:1059D000000A09F0FEFDF44890ED000AB8EE400A16
:1059E0005FED170A80EE201AF14880ED001A38E0CA
:1059F0003DE0E5E0012009F0DFFEEA4800790128FA
:105A000005DAEC480078401EEA49087029E0E548CC
:105A10000079012825DDE7480078401CE549087039
:105A20001FE0E0480079012818D1DF48006841F6FE
:105A30003801884212D80120DC4991ED000A09F0B2
:105A4000C8FDD94890ED000AB8EE400A5FED320A71
:105A500080EE201AD64880ED001A02E0012009F0FD
:105A6000AEFD01220021042009F035FAA9E0CC485E
:105A70000078012838D1CB48007902281DD1CA48C6
:105A8000006841F63801884217D8C7480068B0F569
:105A9000117F12D30120C54991ED000A09F099FD4B
:105AA000C14890ED000AB8EE400AF2EE040A80EE1A
:105AB000201ABF4880ED001A36E0012009F07CFE74
:105AC000B8480079022805DABA480078401EB9497A
:105AD000087029E0B3480079022825DDB548007830
