:020000040800F2
:1000000068740020918D0008AD700008AF70000882
:10001000B3700008B7700008BB7000080000000053
:10002000000000000000000000000000BF70000899
:10003000C170000800000000C3700008C57000080F
:10004000AB8D0008AB8D0008AB8D0008AB8D0008B0
:10005000AB8D0008AB8D0008AB8D0008AB8D0008A0
:10006000AB8D0008AB8D0008AB8D0008AB8D000890
:10007000AB8D0008AB8D0008AB8D0008AB8D000880
:10008000AB8D0008AB8D0008AB8D0008AB8D000870
:10009000AB8D0008AB8D0008AB8D000875730008B0
:1000A000AB8D0008AB8D0008AB8D0008AB8D000850
:1000B0004D720008A973000817760008AB8D000880
:1000C000AB8D0008AB8D0008AB8D0008AB8D000830
:1000D000AB8D00084F7200081F730008AB8D00083D
:1000E000AB8D0008AB8D0008AB8D0008B97500081A
:1000F000FB750008DF75000800000000000000002C
:100100000000000000000000E7700008AB8D000850
:100110000000000000000000AB8D0008AB8D00085F
:10012000AB8D0008AB8D0008C7700008AB8D0008D0
:10013000AB8D000883760008AB8D0008AB8D0008FE
:10014000AB8D00080000000000000000000000006F
:10015000000000000000000000000000000000009F
:100160000000000000000000AB8D0008AB8D00080F
:10017000AB8D000800000000AB8D000800000000FF
:1001800000000000AB8D0008DFF80CD011F0F4FC8B
:1001900000480047010200086874002010B50024E0
:1001A0000DF0EDFD0BF076FB0BF06EFB0EF014FA8C
:1001B0000EF041FA0EF079FA0DF0A3FE0FF0DFFF1A
:1001C0004FF4E13010F077FA4FF4FA700BF09FFB28
:1001D00010F033F9044610F0F5F810F096F80EF030
:1001E00002FF10F0BFFA10F01AFB10F0BFFB10F086
:1001F0004FFB4FF4E16010F07BFB10F0DFFA10BD15
:10020000FFF7CCFF1A48006820F4707018490860A6
:100210000121184809F016FE28E017480078012847
:1002200011D100201449087014480088401C13495B
:1002300008800846008841F21851884203D10EF028
:10024000FAF90BF091FB0E480078012803D00D4815
:100250000078012804D100200849088000F005FB3F
:1002600000F0E4F802F0E5FD08F0ACFAD5E7000094
:100270000004014000040040E204002000000020CF
:10028000A5040020A60400209FEDF70AF74880EDA2
:10029000000A9FEDF50AF64880ED000A9FEDF20A8C
:1002A000F44880ED000A9FEDF00AF34880ED000A63
:1002B0009FEDED0AF14880ED000A9FEDEB0AF04852
:1002C00080ED000A9FEDE80AEE4880ED000A9FED00
:1002D000E60AED4880ED000A9FEDE30AEB4880ED69
:1002E000000A704710B5EA480078072810DC10F0C3
:1002F00050FB10F05CFB0121E64809F0C0FA012137
:10030000E54809F0BCFA0121E44809F09BFD1BE037
:10031000DF480078082817DBDD4800780F2813D065
:1003200010F03EFB10F04AFB0021DA4809F0A7FA72
:100330000021D94809F0A3FA0021D84809F082FD2C
:100340000021D74809F07EFD10BD10B5D0480078D7
:10035000801F052865D2DFE800F0031A1E3647002B
:10036000D048007820B1012806D002280CD107E03F
:1003700004200FF050FE08E003200FF04CFE04E0D4
:1003800004200FF048FE00E000BF00BF4AE0042058
:100390000FF041FE46E0C348007810B101280FD1AC
:1003A00003E005200FF037FE0BE0BF48007818B9D6
:1003B00004200FF030FE02E012200FF02CFE00E0CF
:1003C00000BF00BF2EE0B748007810B1012808D167
:1003D00003E009200FF01FFE04E00A200FF01BFECF
:1003E00000E000BF00BF1DE0AE48007830B101283A
:1003F00008D002280AD0032810D10BE007200FF004
:100400000AFE0CE00B200FF006FE08E013200FF0B0
:1004100002FE04E013200FF0FEFD00E000BF00BF6D
:1004200000E000BF00BFFFF75DFF10BD10B59F48A3
:100430000078002875D196480078801F052871D271
:10044000DFE800F0031527475E0063200EF0A8FEEA
:10045000BCEEC00A10EE100A9549087060200EF03C
:100460009FFE944880ED000A0CF033F87AE0632098
:100470000EF096FEBCEEC00A10EE100A8C49087011
:1004800060200EF08DFE8B4880ED000A0CF021F804
:1004900068E08548007830B960200EF081FE85481C
:1004A00080ED000A14E080480078012806D1612020
:1004B0000EF076FE7F4880ED000A09E07A48007869
:1004C000022805D162200EF06BFE7B4880ED000A09
:1004D00048E07448007810B101280ED106E0602091
:1004E0000EF05EFE734880ED000A07E060200EF01B
:1004F00057FE704880ED000A00E000BF00BF31E009
:100500006848007830B101280DD0022812D00328A5
:1005100024D116E060200EF043FE664880ED000A0C
:100520001DE020E01DE060200EF03AFE614880ED05
:10053000000A14E060200EF033FE5E4880ED000AF1
:100540000DE060200EF02CFE9FED5C1ADFED5C0AE2
:1005500040EE010A5748C0ED000A00E000BF00BFAE
:1005600000E000BF00BF10BD10B55648007810B1C4
:1005700001280CD105E0002202211D200DF0E7FF2B
:1005800006E0012202211D200DF0E1FF00E000BF86
:1005900000BF10BD10B54C48007820B101280DD027
:1005A000022821D115E0002211460A200DF0CFFFCC
:1005B000002201210A200DF0CAFF16E00022114698
:1005C0000A200DF0C4FF012211460A200DF0BFFFE2
:1005D0000BE0012200210A200DF0B9FF00220121C9
:1005E0000A200DF0B4FF00E000BF00BF10BD10B541
:1005F0003648007810B101280CD105E000221146E0
:1006000009200DF0A4FF06E00122002109200DF0D1
:100610009EFF00E000BF00BF10BD10B52C48007861
:1006200001280AD1012202211C200DF090FF002296
:1006300003211C200DF08BFF09E0002202211C2069
:100640000DF085FF012203211C200DF080FF10BD5D
:10065000F0EE400A01285DD11B490978D1B3012988
:100660003AD0022954D145E000000000B003002038
:1006700068040020B40300206C04002090000020D7
:10068000880000208C000020780000207C000020E2
:10069000AA0400200060014000640140005C0140A9
:1006A000000C0040080000200F0000201000002077
:1006B0009D000020BC040020C00400206666E63FC8
:1006C00000000042090000200A0000200C00002069
:1006D00013000020FFE71CE0FE4991ED000AF4EE54
:1006E000C00AF1EE10FA01DDC1ED000AF94991ED01
:1006F000000A7047F84991ED000AF4EEC00AF1EEE5
:1007000010FA01D2C1ED000AF34991ED000AF0E7B9
:1007100000BF28E0022826D1F049097821B101293B
:1007200003D002291DD10EE01CE0ED4991ED000A35
:10073000F4EEC00AF1EE10FA01DDC1ED000AE8495D
:1007400091ED000AD5E7E74991ED000AF4EEC00A01
:10075000F1EE10FA01D2C1ED000AE24991ED000A72
:10076000C7E700BF00BFB0EE600AC2E7F0EE400A84
:10077000012805D1DC4991ED000A30EEC00A70472E
:10078000022805D1D94991ED000A30EEC00AF6E7FA
:1007900000BFF4E700B5B0EE401A0246CF4800783B
:1007A00028B11046B0EE410AFFF752FF00BDD04815
:1007B000007828B11046B0EE410AFFF7D7FFF5E701
:1007C000B0EE410AF2E700B5F0EE401A03461846D3
:1007D000B0EE610AFFF7DEFF9FEDC61AC0EE010A18
:1007E000B0EE600A00BD10B5B0EE402A04462046C7
:1007F000B0EE420AFFF7E7FF9FEDBE1AC0EE010A16
:10080000B0EE600A10BD10B59223002242215020A4
:100810000EF064FC50200EF095FCB74908700846B5
:100820000078012820D100200870512108460EF0E0
:1008300055FC51200EF086FCAF4908700846007840
:10084000012811D100200870AC48407800F0010068
:1008500028B1012203211D200DF079FE04E00022C1
:1008600003211D200DF073FE10BD10B52DED088B7A
:10087000A3480078012856D1FFF706FD0020A049C3
:1008800008700FF09BFC00209E4908709349087087
:100890009D490870964908709C4908709C490870E9
:1008A0009C4908709C4908709C490870002404E029
:1008B00000209B490855601CC4B2102CF8DB9948F5
:1008C0000078801F052826D2DFE800F0030B1319FB
:1008D0001F002420924988730820087380208872A2
:1008E0001AE004208E498873112048730420C872CE
:1008F00012E005208A498873082008730CE0012063
:10090000874908702020087306E020208449087376
:100910000420887300E000BF00BF0DF0AAFEFFF7BF
:1009200023FEFFF712FD80480078012842F07E8206
:10093000FFF7AAFC00207C4908700FF03FFC7948C3
:100940000078801F052882F0ED81DFE810F00500B7
:10095000C105DF0BBF0EBD0F7448007801282CD1F4
:100960006D480078012828D171480078032824D0E8
:100970006F480078052820D068480078E8B9002042
:100980006A490870644908700DF055FE012211464D
:100990001D200DF0DCFD012202211C200DF0D7FDF1
:1009A0000122032118200DF0D2FD01220321152080
:1009B0000DF0CDFD00205F4908705D4800780628E5
:1009C0007ED2DFE810F00600C500CD015A032C04EA
:1009D000340556480078012873D14B480078002828
:1009E000FAD14A4800780028F6D14A480078002811
:1009F000F2D14A4800780028EED1384908703C49C5
:100A00000870434908704449087001204A49087039
:100A10000DF011FE3B48007820B1012806D00228D5
:100A20000CD107E001203749087008E00220354961
:100A3000087004E000203349087000E000BF00BFE8
:100A40003048007820B1012812D0022877D124E064
:100A5000012211461D200DF07AFD012203211820EC
:100A60000DF075FD0122032115200DF070FD67E0EA
:100A7000012200211C200DF06AFD002201211D2011
:100A80000DF065FD0122032118200DF060FD01220B
:100A9000032115200DF05BFD52E0012200211C20F6
:100AA0000DF055FD012200211D200DF050FD012209
:100AB00011461D200DF04BFD01220321182001E0FD
:100AC000EFE344E00DF043FD0122032115200DF07A
:100AD0003EFD35E01C000020200000200A00002020
:100AE00024000020280000202C00002030000020DE
:100AF0000C00002000007A44B7040020486C00205D
:100B0000A5040020080000200B0000200D0000209C
:100B10000E0000200F000020120000201000002016
:100B2000386C0020AA040020A6040020A70400209E
:100B3000AC040020AC03002013000020FFE700BF3E
:100B400000BFFFF727FDFFF752FDFFF766FD93E2B9
:100B5000FB480078012852D1FA48007800284ED18D
:100B6000F948007800284AD1F848007800287CD15C
:100B7000F3490870F6490870F6490870F64800789D
:100B800020B1012806D002280CD107E00120F2494B
:100B9000087008E00220F049087004E00020EE49E7
:100BA000087000E000BF00BFFFF7F4FCFFF71FFD77
:100BB000E9480078012858D1E848007800BBE848A7
:100BC00090ED000AE748D0ED000A30EE600AE648F2
:100BD00080ED000A90ED000AE44880ED000AE44848
:100BE00090ED000AE348D0ED000A30EE600AE248DA
:100BF00080ED000A90ED000AE04880ED000A34E044
:100C0000D6480078012816D1D64890ED000AD6487B
:100C100080ED000A90ED000AD44880ED000AD54826
:100C200090ED000AD44880ED000A90ED000AD34808
:100C300080ED000A19E0C9480078022815D1C8489B
:100C400090ED000AC84880ED000A90ED000AC74800
:100C500080ED000AC64890ED000AC74880ED000A02
:100C600090ED000AC54880ED000AB54800780128DB
:100C700020D1B4480078E8B1B4480078D0B9002059
:100C8000AF490870B2490870B3480078012802D013
:100C9000022808D103E00220AF49087004E00120D7
:100CA000AD49087000E000BF00BFFFF773FCFFF71D
:100CB0009EFC54E0B2480078012850D1A248007848
:100CC000F0BBB0480078D8BBA2480078C0BB9F48B2
:100CD0000078A8BB0020AA4908709D4908709E486A
:100CE000007868B99748007850B901209549087094
:100CF000994908700122114609200DF028FC0CE0EA
:100D00009048007848B100208E49087092490870D8
:100D10000022012109200DF01AFCFFF73BFCFFF730
:100D200066FC88480078012819D1974890ED000AA0
:100D30008D4880ED000A954890ED000A8B4800E050
:100D40000DE080ED000A924890ED000A8A4880ED9F
:100D5000000A904890ED000A884880ED000AB4E34C
:100D60007748007801286CD176480078002868D14F
:100D700075480078002864D174480078002860D154
:100D80006F4908707449087072490870704800789B
:100D900010B1012808D103E001206D49087004E07A
:100DA00000206B49087000E000BF00BFFFF71FFC88
:100DB000FFF7F0FB66480078002879D06748007894
:100DC000F0BB6848006810F0BBFC41EC1B0BB0EEB8
:100DD0004B0AF0EE6B0A11F0CBFBB0EE409AF0EE4E
:100DE000609A5F48006810F0ABFC41EC1A0B53ECC2
:100DF000192B10F08FFB41EC180B10F0E5FC664945
:100E000008605C48006810F09BFC41EC1B0BB0EEE6
:100E10004B0AF0EE6B0A11F0ABFBB0EE409AF0EE2D
:100E2000609A5348006810F08BFC41EC1A0B53ECAD
:100E3000192B10F06FFB41EC180B10F0C5FC01E012
:100E400009E052E055490860454890ED000A5448D1
:100E500080ED000A20E04148007801280CD141488B
:100E600090ED000A4C4880ED000A424890ED000ADF
:100E70004A4880ED000A0FE03848007802280BD17C
:100E8000374890ED000A444880ED000A384890ED5C
:100E9000000A424880ED000A4248007848B93E48BE
:100EA00090ED000AF2EE040A20EE200A80ED000A1E
:100EB000E2E03C480078012809D1374890ED000A6B
:100EC000DFED390A20EE200A80ED000AD4E0354833
:100ED0000078022808D1304890ED000A5FEDFB0A47
:100EE00020EE200A80ED000AC6E02548007801289F
:100EF00025D114480078002821D122480078002804
:100F00001DD114480078002819D110480078B0B9D4
:100F100000201B490870104908700D4908702349CA
:100F200008701849087001202149087000202149E3
:100F3000087005480078F8B3012846D141E09BE0ED
:100F4000A70400200B0000200D000020100000204E
:100F50000C000020120000200A00002008000020E1
:100F6000B0030020680400201C00002020000020A6
:100F7000B40300206C04002024000020280000207E
:100F8000A80400200F000020C0030020C803002098
:100F9000C4030020CC0300202C00002030000020DF
:100FA000140400209D0000200000C8420E00002014
:100FB0001300002014000020FFE70120FE49087004
:100FC00004E00020FC49087000E000BF00BFFA48C0
:100FD000007810B1012847D113E0002203211B2023
:100FE0000DF0B5FA0122032118200DF0B0FA01220C
:100FF000032115200DF0ABFA0021F04808F022FF84
:1010000033E00022022110460DF0A1FA0022022155
:101010000A200DF09CFA012203211B200DF097FA03
:101020000022032118200DF092FA0022032115203E
:101030000DF08DFA01200DF0F2FE02200DF0EFFE12
:101040000121DE4808F0FEFE0020DD490880002175
:10105000084607F0D1FE1021DA4809F0CAFA01214A
:10106000D94808F0EFFE00E000BF00BFFFF7BFFA6D
:10107000FFF790FAFFF7D1FA27E2D4480078012869
:1010800066D1D3480078C0BBCB480078A8BBD14814
:10109000007890BBD048007878BBD048007860BB1F
:1010A0000020CA490870CE490870CE490870CE4861
:1010B0000078012812D10020CB4908705B21084636
:1010C0000EF00CF85B200EF03DF8C8490870084699
:1010D0000078012835D10020087032E0C44800783B
:1010E00006282CD2DFE800F0030A10171E25012085
:1010F000BF4908700EF0A7FF22E029E00220BC499A
:1011000008700EF0A0FF1BE00320B9490870002012
:101110000EF099FF14E00420B549087001200EF08C
:1011200092FF0DE00520B249087002200EF08BFFFF
:1011300006E00020AE4908700EF085FF00E000BF19
:1011400000BFFFF76AFAFFF752FAFFF723FA65E0EC
:101150009E480078012834D19F480078012830D17A
:101160009E48007868BB002098490870A149087023
:1011700001200DF05DFE9E48007810B1012808D1D5
:1011800003E001209A49087004E0002098490870A3
:1011900000E000BF00BF9648007810B101280ED1D2
:1011A00006E0032102209FED940A0DF00AFB07E000
:1011B000042102209FED910A0DF003FB00E000BF27
:1011C0002CE08F480078012828D18148007828BB7E
:1011D0008248007810BB0020894908708248007856
:1011E00001281BD00120804908705A2108460DF0C3
:1011F00075FF5A200DF0A6FF7C490870084600785C
:10120000012801D100200870012202211C200DF0CC
:101210009EF9002203211C200DF099F955E16B483D
:10122000007801283CD16A480078C8BB6248007841
:10123000B0BB6A48007898BB0020644908706849D0
:101240000870684908706A4908700120664908708A
:101250000DF0F1F95F48007830B1012808D002287C
:101260000AD0032810D10BE001205A4908700CE085
:1012700002205849087008E003205649087004E02D
:1012800000205449087000E000BF00BF51480078BA
:1012900040B1012811D002281AD0032829D122E018
:1012A00056E011E10122032118200DF050F901222E
:1012B000032115200DF04BF91CE001220021132021
:1012C0000DF045F90122002115200DF040F911E043
:1012D0000122002113200DF03AF9012200211420EF
:1012E0000DF035F906E00122114616200DF02FF918
:1012F00000E000BF00BF4348007820B1012808D0BB
:1013000002281CD10BE0012211461D200DF01FF90F
:1013100016E0012200211C200DF019F910E0012235
:1013200000211C200DF013F9012200211D200DF0D9
:101330000EF9012211461D200DF009F900E000BF51
:1013400000BFFFF727F9FFF752F9FFF766F96DE0E5
:101350002B480078012869D11D48007850BB1648F9
:10136000007838BB1B48007820BB1B48007808BBBE
:101370001A480078F0B9002021490870184908700F
:10138000184908701A49087012490870012012495A
:101390000870154908700DF04EF90122022117203E
:1013A0000DF0D5F8012200211A200DF0D0F801220D
:1013B000032129E03AE000000D0000200020004059
:1013C000C8040020000C0040005C0140A70400207D
:1013D0000B0000200F000020120000201000002051
:1013E0000A0000200C00002013000020B704002099
:1013F0000E000020AC030020000016440000FA4458
:10140000A80400200800002015200DF0A0F80120FD
:101410000DF00EFD032102201FED090A0DF0D1F998
:10142000FFF7E5F8FFF7B6F8FFF7F7F84DE0FB48F0
:101430000078012826D10020F8490870F848007883
:1014400010B1012808D103E00120F549087004E03B
:101450000020F349087000E000BF00BFF0480078AA
:1014600010B101280CD105E0002201211C200DF053
:101470006EF806E0012211461C200DF068F800E02D
:1014800000BF20E0E748007801281CD10020E54992
:101490000870E548007810B1012808D103E0012068
:1014A000E149087004E00020DF49087000E000BF57
:1014B00000BFDD48007810B1012802D100E001E052
:1014C00000E000BF00BF00E000BF00BF01F02BBC88
:1014D000D648007806287CD2DFE800F003C1FCFB88
:1014E000FAF9CE480078012861D1D1480078D0BB04
:1014F000D0480078B8BBCA480078A0BB0020CE49CD
:101500000870CE490870CE490870CE48007820B1E6
:10151000012806D002280CD107E00120C949087033
:1015200008E00220C749087004E00020C54908709F
:1015300000E000BF00BFC348007820B1012813D0ED
:1015400002282CD120E00022012117200CF0FFFFFF
:10155000012200211A200CF0FAFF012200211B2099
:101560000CF0F5FF1CE022E0002211461A200CF0DE
:10157000EEFF002211461B200CF0E9FF01220021A2
:1015800019200CF0E4FF0BE00022114619200CF0AA
:10159000DEFF0122114617200CF0D9FF00E000BF4A
:1015A00000BFFEF7F7FFFFF722F8FFF736F89B487A
:1015B0000078012852D19E48007888B39848007876
:1015C00070BBA048007828B1012807D002280DD1AF
:1015D00008E0EFE301209B49087008E002209949E8
:1015E000087004E000209749087000E000BF00BFC9
:1015F0009448007820B1012813D002282CD120E093
:101600000022012117200CF0A2FF012200211A2044
:101610000CF09DFF012200211B200CF098FF1CE024
:101620001CE0002211461A200CF091FF0022114606
:101630001B200CF08CFF0122002119200CF087FFE9
:101640000BE00022114619200CF081FF0122114607
:1016500017200CF07CFF00E000BF00BF8AE36F485A
:101660000078012837D172480078A0BB6C48007818
:1016700088BB002069490870704908706E4800787E
:1016800020B1012806D002280CD107E001206A49C8
:10169000087008E002206849087004E000206649EC
:1016A000087000E000BF00BFFEF774FFFEF79FFF69
:1016B00061480078012870D15E48007880BB61489D
:1016C000007848B1012813D002282AD11CE0EFE3AA
:1016D00052E350E36AE1DBE05B4890ED000A5B48CF
:1016E00080ED000A90ED000A594880ED000A19E0EB
:1016F000584890ED000A554880ED000A90ED000A28
:10170000534880ED000A0DE0534890ED000A4F4821
:1017100080ED000A90ED000A4D4880ED000A01E0DE
:101720003EE000BF00BF4D48007830B1012810D026
:1017300002281AD0032831D123E0494890ED000A4D
:10174000484880ED000A90ED000A474880ED000A05
:1017500025E0464890ED000A424880ED000A90EDF1
:10176000000A414880ED000A19E0414890ED000A66
:101770003C4880ED000A90ED000A3B4880ED000AED
:101780000DE03C4890ED000A364880ED000A90EDEF
:10179000000A354880ED000A01E075E000BF04E171
:1017A0002448007801286FD12C48007830B10128F6
:1017B00010D002281AD0032868D123E02E4890EDDB
:1017C000000A224880ED000A90ED000A204880EDD2
:1017D000000A5CE0294890ED000A1C4880ED000AF0
:1017E00090ED000A1A4880ED000A50E0244890ED80
:1017F000000A164880ED000A90ED000A144880EDBA
:10180000000A44E01F4890ED000A104880ED000AED
:1018100090ED000A0E4880ED000A38E0A704002091
:1018200010000020A804002011000020AC040020BB
:101830000B000020120000200A0000200C000020F5
:101840000E00002008000020D80300201C0000200B
:1018500020000020DC030020E00300200F00002017
:10186000F40300202400002028000020F8030020BA
:10187000100400200C040020E4030020E8030020F2
:10188000EC030020F003002040E0FFE700BF8CE005
:10189000FB480078012839D1FA480078B0BBFA48F3
:1018A000007898BB0020F6490870F8490870F8499C
:1018B0000870F84908700CF0BEFEF748007810B1C7
:1018C000012808D103E00120F349087004E000205A
:1018D000F149087000E000BF00BFEF48007810B188
:1018E00001285CD12BE0ED48007820B101280ED012
:1018F000022818D111E0012200211A200CF027FE45
:10190000012200211B200CF022FE0DE04DE00122FF
:10191000002119200CF01BFE06E0012211461720C1
:101920000CF015FE00E000BF00BF012202211620CE
:101930000CF00DFE0021DA4808F084FA30E00122B4
:10194000032109200CF003FE012200210B200CF0E2
:10195000FEFDD248007820B101280DD0022817D111
:1019600010E0012200211A200CF0F1FD01220021DB
:101970001B200CF0ECFD0CE00122002119200CF0E2
:10198000E6FD06E00122114617200CF0E0FD00E024
:1019900000BF00BF0121C24808F054FA00E000BFB8
:1019A00000BFFEF724FEFEF738FEADE3BD48007829
:1019B000012833D1B848007880BBB348007868BBB1
:1019C0000020B8490870AF490870B048007810B1DD
:1019D000012808D103E00120AC49087004E0002090
:1019E000AA49087000E000BF00BFFEF700FEFEF746
:1019F000D1FDA648007888B1AB48007880BBA748E5
:101A0000007820B101280AD0022816D10EE0A7489C
:101A100090ED000AA64880ED000A0FE064E0A548BA
:101A200090ED000AA24880ED000A07E0A24890ED80
:101A3000000A9F4880ED000A00E000BF00BF944804
:101A4000007830B101280CD0022811D003281DD114
:101A500015E09A4890ED000A994880ED000A16E0DA
:101A600016E0984890ED000A954880ED000A0EE0D7
:101A7000954890ED000A924880ED000A07E09348EF
:101A800090ED000A8E4880ED000A00E000BF2BE0D8
:101A900085480078012827D17D48007830B1012899
:101AA0000BD0022810D003281CD114E0884890EDF8
:101AB000000A7F4880ED000A15E0864890ED000A94
:101AC0007B4880ED000A0EE0834890ED000A7848DC
:101AD00080ED000A07E0814890ED000A744880ED2F
:101AE000000A00E000BF00BF6E48007801283CD12A
:101AF00069480078012838D163480078A8BB654858
:101B00000078072878D2DFE800F0041A31787C806A
:101B1000840001205F490870644890ED000A704815
:101B200080ED000A634890ED000A6E4880ED000ADF
:101B3000614890ED000A6C4880ED000A6EE00220DA
:101B400054490870594890ED000A684880ED000A31
:101B5000584890ED000A664880ED000A564890ED1E
:101B6000000A644880ED000A58E0EFE0032049498C
:101B700008704E4890ED000A5F4880ED000A4D481D
:101B800090ED000A5D4880ED000A4B4890ED000A98
:101B90005B4880ED000A524890ED000A5348D0EDB2
:101BA000000A30EE200A5448D0ED000A30EE200A38
:101BB000544880ED000A4B4890ED000A4C48D0EDA7
:101BC000000A30EE200A4D48D0ED000A30EE200A1F
:101BD0004D4880ED000A444890ED000A4548D0ED9C
:101BE000000A30EE200A4648D0ED000A30EE200A06
:101BF000464880ED000A11E00FE0042025490870F6
:101C00000CE005202349087008E0062021490870EF
:101C100004E003201F49087000E000BF00BF1D481A
:101C2000007807282BD2DFE800F004050B11737E43
:101C300089008AE00022032109200CF088FC84E05E
:101C4000002203210A200CF082FC7EE00022022107
:101C500009200CF07CFC002201210B200CF077FC09
:101C60000122032109200CF072FC012200210B202B
:101C70000CF06DFC00210A4808F0E4F865E063E030
:101C8000A80400200A000020100000200C00002002
:101C90000F0000200D0000200B0000200800002095
:101CA00000200040A704002012000020D8030020DC
:101CB0002C000020DC030020E0030020F4030020BF
:101CC00030000020F8030020100400200C04002045
:101CD000E4030020E8030020EC030020F0030020D0
:101CE0003C0000204000002044000020480000206C
:101CF0004C0000205000002054000020580000201C
:101D00005C000020600000206400002068000020CB
:101D10000022032109200CF01AFC012203210A20D1
:101D20000CF015FC11E0002203210A200CF00FFC3E
:101D3000012211460B200CF00AFC06E001220221D0
:101D400009200CF004FC00E000BF13E0FE4800781E
:101D500001280FD1FD48007860B9FD48007848B9E6
:101D60000020F949087001200DF04FF84FF47A7007
:101D700009F0CDFDC8E1C7E1F648007801286BD134
:101D8000F248007878BBF448007860BBF0480078EF
:101D900048BB0020EF490870F048007830B10128B6
:101DA00009D002280BD0032811D10CE00120EB4907
:101DB00008700DE0A7E10220E849087008E0032060
:101DC000E649087004E00020E449087000E000BF24
:101DD00000BFE248007838B1012815D0022819D098
:101DE000032837D12BE037E00022114613200CF0F6
:101DF000AEFB0022114614200CF0A9FB01220221A7
:101E000016200CF0A4FB26E00122032116200CF082
:101E10009EFB20E00022032116200CF098FB0022FC
:101E2000022116200CF093FB0122002113200CF05C
:101E30008EFB0122002115200CF089FB0BE0002213
:101E4000114615200CF083FB0122002114200CF018
:101E50007EFB00E000BF08E1BE480078012845D1C4
:101E6000BD480078012841D1B9480078F0BB002076
:101E7000B8490870BA490870BA490870B74800787C
:101E800030B1012808D002280AD0032811D10BE074
:101E90000120B24908700DE00220B049087009E045
:101EA0000320AE49087005E00020AC49087001E04D
:101EB000DCE000BF00BFA948007830B101281BD08A
:101EC000022829D0032856D140E001220021082011
:101ED0000CF03DFB0122002119200CF038FB0122FF
:101EE000002118200CF033FB002200E04CE003211D
:101EF00017200CF02CFB3FE0012200211A200CF0EF
:101F000026FB012200211B200CF021FB00221146A0
:101F100019200CF01CFB2FE00122022118200CF0EC
:101F200016FB0122114617200CF011FB002211466E
:101F300008200CF00CFB002211461A200CF007FBC5
:101F4000002211461B200CF002FB15E001220321A8
:101F500017200CF0FCFA0022022118200CF0F7FAEE
:101F60000022012117200CF0F2FA0022114618205D
:101F70000CF0EDFA00E000BF00BFFEF70BFBFEF730
:101F800036FBFEF74AFB70E06F48007801286CD101
:101F90006E48007880BB6E48007868BB00206A49B4
:101FA0000870714908706E4908706E4908706F4971
:101FB00008706A4908706E4908809FED6E0A6E4885
:101FC00080ED000A9FED6B0A6C4880ED000A9FEDE2
:101FD000690A6B4880ED000A0CF02DFB5E48007822
:101FE00010B1012809D103E001205B49087005E028
:101FF00000205949087001E037E000BF00BF564893
:10200000007810B1012828D113E0012200211A2004
:102010000CF09DFA012200211B200CF098FA0122FD
:10202000022116200CF093FA0021564807F00AFF0F
:1020300014E00122002108200CF089FA012200217D
:1020400019200CF084FA0122002118200CF07FFAEC
:1020500001214C4807F0F6FE00E000BF00BFFEF78C
:1020600099FAFEF7C4FAFEF7D8FA4DE0394800783D
:10207000012826D10020374908703548007810B172
:10208000012808D103E001203149087004E0002054
:102090002F49087000E000BF00BF2D48007810B144
:1020A00001280CD105E0002201211C200CF04FFA80
:1020B00006E0012211461C200CF049FA00E000BFA6
:1020C00020E02148007801281CD100201E4908701A
:1020D0002D48007810B1012808D103E001202A49D9
:1020E000087004E000202849087000E000BF00BF2D
:1020F0002548007810B1012802D100E001E000E09D
:1021000000BF00BF00E000BF00BFDEE21F48007854
:1021100006286ED2DFE800F00377BDE7FDFC0D482E
:10212000007801286ED10D48007898BB08480078E7
:1021300080BB00200A4908700A4908700B490870E2
:1021400001201349087026E0A80400200B0000209D
:1021500010000020A7040020120000200F00002023
:102160000A0000200C000020080000200E000020C3
:10217000DE04002000000000E4030020E80300204B
:10218000EC0300200018004011000020AC040020E7
:102190001300002036E00CF04EFAF748007810B13A
:1021A000012808D103E00120F349087004E0002071
:1021B000F149087000E000BF00BFEF48007810B19F
:1021C000012817D10AE0012200211C200CF0BFF9E0
:1021D0000122032118200CF0BAF90CE0012211466B
:1021E0001D200CF0B4F90122032118200CF0AFF9E6
:1021F00001E068E200BF00BFFEF7CCF9FEF7F7F997
:10220000FEF70BFA60E2DD480078012840D1DC4897
:10221000007888BB0020D9490870DA490870DA488C
:10222000007820B1012806D002280CD107E0012057
:10223000D549087008E00220D349087004E0002066
:10224000D149087000E000BF00BFFEF7A3F9FEF718
:10225000CEF9CD48007801281AD1CC480078022860
:102260000BD0CB4890ED000ACA4880ED000A90EDF3
:10227000000AC94880ED000A0AE0C84890ED000A4B
:10228000C74880ED000A90ED000AC64880ED000ABC
:102290001AE2BA480078012824D1B948007808BB6E
:1022A0000020B6490870B8490870B648007810B1E7
:1022B000012808D103E00120B249087004E00020A1
:1022C000B049087000E000BF00BFFEF790F9FEF7CC
:1022D00061F9AC48007828B1AD4890ED000AB248E9
:1022E00080ED000AF0E1A548007801283BD1A7481D
:1022F0000078C0BBA2480078A8BB00209F490870A6
:10230000A14908709F4908709B48007828B101E0F6
:102310008CE115E101287FD141E0A4480078012833
:1023200012D10020A14908705B2108460CF0D6FEAE
:102330005B200CF007FF9E490870084600780128D2
:102340002CD10020087029E09A480078052823D273
:10235000DFE800F0030A10161C0001209549087000
:102360000DF071FE19E060E00220924908700DF056
:102370006AFE12E003208F4908700DF064FE0CE045
:1023800004208C4908700DF05EFE06E000208949AB
:1023900008700DF058FE00E000BF00BF3DE083482C
:1023A0000078012812D10020804908705B2108467E
:1023B0000CF094FE5B200CF0C5FE7D4908700846C9
:1023C0000078012827D10020087024E0794800789F
:1023D00030B101280AD002280FD0032819D112E009
:1023E0000120744908700DF02EFE13E0022071499F
:1023F00008700DF028FE0DE00EE003206D49087016
:102400000DF021FE06E000206A4908700DF01BFE69
:1024100000E000BF00BF00E000BF00BFFEF7FDF816
:10242000FEF7E5F8FEF7B6F889E054480078012891
:102430005BD156480078012857D15148007890BBAD
:1024400000204E490870504908704E49087057489E
:102450000078012812D10020544908705B210846F9
:102460000CF03CFE5B200CF06DFE514908700846F4
:102470000078012832D1002008702FE04D48007804
:10248000062829D2DFE800F0030910161C220120DB
:10249000484908700DF0D7FD1FE00220454908703B
:1024A0000DF0D1FD19E020E00320424908700DF045
:1024B000CAFD12E004203F4908700DF0C4FD0CE095
:1024C00005203C4908700DF0BEFD06E000203949AA
:1024D00008700DF0B8FD00E000BF00BFFEF79DF8EA
:1024E000FEF785F8FEF756F829E033480078012812
:1024F00025D12348007810BB00202F4908702B48B5
:10250000007801281BD00120284908705A2108466C
:102510000CF0E4FD5A200CF015FE25490870084621
:102520000078012801D100200870012202211C201E
:102530000CF00DF8002203211C200CF008F8C3E079
:102540000E480078012870D10B48007801286CD122
:102550000B48007890BB00200B49087009490870AF
:10256000144908700CF067F80848007838B301285F
:102570002AD0022830D12BE008000020A704002038
:10258000100000200C0000200A0000200F00002096
:10259000BC0400201C00002020000020C0040020FB
:1025A00024000020280000202C0000201300002020
:1025B000B70400200E000020A804002035E0FFE74B
:1025C0000120F649087008E00220F449087004E090
:1025D0000020F249087000E000BF00BFEF4800781B
:1025E00028B90122032118200BF0B1FF12E0EB48BB
:1025F0000078012805D10122114618200BF0A7FF11
:1026000008E0E6480078022804D10122114614208F
:102610000BF09DFF012211461D200BF098FFFDF7E6
:10262000B9FFFDF7E4FFFDF7F8FF4DE0DC48007867
:10263000012826D10020DA490870DA48007810B164
:10264000012808D103E00120D649087004E00020E9
:10265000D449087000E000BF00BFD248007810B134
:1026600001280CD105E0002201211C200BF06FFF96
:1026700006E0012211461C200BF069FF00E000BFBC
:1026800020E0C948007801281CD10020C649087004
:10269000C648007810B1012808D103E00120C349E1
:1026A000087004E00020C149087000E000BF00BFCE
:1026B000BE48007810B1012802D100E001E000E03E
:1026C00000BF00BF00E000BF00BF2CE3B8480078A7
:1026D00006287CD2DFE800F003457CA6A7A8B04816
:1026E000007801283CD1AF48007890BB0020B14968
:1026F0000870B14908700BF09EFFB048007810B127
:10270000012808D103E00120AC49087004E0002052
:10271000AA49087000E000BF00BFA848007810B1C7
:10272000012817D10AE00122002108460BF00FFF13
:102730000122114619200BF00AFF0CE0012211467C
:1027400000200BF004FF0122032118200BF0FFFEF4
:1027500001E005E000BF00BFFDF71CFFFDF747FFEC
:10276000B0E08F480078012830D18E48007868BBEF
:1027700000208B490870904908708E48007820B17D
:10278000012806D002280CD107E0012089490870F1
:1027900008E002208749087004E00020854908709D
:1027A00000E000BF00BFFDF7F5FEFDF720FF814808
:1027B000007801280AD1824890ED000A814880ED16
:1027C000000A90ED000A804880ED000A7AE078E087
:1027D00073480078012824D17248007808BB002093
:1027E0006F490870734908707348007810B1012868
:1027F00008D103E001207049087004E000206E4910
:10280000087000E000BF00BFFDF7F1FEFDF7C2FE5B
:102810006948007828B16A4890ED000A6B4880ED5D
:10282000000A4FE04EE04DE05D480078012826D1D7
:1028300000205B4908705B48007810B1012808D17E
:1028400003E001205749087004E000205549087052
:1028500000E000BF00BF5348007810B101280CD140
:1028600005E0002201211C200BF071FE06E0012290
:1028700011461C200BF06BFE00E000BF20E04A4830
:10288000007801281CD1002047490870474800788B
:1028900010B1012808D103E001204449087004E088
:1028A00000204249087000E000BF00BF3F480078A8
:1028B00010B1012802D100E001E000E000BF00BF3C
:1028C00000E000BF00BF2EE239480078062864D23D
:1028D000DFE800F00382B8E2FBFA31480078012813
:1028E0005AD13048007888BB0020324908703249FC
:1028F0000870374908700120364908700BF09BFEBC
:102900002E48007830B1012808D002280AD00328C8
:1029100010D10BE00120294908700CE00220274962
:10292000087008E003202549087004E000202349CE
:10293000087000E000BF00BF2048007838B10128CF
:1029400010D0022814D003281ED117E024E0012261
:10295000114619200BF0FBFD012202211C200BF077
:10296000F6FD12E00122032119200BF0F0FD0CE02E
:102970000122114615200BF0EAFD06E0012200219C
:1029800016200BF0E4FD00E000BF00BFFDF702FEE3
:10299000FDF72DFEFDF741FEC2E1C0E10F00002072
:1029A000A704002010000020A8040020110000202F
:1029B000AC0400200A0000200C00002008000020C9
:1029C000BC0400201C000020200000202C0000205F
:1029D0000E00002013000020FE480078012830D1AE
:1029E000FD48007868BB0020FA490870FB49087070
:1029F000FB48007820B1012806D002280CD107E05E
:102A00000120F749087008E00220F549087004E049
:102A10000020F349087000E000BF00BFFDF7BAFDD9
:102A2000FDF7E5FDEE48007801280AD1ED4890ED6C
:102A3000000AED4880ED000A90ED000AEB4880EDB9
:102A4000000A6DE1E3480078012824D1E2480078CB
:102A500008BB0020DF490870E1490870DF480078B2
:102A600010B1012808D103E00120DC49087004E01E
:102A70000020DA49087000E000BF00BFFDF7B7FD95
:102A8000FDF788FDD548007828B1D64890ED000ABA
:102A9000D74880ED000A43E1CE48007801283BD1B9
:102AA000CD480078C0BB0020CA490870CC490870E6
:102AB000CA490870CF48007840B101284ED002289A
:102AC00074D0032873D1A7E0DCE0DAE0CA480078CC
:102AD000012812D10020C84908705B2108460CF07B
:102AE000FDFA5B200CF02EFBC44908700846007804
:102AF000012832D1002008702FE0C1480078062854
:102B000029D2DFE800F0030A10161C220120BC497C
:102B100008700DF098FA1FE088E00220B8490870AC
:102B20000DF091FA18E00320B54908700DF08BFA0A
:102B300012E00420B24908700DF085FA0CE005207F
:102B4000AF4908700DF07FFA06E00020AC4908702C
:102B50000DF079FA00E000BF00BF5FE0A648007802
:102B6000012812D10020A44908705B2108460CF00E
:102B7000B5FA5B200CF0E6FAA04908700846007828
:102B8000012847D10020087044E09D4800780828BB
:102B90003ED2DFE800F0040D141B2229303701205B
:102BA0009749087000200DF04EFA32E033E034E02F
:102BB00002209349087000200DF045FA29E0032017
:102BC0008F49087001200DF03EFA22E004208C4964
:102BD000087002200DF037FA1BE0052088490870C4
:102BE00002200DF030FA14E0062085490870032019
:102BF0000DF029FA0DE007208149087003200DF03F
:102C000022FA06E000207E4908700DF01CFA00E070
:102C100000BF00BF02E001E000E000BF00BFFDF721
:102C2000FCFCFDF7E4FCFDF7B5FC29E075480078F5
:102C3000012825D16848007810BB00207149087030
:102C40006D48007801281BD001206B4908705A217B
:102C500008460CF043FA5A200CF074FA67490870E1
:102C600008460078012801D10020087001220221C5
:102C70001C200BF06CFC002203211C200BF067FCD5
:102C80004EE04DE053480078012826D100205149FC
:102C900008705148007810B1012808D103E00120E4
:102CA0004D49087004E000204B49087000E000BF67
:102CB00000BF4948007810B101280CD105E000227E
:102CC00001211C200BF043FC06E0012211461C20D0
:102CD0000BF03DFC00E000BF20E04A4800780128EE
:102CE0001CD10020474908704748007810B10128DE
:102CF00008D103E001204449087004E00020424963
:102D0000087000E000BF00BF3F48007810B1012804
:102D100002D100E001E000E000BF00BF00E000BF22
:102D200000BF00E000BF00BF3848007838BB35481E
:102D30000078012823D12848007800BB00203149C1
:102D400008703348007810B1012808D103E0012051
:102D50002F49087004E000202D49087000E000BFF2
:102D600000BF2B48007810B1012806D102E00DF019
:102D700033FE03E00DF029FE00E000BF00BFFDF7C9
:102D8000F3FB2248007898B91248007801280FD147
:102D90001148007860B900200E4908701D4800787D
:102DA000082802D11C480078C0BBFDF7CEFA3DE0F0
:102DB00018480078082839D114480078042835D1FB
:102DC00004480078012831D10A48007801282DD123
:102DD000014824E0A7040020100000200C0000207F
:102DE0000A000020BC0400201C000020200000205D
:102DF0002C0000200800002013000020B704002051
:102E00000E000020A804002011000020AC040020C7
:102E100009000020AA0400200F00002006E000782E
:102E200020B90020FE490870FDF78FFABDEC088B31
:102E300010BD00B589B0FB480078002844F021811E
:102E4000FDF7E1FCF8480078801F052884F0178121
:102E5000DFE810F005000D0D5B106318D218F34881
:102E600090ED000AF24880ED000A90ED000AF3EEC2
:102E70000E0AB4EEE00AF1EE10FA05DD012203219C
:102E800000200BF064FB04E00022032110460BF04D
:102E90005EFBE8480078002841F08981E648007828
:102EA0000028F9D1E54800780028F5D1E4480078F9
:102EB0000028F1D1E348007800287CD1DB4890ED70
:102EC000000AE14880ED000AE04890ED000AE04881
:102ED00080ED000A0120DC4991ED000AFDF75AFC63
:102EE000DC4880ED000A0220D94991ED000AFDF787
:102EF00051FCD94880ED000AD848007806287DD2D8
:102F0000DFE800F0035FDEFDFCFBD5480078012818
:102F100042D1CD4890ED000AF1EE080AB4EEE00A85
:102F2000F1EE10FA09D801210846CA4A92ED000ACA
:102F30000BF047FCCB4908700CE001200BF078FF48
:102F40000122002102200BF002FBC4480078401C43
:102F5000C2490870BE4890ED000ADFEDC30AB4EE26
:102F6000E00AF1EE10FA09D803210220BA4A92EDE4
:102F7000000A0BF026FCBB49087021E002200BF090
:102F800057FF0122002111200BF0E1FAB34800782D
:102F9000C01CB249087013E001210846AD4A92ED09
:102FA000000A0BF00EFCAF49087003210220AA4A68
:102FB00092ED000A00E092E20BF003FCA9490870D0
:102FC0008BE2A7480078012867D19F4890ED000A5E
:102FD000DFEDA60AB4EEE00AF1EE10FA14D890ED97
:102FE000000AF1EE080AB4EEE00AF1EE10FA0BDD89
:102FF00002210120974A92ED000A00E06CE20BF0FA
:10300000E0FB9849087026E08F4890ED000AF1EE49
:10301000080AB4EEE00AF1EE10FA05D88F480078FD
:10302000401E8E4908700EE0874890ED000ADFEDE3
:103030008F0AB4EEE00AF1EE10FA04DD874800785A
:10304000401C8649087001200BF0F2FE012200218D
:1030500004200BF07CFA7E4890ED000ADFED820A36
:10306000B4EEE00AF1EE10FA09D8032102207A4A00
:1030700092ED000A0BF0A5FB7A4908701FE00220D0
:103080000BF0D6FE0122002111200BF060FA7348EC
:103090000078C01C7149087011E0022101206D4ABE
:1030A00092ED000A0BF08DFB6E490870032102209F
:1030B000694A92ED000A0BF084FB6A4908700CE241
:1030C00067480078012859D15F4890ED000ADFED8C
:1030D000660AB4EEE00AF1EE10FA16D890ED000A96
:1030E000DFED620AB4EEE00AF1EE10FA0DDD032125
:1030F0000120584A92ED000A02E072E1E5E050E05A
:103100000BF05FFB5749087016E04F4890ED000A3E
:10311000DFED560AB4EEE00AF1EE10FA04D84F489B
:103120000078401E4D49087001200BF081FE0122FD
:10313000002106200BF00BFA454890ED000ADFED68
:103140004A0AB4EEE00AF1EE10FA09D8032102208F
:10315000414A92ED000A0BF034FB424908701FE02F
:1031600002200BF065FE0122002111200BF0EFF987
:103170003A480078C01C3949087011E00321012049
:10318000344A92ED000A0BF01CFB3649087003210B
:103190000220314A92ED000A0BF013FB314908700E
:1031A0009BE12F48007801287CD1274890ED000A48
:1031B000F1EE080AB4EEE00AF1EE10FA09D80121A6
:1031C0000846244A92ED000A0BF0FBFA25490870E4
:1031D0000CE001200BF02CFE0122002102200BF05C
:1031E000B6F91E480078401C1C490870184890ED3C
:1031F000000ADFED1F0AB4EEE00AF1EE10FA3ED845
:1032000090ED000ADFED180AB4EEE00AF1EE10FAD4
:1032100035DD04210220104A92ED000A2AE041E047
:10322000A704002010000020AA040020B003002002
:10323000900000200F000020120000200B00002052
:103240000D0000200800002088000020B4030020AA
:103250008C000020780000207C0000200E00002060
:10326000130000207400002000001644000070428B
:103270000000FA440BF0A5FAF749087024E0F7487B
:1032800090ED000A5FED080AB4EEE00AF1EE10FAE4
:103290001AD802200BF0CCFDF1480078C01EF0498E
:1032A000087011E001210846EE4A92ED000A0BF089
:1032B00088FAE949087004210220EB4A92ED000ADD
:1032C0000BF07FFAE449087007E1E848007801282C
:1032D00074D1E74890ED000A5FED1C0AB4EEE00AF5
:1032E000F1EE10FA12D890ED000AF1EE080AB4EEF1
:1032F000E00AF1EE10FA09DD02210120D94A92ED2F
:10330000000A0BF05EFAD449087026E0D84890ED28
:10331000000AF1EE080AB4EEE00AF1EE10FA05D860
:10332000CF480078401ECE4908700EE0D04890ED9E
:10333000000A5FED320AB4EEE00AF1EE10FA04DDA5
:10334000C7480078401CC649087001200BF070FD8A
:103350000122002104200BF0FAF8C04890ED000A89
:103360005FED3D0AB4EEE00AF1EE10FA12D890EDEE
:10337000000A5FED430AB4EEE00AF1EE10FA09DD4F
:1033800004210220B84A92ED000A0BF01AFAB24961
:10339000087025E0B14890ED000A5FED4D0AB4EEEB
:1033A000E00AF1EE10FA1BD802200BF041FDAC4808
:1033B0000078C01EAA49087012E0FFE70221012030
:1033C000A84A92ED000A0BF0FCF9A3490870042109
:1033D0000220A54A92ED000A0BF0F3F99E4908700D
:1033E0007BE0A2480078012863D1A14890ED000A53
:1033F0005FED630AB4EEE00AF1EE10FA12D890ED38
:10340000000A5FED660AB4EEE00AF1EE10FA09DD9B
:1034100003210120934A92ED000A0BF0D2F98E4964
:10342000087016E0924890ED000A5FED700AB4EE65
:10343000E00AF1EE10FA04D889480078401E884965
:10344000087001200BF0F4FC0122002106200BF093
:103450007EF8824890ED000A5FED7B0AB4EEE00A48
:10346000F1EE10FA12D890ED000A5FED810AB4EE89
:10347000E00AF1EE10FA09DD042102207A4A92ED09
:10348000000A0BF09EF97449087024E0734890ED2F
:10349000000A5FED8B0AB4EEE00AF1EE10FA1AD8DA
:1034A00002200BF0C5FC6E480078C01E6C49087005
:1034B00011E0032101206B4A92ED000A0BF081F923
:1034C0006549087004210220674A92ED000A0BF05A
:1034D00078F96149087000E000BF01F0B5B96548AE
:1034E0000078012873D1644890ED000A604880EDAF
:1034F000000A624890ED000A584880ED000A012059
:103500005B4991ED000AFDF745F9564880ED000A48
:103510000220524991ED000AFDF73CF9524880ED36
:10352000000A534800680EF00BF9CDE904019DED47
:10353000040B0FF01DF88DED060B9DED060B51EC05
:10354000100B0EF041F94E490860454800780628F6
:103550007ED2DFE800F0035EF8F6F5F44348007829
:10356000012843D1464890ED000AF1EE080AB4EE76
:10357000E00AF1EE10FA09D801210846394A92ED25
:10358000000A0BF01EF9344908700CE001200BF022
:103590004FFC0122002102200AF0D9FF30480078B8
:1035A000401C2F4908702D4890ED000A5FEDD20AAB
:1035B000B4EEE00AF1EE10FA0AD8032102202A4AFA
:1035C00092ED000A0BF0FDF82349087020E0AEE20E
:1035D00002200BF02DFC0122002111200AF0B7FF80
:1035E0001F480078C01C1E49087011E001210846E0
:1035F0001C4A92ED000A0BF0E4F817490870032109
:103600000220194A92ED000A0BF0DBF8124908700B
:103610008CE21648007801287ED1194890ED000A06
:103620005FEDEE0AB4EEE00AF1EE10FA2AD890ED62
:10363000000AF1EE080AB4EEE00AF1EE10FA21DD1C
:1036400002210120074A92ED000A0BF0BAF800E0CF
:103650006BE2014908703CE0740000208C000020FF
:103660000E000020780000207C00002013000020C5
:103670008800002008000020680400206C0400205E
:1036800094000020FE4890ED000AF1EE080AB4EE26
:10369000E00AF1EE10FA05D8FA480078401EF94920
:1036A00008700EE0F64890ED000ADFEDF70AB4EE80
:1036B000E00AF1EE10FA04DDF2480078401CF1490E
:1036C000087001200BF0B4FB0122002104200AF055
:1036D0003EFFEE4890ED000ADFEDED0AB4EEE00AA1
:1036E000F1EE10FA0AD803210220EA4A92ED000A0C
:1036F0000BF067F8E849087020E00DE002200BF0BD
:1037000097FB0122002111200AF021FFDD480078FB
:10371000C01CDC49087011E002210120DF4A92ED53
:10372000000A0BF04EF8DC49087003210220D94A48
:1037300092ED000A0BF045F8D7490870F6E163E115
:10374000D6E06DE0FFE7D6480078012855D1CC4897
:1037500090ED000ADFEDCE0AB4EEE00AF1EE10FAC9
:1037600012D890ED000ADFEDC80AB4EEE00AF1EEDF
:1037700010FA09DD03210120C84A92ED000A0BF07E
:1037800020F8C549087016E0BD4890ED000ADFED4D
:10379000BE0AB4EEE00AF1EE10FA04D8B948007897
:1037A000401EB849087001200BF042FB01220021A5
:1037B00006200AF0CCFEB54890ED000ADFEDB40A11
:1037C000B4EEE00AF1EE10FA09D803210220B14A62
:1037D00092ED000A0AF0F5FFAF4908701FE00220E1
:1037E0000BF026FB0122002111200AF0B0FEA548B3
:1037F0000078C01CA349087011E003210120A74AEA
:1038000092ED000A0AF0DDFFA349087003210220AF
:10381000A04A92ED000A0AF0D4FF9F49087085E1A2
:103820009F480078012850D1954890ED000AF1EEAC
:10383000080AB4EEE00AF1EE10FA09D801210846B0
:10384000964A92ED000A0AF0BCFF934908700CE01A
:1038500001200BF0EDFA0122002102200AF077FE90
:1038600088480078401C87490870884890ED000A15
:10387000DFED8C0AB4EEE00AF1EE10FA12D890ED0A
:10388000000ADFED830AB4EEE00AF1EE10FA09DD7A
:10389000042102207F4A92ED000A0AF092FF7E493D
:1038A000087024E0794890ED000ADFED790AB4EE63
:1038B000E00AF1EE10FA1AD802200BF0B9FA7148BA
:1038C0000078C01E6F49087011E001210846734A54
:1038D00092ED000A0AF075FF6F490870042102207A
:1038E0006C4A92ED000A0AF06CFF6B4908701DE10A
:1038F0006B480078012874D1614890ED000ADFED33
:10390000620AB4EEE00AF1EE10FA12D890ED000A65
:10391000F1EE080AB4EEE00AF1EE10FA09DD022138
:1039200001205E4A92ED000A0AF04BFF5A490870E6
:1039300026E0534890ED000AF1EE080AB4EEE00AE2
:10394000F1EE10FA05D84F480078401E4D49087036
:103950000EE04B4890ED000ADFED4B0AB4EEE00AB2
:10396000F1EE10FA04DD47480078401C4549087024
:1039700001200BF05DFA0122002104200AF0E7FD8E
:10398000424890ED000ADFED470AB4EEE00AF1EE9E
:1039900010FA12D890ED000ADFED3D0AB4EEE00A0D
:1039A000F1EE10FA09DD042102203A4A92ED000AF4
:1039B0000AF007FF3849087025E0344890ED000A06
:1039C000DFED330AB4EEE00AF1EE10FA1BD8022064
:1039D0000BF02EFA2B480078C01E2A49087012E01E
:1039E000FFE7022101202D4A92ED000A0AF0E9FECC
:1039F0002949087004210220264A92ED000A0AF0A3
:103A0000E0FE2549087091E025480078012879D129
:103A10001B4890ED000ADFED1E0AB4EEE00AF1EE5D
:103A200010FA12D890ED000ADFED170AB4EEE00AA2
:103A3000F1EE10FA09DD03210120184A92ED000A87
:103A40000AF0BFFE1449087016E00D4890ED000A18
:103A5000DFED0D0AB4EEE00AF1EE10FA04D80948E1
:103A60000078401E0749087001200BF0E1F901229F
:103A7000002106200AF06BFD044890ED000A13E0D7
:103A8000940000200E000020000070428C000020F6
:103A9000000016447C000020740000207800002004
:103AA0001300002000803B45DFEDFB0AB4EEE00A86
:103AB000F1EE10FA12D890ED000A5FED0B0AB4EEA9
:103AC000E00AF1EE10FA09DD04210220F34A92ED3A
:103AD000000A0AF076FEF249087025E0F14890ED00
:103AE000000A5FED150AB4EEE00AF1EE10FA1BD8F9
:103AF00002200BF09DF9EC480078C01EEA490870DE
:103B000012E0FFE703210120E84A92ED000A0AF0E3
:103B100058FEE349087004210220E04A92ED000AB1
:103B20000AF04FFEDE49087000E000BFD5E4E0482F
:103B300000780228FAD1DF4800680DF001FECDE9D7
:103B400000019DED000B0EF013FD8DED040BDA4826
:103B500000680DF0F5FDCDE902019DED040B53EC7D
:103B6000102B9DED020B51EC100B0DF0D3FCCDE9A9
:103B700006019DED060B51EC100B0DF025FECF4913
:103B80000860CF4800680DF0DBFDCDE900019DED38
:103B9000000B0EF0EDFC8DED040BCA4800680DF033
:103BA000CFFDCDE902019DED040B53EC102B9DEDF3
:103BB000020B51EC100B0DF0ADFCCDE906019DEDB3
:103BC000060B51EC100B0DF0FFFDB649086001200B
:103BD000BA4991ED000AFCF7DDFDB44880ED000A1A
:103BE0000220B04991ED000AFCF7D4FDAB4880ED0E
:103BF000000AAD48007806287ED2DFE800F0035DB9
:103C0000DCFDFCFBB0480078012842D1AB4890EDC8
:103C1000000AF1EE080AB4EEE00AF1EE10FA09D853
:103C200001210846A14A92ED000A0AF0CAFD9C490A
:103C300008700CE001200BF0FBF8012200210220AB
:103C40000AF085FC98480078401C97490870954810
:103C500090ED000A5FED720AB4EEE00AF1EE10FAA0
:103C600009D8032102208D4A92ED000A0AF0A9FD2D
:103C70008B4908701FE002200BF0DAF801220021C6
:103C800011200AF064FC88480078C01C864908703E
:103C900011E001210846854A92ED000A0AF091FDE3
:103CA0007F490870032102207C4A92ED000A0AF045
:103CB00088FD7B49087079E283480078012867D144
:103CC0007E4890ED000A5FED900AB4EEE00AF1EE56
:103CD00010FA14D890ED000AF1EE080AB4EEE00AEA
:103CE000F1EE10FA0BDD02210120704A92ED000A7C
:103CF0000AF067FD6A4900E057E2087026E06F4865
:103D000090ED000AF1EE080AB4EEE00AF1EE10FAC6
:103D100005D865480078401E634908700EE0674882
:103D200090ED000A5FEDA80AB4EEE00AF1EE10FA99
:103D300004DD5D480078401C5B49087001200BF0F1
:103D400077F80122002104200AF001FC554890ED8B
:103D5000000A5FEDB10AB4EEE00AF1EE10FA09D8FC
:103D6000032102204D4A92ED000A0AF02AFD4C4937
:103D700008701FE002200BF05BF8012200211120E7
:103D80000AF0E5FB48480078C01C4749087011E07C
:103D900002210120454A92ED000A0AF012FD404935
:103DA0000870032102203D4A92ED000A0AF009FD45
:103DB0003B490870FAE144480078012859D13F484E
:103DC00090ED000A5FEDCE0AB4EEE00AF1EE10FAD3
:103DD00016D890ED000A5FEDD40AB4EEE00AF1EED9
:103DE00010FA0DDD03210120304A92ED000A0AF09D
:103DF000E8FC02E05EE1D1E068E02949087016E0E5
:103E00002E4890ED000A5FEDE00AB4EEE00AF1EE14
:103E100010FA04D824480078401E23490870012075
:103E20000BF006F80122002106200AF090FB1D4845
:103E300090ED000A5FEDEA0AB4EEE00AF1EE10FA46
:103E400009D803210220154A92ED000A0AF0B9FCB4
:103E5000134908701FE002200AF0EAFF0122002146
:103E600011200AF074FB10480078C01C0E4908703D
:103E700011E0032101200D4A92ED000A0AF0A1FC95
:103E80000749087003210220044A92ED000A0AF053
:103E900098FC0349087089E10000FA447C00002086
:103EA000740000208C0000200E000020780000200C
:103EB0000800002068040020B003002088000020D3
:103EC0006C040020B403002013000020FD4800789B
:103ED000012850D1FC4890ED000AF1EE080AB4EE3A
:103EE000E00AF1EE10FA09D801210846F74A92EDEE
:103EF000000A0AF066FCF64908700CE001200AF09E
:103F000097FF0122002102200AF021FBF1480078EE
:103F1000401CF0490870F04890ED000A5FED220A5D
:103F2000B4EEE00AF1EE10FA12D890ED000ADFEDDF
:103F3000EB0AB4EEE00AF1EE10FA09DD04210220EA
:103F4000E74A92ED000A0AF03CFCE149087024E0DF
:103F5000E14890ED000ADFEDE10AB4EEE00AF1EE8F
:103F600010FA1AD802200AF063FFDA480078C01E5F
:103F7000D849087011E001210846D44A92ED000AA0
:103F80000AF01FFCD249087004210220D44A92EDA5
:103F9000000A0AF016FCCE49087007E1C94800780B
:103FA000012874D1C84890ED000ADFEDCE0AB4EEC6
:103FB000E00AF1EE10FA12D890ED000AF1EE080ACC
:103FC000B4EEE00AF1EE10FA09DD02210120BF4A49
:103FD00092ED000A0AF0F5FBBD49087026E0BA48E8
:103FE00090ED000AF1EE080AB4EEE00AF1EE10FAE4
:103FF00005D8B8480078401EB64908700EE0B248AF
:1040000090ED000ADFEDB70AB4EEE00AF1EE10FA27
:1040100004DDB0480078401CAE49087001200AF069
:1040200007FF0122002104200AF091FAAA4890ED2E
:10403000000A5FED670AB4EEE00AF1EE10FA12D85A
:1040400090ED000ADFEDA50AB4EEE00AF1EE10FAF9
:1040500009DD04210220A24A92ED000A0AF0B1FB18
:104060009B49087025E09C4890ED000ADFED9B0A13
:10407000B4EEE00AF1EE10FA1BD802200AF0D8FEE6
:1040800094480078C01E9349087012E0FFE70221AF
:1040900001208E4A92ED000A0AF093FB8C490870C9
:1040A000042102208E4A92ED000A0AF08AFB884918
:1040B00008707BE083480078012863D1824890ED46
:1040C000000ADFED860AB4EEE00AF1EE10FA12D82B
:1040D00090ED000ADFED830AB4EEE00AF1EE10FA8B
:1040E00009DD03210120794A92ED000A0AF069FBFB
:1040F0007749087016E0744890ED000ADFED790A00
:10410000B4EEE00AF1EE10FA04D872480078401ECE
:104110007049087001200AF08BFE01220021062060
:104120000AF015FA6C4890ED000A5FEDA50AB4EEAE
:10413000E00AF1EE10FA12D890ED000ADFED670AFE
:10414000B4EEE00AF1EE10FA09DD04210220644A1F
:1041500092ED000A0AF035FB5D49087024E05E48E4
:1041600090ED000ADFED5D0AB4EEE00AF1EE10FA20
:104170001AD802200AF05CFE56480078C01E554945
:10418000087011E003210120504A92ED000A0AF064
:1041900018FB4F49087004210220514A92ED000A91
:1041A0000AF00FFB4A49087000E000BF4CE34E489C
:1041B0000078C8B34C480078012804D0022834D0D5
:1041C00003287DD162E0494890ED000A3E4880ED29
:1041D000000A01203C4991ED000AFCF7DBFA3B485C
:1041E00080ED000A0A210120384A92ED000A0AF007
:1041F000E8FA374908703E4890ED000A364880EDED
:10420000000A0220344991ED000AFCF7C3FA344851
:1042100080ED000A0A210220314A92ED000A0AF0DC
:10422000D0FA2B49087086E086E0324890ED000A0B
:10423000254880ED000A0120234991ED000AFCF792
:10424000A9FA224880ED000A0A2101201F4A92EDB6
:10425000000A0AF0B6FA1E490870274890ED000AD5
:104260001D4880ED000A02201B4991ED000AFCF771
:1042700091FA1B4880ED000A0A210220184A92EDAB
:10428000000A0AF09EFA1249087054E01B4890EDAB
:10429000000A0D4880ED000A01200B4991ED000A4B
:1042A000FCF778FA094880ED000A02210120074A4C
:1042B00092ED000A0AF085FA05490870104821E0DD
:1042C00038E0000013000020880000207800002063
:1042D000740000200E0000208C0000200000164416
:1042E0007C000020000070420F000020000400202D
:1042F00008040020FC03002004040020D003002058
:10430000D403002090ED000AF94880ED000A022055
:10431000F74991ED000AFCF73DFAF64880ED000AF6
:1043200002210846F34A92ED000A0AF04AFAF249DD
:10433000087000E000BF87E2F048007868B1F048FC
:1043400000780228F7D10A210120EE4A92ED000AF6
:104350000AF037FAE849087076E2EB48007878B35B
:10436000EA480078012802D0022853D129E0E84821
:1043700090ED000AE74880ED000A90ED000AE6485B
:1043800080ED000A0A210120E34A92ED000A0AF0BA
:1043900018FAD9490870E14890ED000AD44880ED38
:1043A000000A90ED000AD34880ED000A0A2102209D
:1043B000D04A92ED000A0AF004FACF4908702AE0C8
:1043C0002AE0D74890ED000AD24880ED000A90ED2F
:1043D000000AD14880ED000A0A210120CE4A92ED60
:1043E000000A0AF0EEF9C4490870CE4890ED000AC0
:1043F000BF4880ED000A90ED000ABE4880ED000A3B
:104400000A210220BB4A92ED000A0AF0DAF9BA4901
:10441000087000E000BF17E2C348007800288AD087
:10442000C248008800F40040B0B3C14800780428B6
:104430004DD1C04800680690002801DB069801E0D5
:104440000698404214280CDBBA480068A0F5B47006
:104450000790002801DB079801E0079840421428E4
:1044600002DA02200AF0F8FCB248006878380790B7
:10447000002801DB079801E007984042142803DA7E
:1044800002200AF0F3FC13E0AA480068F038079015
:10449000002802DB079802E019E007984042142840
:1044A00003DA02200AF0ECFC02E002200AF0ADFC84
:1044B0000A2101209F4A92ED000AB8EE400A0AF054
:1044C00080F98D49087005209949087054E0974893
:1044D000008800F4804048B395480078042825DA25
:1044E00095480078012847D10020934908709348E7
:1044F000007810B1012808D103E001208F4908702D
:1045000004E000208D49087000E000BF00BF8B4828
:104510000078012803D102200AF0BCFC02E002204E
:104520000AF07DFC01200AF097FC25E07F48008816
:1045300000F4804000BB8048007801281CD1002096
:104540007D4908707D48007810B1012808D103E04A
:1045500001207A49087004E000207849087000E0E2
:1045600000BF00BF75480078012802D10AF06AFC3C
:1045700002E001200AF053FC6C48008800F400407F
:1045800020B36B480078032820D100216C4805F047
:1045900059FC6C4800686C490988B0FBF1F201FBDA
:1045A00012006A490860084600684FF4B471484335
:1045B00065490988B0FBF1F0644908600846006865
:1045C0005C49086004205A4908703DE1574800885A
:1045D00000F48040D8B35E4890ED000A444880ED76
:1045E000000A0A210220424A92ED000A0AF0E9F884
:1045F000414908703E4890ED000AF2EE040AB4EE1C
:10460000E00AF1EE10FA0AD249480078012806D1F2
:1046100002204749087000200BF0D0FD0FE034481D
:1046200090ED000AF2EE040AB4EEE00AF1EE10FAA0
:1046300005DD3F480078012801D13D4908703C481C
:104640000078022842D12A4890ED000A00E087E075
:10465000DFED400AB4EEE00AF1EE10FA31DD3E483B
:104660000078401C3C49087008460078012805D1B4
:104670001F4890ED000A394880ED000A364800785E
:1046800005281ED11A4890ED000A3448D0ED000AE2
:1046900030EE600ABDEEC00A8DED070A07980028CB
:1046A00001DB079801E00798404205280ADA01215A
:1046B000002004F0A1FB00202749087003201C49BA
:1046C0000870C1E0002024490870BDE01848007857
:1046D00003280CD1064890ED000AF2EE040AB4EE6D
:1046E000E00AF1EE10FA02D2022011490870ABE0A4
:1046F0008C0000207C0000207400002012000020AC
:10470000AC030020B80300200B0000200A000020AA
:10471000C00300208800002078000020C40300208F
:10472000C8030020CC0300200D000020C804002096
:104730001400002070000020E10400201800002078
:10474000000C0040CC040020D004002038000020E1
:10475000B00300200000C8429C0000209800002008
:10476000F848008800F48040D8BBF74890ED000A74
:10477000F64880ED000A0A210220F44A92ED000A70
:104780000AF01FF8F2490870F04890ED000A5FED5A
:104790000F0AB4EEE00AF1EE10FA3CDDED480078C5
:1047A00078BBED480078012806D1E84890ED000A72
:1047B000EA4880ED000A28E0E7480078052824D17F
:1047C000E24890ED000AE548D0ED000A30EE600ABC
:1047D000BDEEC00A8DED070A0798002802DB079896
:1047E00002E031E00798404205280BDA0121002061
:1047F00004F002FB0020D84908700120D549087058
:1048000003E008E00020D4490870D3480078401C39
:10481000D149087018E0CD4890ED000A5FED330AE9
:10482000B4EEE00AF1EE10FA0ED2CA480078012880
:104830000AD10020C74908700021084604F0DCFABC
:104840000021C74805F0FEFAC648007868B101218A
:104850000846C54A92ED000A09F0B3FF0321022081
:10486000C24A92ED000A09F0ACFF02F009BCB6485A
:1048700090ED000ABE4880ED000A90ED000AF3EECC
:104880000E0AB4EEE00AF1EE10FA05DD0122032172
:10489000002009F05CFE04E000220321104609F02C
:1048A00056FEB4480078E0BBB3480078C8BBB348B4
:1048B000007820B101281BD002284CD132E0B0484A
:1048C00090ED000AAF4880ED000A0120AD4991ED5E
:1048D000000AFBF75FFFA44880ED000A0A210120CF
:1048E000A14A92ED000A09F06CFF9949087033E083
:1048F000A54890ED000AA34880ED000A0120A149D7
:1049000091ED000AFBF746FF974880ED000A0A2167
:104910000120954A92ED000A09F053FF8C49087076
:104920001AE08AE0994890ED000A964880ED000A66
:104930000120944991ED000AFBF72CFF8A4880ED95
:10494000000A0A210120884A92ED000A09F039FF85
:104950007F49087000E000BF00BF8D48007830B18B
:1049600001281DD0022834D0032864D14AE08948A8
:1049700090ED000A754880ED000A0220734991ED20
:10498000000AFBF707FF784880ED000A01210220AA
:10499000754A92ED000A09F014FF6D4908704BE06A
:1049A0007D4890ED000A694880ED000A02206749C1
:1049B00091ED000AFBF7EEFE6B4880ED000A012145
:1049C0000220694A92ED000A09F0FBFE6049087076
:1049D00032E0724890ED000A5C4880ED000A022047
:1049E0005A4991ED000AFBF7D5FE5F4880ED000AB9
:1049F0000A2102205C4A92ED000A09F0E2FE5449C5
:104A0000087019E0664890ED000A504880ED000AF1
:104A100002204E4991ED000AFBF7BCFE524880EDA2
:104A2000000A0A210220504A92ED000A09F0C9FE4C
:104A30004749087000E000BF66E24F48007898B32D
:104A40005848007801280CD10020564908700A21E6
:104A50000220554A128800EE102AB8EE400A09F0EA
:104A6000B0FE4B48007830B101281ED0022835D066
:104A7000032865D14BE04D4890ED000A414880ED98
:104A8000000A01203F4991ED000AFBF783FE3648FA
:104A900080ED000A0A210120334A92ED000A09F054
:104AA00090FE2B4908708AE08AE0414890ED000AA8
:104AB000344880ED000A0120324991ED000AFBF7ED
:104AC00069FE294880ED000A0A210120264A92ED5C
:104AD000000A09F076FE1E49087070E0354890ED36
:104AE000000A284880ED000A0120264991ED000ABD
:104AF000FBF750FE1C4880ED000A0A2101201A4AEB
:104B000092ED000A09F05DFE1149087057E02A484D
:104B100090ED000A1B4880ED000A0120194991ED33
:104B2000000AFBF737FE104880ED000A0A21012039
:104B30000D4A92ED000A09F044FE054908703EE076
:104B40003CE00000C8040020B00300208C000020DE
:104B500074000020140000209C0000209800002019
:104B6000000C00400C000020780000207C00002099
:104B7000900000200B000020120000200800002000
:104B8000D803002088000020DC030020E003002080
:104B90000F000020F4030020F80300201004002080
:104BA0000C04002078040020DE040020E403002030
:104BB000E8030020EC0300203400002000BFA3E144
:104BC000FC4800780028FAD0FB480078012812D170
:104BD0000020F9490870F948007810B1012808D17F
:104BE00003E00120F549087004E00020F349087053
:104BF00000E000BF00BFF2480078072872D2DFE86B
:104C000000F0044B93DAEEEDEC00EC48007810B1C4
:104C1000012816D10AE000220321092009F097FC9F
:104C2000002211460B2009F092FC0BE00122032127
:104C3000092009F08CFC012200210B2009F087FCDF
:104C400000E000BF00BFDF48007820B101280CD091
:104C500002281ED113E00A210120DB4A92ED000A4E
:104C600009F0AFFDD949087014E00A210120D84AA3
:104C700092ED000A09F0A5FDD44908700AE00A2166
:104C80000120D44A92ED000A09F09BFDCF4908703B
:104C900000E000BF00BF36E1C848007810B101282D
:104CA00016D10AE0002203210A2009F050FC00225C
:104CB00011460B2009F04BFC0BE0012203210A20D6
:104CC00009F045FC012200210B2009F040FC00E026
:104CD00000BF00BFBB48007828B101280DD00228D2
:104CE0001FD114E00EE10A210120B74A92ED000A1B
:104CF00009F067FDB549087014E00A210120B44AA3
:104D000092ED000A09F05DFDB04908700AE00A2141
:104D10000120B04A92ED000A09F053FDAB4908703A
:104D200000E000BF00BFEEE0A448007810B1012809
:104D300016D10AE0002201210B2009F008FC002214
:104D400011460B2009F003FC0BE0012211460B2059
:104D500009F0FDFB012200210B2009F0F8FB00E027
:104D600000BF00BF9748007820B101280CD002286E
:104D70001ED113E00A210120934A92ED000A09F0A6
:104D800020FD9249087014E00A210120904A92ED1A
:104D9000000A09F016FD8D4908700AE00A21012079
:104DA0008C4A92ED000A09F00CFD8849087000E079
:104DB00000BF00BFA7E08348007820B101280FD0D2
:104DC000022821D116E00A210120834A92ED000A2F
:104DD00009F0F7FC7D49087017E06AE040E016E052
:104DE0000A2101207D4A92ED000A09F0EAFC774988
:104DF00008700AE00A210120794A92ED000A09F0C0
:104E0000E0FC7249087000E000BF00BF7BE06D4825
:104E1000007820B101280CD002281ED113E00A210D
:104E20000120704A92ED000A09F0CBFC6749087036
:104E300014E00A2101206C4A92ED000A09F0C1FC3D
:104E4000624908700AE00A210120684A92ED000ACE
:104E500009F0B7FC5D49087000E000BF00BF52E0F8
:104E60005848007820B101280CD002281ED113E048
:104E70000A2101205E4A92ED000A09F0A2FC534982
:104E8000087014E00A2101205A4A92ED000A09F044
:104E900098FC4E4908700AE00A210120564A92ED1A
:104EA000000A09F08EFC4949087000E000BF00BF0D
:104EB00029E04448007820B101280CD002281ED1F6
:104EC00013E00A2101204D4A92ED000A09F079FC15
:104ED0003E49087014E00A210120494A92ED000A77
:104EE00009F06FFC394908700AE00A210120454A9F
:104EF00092ED000A09F065FC3449087000E000BF3B
:104F000000BF00E000BF00BFAFE42E480078A8BBA0
:104F10003D4890ED000A3D4880ED000A01203B49E4
:104F200091ED000AFBF736FC394880ED000A9FED51
:104F3000390A394880ED000A38480078052838D207
:104F4000DFE800F0037DCDF4F300012202211A20F6
:104F500009F0FDFA32480078012819D1314800796A
:104F600068B93148006841F63801884207D8012005
:104F7000274991ED000A09F068FE5AE0D7E10120C7
:104F800009F056FF25480078401C2449087050E07D
:104F90002448007960B92448006841F63801884205
:104FA00044D801201A4991ED000A09F04EFE40E074
:104FB0003CE0A4E10B000020E104002018000020E8
:104FC0000D00002008000020D803002074000020FD
:104FD000DC030020E00300203C0000204000002013
:104FE00044000020480000204C0000205000002019
:104FF00054000020580000205C00002060000020C9
:105000006400002068000020BC0400208000002014
:105010007800002000000000900000200E0000201A
:1050200013000020486C0020B8040020012009F083
:1050300002FE01220021062009F089FA60E1002227
:1050400002211A2009F083FAFA48007801282CD1AD
:10505000F9480079012811D1F848006841F6380173
:1050600088420BD8F5480068B0F5117F06D30120BF
:10507000F34991ED000A09F0E8FD2AE0012009F06A
:10508000D7FEED480079012805DAEE480078401E89
:10509000EC4908701DE0E8480079012819DDE9486D
:1050A0000078401CE749087013E0E34800790128C4
:1050B0000CD1E248006841F63801884206D8012048
:1050C000DF4991ED000A09F0C0FD02E0012009F07E
:1050D000B2FD01220021022009F039FA10E1D54881
:1050E000007801283AD1D448007902281FD1D3484A
:1050F000006841F63801884219D8D0480068B0F5F8
:10510000117F14D30120CE4991ED000A09F09DFDD5
:10511000CA4890ED000AB8EE400ADFEDCB0A80EEF7
:10512000201ACA4880ED001A38E0A0E03CE00120D7
:1051300009F07EFEC0480079022805DAC1480078EF
:10514000401EC049087029E0BB480079022825DDCF
:10515000BC480078401CBB4908701FE0B648007985
:10516000022818D1B548006841F63801884212D8A3
:105170000120B34991ED000A09F067FDAF4890EDB9
:10518000000AB8EE400ADFEDB00A80EE201AAF4800
:1051900080ED001A02E0012009F04DFD01220021FE
:1051A000042009F0D4F9ABE0A2480078012838D1F6
:1051B000A148007903281DD1A048006841F63801B4
:1051C000884217D89D480068B0F5117F12D301209E
:1051D0009B4991ED000A09F038FD984890ED000ACE
:1051E000B8EE400AF2EE040A80EE201A974880EDED
:1051F000001A36E0012009F01BFE8F4800790328D1
:1052000005DA90480078401E8E49087029E08A48E7
:105210000079032825DD8B480078401C89490870F7
:105220001FE085480079032818D18448006841F6BA
:105230003801884212D80120814991ED000A09F015
:1052400004FD7E4890ED000AB8EE400AF2EE040A32
:1052500080EE201A7D4880ED001A02E0012009F05E
:10526000EAFC01220021062009F071F948E07148AA
:105270000078012827D170480079042818D16F4898
:105280000068B0F5117F13D36C480068B0F57A7FE1
:105290000ED801206A4991ED000A09F0D6FC674852
:1052A00090ED000AB8EE400A684880ED000A25E05B
:1052B000012009F0BDFD6048007904281EDA0320B2
:1052C000604908701AE05C480079042813D15B48F3
:1052D0000068B0F57A7F0ED80120594991ED000A97
:1052E00009F0B3FC554890ED000AB8EE400A574863
:1052F00080ED000A02E0012009F09DFC00E000BF03
:1053000000BF524890ED000ADFED510AB4EEE00A0A
:10531000F1EE10FA05DD01220321002009F017F952
:10532000FEE300220321104609F011F9F8E3494891
:1053300000780128F4D14848007888BB474890EDB0
:10534000000A474880ED000A0120454991ED000A16
:10535000FBF720FA3A4880ED000A1FEDD20A3B48DD
:1053600080ED000A3748007830B101283BD0022890
:105370005FD0032876D116E12E480078012819D194
:105380002D48007968B92D48006841F638018842F7
:1053900007D801202A4991ED000A09F056FC1CE0CB
:1053A0005FE1012009F044FD26480078401C2549B2
:1053B000087012E02048007960B92048006841F682
:1053C0003801884206D801201D4991ED000A09F0F4
:1053D0003CFC02E0012009F02EFC01220021022009
:1053E00009F0B5F826E113480078012852D1124897
:1053F0000079012837D11148006841F63801884208
:1054000031D80E480068B0F5117F2CD301200C492B
:1054100091ED000A09F019FC084890ED000AB8EE79
:10542000400ADFED090A80EE201A084880ED001AD4
:1054300050E055E013000020486C0020B804002024
:10544000780000200E0000200000C84290000020DC
:1054500000004842080000200F000020BC0400208B
:1054600080000020E5E0012009F0E2FCF748007927
:10547000012805DAF6480078401EF549087029E051
:10548000F2480079012825DDF1480078401CF049F8
:1054900008701FE0ED480079012818D1ED48006838
:1054A00041F63801884212D80120EB4991ED000AFB
:1054B00009F0CBFBE74890ED000AB8EE400A5FED3B
:1054C0001E0A80EE201AE54880ED001A02E0012055
:1054D00009F0B1FB01220021042009F038F8A9E00D
:1054E000DF480078012838D1D848007902281DD13A
:1054F000D848006841F63801884217D8D548006876
:10550000B0F5117F12D30120D34991ED000A09F0C3
:105510009CFBD04890ED000AB8EE400AF2EE040A77
:1055200080EE201ACD4880ED001A36E0012009F007
:105530007FFCC6480079022805DAC5480078401E7D
:10554000C349087029E0C1480079022825DDC04818
:105550000078401CBE4908701FE0BC480079022852
:1055600018D1BC48006841F63801884212D80120A1
:10557000B94991ED000A09F068FBB64890ED000AC0
:10558000B8EE400AF2EE040A80EE201AB34880ED2D
:10559000001A02E0012009F04EFB01220021062042
:1055A00008F0D5FF46E0AE480078012829D1A74889
:1055B0000079032818D1A7480068B0F57A7F13D87E
:1055C000A4480068B0F5117F0ED30120A24991EDE7
:1055D000000A09F03AFB9F4890ED000AB8EE400A35
:1055E0009E4880ED000A23E0012009F021FC974845
:1055F000007903281CDA96480078401E9449087008
:1056000016E094480068B0F57A7F0ED801209249E0
:1056100091ED000A09F019FB8E4890ED000AB8EEF2
:10562000400A8E4880ED000A02E0012009F003FBE9
:1056300000E000BF00BF894890ED000AF3EE0E0ABB
:10564000B4EEE00AF1EE10FA05DD0122032100209C
:1056500008F07DFF64E200220321104608F077FF86
:105660005EE28048007801287DD17F4890ED000AF5
:105670007E4880ED000A01207C4991ED000AFBF78D
:1056800089F8754880ED000A7148007806286BD2C9
:10569000DFE800F00352FCFBFADB002201211B20B3
:1056A00008F055FF002201211A2008F050FF6C4835
:1056B000007801281CD16D4890ED000ADFED6C0ADE
:1056C000B4EEE00AF1EE10FA09D802210120624A94
:1056D00092ED000A09F075F86649087026E001208D
:1056E00009F0A6FB5A480078401C594908701DE093
:1056F0005E4800680CF024F89FED5F0B53EC102B14
:10570000CDE906019DED060B51EC100B0CF02CF8C9
:1057100009D802210120504A92ED000A09F051F8FF
:105720005449087002E0012009F085FA01220021A5
:10573000042008F00CFFD2E3002201211B2008F016
:1057400006FF002201211A2008F001FF44480078DA
:1057500001285FD1454800680BF0F2FF9FED480B30
:1057600053EC102B01E0BBE3B8E3CDE906019DED5E
:10577000060B51EC100B0BF0F7FF1AD83B480068F2
:105780000BF0DEFF9FED3C0B53EC102BCDE9060137
:105790009DED060B51EC100B0BF0FEFF09D203211F
:1057A00001202D4A92ED000A09F00BF831490870EA
:1057B00070E0012009F03CFB2C4800680BF0C0FFB2
:1057C0009FED2D0B53EC102BCDE906019DED060B43
:1057D00051EC100B0BF0C8FF05D81D480078401E97
:1057E0001B49087056E0214800680BF0A9FF9FEDA7
:1057F000240B53EC102BCDE906019DED060B51EC6B
:10580000100B0BF0C9FF45D211480078401C10491D
:1058100008703FE0154800680BF092FF9FED180BF1
:1058200053EC102BCDE906019DED060B51EC100B4E
:105830000BF09AFF2BD803210120074A92ED000AB2
:1058400008F0BFFF0B49087024E073E2486C0020A9
:105850000E000020B80400207800002090000020F6
:10586000130000200F000020BC0400208000002056
:10587000E1FAC742740000208FC2F5285CFF58404F
:1058800033333333333F8F407DE1B9E008E001200B
:1058900009F0D1F901220021062008F058FE1EE38C
:1058A000012211461B2008F052FE002201211A207D
:1058B00008F04DFEFE4890ED000ADFEDFE0A80EE96
:1058C000201A80ED001AFC48007801286CD1FB48B2
:1058D000D0ED000A9FEDF71A80EE810A8DED050AE2
:1058E00005980BF02DFF9FEDF60B53EC102BCDE937
:1058F00006019DED060B51EC100B0BF035FF1AD88D
:10590000EE4800680BF01CFF1FED230B53EC102B2F
:10591000CDE906019DED060B51EC100B0BF03CFFA1
:1059200009D201210846E24A92ED000A08F049FF37
:10593000E54908705EE0012009F07AFADF48006866
:105940000BF0FEFE1FED320B53EC102BCDE90601E0
:105950009DED060B51EC100B0BF006FF05D8DB4854
:105960000078401ED949087044E0D448D0ED000AC0
:105970009FEDD01A80EE810A8DED050A05980BF097
:10598000DFFE9FEDCF0B53EC102BCDE906019DED13
:10599000060B51EC100B0BF0FFFE2BD2CB4800781E
:1059A000401CCA49087025E0C448D0ED000A9FEDAC
:1059B000C11A80EE810A8DED050A05980BF0C0FE34
:1059C0009FEDBF0B53EC102BCDE906019DED060BAF
:1059D00051EC100B0BF0C8FE09D801210846B44A5F
:1059E00092ED000A08F0EDFEB749087002E00120D0
:1059F00009F021F901220021022008F0A8FD6EE241
:105A0000012211461B2008F0A2FD002201211A20CC
:105A100008F09DFDA64890ED000ADFEDA60A80EE95
:105A2000201A80ED001AA448007801287FD1A348ED
:105A3000D0ED000A9FED9F1A80EE810A8DED050AD8
:105A400005980BF07DFE1FED740B53EC102BCDE988
:105A500006019DED060B51EC100B0BF085FE22D8D4
:105A60009648D0ED000A9FED931A80EE810A8DEDE5
:105A7000050A05980BF064FE9FED910B53EC102B7B
:105A8000CDE906019DED060B51EC100B0BF084FEE9
:105A900009D202210120864A92ED000A08F091FE07
:105AA0008949087069E0012009F0C2F98348D0ED06
:105AB000000A9FED801A80EE810A8DED050A059897
:105AC0000BF03EFE9FED7E0B53EC102BCDE9060153
:105AD0009DED060B51EC100B0BF046FE05D87B48F4
