:020000040800F2
:1000000058740020558D0008717000087370000846
:10001000777000087B7000087F7000080000000007
:1000200000000000000000000000000083700008D5
:1000300085700008000000008770000889700008C3
:100040006F8D00086F8D00086F8D00086F8D0008A0
:100050006F8D00086F8D00086F8D00086F8D000890
:100060006F8D00086F8D00086F8D00086F8D000880
:100070006F8D00086F8D00086F8D00086F8D000870
:100080006F8D00086F8D00086F8D00086F8D000860
:100090006F8D00086F8D00086F8D000839730008A0
:1000A0006F8D00086F8D00086F8D00086F8D000840
:1000B000117200086D730008DB7500086F8D000871
:1000C0006F8D00086F8D00086F8D00086F8D000820
:1000D0006F8D000813720008E37200086F8D00082E
:1000E0006F8D00086F8D00086F8D00087D7500080A
:1000F000BF750008A37500080000000000000000A4
:100100000000000000000000AB7000086F8D0008C8
:1001100000000000000000006F8D00086F8D0008D7
:100120006F8D00086F8D00088B7000086F8D0008C0
:100130006F8D0008477600086F8D00086F8D0008EE
:100140006F8D0008000000000000000000000000AB
:10015000000000000000000000000000000000009F
:1001600000000000000000006F8D00086F8D000887
:100170006F8D0008000000006F8D00080000000077
:10018000000000006F8D0008DFF80CD011F086FC35
:1001900000480047010200085874002010B50024F0
:1001A0000DF07FFD0BF058FB0BF050FB0EF0A6F9A5
:1001B0000EF0D3F90EF00BFA0DF035FE0FF071FFD3
:1001C0004FF4E13010F009FA4FF4FA700BF081FBB4
:1001D00010F0C5F8044610F087F810F028F80EF07B
:1001E00094FE10F051FA10F0ACFA10F051FB10F040
:1001F000E1FA4FF4E16010F00DFB10F071FA10BD60
:100200000024FFF7CBFF1748006820F470701549F1
:1002100008600121144809F0F7FD21E01348007837
:1002200001280CD1002011490870601C84B241F2F1
:100230001850844203D10EF090F90BF077FB0C4874
:100240000078012803D00B480078012802D100244F
:1002500000F003FB00F0E2F802F0DCFD08F094FA95
:10026000DCE700000004014000040040CE04002050
:1002700091040020920400209FEDF70AF74880EDDA
:10028000000A9FEDF50AF64880ED000A9FEDF20A9C
:10029000F44880ED000A9FEDF00AF34880ED000A73
:1002A0009FEDED0AF14880ED000A9FEDEB0AF04862
:1002B00080ED000A9FEDE80AEE4880ED000A9FED10
:1002C000E60AED4880ED000A9FEDE30AEB4880ED79
:1002D000000A704710B5EA480078072810DC10F0D3
:1002E000EAFA10F0F6FA0121E64809F0AAFA01212B
:1002F000E54809F0A6FA0121E44809F085FD1BE074
:10030000DF480078082817DBDD4800780F2813D075
:1003100010F0D8FA10F0E4FA0021DA4809F091FA66
:100320000021D94809F08DFA0021D84809F06CFD68
:100330000021D74809F068FD10BD10B5D0480078FD
:10034000801F052865D2DFE800F0031A1E3647003B
:10035000D048007820B1012806D002280CD107E04F
:1003600004200FF0EAFD08E003200FF0E6FD04E0B2
:1003700004200FF0E2FD00E000BF00BF4AE00420CF
:100380000FF0DBFD46E0C348007810B101280FD123
:1003900003E005200FF0D1FD0BE0BF48007818B94D
:1003A00004200FF0CAFD02E012200FF0C6FD00E0AD
:1003B00000BF00BF2EE0B748007810B1012808D177
:1003C00003E009200FF0B9FD04E00A200FF0B5FDAD
:1003D00000E000BF00BF1DE0AE48007830B101284A
:1003E00008D002280AD0032810D10BE007200FF014
:1003F000A4FD0CE00B200FF0A0FD08E013200FF08F
:100400009CFD04E013200FF098FD00E000BF00BF4A
:1004100000E000BF00BFFFF75DFF10BD10B59F48B3
:100420000078002875D196480078801F052871D281
:10043000DFE800F0031527475E0063200EF042FE60
:10044000BCEEC00A10EE100A9549087060200EF04C
:1004500039FE944880ED000A0CF01DF87AE0632024
:100460000EF030FEBCEEC00A10EE100A8C49087087
:1004700060200EF027FE8B4880ED000A0CF00BF890
:1004800068E08548007830B960200EF01BFE854892
:1004900080ED000A14E080480078012806D1612030
:1004A0000EF010FE7F4880ED000A09E07A480078DF
:1004B000022805D162200EF005FE7B4880ED000A7F
:1004C00048E07448007810B101280ED106E06020A1
:1004D0000EF0F8FD734880ED000A07E060200EF092
:1004E000F1FD704880ED000A00E000BF00BF31E080
:1004F0006848007830B101280DD0022812D00328B6
:1005000024D116E060200EF0DDFD664880ED000A83
:100510001DE020E01DE060200EF0D4FD614880ED7C
:10052000000A14E060200EF0CDFD5E4880ED000A68
:100530000DE060200EF0C6FD9FED5C1ADFED5C0A59
:1005400040EE010A5748C0ED000A00E000BF00BFBE
:1005500000E000BF00BF10BD10B55648007810B1D4
:1005600001280CD105E0002202211D200DF081FFA1
:1005700006E0012202211D200DF07BFF00E000BFFC
:1005800000BF10BD10B54C48007820B101280DD037
:10059000022821D115E0002211460A200DF069FF42
:1005A000002201210A200DF064FF16E0002211460E
:1005B0000A200DF05EFF012211460A200DF059FFBE
:1005C0000BE0012200210A200DF053FF002201213F
:1005D0000A200DF04EFF00E000BF00BF10BD10B5B7
:1005E0003648007810B101280CD105E000221146F0
:1005F00009200DF03EFF06E00122002109200DF048
:1006000038FF00E000BF00BF10BD10B52C480078D7
:1006100001280AD1012202211C200DF02AFF00220C
:1006200003211C200DF025FF09E0002202211C20DF
:100630000DF01FFF012203211C200DF01AFF10BD39
:10064000F0EE400A01285DD11B490978D1B3012998
:100650003AD0022954D145E000000000A803002050
:100660005C040020AC030020600400208C0000200B
:100670008400002088000020740000207800002002
:10068000960400200060014000640140005C0140CD
:10069000000C0040040000200B0000200C00002093
:1006A00099000020A8040020AC0400206666E63F04
:1006B0000000004205000020060000200800002085
:1006C0000F000020FFE71CE0FD4991ED000AF4EE69
:1006D000C00AF1EE10FA01DDC1ED000AF84991ED12
:1006E000000A7047F74991ED000AF4EEC00AF1EEF6
:1006F00010FA01D2C1ED000AF24991ED000AF0E7CB
:1007000000BF28E0022826D1EF49097821B101294C
:1007100003D002291DD10EE01CE0EC4991ED000A46
:10072000F4EEC00AF1EE10FA01DDC1ED000AE7496E
:1007300091ED000AD5E7E64991ED000AF4EEC00A12
:10074000F1EE10FA01D2C1ED000AE14991ED000A83
:10075000C7E700BF00BFB0EE600AC2E7F0EE400A94
:10076000012805D1DB4991ED000A30EEC00A70473F
:10077000022805D1D84991ED000A30EEC00AF6E70B
:1007800000BFF4E700B5B0EE401A0246CE4800784C
:1007900028B11046B0EE410AFFF752FF00BDCF4826
:1007A000007828B11046B0EE410AFFF7D7FFF5E711
:1007B000B0EE410AF2E700B5F0EE401A03461846E3
:1007C000B0EE610AFFF7DEFF9FEDC51AC0EE010A29
:1007D000B0EE600A00BD10B5B0EE402A04462046D7
:1007E000B0EE420AFFF7E7FF9FEDBD1AC0EE010A27
:1007F000B0EE600A10BD10B59223002242215020B5
:100800000EF0FEFB50200EF02FFCB6490870084693
:100810000078012820D100200870512108460EF0F0
:10082000EFFB51200EF020FCAE490870084600781E
:10083000012811D100200870AB48407800F0010079
:1008400028B1012203211D200DF013FE04E0002237
:1008500003211D200DF00DFE10BD10B52DED088BF0
:10086000A2480078012856D1FFF706FD00209F49D5
:1008700008700FF035FC00209D49087092490870FF
:100880009C490870954908709B4908709B490870FD
:100890009B4908709B4908709B490870002404E03C
:1008A00000209A490855601CC4B2102CF8DB984807
:1008B0000078801F052826D2DFE800F0030B13190B
:1008C0001F002420914988730820087380208872B3
:1008D0001AE004208D498873112048730420C872DF
:1008E00012E0052089498873082008730CE0012074
:1008F000864908702020087306E020208349087389
:100900000420887300E000BF00BF0DF044FEFFF735
:1009100023FEFFF712FD7F480078012842F0538242
:10092000FFF7AAFC00207B4908700FF0D9FB78483C
:100930000078801F052882F0E881DFE810F00500CC
:10094000BA05D80BB80EB60F7348007801282CD121
:100950006C480078012828D170480078032824D0FA
:100960006E480078052820D067480078E8B9002054
:1009700069490870634908700DF0EFFD01221146C6
:100980001D200DF076FD012202211C200DF071FDCD
:100990000122032118200DF06CFD012203211520F6
:1009A0000DF067FD00205E4908705C48007806285D
:1009B0007ED2DFE800F003C2EFEEEDEC564800789F
:1009C000012876D14B4800780028FAD14A480078AF
:1009D0000028F6D14A4800780028F2D14A48007829
:1009E0000028EED1384908703C4908704349087026
:1009F0004449087001204B4908700DF0AEFD3C4899
:100A0000007820B1012806D002280CD107E001208F
:100A10003749087008E002203549087004E00020DA
:100A20003349087000E000BF00BF3148007820B1B2
:100A3000012812D0022877D124E0012211461D207E
:100A40000DF017FD0122032118200DF012FD0122E7
:100A5000032115200DF00DFD67E0012200211C206F
:100A60000DF007FD002201211D200DF002FD0122E5
:100A7000032118200DF0FDFC0122032115200DF0AB
:100A8000F8FC52E0012200211C200DF0F2FC0122B2
:100A900000211D200DF0EDFC012211461D200DF05E
:100AA000E8FC0122032118200DF0E3FC012201E003
:100AB000E8E341E0032115200DF0DBFC35E033E0F5
:100AC000180000201C00002006000020200000204C
:100AD00024000020280000202C0000200800002016
:100AE00000007A44A3040020386C00209104002008
:100AF0000400002007000020090000200A00002058
:100B00000B0000200E0000200C000020286C0020AC
:100B100096040020920400209304002098040020F2
:100B2000A40300200F00002000BF00BFFFF72AFD34
:100B3000FFF755FDFFF769FD8FE2FB4800780128BC
:100B400056D1FA480078002852D1F9480078002898
:100B50004ED1F848007800284AD1F3490870F64988
:100B60000870F6490870F648007820B1012806D0D0
:100B7000022810D107E00120F14908700CE00220A2
:100B8000EF49087008E00020ED49087004E0FDE33B
:100B900036E363E2DDE000BF00BFFFF7F3FCFFF7E1
:100BA0001EFDE7480078012858D1E648007800BBD0
:100BB000E54890ED000AE548D0ED000A30EE600A05
:100BC000E34880ED000A90ED000AE24880ED000A5B
:100BD000E14890ED000AE148D0ED000A30EE600AED
:100BE000DF4880ED000A90ED000ADE4880ED000A43
:100BF00034E0D4480078012816D1D44890ED000A9A
:100C0000D34880ED000A90ED000AD24880ED000A3A
:100C1000D24890ED000AD24880ED000A90ED000A1B
:100C2000D04880ED000A19E0C6480078022815D1A6
:100C3000C54890ED000AC64880ED000A90ED000A14
:100C4000C44880ED000AC44890ED000AC44880ED15
:100C5000000A90ED000AC34880ED000AB24800780F
:100C6000012820D1B1480078E8B1B2480078D0B965
:100C70000020AD490870B0490870B14800780128DB
:100C800002D0022808D103E00220AD49087004E038
:100C90000120AB49087000E000BF00BFFFF772FC05
:100CA000FFF79DFC54E0B0480078012850D1A048DF
:100CB0000078E8BBAD480078D0BBA0480078B8BB4E
:100CC0009C480078A0BB0020A74908709A4908708A
:100CD0009B48007868B99548007850B9012093493D
:100CE0000870974908700122114609200DF0C1FBD8
:100CF0000CE08E48007848B100208C49087090497B
:100D000008700022012109200DF0B3FBFFF73AFC27
:100D1000FFF765FC85480078012819D1944890EDCB
:100D2000000A8B4880ED000A924890ED000A00E02E
:100D30000EE0884880ED000A8F4890ED000A884850
:100D400080ED000A8D4890ED000A864880ED000A8B
:100D5000ACE37548007801286AD17448007800280F
:100D600066D173480078002862D172480078002864
:100D70005ED16D49087072490870704908706E48FC
:100D8000007810B1012808D103E001206A490870F9
:100D900004E000206849087000E000BF00BFFFF7D2
:100DA0001EFCFFF7EFFB64480078002873D065480D
:100DB0000078E0BB6548006810F054FC41EC1B0B68
:100DC000B0EE4B0AF0EE6B0A11F062FBB0EE409A07
:100DD000F0EE609A5C48006810F044FC41EC1A0B9D
:100DE00053EC192B10F028FB41EC180B10F07EFC93
:100DF000634908605948006810F034FC41EC1B0B53
:100E0000B0EE4B0AF0EE6B0A11F042FBB0EE409AE6
:100E1000F0EE609A5048006810F024FC41EC1A0B88
:100E200053EC192B10F008FB41EC180B01E005E026
:100E30004EE010F05BFC5349086020E04148007828
:100E400001280CD1414890ED000A4D4880ED000A80
:100E5000424890ED000A4B4880ED000A0FE0394807
:100E6000007802280BD1384890ED000A444880ED04
:100E7000000A394890ED000A424880ED000A4248D5
:100E8000007848B93E4890ED000AF2EE040A20EEE0
:100E9000200A80ED000AE0E03B480078012809D1F3
:100EA000374890ED000ADFED390A20EE200A80ED88
:100EB000000AD2E034480078022808D1304890ED8A
:100EC000000A5FEDF90A20EE200A80ED000AC4E076
:100ED00025480078012825D114480078002821D120
:100EE0002248007800281DD114480078002819D124
:100EF00010480078B0B900201B49087010490870EC
:100F00000D490870224908701849087001202149CC
:100F100008700020204908700548007818B10128A1
:100F200044D13FE099E039E093040020070000201D
:100F3000090000200C000020080000200E00002006
:100F40000600002004000020A80300205C0400200C
:100F5000180000201C000020AC03002060040020CA
:100F60002000002024000020940400200B0000201A
:100F7000B8030020C0030020BC030020C4030020ED
:100F8000280000202C000020990000200000C8420A
:100F90000A0000200F000020100000200120FC4962
:100FA000087004E00020FA49087000E000BF00BFAC
:100FB000F748007810B1012847D113E0002203213F
:100FC0001B200DF056FA0122032118200DF051FAD2
:100FD0000122032115200DF04CFA0021ED4808F004
:100FE00013FF33E00022022110460DF042FA0022E6
:100FF00002210A200DF03DFA012203211B200DF0F1
:1010000038FA0022032118200DF033FA00220321C0
:1010100015200DF02EFA01200DF093FE02200DF0A8
:1010200090FE0121DB4808F0EFFE0020DA4908803D
:101030000021084607F0C2FE1021D84809F0BBFA8B
:101040000121D74808F0E0FE00E000BF00BFFFF735
:10105000C6FAFFF797FAFFF7D8FA27E2D1480078E7
:10106000012866D1D0480078C0BBC9480078A8BB29
:10107000CE48007890BBCE48007878BBCD48007849
:1010800060BB0020C7490870CB490870CB49087085
:10109000CB480078012812D10020C94908705B2193
:1010A00008460DF0ADFF5B200DF0DEFFC54908706E
:1010B00008460078012835D10020087032E0C24887
:1010C000007806282CD2DFE800F0030A10171E254E
:1010D0000120BD4908700EF048FF22E029E00220FF
:1010E000B94908700EF041FF1BE00320B6490870B3
:1010F00000200EF03AFF14E00420B34908700120EC
:101100000EF033FF0DE00520AF49087002200EF00D
:101110002CFF06E00020AC4908700EF026FF00E02E
:1011200000BF00BFFFF771FAFFF759FAFFF72AFA7D
:1011300065E09C480078012834D19D48007801285A
:1011400030D19C48007868BB0020964908709F49C0
:10115000087001200DF0FEFD9B48007810B10128B9
:1011600008D103E001209849087004E00020964966
:10117000087000E000BF00BF9348007810B101285C
:101180000ED106E0032102209FED910A0DF0ABFA8B
:1011900007E0042102209FED8F0A0DF0A4FA00E081
:1011A00000BF2CE08C480078012828D17E480078C8
:1011B00028BB8048007810BB002087490870804811
:1011C000007801281BD001207D4908705A2108466B
:1011D0000DF016FF5A200DF047FF7A4908700846B7
:1011E0000078012801D100200870012202211C2072
:1011F0000DF03FF9002203211C200DF03AF955E1D2
:101200006848007801283CD167480078C8BB60482E
:101210000078B0BB6748007898BB0020614908702F
:10122000654908706549087067490870012064497C
:1012300008700DF092F95D48007830B1012808D0AF
:1012400002280AD0032810D10BE00120574908706A
:101250000CE002205549087008E00320534908704B
:1012600004E000205149087000E000BF00BF4F4873
:10127000007840B1012811D002281AD0032829D1C2
:1012800022E056E011E10122032118200DF0F1F8CF
:101290000122032115200DF0ECF81CE001220021B1
:1012A00013200DF0E6F80122002115200DF0E1F8E1
:1012B00011E00122002113200DF0DBF801220021B2
:1012C00014200DF0D6F806E00122114616200DF08C
:1012D000D0F800E000BF00BF4048007820B10128EE
:1012E00008D002281CD10BE0012211461D200DF070
:1012F000C0F816E0012200211C200DF0BAF810E021
:10130000012200211C200DF0B4F8012200211D2033
:101310000DF0AFF8012211461D200DF0AAF800E0F3
:1013200000BF00BFFFF72EF9FFF759F9FFF76DF97E
:101330006DE029480078012869D11B48007830BB4E
:101340001348007818BB1948007800BB184800788B
:10135000E8B918480078D0B900201F49087016492C
:101360000870164908701849087010490870012063
:101370000F490870124908700DF0EFF801220221A0
:1013800017200DF076F80122002129E040E03EE030
:101390000900002000200040B4040020000C0040A0
:1013A000005C014093040020070000200B00002097
:1013B0000E0000200C000020060000200800002085
:1013C0000F000020A30400200A000020A403002036
:1013D000000016440000FA44940400200400002099
:1013E0001A200DF046F80122032115200DF041F8D6
:1013F00001200DF0AFFC032102201FED0B0A0DF0C0
:1014000072F9FFF7ECF8FFF7BDF8FFF7FEF84DE0D3
:10141000FB480078012826D10020F9490870F948D6
:10142000007810B1012808D103E00120F5490870C7
:1014300004E00020F349087000E000BF00BFF1485D
:10144000007810B101280CD105E0002201211C20F8
:101450000DF00FF806E0012211461C200DF009F8EE
:1014600000E000BF20E0E848007801281CD10020FF
:10147000E5490870E548007810B1012808D103E07B
:101480000120E249087004E00020E049087000E013
:1014900000BF00BFDD48007810B1012802D100E094
:1014A00001E000E000BF00BF00E000BF00BF01F0AE
:1014B0002DBCD748007806287CD2DFE800F003C1B5
:1014C000FCFBFAF9CE480078012861D1D1480078B8
:1014D000D0BBD1480078B8BBCA480078A0BB002078
:1014E000CE490870CE490870CE490870CE480078C1
:1014F00020B1012806D002280CD107E00120CA49FA
:10150000087008E00220C849087004E00020C649BD
:10151000087000E000BF00BFC348007820B1012878
:1015200013D002282CD120E00022012117200CF03A
:10153000A0FF012200211A200CF09BFF01220021B4
:101540001B200CF096FF1CE022E0002211461A201E
:101550000CF08FFF002211461B200CF08AFF0122A5
:10156000002119200CF085FF0BE000221146192004
:101570000CF07FFF0122114617200CF07AFF00E0EB
:1015800000BF00BFFEF7FEFFFFF729F8FFF73DF8A9
:101590009B480078012852D19E48007888B399482A
:1015A000007870BBA048007828B1012807D0022835
:1015B0000DD108E0EFE301209B49087008E002200C
:1015C0009949087004E000209749087000E000BFC6
:1015D00000BF9548007820B1012813D002282CD1F3
:1015E00020E00022012117200CF043FF01220021FE
:1015F0001A200CF03EFF012200211B200CF039FFC5
:101600001CE01CE0002211461A200CF032FF0022E0
:1016100011461B200CF02DFF0122002119200CF097
:1016200028FF0BE00022114619200CF022FF0122B6
:10163000114617200CF01DFF00E000BF00BF8AE339
:101640006F480078012837D172480078A0BB6D48F8
:10165000007888BB00206A490870714908706F489B
:10166000007820B1012806D002280CD107E0012023
:101670006A49087008E002206849087004E0002008
:101680006649087000E000BF00BFFEF77BFFFEF771
:10169000A6FF62480078012870D15F48007880BBBF
:1016A0006148007848B1012813D002282AD11CE0F3
:1016B000EFE352E350E36AE1DBE05C4890ED000ABF
:1016C0005B4880ED000A90ED000A5A4880ED000A60
:1016D00019E0594890ED000A554880ED000A90ED58
:1016E000000A544880ED000A0DE0544890ED000ACD
:1016F0004F4880ED000A90ED000A4E4880ED000A48
:1017000001E03EE000BF00BF4D48007830B1012845
:1017100010D002281AD0032831D123E0494890ED97
:10172000000A494880ED000A90ED000A474880ED24
:10173000000A25E0464890ED000A434880ED000A83
:1017400090ED000A414880ED000A19E0414890ED13
:10175000000A3D4880ED000A90ED000A3B4880ED0C
:10176000000A0DE03C4890ED000A374880ED000A81
:1017700090ED000A354880ED000A01E03FE000BF2F
:1017800004E125480078012839D12D48007830B18E
:10179000012810D002281AD0032868D123E02F484E
:1017A00090ED000A224880ED000A90ED000A2148E1
:1017B00080ED000A5CE02A4890ED000A1C4880EDAC
:1017C000000A90ED000A1B4880ED000A50E0254811
:1017D00090ED000A164880ED000A90ED000A1548C9
:1017E00080ED000A44E0204890ED000A104880EDAA
:1017F000000A90ED000A0F4880ED000A38E076E01C
:10180000930400200C000020940400200D00002010
:1018100098040020070000200E0000200600002091
:10182000080000200A00002004000020D00300204F
:10183000180000201C000020D4030020D803002042
:101840000B000020EC0300202000002024000020DA
:10185000F00300200804002004040020DC03002022
:10186000E0030020E4030020E8030020FFE700BFBE
:101870008CE0FB480078012839D1FA480078B0BBE9
:10188000F948007898BB0020F5490870F7490870BE
:10189000F7490870F74908700CF05FFEF6480078C9
:1018A00010B1012808D103E00120F349087004E0D9
:1018B0000020F149087000E000BF00BFEE4800784A
:1018C00010B101285CD12BE0EC48007820B1012850
:1018D0000ED0022818D111E0012200211A200CF0AC
:1018E000C8FD012200211B200CF0C3FD0DE04DE0DE
:1018F0000122002119200CF0BCFD06E00122114656
:1019000017200CF0B6FD00E000BF00BF012202214D
:1019100016200CF0AEFD0021D94808F075FA30E031
:101920000122032109200CF0A4FD012200210B203B
:101930000CF09FFDD148007820B101280DD002287D
:1019400017D110E0012200211A200CF092FD012293
:1019500000211B200CF08DFD0CE00122002119203C
:101960000CF087FD06E00122114617200CF081FDE6
:1019700000E000BF00BF0121C14808F045FA00E0C7
:1019800000BF00BFFEF72BFEFEF73FFEADE3BD48F4
:101990000078012833D1B848007880BBB24800787D
:1019A00068BB0020B7490870AE490870AF4800789E
:1019B00010B1012808D103E00120AC49087004E00F
:1019C0000020AA49087000E000BF00BFFEF707FE34
:1019D000FEF7D8FDA548007888B1AB48007880BBF9
:1019E000A648007820B101280AD0022816D10EE0BE
:1019F000A64890ED000AA64880ED000A0FE064E0DA
:101A0000A44890ED000AA24880ED000A07E0A24831
:101A100090ED000A9E4880ED000A00E000BF00BF84
:101A20009348007830B101280CD0022811D0032847
:101A30001DD115E0994890ED000A994880ED000A03
:101A400016E016E0974890ED000A954880ED000AF0
:101A50000EE0954890ED000A914880ED000A07E0FD
:101A6000924890ED000A8E4880ED000A00E000BF29
:101A70002BE085480078012827D17D48007830B1D7
:101A800001280BD0022810D003281CD114E088486C
:101A900090ED000A7E4880ED000A15E0854890ED43
:101AA000000A7B4880ED000A0EE0834890ED000AB2
:101AB000774880ED000A07E0804890ED000A7448FE
:101AC00080ED000A00E000BF00BF6E4800780128EA
:101AD0003CD169480078012838D163480078A8BB18
:101AE00064480078072878D2DFE800F0041A3178DB
:101AF0007C80840001205F490870644890ED000AF2
:101B00006F4880ED000A634890ED000A6D4880ED53
:101B1000000A614890ED000A6B4880ED000A6EE013
:101B2000022054490870594890ED000A674880ED3A
:101B3000000A584890ED000A654880ED000A5648B2
:101B400090ED000A634880ED000A58E0EFE00320C2
:101B5000484908704D4890ED000A5F4880ED000A42
:101B60004C4890ED000A5D4880ED000A4A4890ED2F
:101B7000000A5B4880ED000A514890ED000A534886
:101B8000D0ED000A30EE200A5348D0ED000A30EEC6
:101B9000200A544880ED000A4A4890ED000A4C485B
:101BA000D0ED000A30EE200A4C48D0ED000A30EEAD
:101BB000200A4D4880ED000A434890ED000A454850
:101BC000D0ED000A30EE200A4548D0ED000A30EE94
:101BD000200A464880ED000A11E00FE00420254964
:101BE00008700CE005202349087008E00620214910
:101BF000087004E003201F49087000E000BF00BF28
:101C00001C480078072873D2DFE800F004050B11A8
:101C1000737E89008AE00022032109200CF029FC50
:101C200084E0002203210A200CF023FC7EE0002245
:101C3000022109200CF01DFC002201210B200CF0D8
:101C400018FC0122032109200CF013FC01220021C1
:101C50000B200CF00EFC0021094808F0D5F865E0D7
:101C600094040020060000200C0000200800002042
:101C70000B000020090000200700002004000020C5
:101C800000200040930400200E000020D00300201C
:101C900028000020D4030020D8030020EC030020FB
:101CA0002C000020F0030020080400200404002081
:101CB000DC030020E0030020E4030020E803002010
:101CC000380000203C00002040000020440000209C
:101CD000480000204C00002050000020540000204C
:101CE000580000205C0000206000002064000020FC
:101CF0001BE00022032109200CF0BBFB0122032181
:101D00000A200CF0B6FB11E0002203210A200CF09F
:101D1000B0FB012211460B200CF0ABFB06E00122C8
:101D2000022109200CF0A5FB00E000BF13E0FE48F3
:101D3000007801280FD1FD48007860B9FC48007890
:101D400048B90020F849087001200CF0F0FF4FF46A
:101D50007A7009F0BEFDC8E1C7E1F64800780128B5
:101D60006BD1F248007878BBF348007860BBF0484C
:101D7000007848BB0020EF490870F048007830B187
:101D8000012809D002280BD0032811D10CE0012032
:101D9000EA4908700DE0A7E10220E849087008E070
:101DA0000320E649087004E00020E449087000E0E0
:101DB00000BF00BFE148007838B1012815D00228E3
:101DC00019D0032837D12BE037E000221146132029
:101DD0000CF04FFB0022114614200CF04AFB0122AC
:101DE000022116200CF045FB26E0012203211620DB
:101DF0000CF03FFB20E00022032116200CF039FB01
:101E00000022022116200CF034FB012200211320B5
:101E10000CF02FFB0122002115200CF02AFB0BE017
:101E20000022114615200CF024FB01220021142071
:101E30000CF01FFB00E000BF08E1BE48007801285D
:101E400044D1BD480078012840D1B9480078E8BBAA
:101E50000020B8490870BA490870BA490870B748F4
:101E6000007830B1012808D002280AD0032811D107
:101E70000BE00120B14908700DE00220AF49087065
:101E800009E00320AD49087005E00020AB49087067
:101E900001E0DCE000BF00BFA848007830B10128B5
:101EA0001BD0022829D0032856D140E0012200216E
:101EB00008200CF0DEFA0122002119200CF0D9FADA
:101EC0000122002118200CF0D4FA00E04DE000229D
:101ED000032117200CF0CDFA3FE0012200211A2047
:101EE0000CF0C7FA012200211B200CF0C2FA0022DC
:101EF000114619200CF0BDFA2FE001220221182012
:101F00000CF0B7FA0122114617200CF0B2FA0022A9
:101F1000114608200CF0ADFA002211461A200CF0F0
:101F2000A8FA002211461B200CF0A3FA15E00122AA
:101F3000032117200CF09DFA0022022118200CF03A
:101F400098FA0022012117200CF093FA0022114682
:101F500018200CF08EFA00E000BF00BFFEF712FB65
:101F6000FEF73DFBFEF751FB70E06F48007801285B
:101F70006CD16E48007880BB6D48007868BB00204B
:101F800069490870704908706D4908706D4908709A
:101F90006E490870694908706D4908809FED6D0AA7
:101FA0006D4880ED000A9FED6B0A6C4880ED000AD9
:101FB0009FED680A6A4880ED000A0CF0CEFA5E4890
:101FC000007810B1012809D103E001205A490870B6
:101FD00005E000205849087001E037E000BF00BF6D
:101FE0005548007810B1012828D113E001220021C2
:101FF0001A200CF03EFA012200211B200CF039FAC5
:102000000122022116200CF034FA0021554807F075
:10201000FBFE14E00122002108200CF02AFA012224
:10202000002119200CF025FA0122002118200CF0C3
:1020300020FA01214B4807F0E7FE00E000BF00BF97
:10204000FEF7A0FAFEF7CBFAFEF7DFFA4DE03948CB
:102050000078012826D100203649087034480078DD
:1020600010B1012808D103E001203149087004E0D3
:1020700000202F49087000E000BF00BF2C48007806
:1020800010B101280CD105E0002201211C200CF028
:10209000F0F906E0012211461C200CF0EAF900E0FC
:1020A00000BF20E02048007801281CD100201E49F4
:1020B00008702D48007810B1012808D103E00120F4
:1020C0002949087004E000202749087000E000BF9B
:1020D00000BF2548007810B1012802D100E001E0DE
:1020E00000E000BF00BF00E000BF00BFDEE21F480D
:1020F0000078062877D2DFE800F00377BDE7FEFD21
:102100000C48007801286DD10C48007890BB084835
:10211000007878BB00200A4908700A4908700B490A
:1021200008700120124926E09404002007000020D6
:102130000C000020930400200E0000200B00002063
:102140000600002008000020040000200A000020F3
:10215000CA04002000000000DC030020E00300208F
:10216000E4030020001800400D0000209804002027
:102170000F00002036E008700CF0EFF9F748007807
:1021800010B1012808D103E00120F449087004E0EF
:102190000020F249087000E000BF00BFEF4800785F
:1021A00010B1012816D10AE0012200211C200CF0F8
:1021B00060F90122032118200CF05BF90BE00122E9
:1021C00011461D200CF055F90122032118200CF0B6
:1021D00050F900E000BF00BFFEF7D4F9FEF7FFF9A9
:1021E000FEF713FA61E25FE2DD480078012840D192
:1021F000DC48007888BB0020D9490870DA490870AB
:10220000DA48007820B1012806D002280CD107E076
:102210000120D649087008E00220D449087004E083
:102220000020D249087000E000BF00BFFEF7AAF905
:10223000FEF7D5F9CD48007801281AD1CC480078AE
:1022400002280BD0CB4890ED000ACB4880ED000A65
:1022500090ED000AC94880ED000A0AE0C84890EDF8
:10226000000AC84880ED000A90ED000AC64880EDDB
:10227000000A1AE2BA480078012824D1B948007847
:1022800008BB0020B6490870B8490870B648007805
:1022900010B1012808D103E00120B349087004E01F
:1022A0000020B149087000E000BF00BFFEF797F9B9
:1022B000FEF768F9AC48007828B1AE4890ED000A06
:1022C000B24880ED000AF0E1A548007801283BD132
:1022D000A7480078C0BBA3480078A8BB0020A0494D
:1022E0000870A2490870A04908709C48007828B17D
:1022F000012801E08BE114E17FD141E0A44800789E
:10230000012812D10020A24908705B2108460CF078
:1023100077FE5B200CF0A8FE9E4908700846007806
:1023200001282CD10020087029E09B48007805285E
:1023300023D2DFE800F0030A10161C0001209649A2
:1023400008700DF012FE19E060E00220924908705A
:102350000DF00BFE12E003208F4908700DF005FE12
:102360000CE004208C4908700DF0FFFD06E0002011
:10237000894908700DF0F9FD00E000BF00BF3DE0A5
:1023800083480078012812D10020814908705B2120
:1023900008460CF035FE5B200CF066FE7D490870A7
:1023A00008460078012827D10020087024E07A48E8
:1023B000007830B101280AD002280FD0032819D1A3
:1023C00012E00120744908700DF0CFFD13E00220E7
:1023D000714908700DF0C9FD0DE00EE003206E4953
:1023E00008700DF0C2FD06E000206B4908700DF08A
:1023F000BCFD00E000BF00BF00E000BF00BFFEF773
:1024000004F9FEF7ECF8FEF7BDF889E054480078CF
:1024100001285BD156480078012857D151480078EF
:1024200090BB00204E490870504908704E49087012
:1024300057480078012812D10020554908705B21C7
:1024400008460CF0DDFD5B200CF00EFE51490870D3
:1024500008460078012832D1002008702FE04E484D
:102460000078062829D2DFE800F0030910161C22A4
:102470000120494908700DF078FD1FE0022046490F
:1024800008700DF072FD19E020E003204249087049
:102490000DF06BFD12E004203F4908700DF065FD62
:1024A0000CE005203C4908700DF05FFD06E00020BF
:1024B000394908700DF059FD00E000BF00BFFEF77C
:1024C000A4F8FEF78CF8FEF75DF829E033480078B1
:1024D000012825D12348007810BB00202F4908701F
:1024E0002B48007801281BD00120294908705A2167
:1024F00008460CF085FD5A200CF0B6FD2549087001
:1025000008460078012801D100200870012202212C
:102510001C200BF0AEFF002203211C200BF0A9FFB2
:10252000C3E00F480078012870D10C4800780128DA
:102530006CD10C48007880B900200C4908700A4919
:102540000870154908700CF008F80948007838B38D
:1025500001282AD0022830D12BE057E004000020C7
:10256000930400200C00002008000020060000203A
:102570000B000020A8040020180000201C000020F0
:10258000AC040020200000202400002028000020AF
:102590000F000020A30400200A0000209404002063
:1025A000FFE70120FE49087008E00220FC4908709E
:1025B00004E00020FA49087000E000BF00BFF848BE
:1025C000007828B90122032118200BF052FF12E0F5
:1025D000F3480078012805D10122114618200BF09C
:1025E00048FF08E0EE480078022804D10122114695
:1025F00014200BF03EFF012211461D200BF039FF85
:10260000FDF7C0FFFDF7EBFFFDF7FFFF4DE0E548ED
:102610000078012826D10020E2490870E2480078BD
:1026200010B1012808D103E00120DF49087004E05F
:102630000020DD49087000E000BF00BFDA480078E4
:1026400010B101280CD105E0002201211C200BF063
:1026500010FF06E0012211461C200BF00AFF00E0EB
:1026600000BF20E0D148007801281CD10020CF49CC
:102670000870CF48007810B1012808D103E001208C
:10268000CB49087004E00020C949087000E000BF91
:1026900000BFC748007810B1012802D100E001E076
:1026A00000E000BF00BF00E000BF00BF2EE3C14854
:1026B000007806287CD2DFE800F003457CA6A7A8B6
:1026C000B848007801283CD1B748007890BB00207A
:1026D000B9490870B94908700BF03FFFB848007855
:1026E00010B1012808D103E00120B549087004E0C9
:1026F0000020B349087000E000BF00BFB048007878
:1027000010B1012817D10AE00122002108460BF080
:10271000B0FE0122114619200BF0ABFE0CE00122A5
:10272000114600200BF0A5FE0122032118200BF01A
:10273000A0FE01E005E000BF00BFFDF723FFFDF7AD
:102740004EFFB0E097480078012830D196480078D5
:1027500068BB002093490870984908709648007833
:1027600020B1012806D002280CD107E001209249AF
:10277000087008E002209049087004E000208E49AB
:10278000087000E000BF00BFFDF7FCFEFDF727FF6B
:102790008948007801280AD18A4890ED000A8A48C1
:1027A00080ED000A90ED000A884880ED000A7AE08A
:1027B00078E07C480078012824D17B48007808BB69
:1027C0000020784908707C4908707C48007810B176
:1027D000012808D103E001207849087004E00020B6
:1027E0007649087000E000BF00BFFDF7F8FEFDF776
:1027F000C9FE7248007828B1724890ED000A74480A
:1028000080ED000A4FE04EE04DE066480078012878
:1028100026D10020634908706348007810B1012870
:1028200008D103E001206049087004E000205E49FF
:10283000087000E000BF00BF5B48007810B10128BD
:102840000CD105E0002201211C200BF012FE06E055
:10285000012211461C200BF00CFE00E000BF20E01E
:102860005248007801281CD1002050490870504877
:10287000007810B1012808D103E001204C4908700C
:1028800004E000204A49087000E000BF00BF48484B
:10289000007810B1012802D100E001E000E000BFA3
:1028A00000BF00E000BF00BF30E2424800780628C9
:1028B00074D2DFE800F00363BAE4FDFC3948007825
:1028C00001285AD13848007888BB00203A4908705E
:1028D0003A4908703F49087001203F4908700BF0E1
:1028E0003CFE3748007830B1012808D002280AD0D1
:1028F000032810D10BE00120314908700CE00220C0
:102900002F49087008E003202D49087004E00020DA
:102910002B49087000E000BF00BF2948007838B19B
:10292000012810D0022814D003281ED117E024E07B
:102930000122114619200BF09CFD012202211C20CE
:102940000BF097FD12E00122032119200BF091FDFD
:102950000CE00122114615200BF08BFD06E0012250
:10296000002116200BF085FD00E000BF00BFFDF741
:1029700009FEFDF734FEFDF748FEC4E10948007882
:10298000012851D10848007848B90020054908704D
:102990000A4908700848007828B31FE0B2E143E014
:1029A0000B000020930400200C0000209404002061
:1029B0000D000020980400200600002008000020E0
:1029C00004000020A8040020180000201C000020A3
:1029D000280000200A0000200F000020012806D057
:1029E00002280CD107E00120F849087008E0022015
:1029F000F649087004E00020F449087000E000BFC8
:102A000000BFFDF7BFFDFDF7EAFDF04800780128A3
:102A10000AD1EF4890ED000AEE4880ED000A90EDF3
:102A2000000AED4880ED000A6DE1EC4800780128CD
:102A300024D1EB48007808BB0020E8490870E3493E
:102A40000870E848007810B1012808D103E001209F
:102A5000E449087004E00020E249087000E000BF8B
:102A600000BFFDF7BCFDFDF78DFDDE48007828B105
:102A7000D74890ED000ADC4880ED000A43E1D748D2
:102A8000007801283BD1D6480078C0BB0020D3494C
:102A90000870CE490870D3490870D448007840B116
:102AA00001284ED0022874D0032873D1A7E0DCE0BF
:102AB000DAE0CF480078012812D10020CC49087014
:102AC0005B2108460CF09CFA5B200CF0CDFAC9495A
:102AD000087008460078012832D1002008702FE0E5
:102AE000C5480078062829D2DFE800F0030A10164E
:102AF0001C220120C04908700DF037FA1FE088E061
:102B00000220BD4908700DF030FA18E00320BA49E0
:102B100008700DF02AFA12E00420B74908700DF091
:102B200024FA0CE00520B44908700DF01EFA06E006
:102B30000020B14908700DF018FA00E000BF00BF96
:102B40005FE0AB480078012812D10020A849087046
:102B50005B2108460CF054FA5B200CF085FAA5497D
:102B6000087008460078012847D10020087044E02A
:102B7000A148007808283ED2DFE800F0040D141BBD
:102B80002229303701209C49087000200DF0EDF912
:102B900032E033E034E002209749087000200DF065
:102BA000E4F929E003209449087001200DF0DDF9D3
:102BB00022E004209049087002200DF0D6F91BE0B5
:102BC00005208D49087002200DF0CFF914E0062091
:102BD0008949087003200DF0C8F90DE007208649E7
:102BE000087003200DF0C1F906E00020824908704A
:102BF0000DF0BBF900E000BF00BF02E001E000E023
:102C000000BF00BFFDF701FDFDF7E9FCFDF7BAFCD1
:102C100029E07A480078012825D17148007810BB56
:102C20000020764908707248007801281BD00120E6
:102C30006F4908705A2108460CF0E2F95A200CF04E
:102C400013FA6C49087008460078012801D1002069
:102C50000870012202211C200BF00BFC0022032132
:102C60001C200BF006FC4EE04DE05C48007801288B
:102C700026D10020594908705948007810B1012820
:102C800008D103E001205649087004E000205449AF
:102C9000087000E000BF00BF5148007810B1012863
:102CA0000CD105E0002201211C200BF0E2FB06E024
:102CB000012211461C200BF0DCFB00E000BF20E0ED
:102CC0004E48007801281CD100204C4908704C481F
:102CD000007810B1012808D103E0012048490870AC
:102CE00004E000204649087000E000BF00BF4448EF
:102CF000007810B1012802D100E001E000E000BF3F
:102D000000BF00E000BF00BF00E000BF00BF3D48C3
:102D1000007838BB39480078012823D13048007842
:102D200000BB0020354908703748007810B10128F1
:102D300008D103E001203449087004E00020324942
:102D4000087000E000BF00BF2F48007810B10128D4
:102D500006D102E00DF0D2FD03E00DF0C8FD00E069
:102D600000BF00BFFDF7F8FB2648007898B91B4864
:102D7000007801280FD11A48007860B9002017495F
:102D8000087022480078082802D121480078D0B97C
:102D9000FDF7D3FA17E01D480078082813D1194829
:102DA000007804280FD10D48007801280BD10F4876
:102DB0000078012807D10A48007820B90020074987
:102DC0000870FDF7BAFABDEC088B10BD06000020B4
:102DD000A8040020180000201C00002093040020FC
:102DE0000C00002008000020280000200400002023
:102DF0000F000020A30400200A00002094040020FB
:102E00000D000020980400200500002096040020FA
:102E10000B00002000B589B0FB480078002844F082
:102E20001081FDF7E8FCF9480078801F052884F040
:102E30000681DFE810F00500FD0C4B104A18B918A8
:102E4000F34890ED000AF34880ED000A90ED000A87
:102E5000F3EE0E0AB4EEE00AF1EE10FA05DD0122FF
:102E6000032100200BF005FB04E0002203211046A3
:102E70000BF0FFFAE8480078002841F08681E74827
:102E800000780028F9D1E64800780028F5D1E54817
:102E900000780028F1D1E448007800287ED1DC4891
:102EA00090ED000AE14880ED000AE14890ED000A4B
:102EB000E04880ED000A0120DC4991ED000AFDF7B1
:102EC00061FCDD4880ED000A0220DA4991ED000A3C
:102ED000FDF758FCD94880ED000AD948007806284B
:102EE0007DD2DFE800F0035FDEFDFCFBD548007813
:102EF000012842D1CD4890ED000AF1EE080AB4EE67
:102F0000E00AF1EE10FA09D801210846CA4A92ED0A
:102F1000000A0BF0E8FBCC4908700CE001200BF034
:102F200019FF0122002102200BF0A3FAC448007807
:102F3000401CC3490870BF4890ED000ADFEDC30A8A
:102F4000B4EEE00AF1EE10FA09D803210220BB4AE0
:102F500092ED000A0BF0C7FBBB49087021E002208C
:102F60000BF0F8FE0122002111200BF082FAB44888
:102F70000078C01CB249087013E001210846AE4A2F
:102F800092ED000A0BF0AFFBAF490870032102205D
:102F9000AA4A92ED000A0BF0A6FB00E08DE2AA49D6
:102FA000087088E2A7480078012867D19F4890ED13
:102FB000000ADFEDA70AB4EEE00AF1EE10FA14D829
:102FC00090ED000AF1EE080AB4EEE00AF1EE10FA14
:102FD0000BDD02210120984A92ED000A00E069E22F
:102FE0000BF081FB9849087026E0904890ED000AAC
:102FF000F1EE080AB4EEE00AF1EE10FA05D89048B6
:103000000078401E8E4908700EE0884890ED000A56
:10301000DFED8F0AB4EEE00AF1EE10FA04DD884825
:103020000078401C8649087001200BF093FE0122B5
:10303000002104200BF01DFA7E4890ED000ADFED20
:10304000830AB4EEE00AF1EE10FA09D80321022057
:103050007A4A92ED000A0BF046FB7B4908701FE0AC
:1030600002200BF077FE0122002111200BF001FA63
:1030700073480078C01C7249087011E002210120D9
:103080006D4A92ED000A0BF02EFB6F490870032188
:1030900002206A4A92ED000A0BF025FB6A4908708B
:1030A00009E268480078012859D1604890ED000A8B
:1030B000DFED660AB4EEE00AF1EE10FA16D890EDF4
:1030C000000ADFED630AB4EEE00AF1EE10FA0DDD5E
:1030D00003210120584A92ED000A02E06FE1E2E08C
:1030E00050E00BF000FB5849087016E04F4890ED97
:1030F000000ADFED570AB4EEE00AF1EE10FA04D848
:103100004F480078401E4E49087001200BF022FE07
:103110000122002106200BF0ACF9464890ED000A90
:10312000DFED4A0AB4EEE00AF1EE10FA09D8032105
:103130000220424A92ED000A0BF0D5FA424908708B
:103140001FE002200BF006FE0122002111200BF0EF
:1031500090F93B480078C01C3949087011E0032100
:103160000120354A92ED000A0BF0BDFA364908708D
:1031700003210220314A92ED000A0BF0B4FA3249E1
:10318000087098E12F480078012879D1274890ED00
:10319000000AF1EE080AB4EEE00AF1EE10FA09D8DE
:1031A00001210846244A92ED000A0BF09CFA2649B8
:1031B00008700CE001200BF0CDFD0122002102205F
:1031C0000BF057F91E480078401C1D49087019483B
:1031D00090ED000ADFED1F0AB4EEE00AF1EE10FAFE
:1031E0003AD890ED000ADFED190AB4EEE00AF1EEEC
:1031F00010FA31DD04210220104A92ED000A0BF092
:1032000072FA114908704DE00C000020960400206D
:10321000A80300208C0000200B0000200E000020DE
:103220000700002009000020040000208400002086
:10323000AC030020880000207400002078000020EB
:103240000A0000200F00002070000020000016443B
:10325000000070420000FA44FE4890ED000A5FED65
:10326000050AB4EEE00AF1EE10FA1BD802200BF0CA
:1032700071FDF9480078C01EF749087012E0FFE7B9
:1032800001210846F54A92ED000A0BF02CFAF449A8
:10329000087004210220F34A92ED000A0BF023FA91
:1032A000EF49087007E1F0480078012874D1EF4831
:1032B00090ED000A5FED1A0AB4EEE00AF1EE10FAA2
:1032C00012D890ED000AF1EE080AB4EEE00AF1EE31
:1032D00010FA09DD02210120E04A92ED000A0BF00C
:1032E00002FADF49087026E0E04890ED000AF1EEAE
:1032F000080AB4EEE00AF1EE10FA05D8D6480078D4
:10330000401ED54908700EE0D84890ED000A5FEDE8
:10331000300AB4EEE00AF1EE10FA04DDCE4800788F
:10332000401CCD49087001200BF014FD0122002142
:1033300004200BF09EF8C74890ED000A5FED3B0AB1
:10334000B4EEE00AF1EE10FA12D890ED000A5FED4B
:10335000410AB4EEE00AF1EE10FA09DD0421022080
:10336000C04A92ED000A0BF0BEF9BD49087025E095
:10337000B84890ED000A5FED4B0AB4EEE00AF1EEBA
:1033800010FA1BD802200BF0E5FCB3480078C01EF1
:10339000B149087012E0FFE702210120AF4A92ED27
:1033A000000A0BF0A0F9AE49087004210220AD4AD2
:1033B00092ED000A0BF097F9A94908707BE0AA4842
:1033C0000078012863D1A94890ED000A5FED610AF9
:1033D000B4EEE00AF1EE10FA12D890ED000A5FEDBB
:1033E000640AB4EEE00AF1EE10FA09DD03210120CF
:1033F0009A4A92ED000A0BF076F99949087016E0A6
:103400009A4890ED000A5FED6E0AB4EEE00AF1EE24
:1034100010FA04D890480078401E8F4908700120A7
:103420000BF098FC0122002106200BF022F88948BD
:1034300090ED000A5FED790AB4EEE00AF1EE10FAC1
:1034400012D890ED000A5FED7F0AB4EEE00AF1EECB
:1034500010FA09DD04210220824A92ED000A0BF0E5
:1034600042F97F49087024E07A4890ED000A5FED48
:10347000890AB4EEE00AF1EE10FA1AD802200BF035
:1034800069FC75480078C01E7349087011E003217B
:103490000120724A92ED000A0BF025F9704908707C
:1034A000042102206F4A92ED000A0BF01CF96C49CE
:1034B000087000E000BF01F0B9B96D48007801283C
:1034C00073D16C4890ED000A684880ED000A6A48A4
:1034D00090ED000A5F4880ED000A0120634991EDFC
:1034E000000AFDF74FF95D4880ED000A02205949B6
:1034F00091ED000AFDF746F95A4880ED000A5B4855
:1035000000680EF0AFF8CDE904019DED040B0EF05C
:10351000BFFF8DED060B9DED060B51EC100B0EF071
:10352000E5F8564908604C48007806287ED2DFE866
:1035300000F0035EF8F6F5F44B480078012843D11B
:103540004E4890ED000AF1EE080AB4EEE00AF1EE02
:1035500010FA09D801210846404A92ED000A0BF002
:10356000C2F83F4908700CE001200BF0F3FB012288
:10357000002102200AF07DFF37480078401C3649C0
:103580000870344890ED000A5FEDD00AB4EEE00A0E
:10359000F1EE10FA0AD803210220324A92ED000A15
:1035A0000BF0A1F82E49087020E0B0E202200BF0E9
:1035B000D1FB0122002111200AF05BFF2648007890
:1035C000C01C2549087011E001210846234A92EDEC
:1035D000000A0BF088F82249087003210220214AD2
:1035E00092ED000A0BF07FF81D4908708EE21E482C
:1035F000007801287ED1214890ED000A5FEDEC0AA9
:10360000B4EEE00AF1EE10FA14D890ED000AF1EEF3
:10361000080AB4EEE00AF1EE10FA0BDD02210120F7
:103620000E4A92ED000A0BF05EF800E06DE20C49E4
:1036300008703CE0114890ED000AF1EE080AB4EE83
:10364000E00AF1EE10FA1BD803480078401E024948
:10365000087024E0880000200A0000207400002088
:1036600070000020780000200F000020840000205F
:10367000040000205C040020600400209000002072
:10368000FE4890ED000ADFEDFE0AB4EEE00AF1EE2E
:1036900010FA04DDFB480078401CFA49087001204C
:1036A0000BF058FB0122002104200AF0E2FEF6484C
:1036B00090ED000ADFEDF50AB4EEE00AF1EE10FA43
:1036C0000AD803210220F24A92ED000A0BF00BF80F
:1036D000F049087020E00DE002200BF03BFB0122D6
:1036E000002111200AF0C5FEE6480078C01CE5491B
:1036F000087011E002210120E74A92ED000A0AF069
:10370000F2FFE449087003210220E14A92ED000A29
:103710000AF0E9FFDF490870F8E163E1D6E06DE007
:10372000FFE7DE480078012855D1D44890ED000A23
:10373000DFEDD60AB4EEE00AF1EE10FA12D890ED01
:10374000000ADFEDCF0AB4EEE00AF1EE10FA09DD6F
:1037500003210120D04A92ED000A0AF0C4FFCD49AE
:10376000087016E0C54890ED000ADFEDC50AB4EE1A
:10377000E00AF1EE10FA04D8C2480078401EC149B0
:10378000087001200BF0E6FA0122002106200AF061
:1037900070FEBD4890ED000ADFEDBC0AB4EEE00A11
:1037A000F1EE10FA09D803210220B94A92ED000A7D
:1037B0000AF099FFB74908701FE002200BF0CAFA1F
:1037C0000122002111200AF054FEAE480078C01CEE
:1037D000AC49087011E003210120AF4A92ED000AC4
:1037E0000AF081FFAB49087003210220A84A92ED3C
:1037F000000A0AF078FFA749087087E1A748007817
:10380000012850D19D4890ED000AF1EE080AB4EE6F
:10381000E00AF1EE10FA09D8012108469E4A92ED1D
:10382000000A0AF060FF9B4908700CE001200BF0D1
:1038300091FA0122002102200AF01BFE9148007833
:10384000401C90490870904890ED000ADFED940A02
:10385000B4EEE00AF1EE10FA12D890ED000ADFEDB6
:103860008B0AB4EEE00AF1EE10FA09DD0421022021
:10387000874A92ED000A0AF036FF8649087024E074
:10388000814890ED000ADFED810AB4EEE00AF1EE26
:1038900010FA1AD802200BF05DFA7A480078C01EA0
:1038A0007849087011E0012108467B4A92ED000A30
:1038B0000AF019FF7749087004210220744A92ED3A
:1038C000000A0AF010FF734908701FE1734800787E
:1038D000012874D1694890ED000ADFED690AB4EE61
:1038E000E00AF1EE10FA12D890ED000AF1EE080AA3
:1038F000B4EEE00AF1EE10FA09DD02210120664A79
:1039000092ED000A0AF0EFFE6249087026E05B487B
:1039100090ED000AF1EE080AB4EEE00AF1EE10FABA
:1039200005D858480078401E564908700EE05348A4
:1039300090ED000ADFED520AB4EEE00AF1EE10FA63
:1039400004DD50480078401C4E49087001200BF0FF
:1039500001FA0122002104200AF08BFD4A4890ED73
:10396000000ADFED4F0AB4EEE00AF1EE10FA12D8C9
:1039700090ED000ADFED450AB4EEE00AF1EE10FA30
:1039800009DD04210220424A92ED000A0AF0ABFE52
:103990004049087025E03C4890ED000ADFED3B0A05
:1039A000B4EEE00AF1EE10FA1BD802200BF0D2F9C7
:1039B00034480078C01E3349087012E0FFE7022146
:1039C0000120354A92ED000A0AF08DFE3149087057
:1039D000042102202E4A92ED000A0AF084FE2D49AD
:1039E000087093E02D48007801287BD1234890EDA2
:1039F000000ADFED260AB4EEE00AF1EE10FA12D862
:103A000090ED000ADFED1E0AB4EEE00AF1EE10FAC6
:103A100009DD03210120204A92ED000A0AF063FE2D
:103A20001C49087016E0154890ED000ADFED140AF5
:103A3000B4EEE00AF1EE10FA04D812480078401E05
:103A40001049087001200BF085F9012200210620A1
:103A50000AF00FFD0C4890ED000ADFED120AB4EEFB
:103A6000E00AF1EE10FA29D890ED000ADFED070A1E
:103A7000B4EEE00AF1EE10FA20DD15E0900000202F
:103A8000000070420A000020880000200000164458
:103A90007800002070000020740000200F0000203B
:103AA00000803B450000FA4404210220FE4A92EDCA
:103AB000000A0AF018FEFD49087025E0FC4890ED68
:103AC000000A5FED0E0AB4EEE00AF1EE10FA1BD820
:103AD00002200BF03FF9F7480078C01EF549087046
:103AE00012E0FFE703210120F34A92ED000A0AF0F9
:103AF000FAFDEE49087004210220EB4A92ED000A1B
:103B00000AF0F1FDE949087000E000BFD3E4EB489A
:103B100000780228FAD1EA4800680DF0A3FDCDE94B
:103B200000019DED000B0EF0B3FC8DED040BE5489C
:103B300000680DF097FDCDE902019DED040B53ECFB
:103B4000102B9DED020B51EC100B0DF075FCCDE927
:103B500006019DED060B51EC100B0DF0C7FDDA4987
:103B60000860DA4800680DF07DFDCDE900019DEDAB
:103B7000000B0EF08DFC8DED040BD54800680DF0A8
:103B800071FDCDE902019DED040B53EC102B9DED71
:103B9000020B51EC100B0DF04FFCCDE906019DED31
:103BA000060B51EC100B0DF0A1FDC149086001207E
:103BB000C54991ED000AFCF7E5FDBF4880ED000A1C
:103BC0000220BB4991ED000AFCF7DCFDB64880ED10
:103BD000000AB848007806287ED2DFE800F0035DCE
:103BE000DCFDFCFBBB480078012842D1B64890EDD3
:103BF000000AF1EE080AB4EEE00AF1EE10FA09D874
:103C000001210846AC4A92ED000A0AF06CFDA74972
:103C100008700CE001200BF09DF801220021022029
:103C20000AF027FCA3480078401CA2490870A0486D
:103C300090ED000A5FED6B0AB4EEE00AF1EE10FAC7
:103C400009D803210220984A92ED000A0AF04BFDA0
:103C5000964908701FE002200BF07CF80122002139
:103C600011200AF006FC93480078C01C91490870A6
:103C700011E001210846904A92ED000A0AF033FD56
:103C80008A49087003210220874A92ED000A0AF04F
:103C90002AFD8649087077E28E480078012867D1AE
:103CA000894890ED000A5FED8A0AB4EEE00AF1EE71
:103CB00010FA14D890ED000AF1EE080AB4EEE00A0A
:103CC000F1EE10FA0BDD022101207B4A92ED000A91
:103CD0000AF009FD754900E055E2087026E07A48CF
:103CE00090ED000AF1EE080AB4EEE00AF1EE10FAE7
:103CF00005D870480078401E6E4908700EE0724882
:103D000090ED000A5FEDA20AB4EEE00AF1EE10FABF
:103D100004DD68480078401C6649087001200BF0FB
:103D200019F80122002104200AF0A3FB604890ED5D
:103D3000000A5FEDAA0AB4EEE00AF1EE10FA09D823
:103D400003210220584A92ED000A0AF0CCFC5749A0
:103D500008701FE002200AF0FDFF0122002111205F
:103D60000AF087FB53480078C01C5249087011E0E4
:103D700002210120504A92ED000A0AF0B4FC4B499E
:103D8000087003210220484A92ED000A0AF0ABFCB9
:103D900046490870F8E14F480078012859D14A484F
:103DA00090ED000A5FEDC70AB4EEE00AF1EE10FAFA
:103DB00016D890ED000A5FEDCE0AB4EEE00AF1EEFF
:103DC00010FA0DDD032101203B4A92ED000A0AF0B2
:103DD0008AFC02E05CE1CFE04EE03449087016E076
:103DE000394890ED000A5FEDDA0AB4EEE00AF1EE30
:103DF00010FA04D82F480078401E2E490870012080
:103E00000AF0A8FF0122002106200AF032FB284810
:103E100090ED000A5FEDE30AB4EEE00AF1EE10FA6D
:103E200009D803210220204A92ED000A0AF05BFC27
:103E30001E4908701FE002200AF08CFF01220021B9
:103E400011200AF016FB1B480078C01C19490870A5
:103E500011E003210120184A92ED000A0AF043FC08
:103E600012490870032102200F4A92ED000A0AF05D
:103E70003AFC0E49087087E116480078012868D19D
:103E8000114890ED000AF1EE080AB4EEE00AF1EEF6
:103E900010FA21D801210846074A92ED000A0AF0DB
:103EA00022FC0249087024E0780000207000002005
:103EB000880000200A000020740000200400002078
:103EC0005C040020A803002084000020600400207F
:103ED000AC0300200F00002001200AF03BFF01226C
:103EE000002102200AF0C5FAF9480078401CF84980
:103EF0000870F84890ED000ADFEDF70AB4EEE00A2A
:103F0000F1EE10FA12D890ED000ADFEDF40AB4EEEB
:103F1000E00AF1EE10FA09DD04210220F04A92EDE8
:103F2000000A0AF0E0FBEF49087024E0E94890ED50
:103F3000000ADFEDEA0AB4EEE00AF1EE10FA1AD850
:103F400002200AF007FFE2480078C01EE04908702E
:103F500011E001210846E44A92ED000A0AF0C3FB91
:103F6000E049087004210220DD4A92ED000A0AF0BF
:103F7000BAFBDC49087007E1DC480078012874D1FD
:103F8000DB4890ED000ADFEDDB0AB4EEE00AF1EE6B
:103F900010FA12D890ED000AF1EE080AB4EEE00A29
:103FA000F1EE10FA09DD02210120CF4A92ED000A5C
:103FB0000AF099FBCB49087026E0CD4890ED000A45
:103FC000F1EE080AB4EEE00AF1EE10FA05D8C048A6
:103FD0000078401EBE4908700EE0C54890ED000A0A
:103FE000DFEDC40AB4EEE00AF1EE10FA04DDB848E1
:103FF0000078401CB649087001200AF0ABFE01228F
:10400000002104200AF035FAB24890ED000ADFEDF5
:10401000B20AB4EEE00AF1EE10FA12D890ED000AFE
:10402000DFEDAE0AB4EEE00AF1EE10FA09DD04218C
:104030000220AB4A92ED000A0AF055FBA94908702C
:1040400025E0A44890ED000ADFEDA40AB4EEE00AF2
:10405000F1EE10FA1BD802200AF07CFE9C48007892
:10406000C01E9B49087012E0FFE7022101209E4A12
:1040700092ED000A0AF037FB9A49087004210220E9
:10408000974A92ED000A0AF02EFB964908707BE0F1
:1040900096480078012863D1954890ED000ADFED3D
:1040A0008F0AB4EEE00AF1EE10FA12D890ED000A91
:1040B000DFED900AB4EEE00AF1EE10FA09DD03211B
:1040C0000120894A92ED000A0AF00DFB854908702B
:1040D00016E0874890ED000ADFED860AB4EEE00AAC
:1040E000F1EE10FA04D87A480078401E784908703A
:1040F00001200AF02FFE0122002106200AF0B9F962
:10410000744890ED000ADFED740AB4EEE00AF1EEB7
:1041100010FA12D890ED000ADFED700AB4EEE00A52
:10412000F1EE10FA09DD042102206D4A92ED000A39
:104130000AF0D9FA6B49087024E0664890ED000A4D
:10414000DFED660AB4EEE00AF1EE10FA1AD80220AA
:104150000AF000FE5E480078C01E5D49087011E05C
:1041600003210120604A92ED000A0AF0BCFA5D4981
:104170000870042102205A4A92ED000A0AF0B3FAAC
:104180005849087000E000BF50E35B480078C8B3AE
:1041900059480078012804D0022834D003287DD162
:1041A00062E0564890ED000A514880ED000A012077
:1041B0004F4991ED000AFCF7E5FA4B4880ED000A03
:1041C0000A210120484A92ED000A0AF08CFA45497A
:1041D00008704B4890ED000A3E4880ED000A02202E
:1041E0003C4991ED000AFCF7CDFA3D4880ED000A0C
:1041F0000A2102203A4A92ED000A0AF074FA39497B
:10420000087088E088E03F4890ED000A384880ED6B
:10421000000A0120364991ED000AFCF7B3FA324852
:1042200080ED000A0A2101202F4A92ED000A0AF0CF
:104230005AFA2C490870344890ED000A254880ED60
:10424000000A0220234991ED000AFCF79BFA24485A
:1042500080ED000A0A210220214A92ED000A0AF0AC
:1042600042FA2049087056E0284890ED000A20489C
:1042700080ED000A01201E4991ED000AFCF782FA48
:10428000194880ED000A02210120174A92ED000A28
:104290000AF029FA134908701D4800E03AE090ED51
:1042A000000A0C4880ED000A02200A4991ED000A3C
:1042B000FCF768FA0A4880ED000A02210846084A1D
:1042C00092ED000A0AF00FFA0649087023E0000098
:1042D0000A000020880000200000FA440000164474
:1042E0007800002070000020740000200F000020E3
:1042F00084000020000070420B000020F803002022
:1043000000040020F4030020FC030020C803002068
:10431000CC03002000BF89E2FE48007868B1FE4867
:1043200000780228F7D10A210120FC4A92ED000A08
:104330000AF0D9F9FA49087078E2FA48007878B3B7
:10434000F9480078012802D0022853D129E0F74823
:1043500090ED000AF64880ED000A90ED000AF5485D
:1043600080ED000A0A210120F24A92ED000A0AF0CB
:10437000BAF9EB490870F04890ED000AEF4880ED7B
:10438000000A90ED000AEE4880ED000A0A210220A2
:10439000EB4A92ED000A0AF0A6F9E14908702AE01A
:1043A0002AE0E84890ED000AE14880ED000A90ED2F
:1043B000000AE04880ED000A0A210120DD4A92ED62
:1043C000000A0AF090F9D6490870DF4890ED000A1B
:1043D000DA4880ED000A90ED000AD94880ED000A25
:1043E0000A210220D64A92ED000A0AF07CF9CC4953
:1043F000087000E000BF19E2D448007800288AD095
:10440000D348008800F40040B0B3D24800780428B4
:104410004DD1D14800680690002801DB069801E0E4
:104420000698404214280CDBCB480068A0F5B47015
:104430000790002801DB079801E007984042142804
:1044400002DA02200AF09AFCC34800687838079024
:10445000002801DB079801E007984042142803DA9E
:1044600002200AF095FC13E0BB480068F038079082
:10447000002802DB079802E019E007984042142860
:1044800003DA02200AF08EFC02E002200AF04FFC60
:104490000A210120B04A92ED000AB8EE400A0AF063
:1044A00022F99F4908700520AA49087054E0A848DD
:1044B000008800F4804048B3A6480078042825DA34
:1044C000A6480078012847D10020A4490870A448D4
:1044D000007810B1012808D103E00120A04908703C
:1044E00004E000209E49087000E000BF00BF9C4827
:1044F0000078012803D102200AF05EFC02E00220CD
:104500000AF01FFC01200AF039FC25E090480088E1
:1045100000F4804000BB9148007801281CD10020A5
:104520008E4908708E48007810B1012808D103E048
:1045300001208B49087004E000208949087000E0E0
:1045400000BF00BF86480078012802D10AF00CFCA9
:1045500002E001200AF0F5FB7D48008800F40040ED
:1045600020B37C480078032820D100217D4805F045
:104570004BFC7D4800687D490988B0FBF1F201FBE6
:1045800012007B490860084600684FF4B471484344
:1045900076490988B0FBF1F0754908600846006863
:1045A0006D49086004206B4908703FE16848008845
:1045B00000F48040D8B36F4890ED000A5F4880ED6A
:1045C000000A0A2102205D4A92ED000A0AF08BF8E7
:1045D00053490870594890ED000AF2EE040AB4EE0F
:1045E000E00AF1EE10FA0AD25A480078012806D102
:1045F00002205849087000200BF072FD0FE04F4870
:1046000090ED000AF2EE040AB4EEE00AF1EE10FAC0
:1046100005DD50480078012801D14E4908704D4809
:104620000078022842D1454890ED000A00E04FE0B2
:10463000DFED510AB4EEE00AF1EE10FA31DD4F4839
:104640000078401C4D49087008460078012805D1C3
:104650003A4890ED000A4A4880ED000A4748007841
:1046600005281ED1354890ED000A4548D0ED000AD6
:1046700030EE600ABDEEC00A8DED070A07980028EB
:1046800001DB079801E00798404205280ADA01217A
:10469000002004F093FB00203849087003202D49C6
:1046A0000870C3E0002035490870BFE02948007851
:1046B00003280CD1214890ED000AF2EE040AB4EE72
:1046C000E00AF1EE10FA02D2022022490870ADE0B1
:1046D0001F48008800F48040D0B9264890ED000AB9
:1046E000164880ED000A0A210220144A92ED000AC1
:1046F00009F0F9FF0A490870104890ED000ADFED53
:104700001E0AB4EEE00AF1EE10FA76DD114839E047
:104710008CE000000E000020A4030020B003002065
:10472000700000200700002006000020B8030020D1
:104730008400002074000020BC03002088000020BA
:1047400078000020C0030020C403002009000020DE
:10475000B4040020100000206C000020CD040020D4
:1047600014000020000C0040B8040020BC0400200D
:1047700034000020A80300200000C8429800002058
:1047800094000020007870BBFA480078012806D118
:10479000F94890ED000AF94880ED000A27E0F54855
:1047A0000078052823D1F44890ED000AF348D0EDB5
:1047B000000A30EE600ABDEEC00A8DED070A0798C8
:1047C000002801DB079801E00798404205280BDA32
:1047D0000121002004F0F2FA0020E64908700120CF
:1047E000E749087003E008E00020E2490870E1486A
:1047F0000078401CDF49087018E0DF4890ED000A9F
:104800005FED230AB4EEE00AF1EE10FA0ED2DC48B6
:10481000007801280AD10020D949087000210846F3
:1048200004F0CCFA0021D74805F0EEFA02F008BCFB
:10483000D54890ED000AD54880ED000A90ED000AB9
:10484000F3EE0E0AB4EEE00AF1EE10FA05DD0122F5
:104850000321002009F00DFE04E000220321104690
:1048600009F007FECA480078E0BBCA480078C8BB18
:10487000C948007820B101281BD002284CD132E071
:10488000C64890ED000AC64880ED000A0120C449E0
:1048900091ED000AFBF776FFC24880ED000A0A217D
:1048A0000120C04A92ED000A09F01DFFBE490870C0
:1048B00033E0BE4890ED000AB94880ED000A0120BF
:1048C000B74991ED000AFBF75DFFB64880ED000A9D
:1048D0000A210120B34A92ED000A09F004FFB2490F
:1048E00008701AE08AE0B24890ED000AAC4880ED0A
:1048F000000A0120AA4991ED000AFBF743FFA948ED
:1049000080ED000A0A210120A64A92ED000A09F072
:10491000EAFEA549087000E000BF00BFA548007886
:1049200030B101281DD0022834D0032864D14AE0D8
:10493000A14890ED000A904880ED000A02208E49BF
:1049400091ED000AFBF71EFF964880ED000A012159
:104950000220944A92ED000A09F0C5FE92490870BF
:104960004BE0964890ED000A834880ED000A022053
:10497000814991ED000AFBF705FF8A4880ED000AA6
:1049800001210220874A92ED000A09F0ACFE864917
:10499000087032E08A4890ED000A774880ED000AFE
:1049A0000220754991ED000AFBF7ECFE7D4880ED91
:1049B000000A0A2102207B4A92ED000A09F093FEC8
:1049C0007949087019E07F4890ED000A6A4880ED47
:1049D000000A0220684991ED000AFBF7D3FE7148F6
:1049E00080ED000A0A2102206E4A92ED000A09F0C9
:1049F0007AFE6D49087000E000BF66E26548007805
:104A000098B37148007801280CD100206E490870D5
:104A10000A2102206D4A128800EE102AB8EE400AE0
:104A200009F061FE6348007830B101281ED00228E9
:104A300035D0032865D14BE0654890ED000A584811
:104A400080ED000A0120564991ED000AFBF79AFE1D
:104A5000544880ED000A0A210120524A92ED000AD2
:104A600009F041FE504908704CE04CE0594890ED87
:104A7000000A4B4880ED000A0120494991ED000AE7
:104A8000FBF780FE474880ED000A0A210120454AD5
:104A900092ED000A09F027FE4349087032E04E48C3
:104AA00090ED000A3E4880ED000A01203C4991ED5E
:104AB000000AFBF767FE3B4880ED000A0A2101204F
:104AC000384A92ED000A09F00EFE3749087019E0E5
:104AD000424890ED000A324880ED000A012030493A
:104AE00091ED000AFBF74EFE2E4880ED000A0A21E8
:104AF00001202C4A92ED000A09F0F5FD2A490870C0
:104B000000E000BFE1E1224800780028FAD03448F4
:104B10000078012812D1002031490870314800780E
:104B200010B1012808D103E001202E49087004E0EB
:104B300000202C49087000E000BF00BF2A48007820
:104B4000072872D2DFE800F00489D0EFEEEDEC0028
:104B50002448007810B1012853D147E000220321F6
:104B6000092009F086FC002211460B2009F081FC87
:104B700048E00000980000208800002094000020F9
:104B800010000020000C0040A80300208C00002032
:104B9000070000200E00002004000020D0030020A9
:104BA000840000207400002070000020D403002046
:104BB000D80300200B000020EC030020F0030020AD
:104BC000080400200404002064040020CA0400201B
:104BD000DC030020E0030020E4030020300000207C
:104BE000CD04002014000020090000200122032130
:104BF000092009F03EFC012200210B2009F039FCBC
:104C000000E000BF00BFFB48007820B101280DD0B4
:104C100002281FD114E00A210120F74A92ED000A70
:104C200009F061FDF549087015E04CE10A21012009
:104C3000F34A92ED000A09F056FDF04908700AE0C7
:104C40000A210120EF4A92ED000A09F04CFDEB49E0
:104C5000087000E000BF00BF36E1EB48007810B1FB
:104C6000012816D10AE0002203210A2009F001FCE4
:104C7000002211460B2009F0FCFB0BE0012203216E
:104C80000A2009F0F6FB012200210B2009F0F1FBBC
:104C900000E000BF00BFD748007820B101280CD049
:104CA00002281ED113E00A210120D34A92ED000A06
:104CB00009F019FDD149087014E00A210120D04AF9
:104CC00092ED000A09F00FFDCC4908700AE00A21B4
:104CD0000120CC4A92ED000A09F005FDC749087091
:104CE00000E000BF00BFEFE0C748007810B1012826
:104CF0001AD10AE0002201210B2009F0BAFB0022A0
:104D000011460B2009F0B5FB0FE0012211460B20E4
:104D100009F0AFFB012200210B2009F0AAFB04E0FF
:104D2000A8E07EE054E02AE000BF00BFB148007870
:104D300020B101280CD002281ED113E00A21012045
:104D4000AD4A92ED000A09F0CEFCAC49087014E0BF
:104D50000A210120AA4A92ED000A09F0C4FCA749E1
:104D600008700AE00A210120A64A92ED000A09F023
:104D7000BAFCA249087000E000BF00BFA4E09D4853
:104D8000007820B101280CD002281ED113E00A219E
:104D900001209E4A92ED000A09F0A5FC974908708F
:104DA00014E00A2101209A4A92ED000A09F09BFCC6
:104DB000924908700AE00A210120964A92ED000A01
:104DC00009F091FC8D49087000E000BF00BF7BE056
:104DD0008848007820B101280CD002281ED113E0A9
:104DE0000A2101208C4A92ED000A09F07CFC8349DB
:104DF000087014E00A210120884A92ED000A09F0A7
:104E000072FC7E4908700AE00A210120844A92ED72
:104E1000000A09F068FC7949087000E000BF00BF93
:104E200052E07448007820B101280CD002281ED12D
:104E300013E00A2101207B4A92ED000A09F053FC9D
:104E40006E49087014E00A210120774A92ED000AA9
:104E500009F049FC694908700AE00A210120734AF7
:104E600092ED000A09F03FFC6449087000E000BFC1
:104E700000BF29E05F48007820B101280CD002284B
:104E80001ED113E00A210120694A92ED000A09F0BF
:104E90002AFC5A49087014E00A210120654A92ED63
:104EA000000A09F020FC554908700AE00A21012097
:104EB000614A92ED000A09F016FC5049087000E0C2
:104EC00000BF00BF00E000BF00BFAFE4494800786A
:104ED000A8BB5A4890ED000A594880ED000A01200D
:104EE000574991ED000AFBF74DFC564880ED000A4A
:104EF0009FED550A554880ED000A55480078052871
:104F000076D2DFE800F0033FC7FBFA00012202215E
:104F10001A2009F0AEFA4F480078012819D14E48FE
:104F2000007968B94D48006841F63801884207D8D1
:104F30000120444991ED000A09F019FE1CE0D1E17D
:104F4000012009F007FF42480078401C40490870E2
:104F500012E04148007960B94048006841F63801E4
:104F6000884206D80120374991ED000A09F0FFFD7B
:104F700002E0012009F0F1FD01220021062009F0E4
:104F800078FA98E1002202211A2009F072FA3148D9
:104F90000078012864D130480079012811D12F48C8
:104FA000006841F6380188420BD82C480068B0F5FB
:104FB000117F06D30120234991ED000A09F0D7FDA6
:104FC00062E0012009F0C6FE23480079012805DAD5
:104FD0001F480078401E1E49087055E01E480079A1
:104FE000012851DD1A480078401C194908704BE02F
:104FF00060E135E004000020D003002070000020B4
:10500000D4030020D8030020140000203800002022
:105010003C00002040000020440000204800002008
:105020004C000020500000205400002058000020B8
:105030005C0000206000002064000020A804002024
:105040007C00002074000020000000008C00002084
:105050000A0000200F000020386C0020A40400206B
:10506000FC48007901280CD1FB48006841F6380162
:10507000884206D80120F94991ED000A09F077FD30
:1050800002E0012009F069FD01220021022009F05F
:10509000F0F910E1F248007801283AD1ED480079A2
:1050A00002281DD1EC48006841F63801884217D823
:1050B000E9480068B0F5117F12D30120E74991ED6E
:1050C000000A09F054FDE44890ED000AB8EE400AE9
:1050D000DFEDE40A80EE201AE34880ED001A38E0A4
:1050E000012009F037FEDB480079022807DADF48A3
:1050F0000078401EDD4908702BE093E02FE0D54892
:105100000079022825DDD9480078401CD74908706D
:105110001FE0D0480079022818D1CF48006841F636
:105120003801884212D80120CC4991ED000A09F0DB
:105130001EFDC94890ED000AB8EE400ADFEDC90A2D
:1051400080EE201AC84880ED001A02E0012009F024
:1051500004FD01220021042009F08BF9ABE0C048D6
:105160000078012838D1BB48007903281DD1BA48FE
:10517000006841F63801884217D8B7480068B0F592
:10518000117F12D30120B54991ED000A09F0EFFC1F
:10519000B14890ED000AB8EE400AF2EE040A80EE43
:1051A000201AB14880ED001A36E0012009F0D2FD46
:1051B000A8480079032805DAAC480078401EAB49BE
:1051C000087029E0A3480079032825DDA748007866
:1051D000401CA64908701FE09E480079032818D19A
:1051E0009D48006841F63801884212D801209B4949
:1051F00091ED000A09F0BBFC974890ED000AB8EE6B
:10520000400AF2EE040A80EE201A974880ED001A58
:1052100002E0012009F0A1FC01220021062009F092
:1052200028F948E08E480078012827D1894800797C
:10523000042818D188480068B0F5117F13D3864838
:105240000068B0F57A7F0ED80120844991ED000AFC
:1052500009F08DFC804890ED000AB8EE400A8248C3
:1052600080ED000A25E0012009F074FD79480079FD
:1052700004281EDA03207D4908701AE07548007979
:10528000042813D174480068B0F57A7F0ED8012045
:10529000724991ED000A09F06AFC6F4890ED000A2E
:1052A000B8EE400A704880ED000A02E0012009F0E3
:1052B00054FC00E000BF00BF6B4890ED000ADFED3A
:1052C0006C0AB4EEE00AF1EE10FA05DD01220321CA
:1052D000002009F0CEF8FCE300220321104609F07B
:1052E000C8F8F6E3634800780128F4D162480078F2
:1052F00088BB624890ED000A614880ED000A0120F9
:105300005F4991ED000AFBF73DFA544880ED000A31
:105310001FEDB30A544880ED000A5448007830B1BC
:1053200001283BD0022876D0032875D116E14C48DD
:105330000078012819D14748007968B946480068C3
:1053400041F63801884207D80120444991ED000A0E
:1053500009F00DFC1CE05FE1012009F0FBFC434873
:105360000078401C4149087012E03A48007960B961
:105370003948006841F63801884206D8012037498B
:1053800091ED000A09F0F3FB02E0012009F0E5FBD2
:1053900001220021022009F06CF826E13048007853
:1053A00001283AD12B48007901281DD12A480068EC
:1053B00041F63801884217D827480068B0F5117FB8
:1053C00012D30120254991ED000A09F0D0FB2248B3
:1053D00090ED000AB8EE400ADFED220A80EE201AB6
:1053E000214880ED001A50E0012009F0B3FC194873
:1053F0000079012805DA1D480078401E1B49087015
:1054000043E01448007901283FDD18480078401C2B
:105410001649087039E03EE0E6E00E4800790128C0
:1054200030D10D48006841F6380188422AD8012061
:105430000A4991ED000A09F09AFB074890ED000A2D
:10544000B8EE400ADFED070A80EE201A064880ED2C
:10545000001A1AE0386C0020A40400207400002018
:105460000F0000200000C8428C0000200A0000202D
:1054700000004842040000200B000020A804002087
:105480007C000020012009F068FB0122002104209B
:1054900008F0EFFFA9E0FE480078012838D1FD4868
:1054A000007902281DD1FC48006841F63801884285
:1054B00017D8F9480068B0F5117F12D30120F749D9
:1054C00091ED000A09F053FBF34890ED000AB8EEA5
:1054D000400AF2EE040A80EE201AF14880ED001A2C
:1054E00036E0012009F036FCEA480079022805DAA6
:1054F000EC480078401EEB49087029E0E548007947
:10550000022825DDE7480078401CE64908701FE0C6
:10551000E0480079022818D1DF48006841F63801D8
:10552000884212D80120DD4991ED000A09F01FFBE5
:10553000D94890ED000AB8EE400AF2EE040A80EE77
:10554000201AD74880ED001A02E0012009F005FB7F
:1055500001220021062008F08CFF46E0CC480078AC
:10556000012829D1CB480079032818D1CA480068FE
:10557000B0F57A7F13D8C8480068B0F5117F0ED314
:105580000120C64991ED000A09F0F1FAC24890EDF8
:10559000000AB8EE400AC24880ED000A23E001206C
:1055A00009F0D8FBBB48007903281CDABD48007815
:1055B000401EBC49087016E0B7480068B0F57A7F15
:1055C0000ED80120B54991ED000A09F0D0FAB24891
:1055D00090ED000AB8EE400AB14880ED000A02E002
:1055E000012009F0BAFA00E000BF00BFAC4890ED1E
:1055F000000AF3EE0E0AB4EEE00AF1EE10FA05DD51
:1056000001220321002008F034FF62E2002203217E
:10561000104608F02EFF5CE2A348007801287DD1F7
:10562000A24890ED000AA24880ED000A0120A0499E
:1056300091ED000AFBF7A6F8984880ED000A99481A
:10564000007806286BD2DFE800F00352E4FDFCFB93
:10565000002201211B2008F00CFF002201211A204A
:1056600008F007FF8A48007801281CD1904890ED87
:10567000000ADFED900AB4EEE00AF1EE10FA09D864
:1056800002210120854A92ED000A09F02CF88A498E
:10569000087026E0012009F05DFB82480078401C7C
:1056A000804908701DE0824800680BF0DBFF9FED29
:1056B000830B53EC102BCDE906019DED060B51EC4D
:1056C000100B0BF0E3FF09D802210120734A92ED81
:1056D000000A09F008F87849087002E0012009F092
:1056E0003CFA01220021042008F0C3FECFE300228F
:1056F00001211B2008F0BDFE002201211A2008F024
:10570000B8FE6348007801285FD1694800680BF053
:10571000A9FF9FED6C0B53EC102B01E0B8E3B5E350
:10572000CDE906019DED060B51EC100B0BF0AEFF21
:105730001AD85F4800680BF095FF9FED600B53ECA3
:10574000102BCDE906019DED060B51EC100B0BF073
:10575000B5FF09D203210120504A92ED000A08F05A
:10576000C2FF554908704EE0012009F0F3FA504895
:1057700000680BF077FF9FED510B53EC102BCDE938
:1057800006019DED060B51EC100B0BF07FFF05D8C9
:1057900044480078401E4349087034E0444800689B
:1057A0000BF060FF9FED470B53EC102BCDE906018A
:1057B0009DED060B51EC100B0BF080FF23D2394806
:1057C0000078401C374908701DE0394800680BF02C
:1057D00049FF9FED3C0B53EC102BCDE906019DEDED
:1057E000060B51EC100B0BF051FF09D803210120DF
:1057F0002A4A92ED000A08F076FF2F49087002E06D
:10580000012009F0AAF901220021062008F031FE4A
:105810003DE3012211461B2008F02BFE002201214E
:105820001A2008F026FE1D4890ED000ADFED270A39
:1058300080EE201A80ED001A15480078012802E059
:1058400050E283E1BFE072D11948D0ED000A9FED2C
:105850001F1A80EE810A8DED050A05980BF002FFF4
:105860009FED1B0B53EC102BCDE906019DED060BB4
:1058700051EC100B0BF00AFF3FD80D4800680BF0FD
:10588000F1FE9FED100B53EC102BCDE9060123E048
:105890000F000020386C0020A404002074000020B9
:1058A0008C0000200A0000200B000020A80400202B
:1058B0007C000020E1FAC742700000208FC2F5286A
:1058C0005CFF584033333333333F8F4000007A441A
:1058D000736891ED7CFF23409DED060B51EC100B9E
:1058E0000BF0ECFE09D201210846F94A92ED000ABC
:1058F00008F0F9FEF74908705FE0012009F02AFA84
:10590000F54800680BF0AEFE1FED120B53EC102BA8
:10591000CDE906019DED060B51EC100B0BF0B6FE28
:1059200006D8EE480078401EEC49087045E01EE0BD
:10593000E948D0ED000A1FED1B1A80EE810A8DEDBB
:10594000050A05980BF08EFE1FED1F0B53EC102B74
:10595000CDE906019DED060B51EC100B0BF0AEFEF0
:105960002BD2DE480078401CDC49087025E0DA487C
:10597000D0ED000A1FED2B1A80EE810A8DED050A8D
:1059800005980BF06FFE1FED2E0B53EC102BCDE99D
:1059900006019DED060B51EC100B0BF077FE09D8BC
:1059A00001210846CA4A92ED000A08F09CFEC94946
:1059B000087002E0012009F0D0F801220021022045
:1059C00008F057FD63E2012211461B2008F051FD4B
:1059D000002201211A2008F04CFDBD4890ED000A7C
:1059E0005FED460A80EE201A80ED001ABC48007870
:1059F00001287FD1B848D0ED000A1FED4C1A80EE87
:105A0000810A8DED050A05980BF02CFE1FED550B54
:105A100053EC102BCDE906019DED060B51EC100B5C
:105A20000BF034FE22D8AC48D0ED000A1FED591A15
:105A300080EE810A8DED050A05980BF013FE1FED2F
:105A40005C0B53EC102BCDE906019DED060B51ECE0
:105A5000100B0BF033FE09D2022101209C4A92ED7B
:105A6000000A08F040FE9B49087069E0012009F037
:105A700071F99948D0ED000A1FED6C1A80EE810A89
:105A80008DED050A05980BF0EDFD1FED6F0B53EC46
:105A9000102BCDE906019DED060B51EC100B0BF020
:105AA000F5FD05D88D480078401E8C49087047E008
:105AB0008948D0ED000A1FED7B1A80EE810A8DED3A
:105AC000050A05980BF0CEFD1FED840B53EC102B4F
:105AD00001E0F9E10EE0CDE906019DED060B51EC88
