:020000040800F2
:10000000E8780020C5A90008398F00083B8F000858
:100010003F8F0008438F0008478F00080000000052
:100020000000000000000000000000004B8F0008EE
:100030004D8F0008000000004F8F0008518F00080E
:10004000DBA90008DBA90008DBA90008DBA9000880
:10005000DBA90008DBA90008DBA90008DBA9000870
:1000600001920008DBA90008DBA90008DBA9000851
:10007000DBA90008DBA90008DBA90008DBA9000850
:10008000DBA90008DBA90008DBA90008DBA9000840
:10009000DBA90008DBA90008DBA900081992000809
:1000A000DBA90008DBA90008DBA90008DBA9000820
:1000B000D99000084D920008B9940008DBA9000807
:1000C000DBA90008DBA90008DBA90008DBA9000800
:1000D000DBA90008DB900008AB910008DBA9000851
:1000E000DBA90008DBA90008DBA90008519400087F
:1000F00093940008779400080000000000000000BE
:100100000000000000000000738F0008DBA9000859
:100110000000000000000000DBA90008DBA90008C7
:10012000DBA90008DBA90008538F0008DBA9000841
:10013000DBA9000823950008DBA90008DBA900085B
:10014000DBA9000800000000000000000000000023
:10015000000000000000000000000000000000009F
:100160000000000000000000DBA90008DBA9000877
:10017000DBA9000800000000DBA900080000000067
:1001800000000000DBA90008DFF80CD013F004FE2B
:10019000004800474D020008E878002010B509F03B
:1001A0008EFA10BD10B50024FFF7F8FF0FF076FEB1
:1001B0000DF086F90DF07EF912F0F4FC10F0E0FA83
:1001C00010F00DFB10F045FB0FF041FF12F0B5F8F9
:1001D0004FF4165012F079FB14200DF0AEF912F026
:1001E0000AFA044612F0CEF912F06FF912F0D6FBBB
:1001F00012F031FC10F0D7FF12F066FC4FF4AF6044
:1002000012F092FC12F0F6FB0FF0D4FF28490870B0
:100210000846007805280ED101202649087010F004
:10022000DEFA012010F014FF4FF4FA600DF085F9AA
:100230000020214908702148006820F470701F498F
:10024000086001211E480BF013FC10BDFFF7AAFF48
:100250002DE01C480078012816D1002019490870AB
:1002600019480088401C184908800846008841F257
:100270008831884203D0154800780B2804D10DF04E
:1002800089F900201049088011480078012803D01E
:1002900010480078012804D100200B49088000F0A4
:1002A0004BFB00F020F903F07EF80AF073FAD0E778
:1002B00060050020000000205C05002000040140D3
:1002C0000004004096050020020000205E0500208A
:1002D000590500205A050020F74890ED000AF7481C
:1002E00080ED000AF64890ED000AF64880ED000A1D
:1002F000F54890ED000AF54880ED000AF44890EDCD
:10030000000AF44880ED000AF348007898B99FEDA0
:10031000F30AE94880ED000A9FEDF00AE84880ED15
:10032000000A9FEDEE0AE84880ED000A9FEDEB0A17
:10033000E74880ED000A9FEDE90AE94880ED000AF0
:100340009FEDE60AE74880ED000A9FEDE40AE648E3
:1003500080ED000A9FEDE10AE44880ED000A9FED80
:10036000DF0AE34880ED000A704710B5E1480078E5
:10037000072817DC12F053FC0121DF480BF095F839
:100380000121DE480BF091F80121DD480BF070FBF4
:100390000121DC480BF06CFB01221021D9480BF045
:1003A00016FF22E0D348007808281EDBD1480078E9
:1003B0000F281AD012F03AFC0021CF480BF075F844
:1003C0000021CE480BF071F80021CD480BF050FB16
:1003D0000021CC480BF04CFB00221021C9480BF047
:1003E000F6FE1021C7480BF01AFF10BD10B5C1482A
:1003F0000078801F052871D2DFE800F0032529412D
:100400005200C148007820B1012806D002280CD142
:1004100007E0042011F0DDFE08E0032011F0D9FE12
:1004200004E0042011F0D5FE00E000BF00BFB74893
:100430000078032803DA012012F0ECF902E0002032
:1004400012F0E8F94BE0042011F0C3FE47E0AE489B
:10045000007810B101280FD103E0052011F0B9FE9A
:100460000BE0AB48007818B9042011F0B2FE02E0AE
:10047000042011F0AEFE00E000BF00BF2FE0A24854
:10048000007810B1012808D103E0092011F0A1FE85
:1004900004E00A2011F09DFE00E000BF00BF1EE056
:1004A0009948007830B1012808D002280AD00328E2
:1004B00010D10BE0072011F08CFE0CE00B2011F0A6
:1004C00088FE08E0132011F084FE04E0132011F0F0
:1004D00080FE00E000BF00BF01E0FFE700BF00BFFB
:1004E000FFF743FF10BD10B58A48007800286ED191
:1004F00080480078801F05286AD2DFE800F00315E5
:1005000027475E00632010F027FFBCEEC00A10EE04
:10051000100A81490870602010F01EFF7F4880EDAE
:10052000000A0EF0BDF87AE0632010F015FFBCEE73
:10053000C00A10EE100A78490870602010F00CFF15
:10054000764880ED000A0EF0ABF868E0704800785D
:1005500030B9602010F000FF704880ED000A14E010
:100560006B480078012806D1612010F0F5FE6B4839
:1005700080ED000A09E066480078022805D1622073
:1005800010F0EAFE664880ED000A48E05E48007818
:1005900010B101280ED106E0602010F0DDFE5F48AA
:1005A00080ED000A07E0602010F0D6FE5B4880ED89
:1005B000000A00E000BF00BF31E05348007840B1BE
:1005C00001280DD0022812D0032824D116E027E0FC
:1005D00024E0602010F0C0FE504880ED000A1BE0CF
:1005E000602010F0B9FE4D4880ED000A14E0602054
:1005F00010F0B2FE494880ED000A0DE0602010F0D6
:10060000ABFE9FED481ADFED480A40EE010A434871
:10061000C0ED000A00E000BF00BF00E000BF00BF67
:1006200010BD10B54148007810B101280CD105E08B
:10063000002202211D2010F05EF806E001220221B6
:100640001D2010F058F800E000BF00BF10BD10B52D
:100650003748007820B101280DD0022821D115E0BB
:10066000002211460A2010F046F8002201210A203B
:1006700010F041F816E0002211460A2010F03BF875
:10068000012211460A2010F036F80BE00122002169
:100690000A2010F030F8002201210A2010F02BF877
:1006A00000E000BF00BF10BD10B52248007810B1B7
:1006B00001284DD146E03FE040040020A00000208A
:1006C000F4040020A400002044040020A80000201E
:1006D000F8040020AC000020000000200000000012
:1006E00090000020880000208C000020780000206E
:1006F0007C0000205E050020006001400064014095
:10070000005C0140000C0040080000200E000020AA
:100710000F000020100000209D0000207005002028
:10072000740500206666E63F0000004209000020D4
:100730000A0000200C0000200022114609200FF0C2
:10074000DAFF06E00122002109200FF0D4FF00E0CB
:1007500000BF00BF10BD10B5FB48007801280AD1CA
:10076000012202211C200FF0C6FF002203211C20C1
:100770000FF0C1FF09E0002202211C200FF0BBFF97
:10078000012203211C200FF0B6FF10BDF0EE400A3D
:10079000012826D1ED49097821B1012903D0022988
:1007A0001DD10EE01CE0EA4991ED000AF4EEC00A0A
:1007B000F1EE10FA01DDC1ED000AE54991ED000A04
:1007C0007047E44991ED000AF4EEC00AF1EE10FA28
:1007D00001D2C1ED000ADF4991ED000AF0E700BF48
:1007E00028E0022826D1D949097821B1012903D06E
:1007F00002291DD10EE01CE0D74991ED000AF4EE6C
:10080000C00AF1EE10FA01DDC1ED000AD24991ED06
:10081000000AD5E7D14991ED000AF4EEC00AF1EEE5
:1008200010FA01D2C1ED000ACC4991ED000AC7E7E8
:1008300000BF00BFB0EE600AC2E7F0EE400A012838
:1008400005D1C74991ED000A30EEC00A7047022871
:1008500005D1C44991ED000A30EEC00AF6E700BFA9
:10086000F4E700B5B0EE401A0246B848007828B167
:100870001046B0EE410AFFF789FF00BDBA48007884
:1008800028B11046B0EE410AFFF7D7FFF5E7B0EE0A
:10089000410AF2E700B5F0EE401A03461846B0EE02
:1008A000610AFFF7DEFF9FEDB11AC0EE010AB0EE5C
:1008B000600A00BD10B5B0EE402A04462046B0EEF6
:1008C000420AFFF7E7FF9FEDA91AC0EE010AB0EE5A
:1008D000600A10BD10B5912300224121502010F074
:1008E000D9FC502010F00AFDA14908700846007894
:1008F000012820D1002008705121084610F0CAFCC0
:10090000512010F0FBFC9A49087008460078012835
:1009100011D1002008709748407800F0080028B1F5
:10092000012203211D200FF0E6FE04E00022032136
:100930001D200FF0E0FE10BD10B58F480078012893
:1009400056D1FFF7C9FC00208B49087011F015FD46
:1009500000208A4908707D490870894908708249D9
:100960000870884908708849087088490870884963
:10097000087088490870002404E000208649085562
:10098000601CC4B2102CF8DB84480078801F052856
:1009900026D2DFE800F0030B13191F0024207E4944
:1009A000887308200873802088721AE004207A492E
:1009B0008873112048730420C87212E0052076491C
:1009C0008873082008730CE0012073490870202008
:1009D000087306E02020704908730420887300E043
:1009E00000BF00BF0FF019FFFFF71BFEFFF7FEFC73
:1009F0006B480078012842F0D5846A4800780528C1
:100A000005D068480078012801D0FFF765FC002078
:100A10006349087011F0B1FC60480078801F052818
:100A200082F03484DFE810F00500C805100CA90F2F
:100A3000CF105D48007801282CD155480078012856
:100A400028D158480078032824D056480078052833
:100A500020D050480078E8B90020534908704C492C
:100A600008700FF0BCFE012211461D200FF043FE5E
:100A7000012202211C200FF03EFE0122032118203A
:100A80000FF039FE0122032115200FF034FE002063
:100A90004649087043480078062853D2DFE800F042
:100AA00003C1EEEDECEB4048007801284BD134480F
:100AB00000780028FAD1334800780028F6D133486E
:100AC00000780028F2D13348007800283BD11F4934
:100AD0000870254908702C4908702D4908700120BC
:100AE000194908700FF07BFE2448007820B10128D6
:100AF00006D002280CD107E001202049087008E048
:100B000002201E49087004E000201C49087000E023
:100B100000BF00BF1948007820B1012848D0022842
:100B200076D15AE0012211461D200FF0E4FD01228A
:100B3000032118200FF0DFFD0122032115200FF003
:100B4000DAFD66E0EEE36BE0130000200A0000200F
:100B50001C0000202000002024000020280000208D
:100B60002C000020300000200C00002000007A44FF
:100B70006B050020C87000205905002008000020E7
:100B80000B0000200D0000200E0000200F000020B0
:100B90001200002010000020B87000205E05002028
:100BA0005A050020600500205B0500203C04002061
:100BB000012200211C200FF09EFD002201211D209A
:100BC0000FF099FD0122032118200FF094FD01225E
:100BD000032115200FF08FFD1BE0012200211C20B6
:100BE0000FF089FD012200211D200FF084FD01225C
:100BF00011461D200FF07FFD0122032118200FF068
:100C00007AFD0122032115200FF075FD01E0FFE7B9
:100C100000BF00BFFFF71BFDFFF746FDFFF79BFD81
:100C200062E2FE480078012856D1FD48007800288D
:100C300052D1FC48007800284ED1FB4800780028AB
:100C40004AD1F6490870F9490870F9490870F9481D
:100C5000007820B1012806D0022810D107E0012039
:100C6000F44908700CE00220F249087008E0002006
:100C7000F049087004E0FCE31BE336E2DDE000BF6E
:100C800000BFFFF7E4FCFFF70FFDEA4800780128FA
:100C900058D1E948007800BBE84890ED000AE848E0
:100CA000D0ED000A30EE600AE64880ED000A90EDD3
:100CB000000AE54880ED000AE44890ED000AE448A7
:100CC000D0ED000A30EE600AE24880ED000A90EDB7
:100CD000000AE14880ED000A34E0D7480078012896
:100CE00016D1D74890ED000AD64880ED000A90ED65
:100CF000000AD54880ED000AD54890ED000AD54895
:100D000080ED000A90ED000AD34880ED000A19E05A
:100D1000C9480078022815D1C84890ED000AC94892
:100D200080ED000A90ED000AC74880ED000AC74830
:100D300090ED000AC74880ED000A90ED000AC64811
:100D400080ED000AB5480078012820D1B448007829
:100D5000E8B1B5480078D0B90020B0490870B3496F
:100D60000870B4480078012802D0022808D103E0B6
:100D70000220B049087004E00120AE49087000E08C
:100D800000BF00BFFFF763FCFFF78EFC54E0B348E1
:100D90000078012850D1A3480078E8BBB04800781B
:100DA000D0BBA3480078B8BB9F480078A0BB002008
:100DB000AA4908709D4908709E48007868B998480B
:100DC000007850B90120964908709A4908700122AC
:100DD000114609200FF08FFC0CE09148007848B1D3
:100DE00000208F49087093490870002201210920D2
:100DF0000FF081FCFFF72BFCFFF756FC88480078CA
:100E0000012819D1974890ED000A8E4880ED000A1C
:100E1000954890ED000A00E00EE08B4880ED000A56
:100E2000924890ED000A8B4880ED000A904890EDC2
:100E3000000A894880ED000ABBE38E48007801284B
:100E400018D18D480078062813D17B4800780128F6
:100E5000FAD18A490870002011F08FFA4FF47A70A5
:100E60000CF06BFB002011F088FA4FF47A700CF054
:100E700064FB39E169480078012864D1684800784A
:100E8000F0BB68480078D8BB67480078C0BB00203A
:100E900062490870674908706549087063480078BE
:100EA00010B1012808D103E001206049087004E076
:100EB00000205E49087000E000BF00BFFFF7F4FBB0
:100EC000FFF7C5FB594800780028D2D05A4800786F
:100ED000B8B96B4890ED000A6A48D0ED000A30EED0
:100EE000600A694880ED000A684890ED000A684889
:100EF000D0ED000A30EE600A664880ED000AF3E0AB
:100F000021E04D48007801280CD15E4890ED000AA0
:100F10005D4880ED000A5E4890ED000A5D4880ED76
:100F2000000AE1E04448007802280BD1544890EDD3
:100F3000000A554880ED000A544890ED000A5548D3
:100F400080ED000AD0E045480078012848D13448B7
:100F50000078002844D142480078002840D1344825
:100F60000078E8BB30480078D0BB00203B490870CF
:100F7000304908702D490870474908703849087091
:100F8000012046490870002045490870254800782E
:100F900010B1012808D103E001202249087004E0C3
:100FA00000202049087000E000BF00BF1D48007805
:100FB00010B1012878D114E0002203211B200FF08A
:100FC0009AFB0122032118200FF095FB0122032137
:100FD00015200FF090FB002132480AF049FD7CE01B
:100FE00082E00022022110460FF085FB0022022140
:100FF0000A200FF080FB012203211B200FF07BFB56
:101000000022032118200FF076FB00220321152077
:101010000FF071FB01200FF0D6FF46E05B050020CA
:101020000B0000200D000020100000200C0000200C
:10103000120000200A0000200800002040040020C8
:10104000F40400201C0000202000002044040020A4
:10105000F804002024000020280000205C05002067
:101060000F000020500400205804002054040020E9
:101070005C040020000000205E0500201500002018
:10108000A0000020A40000202C000020A8000020C8
:10109000AC000020300000200E00002013000020D3
:1010A000140000200020004016E002200FF08BFF0B
:1010B0000121FE480AF0DCFC0020FD4908800021E7
:1010C000084609F0AFFC1021FA480BF0A8F80121FE
:1010D000F9480AF0CDFC00E000BF00BFFFF7E4FADA
:1010E000FFF7B5FAFFF737FB63E2F4480078012811
:1010F00078D1F3480078D8BBF2480078C0BBF248FA
:101100000078A8BBF148007890BBF148007878BB24
:101110000020EA490870EF490870EF490870EF486D
:101120000078012812D10020EC4908705B210846A4
:1011300010F0B0F85B2010F0E1F8E94908700846BB
:101140000078012847D10020087044E0E548007885
:1011500006283ED2DFE800F0030D16202A340120D5
:10116000E049087011F04DF8012011F053FB31E017
:1011700038E00220DB49087011F043F8012011F03B
:1011800049FB27E00320D7490870002011F039F807
:10119000002011F03FFB1DE00420D249087001201F
:1011A00011F02FF8002011F035FB13E00520CD4998
:1011B0000870022011F025F8002011F02BFB09E047
:1011C0000020C849087011F01CF8012011F022FB22
:1011D00000E000BF00BFFFF7BEFAFFF765FAFFF7B8
:1011E00036FA65E0B5480078012834D1B748007870
:1011F000012830D1B648007868BB0020AF4908709C
:10120000B949087001200FF0E7FEB648007810B128
:10121000012808D103E00120B249087004E0002051
:10122000B049087000E000BF00BFAE48007810B1C0
:1012300001280ED106E0032102209FEDAC0A0FF039
:1012400094FB07E0042102209FEDA90A0FF08DFB1B
:1012500000E000BF2CE0A7480078012828D198487A
:10126000007828BB9A48007810BB0020A14908707C
:101270009A48007801281BD00120984908705A210B
:10128000084610F007F85A2010F038F89449087012
:1012900008460078012801D10020087001220221AF
:1012A0001C200FF028FA002203211C200FF023FA43
:1012B0007FE182480078012833D18148007880BBE3
:1012C0008048007868BB8248007850BB8A48007824
:1012D00038BB0020794908707E4908707E49087043
:1012E0008049087001207D4908700FF078FA76482F
:1012F000007830B1012808D002280AD0032812D182
:101300000BE00120704908700EE002206E49087061
:101310000AE003206C49087006E000206A49087062
:1013200002E062E044E100BF00BF6748007830B1EE
:1013300001280FD0022818D0032827D120E001224D
:10134000032118200FF0D7F90122032115200FF0F7
:10135000D2F91CE00122002113200FF0CCF9012268
:10136000002115200FF0C7F911E001220021132000
:101370000FF0C1F90122002114200FF0BCF906E0A2
:101380000122114616200FF0B6F900E000BF00BFA1
:101390005948007820B1012808D002281CD10BE060
:1013A000012211461D200FF0A6F916E001220021AE
:1013B0001C200FF0A0F910E0012200211C200FF0EA
:1013C0009AF9012200211D200FF095F90122114602
:1013D0001D200FF090F900E000BF00BFFFF737F9C4
:1013E000FFF762F9FFF7B7F942E0424800780128B9
:1013F0003ED133480078D8BB32480078C0BB324871
:101400000078A8BB3148007890BB3148007878BBA1
:101410000020384908702F4908702F490870314959
:101420000870294908700120284908702B49087064
:101430000FF0D5F90122022117200FF05CF90122EB
:1014400000211A200FF057F90122032115200FF077
:1014500052F901200FF0C0FD032102209FED230A65
:101460000FF083FAFFF720F9FFF7F1F8FFF773F9B0
:101470009FE0FFE721480078012848D12048007804
:10148000062843D11C48007801283FD102201D497D
:101490000870002010F071FF4FF47A700CF04DF8D6
:1014A000002010F06AFF4FF47A702DE00020004019
:1014B0007C050020000C0040005C01405B05002022
:1014C0000B0000200D0000200F0000201200002063
:1014D000100000200A0000200C0000201300002053
:1014E0006B0500200E0000203C0400200000164484
:1014F0000000FA445C0500200800002000000020E5
:101500005E050020150000200CF017F84FE0F748AA
:101510000078012826D10020F4490870F4480078AA
:1015200010B1012808D103E00120F149087004E05E
:101530000020EF49087000E000BF00BFEC480078D1
:1015400010B101280CD105E0002201211C200FF070
:10155000D2F806E0012211461C200FF0CCF800E082
:1015600000BF24E0E3480078012820D10020E149B1
:101570000870E148007810B1012808D103E001208B
:10158000DD49087004E00020DB49087000E000BF7E
:1015900000BFD948007810B1012806D102E010F050
:1015A00010FF03E010F014FF00E000BF00BF00E0F8
:1015B00000BF00BF01F06BBED048007806287CD287
:1015C000DFE800F003C1FCFBFAF9C8480078012805
:1015D00061D1CB480078D0BBCA480078B8BBC448BA
:1015E0000078A0BB0020C8490870C8490870C849E5
:1015F0000870C848007820B1012806D002280CD114
:1016000007E00120C349087008E00220C1490870C2
:1016100004E00020BF49087000E000BF00BFBD48E3
:10162000007820B1012813D002282CD120E000221C
:10163000012117200FF05FF8012200211A200FF07E
:101640005AF8012200211B200FF055F81CE022E07F
:10165000002211461A200FF04EF8002211461B20DE
:101660000FF049F80122002119200FF044F80BE097
:101670000022114619200FF03EF8012211461720D2
:101680000FF039F800E000BF00BFFEF7E0FFFFF702
:101690000BF8FFF760F895480078012852D1984878
:1016A000007888B39248007870BB9A48007828B1D7
:1016B000012807D002280DD108E0F0E30120954968
:1016C000087008E002209349087004E00020914966
:1016D000087000E000BF00BF8E48007820B10128EC
:1016E00013D002282CD120E00022012117200FF076
:1016F00002F8012200211A200EF0FDFF0122002134
:101700001B200EF0F8FF1CE01CE0002211461A20FE
:101710000EF0F1FF002211461B200EF0ECFF01221B
:10172000002119200EF0E7FF0BE0002211461920DE
:101730000EF0E1FF0122114617200EF0DCFF00E061
:1017400000BF00BF8BE369480078012837D16C489F
:101750000078A0BB6648007888BB00206349087009
:101760006A4908706848007820B1012806D002282C
:101770000CD107E001206449087008E002206249AA
:10178000087004E000206049087000E000BF00BF5E
:10179000FEF75DFFFEF788FF5B480078012870D1F7
:1017A0005848007880BB5B48007848B1012813D0C6
:1017B00002282AD11CE0F0E353E351E366E1D7E0CD
:1017C000554890ED000A554880ED000A90ED000A5A
:1017D000534880ED000A19E0524890ED000A4F4846
:1017E00080ED000A90ED000A4D4880ED000A0DE002
:1017F0004D4890ED000A494880ED000A90ED000A3E
:10180000474880ED000A01E03EE000BF00BF4748C6
:10181000007830B1012810D002281AD0032831D125
:1018200023E0434890ED000A424880ED000A90ED25
:10183000000A414880ED000A25E0404890ED000A8A
:101840003C4880ED000A90ED000A3B4880ED000A1C
:1018500019E03B4890ED000A364880ED000A90ED13
:10186000000A354880ED000A0DE0364890ED000A88
:10187000304880ED000A90ED000A2F4880ED000A04
:1018800001E074E000BF00E11E48007801286ED13D
:101890002648007830B1012810D002281AD0032839
:1018A00064D157E0284890ED000A1C4880ED000AFA
:1018B00090ED000A1A4880ED000A58E0234890EDA8
:1018C000000A164880ED000A90ED000A144880EDE9
:1018D000000A4CE01E4890ED000A104880ED000A16
:1018E00090ED000A0E4880ED000A40E05B05002004
:1018F000100000205C050020110000206005002081
:101900000B000020120000200A0000200C00002024
:101910000E00002008000020680400201C000020A9
:10192000200000206C040020700400200F00002024
:1019300084040020240000202800002088040020C7
:10194000A00400209C0400207404002078040020DF
:101950007C040020FE4890ED000AFE4880ED000A5D
:1019600090ED000AFC4880ED000A00E000BF8CE02A
:10197000FA480078012839D1F9480078B0BBF94815
:10198000007898BB0020F5490870F7490870F749BE
:101990000870F74908700EF022FFF648007810B181
:1019A000012808D103E00120F249087004E000207A
:1019B000F049087000E000BF00BFEE48007810B1A9
:1019C00001285CD12BE0EC48007820B101280ED032
:1019D000022818D111E0012200211A200EF08BFEFE
:1019E000012200211B200EF086FE0DE04DE00122B9
:1019F000002119200EF07FFE06E00122114617207B
:101A00000EF079FE00E000BF00BF01220221162087
:101A10000EF071FE0021D9480AF02AF830E00122C8
:101A2000032109200EF067FE012200210B200EF099
:101A300062FED148007820B101280DD0022817D1CC
:101A400010E0012200211A200EF055FE0122002193
:101A50001B200EF050FE0CE00122002119200EF098
:101A60004AFE06E00122114617200EF044FE00E077
:101A700000BF00BF0121C14809F0FAFF00E000BF2C
:101A800000BFFEF711FEFEF766FEDBE3BC48007800
:101A9000012833D1B748007880BBB248007868BBD2
:101AA0000020B7490870AE490870AF48007810B1FF
:101AB000012808D103E00120AB49087004E00020B0
:101AC000A949087000E000BF00BFFEF7EDFDFEF77A
:101AD000BEFDA548007888B1AA48007880BBA6481A
:101AE000007820B101280AD0022816D10EE0A648BD
:101AF00090ED000AA54880ED000A0FE064E0A448DC
:101B000090ED000AA14880ED000A07E0A14890EDA1
:101B1000000A9E4880ED000A00E000BF00BF934825
:101B2000007830B101280CD0022811D003281DD133
:101B300015E0994890ED000A984880ED000A16E0FB
:101B400016E0974890ED000A944880ED000A0EE0F8
:101B5000944890ED000A914880ED000A07E0924811
:101B600090ED000A8D4880ED000A00E000BF2BE0F8
:101B700084480078012827D17C48007830B10128BA
:101B80000BD0022810D003281CD114E0874890ED18
:101B9000000A7E4880ED000A15E0854890ED000AB5
:101BA0007A4880ED000A0EE0824890ED000A7748FE
:101BB00080ED000A07E0664890ED000A734880ED6A
:101BC000000A00E000BF00BF6D48007801283CD14A
:101BD00068480078012838D162480078A8BB64487A
:101BE0000078072878D2DFE800F0041A31787C808A
:101BF000840001205E490870634890ED000A6E4839
:101C000080ED000A624890ED000A6C4880ED000A01
:101C1000604890ED000A6A4880ED000A6EE00220FC
:101C200053490870584890ED000A664880ED000A54
:101C3000574890ED000A644880ED000A554890ED41
:101C4000000A624880ED000A58E0F4E003204849A9
:101C500008704D4890ED000A5D4880ED000A4C4840
:101C600090ED000A5B4880ED000A4A4890ED000ABA
:101C7000594880ED000A504890ED000A5148D0EDD7
:101C8000000A30EE200A5248D0ED000A30EE200A59
:101C9000524880ED000A494890ED000A4A48D0EDCC
:101CA000000A30EE200A4B48D0ED000A30EE200A40
:101CB0004B4880ED000A424890ED000A4348D0EDC1
:101CC000000A30EE200A4448D0ED000A30EE200A27
:101CD000444880ED000A11E00FE004202449087018
:101CE0000CE005202249087008E006202049087011
:101CF00004E003201E49087000E000BF00BF1C483C
:101D00000078072870D2DFE800F004050B11788313
:101D10008E008FE00022032109200EF0ECFC89E008
:101D2000002203210A200EF0E6FC83E000220221BB
:101D300009200EF0E0FC002201210B200EF0DBFC5C
:101D40000122032109200EF0D6FC012200214CE0E3
:101D5000800400201C000020200000205C050020E2
:101D60000A000020100000200C0000200F000020BE
:101D70000D0000200B000020080000200020004083
:101D80005B05002012000020680400202C000020C9
:101D90006C04002070040020840400203000002027
:101DA00088040020A00400209C040020740400206B
:101DB000780400207C0400203C000020400000202B
:101DC00044000020480000204C000020500000206B
:101DD00054000020580000205C000020600000201B
:101DE000640000206800002023E00B200EF083FC3C
:101DF0000021F74809F03CFE1CE0002203210920E5
:101E00000EF079FC012203210A200EF074FC11E08F
:101E1000002203210A200EF06EFC012211460B2045
:101E20000EF069FC06E00122022109200EF063FC9D
:101E300000E000BF13E0E748007801280FD1E64832
:101E4000007860B9E548007848B90020E149087099
:101E500001200FF0AEF84FF47A700BF06EFBF1E159
:101E6000F0E1DF48007801286BD1DB48007878BBCF
:101E7000DC48007860BBD948007848BB0020D849CE
:101E80000870D948007830B1012809D002280BD059
:101E9000032811D10CE00120D34908700DE0D0E1F6
:101EA0000220D149087008E00320CF49087004E0FF
:101EB0000020CD49087000E000BF00BFCA4800788C
:101EC00038B1012815D0022819D0032837D12BE0CA
:101ED00037E00022114613200EF00DFC00221146BF
:101EE00014200EF008FC0122022116200EF003FC43
:101EF00026E00122032116200EF0FDFB20E0002247
:101F0000032116200EF0F7FB0022022116200EF00E
:101F1000F2FB0122002113200EF0EDFB0122002133
:101F200015200EF0E8FB0BE00022114615200EF004
:101F3000E2FB0122002114200EF0DDFB00E000BFD7
:101F400008E1A7480078012844D1A6480078012874
:101F500040D1A2480078E8BB0020A1490870A349FD
:101F60000870A3490870A048007830B1012808D053
:101F700002280AD0032811D10BE001209A490870E9
:101F80000DE002209849087009E003209649087086
:101F900005E000209449087001E0DCE000BF00BFCC
:101FA0009148007830B101281BD0022829D003289D
:101FB00056D140E00122002108200EF09CFB0122B6
:101FC000002119200EF097FB0122002118200EF0AD
:101FD00092FB00E04DE00022032117200EF08BFB66
:101FE0003FE0012200211A200EF085FB0122002192
:101FF0001B200EF080FB0022114619200EF07BFB07
:102000002FE00122022118200EF075FB012211465B
:1020100017200EF070FB0022114608200EF06BFB1B
:10202000002211461A200EF066FB002211461B20EA
:102030000EF061FB15E00122032117200EF05BFB7F
:102040000022022118200EF056FB00220121172049
:102050000EF051FB0022114618200EF04CFB00E060
:1020600000BF00BFFEF7F3FAFEF71EFBFEF773FB9F
:1020700070E05848007801286CD15748007880BB40
:102080005648007868BB00205249087059490870CA
:1020900056490870564908705749087052490870E7
:1020A000564908809FED560A564880ED000A9FED7C
:1020B000540A554880ED000A9FED510A534880EDBF
:1020C000000A0EF08CFB4748007810B1012809D1B6
:1020D00003E001204349087005E0002041490870F1
:1020E00001E037E000BF00BF3E48007810B1012892
:1020F00028D113E0012200211A200EF0FCFA01225F
:1021000000211B200EF0F7FA0122022116200EF00A
:10211000F2FA00213E4809F0ABFC14E00122002154
:1021200008200EF0E8FA0122002119200EF0E3FA4F
:102130000122002118200EF0DEFA0121344809F0B6
:1021400097FC00E000BF00BFFEF781FAFEF7ACFA93
:10215000FEF701FB76E022480078012826D1002016
:102160001F4908701D48007810B1012808D103E00C
:1021700001201A49087004E000201849087000E0A6
:1021800000BF00BF1548007810B101280CD105E050
:10219000002201211C200EF0AEFA06E001221146B9
:1021A0001C200EF0A8FA00E000BF49E009480078C2
:1021B000012845D10020074908701648007810B161
:1021C00001282DD128E001201249087029E00000E3
:1021D000002000405C0500200B00002010000020C3
:1021E0005B050020120000200F0000200A000020E4
:1021F0000C000020080000200E00002092050020A6
:102200000000000074040020780400207C040020FA
:1022100000180040110000200020F949087000E07B
:1022200000BF00BFF648007810B1012806D102E0D7
:1022300010F0C7F803E010F0CBF800E000BF00BFDB
:1022400000E000BF00BF97E3EE480078062870D298
:10225000DFE800F0034F96F2F1F0EB480078012838
:1022600046D1EA48007878BBE948007860BB002096
:10227000E8490870E8490870E84908700120E84911
:1022800008700EF0ACFAE748007810B1012808D1C8
:1022900003E00120E349087004E00020E1490870F0
:1022A00000E000BF00BFDF48007810B1012817D15F
:1022B0000BE0012200211C200EF01DFA0122032157
:1022C00018200EF018FA0CE012E0012211461D2031
:1022D0000EF011FA0122032118200EF00CFA00E092
:1022E00000BF00BFFEF7B3F9FEF7DEF9FEF733FAE1
:1022F00041E3C5480078012841D1C548007890BB2A
:102300000020C1490870C4490870C248007820B153
:10231000012806D002280DD107E00120BD49087030
:1023200009E00220BB49087005E00020B9490870A7
:1023300001E01FE300BF00BFFEF789F9FEF7B4F923
:10234000B448007801281AD1B048007802280BD090
:10235000B54890ED000AB54880ED000A90ED000AFE
:10236000B34880ED000A0AE0B24890ED000AB24896
:1023700080ED000A90ED000AB04880ED000AFAE214
:10238000AF480078012843D1A448007804281ED122
:10239000AC48A249097800EB810090ED000AAA48F8
:1023A000D0ED000A80EE801AA64814389B490978BF
:1023B00000EB810090ED000A31EE000AA1481438CC
:1023C0009649097800EB810080ED000A1DE09D48E8
:1023D0009249097800EB810090ED000A9A48D0ED0F
:1023E000000A80EE801A974814388C49097800EB6F
:1023F000810090ED000A31EE000A924814388749B6
:10240000097800EB810080ED000A0DF0EBFB7BE02A
:102410007D480078012877D17D480078E8BB00200E
:10242000794908707B4908707B48007828B10128F9
:102430000BD106E013E2BFE167E0012076490870A6
:1024400004E000207449087000E000BF00BFFEF700
:102450002BF9FEF7FCF870480078F0B16B48007873
:10246000E0BB70480078C8B9764814386B490978E1
:1024700000EB810090ED000A6B48D0ED000A30EED1
:10248000C00A70486549097800EB8100D0ED000A68
:1024900020EE200A6D4880ED000A35E061480078A2
:1024A000012831D1674814385C490978491C00EB90
:1024B000810090ED000A5C48D0ED000A30EEC00AC1
:1024C000604856490978491C00EB8100D0ED000AAC
:1024D00020EE200A5D4880ED000A15E0FFE74B483A
:1024E0000078012806D1504890ED000A574880ED49
:1024F000000A09E045480078022805D14A4890EDD5
:10250000000A534880ED000A35E23F480078012870
:1025100038D13E480078A8BB3D48007890BB0020E9
:10252000394908703B4908703B4908703D480078BC
:1025300010B1012863D141E039480078012812D157
:102540000020374908705B2108460EF0A3FE5B208F
:102550000EF0D4FE3F4908700846007801282CD1BF
:102560000020087029E02D480078052823D2DFE8F4
:1025700000F0030A10161C000120284908700FF013
:1025800040FE19E08DE00220244908700FF039FE6A
:1025900012E00320214908700FF033FE0CE0042004
:1025A0001E4908700FF02DFE06E000201B49087040
:1025B0000FF027FE00E000BF00BF6AE01848007877
:1025C000012812D10020164908705B2108460EF040
:1025D00061FE5B200EF092FE1E49087008460078EE
:1025E000012854D10020087051E00C48007898B3BD
:1025F000012838D002283CD0032846D13FE047E0EC
:1026000011000020600500205B0500200F00002065
:10261000100000200A0000200C0000200E00002006
:102620001300002008000020700500201C0000207E
:102630002000002074050020240000202800002035
:102640000000002054700020B40000202C00002066
:10265000300000206B050020FFE70120F6490870DC
:102660000FF0CFFD12E00220F34908700FF0C9FD12
:102670000CE00320F04908700FF0C3FD06E00020D5
:10268000ED4908700FF0BDFD00E000BF00BF00E0A5
:1026900000BF00BFFEF75FF8FEF706F8FDF7D7FFB3
:1026A00089E0E648007801285BD1E54800780128F8
:1026B00057D1E448007890BB0020E0490870E24917
:1026C0000870E2490870E2480078012812D1002021
:1026D000DF4908705B2108460EF0DCFD5B200EF040
:1026E0000DFEDC49087008460078012832D1002030
:1026F00008702FE0D0480078062829D2DFE800F0E3
:10270000030910161C220120CB4908700FF079FD37
:102710001FE00220C84908700FF073FD19E020E0A7
:102720000320C54908700FF06CFD12E00420C24977
:1027300008700FF066FD0CE00520BF4908700FF02F
:1027400060FD06E00020BC4908700FF05AFD00E073
:1027500000BF00BFFDF7FFFFFDF7A6FFFDF777FF06
:1027600029E0BD480078012825D1B648007810BB83
:102770000020B9490870B648007801281BD0012014
:10278000B34908705A2108460EF084FD5A200EF015
:10279000B5FDB049087008460078012801D1002035
:1027A0000870012202211C200DF0A5FF0022032148
:1027B0001C200DF0A0FFDEE0A048007801284DD1DC
:1027C000A6480078012849D19E48007888BB00209F
:1027D0009D4908709D490870974908700DF0FFFFEA
:1027E0009748007820B1012806D002280CD107E0D4
:1027F00001209349087008E002209149087004E024
:1028000000208F49087000E000BF00BF8C480078AE
:1028100028B90122032118200DF06DFF13E088482C
:102820000078012806D10122114618200DF063FF1F
:1028300009E013E082480078022804D10122114601
:1028400014200DF058FF012211461D200DF053FFFA
:10285000FDF7FDFEFDF728FFFDF77DFF8BE08048CB
:102860000078012835D174480078042817D17D48B4
:102870007149097800EB810090ED000ADFED7A0ADA
:1028800020EE200A7948D0ED000A80EE201A754823
:102890006949097800EB810080ED001A16E0714863
:1028A0006549097800EB810090ED000ADFED700AC0
:1028B00020EE200A6D48D0ED000A80EE201A69480B
:1028C0005D49097800EB810080ED001A0DF08AF96E
:1028D0004FE05A480078012826D100205749087057
:1028E0005848007810B1012808D103E0012055496B
:1028F000087004E000205349087000E000BF00BFEA
:102900005048007810B101280CD105E000220121C7
:102910001C200DF0F0FE06E0012211461C200DF0F7
:10292000EAFE00E000BF24E04B480078012820D1F7
:102930000020494908704F48007810B1012808D19B
:1029400003E001204B49087004E000204949087069
:1029500000E000BF00BF4748007810B1012806D151
:1029600002E00FF02EFD03E00FF032FD00E000BFAB
:1029700000BF00E000BF00BFF3E33F480078062837
:102980007CD2DFE800F00345A0CACBCC2B4800780E
:1029900001283CD12B48007890BB00202A490870C0
:1029A0002A4908700DF01BFF2C48007810B101284F
:1029B00008D103E001202949087004E000202749DC
:1029C000087000E000BF00BF2448007810B1012863
:1029D00017D10AE00122002108460DF08CFE0122E9
:1029E000114619200DF087FE0CE00122114600204F
:1029F0000DF081FE0122032118200DF07CFE01E084
:102A000005E000BF00BFFDF722FEFDF74DFED8E058
:102A10000A480078012855D10A48007878BB002080
:102A200006490870094908700748007840B3012832
:102A30002BD0022831D12CE00E0000205B050020B5
:102A40000F000020100000200A0000200C000020D1
:102A5000130000206B0500205C050020080000200A
:102A6000000000205470002000007A44B4000020D0
:102A700000409C451100002060050020A0E021E0FE
:102A8000FFE70120FE49087008E00220FC490870B9
:102A900004E00020FA49087000E000BF00BFFDF725
:102AA000D6FDFDF701FEF648007801280AD1F54869
:102AB00090ED000AF44880ED000A90ED000AF3481A
:102AC00080ED000A7DE0F2480078012824D1F14829
:102AD000007808BB0020EE490870E9490870EE480C
:102AE000007810B1012808D103E00120EA490870FC
:102AF00004E00020E849087000E000BF00BFFDF7D7
:102B0000D3FDFDF7A4FDE448007828B1DD4890ED41
:102B1000000AE24880ED000A53E052E051E0DC4850
:102B20000078012826D10020D9490870D9480078BA
:102B300010B1012808D103E00120D649087004E053
:102B40000020D449087000E000BF00BFD1480078E1
:102B500010B101280CD105E0002201211C200DF04C
:102B6000CAFD06E0012211461C200DF0C4FD00E064
:102B700000BF24E0CA480078012820D10020C849BD
:102B80000870C848007810B1012808D103E001207E
:102B9000C449087004E00020C249087000E000BF8A
:102BA00000BFC048007810B1012806D102E00FF044
:102BB00008FC03E00FF00CFC00E000BF00BF00E0E9
:102BC00000BF00BF63E3B8480078062878D2DFE88A
:102BD00000F003639AF2F1F0AD48007801285AD171
:102BE000AC48007888BB0020A5490870AA49087045
:102BF000AE4908700120AE4908700DF0F0FDAD48F7
:102C0000007830B1012808D002280AD0032810D15A
:102C10000BE00120A74908700CE00220A5490870CC
:102C200008E00320A349087004E00020A1490870CF
:102C300000E000BF00BF9F48007838B1012810D0E5
:102C4000022814D003281ED117E024E001221146E7
:102C500019200DF050FD012202211C200DF04BFD2A
:102C600012E00122032119200DF045FD0CE00122A4
:102C7000114615200DF03FFD06E00122002116202F
:102C80000DF039FD00E000BF00BFFDF7E0FCFDF7EF
:102C90000BFDFDF760FDF7E27D480078012831D19A
:102CA0007C48007870BB0020794908707A49087028
:102CB0007348007828B1012807D002280DD108E018
:102CC000E1E201206E49087008E002206C490870BA
:102CD00004E000206A49087000E000BF00BFFDF773
:102CE000B6FCFDF7E1FC6648007801280AD165488A
:102CF00090ED000A644880ED000A90ED000A6348F8
:102D000080ED000AC0E26C48007801287DD1694856
:102D1000007810B1012876D120E06848634909782D
:102D200000EB810090ED000A6548D0ED000A80EECE
:102D3000801A624818385D49097800EB810090EDEF
:102D4000000A31EE000A5D4818385849097800EB4E
:102D5000810080ED000A0CF045FF55E053480078F3
:102D6000012806D0032814D0052825D0062845D1EF
:102D700032E0544890ED560A5348D0ED000A80EEF8
:102D8000801A504890ED520A31EE000A80ED520A46
:102D900035E04C4890ED570A4B48D0ED000A80EEE4
:102DA000801A484890ED530A31EE000A80ED530A2C
:102DB00025E06FE16DE152E0424890ED580A42484B
:102DC000D0ED000A80EE801A3E4890ED540A31EEB4
:102DD000000A80ED540A12E03A4890ED560A3A484B
:102DE000D0ED000A80EE801A364890ED550A31EE9B
:102DF000000A80ED550A02E007E004E000BF00BFD2
:102E00000CF0F0FE00E000BF28E021480078012827
:102E100024D12048007808BB00201D4908701849BB
:102E200008701D48007810B1012808D103E0012086
:102E30001949087004E000201749087000E000BF3D
:102E400000BFFDF731FCFDF702FC1348007828B104
:102E50000C4890ED000A114880ED000A14E20C487D
:102E60000078012832D10B48007878BB002008494F
:102E7000087003490870084908700E48007826E079
:102E80000A000020700500201C0000202000002007
:102E90005B050020100000200C0000202C0000200A
:102EA0005C05002011000020600500200E000020BD
:102EB0001300002008000020000000208070002087
:102EC000B8000020506F0020BC000020B6E030B1F8
:102ED00001284BD0022871D0032870D1A4E0F64815
:102EE0000078012812D10020F34908705B210846C0
:102EF0000EF0D0F95B200EF001FAF0490870084698
:102F00000078012831D1002008702EE0EC480078CC
:102F1000062828D2DFE800F003090F151B21012045
:102F2000E74908700FF06DF91EE00220E4490870CF
:102F30000FF067F918E00320E14908700FF061F91C
:102F400012E00420DE4908700FF05BF90CE0052068
:102F5000DB4908700FF055F906E00020D8490870E9
:102F60000FF04FF900E000BF00BF5FE0D2480078EB
:102F7000012812D10020D04908705B2108460EF0CC
:102F800089F95B200EF0BAF9CC4908700846007840
:102F9000012847D10020087044E0C948007808287B
:102FA0003ED2DFE800F0040D141B22293037012047
:102FB000C349087000200FF024F932E033E034E018
:102FC0000220BF49087000200FF01BF929E0032000
:102FD000BB49087001200FF014F922E00420B84921
:102FE000087002200FF00DF91BE00520B4490870AD
:102FF00002200FF006F914E00620B1490870032002
:103000000FF0FFF80DE00720AD49087003200FF026
:10301000F8F806E00020AA4908700FF0F2F800E086
:1030200000BF00BF02E001E000E000BF00BFFDF70D
:1030300092FBFDF739FBFDF70AFB29E0A148007878
:10304000012825D1A048007810BB00209D490870B8
:103050009948007801281BD00120974908705A210F
:1030600008460EF017F95A200EF048F993490870F7
:1030700008460078012801D10020087001220221B1
:103080001C200DF038FB002203211C200DF033FB27
:10309000FAE0F9E08D48007801287DD18C4800786D
:1030A00030B101281ED0022877D0032876D196E0CF
:1030B00088488349097800EB810090ED000ADFED34
:1030C000860A20EE200A8548D0ED000A80EE201AFC
:1030D00080487B49097800EB810080ED001A0CF0F4
:1030E00081FD7EE076480078012806D003281ED0B6
:1030F000052837D006286CD151E0794890ED000AB8
:10310000F3EE0E0AB4EEE00AF1EE10FA0EDD7548A9
:1031100090ED560ADFED740A20EE200A7048D0EDDB
:10312000000A80EE201A6F4880ED561A52E06C4873
:1031300090ED000ADFED6D0AB4EEE00AF1EE10FA50
:103140000EDD684890ED570ADFED630A20EE200A95
:103150006348D0ED000A80EE201A624880ED571ACD
:1031600038E094E05E4890ED000ADFED610AB4EECD
:10317000E00AF1EE10FA0EDD5A4890ED580ADFED44
:103180005D0A20EE200A5648D0ED000A80EE201A93
:10319000544880ED581A1DE024E01FE020E050481C
:1031A00090ED000ADFED540AB4EEE00AF1EE10FAF9
:1031B0000EDD4C4890ED590ADFED500A20EE200A52
:1031C0004748D0ED000A80EE201A464880ED591A93
:1031D00000E000BF00BF0CF005FD02E001E000E0F0
:1031E00000BF4FE046480078012826D1002044491E
:1031F00008703548007810B1012808D103E001209B
:103200003149087004E000202F49087000E000BF39
:1032100000BF2D48007810B101280CD105E0002234
:1032200001211C200DF067FA06E0012211461C2046
:103230000DF061FA00E000BF24E022480078012888
:1032400020D100201F4908702E48007810B10128B5
:1032500008D103E001202B49087004E0002029492F
:10326000087000E000BF00BF2648007810B10128B8
:1032700006D102E00FF0A5F803E00FF0A9F800E096
:1032800000BF00BF00E000BF00BF00E000BF00BF04
:103290001D48007878B90B480078012851D10A48B8
:1032A000007840B90020074908701848007878B3C2
:1032B000012836D131E044E0130000206B050020E6
:1032C0000E0000205C0500201000002000000020FF
:1032D000080000208070002000409C45B8000020BD
:1032E000BC000020506F00200000484200803B4599
:1032F000007C92480024F448001B374A8096984A84
:103300005B0500201100002060050020090000205E
:10331000FFE70120FE49087004E00020FC49087026
:1033200000E000BF00BFFA48007810B1012806D1C4
:1033300002E00FF089FC03E00FF07FFC00E000BF2B
:1033400000BFFDF76EF9F348007898B9F2480078AD
:1033500001280FD1F148007860B90020EE490870CB
:10336000EF480078082802D1EE480078D0B9FDF780
:103370003DF817E0EA480078082813D1E5480078BE
:1033800004280FD1E448007801280BD1E6480078E2
:10339000012807D1E148007820B90020DE490870F3
:1033A000FDF724F810BD00B595B000200490DB486F
:1033B0000078002845F0A885FDF78CFAD8480078F9
:1033C000801F052885F09E85DFE810F00500A21219
:1033D000C3176622F922D54890ED000AD44880ED43
:1033E000000A90ED000AF3EE0E0AB4EEE00AF1EEE8
:1033F00010FA05DD0122032100200DF07CF904E024
:103400000022032110460DF076F9C6480078002806
:1034100041F0F885C74800780028F9D1C6480078FF
:103420000028F5D1C54800780028F1D1BE480078C1
:1034300000287BD1BD4890ED000AC148D0ED000ABC
:1034400030EE600ABF4880ED000ABF4890ED000AE8
:10345000BE48D0ED000A30EE600ABD4880ED000A9B
:103460000120B84991ED000AFDF7FBF9B94880ED5C
:10347000000A0220B64991ED000AFDF7F2F9B648BC
:1034800080ED000AB548007806287DD2DFE800F01C
:103490000398F7F6F5F4B2480078012847D1A94817
:1034A00090ED000AF1EE080AB4EEE00AF1EE10FA2F
:1034B00009D801210846A74A92ED000A0DF055FAF5
:1034C000A84908700CE001200DF086FD01220021C2
:1034D00002200DF010F9A1480078401C9F490870A7
:1034E0009B4890ED000ADFEDA00AB4EEE00AF1EE91
:1034F00010FA09D803210220974A92ED000A0DF034
:1035000034FA9849087024E002200DF065FD01228C
:10351000002111200DF0EFF890480078C01CC1B2D6
:103520008E48017000200FF075F912E0FEE30121D2
:103530000846884A92ED000A0DF017FA894908708A
:1035400003210220844A92ED000A0DF00EFA85490B
:10355000087086A1864810F055F87E48006810F083
:103560001EFACDE902019DED020B53EC102B81A157
:1035700005A810F081FC05A97D4810F029F87FA16D
:103580007B4810F025F800E0FEE37EA1784810F0BB
:103590001FF87148006810F002FACDE902019DEDB4
:1035A000020B53EC102B78A105A810F065FC05A9BF
:1035B0006F4810F00DF876A16D4810F009F8EFE3B0
:1035C0006748007801286CD15E4890ED000ADFED75
:1035D000720AB4EEE00AF1EE10FA12D890ED000A89
:1035E000F1EE080AB4EEE00AF1EE10FA09DD02216C
:1035F0000120584A92ED000A0DF0B7F959490870B8
:1036000026E0504890ED000AF1EE080AB4EEE00A18
:10361000F1EE10FA05D851480078401E4F49087065
:103620000EE0484890ED000ADFED5B0AB4EEE00AD8
:10363000F1EE10FA04DD49480078401C4749087053
:1036400001200DF0C9FC0122002104200DF053F8E7
:103650003F4890ED000ADFED440AB4EEE00AF1EED7
:1036600010FA0DD8032102203B4A92ED000A0DF01A
:103670007CF93C49087026E0D5E2F4E14FE1A4E092
:1036800002200DF0A9FC0122002111200DF033F8D9
:1036900032480078C01C3149087000200FF0BAF899
:1036A00011E0022101202B4A92ED000A0DF05DF994
:1036B0002C49087003210220274A92ED000A0DF0E0
:1036C00054F92849087029A129480FF09BFF214887
:1036D000006810F064F9CDE902019DED020B53EC96
:1036E000102B2EA105A810F0C7FB05A920480FF04C
:1036F0006FFF22A11E480FF06BFF22A11C480FF0A4
:1037000067FF1548006810F04AF9CDE9020149E069
:1037100009000020600500205B050020100000204B
:103720005E0500200F00002008000020400400205B
:1037300090000020120000200B0000200D0000204F
:10374000F40400208800002044040020F804002035
:103750008C000020780000207C0000200E0000205B
:103760001300002074000020000016444D200000CB
:10377000AC070020252E3366000000002041435690
:103780000D0A000053200000252E316600000000C5
:10379000204143410D0A000000007042252E326690
:1037A000000000009DED020B53EC102BAFF228013E
:1037B00005A810F061FB05A9FE480FF009FFAFF264
:1037C0003001FC480FF004FFEAE2FB4800780128D2
:1037D00058D1FA4890ED000A5FED1D0AB4EEE00AF8
:1037E000F1EE10FA12D890ED000A5FED150AB4EE72
:1037F000E00AF1EE10FA09DD03210120F04A92ED12
:10380000000A0DF0B2F8EF49087016E0EB4890EDB1
:10381000000A5FED1F0AB4EEE00AF1EE10FA04D8D8
:10382000E9480078401EE849087001200DF0D4FBFB
:103830000122002106200CF05EFFE44890ED000A12
:103840005FED370AB4EEE00AF1EE10FA09D8032171
:103850000220DF4A92ED000A0DF087F8D94908707E
:1038600022E002200DF0B8FB0122002111200CF013
:1038700042FFD5480078C01CD349087000200EF0E4
:10388000C9FF11E003210120CD4A92ED000A0DF09D
:103890006CF8CC49087003210220CD4A92ED000A51
:1038A0000DF063F8C7490870AFF24011C1480FF03E
:1038B000A9FEC348006810F072F8CDE902019DED41
:1038C000020B53EC102BAFF2401105A810F0D4FA04
:1038D00005A9B8480FF07CFEAFF26011B5480FF0B3
:1038E00077FEAFF26011B3480FF072FEB84800687F
:1038F00010F055F8CDE902019DED020B53EC102BB1
:10390000AFF27C1105A810F0B7FA05A9A9480FF08D
:103910005FFEAFF28411A7480FF05AFE40E2A648BE
:103920000078012853D1A54890ED000AF1EE080A6D
:10393000B4EEE00AF1EE10FA09D801210846A04AD7
:1039400092ED000A0DF011F89E4908700CE001207C
:103950000DF042FB0122002102200CF0CCFE9A481F
:103960000078401C98490870984890ED000ADFEDF7
:10397000990AB4EEE00AF1EE10FA12D890ED000ABE
:103980005FED870AB4EEE00AF1EE10FA09DD0421DA
:1039900002208F4A92ED000A0CF0E7FF8949087077
:1039A00027E08A4890ED000A5FED910AB4EEE00A44
:1039B000F1EE10FA1DD802200DF00EFB82480078BF
:1039C000C01E8149087001200EF024FF11E0012182
:1039D00008467B4A92ED000A0CF0C7FF794908704F
:1039E000042102207A4A92ED000A0CF0BEFF7549CC
:1039F0000870AFF288216F480FF004FE704800682D
:103A00000FF0CDFFCDE902019DED020B53EC102B21
:103A1000AFF2A02105A810F02FFA05A965480FF014
:103A2000D7FDAFF2A82163480FF0D2FDAFF2AC2171
:103A300060480FF0CDFD664800680FF0B0FFCDE99B
:103A400002019DED020B53EC102B63A105A810F0B1
:103A500013FA05A957480FF0BBFDAFF2CC2155482A
:103A60000FF0B6FD9CE154480078012877D1534807
:103A700090ED000A5FEDB80AB4EEE00AF1EE10FA3C
:103A800012D890ED000AF1EE080AB4EEE00AF1EE69
:103A900010FA09DD02210120494A92ED000A0CF0DA
:103AA00064FF4849087026E0444890ED000AF1EEB2
:103AB000080AB4EEE00AF1EE10FA05D842480078A0
:103AC000401E414908700EE03C4890ED000A5FED51
:103AD000CE0AB4EEE00AF1EE10FA04DD3A480078BE
:103AE000401C3949087001200DF076FA01220021AE
:103AF00004200CF000FE354890ED000ADFED350A99
:103B0000B4EEE00AF1EE10FA12D890ED000A5FED83
:103B1000EA0AB4EEE00AF1EE10FA09DD042102200F
:103B20002B4A92ED000A0CF020FF2649087028E08D
:103B3000264890ED000A5FEDF40AB4EEE00AF1EEDB
:103B400010FA1ED802200DF047FA1F480078C01E58
:103B50001D49087001200EF05DFE12E0FFE7022112
:103B60000120174A92ED000A0CF0FFFE154908707B
:103B700004210220164A92ED000A0CF0F6FE1149CB
:103B80000870AFF218410B480FF03CFD0C4800687C
:103B90000FF005FFCDE902019DED020B53EC102B58
:103BA000AFF2084105A810F067F905A901480FF028
:103BB0000FFD15E0AC070020130000208800002056
:103BC00078000020740000200E0000208C000020EF
:103BD0007C0000200000FA44252E30660000000022
:103BE000AFF26841FE480FF0F3FCAFF26841FC48C9
:103BF0000FF0EEFCFB4800680FF0D1FECDE90201AA
:103C00009DED020B53EC102BAFF2340105A810F020
:103C100033F905A9F2480FF0DBFCAFF28C41F04814
:103C20000FF0D6FCBCE0F0480078012866D1EF48E0
:103C300090ED000ADFEDEE0AB4EEE00AF1EE10FAC4
:103C400012D890ED000ADFEDEB0AB4EEE00AF1EED7
:103C500010FA09DD03210120E74A92ED000A0CF079
:103C600084FEE649087016E0E04890ED000ADFEDBA
:103C7000E10AB4EEE00AF1EE10FA04D8E048007868
:103C8000401EDF49087001200DF0A6F90122002135
:103C900006200CF030FDDB4890ED000A5FED330AA2
:103CA000B4EEE00AF1EE10FA12D890ED000ADFED62
:103CB000D00AB4EEE00AF1EE10FA09DD0421022088
:103CC000C84A92ED000A0CF050FECC49087027E07B
:103CD000CC4890ED000ADFEDC60AB4EEE00AF1EE42
:103CE00010FA1DD802200DF077F9C5480078C01EE3
:103CF000C349087001200EF08DFD11E00321012061
:103D0000BD4A92ED000A0CF030FEBC490870042157
:103D10000220B44A92ED000A0CF027FEB749087061
:103D2000AFF2B851AE480FF06DFC00E03AE0B24897
:103D300000680FF034FECDE902019DED020B53EC5B
:103D4000102BAFF2BC5105A810F096F805A9A448B5
:103D50000FF03EFCAFF2DC51A1480FF039FCAFF29E
:103D6000DC519F480FF034FC9E4800680FF017FEAE
:103D7000CDE902019DED020B53EC102BAFF2A8111F
:103D800005A810F079F800E009E005A994480FF0C3
:103D90001FFCAFF2046192480FF01AFC00E000BF74
:103DA00001F0B4BD98480078012873D1974890ED90
:103DB000000A8E4880ED000A954890ED000A91486F
:103DC00080ED000A0120894991ED000AFCF749FDC8
:103DD000894880ED000A02208A4991ED000AFCF72B
:103DE00040FD804880ED000A804800680FF0D7FD54
:103DF000CDE900019DED000B10F032FB8DED020BC3
:103E00009DED020B51EC100B0FF00CFE8149086088
:103E10007B48007806287CD2DFE800F0039BE0DFD7
:103E2000DEDD71480078012846D17A4890ED000A1D
:103E3000F1EE080AB4EEE00AF1EE10FA09D8012119
:103E400008466D4A92ED000A0CF08FFD6B49087030
:103E50000CE001200DF0C0F80122002102200CF03E
:103E60004AFC67480078401C65490870654890ED39
:103E7000000ADFED5F0AB4EEE00AF1EE10FA0AD8AC
:103E800003210220574A92ED000A0CF06EFD5B49B7
:103E9000087023E0FEE302200DF09EF801220021CD
:103EA00011200CF028FC56480078C01C54490870BA
:103EB00000200EF0AFFC11E0012108464E4A92EDC1
:103EC000000A0CF052FD4D49087003210220454ABA
:103ED00092ED000A0CF049FD48490870AFF2747188
:103EE0003F480FF08FFB444800680FF058FDCDE9C4
:103EF00002019DED020B53EC102BAFF2887105A867
:103F00000FF0BAFF05A936480FF062FB42A1344812
:103F100000E0E9E30FF05CFBAFF2987130480FF07E
:103F200057FB304800680FF03AFDCDE902019DEDE6
:103F3000020B53EC102BAFF2B07105A80FF09CFFF1
:103F400005A927480FF044FB35A125480FF040FB99
:103F5000CBE325480078012841D12E4890ED000A96
:103F6000DFED240AB4EEE00AF1EE10FA12D890ED7B
:103F7000000AF1EE080AB4EEE00AF1EE10FA09DDEB
:103F8000022101201C4A92ED000A0CF0EEFC1B49B4
:103F9000087050E01F4890ED000AF1EE080AB4EEF8
:103FA000E00AF1EE10FA05D815480078401E1449D1
:103FB00008700EE0174890ED000ADFED0E0AB4EE2F
:103FC000E00AF1EE10FA04DD0D480078401C0C49BF
:103FD0000870012028E0CDE2F0E149E19DE04FE0EA
:103FE000AC0700207C000020130000208800002087
:103FF0000000164400007042780000207400002089
:104000000E0000208C00002008000020F404002096
:10401000F804002094000020204443560D0A0000BC
:10402000204443410D0A00000CF0D6FF012200217C
:1040300004200CF060FBFA4890ED000A5FED140AD2
:10404000B4EEE00AF1EE10FA09D803210220F54A95
:1040500092ED000A0CF089FCF349087022E002207E
:104060000CF0BAFF0122002111200CF044FBEF48B4
:104070000078C01CED49087000200EF0CBFB11E069
:1040800002210120EA4A92ED000A0CF06EFCE6499A
:10409000087003210220E34A92ED000A0CF065FC4F
:1040A000E1490870AFF63C11E2480FF0ABFAE04886
:1040B00000680FF074FCCDE902019DED020B53EC9A
:1040C000102BAFF6281105A80FF0D6FE05A9D94888
:1040D0000FF07EFAAFF2C001D6480FF079FAAFF6D2
:1040E0005C11D4480FF074FACE4800680FF057FC0A
:1040F000CDE902019DED020B53EC102BAFF67811C8
:1041000005A80FF0B9FE05A9CA480FF061FAAFF291
:10411000F001C8480FF05CFAE7E2C74800780128D0
:1041200059D1C64890ED000A5FED4F0AB4EEE00A9F
:10413000F1EE10FA12D890ED000A5FED520AB4EEDB
:10414000E00AF1EE10FA09DD03210120B84A92EDF0
:10415000000A0CF00AFCB449087017E0B74890ED6B
:10416000000A5FED5C0AB4EEE00AF1EE10FA05D841
:10417000AE480078401EC1B2AC48017001200CF07E
:104180002BFF0122002106200CF0B5FAA44890ED87
:10419000000A5FED690AB4EEE00AF1EE10FA09D800
:1041A000032102209F4A92ED000A0CF0DEFB9E499B
:1041B000087022E002200CF00FFF012200211120E4
:1041C0000CF099FA99480078C01C984908700020B2
:1041D0000EF020FB11E003210120954A92ED000A28
:1041E0000CF0C3FB90490870032102208D4A92ED28
:1041F000000A0CF0BAFB8C490870AFF690218D488C
:104200000FF000FA8A4800680FF0C9FBCDE90201FF
:104210009DED020B53EC102BAFF6942105A80FF087
:104220002BFE05A983480FF0D3F9AFF21421814882
:104230000FF0CEF9AFF6B4217E480FF0C9F97948F6
:1042400000680FF0ACFBCDE902019DED020B53ECD1
:10425000102BAFF6CC2105A80FF00EFE05A975486E
:104260000FF0B6F9AFF2482172480FF0B1F93CE215
:1042700071480078012854D1704890ED000AF1EEA1
:10428000080AB4EEE00AF1EE10FA09D80121084656
:10429000674A92ED000A0CF068FB634908700DE074
:1042A00001200CF099FE0122002102200CF023FADB
:1042B0005E480078401CC1B25C480170584890EDDF
:1042C000000ADFED5F0AB4EEE00AF1EE10FA12D850
:1042D00090ED000A5FEDBA0AB4EEE00AF1EE10FAD2
:1042E00009DD042102204F4A92ED000A0CF03DFB4B
:1042F0004D49087027E04A4890ED000A5FEDC40A76
:10430000B4EEE00AF1EE10FA1DD802200CF064FEC3
:1043100046480078C01E4549087001200EF07AFA20
:1043200011E001210846424A92ED000A0CF01DFB03
:104330003D490870042102203A4A92ED000A0CF02F
:1043400014FB39490870AFF6DC313A480FF05AF9DE
:10435000374800680FF023FBCDE902019DED020B09
:1043600053EC102BAFF6F43105A80FF085FD05A92D
:1043700030480FF02DF9AFF260312E480FF028F9D8
:10438000AFF600412B480FF023F9264800680FF0E4
:1043900006FBCDE902019DED020B53EC102BAFF2B1
:1043A000C87105A80FF068FD05A922480FF010F9A3
:1043B000AFF294311F480FF00BF996E11E480078D8
:1043C000012873D11D4890ED000A5FEDF60AB4EEA6
:1043D000E00AF1EE10FA12D890ED000AF1EE080AA8
:1043E000B4EEE00AF1EE10FA09DD02210120104AD4
:1043F00092ED000A0CF0B9FA0B49087039E00F4849
:1044000090ED000AF1EE080AB4EEE00AF1EE10FABF
:1044100018D806480078401E0449087021E00000C2
:104420008C0000207C000020740000200E00002082
:1044300078000020AC07002013000020940000202A
:1044400000803B45FC4890ED000ADFEDFC0AB4EE2D
:10445000E00AF1EE10FA04DDF9480078401CF84952
:10446000087001200CF0B8FD0122002104200CF09E
:1044700042F9F44890ED000A5FED0F0AB4EEE00A4D
:10448000F1EE10FA13D890ED000ADFEDEF0AB4EE6A
:10449000E00AF1EE10FA0ADD04210220EB4A92ED67
:1044A000000A0CF062FAEA49087028E015E0E548D5
:1044B00090ED000ADFEDE40AB4EEE00AF1EE10FA46
:1044C0001DD802200CF088FDDD480078C01EDC49B4
:1044D000087001200EF09EF911E002210120DD4A52
:1044E00092ED000A0CF041FAD9490870042102202B
:1044F000D64A92ED000A0CF038FAD5490870AFF6AA
:104500009451D5480FF07EF8D24800680FF047FA72
:10451000CDE902019DED020B53EC102BAFF6845157
:1045200005A80FF0A9FC05A9CB480FF051F8AFF290
:104530001851C9480FF04CF8AFF6B851C6480FF003
:1045400047F8C24800680FF02AFACDE902019DED54
:10455000020B53EC102BAFF6801105A80FF08CFC6A
:1045600005A9BD480FF034F8AFF24C51BA480FF02E
:104570002FF8BAE0B9480078012866D1AE4890ED2E
:10458000000ADFEDB10AB4EEE00AF1EE10FA12D83B
:1045900090ED000ADFEDA90AB4EEE00AF1EE10FAA0
:1045A00009DD03210120AB4A92ED000A0CF0DDF990
:1045B000A749087016E0A04890ED000ADFED9F0AB9
:1045C000B4EEE00AF1EE10FA04D89D480078401EDF
:1045D0009B49087001200CF0FFFC012200210620FD
:1045E0000CF089F8974890ED000ADFED9D0AB4EED3
:1045F000E00AF1EE10FA12D890ED000ADFED920A0F
:10460000B4EEE00AF1EE10FA09DD042102208F4A2F
:1046100092ED000A0CF0A9F98D49087027E089484D
:1046200090ED000ADFED880AB4EEE00AF1EE10FA30
:104630001DD802200CF0D0FC81480078C01E8049B3
:10464000087001200EF0E6F811E003210120814AF4
:1046500092ED000A0CF089F97D49087004210220CE
:104660007A4A92ED000A0CF080F979490870AFF6A9
:10467000047179480EF0C6FF764800680FF08FF994
:10468000CDE902019DED020B53EC102BAFF6087142
:1046900005A800E02BE00FF0EFFB05A96E480EF037
:1046A00097FFAFF28C616C480EF092FFAFF62C7161
:1046B00069480EF08DFF654800680FF070F9CDE98C
:1046C00002019DED020B53EC102BAFF6F42105A86F
:1046D0000FF0D2FB05A960480EF07AFFAFF2C0617F
:1046E0005D480EF075FF00E000BF01F00FB95D48B6
:1046F00000780228F9D15C4890ED000A5B4880ED13
:10470000000A5B4890ED000A4E4880ED000A012047
:10471000564991ED000AFCF7A4F84E4880ED000AD6
:104720000220484991ED000AFCF79BF8474880EDCC
:10473000000A4348007806287DD2DFE800F003C075
:10474000F4F3F2F145480078012845D1474890ED4F
:10475000000AF1EE080AB4EEE00AF1EE10FA09D808
:10476000012108463B4A92ED000A0CF0FEF8384958
:1047700008700CE001200CF02FFC01220021022027
:104780000BF0B9FF2E480078401C2D4908702D48C9
:1047900090ED000ADFED2C0AB4EEE00AF1EE10FA1B
:1047A00009D803210220294A92ED000A0CF0DDF815
:1047B0002749087022E002200CF00EFC01220021A3
:1047C00011200BF098FF1E480078C01C1C4908708F
:1047D00000200EF01FF811E0012108461D4A92ED5D
:1047E000000A0CF0C2F81A49087003210220174A87
:1047F00092ED000A0CF0B9F8154908701DA1164891
:104800000EF000FF134800680FF0C9F8CDE902016F
:104810009DED020B53EC102B174905A80FF02CFB54
:1048200005A90D480EF0D4FE14A10B480EF0D0FEE1
:1048300015A109482AE0E3E394000020000070423B
:104840000E0000208C000020000016447C00002098
:104850007400002078000020AC0700201300002026
:104860000000FA44080000204004002088000020D6
:10487000440400204D200000743700082041432BE1
:104880004443560D0A000000532000000EF0A0FE25
:10489000FE4800680FF083F8CDE902019DED020BA0
:1048A00053EC102BFA4905A80FF0E6FA05A9F948D0
:1048B0000EF08EFEF8A1F7480EF08AFEA1E3F9484B
:1048C000007801286CD1F84890ED000A5FED250AC8
:1048D000B4EEE00AF1EE10FA12D890ED000AF1EE13
:1048E000080AB4EEE00AF1EE10FA09DD0221012017
:1048F000EE4A92ED000A0CF038F8ED4908702AE013
:10490000E94890ED000AF1EE080AB4EEE00AF1EE93
:1049100010FA09D8E7480078401EE649087012E00E
:10492000B6E2EDE12EE186E0DF4890ED000A5FEDB2
:104930003D0AB4EEE00AF1EE10FA04DDDD4800783D
:10494000401CDC49087001200CF046FB01220021CC
:1049500004200BF0D0FED84890ED000A5FED460A27
:10496000B4EEE00AF1EE10FA09D803210220C74A9A
:1049700092ED000A0BF0F9FFCD49087022E0022009
:104980000CF02AFB0122002111200BF0B4FEC948D3
:104990000078C01CC749087000200DF03BFF11E0F3
:1049A00002210120C14A92ED000A0BF0DEFFC0494E
:1049B000087003210220B54A92ED000A0BF0D5FFE2
:1049C000BB490870AFF25411B2480EF01BFEB74855
:1049D00000680EF0E4FFCDE902019DED020B53ECFF
:1049E000102BAB49143105A80FF046FA05A9A948C8
:1049F0000EF0EEFDAFF27C11A6480EF0E9FDAFF22D
:104A00007811A4480EF0E4FDA04800680EF0C7FF3E
:104A1000CDE902019DED020B53EC102B9C4905A83A
:104A20000FF02AFA05A99B480EF0D2FD9AA19948E9
:104A30000EF0CEFDE5E29B480078012858D19A4857
:104A400090ED000A5FED800AB4EEE00AF1EE10FA94
:104A500012D890ED000A5FED870AB4EEE00AF1EE9D
:104A600010FA09DD03210120904A92ED000A0BF0B3
:104A70007CFF8F49087016E08B4890ED000A5FEDCF
:104A8000910AB4EEE00AF1EE10FA04D889480078F1
:104A9000401E8849087001200CF09EFA0122002176
:104AA00006200BF028FE844890ED000A5FED9A0A7C
:104AB000B4EEE00AF1EE10FA09D803210220734A9D
:104AC00092ED000A0BF051FF7949087022E00220B4
:104AD0000CF082FA0122002111200BF00CFE754827
:104AE0000078C01C7349087000200DF093FE11E09F
:104AF000032101206D4A92ED000A0BF036FF6C494C
:104B0000087003210220614A92ED000A0BF02DFF8C
:104B100067490870AFF2A4215E480EF073FD634848
:104B200000680EF03CFFCDE902019DED020B53EC55
:104B3000102B574905A80FF09FF905A955480EF00D
:104B400047FDAFF2C82153480EF042FDAFF2C82135
:104B500050480EF03DFD4D4800680EF020FFCDE9B5
:104B600002019DED020B53EC102B494905A80FF0F3
:104B700083F905A947480EF02BFD47A145480EF0E3
:104B800027FD3EE247480078012853D1464890ED82
:104B9000000AF1EE080AB4EEE00AF1EE10FA09D8C4
:104BA00001210846414A92ED000A0BF0DEFE404921
:104BB00008700CE001200CF00FFA01220021022005
:104BC0000BF099FD3B480078401C3A4908703A4880
:104BD00090ED000A5FEDDE0AB4EEE00AF1EE10FAA5
:104BE00012D890ED000A5FEDE80AB4EEE00AF1EEAB
:104BF00010FA09DD04210220244A92ED000A0BF08C
:104C0000B4FE2B49087027E02B4890ED000A5FEDB9
:104C1000F20AB4EEE00AF1EE10FA1DD802200CF010
:104C2000DBF924480078C01E2249087001200DF0ED
:104C3000F1FD11E0012108461C4A92ED000A0BF03B
:104C400094FE1B49087004210220104A92ED000ACC
:104C50000BF08BFE16490870AFF2E8310D480EF0EC
:104C6000D1FC124800680EF09AFECDE902019DEDDC
:104C7000020B53EC102B0649143905A80FF0FCF871
:104C800005A904480EF0A4FC18E000007C000020F8
:104C900088370008AC0700202041432B4443410DD6
:104CA0000A00000013000020880000207800002087
:104CB000740000200E0000208C000020AFF2444160
:104CC000FE480EF085FCAFF24041FC480EF080FC3F
:104CD000FB4800680EF063FECDE902019DED020B7A
:104CE00053EC102BF74905A80FF0C6F805A9F348B7
:104CF0000EF06EFCAFF26001F0480EF069FC80E14E
:104D0000F1480078012878D1F04890ED000ADFEDF5
:104D1000F00AB4EEE00AF1EE10FA12D890ED000AB3
:104D2000F1EE080AB4EEE00AF1EE10FA09DD022114
:104D30000120E84A92ED000A0BF017FEE6490870E0
:104D400027E0E24890ED000AF1EE080AB4EEE00A2E
:104D5000F1EE10FA05D8E1480078401EDF490870EE
:104D60000FE0DA4890ED000ADFEDD90AB4EEE00A70
:104D7000F1EE10FA05DDD9480078401CC1B2D748E1
:104D8000017001200CF028F90122002104200BF011
:104D9000B2FCD34890ED000ADFEDD20AB4EEE00A8F
:104DA000F1EE10FA12D890ED000ADFEDCF0AB4EE62
:104DB000E00AF1EE10FA09DD04210220C04A92ED6A
:104DC000000A0BF0D2FDC449087028E0C44890EDF9
:104DD000000ADFEDC50AB4EEE00AF1EE10FA1ED8C3
:104DE00002200CF0F9F8BD480078C01EBB490870DD
:104DF00001200DF00FFD12E0FFE702210120B54A6E
:104E000092ED000A0BF0B1FDB349087004210220B5
:104E1000AB4A92ED000A0BF0A8FDAF490870AFF263
:104E2000AC51A6480EF0EEFBAA4800680EF0B7FDA4
:104E3000CDE902019DED020B53EC102BAB4905A807
:104E40000FF01AF805A99D480EF0C2FBAFF2D4513D
:104E50009A480EF0BDFBAFF2D05198480EF0B8FB67
:104E6000974800680EF09BFDCDE902019DED020B15
:104E700053EC102B934905A80EF0FEFF05A98F48AF
:104E80000EF0A6FBAFF2F0118C480EF0A1FBB8E0DB
:104E90008D480078012867D18C4890ED000ADFED3D
:104EA000920AB4EEE00AF1EE10FA12D890ED000A80
:104EB000DFED870AB4EEE00AF1EE10FA09DD032116
:104EC0000120844A92ED000A0BF04FFD82490870E0
:104ED00017E07E4890ED000ADFED7D0AB4EEE00AAF
:104EE000F1EE10FA05D87D480078401EC1B27B482B
:104EF000017001200CF070F80122002106200BF057
:104F0000FAFB774890ED000ADFED760AB4EEE00A8E
:104F1000F1EE10FA12D890ED000ADFED730AB4EE4C
:104F2000E00AF1EE10FA09DD04210220644A92ED54
:104F3000000A0BF01AFD6849087027E0684890EDF8
:104F4000000ADFED690AB4EEE00AF1EE10FA1DD8AE
:104F500002200CF041F861480078C01E5F490870DB
:104F600001200DF057FC11E003210120594A92ED78
:104F7000000A0BF0FAFC5849087004210220504A3C
:104F800092ED000A0BF0F1FC53490870AFF21C716E
:104F90004A480EF037FB4F4800680EF000FDCDE99F
:104FA00002019DED020B53EC102B5049143905A85A
:104FB0000EF062FF05A941480EF00AFBAFF2447102
:104FC0003E480EF005FBAFF240713C480EF000FB8E
:104FD0003B4800680EF0E3FCCDE902019DED020BB9
:104FE00053EC102B374905A80EF046FF05A93348AE
:104FF0000EF0EEFAAFF2603130480EF0E9FA00E060
:1050000000BF4DE23A48007800287DD0384800784B
:10501000012804D0022878D0032877D1F9E0354858
:1050200090ED000A294880ED000A0120274991ED02
:10503000000AFBF716FC274880ED000A0A21012030
:10504000244A92ED000A0BF090FC234908702A488C
:1050500090ED000A224880ED000A0220204991EDDF
:10506000000AFBF7FEFB164880ED000A0A21022029
:10507000134A92ED000A0BF078FC17490870AFF65E
:105080000C010E480EF0BEFA124800680EF087FCC4
:10509000CDE902019DED020B53EC102B1349283989
:1050A00005A80EF0E9FE05A904480EF091FA13A137
:1050B00002480EF08DFAAFF6300128E0AC07002070
:1050C0007C000020D83B000813000020880000204E
:1050D0000000704278000020740000200E000020C4
:1050E0008C0000200000FA44000016449C370008A1
:1050F0000F00002090040020980400202054484411
:1051000025665F560D0A0000ECE01AE0E8E0FD4875
:105110000EF05EFAFC4800680EF041FCCDE9020199
:105120009DED020B53EC102BF84905A80EF0A4FEE0
:1051300005A9F4480EF04CFAF5A1F2480EF048FA31
:10514000CFE0F64890ED000AF54880ED000A012016
:10515000F34991ED000AFBF784FBF24880ED000A69
:105160000A210120EF4A92ED000A0BF0FEFBEE4906
:105170000870EE4890ED000AED4880ED000A02202C
:10518000EB4991ED000AFBF76CFBDF4880ED000A6C
:105190000A210220DC4A92ED000A0BF0E6FBE2490C
:1051A0000870AFF63011D7480EF02CFADD480068D1
:1051B0000EF0F5FBCDE902019DED020B53EC102B37
:1051C000D24905A80EF058FE05A9CE480EF000FA07
:1051D000AFF2D801CB480EF0FBF9AFF65411C94835
:1051E0000EF0F6F9C84800680EF0D9FBCDE90201CF
:1051F0009DED020B53EC102BC44905A80EF03CFEAC
:1052000005A9C0480EF0E4F9C1A1BE480EF0E0F9CE
:1052100067E0C84890ED000AC14880ED000A01200F
:10522000BF4991ED000AFBF71CFBBE4880ED000A68
:1052300002210120BB4A92ED000A0BF096FBBA490D
:105240000870BD4890ED000AB94880ED000A0220C0
:10525000B74991ED000AFBF704FBAB4880ED000A6B
:1052600002210846A84A92ED000A0BF07EFBAE49E7
:105270000870AFF60021A3480EF0C4F9A9480068F1
:105280000EF08DFBCDE902019DED020B53EC102BCE
:105290009E4905A80EF0F0FD05A99A480EF098F970
:1052A000A6A198480EF094F9AFF6242195480EF087
:1052B0008FF9954800680EF072FBCDE902019DED73
:1052C000020B53EC102B914905A80EF0D5FD05A952
:1052D0008C480EF07DF99BA18A480EF079F900E028
:1052E00000BF13E39948007868B199480078022814
:1052F000F7D10A210120974A92ED000A0BF035FB05
:105300008949087002E394480078E0B39348007834
:10531000012802D002287CD160E0914890ED000A7B
:105320007F4880ED000A90ED000A7E4880ED000A7B
:105330000A2101207B4A92ED000A0BF016FB7A4904
:105340000870884890ED000A794880ED000A90EDD9
:10535000000A6D4880ED000A0A2102206A4A92ED97
:10536000000A0BF002FB70490870AFF6F82165489F
:105370000EF048F96B4800680EF011FBCDE9020110
:105380009DED020B00E08CE053EC102B5F4905A86B
:105390000EF072FD05A95B480EF01AF972A159488A
:1053A0000EF016F9AFF6203156480EF011F95648B6
:1053B00000680EF0F4FACDE902019DED020B53EC0A
:1053C000102B524905A80EF057FD05A94D480EF0C7
:1053D000FFF868A14B480EF0FBF861E0684890EDDB
:1053E000000A4F4880ED000A90ED000A4D4880ED1C
:1053F000000A0A2101204B4A92ED000A0BF0B5FA8F
:10540000494908705F4890ED000A494880ED000A5C
:1054100000E044E090ED000A3B4880ED000A0A21DC
:105420000220394A92ED000A0BF09FFA3E490870BB
:10543000AFF6C03133480EF0E5F83A4800680EF098
:10544000AEFACDE902019DED020B53EC102B2F4972
:1054500005A80EF011FD05A92A480EF0B9F84AA1D9
:1054600028480EF0B5F8AFF6E03126480EF0B0F857
:10547000254800680EF093FACDE902019DED020B7C
:1054800053EC102B214905A80EF0F6FC05A91D4888
:105490000EF09EF83FA11B480EF09AF800E000BF06
:1054A00034E23F4800780028FAD03E48008800F4F3
:1054B000004030B33C480078042822D13B480068C3
:1054C0000290002801DB029801E002984042142873
:1054D0000CDB36480068A0F5B4700390002801DBAF
:1054E000039801E003984042142802DA02200BF0EE
:1054F00087FD2E48006878380390002858DB039811
:1055000058E07FE0AC0700207C00002074370008E2
:105510002054484425665F410D0A00008C04002099
:1055200088000020780000207400002094040020EF
:105530008C00002060040020640400202043465FAB
:10554000560D0A002043465F410D0A00120000205C
:105550003C040020480400200B0000200A0000202A
:105560005004002054040020204D41585F560D0A7D
:1055700000000000204D41585F410D0A000000006E
:10558000580400205C040020204D494E5F560D0A4F
:1055900000000000204D494E5F410D0A0000000050
:1055A0000D0000207C050020140000207000002069
:1055B00003984042142803DA02200BF02BFD12E07E
:1055C000FE480068F0380390002801DB039801E0F2
:1055D00003984042142803DA02200BF025FD02E074
:1055E00002200BF0E6FC0A210120F44A92ED000AA9
:1055F000B8EE400A0BF0B9F9F14908700520F149FD
:10560000087054E0F048008800F4804048B3ED484A
:105610000078042825DAED480078012847D10020D9
:10562000EA490870EA48007810B1012808D103E07F
:105630000120E749087004E00020E549087000E017
:1056400000BF00BFE2480078012803D102200BF020
:10565000F5FC02E002200BF0B6FC01200BF0D0FCC0
:1056600025E0D948008800F4804000BBD748007886
:1056700001281CD10020D5490870D548007810B108
:10568000012808D103E00121D148017004E0002085
:10569000CF49087000E000BF00BFCD480078012866
:1056A00002D10BF0A3FC02E001200BF08CFCC648F9
:1056B000008800F4004010B3C248007803281ED1CF
:1056C0000021C44806F0D4F9C3480068C3490988DA
:1056D000B0FBF1F201FB1201C148016000684FF418
:1056E000B4714843BD490988B0FBF1F1BC48016081
:1056F0000068B24908600420B249087006E1B24867
:10570000008800F48040E0B3B64890ED000AB64847
:1057100080ED000A0A210220B34A92ED000A0BF044
:1057200024F9A7490870B04890ED000AF2EE040A87
:10573000B4EEE00AF1EE10FA0AD2A248007801288D
:1057400006D102209F49087000200CF016FE10E0E0
:10575000A54890ED000AF2EE040AB4EEE00AF1EE7C
:1057600010FA06DD97480078012802D101219548FA
:10577000017094480078022842D19B4890ED000ABD
:1057800000E04FE0DFED990AB4EEE00AF1EE10FA26
:1057900031DD97480078401C95490870084600782C
:1057A000012805D1904890ED000A924880ED000A4A
:1057B0008F48007805281ED18B4890ED000A8D484F
:1057C000D0ED000A30EE600ABDEEC00A8DED030A8E
:1057D0000398002801DB039801E003984042052864
:1057E0000ADA0121002005F01DF900208049087027
:1057F00003207449087089E000207D49087085E025
:105800007048007803280CD1774890ED000AF2EE3A
:10581000040AB4EEE00AF1EE10FA77D202206949E8
:10582000087073E06848008800F48040D8BB6D4879
:1058300090ED000A6C4880ED000A0A2102206A4AB5
:1058400092ED000A0BF091F85D490870664890ED02
:10585000000ADFED660AB4EEE00AF1EE10FA3CDD74
:105860005848007878BB62480078012806D15E4825
:1058700090ED000A5F4880ED000A28E05C4800785F
:10588000052824D1584890ED000A5A48D0ED000A66
:1058900030EE600ABDEEC00A8DED030A03980028C1
:1058A00002DB039802E031E00398404205280BDA5E
:1058B0000121002005F0B6F800204D4908700120B4
:1058C0004049087003E008E0002049490870484852
:1058D0000078401C4649087018E0434890ED000AE3
:1058E000DFED420AB4EEE00AF1EE10FA0ED23548CE
:1058F000007801280AD100203249087000210846AA
:1059000005F090F80021334806F0B2F803F0FBBA36
:10591000344890ED000A384880ED000A90ED000A06
:10592000F3EE0E0AB4EEE00AF1EE10FA05DD012204
:10593000032100200AF0DFFE04E0002203211046CC
:105940000AF0D9FE2D480078002869D12C4800784B
:105950000028FAD12B48007820B1012869D002280C
:105960007ED19CE0284890ED000A284880ED000A8E
:105970000120264991ED000AFAF773FF244880EDD3
:10598000000A0A210120224A92ED000A0AF0EDFFE6
:105990000B4908701FA120480DF034FE1C48006818
:1059A0000DF0FDFFCDE902019DED020B53EC102B34
:1059B0001A4905A80EF060FA05A932E0700000202F
:1059C00074000020140000207C05002095050020B4
:1059D00018000020000C00408005002084050020F5
:1059E00038000020400400208C0000200000C84245
:1059F0009C00002098000020900000200B00002058
:105A00001200002008000020680400208800002008
:105A1000780000204D200000AC07002074370008FB
:105A200051E1FE480DF0D4FDFDA1FC480DF0D0FD84
:105A30006AE0FD4890ED000AFC4880ED000A012074
:105A4000FA4991ED000AFAF70CFFF94880ED000AD7
:105A50000A210120F64A92ED000A0AF086FF00E0D2
:105A600051E0F4490870AFF25401EC480DF0CAFD62
:105A7000EF4800680DF093FFCDE902019DED020BA8
:105A800053EC102BEC4905A80EF0F6F905A9E348F4
:105A90000DF09EFDE9A1E1480DF09AFD34E0E948E2
:105AA00090ED000AE14880ED000A0120DF4991ED08
:105AB000000AFAF7D6FEDE4880ED000A0A2101202E
:105AC000DB4A92ED000A0AF050FFDA490870AFF2A3
:105AD000BC01D2480DF096FDD54800680DF05FFF7F
