:020000040800F2
:10000000D8760020CD9100083177000833770008BA
:10001000377700083B7700083F77000800000000B2
:10002000000000000000000000000000437700080E
:10003000457700080000000047770008497700086E
:10004000E7910008E7910008E7910008E7910008B0
:10005000E7910008E7910008E7910008E7910008A0
:10006000F9790008E7910008E7910008E791000896
:10007000E7910008E7910008E7910008E791000880
:10008000E7910008E7910008E7910008E791000870
:10009000E7910008E7910008E7910008117A00084D
:1000A000E7910008E7910008E7910008E791000850
:1000B000D1780008457A0008A77C0008E79100087D
:1000C000E7910008E7910008E7910008E791000830
:1000D000E7910008D3780008A3790008E7910008A9
:1000E000E7910008E7910008E7910008497C0008C3
:1000F0008B7C00086F7C00080000000000000000FE
:1001000000000000000000006B770008E791000885
:100110000000000000000000E7910008E7910008DF
:10012000E7910008E79100084B770008E791000885
:10013000E7910008137D0008E7910008E7910008A7
:10014000E79100080000000000000000000000002F
:10015000000000000000000000000000000000009F
:100160000000000000000000E7910008E79100088F
:10017000E791000800000000E7910008000000007F
:1001800000000000E7910008DFF80CD012F068F9D9
:100190000048004701020008D876002010B500246E
:1001A0000EF0F8F90BF094FD0BF08CFD0EF050FE04
:1001B0000EF07DFE0EF0B5FE0EF0B3FA10F025FC49
:1001C0004FF4E13010F0EDFE4FF4FA700BF0BDFD8E
:1001D00010F079FD044610F03BFD10F0DCFC0FF050
:1001E0004AFB10F035FF10F090FF11F035F810F0D9
:1001F000C5FF4FF4E16010F0F1FF10F055FF10BDA6
:10020000FFF7CCFF0EF040FB244908700846007849
:1002100005280DD10F2008700120214908700EF02B
:1002200046FE01200FF07CFA4FF4FA600BF08DFDD2
:100230001C48006820F470701A49086001211A48AF
:100240000AF01EF828E019480078012811D1002092
:100250001649087016480088401C15490880084651
:10026000008841F28831884203D10EF020FE0BF065
:1002700099FD10480078012803D00F480078012824
:1002800004D100200A49088000F037FB00F00CF987
:1002900002F0B9FF08F0AAFED5E7000034050020FF
:1002A0000000002000040140000400406A05002016
:1002B000020000202D0500202E050020FE4890EDB4
:1002C000000AFE4880ED000AFD4890ED000AFD4856
:1002D00080ED000AFC4890ED000AFC4880ED000A21
:1002E000FB4890ED000AFB4880ED000A9FEDFA0AFA
:1002F000F14880ED000A9FEDF80AF14880ED000A10
:100300009FEDF50AF04880ED000A9FEDF30AF048F2
:1003100080ED000A9FEDF00AF04880ED000A9FEDA5
:10032000EE0AEF4880ED000A9FEDEB0AED4880ED04
:10033000000A9FEDE90AEC4880ED000A9FEDE60A0D
:10034000EA4880ED000A704710B5E94800780728B0
:1003500010DC10F0B0FF10F0BCFF0121E54809F0FF
:10036000ACFC0121E44809F0A8FC0121E34809F0B4
:1003700087FF1BE0DE480078082817DBDC480078A0
:100380000F2813D010F09EFF10F0AAFF0021D948CB
:1003900009F093FC0021D84809F08FFC0021D748D0
:1003A00009F06EFF0021D64809F06AFF10BD10B5B4
:1003B000CF480078801F052871D2DFE800F00325C0
:1003C00029415200CF48007820B1012806D00228E8
:1003D0000CD107E0042010F064FA08E0032010F0CC
:1003E00060FA04E0042010F05CFA00E000BF00BFF7
:1003F000C5480078032803DA012010F073FD02E0FD
:10040000002010F06FFD4BE0042010F04AFA47E0A6
:10041000BC48007810B101280FD103E0052010F08E
:1004200040FA0BE0B948007818B9042010F039FA06
:1004300002E0122010F035FA00E000BF00BF2FE00C
:10044000B048007810B1012808D103E0092010F06D
:1004500028FA04E00A2010F024FA00E000BF00BFF0
:100460001EE0A848007830B1012808D002280AD040
:10047000032810D10BE0072010F013FA0CE00B203A
:1004800010F00FFA08E0132010F00BFA04E013202C
:1004900010F007FA00E000BF00BF01E0FFE700BF77
:1004A00000BFFFF751FF10BD10B599480078002834
:1004B00075D18F480078801F052871D2DFE800F0E1
:1004C000031527475E0063200FF0AEFABCEEC00AAA
:1004D00010EE100A8F49087060200FF0A5FA8E48C0
:1004E00080ED000A0CF05CFC7AE063200FF09CFACF
:1004F000BCEEC00A10EE100A8649087060200FF0AA
:1005000093FA854880ED000A0CF04AFC68E07F48C9
:10051000007830B960200FF087FA7F4880ED000A3C
:1005200014E07A480078012806D161200FF07CFAA7
:10053000794880ED000A09E074480078022805D166
:1005400062200FF071FA754880ED000A48E06D48AE
:10055000007810B101280ED106E060200FF064FA97
:100560006D4880ED000A07E060200FF05DFA6A48F0
:1005700080ED000A00E000BF00BF31E06148007874
:1005800030B101280DD0022812D0032824D116E062
:1005900060200FF049FA604880ED000A1DE020E07D
:1005A0001DE060200FF040FA5B4880ED000A14E087
:1005B00060200FF039FA584880ED000A0DE0602005
:1005C0000FF032FA9FED561ADFED560A40EE010A9F
:1005D0005148C0ED000A00E000BF00BF00E000BFCE
:1005E00000BF10BD10B55048007810B101280CD1E3
:1005F00005E0002202211D200EF0E5FB06E00122AD
:1006000002211D200EF0DFFB00E000BF00BF10BD87
:1006100010B54648007820B101280DD0022821D11C
:1006200015E0002211460A200EF0CDFB0022012128
:100630000A200EF0C8FB16E0002211460A200EF038
:10064000C2FB012211460A200EF0BDFB0BE0012285
:1006500000210A200EF0B7FB002201210A200EF033
:10066000B2FB00E000BF00BF10BD10B530480078FD
:1006700010B101280CD105E00022114609200EF02E
:10068000A2FB06E00122002109200EF09CFB00E005
:1006900000BF00BF10BD10B52648007801284BD11F
:1006A000012202211C200EF08EFB002203211C20BF
:1006B0000EF089FB4AE000003C040020A00000206E
:1006C000F0040020A400002040040020A800002026
:1006D000F4040020AC000020000000009000002086
:1006E000880000208C000020780000207C00002082
:1006F000320500200060014000640140005C0140C0
:10070000000C0040080000200E0000200F00002018
:10071000100000209D000020440500204805002016
:100720006666E63F00000042090000200A00002043
:100730000C00002013000020002202211C200EF0DB
:1007400042FB012203211C200EF03DFB10BDF0EE08
:10075000400A012826D1FE49097821B1012903D098
:1007600002291DD10EE01CE0FA4991ED000AF4EED9
:10077000C00AF1EE10FA01DDC1ED000AF54991ED74
:10078000000A7047F44991ED000AF4EEC00AF1EE58
:1007900010FA01D2C1ED000AEF4991ED000AF0E72D
:1007A00000BF28E0022826D1E949097821B10129B2
:1007B00003D002291DD10EE01CE0E84991ED000AAA
:1007C000F4EEC00AF1EE10FA01DDC1ED000AE349D2
:1007D00091ED000AD5E7E24991ED000AF4EEC00A76
:1007E000F1EE10FA01D2C1ED000ADD4991ED000AE7
:1007F000C7E700BF00BFB0EE600AC2E7F0EE400AF4
:10080000012805D1D74991ED000A30EEC00A7047A2
:10081000022805D1D44991ED000A30EEC00AF6E76E
:1008200000BFF4E700B5B0EE401A0246C8480078B1
:1008300028B11046B0EE410AFFF789FF00BDCB4852
:10084000007828B11046B0EE410AFFF7D7FFF5E770
:10085000B0EE410AF2E700B5F0EE401A0346184642
:10086000B0EE610AFFF7DEFF9FEDC11AC0EE010A8C
:10087000B0EE600A00BD10B5B0EE402A0446204636
:10088000B0EE420AFFF7E7FF9FEDB91AC0EE010A8A
:10089000B0EE600A10BD10B5922300224221502014
:1008A0000FF060F850200FF091F8B2490870084638
:1008B0000078012820D100200870512108460FF04F
:1008C00051F851200FF082F8AA49087008460078C4
:1008D000012811D100200870A748407800F00100DD
:1008E00028B1012203211D200EF06DFA04E0002240
:1008F00003211D200EF067FA10BD10B52DED088BF9
:100900009E480078012856D1FFF7D8FC00209B496B
:10091000087010F099F80020994908708C49087007
:10092000984908709149087097490870974908706C
:10093000974908709749087097490870002404E0A7
:10094000002096490855601CC4B2102CF8DB94486E
:100950000078801F052826D2DFE800F0030B13196A
:100960001F0024208D498873082008738020887216
:100970001AE0042089498873112048730420C87242
:1009800012E0052085498873082008730CE00120D7
:10099000824908702020087306E020207F490873F0
:1009A0000420887300E000BF00BF0EF09EFAFFF73E
:1009B00019FEFFF7FCFC7B480078012842F02084F8
:1009C000FFF77CFC00207749087010F03DF8744870
:1009D0000078801F052882F0B583DFE810F005005D
:1009E000D105EF0B200F1E106F48007801282CD185
:1009F00068480078012828D16C480078032824D062
:100A00006A480078052820D063480078E8B90020BB
:100A1000654908705F4908700EF049FA01221146D5
:100A20001D200EF0D0F9012202211C200EF0CBF97E
:100A30000122032118200EF0C6F9012203211520FE
:100A40000EF0C1F900205A4908705848007806286D
:100A50007BD2DFE800F003C2EFEEEDEC5248007805
:100A6000012873D1474800780028FAD14648007819
:100A70000028F6D1464800780028F2D14648007890
:100A80000028EED132490870384908703F49087093
:100A9000404908700120474908700EF008FA3848AC
:100AA000007820B1012806D002280CD107E00120EF
:100AB0003349087008E002203149087004E0002042
:100AC0002F49087000E000BF00BF2D48007820B11A
:100AD000012812D0022877D124E0012211461D20DE
:100AE0000EF071F90122032118200EF06CF9012299
:100AF000032115200EF067F967E0012200211C2078
:100B00000EF061F9002201211D200EF05CF9012296
:100B1000032118200EF057F90122032115200EF0B1
:100B200052F952E0012200211C200EF04CF9012262
:100B300000211D200EF047F9012211461D200EF064
:100B400042F901220321182036E0F3E344E03BE0C0
:100B50000A0000201C0000202000002024000020AB
:100B6000280000202C000020300000200C00002075
:100B700000007A443F050020B86E00202D050020BB
:100B8000080000200B0000200D0000200E000020B7
:100B90000F0000201200002010000020A86E00208E
:100BA000320500202E0500202F05002034050020EE
:100BB00038040020130000200EF005F90122032163
:100BC00015200EF000F900E000BF00BFFFF720FD88
:100BD000FFF74BFDFFF75FFD6FE2F9480078012852
:100BE00056D1F8480078002852D1F74800780028FC
:100BF0004ED1F648007800284AD1F1490870F449EE
:100C00000870F4490870F448007820B1012806D033
:100C1000022810D107E00120EF4908700CE0022003
:100C2000ED49087008E00020EB49087004E0FCE39F
:100C300028E343E2DDE000BF00BFFFF7E9FCFFF778
:100C400014FDE5480078012858D1E448007800BB3D
:100C5000E34890ED000AE348D0ED000A30EE600A68
:100C6000E14880ED000A90ED000AE04880ED000ABE
:100C7000DF4890ED000ADF48D0ED000A30EE600A50
:100C8000DD4880ED000A90ED000ADC4880ED000AA6
:100C900034E0D2480078012816D1D24890ED000AFD
:100CA000D14880ED000A90ED000AD04880ED000A9E
:100CB000D04890ED000AD04880ED000A90ED000A7F
:100CC000CE4880ED000A19E0C4480078022815D10A
:100CD000C34890ED000AC44880ED000A90ED000A78
:100CE000C24880ED000AC24890ED000AC24880ED7B
:100CF000000A90ED000AC14880ED000AB048007873
:100D0000012820D1AF480078E8B1B0480078D0B9C8
:100D10000020AB490870AE490870AF480078012840
:100D200002D0022808D103E00220AB49087004E099
:100D30000120A949087000E000BF00BFFFF768FC70
:100D4000FFF793FC54E0AE480078012850D19E484C
:100D50000078E8BBAB480078D0BB9E480078B8BBB1
:100D60009A480078A0BB0020A549087098490870EF
:100D70009948007868B99348007850B901209149A2
:100D80000870954908700122114609200EF01BF8E1
:100D90000CE08C48007848B100208A4908708E49E0
:100DA00008700022012109200EF00DF8FFF730FC39
:100DB000FFF75BFC83480078012819D1924890ED39
:100DC000000A894880ED000A904890ED000A00E092
:100DD0000EE0864880ED000A8D4890ED000A8648B6
:100DE00080ED000A8B4890ED000A844880ED000AEF
:100DF000C3E373480078012844D172480078002882
:100E000040D171480078E8BB70480078D0BB002022
:100E10006B490870704908706E4908706C4800781A
:100E200010B1012808D103E001206949087004E0ED
:100E300000206749087000E000BF00BFFFF715FC05
:100E4000FFF7E6FB62480078002846D06348007848
:100E5000F0BB7148006811F005F941EC1B0BB0EED6
:100E60004B0AF0EE6B0A11F06BFEB0EE409AF0EE1A
:100E7000609A6A48006811F0F5F841EC1A0B53ECDF
:100E8000192B00E04CE010F0D7FF41EC180B11F0EB
:100E90002DF9634908606348006811F0E3F841ECFC
:100EA0001B0BB0EE4B0AF0EE6B0A11F049FEB0EEF0
:100EB000409AF0EE609A5C48006811F0D3F841EC7B
:100EC0001A0B53EC192B10F0B7FF41EC180B00E094
:100ED00004E011F00BF955490860EEE03F48007856
:100EE00001280CD14C4890ED000A4D4880ED000AD5
:100EF0004C4890ED000A4D4880ED000ADDE037488F
:100F0000007802280BD1454890ED000A444880ED56
:100F1000000A454890ED000A444880ED000ACCE004
:100F200037480078012849D126480078002845D163
:100F300034480078002841D12648007800283DD167
:100F400022480078002839D12D49087022490870BC
:100F50001F490870364908702A4908700120354930
:100F600008700020344908701748007810B1012833
:100F700008D103E001201449087004E00020124960
:100F8000087000E000BF00BF0F48007810B10128D2
:100F90007ED155E0002203211B200DF014FF012219
:100FA000032118200DF00FFF0122032115200DF061
:100FB0000AFF0021214809F063F977E07DE0000095
:100FC0002F0500200B0000200D0000201000002045
:100FD0000C000020120000200A0000200800002061
:100FE0003C040020F00400201C0000202000002011
:100FF00040040020F40400202400002028000020E9
:10100000300500200F0000204C0400205404002074
:101010005004002058040020A4000020A00000205C
:101020002C000020AC000020A80000203000002090
:101030000E000020130000201400002000200040BB
:101040000022022110460DF0BEFE002202210A20DD
:101050000DF0B9FE012203211B200DF0B4FE002289
:10106000032118200DF0AFFE0022032115200DF002
:10107000AAFE01200EF00FFB02200EF00CFB012156
:10108000FE4809F0FDF80020FD490880002100E03D
:101090000BE0084608F0CEF81021FA4809F0C7FC2A
:1010A0000121F94809F0ECF800E000BF00BFFFF7AC
:1010B000DCFAFFF7ADFAFFF7EEFA5EE2F3480078EC
:1010C000012878D1F2480078D8BBF2480078C0BB3C
:1010D000F1480078A8BBF148007890BBF048007850
:1010E00078BB0020E9490870EE490870EE490870A5
:1010F000EE480078012812D10020EC4908705B21ED
:1011000008460EF02FFC5B200EF060FCE8490870EA
:1011100008460078012847D10020087044E0E548DF
:10112000007806283ED2DFE800F0030D16202A34AE
:101130000120E04908700FF0CCFB01200FF0D2FE37
:1011400031E038E00220DB4908700FF0C2FB0120DB
:101150000FF0C8FE27E00320D649087000200FF0EA
:10116000B8FB00200FF0BEFE1DE00420D14908703E
:1011700001200FF0AEFB00200FF0B4FE13E00520BD
:10118000CC49087002200FF0A4FB00200FF0AAFE4B
:1011900009E00020C74908700FF09BFB01200FF009
:1011A000A1FE00E000BF00BFFFF775FAFFF75DFA90
:1011B000FFF72EFA65E0B5480078012834D1B7482A
:1011C0000078012830D1B648007868BB0020AF49CC
:1011D0000870B949087001200EF066FAB548007829
:1011E00010B1012808D103E00120B249087004E0E1
:1011F0000020B049087000E000BF00BFAD48007893
:1012000010B101280ED106E0032102209FEDAB0AA8
:101210000DF013FF07E0042102209FEDA90A0DF055
:101220000CFF00E000BF2CE0A6480078012828D180
:101230009748007828BB9A48007810BB0020A14945
:1012400008709A48007801281BD00120974908703F
:101250005A2108460EF086FB5A200EF0B7FB94493F
:10126000087008460078012801D10020087001228A
:1012700002211C200DF0A7FD002203211C200DF0EF
:10128000A2FD7AE18148007801283CD180480078AD
:10129000C8BB80480078B0BB8148007898BB00206C
:1012A0007A4908707F4908707F4908708149087041
:1012B00001207E4908700DF0FAFD7748007830B1C2
:1012C000012808D002280AD0032810D10BE0012001
:1012D000714908700CE002206F49087008E0032093
:1012E0006D49087004E000206B49087000E000BF01
:1012F00000BF6948007838B1012810D002281AD000
:10130000032829D122E056E00122032118200DF004
:101310005AFD0122032115200DF055FD1DE001228B
:10132000002113200DF04FFD0122002115200DF0AA
:101330004AFD12E020E10122002113200DF043FDBF
:101340000122002114200DF03EFD06E0012211468D
:1013500016200DF038FD00E000BF00BF5A480078AD
:1013600020B1012808D002281CD10BE0012211462F
:101370001D200DF028FD16E0012200211C200DF09B
:1013800022FD10E0012200211C200DF01CFD012295
:1013900000211D200DF017FD012211461D200DF02A
:1013A00012FD00E000BF00BFFFF732F9FFF75DF963
:1013B000FFF771F945E043480078012841D13448EE
:1013C000007898BB3348007880BB3348007868BB0E
:1013D0003248007850BB3248007838BB0020394989
:1013E00008703049087030490870324908702A493D
:1013F00008700120294908702C4908700DF057FD2C
:101400000122022117200DF0DEFC012200211A200A
:101410000DF0D9FC0122032115200DF0D4FC012090
:101420000EF042F90321022001E00BE009E09FEDFC
:10143000230A0DF002FEFFF718F9FFF7E9F8FFF7AE
:101440002AF99AE021480078012848D120480078FC
:10145000062843D11C48007801283FD11D49087057
:1014600000200FF0F1FA4FF47A700AF06EFC0020C1
:101470000FF0EAFA4FF47A702EE0000000200040EE
:1014800050050020000C0040005C01402F050020AA
:101490000B0000200D0000200F0000201200002093
:1014A000100000200A0000200C0000201300002083
:1014B0003F0500200E0000203804002000001644E4
:1014C0000000FA4430050020080000200000002041
:1014D00032050020150000200AF037FC4BE0FB48E5
:1014E0000078012826D10020F8490870F8480078D3
:1014F00010B1012808D103E00120F549087004E08B
:101500000020F349087000E000BF00BFF0480078F9
:1015100010B101280CD105E0002201211C200DF0A2
:1015200052FC06E0012211461C200DF04CFC00E0AC
:1015300000BF20E0E748007801281CD10020E549E1
:101540000870E548007810B1012808D103E00120B7
:10155000E149087004E00020DF49087000E000BFA6
:1015600000BFDD48007810B1012802D100E001E0A1
:1015700000E000BF00BF00E000BF00BF01F0E3BD1E
:10158000D648007806287CD2DFE800F003C1FCFBD7
:10159000FAF9CE480078012861D1D1480078D0BB53
:1015A000D0480078B8BBCA480078A0BB0020CE491C
:1015B0000870CE490870CE490870CE48007820B136
:1015C000012806D002280CD107E00120C949087083
:1015D00008E00220C749087004E00020C5490870EF
:1015E00000E000BF00BFC348007820B1012813D03D
:1015F00002282CD120E00022012117200DF0E3FB6E
:10160000012200211A200DF0DEFB012200211B2007
:101610000DF0D9FB1CE022E0002211461A200DF04B
:10162000D2FB002211461B200DF0CDFB0122002130
:1016300019200DF0C8FB0BE00022114619200DF017
:10164000C2FB0122114617200DF0BDFB00E000BFD8
:1016500000BFFEF7DDFFFFF708F8FFF71CF89B4817
:101660000078012852D19E48007888B398480078C5
:1016700070BBA048007828B1012807D002280DD1FE
:1016800008E0EFE301209B49087008E00220994937
:10169000087004E000209749087000E000BF00BF18
:1016A0009448007820B1012813D002282CD120E0E2
:1016B0000022012117200DF086FB012200211A20B3
:1016C0000DF081FB012200211B200DF07CFB1CE0B2
:1016D0001CE0002211461A200DF075FB0022114675
:1016E0001B200DF070FB0122002119200DF06BFB77
:1016F0000BE00022114619200DF065FB0122114676
:1017000017200DF060FB00E000BF00BF8AE36F48C8
:101710000078012837D172480078A0BB6C48007867
:1017200088BB002069490870704908706E480078CD
:1017300020B1012806D002280CD107E001206A4917
:10174000087008E002206849087004E0002066493B
:10175000087000E000BF00BFFEF75AFFFEF785FFEC
:1017600061480078012870D15E48007880BB6148EC
:10177000007848B1012813D002282AD11CE0EFE3F9
:1017800052E350E36AE1DBE05B4890ED000A5B481E
:1017900080ED000A90ED000A594880ED000A19E03A
:1017A000584890ED000A554880ED000A90ED000A77
:1017B000534880ED000A0DE0534890ED000A4F4871
:1017C00080ED000A90ED000A4D4880ED000A01E02E
:1017D0003EE000BF00BF4D48007830B1012810D076
:1017E00002281AD0032831D123E0494890ED000A9D
:1017F000484880ED000A90ED000A474880ED000A55
:1018000025E0464890ED000A424880ED000A90ED40
:10181000000A414880ED000A19E0414890ED000AB5
:101820003C4880ED000A90ED000A3B4880ED000A3C
:101830000DE03C4890ED000A364880ED000A90ED3E
:10184000000A354880ED000A01E075E000BF04E1C0
:101850002448007801286FD12C48007830B1012845
:1018600010D002281AD0032868D123E02E4890ED2A
:10187000000A224880ED000A90ED000A204880ED21
:10188000000A5CE0294890ED000A1C4880ED000A3F
:1018900090ED000A1A4880ED000A50E0244890EDCF
:1018A000000A164880ED000A90ED000A144880ED09
:1018B000000A44E01F4890ED000A104880ED000A3D
:1018C00090ED000A0E4880ED000A38E02F05002058
:1018D00010000020300500201100002034050020F9
:1018E0000B000020120000200A0000200C00002045
:1018F0000E00002008000020640400201C000020CE
:1019000020000020680400206C0400200F0000204C
:1019100080040020240000202800002084040020EF
:101920009C0400209804002070040020740400200F
:10193000780400207C04002040E0FFE700BF8CE03A
:10194000FB480078012839D1FA480078B0BBFA4842
:10195000007898BB0020F6490870F8490870F849EB
:101960000870F84908700DF0A2FAF748007810B135
:10197000012808D103E00120F349087004E00020A9
:10198000F149087000E000BF00BFEF48007810B1D7
:1019900001285CD12BE0ED48007820B101280ED061
:1019A000022818D111E0012200211A200DF00BFAB3
:1019B000012200211B200DF006FA0DE04DE001226E
:1019C000002119200DF0FFF906E001221146172031
:1019D0000DF0F9F900E000BF00BF0122022116203E
:1019E0000DF0F1F90021DA4808F04AFC30E001225C
:1019F000032109200DF0E7F9012200210B200DF051
:101A0000E2F9D248007820B101280DD0022817D180
:101A100010E0012200211A200DF0D5F90122002149
:101A20001B200DF0D0F90CE00122002119200DF04F
:101A3000CAF906E00122114617200DF0C4F900E0B2
:101A400000BF00BF0121C24808F01AFC00E000BF3F
:101A500000BFFEF70AFEFEF71EFEADE3BD480078AC
:101A6000012833D1B848007880BBB348007868BB00
:101A70000020B8490870AF490870B048007810B12C
:101A8000012808D103E00120AC49087004E00020DF
:101A9000AA49087000E000BF00BFFEF7E6FDFEF7B0
:101AA000B7FDA648007888B1AB48007880BBA7484E
:101AB000007820B101280AD0022816D10EE0A748EC
:101AC00090ED000AA64880ED000A0FE064E0A5480A
:101AD00090ED000AA24880ED000A07E0A24890EDD0
:101AE000000A9F4880ED000A00E000BF00BF944854
:101AF000007830B101280CD0022811D003281DD164
:101B000015E09A4890ED000A994880ED000A16E029
:101B100016E0984890ED000A954880ED000A0EE026
:101B2000954890ED000A924880ED000A07E093483E
:101B300090ED000A8E4880ED000A00E000BF2BE027
:101B400085480078012827D17D48007830B10128E8
:101B50000BD0022810D003281CD114E0884890ED47
:101B6000000A7F4880ED000A15E0864890ED000AE3
:101B70007B4880ED000A0EE0834890ED000A78482B
:101B800080ED000A07E0814890ED000A744880ED7E
:101B9000000A00E000BF00BF6E48007801283CD179
:101BA00069480078012838D163480078A8BB6548A7
:101BB0000078072878D2DFE800F0041A31787C80BA
:101BC000840001205F490870644890ED000A704865
:101BD00080ED000A634890ED000A6E4880ED000A2F
:101BE000614890ED000A6C4880ED000A6EE002202A
:101BF00054490870594890ED000A684880ED000A81
:101C0000584890ED000A664880ED000A564890ED6D
:101C1000000A644880ED000A58E0EFE003204949DB
:101C200008704E4890ED000A5F4880ED000A4D486C
:101C300090ED000A5D4880ED000A4B4890ED000AE7
:101C40005B4880ED000A524890ED000A5348D0ED01
:101C5000000A30EE200A5448D0ED000A30EE200A87
:101C6000544880ED000A4B4890ED000A4C48D0EDF6
:101C7000000A30EE200A4D48D0ED000A30EE200A6E
:101C80004D4880ED000A444890ED000A4548D0EDEB
:101C9000000A30EE200A4648D0ED000A30EE200A55
:101CA000464880ED000A11E00FE004202549087045
:101CB0000CE005202349087008E00620214908703F
:101CC00004E003201F49087000E000BF00BF1D486A
:101CD000007807282BD2DFE800F004050B11737E93
:101CE00089008AE00022032109200DF06CF884E0CD
:101CF000002203210A200DF066F87EE00022022176
:101D000009200DF060F8002201210B200DF05BF896
:101D10000122032109200DF056F8012200210B2099
:101D20000DF051F800210A4808F0AAFA65E063E0D6
:101D3000300500200A000020100000200C000020C8
:101D40000F0000200D0000200B00002008000020E4
:101D5000002000402F050020120000206404002015
:101D60002C000020680400206C0400208004002067
:101D700030000020840400209C04002098040020EF
:101D80007004002074040020780400207C040020EB
:101D90003C000020400000204400002048000020BB
:101DA0004C0000205000002054000020580000206B
:101DB0005C0000206000002064000020680000201B
:101DC0000022032109200CF0FEFF012203210A203A
:101DD0000CF0F9FF11E0002203210A200CF0F3FFC0
:101DE000012211460B200CF0EEFF06E00122022139
:101DF00009200CF0E8FF00E000BF13E0FE48007887
:101E000001280FD1FD48007860B9FD48007848B935
:101E10000020F949087001200DF033FC4FF47A706E
:101E200009F093FFC8E1C7E1F648007801286BD1BB
:101E3000F248007878BBF448007860BBF04800783E
:101E400048BB0020EF490870F048007830B1012805
:101E500009D002280BD0032811D10CE00120EB4956
:101E600008700DE0A7E10220E849087008E00320AF
:101E7000E649087004E00020E449087000E000BF73
:101E800000BFE248007838B1012815D0022819D0E7
:101E9000032837D12BE037E00022114613200CF045
:101EA00092FF0022114614200CF08DFF0122022126
:101EB00016200CF088FF26E00122032116200CF0EA
:101EC00082FF20E00022032116200CF07CFF00227C
:101ED000022116200CF077FF0122002113200CF0C4
:101EE00072FF0122002115200CF06DFF0BE0002293
:101EF000114615200CF067FF0122002114200CF080
:101F000062FF00E000BF08E1BE480078012845D12B
:101F1000BD480078012841D1B9480078F0BB0020C5
:101F2000B8490870BA490870BA490870B7480078CB
:101F300030B1012808D002280AD0032811D10BE0C3
:101F40000120B24908700DE00220B049087009E094
:101F50000320AE49087005E00020AC49087001E09C
:101F6000DCE000BF00BFA948007830B101281BD0D9
:101F7000022829D0032856D140E001220021082060
:101F80000CF021FF0122002119200CF01CFF01227E
:101F9000002118200CF017FF002200E04CE0032184
:101FA00017200CF010FF3FE0012200211A200CF056
:101FB0000AFF012200211B200CF005FF0022114620
:101FC00019200CF000FF2FE00122022118200CF054
:101FD000FAFE0122114617200CF0F5FE00221146F0
:101FE00008200CF0F0FE002211461A200CF0EBFE47
:101FF000002211461B200CF0E6FE15E00122032111
:1020000017200CF0E0FE0022022118200CF0DBFE6D
:102010000022012117200CF0D6FE002211461820C4
:102020000CF0D1FE00E000BF00BFFEF7F1FAFEF7B2
:102030001CFBFEF730FB70E06F48007801286CD184
:102040006E48007880BB6E48007868BB00206A4903
:102050000870714908706E4908706E4908706F49C0
:1020600008706A4908706E4908809FED6E0A6E48D4
:1020700080ED000A9FED6B0A6C4880ED000A9FED31
:10208000690A6B4880ED000A0CF011FF5E48007889
:1020900010B1012809D103E001205B49087005E077
:1020A00000205949087001E037E000BF00BF5648E2
:1020B000007810B1012828D113E0012200211A2054
:1020C0000CF081FE012200211B200CF07CFE01227D
:1020D000022116200CF077FE0021564808F0D0F8B7
:1020E00014E00122002108200CF06DFE01220021E5
:1020F00019200CF068FE0122002118200CF063FE6C
:1021000001214C4808F0BCF800E000BF00BFFEF71A
:102110007FFAFEF7AAFAFEF7BEFA4DE039480078DA
:10212000012826D10020374908703548007810B1C1
:10213000012808D103E001203149087004E00020A3
:102140002F49087000E000BF00BF2D48007810B193
:1021500001280CD105E0002201211C200CF033FEE7
:1021600006E0012211461C200CF02DFE00E000BF0D
:1021700020E02148007801281CD100201E49087069
:102180002D48007810B1012808D103E001202A4928
:10219000087004E000202849087000E000BF00BF7C
:1021A0002548007810B1012802D100E001E000E0EC
:1021B00000BF00BF00E000BF00BF2FE31F48007852
:1021C00006286ED2DFE800F00377BDE7FDFC0D487E
:1021D000007801286ED10D48007898BB0848007837
:1021E00080BB00200A4908700A4908700B49087032
:1021F00001201349087026E0300500200B00002064
:10220000100000202F050020120000200F000020E9
:102210000A0000200C000020080000200E00002012
:1022200066050020000000007004002074040020F7
:102230007804002000180040110000203405002020
:102240001300002036E00CF032FEF748007810B1A1
:10225000012808D103E00120F349087004E00020C0
:10226000F149087000E000BF00BFEF48007810B1EE
:10227000012817D10AE0012200211C200CF0A3FD47
:102280000122032118200CF09EFD0CE001221146D2
:102290001D200CF098FD0122032118200CF093FD65
:1022A00001E0B9E200BF00BFFEF7B2F9FEF7DDF9C9
:1022B000FEF7F1F9B1E2DD480078012840D1DC48B1
:1022C000007888BB0020D9490870DA490870DA48DC
:1022D000007820B1012806D002280CD107E00120A7
:1022E000D549087008E00220D349087004E00020B6
:1022F000D149087000E000BF00BFFEF789F9FEF782
:10230000B4F9CD48007801281AD1CC4800780228C9
:102310000BD0CB4890ED000ACA4880ED000A90ED42
:10232000000AC94880ED000A0AE0C84890ED000A9A
:10233000C74880ED000A90ED000AC64880ED000A0B
:102340006BE2BA480078012824D1B948007808BB6C
:102350000020B6490870B8490870B648007810B136
:10236000012808D103E00120B249087004E00020F0
:10237000B049087000E000BF00BFFEF776F9FEF735
:1023800047F9AC48007828B1AD4890ED000AB24852
:1023900080ED000A41E2A548007801283BD1A7481A
:1023A0000078C0BBA2480078A8BB00209F490870F5
:1023B000A14908709F4908709B48007828B101E046
:1023C0008CE115E101287FD141E0A4480078012883
:1023D00012D10020A14908705B2108460DF0C2FA15
:1023E0005B200DF0F3FA9E4908700846007801283A
:1023F0002CD10020087029E09A480078052823D2C3
:10240000DFE800F0030A10161C000120954908704F
:102410000EF05FFA19E060E00220924908700EF0B9
:1024200058FA12E003208F4908700EF052FA0CE0BF
:1024300004208C4908700EF04CFA06E0002089490F
:1024400008700EF046FA00E000BF00BF3DE0834890
:102450000078012812D10020804908705B210846CD
:102460000DF080FA5B200DF0B1FA7D490870084646
:102470000078012827D10020087024E079480078EE
:1024800030B101280AD002280FD0032819D112E058
:102490000120744908700EF01CFA13E00220714903
:1024A00008700EF016FA0DE00EE003206D4908707A
:1024B0000EF00FFA06E000206A4908700EF009FAE3
:1024C00000E000BF00BF00E000BF00BFFEF7E3F880
:1024D000FEF7CBF8FEF79CF889E054480078012815
:1024E0005BD156480078012857D15148007890BBFD
:1024F00000204E490870504908704E4908705748EE
:102500000078012812D10020544908705B21084648
:102510000DF028FA5B200DF059FA51490870084671
:102520000078012832D1002008702FE04D48007853
:10253000062829D2DFE800F0030910161C2201202A
:10254000484908700EF0C5F91FE00220454908709F
:102550000EF0BFF919E020E00320424908700EF0A8
:10256000B8F912E004203F4908700EF0B2F90CE00F
:1025700005203C4908700EF0ACF906E0002039490E
:1025800008700EF0A6F900E000BF00BFFEF783F868
:10259000FEF76BF8FEF73CF829E033480078012895
:1025A00025D12348007810BB00202F4908702B4804
:1025B000007801281BD00120284908705A210846BC
:1025C0000DF0D0F95A200DF001FA2549087008469F
:1025D0000078012801D100200870012202211C206E
:1025E0000CF0F1FB002203211C200CF0ECFB14E1A9
:1025F0000E480078012870D10B48007801286CD172
:102600000B48007890BB00200B49087009490870FE
:10261000144908700CF04BFC0848007838B30128C6
:102620002AD0022830D12BE0080000202F050020FE
:10263000100000200C0000200A0000200F000020E5
:10264000440500201C000020200000204805002038
:1026500024000020280000202C000020130000206F
:102660003F0500200E0000203005002035E0FFE788
:102670000120FD49087008E00220FB49087004E0D1
:102680000020F949087000E000BF00BFF64800785C
:1026900028B90122032118200CF095FB12E0F24822
:1026A0000078012805D10122114618200CF08BFB7F
:1026B00008E0ED480078022804D1012211461420D8
:1026C0000CF081FB012211461D200CF07CFBFDF774
:1026D0009FFFFDF7CAFFFDF7DEFF9EE0E3480078AD
:1026E00001284CD1E24890ED000ADFEDE20AB4EE99
:1026F000E00AF1EE10FA1ED2DF48E049097800EB5B
:10270000810090ED000ADA48D0ED000A80EE801AD0
:10271000D9481438D949097800EB810090ED000AB6
:1027200031EE000AD4481438D449097800EB81000E
:1027300080ED000A20E0CE4890ED000ADFEDD00ADF
:10274000B4EEE00AF1EE10FA16DDCB48CB49097879
:1027500000EB810090ED000ADFEDCA0A20EE200AAE
:10276000C348D0ED000A80EE201AC348C349097857
:1027700000EB810080ED001A0BF0B0FD4BE0C24889
:102780000078012826D10020BF490870BF48007892
:1027900010B1012808D103E00120BC49087004E011
:1027A0000020BA49087000E000BF00BFB7480078B9
:1027B00010B101280CD105E0002201211C200CF0F1
:1027C00002FB06E0012211461C200CF0FCFA00E09E
:1027D00000BF20E0AE48007801281CD10020AC49A1
:1027E0000870AC48007810B1012808D103E001203E
:1027F000A849087004E00020A649087000E000BF66
:1028000000BFA448007810B1012802D100E001E027
:1028100000E000BF00BF00E000BF00BFEAE39E4849
:10282000007806287CD2DFE800F003457CA6A7A844
:102830009548007801283CD19448007890BB00204E
:1028400096490870964908700CF031FB954800785D
:1028500010B1012808D103E001209249087004E07A
:1028600000209049087000E000BF00BF8D4800784C
:1028700010B1012817D10AE00122002108460CF00E
:10288000A2FA0122114619200CF09DFA0CE0012257
:10289000114600200CF097FA0122032118200CF0B9
:1028A00092FA01E005E000BF00BFFDF7B1FEFDF7C1
:1028B000DCFEB0E074480078012830D1734800781D
:1028C00068BB00207049087075490870734800782B
:1028D00020B1012806D002280CD107E001206F4961
:1028E000087008E002206D49087004E000206B4980
:1028F000087000E000BF00BFFDF78AFEFDF7B5FEDF
:102900006648007801280AD1674890ED000A6748B8
:1029100080ED000A90ED000A654880ED000A7AE03B
:1029200078E059480078012824D15848007808BB3D
:10293000002055490870594908705948007810B16D
:10294000012808D103E001205549087004E0002067
:102950005349087000E000BF00BFFDF786FEFDF799
:1029600057FE4F48007828B14F4890ED000A514873
:1029700080ED000A4FE04EE04DE04348007801282A
:1029800026D10020404908704048007810B1012845
:1029900008D103E001203D49087004E000203B49D4
:1029A000087000E000BF00BF3848007810B101286F
:1029B0000CD105E0002201211C200CF004FA06E0F5
:1029C000012211461C200CF0FEF900E000BF20E0BF
:1029D0002F48007801281CD100202D4908702D486F
:1029E000007810B1012808D103E0012029490870BE
:1029F00004E000202749087000E000BF00BF254820
:102A0000007810B1012802D100E001E000E000BF31
:102A100000BF00E000BF00BF95E31F480078062814
:102A200074D2DFE800F0038FC5FDFCFB1648007888
:102A3000012818D115480078A8B900201749087056
:102A4000174908700D49087001201B4908700CF0E7
:102A50002EFA1448007888B3012834D0022836D0E2
:102A600003283CD137E06CE00F000020000000207C
:102A7000B400002000007A44446E00200E000020C4
:102A800000C05A4500409C452F0500201000002042
:102A90003005002011000020340500200A0000202D
:102AA0000C00002008000020440500201C0000202D
:102AB000200000202C00002013000020FFE7012050
:102AC000FA4908700CE00220F849087008E0032079
:102AD000F649087004E00020F449087000E000BFE7
:102AE00000BFF248007830B1012810D0022814D07D
:102AF00003281ED117E00122114619200CF063F9BA
:102B0000012202211C200CF05EF913E017E30122E0
:102B1000032119200CF057F90CE001221146152071
:102B20000CF051F906E00122002116200CF04BF9BF
:102B300000E000BF00BFFDF76BFDFDF796FDFDF760
:102B4000AAFDFDE2DA480078012830D1D9480078A2
:102B500068BB0020D6490870D7490870D74800786C
:102B600020B1012806D002280CD107E00120D3496A
:102B7000087008E00220D149087004E00020CF4925
:102B8000087000E000BF00BFFDF742FDFDF76DFDDE
:102B9000CA48007801280AD1C94890ED000AC948FE
:102BA00080ED000A90ED000AC74880ED000AC7E2F8
:102BB000C648007801285BD1BC48007810B10128D4
:102BC00054D100E053E0C2480078012806D0032821
:102BD00014D0052825D0062843D132E0BD4890ED19
:102BE000560ABD48D0ED000A80EE801AB94890ED33
:102BF000520A31EE000A80ED520A33E0B54890EDFA
:102C0000570AB548D0ED000A80EE801AB14890ED21
:102C1000530A31EE000A80ED530A23E067E165E1D3
:102C200050E0AC4890ED580AAB48D0ED000A80EE79
:102C3000801AA84890ED540A31EE000A80ED540A3B
:102C400010E0A44890ED560AA348D0ED000A80EEAB
:102C5000801AA04890ED550A31EE000A80ED550A21
:102C600000E000BF00BF0BF039FB00E000BF28E030
:102C70008F480078012824D18E48007808BB0020B6
:102C80008B4908708D4908708B48007810B1012875
:102C900008D103E001208849087004E0002086493B
:102CA000087000E000BF00BFFDF7DFFCFDF7B0FCDF
:102CB0008148007828B1824890ED000A874880ED6D
:102CC000000A3DE27A480078012839D17948007835
:102CD000B0BB0020764908707849087076490870C2
:102CE0007248007830B101284CD0022872D00328F5
:102CF00071D1A5E07A480078012812D100207849E6
:102D000008705B2108460CF02DFE5B200CF05EFE87
:102D10007449087008460078012832D100200870F4
:102D20002FE06B480078062829D2DFE800F0030A7C
:102D300010161C220120664908700DF0CAFD1FE024
:102D400088E00220624908700DF0C3FD18E00320FE
:102D50005F4908700DF0BDFD12E004205C49087069
:102D60000DF0B7FD0CE00520594908700DF0B1FDDC
:102D700006E00020564908700DF0ABFD00E000BFF2
:102D800000BF5FE056480078012812D10020544966
:102D900008705B2108460CF0E5FD5B200CF016FE88
:102DA0005049087008460078012847D10020087073
:102DB00044E04748007808283ED2DFE800F0040DE0
:102DC000141B2229303701204149087000200DF0E2
:102DD00080FD32E033E034E002203D4908700020FD
:102DE0000DF077FD29E003203949087001200DF02E
:102DF00070FD22E004203649087002200DF069FDC4
:102E00001BE005203249087002200DF062FD14E03D
:102E100006202F49087003200DF05BFD0DE0072010
:102E20002B49087003200DF054FD06E000202849CE
:102E300008700DF04EFD00E000BF00BF02E001E0B1
:102E400000E000BF00BFFDF726FCFDF70EFCFDF71C
:102E5000DFFB29E024480078012825D115480078B7
:102E600010BB0020204908701D48007801281BD0A5
:102E700001201B4908705A2108460CF073FD5A20A6
:102E80000CF0A4FD1749087008460078012801D10C
:102E900000200870012202211C200BF094FF002268
:102EA00003211C200BF08FFF4AE1000008000020E6
:102EB0002F050020100000200C0000200A00002038
:102EC000440500201C0000202000002000000020FD
:102ED0000E000020406D0020BC0000202C000020CF
:102EE000130000203F0500203005002028E1FE48A7
:102EF000007801287BD1FD48007830B1012851D0FD
:102F0000022875D0032874D1C9E0F94890ED000A71
:102F1000DFEDF80AB4EEE00AF1EE10FA1ED2F64840
:102F2000F649097800EB810090ED000AF048D0EDF9
:102F3000000A80EE801AF0481838F049097800EB52
:102F4000810090ED000A31EE000AEB481838EB4999
:102F5000097800EB810080ED000A20E0E44890ED64
:102F6000000ADFEDE70AB4EEE00AF1EE10FA16DD32
:102F7000E148E249097800EB810090ED000ADFEDBD
:102F8000E10A20EE200ADA48D0ED000A80EE201A8D
:102F9000D948DA49097800EB810080ED001A0BF07E
:102FA0009DF97EE0D5480078012806D0032822D07C
:102FB00005283AD006286CD151E0D34890ED000A9C
:102FC000F3EE0E0AB4EEE00AF1EE10FA0EDDCF4891
:102FD00090ED560ADFEDCE0A20EE200ACA48D0ED69
:102FE000000A80EE201AC94880ED561A52E059E0D6
:102FF00054E055E0A7E0C44890ED000ADFEDC50AB3
:10300000B4EEE00AF1EE10FA0EDDC04890ED570A7A
:10301000DFEDBC0A20EE200ABB48D0ED000A80EEAE
:10302000201ABA4880ED571A34E0B74890ED000AEC
:10303000DFEDB90AB4EEE00AF1EE10FA0EDDB348A6
:1030400090ED580ADFEDB50A20EE200AAE48D0ED2B
:10305000000A80EE201AAD4880ED581A1AE0AA48FE
:1030600090ED000ADFEDAE0AB4EEE00AF1EE10FAE0
:103070000EDDA64890ED590ADFEDAA0A20EE200ADF
:10308000A148D0ED000A80EE201AA04880ED591A20
:1030900000E000BF00BF0BF021F902E001E000E01A
:1030A00000BF4BE0A0480078012826D100209E49AF
:1030B00008709E48007810B1012808D103E0012073
:1030C0009A49087004E000209849087000E000BFA9
:1030D00000BF9648007810B101280CD105E000220D
:1030E00001211C200BF06FFE06E0012211461C207E
:1030F0000BF069FE00E000BF20E08D480078012859
:103100001CD100208A4908708A48007810B1012833
:1031100008D103E001208749087004E000208549B8
:10312000087000E000BF00BF8248007810B101289D
:1031300002D100E001E000E000BF00BF00E000BFFE
:1031400000BF00E000BF00BF7B48007838BB784874
:103150000078012823D17548007800BB002074490D
:1031600008707648007810B1012808D103E00120EA
:103170007249087004E000207049087000E000BF48
:1031800000BF6E48007810B1012806D102E00EF0B1
:10319000B5F803E00EF0ABF800E000BF00BFFDF7AC
:1031A00021FA6548007898B95F48007801280FD166
:1031B0005E48007860B900205B490870604800787C
:1031C000082802D15F480078D0B9FDF7F0F817E081
:1031D0005B480078082813D15748007804280FD19D
:1031E0005148007801280BD140480078012807D1C8
:1031F0004E48007820B900204B490870FDF7D7F8F9
:10320000BDEC088B10BD00B589B000200890474880
:103210000078002844F08582FDF73DFB484800789F
:10322000801F052884F07B82DFE810F00500620D26
:10323000AD10D2182F19444890ED000A434880ED94
:10324000000A90ED000AF3EE0E0AB4EEE00AF1EE89
:1032500010FA05DD0122032100200BF0B4FD04E08B
:103260000022032110460BF0AEFD364800780028FE
:1032700041F0ED81364800780028F9D135480078D2
:103280000028F5D1344800780028F1D1174800789B
:10329000002828D1314800680EF0E4FECDE9000195
:1032A0009DED000B0FF04CFC8DED040B26480068E3
:1032B0000EF0D8FECDE902019DED040B53EC102B6E
:1032C0009DED020B51EC100B0EF0B6FDCDE90601A1
:1032D0009DED060B51EC100B0EF008FF2049086025
:1032E0002048006840E064E300000020080000205F
:1032F000B80000200000C842706E00200E000020C0
:1033000000C05A4500409C45BC000020406D002094
:103310000000484200803B45007C92480024F4486D
:10332000001B374A8096984A2F0500201000002085
:103330003005002011000020340500200900002085
:10334000320500200F0000203C04002090000020E7
:10335000120000200B0000200D000020F0040020CF
:1033600088000020F40400200EF07CFECDE900016E
:103370009DED000B0FF0E4FB8DED040BF9480068A8
:103380000EF070FECDE902019DED040B53EC102B05
:103390009DED020B51EC100B0EF04EFDCDE9060138
:1033A0009DED060B51EC100B0EF0A0FEEE490860EF
:1033B0000120EE4991ED000AFDF734FAEC4880ED6A
:1033C000000A0220E84991ED000AFDF72BFAE948CE
:1033D00080ED000AE848007806287CD2DFE800F09B
:1033E0000360E2FEFDFCE5480078012845D1DF4896
:1033F00090ED000AF1EE080AB4EEE00AF1EE10FAE0
:1034000009D801210846DA4A92ED000A0BF015FEB0
:10341000DB4908700CE001200CF046F90122002184
:1034200002200BF0D0FCD4480078401CD249087030
:10343000CD4890ED000ADFEDD30AB4EEE00AF1EEDC
:1034400010FA09D803210220CA4A92ED000A0BF0B3
:10345000F4FDCB49087022E002200CF025F901228E
:10346000002111200BF0AFFCC3480078C01CC249FA
:10347000087000200DF036FD11E001210846BC4A1D
:1034800092ED000A0BF0D9FDBD490870032102201E
:10349000B84A92ED000A0BF0D0FDB949087086E2F7
:1034A000B648007801286AD1B04890ED000ADFEDF7
:1034B000B60AB4EEE00AF1EE10FA14D890ED000A64
:1034C000F1EE080AB4EEE00AF1EE10FA0BDD02218B
:1034D0000120A74A00E069E292ED000A0BF0ADFD81
:1034E000A749087026E0A14890ED000AF1EE080A0D
:1034F000B4EEE00AF1EE10FA05D89F480078401EBD
:103500009D4908700EE0994890ED000ADFED9E0A93
:10351000B4EEE00AF1EE10FA04DD97480078401CA2
:103520009549087001200CF0BFF801220021042009
:103530000BF049FC8C4890ED000ADFED920AB4EEE6
:10354000E00AF1EE10FA09D803210220894A92ED2F
:10355000000A0BF072FD8A49087022E002200CF08C
:10356000A3F80122002111200BF02DFC82480078E5
:10357000C01C8149087000200DF0B4FC11E002214C
:1035800001207B4A92ED000A0BF057FD7C49087040
:1035900003210220774A92ED000A0BF04EFD784994
:1035A000087004E27548007801285CD16F4890EDFE
:1035B000000ADFED740AB4EEE00AF1EE10FA16D854
:1035C00090ED000ADFED700AB4EEE00AF1EE10FAB9
:1035D0000DDD0321012002E06AE1D9E056E0644AF2
:1035E00092ED000A0BF029FD6549087016E05F486E
:1035F00090ED000ADFED640AB4EEE00AF1EE10FA95
:1036000004D85D480078401E5B49087001200CF02A
:103610004BF80122002106200BF0D5FB524890ED1B
:10362000000ADFED580AB4EEE00AF1EE10FA09D80C
:10363000032102204F4A92ED000A0BF0FEFC504994
:10364000087022E002200CF02FF801220021112046
:103650000BF0B9FB48480078C01C474908700020AF
:103660000DF040FC11E003210120414A92ED000AD7
:103670000BF0E3FC42490870032102203D4A92ED21
:10368000000A0BF0DAFC3E49087090E13B480078F4
:10369000012853D1354890ED000AF1EE080AB4EE46
:1036A000E00AF1EE10FA09D801210846304A92EDFD
:1036B000000A0BF0C2FC324908700CE001200BF04C
:1036C000F3FF0122002102200BF07DFB2A48007845
:1036D000401C29490870244890ED000ADFED2B0AB0
:1036E000B4EEE00AF1EE10FA12D890ED000ADFED28
:1036F000250AB4EEE00AF1EE10FA09DD04210220F9
:103700001C4A92ED000A0BF098FC1D49087027E056
:10371000154890ED000ADFED1B0AB4EEE00AF1EE69
:1037200010FA1DD802200BF0BFFF13480078C01E0E
:103730001149087001200DF0D5FB11E00121084668
:103740000B4A92ED000A0BF078FC0D490870042139
:103750000220084A92ED000A0BF06FFC084908703D
:1037600025E10000400400208C000020880000209B
:10377000780000207C0000200E00002013000020B4
:103780007400002000001644000070420000FA445B
:10379000FE480078012878D1FD4890ED000A5FEDE1
:1037A000060AB4EEE00AF1EE10FA12D890ED000A23
:1037B000F1EE080AB4EEE00AF1EE10FA09DD02219A
:1037C0000120F44A92ED000A0BF037FCF249087030
:1037D00027E0EF4890ED000AF1EE080AB4EEE00AA7
:1037E000F1EE10FA06D8ED480078401EC1B2EB4861
:1037F00001700EE0E64890ED000A5FED1D0AB4EEA0
:10380000E00AF1EE10FA04DDE4480078401CE349D8
:10381000087001200BF048FF0122002104200BF06A
:10382000D2FADF4890ED000A5FED280AB4EEE00A14
:10383000F1EE10FA12D890ED000A5FED2E0AB4EE08
:10384000E00AF1EE10FA09DD04210220D54A92EDDA
:10385000000A0BF0F2FBD049087028E0D04890ED48
:10386000000A5FED380AB4EEE00AF1EE10FA1ED855
:1038700002200BF019FFC9480078C01EC749087024
:1038800001200DF02FFB12E0FFE702210120C14AC9
:1038900092ED000A0BF0D1FBBF4908700421022011
:1038A000C04A92ED000A0BF0C8FBBB4908707EE0ED
:1038B000B6480078012866D1B54890ED000A5FED62
:1038C0004F0AB4EEE00AF1EE10FA12D890ED000AB9
:1038D0005FED530AB4EEE00AF1EE10FA09DD0321C0
:1038E0000120AC4A92ED000A0BF0A7FBAA49087030
:1038F00016E0A74890ED000A5FED5D0AB4EEE00A1D
:10390000F1EE10FA04D8A5480078401EA3490870CB
:1039100001200BF0C9FE0122002106200BF053FA12
:103920009F4890ED000A5FED670AB4EEE00AF1EE01
:1039300010FA12D890ED000A5FED6E0AB4EEE00ABC
:10394000F1EE10FA09DD04210220964A92ED000AF8
:103950000BF073FB9049087027E0914890ED000A46
:103960005FED780AB4EEE00AF1EE10FA1DD80220FD
:103970000BF09AFE89480078C01E88490870012023
:103980000DF0B0FA11E003210120824A92ED000A05
:103990000BF053FB8049087004210220814A92ED0C
:1039A000000A0BF04AFB7C49087000E000BF01F000
:1039B0009DB97D480078012873D17C4890ED000ABC
:1039C000734880ED000A7A4890ED000A744880ED53
:1039D000000A01206E4991ED000AFCF723FF6D48B3
:1039E00080ED000A02206E4991ED000AFCF71AFFF3
:1039F0006C4880ED000A664800680EF033FBCDE9A4
:103A000004019DED040B0FF09BF88DED060B9DED71
:103A1000060B51EC100B0EF069FB664908605F481D
:103A2000007806287DD2DFE800F00361FEFDFCFB94
:103A300056480078012846D15E4890ED000AF1EE24
:103A4000080AB4EEE00AF1EE10FA09D8012108469E
:103A5000504A92ED000A0BF0F0FA4F4908700CE062
:103A600001200BF021FE0122002102200BF0ABF916
:103A70004A480078401C49490870494890ED000ABE
:103A80005FEDC00AB4EEE00AF1EE10FA0AD80321A5
:103A90000220444A92ED000A0BF0CFFA3E4908702A
:103AA00023E0C3E202200BF0FFFD012200211120E0
:103AB0000BF089F939480078C01C3849087000209B
:103AC0000DF010FA11E001210846324A92ED000A89
:103AD0000BF0B3FA3049087003210220314A92ED0D
:103AE000000A0BF0AAFA2C4908709EE227480078D9
:103AF000012872D12F4890ED000A5FEDDD0AB4EE87
:103B0000E00AF1EE10FA14D890ED000AF1EE080A7E
:103B1000B4EEE00AF1EE10FA0BDD022101201D4A9D
:103B200000E081E292ED000A0BF087FA1A49087072
:103B300026E0204890ED000AF1EE080AB4EEE00A13
:103B4000F1EE10FA05D815480078401E13490870A8
:103B50000EE0184890ED000A5FEDF50AB4EEE00AB9
:103B6000F1EE10FA04DD0D480078401C0B49087096
:103B700001200BF099FD0122002104200BF023F914
:103B8000074890ED000ADFED0C0A17E01300002053
:103B90008800002078000020740000200E00002023
:103BA0008C0000207C00002008000020F004002091
:103BB000F40400209400002000001644B4EEE00A53
:103BC000F1EE10FA0AD803210220F84A92ED000A19
:103BD0000BF033FAF649087028E010E002200BF0F1
:103BE00063FD0122002111200BF0EDF8F14800786F
:103BF000C01CF049087000200DF074F916E0022195
:103C00000120ED4A92ED000A0BF017FAE84908701E
:103C100003210220E54A92ED000A0BF00EFA03E0C0
:103C20006FE1DFE073E002E0E1490870FDE1E348A5
:103C30000078012858D1E24890ED000A5FED220A91
:103C4000B4EEE00AF1EE10FA12D890ED000ADFEDC2
:103C5000DD0AB4EEE00AF1EE10FA09DD03210120DD
:103C6000D54A92ED000A0BF0E8F9D149087016E048
:103C7000D34890ED000ADFEDD30AB4EEE00AF1EE8E
:103C800010FA04D8CB480078401ECA4908700120B9
:103C90000BF00AFD0122002106200BF094F8CA481F
:103CA00090ED000A5FED3C0AB4EEE00AF1EE10FA86
:103CB00009D803210220BD4A92ED000A0BF0BDF99C
:103CC000BB49087022E002200BF0EEFC012200212B
:103CD00011200BF078F8B7480078C01CB54908707F
:103CE00000200DF0FFF811E003210120B24A92ED0F
:103CF000000A0BF0A2F9AE49087003210220AB4A7A
:103D000092ED000A0BF099F9A94908708DE1AB48D2
:103D10000078012853D1AA4890ED000AF1EE080A74
:103D2000B4EEE00AF1EE10FA09D801210846A24AE1
:103D300092ED000A0BF081F99D4908700CE001201A
:103D40000BF0B2FC0122002102200BF03CF8994854
:103D50000078401C974908709B4890ED000ADFED01
:103D60009B0AB4EEE00AF1EE10FA12D890ED000AC8
:103D70005FED6F0AB4EEE00AF1EE10FA09DD0421FE
:103D800002208A4A92ED000A0BF057F98849087020
:103D900027E08D4890ED000A5FED790AB4EEE00A65
:103DA000F1EE10FA1DD802200BF07EFC814800785D
:103DB000C01E8049087001200DF094F811E0012127
:103DC00008467D4A92ED000A0BF037F978490870F1
:103DD00004210220754A92ED000A0BF02EF9744975
:103DE000087022E175480078012877D1744890ED79
:103DF000000ADFED740AB4EEE00AF1EE10FA12D810
:103E000090ED000AF1EE080AB4EEE00AF1EE10FAC5
:103E100009DD02210120684A92ED000A0BF00DF93C
:103E20006349087026E0664890ED000AF1EE080A42
:103E3000B4EEE00AF1EE10FA05D85E480078401EB4
:103E40005C4908700EE05E4890ED000ADFED5D0A07
:103E5000B4EEE00AF1EE10FA04DD56480078401C9A
:103E60005449087001200BF01FFC0122002104209E
:103E70000AF0A9FF544890ED000ADFED540AB4EEB1
:103E8000E00AF1EE10FA12D890ED000A5FEDB60AE2
:103E9000B4EEE00AF1EE10FA09DD04210220434AF3
:103EA00092ED000A0BF0C9F84149087028E0464835
:103EB00090ED000A5FEDC00AB4EEE00AF1EE10FAF0
:103EC0001ED802200BF0F0FB3A480078C01E39499A
:103ED000087001200DF006F812E0FFE70221012032
:103EE000354A92ED000A0BF0A8F831490870042118
:103EF00002202E4A92ED000A0BF09FF82C49087020
:103F000093E02E48007801287BD12D4890ED000ADF
:103F10005FEDD70AB4EEE00AF1EE10FA12D890ED98
:103F2000000ADFED280AB4EEE00AF1EE10FA09DD2E
:103F300003210120204A92ED000A0BF07EF81C4973
:103F4000087016E01E4890ED000ADFED1E0AB4EE80
:103F5000E00AF1EE10FA04D816480078401E154920
:103F6000087001200BF0A0FB0122002106200AF0BE
:103F70002AFF154890ED000ADFED150AB4EEE00ABD
:103F8000F1EE10FA26D890ED000A5FEDF50AB4EED6
:103F9000E00AF1EE10FA1DDD04210220034A92ED41
:103FA000000A0BF04AF8024908703CE07C0000204F
:103FB000740000200E000020780000201300002074
:103FC00094000020000070428C00002000803B45DF
:103FD0000000FA44FE4890ED000ADFEDFE0AB4EE60
:103FE000E00AF1EE10FA1ED802200BF05DFBFA4851
:103FF0000078C01EF849087001200CF073FF12E031
:10400000FFE703210120F54A92ED000A0BF015F8B5
:10401000F349087004210220F24A92ED000A0BF0E5
:104020000CF8EF49087000E000BFC0E4EE480078EB
:104030000228FAD1ED4890ED000AED4880ED000A23
:10404000EC4890ED000AE24880ED000A0120E849C2
:1040500091ED000AFCF7E6FBE04880ED000A022043
:10406000DB4991ED000AFCF7DDFBDE4880ED000A3C
:10407000D948007806287CD2DFE800F00360E2FE31
:10408000FDFCDD480078012845D1D94890ED000AB3
:10409000F1EE080AB4EEE00AF1EE10FA09D80121B7
:1040A0000846CE4A92ED000A0AF0C7FFCC490870D4
:1040B0000CE001200BF0F8FA0122002102200AF0A6
:1040C00082FEC5480078401CC3490870C04890ED86
:1040D000000ADFEDC00AB4EEE00AF1EE10FA09D8EA
:1040E00003210220BF4A92ED000A0AF0A6FFBC4954
:1040F000087022E002200BF0D7FA012200211120E3
:104100000AF061FEB4480078C01CB3490870002072
:104110000CF0E8FE11E001210846B04A92ED000AD9
:104120000AF08BFFAE49087003210220AD4A92EDE0
:10413000000A0AF082FFAA49087087E2AE480078B8
:1041400001286AD1AA4890ED000A5FED620AB4EE38
:10415000E00AF1EE10FA14D890ED000AF1EE080A28
:10416000B4EEE00AF1EE10FA0BDD022101209B4AC9
:1041700000E06AE292ED000A0AF05FFF98490870D9
:1041800026E09B4890ED000AF1EE080AB4EEE00A42
:10419000F1EE10FA05D890480078401E8E4908705C
:1041A0000EE0934890ED000A5FED7A0AB4EEE00A63
:1041B000F1EE10FA04DD88480078401C864908704A
:1041C00001200BF071FA0122002104200AF0FBFD0E
:1041D0007F4890ED000ADFED7F0AB4EEE00AF1EED1
:1041E00010FA09D8032102207E4A92ED000A0AF053
:1041F00024FF7B49087022E002200BF055FA0122CF
:10420000002111200AF0DFFD73480078C01C7249BC
:10421000087000200CF066FE11E0022101206F4AB8
:1042200092ED000A0AF009FF6D490870032102208F
:104230006C4A92ED000A0AF000FF6949087005E235
:104240006D48007801285DD1694890ED000ADFEDE6
:10425000610AB4EEE00AF1EE10FA16D890ED000A09
:104260005FEDA80AB4EEE00AF1EE10FA0DDD0321CD
:10427000012002E06BE1DBE057E0584A92ED000AD2
:104280000AF0DBFE5649087017E0594890ED000A25
:104290005FEDB40AB4EEE00AF1EE10FA05D84E482C
:1042A0000078401EC1B24C48017001200BF0FCF9AF
:1042B0000122002106200AF086FD454890ED000A03
:1042C000DFED440AB4EEE00AF1EE10FA09D803215A
:1042D0000220444A92ED000A0AF0AFFE40490870FD
:1042E00022E002200BF0E0F90122002111200AF067
:1042F0006AFD39480078C01C3749087000200CF06E
:10430000F1FD11E003210120344A92ED000A0AF088
:1043100094FE3349087003210220324A92ED000ACC
:104320000AF08BFE2E49087090E13348007801288E
:104330006BD12F4890ED000AF1EE080AB4EEE00AC6
:10434000F1EE10FA09D801210846244A92ED000A3C
:104350000AF073FE224908700DE001200BF0A4F969
:104360000122002102200AF02EFD1B480078401C8B
:10437000C1B219480170164890ED000A5FEDEC0AD1
:10438000B4EEE00AF1EE10FA12D890ED000ADFED7B
:10439000110AB4EEE00AF1EE10FA09DD0421022060
:1043A000104A92ED000A0AF048FE0D4908703EE0FE
:1043B000074890ED000ADFED070AB4EEE00AF1EEDF
:1043C00010FA34D802200BF06FF90348007815E09A
:1043D0008C000020000016440E0000207800002011
:1043E000740000207C000020080000203C04002015
:1043F000880000204004002013000020C01EFE4959
:10440000087001200CF06EFD11E001210846FB4A06
:1044100092ED000A0AF011FEF94908700421022009
:10442000F84A92ED000A0AF008FEF54908700DE11D
:10443000F5480078012877D1F44890ED000ADFEDC7
:10444000F40AB4EEE00AF1EE10FA12D890ED000A88
:10445000F1EE080AB4EEE00AF1EE10FA09DD0221ED
:104460000120E64A92ED000A0AF0E7FDE4490870EF
:1044700026E0E64890ED000AF1EE080AB4EEE00A04
:10448000F1EE10FA05D8DC480078401EDA490870D1
:104490000EE0DE4890ED000ADFEDDD0AB4EEE00A42
:1044A000F1EE10FA04DDD4480078401CD2490870BF
:1044B00001200BF0F9F80122002104200AF083FC0E
:1044C000D44890ED000ADFEDD40AB4EEE00AF1EE34
:1044D00010FA12D890ED000A5FED420AB4EEE00A3D
:1044E000F1EE10FA09DD04210220C64A92ED000A1D
:1044F0000AF0A3FDC249087028E0C64890ED000A02
:104500005FED4C0AB4EEE00AF1EE10FA1ED802207C
:104510000BF0CAF8B8480078C01EB74908700120EF
:104520000CF0E0FC12E0FFE702210120B34A92ED1B
:10453000000A0AF082FDB249087004210220B14A43
:1045400092ED000A0AF079FDAD4908707EE0AE48B0
:104550000078012866D1AD4890ED000A5FED630A4E
:10456000B4EEE00AF1EE10FA12D890ED000ADFED99
:10457000A80AB4EEE00AF1EE10FA09DD03210120E9
:104580009E4A92ED000A0AF058FD9D49087016E017
:104590009E4890ED000ADFED9E0AB4EEE00AF1EECF
:1045A00010FA04D894480078401E934908700120FE
:1045B0000BF07AF80122002106200AF004FC95484D
:1045C00090ED000ADFED940AB4EEE00AF1EE10FA85
:1045D00012D890ED000A5FED810AB4EEE00AF1EE28
:1045E00010FA09DD04210220864A92ED000A0AF041
:1045F00024FD8349087027E0864890ED000A5FEDAE
:104600008B0AB4EEE00AF1EE10FA1DD802200BF08E
:104610004BF879480078C01E7749087001200CF0EB
:1046200061FC11E003210120744A92ED000A0AF0B6
:1046300004FD7349087004210220724A92ED000AB9
:104640000AF0FBFC6E49087000E000BF4EE37348BF
:104650000078C8B371480078012804D0022834D00B
:1046600003287DD162E06E4890ED000A674880ED36
:10467000000A0120654991ED000AFCF7D3F85F4874
:1046800080ED000A0A2101205C4A92ED000A0AF03E
:10469000D4FC5B490870634890ED000A5D4880EDEA
:1046A000000A02205B4991ED000AFCF7BBF855486F
:1046B00080ED000A0A210220524A92ED000A0AF017
:1046C000BCFC4F49087065E065E0574890ED000A72
:1046D0004E4880ED000A01204C4991ED000AFCF79C
:1046E000A1F8464880ED000A0A210120434A92EDD4
:1046F000000A0AF0A2FC424908704C4890ED000AFA
:10470000444880ED000A0220424991ED000AFCF77E
:1047100089F83C4880ED000A0A210220394A92EDCE
:10472000000A0AF08AFC3649087033E0404890EDF0
:10473000000A364880ED000A0120344991ED000A54
:10474000FCF770F82D4880ED000A022101202B4A69
:1047500092ED000A0AF071FC29490870354800E022
:1047600017E090ED000A2B4880ED000A022029494D
:1047700091ED000AFCF756F8224880ED000A02216C
:104780000846204A92ED000A0AF057FC1C490870BE
:1047900000E000BFAAE22848007868B12748007806
:1047A0000228F7D10A210120254A92ED000A0AF0D9
:1047B00044FC1349087099E222480078D0B122489D
:1047C0000078012802D002287DD157E01F4890EDE3
:1047D000000A0E4880ED000A90ED000A074880EDBF
:1047E000000A0A210120054A92ED000A0AF025FC80
:1047F00003492DE06FE000000E000020780000204B
:10480000740000207C00002013000020880000209D
:10481000000070428C0000200000FA440F000020CD
:104820008C040020940400208804002090040020C0
:104830005C040020600400201200002038040020E6
:10484000440400200B0000200A0000204C0400203B
:104850000870F84890ED000AF74880ED000A90EDE6
:10486000000AF64880ED000A0A210220F34A92ED80
:10487000000A0AF0E2FBF24908702BE0F14890EDE3
:10488000000AF14880ED000A90ED000AEF4880ED43
:10489000000A0A210120ED4A92ED000A0AF0CDFB40
:1048A000E7490870EA4890ED000AE34880ED000A05
:1048B00090ED000AE14880ED000A0A210220DF4A5B
:1048C00092ED000A00E004E00AF0B7FBDC49087052
:1048D00000E000BF0AE2DF4800780028FAD0DE4896
:1048E000008800F4004070B3DC48007804284DD103
:1048F000DB4800680690002801DB069801E0069876
:10490000404214280CDBD6480068A0F5B47007902C
:10491000002801DB079801E007984042142802DADA
:1049200002200AF0D5FECE480068783807900028AB
:1049300001DB079801E007984042142804DA0220BE
:104940000AF0D0FE13E021E0C5480068F038079077
:10495000002801DB079801E007984042142803DA99
:1049600002200AF0C9FE02E002200AF08AFE0A21B3
:104970000120BB4A92ED000AB8EE400A0AF05DFB46
:10498000AF4908700520B549087054E0B248008866
:1049900000F4804048B3B1480078042825DAB148D3
:1049A0000078012847D10020AE490870AE48007851
:1049B00010B1012808D103E00120AB49087004E0E0
:1049C0000020A949087000E000BF00BFA648007899
:1049D000012803D102200AF099FE02E002200AF029
:1049E0005AFE01200AF074FE25E09B48008800F47E
:1049F000804000BB9B48007801281CD100209949C9
:104A000008709948007810B1012808D103E001210D
:104A10009548017004E000209349087000E000BF51
:104A200000BF91480078012802D10AF047FE02E059
:104A300001200AF030FE8848008800F4004020B3CE
:104A400086480078032820D10021884805F018FC0A
:104A50008748006887490988B0FBF1F201FB120022
:104A600085490860084600684FF4B471484381499D
:104A70000988B0FBF1F08049086008460068784971
:104A8000086004207549087030E17348008800F41C
:104A90008040D8B3794890ED000A674880ED000A5D
:104AA0000A210220644A92ED000A0AF0C6FA64491B
:104AB0000870614890ED000AF2EE040AB4EEE00AD4
:104AC000F1EE10FA0AD265480078012806D10220DA
:104AD0006249087000200BF0B7FF0FE0564890EDD8
:104AE000000AF2EE040AB4EEE00AF1EE10FA05DD77
:104AF0005A480078012801D1584908705748007871
:104B0000022842D14C4890ED000A00E04FE0DFED72
:104B10005C0AB4EEE00AF1EE10FA31DD5948007893
:104B2000401C5849087008460078012805D14248C1
:104B300090ED000A544880ED000A5248007805289C
:104B40001ED13D4890ED000A4F48D0ED000A30EEEE
:104B5000600ABDEEC00A8DED070A0798002801DB48
:104B6000079801E00798404205280ADA0121002051
:104B700004F060FB002043490870032037490870A7
:104B8000B4E000203F490870B0E0344800780328C2
:104B90000CD1294890ED000AF2EE040AB4EEE00AC6
:104BA000F1EE10FA02D202202C4908709EE02A4849
:104BB000008800F48040D8BB304890ED000A1E48C1
:104BC00080ED000A0A2102201B4A92ED000A0AF039
:104BD00034FA1B490870184890ED000ADFED280AE6
:104BE000B4EEE00AF1EE10FA68DD1C48007800BB74
:104BF00024480078012806D10F4890ED000A224889
:104C000080ED000A54E01F480078052850D10A487A
:104C100090ED000A1C48D0ED000A30EE600ABDEEAF
:104C2000C00A8DED070A079800282FDB07982FE0B0
:104C30005CE043E0500400208C0000207C00002059
:104C40007400002054040020880000207800002018
:104C5000580400200D000020500500201400002002
:104C6000700000206905002018000020000C0040A2
:104C70005405002058050020380000203C04002086
:104C80000000C8429C000020980000200798404285
:104C900005280ADA0121002004F0CCFA0020F949A5
:104CA00008700120F849087002E00020F5490870FA
:104CB000F4480078401CF349087017E0F34890ED81
:104CC000000A5FED110AB4EEE00AF1EE10FA0DD21F
:104CD000ED480078012809D10021EB480170084611
:104CE00004F0A8FA0021EA4805F0CAFA02F018BD5B
:104CF000E84890ED000AE84880ED000A90ED000ACF
:104D0000F3EE0E0AB4EEE00AF1EE10FA05DD012230
:104D1000032100200AF057F804E000220321104686
:104D20000AF051F8DD480078E0BBDD480078C8BBE8
:104D3000DC48007820B101281BD002284CD132E099
:104D4000D94890ED000AD94880ED000A0120D749E2
:104D500091ED000AFBF766FDD54880ED000A0A21B7
:104D60000120D34A92ED000A0AF067F9D149087090
:104D700033E0D14890ED000ACC4880ED000A0120D4
:104D8000CA4991ED000AFBF74DFDC94880ED000AC4
:104D90000A210120C64A92ED000A0AF04EF9C549DF
:104DA00008701AE08AE0C54890ED000ABF4880ED1F
:104DB000000A0120BD4991ED000AFBF733FDBC4814
:104DC00080ED000A0A210120B94A92ED000A0AF09A
:104DD00034F9B849087000E000BF00BFB848007857
:104DE00030B101281DD0022834D0032864D14AE014
:104DF000B44890ED000AA54880ED000A0220A349BE
:104E000091ED000AFBF70EFDA94880ED000A012193
:104E10000220A74A92ED000A0AF00FF9A54908708E
:104E20004BE0A94890ED000A984880ED000A022066
:104E3000964991ED000AFBF7F5FC9D4880ED000ACC
:104E4000012102209A4A92ED000A0AF0F6F89949E7
:104E5000087032E09D4890ED000A8C4880ED000A11
:104E600002208A4991ED000AFBF7DCFC904880EDB6
:104E7000000A0A2102208E4A92ED000A0AF0DDF8AB
:104E80008C49087019E0924890ED000A7F4880ED47
:104E9000000A02207D4991ED000AFBF7C3FC84481B
:104EA00080ED000A0A210220814A92ED000A0AF0F0
:104EB000C4F88049087000E000BF63E278480078D9
:104EC00098B38448007801280CD1002081490870EB
:104ED0000A210220804A128800EE102AB8EE400A09
:104EE0000AF0ABF87648007830B101281ED00228CD
:104EF00035D0032865D14BE0784890ED000A6B4827
:104F000080ED000A0120694991ED000AFBF78AFC57
:104F1000674880ED000A0A210120654A92ED000AE7
:104F20000AF08BF8634908704CE04CE06C4890ED57
:104F3000000A5E4880ED000A01205C4991ED000AFC
:104F4000FBF770FC5A4880ED000A0A210120584AFC
:104F500092ED000A0AF071F85649087032E0614893
:104F600090ED000A514880ED000A01204F4991ED73
:104F7000000AFBF757FC4E4880ED000A0A21012089
:104F80004B4A92ED000A0AF058F84A49087019E0B5
:104F9000554890ED000A454880ED000A012043493C
:104FA00091ED000AFBF73EFC414880ED000A0A2122
:104FB00001203F4A92ED000A0AF03FF83D4908708F
:104FC00000E000BFDEE1354800780028FAD047480D
:104FD0000078012812D10020444908704448007824
:104FE00010B1012808D103E001204149087004E014
:104FF00000203F49087000E000BF00BF3D48007836
:10500000072879D2DFE800F00486CDF6F5F4F30046
:105010003748007810B1012816D10AE00022032198
:10502000092009F0D0FE002211460B2009F0CBFE2A
:105030000BE001220321092009F0C5FE0122002115
:105040000B2009F0C0FE00E000BF00BF154800784B
:1050500020B101280CD0022859D14EE00A210120AC
:10506000114A92ED000A09F0E8FF124908704FE07A
:105070000A210120104A92ED000A09F0DEFF0D49D5
:10508000087045E09C000020140000208C000020E7
:10509000000C00403C040020900000200B00002089
:1050A0001200002008000020640400208800002076
:1050B0007800002074000020680400206C040020A8
:1050C0000F00002080040020840400209C040020A5
:1050D00098040020010500206605002070040020CF
:1050E00074040020780400203400002069050020AA
:1050F000180000200D00002042E10A210120F64A9C
:1051000092ED000A09F099FFF449087000E000BF31
:1051100000BF36E1F248007810B1012816D10AE04C
:10512000002203210A2009F04EFE002211460B2026
:1051300009F049FE0BE0012203210A2009F043FE99
:10514000012200210B2009F03EFE00E000BF00BF5D
:10515000E448007820B101280CD002281ED113E0C9
:105160000A210120E04A92ED000A09F066FFDB49BE
:10517000087014E00A210120DC4A92ED000A09F0CF
:105180005CFFD64908700AE00A210120D24A92ED5C
:10519000000A09F052FFD149087000E000BF00BFCB
:1051A000EFE0CF48007810B1012816D10AE00022C4
:1051B00001210B2009F007FE002211460B2009F007
:1051C00002FE0BE0012211460B2009F0FCFD01223A
:1051D00000210B2009F0F7FD00E000BF00BFC1482F
:1051E000007840B1012810D0022822D117E09EE0BB
:1051F00074E04AE020E00A210120BB4A92ED000A57
:1052000009F01BFFB549087014E00A210120B74AD4
:1052100092ED000A09F011FFB04908700AE00A2176
:105220000120AD4A92ED000A09F007FFAB49087072
:1052300000E000BF00BFA4E0AA48007820B1012828
:105240000CD002281ED113E00A210120A84A92EDB9
:10525000000A09F0F2FEA149087014E00A210120B9
:10526000A44A92ED000A09F0E8FE9C4908700AE0A1
:105270000A210120A04A92ED000A09F0DEFE9749BA
:10528000087000E000BF00BF7BE09648007820B1C6
:1052900001280CD002281ED113E00A210120974AD0
:1052A00092ED000A09F0C9FE8C49087014E00A2149
:1052B0000120934A92ED000A09F0BFFE8749087069
:1052C0000AE00A2101208F4A92ED000A09F0B5FE9A
:1052D0008249087000E000BF00BF52E081480078BA
:1052E00020B101280CD002281ED113E00A21012090
:1052F000854A92ED000A09F0A0FE7849087014E092
:105300000A210120814A92ED000A09F096FE7349B4
:1053100008700AE00A2101207D4A92ED000A09F096
:105320008CFE6E49087000E000BF00BF29E06D48A8
:10533000007820B101280CD002281ED113E00A21E8
:105340000120744A92ED000A09F077FE6349087063
:1053500014E00A210120704A92ED000A09F06DFE66
:105360005E4908700AE00A2101206C4A92ED000AA9
:1053700009F063FE5949087000E000BF00BF00E07B
:1053800000BF00BFB2E457480078002875D16448D8
:1053900090ED000A634880ED000A6348634909788C
:1053A00000EB810090ED000A5E48D0ED000A30EE7F
:1053B000C00A5D4814305D49097800EB8100D0EDEA
:1053C000000A20EE200A574880ED000A90ED000AFE
:1053D000574880ED000A0120524991ED000AFBF781
:1053E00021FA544880ED000A9FED530A534880ED9E
:1053F000000A4E48007805286DD2DFE800F0033F30
:10540000CBF2F100012202211A2009F0DCFC4C4809
:105410000078012818D14B48007960B94A480068E3
:1054200041F63801884206D80120424991ED000A30
:105430000AF047F81BE001200AF036F93B480078F3
:10544000401C3A49087012E03E48007960B93E4875
:10545000006841F63801884206D80120354991EDAF
:10546000000A0AF02EF802E001200AF020F80122DA
:105470000021062009F0A7FC9EE1B4E100220221F0
:105480001A2009F0A0FC2E480078012868D12D4888
:105490000079012811D12C48006841F63801884272
:1054A0000BD829480068B0F5117F06D301202149A7
:1054B00091ED000A0AF005F866E001200AF0F4F820
:1054C00020480079012841DA18480078401EC1B20E
:1054D0001648017058E06EE16C0400207400002052
:1054E0001800002008000020640400206804002048
:1054F0003C00002040000020440000204800002024
:105500004C000020500000205400002058000020D3
:105510005C00002060000020640000206800002083
:105520004405002080000020306E00200E00002086
:10553000B40000207800002000000000900000204F
:1055400013000020B86E002040050020FE480079BE
:10555000012819DDFD480078401CFC49087013E063
:10556000F948007901280CD1F948016841F6380062
:10557000814206D80120F74991ED000A09F0A1FF08
:1055800002E0012009F093FF01220021022009F02E
:105590001AFC11E1F048007801283AD1EA48007974
:1055A00002281FD1EA48006841F63801884219D81C
:1055B000E7480068B0F5117F14D30120E54991ED6B
:1055C000000A09F07EFFE24890ED000AB8EE400ABA
:1055D000DFEDE20A80EE201AE14880ED001A38E0A3
:1055E000A1E03CE001200AF05FF8D74800790228EA
:1055F00005DAD6480078401ED449087029E0D24820
:105600000079022825DDD1480078401CCF49087078
:105610001FE0CD480079022818D1CD48006841F636
:105620003801884212D80120CA4991ED000A09F0D8
:1056300048FFC74890ED000AB8EE400ADFEDC70A00
:1056400080EE201AC64880ED001A02E0012009F021
:105650002EFF01220021042009F0B5FBACE0BE487A
:105660000078012839D1B848007903281DD1B848FD
:10567000006841F63801884217D8B5480068B0F58F
:10568000117F12D30120B34991ED000A09F019FFEF
:10569000AF4890ED000AB8EE400AF2EE040A80EE40
:1056A000201AAF4880ED001A37E0012009F0FCFF16
:1056B000A5480079032805DAA4480078401EA349CC
:1056C00008702AE0A0480079032826DD9F4800786A
:1056D000401CC1B29D4801701FE09B48007903281F
:1056E00018D19B48016841F63800814212D8012048
:1056F000984991ED000A09F0E4FE954890ED000A02
:10570000B8EE400AF2EE040A80EE201A944880EDCA
:10571000001A02E0012009F0CAFE01220021062041
:1057200009F051FB48E08C480078012827D18648D1
:105730000079042818D186480068B0F5117F13D38A
:1057400083480068B0F57A7F0ED80120814991ED39
:10575000000A09F0B6FE7E4890ED000AB8EE400A55
:105760007F4880ED000A25E0012009F09DFF764882
:10577000007904281EDA0320744908701AE0724880
:105780000079042813D172480068B0F57A7F0ED8EA
:105790000120704991ED000A09F093FE6C4890EDEC
:1057A000000AB8EE400A6E4880ED000A02E00120CF
:1057B00009F07DFE00E000BF00BF694890ED000ADF
:1057C000DFED680AB4EEE00AF1EE10FA05DD012221
:1057D0000321002009F0F7FAFEE30022032110461E
:1057E00009F0F1FAF8E3604800780128F4D15F4845
:1057F000007888BB5E4890ED000A5E4880ED000AA4
:1058000001205C4991ED000AFBF70CF8514880ED4E
:10581000000A1FEDB70A524880ED000A4B48007895
:1058200030B101283BD0022876D0032875D117E18A
:1058300049480078012819D14348007968B944489B
:10584000006841F63801884207D80120414991EDAE
:10585000000A09F036FE1CE060E1012009F024FF97
:105860003A480078401C3949087012E036480079FF
:1058700060B93748006841F63801884206D80120EF
:10588000344991ED000A09F01CFE02E0012009F004
:105890000EFE01220021022009F095FA27E12E4890
:1058A000007801283AD12848007901281DD12848DC
:1058B000016841F63800814217D825480068B0F5E4
:1058C000117F12D30120234991ED000A09F0F9FD5F
:1058D0001F4890ED000AB8EE400ADFED200A80EE86
:1058E000201A1F4880ED001A51E0012009F0DCFE6B
:1058F00015480079012805DA14480078401E13493C
:10590000087044E010480079012840DD0F48007815
:10591000401C0E4908703AE03FE0E7E00A48007991
:10592000012831D10A48006841F6380188422BD855
:105930000120084991ED000A09F0C3FD044890EDEB
:10594000000AB8EE400A17E0B86E00200E000020F2
:105950004005002078000020130000200000C8420D
:105960009000002000004842080000200F000020A6
:1059700044050020800000205FED080A80EE201A18
:10598000FE4880ED001A02E0012009F090FD01229E
:105990000021042009F017FAA9E0F948007801284D
:1059A00038D1F848007902281DD1F748006841F63F
:1059B0003801884217D8F4480068B0F5117F12D337
:1059C0000120F24991ED000A09F07BFDEE4890EDCF
:1059D000000AB8EE400AF2EE040A80EE201AE74808
:1059E00080ED001A36E0012009F05EFEE5480079FE
:1059F000022805DAE6480078401EE549087029E0EB
:105A0000E0480079022825DDE1480078401CE049A3
:105A100008701FE0DB480079022818D1DA480068D6
:105A200041F63801884212D80120D84991ED000A88
:105A300009F047FDD44890ED000AB8EE400AF2EEB6
:105A4000040A80EE201ACD4880ED001A02E0012001
:105A500009F02DFD01220021062009F0B4F946E0ED
:105A6000C7480078012829D1C6480079032818D1F1
:105A7000C5480068B0F57A7F13D8C3480068B0F510
:105A8000117F0ED30120C14991ED000A09F019FDE3
:105A9000BD4890ED000AB8EE400AB84880ED000A13
:105AA00023E0012009F000FEB648007903281CDA43
:105AB000B7480078401EB649087016E0B248006842
:105AC000B0F57A7F0ED80120B04991ED000A09F0B7
:105AD000F8FCAD4890ED000AB8EE400AA74880ED0A
