:020000040800F2
:1000000008760020999500082D7600082F760008C4
:1000100033760008377600083B76000800000000C1
:100020000000000000000000000000003F76000813
:10003000417600080000000043760008457600087D
:10004000B3950008B3950008B3950008B395000870
:10005000B3950008B3950008B3950008B395000860
:10006000F5780008B3950008B3950008B39500082B
:10007000B3950008B3950008B3950008B395000840
:10008000B3950008B3950008B3950008B395000830
:10009000B3950008B3950008B39500080D790008E2
:1000A000B3950008B3950008B3950008B395000810
:1000B000CD77000841790008A37B0008B3950008BC
:1000C000B3950008B3950008B3950008B3950008F0
:1000D000B3950008CF7700089F780008B395000813
:1000E000B3950008B3950008B3950008457B000858
:1000F000877B00086B7B0008000000000000000008
:10010000000000000000000067760008B3950008BA
:100110000000000000000000B3950008B39500083F
:10012000B3950008B395000847760008B39500081A
:10013000B39500080F7C0008B3950008B39500083C
:10014000B39500080000000000000000000000005F
:10015000000000000000000000000000000000009F
:100160000000000000000000B3950008B3950008EF
:10017000B395000800000000B395000800000000DF
:1001800000000000B3950008DFF80CD012F0C8FBA7
:1001900000480047010200080876002010B500243E
:1001A0000EF068FC0BF07AFF0BF072FF0FF0C0F856
:1001B0000FF0EDF80FF025F90EF023FD10F095FE8D
:1001C0004FF4E13011F02FF94FF4FA700BF0A3FF68
:1001D00010F0E9FF044610F0ABFF10F04CFF0FF0F9
:1001E000BAFD11F077F911F0D2F911F077FA11F0A8
:1001F00007FA4FF4E16011F033FA11F097F910BDEE
:10020000FFF7CCFF0EF0B0FD2449087008460078D7
:1002100005280DD10F2008700120214908700FF02A
:10022000B6F801200FF0ECFC4FF4FA600BF073FF0E
:100230001C48006820F470701A49086001211A48AF
:100240000AF004FA28E019480078012811D10020AA
:100250001649087016480088401C15490880084651
:10026000008841F28831884203D10FF090F80BF0FA
:100270007FFF10480078012803D00F48007801283C
:1002800004D100200A49088000F029FB00F000F9A1
:1002900002F091FF08F046FED5E70000300500208F
:1002A000000000200004014000040040660500201A
:1002B00002000020290500202A050020F84890EDC2
:1002C000000AF84880ED000AF74890ED000AF74868
:1002D00080ED000AF64890ED000AF64880ED000A2D
:1002E000F54890ED000AF54880ED000A9FEDF40A0C
:1002F000EB4880ED000A9FEDF20AEB4880ED000A22
:100300009FEDEF0AEA4880ED000A9FEDED0AEA480A
:1003100080ED000A9FEDEA0AEA4880ED000A9FEDB1
:10032000E80AE94880ED000A9FEDE50AE74880ED1C
:10033000000A9FEDE30AE64880ED000A9FEDE00A1F
:10034000E44880ED000A704710B5E34800780728BC
:1003500010DC11F0F2F911F0FEF90121DF4809F08B
:1003600092FE0121DE4809F08EFE0121DD480AF0EF
:100370006DF91BE0D8480078082817DBD6480078CC
:100380000F2813D011F0E0F911F0ECF90021D34857
:1003900009F079FE0021D24809F075FE0021D1480C
:1003A0000AF054F90021D0480AF050F910BD10B5F8
:1003B000C9480078801F052865D2DFE800F0031ADD
:1003C0001E364700C948007820B1012806D002280F
:1003D0000CD107E0042010F0D4FC08E0032010F05A
:1003E000D0FC04E0042010F0CCFC00E000BF00BF13
:1003F0004AE0042010F0C5FC46E0BC48007810B18B
:1004000001280FD103E0052010F0BBFC0BE0B84839
:10041000007818B9042010F0B4FC02E0122010F0AB
:10042000B0FC00E000BF00BF2EE0B048007810B183
:10043000012808D103E0092010F0A3FC04E00A2001
:1004400010F09FFC00E000BF00BF1DE0A74800784F
:1004500030B1012808D002280AD0032810D10BE0BF
:10046000072010F08EFC0CE00B2010F08AFC08E056
:10047000132010F086FC04E0132010F082FC00E052
:1004800000BF00BF00E000BF00BFFFF75DFF10BD71
:1004900010B598480078002875D18F480078801FE3
:1004A000052871D2DFE800F0031527475E006320BE
:1004B0000FF02AFDBCEEC00A10EE100A8E4908703B
:1004C00060200FF021FD8D4880ED000A0CF04EFEFB
:1004D0007AE063200FF018FDBCEEC00A10EE100A9F
:1004E0008549087060200FF00FFD844880ED000AF8
:1004F0000CF03CFE68E07E48007830B960200FF0D8
:1005000003FD7E4880ED000A14E079480078012858
:1005100006D161200FF0F8FC784880ED000A09E070
:1005200073480078022805D162200FF0EDFC744872
:1005300080ED000A48E06D48007810B101280ED126
:1005400006E060200FF0E0FC6C4880ED000A07E058
:1005500060200FF0D9FC694880ED000A00E000BF80
:1005600000BF31E06148007830B101280DD0022889
:1005700012D0032824D116E060200FF0C5FC5F489C
:1005800080ED000A1DE020E01DE060200FF0BCFCC3
:100590005A4880ED000A14E060200FF0B5FC57487F
:1005A00080ED000A0DE060200FF0AEFC9FED551AC3
:1005B000DFED550A40EE010A5048C0ED000A00E0A8
:1005C00000BF00BF00E000BF00BF10BD10B54F4826
:1005D000007810B101280CD105E0002202211D2075
:1005E0000EF061FE06E0012202211D200EF05BFEEE
:1005F00000E000BF00BF10BD10B54548007820B135
:1006000001280DD0022821D115E0002211460A2030
:100610000EF049FE002201210A200EF044FE16E0F1
:10062000002211460A200EF03EFE012211460A2049
:100630000EF039FE0BE0012200210A200EF033FEFD
:10064000002201210A200EF02EFE00E000BF00BFB4
:1006500010BD10B52F48007810B101280CD105E06D
:100660000022114609200EF01EFE06E001220021A4
:1006700009200EF018FE00E000BF00BF10BD10B54D
:1006800025480078012849D1012202211C200EF0C2
:100690000AFE002203211C200EF005FE48E00000A7
:1006A00038040020A0000020EC040020A40000205A
:1006B0003C040020A8000020F0040020AC00002032
:1006C0000000000090000020880000208C00002026
:1006D000780000207C0000202E05002000600140F2
:1006E00000640140005C0140000C00400800002054
:1006F0000F000020100000209D0000204005002079
:10070000440500206666E63F000000420900002024
:100710000A0000200C00002013000020002202210B
:100720001C200EF0C0FD012203211C200EF0BBFD99
:1007300010BDF0EE400A012826D1FE49097821B10A
:10074000012903D002291DD10EE01CE0FA4991EDE8
:10075000000AF4EEC00AF1EE10FA01DDC1ED000A64
:10076000F54991ED000A7047F44991ED000AF4EE65
:10077000C00AF1EE10FA01D2C1ED000AEF4991ED85
:10078000000AF0E700BF28E0022826D1E9490978ED
:1007900021B1012903D002291DD10EE01CE0E84956
:1007A00091ED000AF4EEC00AF1EE10FA01DDC1EDA0
:1007B000000AE34991ED000AD5E7E24991ED000A0C
:1007C000F4EEC00AF1EE10FA01D2C1ED000ADD49E3
:1007D00091ED000AC7E700BF00BFB0EE600AC2E7B4
:1007E000F0EE400A012805D1D74991ED000A30EE1C
:1007F000C00A7047022805D1D44991ED000A30EEB5
:10080000C00AF6E700BFF4E700B5B0EE401A0246B2
:10081000C848007828B11046B0EE410AFFF789FFBA
:1008200000BDCB48007828B11046B0EE410AFFF772
:10083000D7FFF5E7B0EE410AF2E700B5F0EE401A57
:1008400003461846B0EE610AFFF7DEFF9FEDC11ABE
:10085000C0EE010AB0EE600A00BD10B5B0EE402A4D
:1008600004462046B0EE420AFFF7E7FF9FEDB91AB3
:10087000C0EE010AB0EE600A10BD10B5922300224E
:10088000422150200FF0DEFA50200FF00FFBB2494A
:10089000087008460078012820D1002008705121F6
:1008A00008460FF0CFFA51200FF000FBAA4908705C
:1008B00008460078012811D100200870A748407828
:1008C00000F0010028B1012203211D200EF0EBFCF5
:1008D00004E0002203211D200EF0E5FC10BD10B540
:1008E0002DED088B9E480078012856D1FFF7E6FCD5
:1008F00000209B49087010F017FB002099490870F0
:100900008C49087098490870914908709749087097
:100910009749087097490870974908709749087077
:10092000002404E0002096490855601CC4B2102C35
:10093000F8DB94480078801F052826D2DFE800F015
:10094000030B13191F0024208D4988730820087396
:10095000802088721AE00420894988731120487326
:100960000420C87212E005208549887308200873A6
:100970000CE00120824908702020087306E0202046
:100980007F4908730420887300E000BF00BF0EF0A9
:100990001CFDFFF71BFEFFF70AFD7B4800780128CE
:1009A00042F00684FFF78AFC00207749087010F0B7
:1009B000BBFA74480078801F052882F09B83DFE82B
:1009C00010F00500BC05D60B070F05106F48007826
:1009D00001282CD168480078012828D16C4800787B
:1009E000032824D06A480078052820D0634800787E
:1009F000E8B90020654908705F4908700EF0C7FC2F
:100A0000012211461D200EF04EFC012202211C2065
:100A10000EF049FC0122032118200EF044FC0122B3
:100A2000032115200EF03FFC00205A490870584859
:100A3000007806287BD2DFE800F003C2EFEEEDEC91
:100A400052480078012873D1474800780028FAD12D
:100A5000464800780028F6D1464800780028F2D1B0
:100A6000464800780028EED13249087038490870AD
:100A70003F490870404908700120474908700EF04E
:100A800086FC3848007820B1012806D002280CD115
:100A900007E001203349087008E00220314908705E
:100AA00004E000202F49087000E000BF00BF2D487F
:100AB000007820B1012812D0022877D124E0012249
:100AC00011461D200EF0EFFB0122032118200EF02D
:100AD000EAFB0122032115200EF0E5FB67E001226D
:100AE00000211C200EF0DFFB002201211D200EF052
:100AF000DAFB0122032118200EF0D5FB012203218D
:100B000015200EF0D0FB52E0012200211C200EF037
:100B1000CAFB012200211D200EF0C5FB0122114657
:100B20001D200EF0C0FB01220321182036E0F2E365
:100B300044E03BE00A0000201C00002020000020D0
:100B400024000020280000202C000020300000207D
:100B50000C00002000007A443B050020E86D0020D6
:100B600029050020080000200B0000200D000020B7
:100B70000E0000200F0000201200002010000020B6
:100B8000D86D00202E0500202A0500202B0500200E
:100B90003005002034040020130000200EF083FBF9
:100BA0000122032115200EF07EFB00E000BF00BFF4
:100BB000FFF722FDFFF74DFDFFF761FD6FE2F948FA
:100BC0000078012856D1F8480078002852D1F7481B
:100BD000007800284ED1F648007800284AD1F14923
:100BE0000870F4490870F4490870F448007820B19E
:100BF000012806D0022810D107E00120EF49087033
:100C00000CE00220ED49087008E00020EB49087074
:100C100004E0F4E316E343E2DDE000BF00BFFFF7CA
:100C2000EBFCFFF716FDE5480078012858D1E448B1
:100C3000007800BBE34890ED000AE348D0ED000ADD
:100C400030EE600AE14880ED000A90ED000AE048CD
:100C500080ED000ADF4890ED000ADF48D0ED000A81
:100C600030EE600ADD4880ED000A90ED000ADC48B5
:100C700080ED000A34E0D2480078012816D1D2482D
:100C800090ED000AD14880ED000A90ED000AD048AE
:100C900080ED000AD04890ED000AD04880ED000AAF
:100CA00090ED000ACE4880ED000A19E0C4480078B3
:100CB000022815D1C34890ED000AC44880ED000A0F
:100CC00090ED000AC24880ED000AC24890ED000A8B
:100CD000C24880ED000A90ED000AC14880ED000A8C
:100CE000B0480078012820D1AF480078E8B1B0487A
:100CF0000078D0B90020AB490870AE490870AF4801
:100D00000078012802D0022808D103E00220AB4974
:100D1000087004E00120A949087000E000BF00BF8E
:100D2000FFF76AFCFFF795FC54E0AE480078012815
:100D300050D19E480078E8BBAB480078D0BB9E48B5
:100D40000078B8BB9A480078A0BB0020A54908707D
:100D5000984908709948007868B99348007850B964
:100D60000120914908709549087001221146092017
:100D70000EF099FA0CE08C48007848B100208A49BE
:100D800008708E4908700022012109200EF08BFAAC
:100D9000FFF732FCFFF75DFC83480078012819D18A
:100DA000924890ED000A894880ED000A904890ED45
:100DB000000A00E00EE0864880ED000A8D4890EDC4
:100DC000000A864880ED000A8B4890ED000A8448AE
:100DD00080ED000AAEE373480078012844D17248E0
:100DE0000078002840D171480078E8BB704800784E
:100DF000D0BB00206B490870704908706E490870BC
:100E00006C48007810B1012808D103E0012069493D
:100E1000087004E000206749087000E000BF00BFD0
:100E2000FFF717FCFFF7E8FB62480078002846D080
:100E300063480078F0BB7148006811F055FB41EC45
:100E40001B0BB0EE4B0AF0EE6B0A12F065FAB0EE37
:100E5000409AF0EE609A6A48006811F045FB41EC58
:100E60001A0B53EC192B00E04CE011F027FA41EC7F
:100E7000180B11F07DFB634908606348006811F0AE
:100E800033FB41EC1B0BB0EE4B0AF0EE6B0A12F099
:100E900043FAB0EE409AF0EE609A5C48006811F0B8
:100EA00023FB41EC1A0B53EC192B11F007FA41EC20
:100EB000180B00E004E011F05BFB55490860EEE020
:100EC0003F48007801280CD14C4890ED000A4D486D
:100ED00080ED000A4C4890ED000A4D4880ED000A74
:100EE000DDE03748007802280BD1454890ED000A34
:100EF000444880ED000A454890ED000A444880EDE2
:100F0000000ACCE037480078012849D1264800780B
:100F1000002845D134480078002841D1264800787F
:100F200000283DD122480078002839D12D49087089
:100F3000224908701F490870364908702A4908700C
:100F4000012035490870002034490870174800789E
:100F500010B1012808D103E001201449087004E011
:100F600000201249087000E000BF00BF0F48007861
:100F700010B101287ED155E0002203211B200EF084
:100F800092F90122032118200EF08DF9012203218C
:100F900015200EF088F90021214809F057FB77E071
:100FA0007DE000002B0500200B0000200D0000203C
:100FB000100000200C000020120000200A00002079
:100FC0000800002038040020EC0400201C00002051
:100FD000200000203C040020F00400202400002019
:100FE000280000202C0500200F00002048040020CD
:100FF000500400204C04002054040020A4000020D1
:10100000A00000202C000020AC000020A800002040
:10101000300000200E0000201300002014000020EB
:10102000002000400022022110460EF03CF9002270
:1010300002210A200EF037F9012203211B200EF0B5
:1010400032F90022032118200EF02DF9002203218D
:1010500015200EF028F901200EF08DFD02200EF073
:101060008AFD0121FB4809F0F1FA0020FA490880C5
:10107000002100E00BE0084608F0C2FA1021F74812
:1010800009F0BBFE0121F64809F0E0FA00E000BFDC
:1010900000BFFFF7DEFAFFF7AFFAFFF7F0FA49E219
:1010A000F0480078012866D1EF480078C0BBEF48CF
:1010B0000078A8BBEE48007890BBEE48007878BB7B
:1010C000ED48007860BB0020E6490870EB490870E5
:1010D000EB490870EB480078012812D10020E9495B
:1010E00008705B2108460EF0ADFE5B200EF0DEFEC0
:1010F000E549087008460078012835D100200870BD
:1011000032E0E248007806282CD2DFE800F0030A3B
:1011100010171E250120DD4908700FF04AFE22E05D
:1011200029E00220D94908700FF043FE1BE003209C
:10113000D649087000200FF03CFE14E00420D3498B
:10114000087001200FF035FE0DE00520CF49087032
:1011500002200FF02EFE06E00020CC4908700FF0B0
:1011600028FE00E000BF00BFFFF789FAFFF771FA21
:10117000FFF742FA65E0BB480078012834D1BD484A
:101180000078012830D1BC48007868BB0020B54900
:101190000870BF49087001200EF0F6FCBB480078CB
:1011A00010B1012808D103E00120B849087004E01B
:1011B0000020B649087000E000BF00BFB3480078C7
:1011C00010B101280ED106E0032102209FEDB10AE3
:1011D0000EF0A3F907E0042102209FEDAF0A0EF004
:1011E0009CF900E000BF2CE0AC480078012828D131
:1011F0009D48007828BBA048007810BB0020A74974
:101200000870A048007801281BD001209D49087073
:101210005A2108460EF016FE5A200EF047FE9A4953
:10122000087008460078012801D1002008700122CA
:1012300002211C200EF037F8002203211C200EF0A2
:1012400032F877E18748007801283CD18648007859
:10125000C8BB86480078B0BB8748007898BB0020A0
:101260008049087085490870854908708749087069
:101270000120844908700EF08AF87D48007830B16A
:10128000012808D002280AD0032810D10BE0012041
:10129000774908700CE002207549087008E00320C7
:1012A0007349087004E000207149087000E000BF35
:1012B00000BF6F48007838B1012810D0022819D03B
:1012C000032829D121E056E00122032118200DF046
:1012D000EAFF0122032115200DF0E5FF1DE00122A8
:1012E000002113200DF0DFFF0122002115200DF059
:1012F000DAFF12E00122002113200DF0D4FF0122B9
:10130000002114200DF0CFFF07E001221146162026
:101310000DF0C9FF01E00CE100BF00BF604800789C
:1013200020B1012808D002281CD10BE0012211466F
:101330001D200DF0B8FF16E0012200211C200DF049
:10134000B2FF10E0012200211C200DF0ACFF0122B1
:1013500000211D200DF0A7FF012211461D200DF0D8
:10136000A2FF00E000BF00BFFFF746F9FFF771F9E9
:10137000FFF785F942E04948007801283ED13A4814
:101380000078D8BB39480078C0BB39480078A8BB82
:101390003848007890BB3848007878BB00203F4937
:1013A0000870364908703649087038490870304965
:1013B000087001202F490870324908700DF0E7FFCE
:1013C0000122022117200DF06EFF012200211A20B8
:1013D0000DF069FF0122032115200DF064FF0120AB
:1013E0000EF0D2FB032102209FED2A0A0EF095F8A1
:1013F000FFF72FF9FFF700F9FFF741F99AE0FFE750
:1014000028480078012818D127480078062813D1E9
:101410002348007801280FD12449087000200FF0DC
:1014200083FD4FF47A700AF076FE00200FF07CFD09
:101430004FF47A700AF06FFE7AE00A4800780128CB
:1014400055D10020074908700B48007880B3012867
:1014500037D132E0002000404C050020000C004055
:10146000005C01402B0500200B0000200D00002037
:101470000F00002012000020100000200A000020B1
:101480000C000020130000203B0500200E0000206F
:1014900034040020000016440000FA442C0500200B
:1014A00008000020000000202E050020150000206C
:1014B000FFE70120FD49087004E00020FB490870A7
:1014C00000E000BF00BFF948007810B101280CD13E
:1014D00005E0002201211C200DF0E5FE06E00122BE
:1014E00011461C200DF0DFFE00E000BF20E0F048B8
:1014F000007801281CD10020ED490870ED480078E3
:1015000010B1012808D103E00120EA49087004E085
:101510000020E849087000E000BF00BFE5480078FF
:1015200010B1012802D100E001E000E000BF00BFDF
:1015300000E000BF00BF01F0DEBDDF4800780628F4
:101540007CD2DFE800F003C1FCFBFAF9DB4800784D
:10155000012861D1DA480078D0BBDA480078B8BBFE
:10156000D2480078A0BB0020D7490870D74908703E
:10157000D7490870D748007820B1012806D0022842
:101580000CD107E00120D349087008E00220D149BE
:10159000087004E00020CF49087000E000BF00BFE1
:1015A000CC48007820B1012813D002282CD120E0AB
:1015B0000022012117200DF076FE012200211A20C1
:1015C0000DF071FE012200211B200DF06CFE1CE0CD
:1015D00022E0002211461A200DF065FE002211467D
:1015E0001B200DF060FE0122002119200DF05BFE92
:1015F0000BE00022114619200DF055FE0122114684
:1016000017200DF050FE00E000BF00BFFEF7F4FF12
:10161000FFF71FF8FFF733F8A8480078012852D1E8
:10162000A748007888B3A148007870BBA948007823
:1016300028B1012807D002280DD108E0F0E30120ED
:10164000A449087008E00220A249087004E00020C4
:10165000A049087000E000BF00BF9E48007820B19C
:10166000012813D002282CD120E0002201211720CC
:101670000DF019FE012200211A200DF014FE0122A6
:1016800000211B200DF00FFE1CE01CE00022114683
:101690001A200DF008FE002211461B200DF003FE5B
:1016A0000122002119200DF0FEFD0BE00022114661
:1016B00019200DF0F8FD0122114617200DF0F3FD61
:1016C00000E000BF00BF87E37C480078012837D1E5
:1016D0007B480078A0BB7548007888BB002077491C
:1016E00008707A4908707848007820B1012806D03F
:1016F00002280CD107E001207349087008E002209D
:101700007149087004E000206F49087000E000BFD4
:1017100000BFFEF771FFFEF79CFF6B4800780128C1
:1017200070D16848007880BB6A48007848B10128C9
:1017300013D002282AD11CE0F8E34FE34DE369E11E
:10174000A3E0654890ED000A644880ED000A90ED42
:10175000000A634880ED000A19E0624890ED000A33
:101760005E4880ED000A90ED000A5D4880ED000AB9
:101770000DE05D4890ED000A584880ED000A90EDBC
:10178000000A574880ED000A01E03EE000BF00BFBC
:101790005648007830B1012810D002281AD003280A
:1017A00031D123E0524890ED000A524880ED000A02
:1017B00090ED000A504880ED000A25E04F4890ED7A
:1017C000000A4C4880ED000A90ED000A4A4880ED7E
:1017D000000A19E04A4890ED000A464880ED000AE8
:1017E00090ED000A444880ED000A0DE0454890ED78
:1017F000000A404880ED000A90ED000A3E4880ED66
:10180000000A01E040E000BF03E12E480078012813
:101810003AD13648007830B1012810D002281AD0C9
:10182000032830D123E0384890ED000A2B4880EDA2
:10183000000A90ED000A2A4880ED000A24E03348AF
:1018400090ED000A254880ED000A90ED000A24483A
:1018500080ED000A18E02E4890ED000A1F4880ED48
:10186000000A90ED000A1E4880ED000A0CE02948AD
:1018700090ED000A194880ED000A90ED000A184822
:1018800080ED000A00E000BFC3E0094800780128AD
:1018900042D10D480078F8BB04480078E0BB002036
:1018A0000349087009490870104936E0100000200B
:1018B0002C05002011000020300500202B05002001
:1018C0000B000020120000200A0000200C00002065
:1018D0000E00002008000020600400201C000020F2
:1018E0002000002064040020680400200F00002075
:1018F0007C04002024000020280000208004002018
:1019000098040020940400206C040020700400203F
:1019100074040020780400207BE00870F749087008
:101920000DF035FDF648007810B1012808D103E02C
:101930000120F349087004E00020F149087000E03C
:1019400000BF00BFEE48007810B101285BD12AE04B
:10195000EC48007820B101280DD0022817D110E002
:10196000012200211A200DF09EFC012200211B20E3
:101970000DF099FC0CE00122002119200DF093FCE0
:1019800006E00122114617200DF08DFC00E000BF9B
:1019900000BF0122022116200DF085FC0021DA484B
:1019A00008F054FE30E00122032109200DF07BFCF9
:1019B000012200210B200DF076FCD248007820B1E6
:1019C00001280DD0022817D110E0012200211A2091
:1019D0000DF069FC012200211B200DF064FC0CE0DD
:1019E0000122002119200DF05EFC06E001221146C3
:1019F00017200DF058FC00E000BF00BF0121C248D5
:101A000008F024FE00E000BF00BFFEF722FEFEF754
:101A100036FEAAE3BD480078012833D1B8480078E3
:101A200080BBBB48007868BB0020B8490870B94942
:101A30000870B948007810B1012808D103E00120EE
:101A4000B549087004E00020B349087000E000BF09
:101A500000BFFEF7FEFDFEF7CFFDAF48007888B16E
:101A6000AE48007880BBA748007820B101280AD092
:101A7000022816D10EE0AA4890ED000AA94880ED90
:101A8000000A0FE064E0A84890ED000AA54880ED48
:101A9000000A07E0A54890ED000AA24880ED000A80
:101AA00000E000BF00BFA248007830B101280CD090
:101AB000022811D003281DD115E09E4890ED000AA0
:101AC0009D4880ED000A16E016E09C4890ED000A63
:101AD000994880ED000A0EE0994890ED000A96487A
:101AE00080ED000A07E0974890ED000A924880EDEB
:101AF000000A00E000BF2BE088480078012827D1C9
:101B00008B48007830B101280BD0022810D0032870
:101B10001CD114E08C4890ED000A824880ED000A48
:101B200015E08A4890ED000A7E4880ED000A0EE03C
:101B3000874890ED000A7B4880ED000A07E0854861
:101B400090ED000A774880ED000A00E000BF00BF7A
:101B50006E48007801283CD169480078012838D1C6
:101B60006B480078A8BB65480078072878D2DFE882
:101B700000F0041A31787C80840001205F490870ED
:101B8000674890ED000A744880ED000A664890EDC1
:101B9000000A724880ED000A644890ED000A70481F
:101BA00080ED000A6EE00220544908705C4890ED18
:101BB000000A6C4880ED000A5B4890ED000A6A4814
:101BC00080ED000A594890ED000A684880ED000A4F
:101BD00058E0EDE0032049490870514890ED000AB3
:101BE000634880ED000A504890ED000A614880ED9E
:101BF000000A4E4890ED000A5F4880ED000A564802
:101C000090ED000A5748D0ED000A30EE200A5848FF
:101C1000D0ED000A30EE200A584880ED000A4F4807
:101C200090ED000A5048D0ED000A30EE200A5148ED
:101C3000D0ED000A30EE200A514880ED000A4848F5
:101C400090ED000A4948D0ED000A30EE200A4A48DB
:101C5000D0ED000A30EE200A4A4880ED000A11E07B
:101C60000FE00420254908700CE005202349087086
:101C700008E006202149087004E003201F4908708D
:101C800000E000BF00BF1D48007807287CD2DFE8D5
:101C900000F004050B112A7C870088E00022032154
:101CA00009200DF000FB82E0002203210A200DF044
:101CB000FAFA7CE00022022109200DF0F4FA002259
:101CC00001210B200DF0EFFA0122032109200DF074
:101CD000EAFA012200210B200DF0E5FA00210A4862
:101CE00008F0B4FC63E00022032109200DF0DBFAC8
:101CF000012203210A200DF0D6FA58E00D00002041
:101D00000B00002008000020002000402B050020D0
:101D1000100000200A0000200C000020120000200B
:101D2000600400202C0000206404002068040020CF
:101D30000F0000207C0400203000002080040020E0
:101D400098040020940400206C04002070040020FB
:101D500074040020780400203C0000204000002093
:101D600044000020480000204C00002050000020CB
:101D700054000020580000205C000020600000207B
:101D8000640000206800002010E0002203210A20E7
:101D90000DF089FA012211460B200DF084FA06E0BD
:101DA0000122022109200DF07EFA00E000BF13E0BD
:101DB000FE48007801280FD1FD48007860B9FD4841
:101DC000007848B90020F949087001200DF0C9FEDB
:101DD0004FF47A700AF09FF9C7E1C6E1F64800783F
:101DE00001286BD1F248007878BBF448007860BBDA
:101DF000F048007848BB0020EF490870F0480078B0
:101E000030B1012808D002280BD0032811D10CE0F2
:101E10000120EB4908700DE00220E949087009E053
:101E2000A2E10320E649087004E00020E4490870BC
:101E300000E000BF00BFE248007838B1012815D0AB
:101E4000022819D0032837D12BE037E000221146B1
:101E500013200DF028FA0022114614200DF023FA69
:101E60000122022116200DF01EFA26E00122032194
:101E700016200DF018FA20E00022032116200DF0A4
:101E800012FA0022022116200DF00DFA0122002183
:101E900013200DF008FA0122002115200DF003FA9D
:101EA0000BE00022114615200DF0FDF90122002162
:101EB00014200DF0F8F900E000BF07E1BE480078FB
:101EC000012834D1BD480078012830D1B9480078C4
:101ED00068BB0020B8490870BA490870BA49087050
:101EE000B748007830B1012808D002280AD003286A
:101EF00010D10BE00120B24908700CE00220B0497B
:101F0000087008E00320AE49087004E00020AC49E6
:101F1000087000E000BF00BFA948007840B1012868
:101F20001BD0022829D0032856D140E0CFE05CE046
:101F30000122002108200DF0B6F90122002119200C
:101F40000DF0B1F90122002118200DF0ACF90022AA
:101F5000032117200DF0A7F93FE0012200211A20EC
:101F60000DF0A1F9012200211B200DF09CF90022A7
:101F7000114619200DF097F92FE0012202211820B7
:101F80000DF091F90122114617200DF08CF9002275
:101F9000114608200DF087F9002211461A200DF095
:101FA00082F9002211461B200DF07DF915E0012277
:101FB000032117200DF077F90022022118200DF0DF
:101FC00072F90022012117200DF06DF9002211464F
:101FD00018200DF068F900E000BF00BFFEF70CFB11
:101FE000FEF737FBFEF74BFB70E0704800780128E6
:101FF0006CD16F48007880BB6E48007868BB0020C9
:102000006A490870714908706E4908706E49087015
:102010006F4908706A4908706E4908809FED6E0A22
:102020006E4880ED000A9FED6C0A6D4880ED000A55
:102030009FED690A6B4880ED000A0DF0A8F95F4832
:10204000007810B1012809D103E001205B49087034
:1020500005E000205949087001E037E000BF00BFEB
:102060005648007810B1012828D113E00122002140
:102070001A200DF018F9012200211B200DF013F990
:102080000122022116200DF00EF90021564808F019
:10209000DDFA14E00122002108200DF004F90122EC
:1020A000002119200DF0FFF80122002118200DF069
:1020B000FAF801214C4808F0C9FA00E000BF00BF5F
:1020C000FEF79AFAFEF7C5FAFEF7D9FA4DE03A485C
:1020D0000078012826D1002037490870354800785B
:1020E00010B1012808D103E001203249087004E052
:1020F00000203049087000E000BF00BF2D48007884
:1021000010B101280CD105E0002201211C200DF0A6
:10211000CAF806E0012211461C200DF0C4F800E0C8
:1021200000BF20E02148007801281CD100201F4971
:1021300008702E48007810B1012808D103E0012072
:102140002A49087004E000202849087000E000BF18
:1021500000BF2648007810B1012802D100E001E05C
:1021600000E000BF00BF00E000BF00BF2FE3204839
:102170000078062877D2DFE800F00377BDE7FEFDA0
:102180000D48007801286DD10D48007868B90948DC
:10219000007850B900200B4908700B4908700C49B1
:1021A000087001201349087026E05BE02C05002030
:1021B0000B000020100000202B0500201200002042
:1021C0000F0000200A0000200C0000200800002062
:1021D0000E00002062050020000000006C040020BA
:1021E000700400207404002000180040110000203A
:1021F00030050020130000200DF0C9F8F7480078E2
:1022000010B1012808D103E00120F449087004E06E
:102210000020F249087000E000BF00BFEF480078DE
:1022200010B1012816D10AE0012200211C200DF076
:102230003AF80122032118200DF035F80BE00122B5
:1022400011461D200DF02FF80122032118200DF05A
:102250002AF800E000BF00BFFEF7CEF9FEF7F9F95B
:10226000FEF70DFAB2E2B0E2DD480078012840D175
:10227000DC48007888BB0020D9490870DA4908702A
:10228000DA48007820B1012806D002280CD107E0F6
:102290000120D649087008E00220D449087004E003
:1022A0000020D249087000E000BF00BFFEF7A4F98B
:1022B000FEF7CFF9CD48007801281AD1CC48007834
:1022C00002280BD0CB4890ED000ACB4880ED000AE5
:1022D00090ED000AC94880ED000A0AE0C84890ED78
:1022E000000AC84880ED000A90ED000AC64880ED5B
:1022F000000A6BE2BA480078012824D1B948007876
:1023000008BB0020B6490870B8490870B648007884
:1023100010B1012808D103E00120B349087004E09E
:102320000020B149087000E000BF00BFFEF791F93E
:10233000FEF762F9AC48007828B1AE4890ED000A8B
:10234000B24880ED000A41E2A548007801283BD15F
:10235000A7480078C0BBA3480078A8BB0020A049CC
:102360000870A2490870A04908709C48007828B1FC
:10237000012801E08BE114E17FD141E0A44800781D
:10238000012812D10020A24908705B2108460DF0F7
:1023900059FD5B200DF08AFD9E49087008460078C3
:1023A00001282CD10020087029E09B4800780528DE
:1023B00023D2DFE800F0030A10161C000120964922
:1023C00008700EF0F6FC19E060E0022092490870F7
:1023D0000EF0EFFC12E003208F4908700EF0E9FCCC
:1023E0000CE004208C4908700EF0E3FC06E00020AD
:1023F000894908700EF0DDFC00E000BF00BF3DE041
:1024000083480078012812D10020814908705B219F
:1024100008460DF017FD5B200DF048FD7D49087062
:1024200008460078012827D10020087024E07A4867
:10243000007830B101280AD002280FD0032819D122
:1024400012E00120744908700EF0B3FC13E0022082
:10245000714908700EF0ADFC0DE00EE003206E49EE
:1024600008700EF0A6FC06E000206B4908700EF024
:10247000A0FC00E000BF00BF00E000BF00BFFEF70F
:10248000FEF8FEF7E6F8FEF7B7F889E05448007862
:1024900001285BD156480078012857D1514800786F
:1024A00090BB00204E490870504908704E49087092
:1024B00057480078012812D10020554908705B2147
:1024C00008460DF0BFFC5B200DF0F0FC5149087090
:1024D00008460078012832D1002008702FE04E48CD
:1024E0000078062829D2DFE800F0030910161C2224
:1024F0000120494908700EF05CFC1FE002204649AB
:1025000008700EF056FC19E020E0032042490870E4
:102510000EF04FFC12E004203F4908700EF049FC19
:102520000CE005203C4908700EF043FC06E000205A
:10253000394908700EF03DFC00E000BF00BFFEF717
:102540009EF8FEF786F8FEF757F829E03348007842
:10255000012825D12348007810BB00202F4908709E
:102560002B48007801281BD00120294908705A21E6
:1025700008460DF067FC5A200DF098FC25490870BC
:1025800008460078012801D10020087001220221AC
:102590001C200CF088FE002203211C200CF083FE7E
:1025A00014E10F480078012870D10C480078012808
:1025B0006CD10C48007880B900200C4908700A4999
:1025C0000870154908700CF0E2FE0948007838B32D
:1025D00001282AD0022830D12BE057E00800002043
:1025E0002B050020100000200C0000200A00002015
:1025F0000F000020400500201C00002020000020CB
:102600004405002024000020280000202C00002089
:10261000130000203B0500200E0000202C050020A8
:10262000FFE70120FC49087008E00220FA49087021
:1026300004E00020F849087000E000BF00BFF64841
:10264000007828B90122032118200CF02CFE12E09A
:10265000F1480078012805D10122114618200CF01C
:1026600022FE08E0EC480078022804D1012211463D
:1026700014200CF018FE012211461D200CF013FE50
:10268000FDF7BAFFFDF7E5FFFDF7F9FF9EE0E34830
:10269000007801284CD1E24890ED000ADFEDE10A14
:1026A000B4EEE00AF1EE10FA1ED2DF48DF490978F5
:1026B00000EB810090ED000AD948D0ED000A80EED1
:1026C000801AD9481438D949097800EB810090ED77
:1026D000000A31EE000AD4481438D449097800EBD6
:1026E000810080ED000A20E0CD4890ED000ADFED8A
:1026F000D00AB4EEE00AF1EE10FA16DDCA48CB4972
:10270000097800EB810090ED000ADFEDCA0A20EEA7
:10271000200AC348D0ED000A80EE201AC248C349FF
:10272000097800EB810080ED001A0CF047F84BE0CF
:10273000C1480078012826D10020BF490870BF4851
:10274000007810B1012808D103E00120BB490870CE
:1027500004E00020B949087000E000BF00BFB7489E
:10276000007810B101280CD105E0002201211C20C5
:102770000CF099FD06E0012211461C200CF093FD9F
:1027800000E000BF20E0AE48007801281CD1002006
:10279000AB490870AB48007810B1012808D103E0BC
:1027A0000120A849087004E00020A649087000E054
:1027B00000BF00BFA348007810B1012802D100E09B
:1027C00001E000E000BF00BF00E000BF00BFE9E3A0
:1027D0009D48007806287CD2DFE800F003457CA6FF
:1027E000A7A89548007801283CD19448007890BB70
:1027F000002096490870964908700CF0C8FD95486D
:10280000007810B1012808D103E001209149087037
:1028100004E000208F49087000E000BF00BF8D4831
:10282000007810B1012817D10AE0012200210846E2
:102830000CF039FD0122114619200CF034FD0CE09A
:102840000122114600200CF02EFD01220321182048
:102850000CF029FD01E005E000BF00BFFDF7CCFE54
:10286000FDF7F7FEB0E074480078012830D17348D6
:10287000007868BB0020704908707549087073487B
:10288000007820B1012806D002280CD107E00120F1
:102890006E49087008E002206C49087004E00020CE
:1028A0006A49087000E000BF00BFFDF7A5FEFDF714
:1028B000D0FE6648007801280AD1674890ED000AEA
:1028C000664880ED000A90ED000A654880ED000A38
:1028D0007AE078E058480078012824D157480078F9
:1028E00008BB0020544908705849087058480078BF
:1028F00010B1012808D103E001205549087004E017
:1029000000205349087000E000BF00BFFDF7A1FEA2
:10291000FDF772FE4E48007828B14F4890ED000A4E
:10292000504880ED000A4FE04EE04DE0424800780C
:10293000012826D10020404908704048007810B195
:10294000012808D103E001203C49087004E0002080
:102950003A49087000E000BF00BF3848007810B165
:1029600001280CD105E0002201211C200CF09BFC69
:1029700006E0012211461C200CF095FC00E000BF8F
:1029800020E02F48007801281CD100202C49087035
:102990002C48007810B1012808D103E00120294912
:1029A000087004E000202749087000E000BF00BF65
:1029B0002448007810B1012802D100E001E000E0D5
:1029C00000BF00BF00E000BF00BF94E31E480078D6
:1029D000062874D2DFE800F0038FC5FDFCFB164823
:1029E0000078012842D115480078F8BB002017492B
:1029F0000870174908700D49087001201A490870BD
:102A00000CF0C5FC1348007888B3012834D00228A4
:102A100036D003283CD137E00F0000200000002012
:102A2000B400002000007A44746D00200E000020E5
:102A300000C05A4500409C452B0500201000002096
:102A40002C05002011000020300500200A00002085
:102A50000C00002008000020400500201C00002081
:102A6000200000202C0000201300002042E0FFE79F
:102A70000120FA4908700CE00220F849087008E0CB
:102A80000320F649087004E00020F449087000E0D3
:102A900000BF00BFF148007830B1012810D00228F3
:102AA00014D003281ED117E00122114619200CF082
:102AB000FAFB012202211C200CF0F5FB13E016E3C7
:102AC0000122032119200CF0EEFB0CE0012211463B
:102AD00015200CF0E8FB06E00122002116200CF086
:102AE000E2FB00E000BF00BFFDF786FDFDF7B1FD92
:102AF000FDF7C5FDFCE2DA480078012830D1D9485D
:102B0000007868BB0020D6490870D7490870D748BC
:102B1000007820B1012806D002280CD107E001205E
:102B2000D249087008E00220D049087004E0002073
:102B3000CE49087000E000BF00BFFDF75DFDFDF766
:102B400088FDCA48007801280AD1C94890ED000ADA
:102B5000C84880ED000A90ED000AC74880ED000AE1
:102B6000C6E2C648007801285BD1BC48007810B1A5
:102B7000012854D100E053E0C1480078012806D074
:102B8000032814D0052825D0062843D132E0BD48BB
:102B900090ED560ABC48D0ED000A80EE801AB94884
:102BA00090ED520A31EE000A80ED520A33E0B5484A
:102BB00090ED570AB448D0ED000A80EE801AB14873
:102BC00090ED530A31EE000A80ED530A23E066E1EE
:102BD00064E150E0AB4890ED580AAB48D0ED000AF4
:102BE00080EE801AA74890ED540A31EE000A80ED7D
:102BF000540A10E0A34890ED560AA348D0ED000A0D
:102C000080EE801A9F4890ED550A31EE000A80ED63
:102C1000550A00E000BF00BF0BF0D0FD00E000BF90
:102C200028E08F480078012824D18E48007808BB1E
:102C300000208B4908708D4908708B48007810B1CE
:102C4000012808D103E001208749087004E0002032
:102C50008549087000E000BF00BFFDF7FAFCFDF7F2
:102C6000CBFC8148007828B1814890ED000A874864
:102C700080ED000A3CE27A480078012839D1794891
:102C80000078B0BB00207649087078490870764912
:102C900008707248007830B101284CD0022872D0F8
:102CA000032871D1A5E07A480078012812D10020CC
:102CB000774908705B2108460DF0C4F85B200DF0E1
:102CC000F5F87449087008460078012832D10020D0
:102CD00008702FE06A480078062829D2DFE800F063
:102CE000030A10161C220120654908700EF061F8D5
:102CF0001FE088E00220624908700EF05AF818E0E0
:102D000003205F4908700EF054F812E004205C497B
:102D100008700EF04EF80CE00520594908700EF0CE
:102D200048F806E00020564908700EF042F800E02E
:102D300000BF00BF5FE056480078012812D1002094
:102D4000534908705B2108460DF07CF85B200DF0BC
:102D5000ADF85049087008460078012847D1002096
:102D6000087044E04648007808283ED2DFE800F0CA
:102D7000040D141B2229303701204149087000201E
:102D80000EF017F832E033E034E002203C490870DE
:102D900000200EF00EF829E00320394908700120C8
:102DA0000EF007F822E004203549087002200EF0EA
:102DB00000F81BE005203249087002200DF0F9FFF1
:102DC00014E006202E49087003200DF0F2FF0DE0FC
:102DD00007202B49087003200DF0EBFF06E00020D0
:102DE000274908700DF0E5FF00E000BF00BF02E0DA
:102DF00001E000E000BF00BFFDF741FCFDF729FC4A
:102E0000FDF7FAFB29E024480078012825D1154870
:102E1000007810BB0020204908701D480078012868
:102E20001BD001201A4908705A2108460DF00AF8F3
:102E30005A200DF03BF81749087008460078012821
:102E400001D100200870012202211C200CF02BFA75
:102E5000002203211C200CF026FA49E10800002082
:102E60002B050020100000200C0000200A0000208C
:102E7000400500201C000020200000200000002051
:102E80000E000020706C0020BC0000202C000020F0
:102E9000130000203B0500202C05002028E1FE48FF
:102EA000007801287BD1FD48007830B1012851D04D
:102EB000022875D0032874D1C9E0F94890ED000AC2
:102EC000DFEDF80AB4EEE00AF1EE10FA1ED2F64891
:102ED000F649097800EB810090ED000AF048D0ED4A
:102EE000000A80EE801AF0481838F049097800EBA3
:102EF000810090ED000A31EE000AEB481838EB49EA
:102F0000097800EB810080ED000A20E0E44890EDB4
:102F1000000ADFEDE70AB4EEE00AF1EE10FA16DD82
:102F2000E148E249097800EB810090ED000ADFED0D
:102F3000E10A20EE200ADA48D0ED000A80EE201ADD
:102F4000D948DA49097800EB810080ED001A0BF0CE
:102F500035FC7EE0D5480078012806D0032822D031
:102F600005283AD006286CD151E0D34890ED000AEC
:102F7000F3EE0E0AB4EEE00AF1EE10FA0EDDCF48E1
:102F800090ED560ADFEDCE0A20EE200ACA48D0EDB9
:102F9000000A80EE201AC94880ED561A52E059E026
:102FA00054E055E0A7E0C44890ED000ADFEDC50A03
:102FB000B4EEE00AF1EE10FA0EDDC04890ED570ACB
:102FC000DFEDBC0A20EE200ABB48D0ED000A80EEFF
:102FD000201ABA4880ED571A34E0B74890ED000A3D
:102FE000DFEDB90AB4EEE00AF1EE10FA0EDDB348F7
:102FF00090ED580ADFEDB50A20EE200AAE48D0ED7C
:10300000000A80EE201AAD4880ED581A1AE0AA484E
:1030100090ED000ADFEDAE0AB4EEE00AF1EE10FA30
:103020000EDDA64890ED590ADFEDAA0A20EE200A2F
:10303000A148D0ED000A80EE201AA04880ED591A70
:1030400000E000BF00BF0BF0B9FB02E001E000E0D0
:1030500000BF4BE0A0480078012826D100209E49FF
:1030600008709E48007810B1012808D103E00120C3
:103070009A49087004E000209849087000E000BFF9
:1030800000BF9648007810B101280CD105E000225D
:1030900001211C200CF007F906E0012211461C203A
:1030A0000CF001F900E000BF20E08D480078012815
:1030B0001CD100208A4908708A48007810B1012884
:1030C00008D103E001208749087004E00020854909
:1030D000087000E000BF00BF8248007810B10128EE
:1030E00002D100E001E000E000BF00BF00E000BF4F
:1030F00000BF00E000BF00BF7B48007838BB7848C5
:103100000078012823D17548007800BB002074495D
:1031100008707648007810B1012808D103E001203A
:103120007249087004E000207049087000E000BF98
:1031300000BF6E48007810B1012806D102E00EF001
:103140001FFB03E00EF015FB00E000BF00BFFDF722
:103150003DFA6548007898B95F48007801280FD19A
:103160005E48007860B900205B49087060480078CC
:10317000082802D15F480078D0B9FDF718F917E0A8
:103180005B480078082813D15748007804280FD1ED
:103190005148007801280BD140480078012807D118
:1031A0004E48007820B900204B490870FDF7FFF821
:1031B000BDEC088B10BD00B589B0484800780028E8
:1031C00044F01682FDF759FB49480078801F052816
:1031D00084F00C82DFE810F00500020D67108A18F9
:1031E000E718454890ED000A444880ED000A90ED4C
:1031F000000AF3EE0E0AB4EEE00AF1EE10FA05DD75
:103200000122032100200CF04EF804E000220321EB
:1032100010460CF048F837480078002841F0B1819A
:10322000374800780028F9D1364800780028F5D1D1
:10323000354800780028F1D11848007800282AD1B4
:10324000324800680FF050F9CDE900019DED000B08
:1032500010F062F88DED040B274800680FF044F978
:10326000CDE902019DED040B53EC102B9DED020BFB
:1032700051EC100B0FF022F8CDE906019DED060B85
:1032800051EC100B0FF074F92149086021480068D7
:103290000FF02AF940E04EE3000000200800002073
:1032A000B80000200000C842A06D00200E000020E1
:1032B00000C05A4500409C45BC000020706C0020B6
:1032C0000000484200803B45007C92480024F448BE
:1032D000001B374A8096984A2B05002010000020DA
:1032E0002C050020110000203005002009000020DE
:1032F0002E0500200F000020380400209000002040
:10330000120000200B0000200D000020EC04002023
:1033100088000020F0040020CDE900019DED000BA5
:103320000FF0FAFF8DED040BFE4800680FF0DCF89B
:10333000CDE902019DED040B53EC102B9DED020B2A
:1033400051EC100B0EF0BAFFCDE906019DED060B16
:1033500051EC100B0FF00CF9F34908600120F34910
:1033600091ED000AFDF750FAF14880ED000A0220C5
:10337000ED4991ED000AFDF747FAEE4880ED000AAD
:10338000ED48007806287DD2DFE800F0035DDCFE22
:10339000FDFCEA480078012842D1E44890ED000A9B
:1033A000F1EE080AB4EEE00AF1EE10FA09D80121B4
:1033B0000846DF4A92ED000A0CF0AFF8E0490870C9
:1033C0000CE001200CF0E0FB0122002102200BF0B8
:1033D0006AFFD9480078401CD7490870D24890ED60
:1033E000000ADFEDD80AB4EEE00AF1EE10FA09D8CF
:1033F00003210220CF4A92ED000A0CF08EF8D0494A
:1034000008701FE002200CF0BFFB012200211120F8
:103410000BF049FFC8480078C01CC749087011E08C
:1034200001210846C24A92ED000A0CF076F8C44920
:10343000087003210220BF4A92ED000A0CF06DF8DB
:10344000BF49087076E2BD480078012867D1B748C7
:1034500090ED000ADFEDBC0AB4EEE00AF1EE10FADE
:1034600014D890ED000AF1EE080AB4EEE00AF1EE8D
:1034700010FA0BDD02210120AD4A92ED000A0CF09A
:103480004CF800E055E2AE49087026E0A74890ED00
:10349000000AF1EE080AB4EEE00AF1EE10FA05D8DF
:1034A000A5480078401EA44908700EE09F4890EDA2
:1034B000000ADFEDA50AB4EEE00AF1EE10FA04DD31
:1034C0009D480078401C9C49087001200CF05CFB72
:1034D0000122002104200BF0E6FE934890ED000A43
:1034E000DFED980AB4EEE00AF1EE10FA09D80321F4
:1034F0000220904A92ED000A0CF00FF890490870F3
:103500001FE002200CF040FB0122002111200BF0F3
:10351000CAFE89480078C01C8749087011E0022162
:103520000120834A92ED000A0BF0F7FF84490870EE
:10353000032102207F4A92ED000A0BF0EEFF804942
:103540000870F7E17D480078012859D1774890ED5F
:10355000000ADFED7C0AB4EEE00AF1EE10FA16D8AC
:1035600090ED000ADFED780AB4EEE00AF1EE10FA11
:103570000DDD032101206E4A92ED000A0BF0CDFF14
:103580006F4902E05AE1B6E04DE0087016E0674886
:1035900090ED000ADFED6C0AB4EEE00AF1EE10FAED
:1035A00004D865480078401E6349087001200CF07B
:1035B000EBFA0122002106200BF075FE5A4890ED2F
:1035C000000ADFED600AB4EEE00AF1EE10FA09D865
:1035D00003210220574A92ED000A0BF09EFF584942
:1035E00008701FE002200CF0CFFA01220021112008
:1035F0000BF059FE50480078C01C4F49087011E08C
:10360000032101204A4A92ED000A0BF086FF4C4943
:10361000087003210220474A92ED000A0BF07DFF5B
:103620004749087086E145480078012850D13F4855
:1036300090ED000AF1EE080AB4EEE00AF1EE10FA9D
:1036400009D8012108463A4A92ED000A0BF065FFBD
:103650003B4908700CE001200CF096FA0122002191
:1036600002200BF020FE34480078401C32490870DC
:103670002D4890ED000ADFED350AB4EEE00AF1EED8
:1036800010FA12D890ED000ADFED2E0AB4EEE00A2F
:10369000F1EE10FA09DD04210220264A92ED000A1B
:1036A0000BF03BFF2649087024E01F4890ED000A0C
:1036B000DFED240AB4EEE00AF1EE10FA1AD8022087
:1036C0000CF062FA1C480078C01E1B49087011E01B
:1036D00001210846164A92ED000A0BF01EFF184918
:1036E000087004210220134A92ED000A0BF015FF26
:1036F000134908701EE111480078012877D10B4862
:1037000090ED000ADFED100AB4EEE00AF1EE10FAD7
:1037100029D890ED000AF1EE080AB4EEE00AF1EEC5
:1037200010FA15E03C0400208C00002088000020E6
:10373000780000207C0000200E00002013000020F4
:103740007400002000001644000070420000FA449B
:1037500009DD02210120FB4A92ED000A0BF0DDFE9B
:10376000F949087026E0F94890ED000AF1EE080AE0
:10377000B4EEE00AF1EE10FA05D8F5480078401EE4
:10378000F34908700EE0F14890ED000A5FED120A6F
:10379000B4EEE00AF1EE10FA04DDED480078401CCA
:1037A000EB49087001200CF0EFF901220021042000
:1037B0000BF079FDE74890ED000A5FED1C0AB4EECE
:1037C000E00AF1EE10FA13D890ED000A5FED230A3B
:1037D000B4EEE00AF1EE10FA0ADD04210220DE4A1E
:1037E00092ED000A0BF099FED749087025E012E02F
:1037F000D84890ED000A5FED2D0AB4EEE00AF1EE34
:1038000010FA1AD802200CF0BFF9D1480078C01E77
:10381000CF49087011E002210120CA4A92ED000A46
:103820000BF07BFEC849087004210220CA4A92EDC1
:10383000000A0BF072FEC44908707BE0C7480078AC
:10384000012863D1C14890ED000A5FED420AB4EE51
:10385000E00AF1EE10FA12D890ED000A5FED460A88
:10386000B4EEE00AF1EE10FA09DD03210120B54AB9
:1038700092ED000A0BF051FEB349087016E0B34810
:1038800090ED000A5FED500AB4EEE00AF1EE10FA96
:1038900004D8AF480078401EAD49087001200CF0F4
:1038A00073F90122002106200BF0FDFCA94890EDE0
:1038B000000A5FED5A0AB4EEE00AF1EE10FA12D8EF
:1038C00090ED000A5FED610AB4EEE00AF1EE10FA45
:1038D00009DD04210220A04A92ED000A0BF01DFE32
:1038E0009949087024E09B4890ED000A5FED6B0A4F
:1038F000B4EEE00AF1EE10FA1AD802200CF044F906
:1039000093480078C01E9249087011E003210120FD
:103910008C4A92ED000A0BF000FE8B4908700421DE
:1039200002208D4A92ED000A0BF0F7FD86490870DF
:1039300000E000BFFDE38A480078012873D1894880
:1039400090ED000A814880ED000A874890ED000A5A
:10395000804880ED000A01207C4991ED000AFCF7C7
:1039600053FF784880ED000A02207A4991ED000A61
:10397000FCF74AFF784880ED000A744800680EF0B2
:10398000B3FDCDE904019DED040B0FF0C5FC8DEDF9
:10399000060B9DED060B51EC100B0EF0E9FD734983
:1039A00008606B48007806287ED2DFE800F0035EEE
:1039B000F8F6F5F469480078012843D16B4890ED9A
:1039C000000AF1EE080AB4EEE00AF1EE10FA09D8A6
:1039D000012108465B4A92ED000A0BF09EFD5A4910
:1039E00008700CE001200CF0CFF801220021022029
:1039F0000BF059FC56480078401C55490870554852
:103A000090ED000A5FEDB10AB4EEE00AF1EE10FAB3
:103A10000AD803210220504A92ED000A0BF07DFDE6
:103A20004949087020E0AFE202200CF0ADF8012215
:103A3000002111200BF037FC45480078C01C444998
:103A4000087011E0012108463E4A92ED000A0BF091
:103A500064FD3D490870032102203F4A92ED000AAF
:103A60000BF05BFD384908708DE23C480078012876
:103A70007ED13E4890ED000A5FEDCD0AB4EEE00A3B
:103A8000F1EE10FA14D890ED000AF1EE080AB4EE47
:103A9000E00AF1EE10FA0BDD02210120294A92ED35
:103AA000000A0BF03AFD00E06CE22749087026E0BE
:103AB0002E4890ED000AF1EE080AB4EEE00AF1EEAD
:103AC00010FA05D822480078401E214908700EE0FF
:103AD000264890ED000A5FEDE40AB4EEE00AF1EE4C
:103AE00010FA04DD1A480078401C194908700120BA
:103AF0000CF04AF80122002104200BF0D4FB1548F9
:103B000090ED000A5FEDF10AB4EEE00AF1EE10FA72
:103B100009D803210220104A92ED000A0BF0FDFCA7
:103B20000949087036E002200CF02EF8012200212D
:103B300011200BF0B8FB06480078C01C044908703F
:103B400028E015E0780000207400002088000020A4
:103B50000E0000208C0000207C00002013000020BC
:103B600008000020EC040020F00400209400002055
:103B700002210120F84A92ED000A0BF0CEFCF74931
:103B8000087003210220F64A92ED000A0BF0C5FCF2
:103B9000F2490870F7E163E1D6E06DE0FFE7F14834
:103BA0000078012855D1F04890ED000ADFEDEF0ACA
:103BB000B4EEE00AF1EE10FA12D890ED000ADFED53
:103BC000EC0AB4EEE00AF1EE10FA09DD032101205F
:103BD000E14A92ED000A0BF0A0FCE049087016E003
:103BE000E14890ED000ADFEDE20AB4EEE00AF1EE02
:103BF00010FA04D8DF480078401EDE490870012022
:103C00000BF0C2FF0122002106200BF04CFBDA482A
:103C100090ED000ADFEDD50AB4EEE00AF1EE10FAFD
:103C200009D803210220CE4A92ED000A0BF075FC60
:103C3000CA4908701FE002200BF0A6FF01220021F4
:103C400011200BF030FBCB480078C01CC94908702C
:103C500011E003210120C04A92ED000A0BF05DFC47
:103C6000BE49087003210220BD4A92ED000A0BF004
:103C700054FCBA49087086E1BA480078012850D14E
:103C8000B94890ED000AF1EE080AB4EEE00AF1EE50
:103C900010FA09D801210846AF4A92ED000A0BF04C
:103CA0003CFCAE4908700CE001200BF06DFF0122D6
:103CB000002102200BF0F7FAAE480078401CAD4915
:103CC0000870AD4890ED000ADFEDAC0AB4EEE00AF2
:103CD000F1EE10FA12D890ED000ADFEDA40AB4EE6E
:103CE000E00AF1EE10FA09DD042102209C4A92ED6F
:103CF000000A0BF012FC9949087024E09E4890EDF0
:103D0000000ADFED9A0AB4EEE00AF1EE10FA1AD8D2
:103D100002200BF039FF97480078C01E95490870C3
:103D200011E0012108468C4A92ED000A0BF0F5FBE8
:103D30008A49087004210220894A92ED000A0BF09A
:103D4000ECFB864908701EE186480078012874D192
:103D5000854890ED000ADFED860AB4EEE00AF1EE48
:103D600010FA12D890ED000AF1EE080AB4EEE00A5B
:103D7000F1EE10FA09DD02210120774A92ED000AE6
:103D80000BF0CBFB7549087026E0774890ED000AF0
:103D9000F1EE080AB4EEE00AF1EE10FA05D8754823
:103DA0000078401E734908700EE06F4890ED000ADD
:103DB000DFED6F0AB4EEE00AF1EE10FA04DD6D48B3
:103DC0000078401C6B49087001200BF0DDFE0122D9
:103DD000002104200BF067FA674890ED000ADFED40
:103DE000670AB4EEE00AF1EE10FA12D890ED000A7C
:103DF000DFED5E0AB4EEE00AF1EE10FA09DD04210F
:103E00000220574A92ED000A0BF087FB53490870D5
:103E100025E0594890ED000ADFED540AB4EEE00ABF
:103E2000F1EE10FA1BD802200BF0AEFE51480078DC
:103E3000C01E5049087012E0FFE702210120464AE7
:103E400092ED000A0BF069FB44490870042102203E
:103E5000434A92ED000A0BF060FB4049087092E083
:103E600040480078012863D13F4890ED000ADFED1B
:103E70003F0AB4EEE00AF1EE10FA12D890ED000A13
:103E8000DFED3B0AB4EEE00AF1EE10FA09DD0321A2
:103E90000120314A92ED000A0BF03FFB2F490870D8
:103EA00016E0314890ED000ADFED310AB4EEE00A89
:103EB000F1EE10FA04D82F480078401E2D49087002
:103EC00001200BF061FE0122002106200BF0EBF92E
:103ED000294890ED000ADFED2A0AB4EEE00AF1EE7F
:103EE00010FA12D890ED000ADFED200AB4EEE00AD5
:103EF000F1EE10FA09DD04210220194A92ED000AC0
:103F00000BF00BFB1549087024E01B4890ED000AEC
:103F1000DFED160AB4EEE00AF1EE10FA1AD802202C
:103F20000BF032FE13480078C01E1249087011E0F1
:103F300003210120084A92ED000A0BF0EEFA07492E
:103F4000087004210220064A92ED000A0BF0E5FAFF
:103F50000249087017E0000078000020740000207B
:103F60007C00002013000020940000200000164474
:103F7000000070420E0000208C00002000803B45B5
:103F80000000FA4400BFD5E4FE4800780228FAD1C8
:103F9000FD4890ED000AFD4880ED000AFC4890EDD8
:103FA000000AFC4880ED000A0120F84991ED000A62
:103FB000FCF72AFCF84880ED000A0220F54991ED53
:103FC000000AFCF721FCF54880ED000AF44800786F
:103FD00006287DD2DFE800F0035DDEFDFCFBF14842
:103FE0000078012842D1E94890ED000AF1EE080A74
:103FF000B4EEE00AF1EE10FA09D801210846E64ACB
:1040000092ED000A0BF089FAE74908700CE00120F4
:104010000BF0BAFD0122002102200BF044F9E04828
:104020000078401CDE490870DA4890ED000A5FED28
:10403000310AB4EEE00AF1EE10FA09D803210220A9
:10404000D64A92ED000A0BF068FAD74908701FE0D3
:1040500002200BF099FD0122002111200BF023F921
:10406000CF480078C01CCE49087011E001210846F5
:10407000C94A92ED000A0BF050FACB4908700321AF
:104080000220C64A92ED000A0BF047FAC6490870B2
:1040900076E2C4480078012869D1BC4890ED000A56
:1040A0005FED4D0AB4EEE00AF1EE10FA14D890ED8F
:1040B000000AF1EE080AB4EEE00AF1EE10FA0BDDA8
:1040C00002210120B44A92ED000A0BF026FA00E02A
:1040D00055E2B549087026E0AC4890ED000AF1EED3
:1040E000080AB4EEE00AF1EE10FA05D8AC48007800
:1040F000401EAB4908700EE0A44890ED000A5FED49
:10410000640AB4EEE00AF1EE10FA04DDA448007887
:10411000401CA349087001200BF036FD012200214C
:1041200004200BF0C0F89B4890ED000A5FED710A87
:1041300000E025E2B4EEE00AF1EE10FA09D803211E
:104140000220964A92ED000A0BF0E7F996490870B2
:104150001FE002200BF018FD0122002111200BF0BE
:10416000A2F88F480078C01C8D49087011E0022128
:104170000120894A92ED000A0BF0CFF98A490870B4
:1041800003210220854A92ED000A0BF0C6F9864908
:104190000870F5E183480078012859D17B4890EDFB
:1041A000000A5FED8E0AB4EEE00AF1EE10FA16D8BE
:1041B00090ED000A5FED920AB4EEE00AF1EE10FA1B
:1041C0000DDD03210120744A92ED000A02E05BE15B
:1041D000B9E050E00BF0A1F97349087016E06B48A4
:1041E00090ED000A5FED9E0AB4EEE00AF1EE10FADF
:1041F00004D86B480078401E6949087001200BF014
:10420000C3FC0122002106200BF04DF8614890ED1F
:10421000000A5FEDAA0AB4EEE00AF1EE10FA09D83E
:10422000032102205D4A92ED000A0BF076F95E4907
:1042300008701FE002200BF0A7FC012200211120D2
:104240000BF031F856480078C01C5549087011E051
:1042500003210120504A92ED000A0BF05EF9524909
:104260000870032102204D4A92ED000A0BF055F927
:104270004D49087084E14B480078012850D14348EB
:1042800090ED000AF1EE080AB4EEE00AF1EE10FA41
:1042900009D801210846404A92ED000A0BF03DF989
:1042A000414908700CE001200BF06EFC0122002156
:1042B00002200AF0F8FF3A480078401C384908709C
:1042C000344890ED000A5FEDD20AB4EEE00AF1EE58
:1042D00010FA12D890ED000A5FEDDC0AB4EEE00AA5
:1042E000F1EE10FA09DD042102202C4A92ED000AB9
:1042F0000BF013F92C49087024E0264890ED000AD1
:104300005FEDE60AB4EEE00AF1EE10FA1AD80220E8
:104310000BF03AFC22480078C01E2149087011E0D9
:10432000012108461C4A92ED000A0BF0F6F81E49DE
:10433000087004210220194A92ED000A0BF0EDF8F2
:10434000194908701CE117480078012875D10F48F9
:1043500090ED000A5FEDFA0AB4EEE00AF1EE10FA11
:1043600027D890ED000AF1EE080AB4EEE00AF1EE6B
:1043700010FA1EDD02210120074A92ED000A0BF01F
:10438000CCF813E00800002038040020880000204A
:104390003C0400208C000020780000207C000020DD
:1043A0000E0000201300002074000020FE49087059
:1043B00026E0FE4890ED000AF1EE080AB4EEE00AAD
:1043C000F1EE10FA05D8FA480078401EF849087056
:1043D0000EE0F64890ED000ADFEDF60AB4EEE00AD2
:1043E000F1EE10FA04DDF2480078401CF049087044
:1043F00001200BF0C9FB0122002104200AF053FF29
:10440000ED4890ED000ADFEDED0AB4EEE00AF1EEC2
:1044100010FA13D890ED000ADFEDE90AB4EEE00AD5
:10442000F1EE10FA0ADD04210220E64A92ED000ABC
:104430000BF073F8DC49087025E012E0DE4890EDDF
:10444000000ADFEDDF0AB4EEE00AF1EE10FA1AD846
:1044500002200BF099FBD6480078C01ED4490870A2
:1044600011E002210120D84A92ED000A0BF055F824
:10447000CD49087004210220D24A92ED000A0BF0C7
:104480004CF8C94908707BE0D0480078012863D116
:10449000C64890ED000ADFEDCA0AB4EEE00AF1EE7C
:1044A00010FA12D890ED000ADFEDC20AB4EEE00A6D
:1044B000F1EE10FA09DD03210120C34A92ED000A52
:1044C0000BF02BF8B849087016E0B84890ED000AD8
:1044D000DFEDB80AB4EEE00AF1EE10FA04D8B44801
:1044E0000078401EB249087001200BF04DFB0122FC
:1044F000002106200AF0D7FEAF4890ED000ADFED5C
:10450000AF0AB4EEE00AF1EE10FA12D890ED000A0C
:10451000DFEDAB0AB4EEE00AF1EE10FA09DD04219A
:104520000220A84A92ED000A0AF0F7FF9E4908709F
:1045300024E0A14890ED000ADFEDA10AB4EEE00A04
:10454000F1EE10FA1AD802200BF01EFB9848007802
:10455000C01E9749087011E0032101209A4A92ED8C
:10456000000A0AF0DAFF9049087004210220954AF7
:1045700092ED000A0AF0D1FF8B49087000E000BFFD
:104580002AE393480078C8B391480078012804D002
:10459000022834D003287DD162E08E4890ED000AD5
:1045A000824880ED000A0120804991ED000AFCF765
:1045B0002BF9854880ED000A0A210120824A92EDFC
:1045C000000A0AF0AAFF78490870834890ED000AB3
:1045D000794880ED000A0220774991ED000AFCF746
:1045E00013F9784880ED000A0A210220754A92EDFD
:1045F000000A0AF092FF6C49087065E065E07748B0
:1046000090ED000A694880ED000A0120674991EDAC
:10461000000AFCF7F9F86C4880ED000A0A21012035
:10462000694A92ED000A0AF078FF5F4908706C4809
:1046300090ED000A604880ED000A02205E4991ED8D
:10464000000AFCF7E1F85F4880ED000A0A21022029
:104650005C4A92ED000A0AF060FF5349087033E0AB
:10466000604890ED000A514880ED000A01204F4952
:1046700091ED000AFCF7C8F8534880ED000A0221CA
:104680000120514A92ED000A0AF047FF464908709E
:10469000554800E017E090ED000A474880ED000A19
:1046A0000220454991ED000AFCF7AEF8454880ED3F
:1046B000000A02210846434A92ED000A0AF02DFF43
:1046C0003949087000E000BF86E24848007868B1C8
:1046D000474800780228F7D10A210120454A92ED87
:1046E000000A0AF01AFF3049087075E24248007863
:1046F00078B342480078012802D0022852D129E03C
:104700003F4890ED000A294880ED000A90ED000A2C
:104710002D4880ED000A0A2101202B4A92ED000A63
:104720000AF0FBFE20490870364890ED000A224846
:1047300080ED000A90ED000A224880ED000A0A216F
:104740000220204A92ED000A0AF0E7FE164908709E
:1047500061E061E02C4890ED000A144880ED000A09
:1047600090ED000A184880ED000A0A210120164A3F
:1047700092ED000A0AF0D1FE0B490870234890ED33
:10478000000A0D4880ED000A90ED000A0D4880ED0A
:10479000000A0A2102200B4A92ED000A0AF0BDFE2F
:1047A000014935E036E00000740000208800002058
:1047B0000E000020000070428C0000200000FA442F
:1047C000000016447C000020780000201300002028
:1047D0000F000020880400209004002084040020A2
:1047E0008C040020580400205C04002012000020EB
:1047F00034040020400400200B0000200A000020A8
:10480000480400204C0400205004002054040020E0
:10481000087000E000BFDFE1FB4800780028FAD014
:10482000FA48008800F40040B0B3F9480078042842
:104830004DD1F84800680690002801DB069801E099
:104840000698404214280CDBF2480068A0F5B470CA
:104850000790002801DB079801E0079840421428E0
:1048600002DA02200BF0A4F9EA48006878380790D1
:10487000002801DB079801E007984042142803DA7A
:1048800002200BF09FF913E0E2480068F03807902F
:10489000002802DB079802E019E00798404214283C
:1048A00003DA02200BF098F902E002200BF059F92C
:1048B0000A210120D74A92ED000AB8EE400A0AF018
:1048C0002CFED54908700520D149087054E0CF4826
:1048D000008800F4804048B3CD480078042825DAE9
:1048E000CE480078012847D10020CC490870CC4838
:1048F000007810B1012808D103E00120C8490870F0
:1049000004E00020C649087000E000BF00BFC448B2
:104910000078012803D102200BF068F902E00220A0
:104920000BF029F901200BF043F925E0B748008886
:1049300000F4804000BBB948007801281CD1002059
:10494000B6490870B648007810B1012808D103E0D4
:104950000120B349087004E00020B149087000E06C
:1049600000BF00BFAE480078012802D10BF016F955
:1049700002E001200BF0FFF8A448008800F400409A
:1049800020B3A3480078032820D10021A54805F0D2
:104990005DFEA5480068A5490988B0FBF1F201FB5E
:1049A0001200A3490860084600684FF4B4714843F8
:1049B0009E490988B0FBF1F09D49086008460068EF
:1049C0009449086004209249087005E18F480088E6
:1049D00000F48040E8B3974890ED000A964880EDD7
:1049E000000A0A210220944A92ED000A0AF095FD7D
:1049F00089490870904890ED000AF2EE040AB4EE7E
:104A0000E00AF1EE10FA0AD281480078012806D1B6
:104A100002207F49087000200CF086FA0FE08648DB
:104A200090ED000AF2EE040AB4EEE00AF1EE10FA9C
:104A300005DD77480078012801D175490870744870
:104A40000078022842D17C4890ED000ADFED7B0A15
:104A500000E04DE0B4EEE00AF1EE10FA31DD784806
:104A60000078401C7649087008460078012805D176
:104A7000714890ED000A734880ED000A7048007894
:104A800005281ED16C4890ED000A6E48D0ED000A52
:104A900030EE600ABDEEC00A8DED070A07980028C7
:104AA00001DB079801E00798404205280ADA012156
:104AB000002004F0A5FD002061490870032054493E
:104AC000087089E000205E49087085E05048007851
:104AD00003280CD1584890ED000AF2EE040AB4EE17
:104AE000E00AF1EE10FA77D202204949087073E02B
:104AF0004648008800F48040D8BB4E4890ED000A3C
:104B00004D4880ED000A0A2102204B4A92ED000A2E
:104B10000AF003FD40490870474890ED000ADFEDB8
:104B2000470AB4EEE00AF1EE10FA3CDD38480078AE
:104B300078BB43480078012806D13F4890ED000A31
:104B4000404880ED000A28E03D480078052824D13F
:104B5000394890ED000A3B48D0ED000A30EE600A7B
:104B6000BDEEC00A8DED070A0798002802DB079802
:104B700002E031E00798404205280BDA01210020CD
:104B800004F03EFD00202E490870012020490870E5
:104B900003E008E000202A49087029480078401CFA
:104BA0002749087018E0244890ED000ADFED230A39
:104BB000B4EEE00AF1EE10FA0ED2154800780128A2
:104BC0000AD10020124908700021084604F018FD9F
:104BD0000021144805F03AFD02F009BD154890ED9A
:104BE000000A194880ED000A90ED000AF3EE0E0A63
:104BF000B4EEE00AF1EE10FA28DD012203210020D4
:104C00000AF051FB27E000000D0000204C050020B9
:104C100014000020700000207400002065050020B2
:104C200018000020000C0040500500205405002012
:104C300038000020380400208C0000200000C8420A
:104C40009C000020980000209000002000220321FA
:104C500010460AF028FBF7480078E0BBF6480078D9
:104C6000C8BBF648007820B101281BD002284CD1DF
:104C700032E0F34890ED000AF24880ED000A01208E
:104C8000F04991ED000AFBF7BFFDEF4880ED000A07
:104C90000A210120EC4A92ED000A0AF03EFCEB49A1
:104CA000087033E0EA4890ED000AE64880ED000A1B
:104CB0000120E44991ED000AFBF7A6FDE24880EDF2
:104CC000000A0A210120E04A92ED000A0AF025FCC0
:104CD000DE4908701AE08AE0DE4890ED000AD94803
:104CE00080ED000A0120D74991ED000AFBF78CFD09
:104CF000D54880ED000A0A210120D34A92ED000A2E
:104D00000AF00BFCD149087000E000BF00BFD24898
:104D1000007830B101281DD0022834D0032864D196
:104D20004AE0CE4890ED000ACD4880ED000A02200E
:104D3000CB4991ED000AFBF767FDC34880ED000AFF
:104D400001210220C04A92ED000A0AF0E6FBBF49A9
:104D500008704BE0C34890ED000AC14880ED000A9E
:104D60000220BF4991ED000AFBF74EFDB64880EDE9
:104D7000000A01210220B44A92ED000A0AF0CDFB9C
:104D8000B249087032E0B84890ED000AB44880EDAE
:104D9000000A0220B24991ED000AFBF735FDAA484E
:104DA00080ED000A0A210220A74A92ED000A0AF0CB
:104DB000B4FBA649087019E0AC4890ED000AA84879
:104DC00080ED000A0220A64991ED000AFBF71CFDC8
:104DD0009D4880ED000A0A2102209B4A92ED000ABC
:104DE0000AF09BFB9949087000E000BF5AE2924824
:104DF000007898B39E48007801280CD100209C4987
:104E000008700A2102209B4A128800EE102AB8EE90
:104E1000400A0AF082FB9048007830B101281ED089
:104E2000022835D0032865D14BE0934890ED000A65
:104E3000844880ED000A0120824991ED000AFBF7C9
:104E4000E3FC814880ED000A0A2101207E4A92EDB0
:104E5000000A0AF062FB7D4908704CE04CE087488C
:104E600090ED000A774880ED000A0120754991ED28
:104E7000000AFBF7C9FC744880ED000A0A210120F2
:104E8000714A92ED000A0AF048FB7049087032E05E
:104E90007B4890ED000A6B4880ED000A01206949CB
:104EA00091ED000AFBF7B0FC674880ED000A0A218B
:104EB0000120654A92ED000A0AF02FFB6349087051
:104EC00019E0704890ED000A5E4880ED000A01206C
:104ED0005C4991ED000AFBF797FC5B4880ED000A06
:104EE0000A210120584A92ED000A0AF016FB5749A0
:104EF000087000E000BFD5E14E4800780028FAD0E5
:104F000061480078012812D100205F4908705F488D
:104F1000007810B1012808D103E001205B49087036
:104F200004E000205949087000E000BF00BF584865
:104F30000078072872D2DFE800F0044BC4F7F6F5DA
:104F4000F4005248007810B1012816D10AE000227E
:104F5000032109200AF0A7F9002211460B200AF0CC
:104F6000A2F90BE00122032109200AF09CF9012299
:104F700000210B200AF097F900E000BF00BF2F4886
:104F8000007820B101280CD002281ED113E00A219C
:104F900001202B4A92ED000A0AF0BFFA2B49087053
:104FA00014E00A2101202A4A92ED000A0AF0B5FA1B
:104FB000264908700AE00A210120264A92ED000ADB
:104FC0000AF0ABFA2149087000E000BF00BF68E1B9
:104FD0002E48007810B1012816D10AE000220321E2
:104FE0000A200AF060F9002211460B200AF05BF952
:104FF0000BE0012203210A200AF055F901220021C9
:105000000B200AF050F900E000BF00BF0B48007809
:1050100028B101283ED0022850D145E040E10A21C4
:105020000120074A92ED000A0AF077FA0749087052
:1050300045E000000B0000201200002008000020C6
:105040006004002088000020780000207400002008
:1050500064040020680400200F0000207C0400206D
:105060008C0000208004002098040020940400207C
:10507000FD040020620500206C0400207004002064
:105080007404002034000020650500201800002072
:105090000D0000200A210120FC4A92ED000A0AF0CE
:1050A0003CFAFB4908700AE00A210120F94A92ED16
:1050B000000A0AF032FAF649087000E000BF00BFAB
:1050C000EFE0F548007810B1012816D10AE000227F
:1050D00001210B200AF0E7F8002211460B200AF00C
:1050E000E2F80BE0012211460B200AF0DCF8012265
:1050F00000210B200AF0D7F800E000BF00BFE7480E
:10510000007820B1012810D0022822D117E00A210E
:105110000120E34A92ED000A0AF0FFF9DC49087029
:1051200018E094E06AE040E016E00A210120D74A46
:1051300092ED000A0AF0F1F9D54908700AE00A2157
:105140000120D44A92ED000A0AF0E7F9D04908702C
:1051500000E000BF00BFA4E0D048007820B10128E3
:105160000CD002281ED113E00A210120CD4A92ED75
:10517000000A0AF0D2F9C649087014E00A21012099
:10518000C94A92ED000A0AF0C8F9C14908700AE05C
:105190000A210120C54A92ED000A0AF0BEF9BC4975
:1051A000087000E000BF00BF7BE0BC48007820B181
:1051B00001280CD002281ED113E00A210120BC4A8C
:1051C00092ED000A0AF0A9F9B149087014E00A2129
:1051D0000120B84A92ED000A0AF09FF9AC49087024
:1051E0000AE00A210120B44A92ED000A0AF095F97A
:1051F000A749087000E000BF00BF52E0A748007850
:1052000020B101280CD002281ED113E00A21012070
:10521000AA4A92ED000A0AF080F99D49087014E04C
:105220000A210120A64A92ED000A0AF076F998496F
:1052300008700AE00A210120A24A92ED000A0AF051
:105240006CF99349087000E000BF00BF29E0934863
:10525000007820B101280CD002281ED113E00A21C9
:105260000120994A92ED000A0AF057F9884908701E
:1052700014E00A210120954A92ED000A0AF04DF946
:10528000834908700AE00A210120914A92ED000A40
:105290000AF043F97E49087000E000BF00BF00E05B
:1052A00000BF00BF98E47D480078002875D1894888
:1052B00090ED000A884880ED000A884888490978FE
:1052C00000EB810090ED000A8348D0ED000A30EE3B
:1052D000C00A824814308249097800EB8100D0ED81
:1052E000000A20EE200A7C4880ED000A90ED000ABA
:1052F0007C4880ED000A0120774991ED000AFBF718
:1053000083FA794880ED000A9FED780A784880EDAD
:10531000000A73480078052876D2DFE800F0033FE2
:1053200090F3B600012202211A2009F0BCFF714857
:105330000078012818D17048007960B96F4800687A
:1053400041F63801884206D80120674991ED000AEC
:105350000AF027FB1BE001200AF016FC60480078E9
:10536000401C5F49087012E06348007960B96348E7
:10537000006841F63801884206D801205A4991ED6B
:10538000000A0AF00EFB02E001200AF000FB0122F5
:105390000021062009F087FF9FE1B5E100220221EC
:1053A0001A2009F080FF5348007801282DD1524877
:1053B0000079012811D15148006841F6380188422E
:1053C0000BD84E480068B0F5117F06D3012046493E
:1053D00091ED000A0AF0E5FA2BE001200AF0D4FB77
:1053E00045480079012805DA3D480078401E3C49CF
:1053F00008701EE04048007901281ADD384800781E
:10540000401C3749087014E066E13B4800790128E8
:105410000CD13A48006841F63801884206D801208C
:10542000314991ED000A0AF0BCFA02E001200AF0CD
:10543000AEFA01220021022009F035FF4DE12D488E
:105440000078012877D12C48007902285BD12B48BD
:10545000006841F63801884255D828480068B0F500
:10546000117F50D30120204991ED000A0AF099FAEA
:10547000224890ED000AB8EE400ADFED210A80EEE6
:10548000201A1B4880ED001A75E0DDE0640400205E
:10549000740000206804002018000020080000208C
:1054A000600400203C000020400000204400002058
:1054B000480000204C000020500000205400002034
:1054C000580000205C0000206000002064000020E4
:1054D000680000204005002080000020606D002052
:1054E0000E000020B4000020780000200000000022
:1054F0009000002013000020E86D00203C050020F3
:105500000000C8423DE001200AF03EFBF848007967
:10551000022805DAF7480078401EF64908702AE0AC
:10552000F3480079022826DDF2480078401CF14952
:10553000087020E0FFE7EE480079022818D1EE4815
:10554000006841F63801884212D80120EB4991EDFC
:10555000000A0AF026FAE84890ED000AB8EE400A80
:105560005FED190A80EE201AE54880ED001A02E08E
:1055700001200AF00CFA01220021042009F093FE18
:10558000ABE0E0480078012838D1D94800790328F9
:105590001DD1D948006841F63801884217D8D6484D
:1055A0000068B0F5117F12D30120D44991ED000AB3
:1055B0000AF0F7F9D04890ED000AB8EE400AF2EE92
:1055C000040A80EE201ACE4880ED001A36E0012051
:1055D0000AF0DAFAC6480079032805DAC5480078E7
:1055E000401EC449087029E0C1480079032825DD20
:1055F000C0480078401CBF4908701FE0BC480079D3
:10560000032818D1BC48006841F63801884212D8F6
:105610000120BA4991ED000A0AF0C3F9B64890EDAD
:10562000000AB8EE400AF2EE040A80EE201AB448EE
:1056300080ED001A02E001200AF0A9F90122002100
:10564000062009F030FE48E0AE480078012827D156
:10565000A7480079042818D1A7480068B0F5117F41
:1056600013D3A5480068B0F57A7F0ED80120A3496E
:1056700091ED000A0AF095F99F4890ED000AB8EE06
:10568000400A9F4880ED000A25E001200AF07CFADC
:105690009748007904281EDA0320964908701AE01A
:1056A00093480079042813D193480068B0F57A7FB5
:1056B0000ED80120914991ED000A0AF072F98E4846
:1056C00090ED000AB8EE400A8D4880ED000A02E035
:1056D00001200AF05CF900E000BF00BF884890EDAF
:1056E000000ADFED890AB4EEE00AF1EE10FA05DDFA
:1056F00001220321002009F0D6FDFDE30022032151
:10570000104609F0D0FDF7E3804800780128F4D175
:105710007F48007888BB7F4890ED000A7E4880ED86
:10572000000A01207C4991ED000AFBF76DF87348EF
:1057300080ED000A1FED930A714880ED000A6D4864
:10574000007830B101283BD0022876D0032875D1EB
:1057500014E16C480078012819D16548007968B9CE
:105760006548006841F63801884207D8012063493E
:1057700091ED000A0AF015F91CE05DE101200AF044
:1057800003FA5C480078401C5A49087012E05848F7
:10579000007960B95848006841F63801884206D857
:1057A0000120564991ED000A0AF0FBF802E00120C1
:1057B0000AF0EDF801220021022009F074FD24E135
:1057C0005048007801283AD14948007901281DD174
:1057D0004948006841F63801884217D846480068B1
:1057E000B0F5117F12D30120444991ED000A0AF06F
:1057F000D8F8414890ED000AB8EE400A5FEDC00AC3
:1058000080EE201A3E4880ED001A38E001200AF0B0
:10581000BBF937480079012805DA36480078401E80
:10582000344908702BE032480079012827DD3148DF
:105830000078401C2F49087021E026E0E4E02C4865
:105840000079012818D12C48006841F638018842B7
:1058500012D80120294991ED000A0AF0A2F8264841
:1058600090ED000AB8EE400A5FEDDB0A80EE201AE8
:10587000234880ED001A02E001200AF088F8012296
:105880000021042009F00FFDBFE01E480078012828
:105890004ED11748007902281DD11748006841F6FB
:1058A0003801884217D814480068B0F5117F12D328
:1058B0000120124991ED000A0AF073F80E4890EDAC
:1058C000000AB8EE400AF2EE040A80EE201A0C48F4
:1058D00080ED001A4CE001200AF056F904480079E6
:1058E00002281BDA03480078401E024908703FE096
:1058F000E86D00200E0000203C050020780000200C
:105900009000002013000020000048420800002002
:105910000F0000204005002080000020F948007999
:10592000022825DDF8480078401CF74908701FE080
:10593000F4480079022818D1F448006841F638018B
:10594000884212D80120F24991ED000A0AF029F8A4
:10595000EE4890ED000AB8EE400AF2EE040A80EE3E
:10596000201AEC4880ED001A02E001200AF00FF83E
:1059700001220021062009F096FC46E0E648007866
:10598000012829D1DF480079032818D1DF480068B1
:10599000B0F57A7F13D8DD480068B0F5117F0ED3DB
:1059A0000120DB4991ED000A09F0FBFFD74890ED9B
:1059B000000AB8EE400AD74880ED000A23E0012033
:1059C0000AF0E2F8CF48007903281CDACE480078C4
:1059D000401ECD49087016E0CC480068B0F57A7FCB
:1059E0000ED80120CA4991ED000A09F0DAFFC74834
:1059F00090ED000AB8EE400AC64880ED000A02E0C9
:105A0000012009F0C4FF00E000BF00BFC14890EDD5
:105A1000000AF3EE0E0AB4EEE00AF1EE10FA05DD2C
:105A200001220321002009F03EFC65E2002203214F
:105A3000104609F038FC5FE2B848007801287DD1B3
:105A4000B74890ED000AB74880ED000A0120B5493B
:105A500091ED000AFAF7D8FEAD4880ED000AAA4899
:105A6000007806286BD2DFE800F00352E4FDFCFB6F
:105A7000002201211B2009F016FC002201211A201E
:105A800009F011FCA448007801281CD1A54890ED2C
:105A9000000ADFEDA50AB4EEE00AF1EE10FA09D82B
:105AA000022101209A4A92ED000A09F036FD9F4931
:105AB000087026E001200AF067F893480078401C3F
:105AC000914908701DE0974800680CF00DFD9FEDAE
:105AD000980B53EC102BCDE906019DED060B51EC14
