:020000040800F2
:10000000F87A002039A4000825FA000827FA000829
:100010002BFA00082FFA000833FA0008000000004D
:1000200000000000000000000000000037FA000897
:1000300039FA0008000000003BFA00083DFA000809
:100040004FA400084FA400084FA400084FA40008C4
:100050004FA400084FA400084FA400084FA40008B4
:10006000EDFC00084FA400084FA400084FA40008AE
:100070004FA400084FA400084FA400084FA4000894
:100080004FA400084FA400084FA400084FA4000884
:100090004FA400084FA400084FA4000805FD000865
:1000A0004FA400084FA400084FA400084FA4000864
:1000B000C5FB000839FD0008A5FF00084FA4000893
:1000C0004FA400084FA400084FA400084FA4000844
:1000D0004FA40008C7FB000897FC00084FA40008C5
:1000E0004FA400084FA400084FA400083DFF0008DB
:1000F0007FFF000863FF0008000000000000000010
:1001000000000000000000005FFA00084FA4000893
:1001100000000000000000004FA400084FA40008E9
:100120004FA400084FA400083FFA00084FA400089D
:100130004FA400080F0001084FA400084FA40008B6
:100140004FA40008000000000000000000000000B4
:10015000000000000000000000000000000000009F
:1001600000000000000000004FA400084FA4000899
:100170004FA40008000000004FA400080000000089
:10018000000000004FA40008DFF80CD013F06AFE56
:100190000048004753020008F87A002010B508F024
:1001A000CAFF10BD10B50024FFF7F8FF0FF0CAFB1F
:1001B0000CF0C0FE0CF0B8FE12F05AFD14200CF04A
:1001C000F6FE10F05FFB10F08CFB10F0C4FB0FF09C
:1001D000C4FF12F034F94FF4165012F0DCFB142077
:1001E0000CF0E5FE12F071FA044612F035FA12F046
:1001F000D6F912F039FC12F094FC11F056F812F016
:10020000C9FC4FF4AF6012F0F5FC12F059FC10F08D
:1002100057F8294908700846007805280ED10120B2
:100220002649087010F05DFB012010F093FF4FF499
:10023000FA600CF0BCFE00202149087021480068DB
:1002400020F470701F49086001211F480BF04AF923
:1002500010BDFFF7A7FF2DE01C480078012816D13C
:1002600000201A4908701A480088401C1849088064
:100270000846008841F28831884203D0154800784A
:100280000B2804D10CF0C0FE002011490880124850
:100290000078012803D011480078012804D10020FB
:1002A0000B49088000F050FB00F021F903F083F8BF
:1002B00009F0AAFFD0E7000061050020000000203F
:1002C0005D05002000040140000400409605002068
:1002D000020000205F0500205A0500205B05002079
:1002E000F94890ED000AF94880ED000AF84890EDD1
:1002F000000AF84880ED000AF74890ED000AF74838
:1003000080ED000AF64890ED000AF64880ED000AFC
:10031000F548007898B99FEDF50AEB4880ED000AA2
:100320009FEDF20AEA4880ED000A9FEDF00AEA48E4
:1003300080ED000A9FEDED0AE94880ED000A9FED8F
:10034000EB0AEB4880ED000A9FEDE80AE94880EDF2
:10035000000A9FEDE60AE84880ED000A9FEDE30AF7
:10036000E64880ED000A9FEDE10AE54880ED000ACD
:10037000704710B5E3480078072815DC0121E248F2
:100380000AF0CDFD0121E1480AF0C9FD0121E04854
:100390000BF0A8F80121DF480BF0A4F8012210218E
:1003A000DC480BF04EFC20E0D648007808281CDB27
:1003B000D44800780F2818D00021D3480AF0AFFDA8
:1003C0000021D2480AF0ABFD0021D1480BF08AF899
:1003D0000021D0480BF086F800221021CD480BF008
:1003E00030FC1021CB480BF054FC10BD10B5C548B3
:1003F0000078801F052875D2DFE800F003252D4521
:100400005600C548007820B1012806D002280CD13A
:1004100007E0042011F05FFF08E0032011F05BFF0C
:1004200004E0042011F057FF00E000BF00BFBB480C
:100430000078032803DA012012F056FA02E00020C7
:1004400012F052FA4FE012F040F912F005F90420D0
:1004500011F041FF47E0B048007810B101280FD1FA
:1004600003E0052011F037FF0BE0AD48007818B924
:10047000042011F030FF02E0042011F02CFF00E016
:1004800000BF00BF2FE0A448007810B1012808D1B8
:1004900003E0092011F01FFF04E00A2011F01BFF08
:1004A00000E000BF00BF1EE09B48007830B101288B
:1004B00008D002280AD0032811D10BE0072011F040
:1004C0000AFF0DE00B2011F006FF09E0132011F0E8
:1004D00002FF05E0132011F0FEFE01E002E000BF84
:1004E00000BF00E000BF00BFFFF743FF10BD10B525
:1004F0008C48007800286ED182480078801F05283B
:100500006AD2DFE800F0031527475E00632010F091
:10051000A5FFBCEEC00A10EE100A834908706020E7
:1005200010F09CFF814880ED000A0DF0FBFD7EE09D
:10053000632010F093FFBCEEC00A10EE100A7A4957
:100540000870602010F08AFF784880ED000A0DF0F6
:10055000E9FD6CE07248007830B9602010F07EFF51
:10056000724880ED000A14E06D480078012806D139
:10057000612010F073FF6D4880ED000A09E06848C3
:100580000078022805D1622010F068FF684880EDED
:10059000000A4CE06048007810B101280ED106E056
:1005A000602010F05BFF614880ED000A07E06020EA
:1005B00010F054FF5D4880ED000A00E000BF00BF6E
:1005C00035E05548007840B101280DD0022812D0FE
:1005D000032828D11AE02BE028E0602010F03EFF2D
:1005E000524880ED000A1FE0602010F037FF4F48AE
:1005F00080ED000A18E0602010F030FFF1EE040AF0
:1006000030EE600A494880ED000A0DE0602010F0ED
:1006100025FF9FED481ADFED480A40EE010A4348E6
:10062000C0ED000A00E000BF00BF00E000BF00BF57
:1006300010BD10B54148007810B101280CD105E07B
:10064000002202211D2010F0D8F806E0012202212C
:100650001D2010F0D2F800E000BF00BF10BD10B5A3
:100660003748007820B101280DD0022821D115E0AB
:10067000002211460A2010F0C0F8002201210A20B1
:1006800010F0BBF816E0002211460A2010F0B5F871
:10069000012211460A2010F0B0F80BE001220021DF
:1006A0000A2010F0AAF8002201210A2010F0A5F873
:1006B00000E000BF00BF10BD10B52248007810B1A7
:1006C00001284DD146E03FE0D4030020A0000020E7
:1006D00088040020A4000020D8030020A8000020E7
:1006E0008C040020AC00002000000020000000006E
:1006F00090000020880000208C000020780000205E
:100700007C0000205F050020006001400064014083
:10071000005C0140000C0040080000200E0000209A
:100720000F000020100000209D0000207005002018
:10073000740500206666E63F0000004209000020C4
:100740000A0000200C00002000221146092010F0B1
:1007500054F806E001220021092010F04EF800E0D4
:1007600000BF00BF10BD10B5FB48007801280AD1BA
:10077000012202211C2010F040F8002203211C203D
:1007800010F03BF809E0002202211C2010F035F89F
:10079000012203211C2010F030F810BDF0EE400AB9
:1007A000012826D1ED49097821B1012903D0022978
:1007B0001DD10EE01CE0EA4991ED000AF4EEC00AFA
:1007C000F1EE10FA01DDC1ED000AE54991ED000AF4
:1007D0007047E44991ED000AF4EEC00AF1EE10FA18
:1007E00001D2C1ED000ADF4991ED000AF0E700BF38
:1007F00028E0022826D1D949097821B1012903D05E
:1008000002291DD10EE01CE0D74991ED000AF4EE5B
:10081000C00AF1EE10FA01DDC1ED000AD24991EDF6
:10082000000AD5E7D14991ED000AF4EEC00AF1EED5
:1008300010FA01D2C1ED000ACC4991ED000AC7E7D8
:1008400000BF00BFB0EE600AC2E7F0EE400A012828
:1008500005D1C74991ED000A30EEC00A7047022861
:1008600005D1C44991ED000A30EEC00AF6E700BF99
:10087000F4E700B5B0EE401A0246B848007828B157
:100880001046B0EE410AFFF789FF00BDBA48007874
:1008900028B11046B0EE410AFFF7D7FFF5E7B0EEFA
:1008A000410AF2E700B5F0EE401A03461846B0EEF2
:1008B000610AFFF7DEFF9FEDB11AC0EE010AB0EE4C
:1008C000600A00BD10B5B0EE402A04462046B0EEE6
:1008D000420AFFF7E7FF9FEDA91AC0EE010AB0EE4A
:1008E000600A10BD10B5912300224121502010F064
:1008F00053FD502010F084FDA1490870084600788F
:10090000012820D1002008705121084610F044FD34
:10091000512010F075FD9A490870084600780128AA
:1009200011D1002008709748407800F0080028B1E5
:10093000012203211D200FF060FF04E000220321AB
:100940001D200FF05AFF10BD10B58F480078012808
:1009500056D1FFF7C5FC00208B49087011F08FFDC0
:1009600000208A4908707D490870894908708249C9
:100970000870884908708849087088490870884953
:10098000087088490870002404E000208649085552
:10099000601CC4B2102CF8DB84480078801F052846
:1009A00026D2DFE800F0030B13191F0024207E4934
:1009B000887308200873802088721AE004207A491E
:1009C0008873112048730420C87212E0052076490C
:1009D0008873082008730CE00120734908702020F8
:1009E000087306E02020704908730420887300E033
:1009F00000BF00BF0FF093FFFFF71BFEFFF7F6FCF1
:100A00006B480078012842F0D5846A4800780528B0
:100A100005D068480078012801D0FFF761FC00206C
:100A20006349087011F02BFD60480078801F05288D
:100A300082F03484DFE810F00500C805100CA90F1F
:100A4000CF105D48007801282CD155480078012846
:100A500028D158480078032824D056480078052823
:100A600020D050480078E8B90020534908704C491C
:100A700008700FF036FF012211461D200FF0BDFE59
:100A8000012202211C200FF0B8FE012203211820B0
:100A90000FF0B3FE0122032115200FF0AEFE00205F
:100AA0004649087043480078062853D2DFE800F032
:100AB00003C1EEEDECEB4048007801284BD13448FF
:100AC00000780028FAD1334800780028F6D133485E
:100AD00000780028F2D13348007800283BD11F4924
:100AE0000870254908702C4908702D4908700120AC
:100AF000194908700FF0F5FE2448007820B101284C
:100B000006D002280CD107E001202049087008E037
:100B100002201E49087004E000201C49087000E013
:100B200000BF00BF1948007820B1012848D0022832
:100B300076D15AE0012211461D200FF05EFE0122FF
:100B4000032118200FF059FE0122032115200FF078
:100B500054FE66E0EEE36BE0130000200A00002084
:100B60001C0000202000002024000020280000207D
:100B70002C000020300000200C00002000007A44EF
:100B80006B050020D87200205A05002008000020C4
:100B90000B0000200D0000200E0000200F000020A0
:100BA0001200002010000020C87200205F05002005
:100BB0005B050020610500205C050020D0030020BB
:100BC000012200211C200FF018FE002201211D200F
:100BD0000FF013FE0122032118200FF00EFE012258
:100BE000032115200FF009FE1BE0012200211C202B
:100BF0000FF003FE012200211D200FF0FEFD012257
:100C000011461D200FF0F9FD0122032118200FF0DD
:100C1000F4FD0122032115200FF0EFFD01E0FFE7B5
:100C200000BF00BFFFF71BFDFFF746FDFFF79BFD71
:100C300062E2FE480078012856D1FD48007800287D
:100C400052D1FC48007800284ED1FB48007800289B
:100C50004AD1F6490870F9490870F9490870F9480D
:100C6000007820B1012806D0022810D107E0012029
:100C7000F44908700CE00220F249087008E00020F6
:100C8000F049087004E0FCE31BE336E2DDE000BF5E
:100C900000BFFFF7E4FCFFF70FFDEA4800780128EA
:100CA00058D1E948007800BBE84890ED000AE848D0
:100CB000D0ED000A30EE600AE64880ED000A90EDC3
:100CC000000AE54880ED000AE44890ED000AE44897
:100CD000D0ED000A30EE600AE24880ED000A90EDA7
:100CE000000AE14880ED000A34E0D7480078012886
:100CF00016D1D74890ED000AD64880ED000A90ED55
:100D0000000AD54880ED000AD54890ED000AD54884
:100D100080ED000A90ED000AD34880ED000A19E04A
:100D2000C9480078022815D1C84890ED000AC94882
:100D300080ED000A90ED000AC74880ED000AC74820
:100D400090ED000AC74880ED000A90ED000AC64801
:100D500080ED000AB5480078012820D1B448007819
:100D6000E8B1B5480078D0B90020B0490870B3495F
:100D70000870B4480078012802D0022808D103E0A6
:100D80000220B049087004E00120AE49087000E07C
:100D900000BF00BFFFF763FCFFF78EFC54E0B348D1
:100DA0000078012850D1A3480078E8BBB04800780B
:100DB000D0BBA3480078B8BB9F480078A0BB0020F8
:100DC000AA4908709D4908709E48007868B99848FB
:100DD000007850B90120964908709A49087001229C
:100DE000114609200FF009FD0CE09148007848B148
:100DF00000208F49087093490870002201210920C2
:100E00000FF0FBFCFFF72BFCFFF756FC884800783F
:100E1000012819D1974890ED000A8E4880ED000A0C
:100E2000954890ED000A00E00EE08B4880ED000A46
:100E3000924890ED000A8B4880ED000A904890EDB2
:100E4000000A894880ED000ABBE38E48007801283B
:100E500018D18D480078062813D17B4800780128E6
:100E6000FAD18A490870002011F009FB4FF47A701A
:100E70000CF09DF8002011F002FB4FF47A700CF09A
:100E800096F839E169480078012864D1684800780B
:100E9000F0BB68480078D8BB67480078C0BB00202A
:100EA00062490870674908706549087063480078AE
:100EB00010B1012808D103E001206049087004E066
:100EC00000205E49087000E000BF00BFFFF7F4FBA0
:100ED000FFF7C5FB594800780028D2D05A4800785F
:100EE000B8B96B4890ED000A6A48D0ED000A30EEC0
:100EF000600A694880ED000A684890ED000A684879
:100F0000D0ED000A30EE600A664880ED000AF3E09A
:100F100021E04D48007801280CD15E4890ED000A90
:100F20005D4880ED000A5E4890ED000A5D4880ED66
:100F3000000AE1E04448007802280BD1544890EDC3
:100F4000000A554880ED000A544890ED000A5548C3
:100F500080ED000AD0E045480078012848D13448A7
:100F60000078002844D142480078002840D1344815
:100F70000078E8BB30480078D0BB00203B490870BF
:100F8000304908702D490870474908703849087081
:100F9000012046490870002045490870254800781E
:100FA00010B1012808D103E001202249087004E0B3
:100FB00000202049087000E000BF00BF1D480078F5
:100FC00010B1012878D114E0002203211B200FF07A
:100FD00014FC0122032118200FF00FFC0122032131
:100FE00015200FF00AFC002132480AF07BFA7CE061
:100FF00082E00022022110460FF0FFFB00220221B6
:101000000A200FF0FAFB012203211B200FF0F5FB51
:101010000022032118200FF0F0FB002203211520ED
:101020000FF0EBFB012010F050F846E05C050020CB
:101030000B0000200D000020100000200C000020FC
:10104000120000200A00002008000020D403002025
:10105000880400201C00002020000020D80300206D
:101060008C04002024000020280000205D050020C2
:101070000F000020E4030020EC030020E803002020
:10108000F0030020000000205F0500201500002074
:10109000A0000020A40000202C000020A8000020B8
:1010A000AC000020300000200E00002013000020C3
:1010B000140000200020004016E0022010F005F887
:1010C0000121FE480AF00EFA0020FD4908800021A7
:1010D000084609F0E1F91021FA480AF0DAFD012189
:1010E000F9480AF0FFF900E000BF00BFFFF7E4FA9B
:1010F000FFF7B5FAFFF737FB63E2F4480078012801
:1011000078D1F3480078D8BBF2480078C0BBF248E9
:101110000078A8BBF148007890BBF148007878BB14
:101120000020EA490870EF490870EF490870EF485D
:101130000078012812D10020EC4908705B21084694
:1011400010F02AF95B2010F05BF9E94908700846B5
:101150000078012847D10020087044E0E548007875
:1011600006283ED2DFE800F0030D16202A340120C5
:10117000E049087011F0C7F8012011F0B5FB31E02B
:1011800038E00220DB49087011F0BDF8012011F0B1
:10119000ABFB27E00320D7490870002011F0B3F81B
:1011A000002011F0A1FB1DE00420D24908700120AD
:1011B00011F0A9F8002011F097FB13E00520CD49AC
:1011C0000870022011F09FF8002011F08DFB09E05B
:1011D0000020C849087011F096F8012011F084FB36
:1011E00000E000BF00BFFFF7BEFAFFF765FAFFF7A8
:1011F00036FA65E0B5480078012834D1B748007860
:10120000012830D1B648007868BB0020AF4908708B
:10121000B949087001200FF061FFB648007810B19D
:10122000012808D103E00120B249087004E0002041
:10123000B049087000E000BF00BFAE48007810B1B0
:1012400001280ED106E0032102209FEDAC0A0FF029
:101250000EFC07E0042102209FEDA90A0FF007FC15
:1012600000E000BF2CE0A7480078012828D198486A
:10127000007828BB9A48007810BB0020A14908706C
:101280009A48007801281BD00120984908705A21FB
:10129000084610F081F85A2010F0B2F8944908700E
:1012A00008460078012801D100200870012202219F
:1012B0001C200FF0A2FA002203211C200FF09DFA3F
:1012C0007FE182480078012833D18148007880BBD3
:1012D0008048007868BB8248007850BB8A48007814
:1012E00038BB0020794908707E4908707E49087033
:1012F0008049087001207D4908700FF0F2FA7648A5
:10130000007830B1012808D002280AD0032812D171
:101310000BE00120704908700EE002206E49087051
:101320000AE003206C49087006E000206A49087052
:1013300002E062E044E100BF00BF6748007830B1DE
:1013400001280FD0022818D0032827D120E001223D
:10135000032118200FF051FA0122032115200FF06C
:101360004CFA1CE00122002113200FF046FA012262
:10137000002115200FF041FA11E001220021132075
:101380000FF03BFA0122002114200FF036FA06E09C
:101390000122114616200FF030FA00E000BF00BF16
:1013A0005948007820B1012808D002281CD10BE050
:1013B000012211461D200FF020FA16E00122002123
:1013C0001C200FF01AFA10E0012200211C200FF05F
:1013D00014FA012200211D200FF00FFA01221146FC
:1013E0001D200FF00AFA00E000BF00BFFFF737F939
:1013F000FFF762F9FFF7B7F942E0424800780128A9
:101400003ED133480078D8BB32480078C0BB324860
:101410000078A8BB3148007890BB3148007878BB91
:101420000020384908702F4908702F490870314949
:101430000870294908700120284908702B49087054
:101440000FF04FFA0122022117200FF0D6F90122E6
:1014500000211A200FF0D1F90122032115200FF0ED
:10146000CCF901200FF03AFE032102209FED230A60
:101470000FF0FDFAFFF720F9FFF7F1F8FFF773F926
:101480009FE0FFE721480078012848D120480078F4
:10149000062843D11C48007801283FD102201D496D
:1014A0000870002010F0EBFF4FF47A700BF07FFD16
:1014B000002010F0E4FF4FF47A702DE0002000408F
:1014C0007C050020000C0040005C01405C05002011
:1014D0000B0000200D0000200F0000201200002053
:1014E000100000200A0000200C0000201300002043
:1014F0006B0500200E000020D003002000001644E1
:101500000000FA445D0500200800002000000020D3
:101510005F050020150000200BF049FD4FE0F74863
:101520000078012826D10020F4490870F44800789A
:1015300010B1012808D103E00120F149087004E04E
:101540000020EF49087000E000BF00BFEC480078C1
:1015500010B101280CD105E0002201211C200FF060
:101560004CF906E0012211461C200FF046F900E07C
:1015700000BF24E0E3480078012820D10020E149A1
:101580000870E148007810B1012808D103E001207B
:10159000DD49087004E00020DB49087000E000BF6E
:1015A00000BFD948007810B1012806D102E010F040
:1015B0008AFF03E010F08EFF00E000BF00BF00E0F4
:1015C00000BF00BF01F06BBED048007806287CD277
:1015D000DFE800F003C1FCFBFAF9C84800780128F5
:1015E00061D1CB480078D0BBCA480078B8BBC448AA
:1015F0000078A0BB0020C8490870C8490870C849D5
:101600000870C848007820B1012806D002280CD103
:1016100007E00120C349087008E00220C1490870B2
:1016200004E00020BF49087000E000BF00BFBD48D3
:10163000007820B1012813D002282CD120E000220C
:10164000012117200FF0D9F8012200211A200FF0F4
:10165000D4F8012200211B200FF0CFF81CE022E07B
:10166000002211461A200FF0C8F8002211461B2054
:101670000FF0C3F80122002119200FF0BEF80BE093
:101680000022114619200FF0B8F801221146172048
:101690000FF0B3F800E000BF00BFFEF7E0FFFFF778
:1016A0000BF8FFF760F895480078012852D1984868
:1016B000007888B39248007870BB9A48007828B1C7
:1016C000012807D002280DD108E0F0E30120954958
:1016D000087008E002209349087004E00020914956
:1016E000087000E000BF00BF8E48007820B10128DC
:1016F00013D002282CD120E00022012117200FF066
:101700007CF8012200211A200FF077F80122002135
:101710001B200FF072F81CE01CE0002211461A207A
:101720000FF06BF8002211461B200FF066F8012223
:10173000002119200FF061F80BE00022114619205A
:101740000FF05BF80122114617200FF056F800E069
:1017500000BF00BF8BE369480078012837D16C488F
:101760000078A0BB6648007888BB002063490870F9
:101770006A4908706848007820B1012806D002281C
:101780000CD107E001206449087008E0022062499A
:10179000087004E000206049087000E000BF00BF4E
:1017A000FEF75DFFFEF788FF5B480078012870D1E7
:1017B0005848007880BB5B48007848B1012813D0B6
:1017C00002282AD11CE0F0E353E351E366E1D7E0BD
:1017D000554890ED000A554880ED000A90ED000A4A
:1017E000534880ED000A19E0524890ED000A4F4836
:1017F00080ED000A90ED000A4D4880ED000A0DE0F2
:101800004D4890ED000A494880ED000A90ED000A2D
:10181000474880ED000A01E03EE000BF00BF4748B6
:10182000007830B1012810D002281AD0032831D115
:1018300023E0434890ED000A424880ED000A90ED15
:10184000000A414880ED000A25E0404890ED000A7A
:101850003C4880ED000A90ED000A3B4880ED000A0C
:1018600019E03B4890ED000A364880ED000A90ED03
:10187000000A354880ED000A0DE0364890ED000A78
:10188000304880ED000A90ED000A2F4880ED000AF4
:1018900001E074E000BF00E11E48007801286ED12D
:1018A0002648007830B1012810D002281AD0032829
:1018B00064D157E0284890ED000A1C4880ED000AEA
:1018C00090ED000A1A4880ED000A58E0234890ED98
:1018D000000A164880ED000A90ED000A144880EDD9
:1018E000000A4CE01E4890ED000A104880ED000A06
:1018F00090ED000A0E4880ED000A40E05C050020F3
:10190000100000205D05002011000020610500206E
:101910000B000020120000200A0000200C00002014
:101920000E00002008000020FC0300201C00002006
:101930002000002000040020040400200F000020EC
:101940001804002024000020280000201C0400208F
:101950003404002030040020080400200C0400207F
:1019600010040020FE4890ED000AFE4880ED000AB9
:1019700090ED000AFC4880ED000A00E000BF8CE01A
:10198000FA480078012839D1F9480078B0BBF94805
:10199000007898BB0020F5490870F7490870F749AE
:1019A0000870F74908700EF09CFFF648007810B1F7
:1019B000012808D103E00120F249087004E000206A
:1019C000F049087000E000BF00BFEE48007810B199
:1019D00001285CD12BE0EC48007820B101280ED022
:1019E000022818D111E0012200211A200EF005FF73
:1019F000012200211B200EF000FF0DE04DE001222E
:101A0000002119200EF0F9FE06E0012211461720F0
:101A10000EF0F3FE00E000BF00BF012202211620FD
:101A20000EF0EBFE0021D94809F05CFD30E0012208
:101A3000032109200EF0E1FE012200210B200EF00F
:101A4000DCFED148007820B101280DD0022817D142
:101A500010E0012200211A200EF0CFFE0122002109
:101A60001B200EF0CAFE0CE00122002119200EF00E
:101A7000C4FE06E00122114617200EF0BEFE00E073
:101A800000BF00BF0121C14809F02CFD00E000BFEC
:101A900000BFFEF711FEFEF766FEDBE3BC480078F0
:101AA000012833D1B748007880BBB248007868BBC2
:101AB0000020B7490870AE490870AF48007810B1EF
:101AC000012808D103E00120AB49087004E00020A0
:101AD000A949087000E000BF00BFFEF7EDFDFEF76A
:101AE000BEFDA548007888B1AA48007880BBA6480A
:101AF000007820B101280AD0022816D10EE0A648AD
:101B000090ED000AA54880ED000A0FE064E0A448CB
:101B100090ED000AA14880ED000A07E0A14890ED91
:101B2000000A9E4880ED000A00E000BF00BF934815
:101B3000007830B101280CD0022811D003281DD123
:101B400015E0994890ED000A984880ED000A16E0EB
:101B500016E0974890ED000A944880ED000A0EE0E8
:101B6000944890ED000A914880ED000A07E0924801
:101B700090ED000A8D4880ED000A00E000BF2BE0E8
:101B800084480078012827D17C48007830B10128AA
:101B90000BD0022810D003281CD114E0874890ED08
:101BA000000A7E4880ED000A15E0854890ED000AA5
:101BB0007A4880ED000A0EE0824890ED000A7748EE
:101BC00080ED000A07E0664890ED000A734880ED5A
:101BD000000A00E000BF00BF6D48007801283CD13A
:101BE00068480078012838D162480078A8BB64486A
:101BF0000078072878D2DFE800F0041A31787C807A
:101C0000840001205E490870634890ED000A6E4828
:101C100080ED000A624890ED000A6C4880ED000AF1
:101C2000604890ED000A6A4880ED000A6EE00220EC
:101C300053490870584890ED000A664880ED000A44
:101C4000574890ED000A644880ED000A554890ED31
:101C5000000A624880ED000A58E0F4E00320484999
:101C600008704D4890ED000A5D4880ED000A4C4830
:101C700090ED000A5B4880ED000A4A4890ED000AAA
:101C8000594880ED000A504890ED000A5148D0EDC7
:101C9000000A30EE200A5248D0ED000A30EE200A49
:101CA000524880ED000A494890ED000A4A48D0EDBC
:101CB000000A30EE200A4B48D0ED000A30EE200A30
:101CC0004B4880ED000A424890ED000A4348D0EDB1
:101CD000000A30EE200A4448D0ED000A30EE200A17
:101CE000444880ED000A11E00FE004202449087008
:101CF0000CE005202249087008E006202049087001
:101D000004E003201E49087000E000BF00BF1C482B
:101D10000078072870D2DFE800F004050B11788303
:101D20008E008FE00022032109200EF066FD89E07D
:101D3000002203210A200EF060FD83E00022022130
:101D400009200EF05AFD002201210B200EF055FD56
:101D50000122032109200EF050FD012200214CE058
:101D6000140400201C000020200000205D0500203D
:101D70000A000020100000200C0000200F000020AE
:101D80000D0000200B000020080000200020004073
:101D90005C05002012000020FC0300202C00002025
:101DA000000400200404002018040020300000205B
:101DB0001C0400203404002030040020080400200B
:101DC0000C040020100400203C00002040000020F3
:101DD00044000020480000204C000020500000205B
:101DE00054000020580000205C000020600000200B
:101DF000640000206800002023E00B200EF0FDFCB2
:101E00000021F74809F06EFB1CE0002203210920A5
:101E10000EF0F3FC012203210A200EF0EEFC11E08B
:101E2000002203210A200EF0E8FC012211460B20BB
:101E30000EF0E3FC06E00122022109200EF0DDFC99
:101E400000E000BF13E0E748007801280FD1E64822
:101E5000007860B9E548007848B90020E149087089
:101E600001200FF028F94FF47A700BF0A0F8F1E19F
:101E7000F0E1DF48007801286BD1DB48007878BBBF
:101E8000DC48007860BBD948007848BB0020D849BE
:101E90000870D948007830B1012809D002280BD049
:101EA000032811D10CE00120D34908700DE0D0E1E6
:101EB0000220D149087008E00320CF49087004E0EF
:101EC0000020CD49087000E000BF00BFCA4800787C
:101ED00038B1012815D0022819D0032837D12BE0BA
:101EE00037E00022114613200EF087FC0022114635
:101EF00014200EF082FC0122022116200EF07DFC3F
:101F000026E00122032116200EF077FC20E00022BB
:101F1000032116200EF071FC0022022116200EF083
:101F20006CFC0122002113200EF067FC012200212D
:101F300015200EF062FC0BE00022114615200EF079
:101F40005CFC0122002114200EF057FC00E000BFD1
:101F500008E1A7480078012844D1A6480078012864
:101F600040D1A2480078E8BB0020A1490870A349ED
:101F70000870A3490870A048007830B1012808D043
:101F800002280AD0032811D10BE001209A490870D9
:101F90000DE002209849087009E003209649087076
:101FA00005E000209449087001E0DCE000BF00BFBC
:101FB0009148007830B101281BD0022829D003288D
:101FC00056D140E00122002108200EF016FC01222B
:101FD000002119200EF011FC0122002118200EF022
:101FE0000CFC00E04DE00022032117200EF005FC60
:101FF0003FE0012200211A200EF0FFFB0122002108
:102000001B200EF0FAFB0022114619200EF0F5FB02
:102010002FE00122022118200EF0EFFB01221146D1
:1020200017200EF0EAFB0022114608200EF0E5FB17
:10203000002211461A200EF0E0FB002211461B2060
:102040000EF0DBFB15E00122032117200EF0D5FB7B
:102050000022022118200EF0D0FB002201211720BF
:102060000EF0CBFB0022114618200EF0C6FB00E05C
:1020700000BF00BFFEF7F3FAFEF71EFBFEF773FB8F
:1020800070E05848007801286CD15748007880BB30
:102090005648007868BB00205249087059490870BA
:1020A00056490870564908705749087052490870D7
:1020B000564908809FED560A564880ED000A9FED6C
:1020C000540A554880ED000A9FED510A534880EDAF
:1020D000000A0EF006FC4748007810B1012809D12B
:1020E00003E001204349087005E0002041490870E1
:1020F00001E037E000BF00BF3E48007810B1012882
:1021000028D113E0012200211A200EF076FB0122D3
:1021100000211B200EF071FB0122022116200EF07F
:102120006CFB00213E4809F0DDF914E0012200219A
:1021300008200EF062FB0122002119200EF05DFB49
:102140000122002118200EF058FB0121344809F02B
:10215000C9F900E000BF00BFFEF781FAFEF7ACFA54
:10216000FEF701FB76E022480078012826D1002006
:102170001F4908701D48007810B1012808D103E0FC
:1021800001201A49087004E000201849087000E096
:1021900000BF00BF1548007810B101280CD105E040
:1021A000002201211C200EF028FB06E0012211462E
:1021B0001C200EF022FB00E000BF49E00948007837
:1021C000012845D10020074908701648007810B151
:1021D00001282DD128E001201249087029E00000D3
:1021E000002000405D0500200B00002010000020B2
:1021F0005C050020120000200F0000200A000020D3
:102200000C000020080000200E0000209205002095
:1022100000000000080400200C040020100400202E
:1022200000180040110000200020F949087000E06B
:1022300000BF00BFF648007810B1012806D102E0C7
:1022400010F041F903E010F045F900E000BF00BFD5
:1022500000E000BF00BF97E3EE480078062870D288
:10226000DFE800F0034F96F2F1F0EB480078012828
:1022700046D1EA48007878BBE948007860BB002086
:10228000E8490870E8490870E84908700120E84901
:1022900008700EF026FBE748007810B1012808D13D
:1022A00003E00120E349087004E00020E1490870E0
:1022B00000E000BF00BFDF48007810B1012817D14F
:1022C0000BE0012200211C200EF097FA01220321CD
:1022D00018200EF092FA0CE012E0012211461D20A7
:1022E0000EF08BFA0122032118200EF086FA00E08E
:1022F00000BF00BFFEF7B3F9FEF7DEF9FEF733FAD1
:1023000041E3C5480078012841D1C548007890BB19
:102310000020C1490870C4490870C248007820B143
:10232000012806D002280DD107E00120BD49087020
:1023300009E00220BB49087005E00020B949087097
:1023400001E01FE300BF00BFFEF789F9FEF7B4F913
:10235000B448007801281AD1B048007802280BD080
:10236000B54890ED000AB54880ED000A90ED000AEE
:10237000B34880ED000A0AE0B24890ED000AB24886
:1023800080ED000A90ED000AB04880ED000AFAE204
:10239000AF480078012843D1A448007804281ED112
:1023A000AC48A249097800EB810090ED000AAA48E8
:1023B000D0ED000A80EE801AA64814389B490978AF
:1023C00000EB810090ED000A31EE000AA1481438BC
:1023D0009649097800EB810080ED000A1DE09D48D8
:1023E0009249097800EB810090ED000A9A48D0EDFF
:1023F000000A80EE801A974814388C49097800EB5F
:10240000810090ED000A31EE000A924814388749A5
:10241000097800EB810080ED000A0DF035F97BE0D2
:102420007D480078012877D17D480078E8BB0020FE
:10243000794908707B4908707B48007828B10128E9
:102440000BD106E013E2BFE167E001207649087096
:1024500004E000207449087000E000BF00BFFEF7F0
:102460002BF9FEF7FCF870480078F0B16B48007863
:10247000E0BB70480078C8B9764814386B490978D1
:1024800000EB810090ED000A6B48D0ED000A30EEC1
:10249000C00A70486549097800EB8100D0ED000A58
:1024A00020EE200A6D4880ED000A35E06148007892
:1024B000012831D1674814385C490978491C00EB80
:1024C000810090ED000A5C48D0ED000A30EEC00AB1
:1024D000604856490978491C00EB8100D0ED000A9C
:1024E00020EE200A5D4880ED000A15E0FFE74B482A
:1024F0000078012806D1504890ED000A574880ED39
:10250000000A09E045480078022805D14A4890EDC4
:10251000000A534880ED000A35E23F480078012860
:1025200038D13E480078A8BB3D48007890BB0020D9
:10253000394908703B4908703B4908703D480078AC
:1025400010B1012863D141E039480078012812D147
:102550000020374908705B2108460EF01DFF5B2004
:102560000EF04EFF3F4908700846007801282CD134
:102570000020087029E02D480078052823D2DFE8E4
:1025800000F0030A10161C000120284908700FF003
:10259000BAFE19E08DE00220244908700FF0B3FE66
:1025A00012E00320214908700FF0ADFE0CE004207A
:1025B0001E4908700FF0A7FE06E000201B490870B6
:1025C0000FF0A1FE00E000BF00BF6AE018480078ED
:1025D000012812D10020164908705B2108460EF030
:1025E000DBFE5B200EF00CFF1E49087008460078E9
:1025F000012854D10020087051E00C48007898B3AD
:10260000012838D002283CD0032846D13FE047E0DB
:1026100011000020610500205C0500200F00002053
:10262000100000200A0000200C0000200E000020F6
:102630001300002008000020700500201C0000206E
:102640002000002074050020240000202800002025
:102650000000002084710020B40000202C00002025
:10266000300000206B050020FFE70120F6490870CC
:102670000FF049FE12E00220F34908700FF043FE0C
:102680000CE00320F04908700FF03DFE06E000204A
:10269000ED4908700FF037FE00E000BF00BF00E01A
:1026A00000BF00BFFEF75FF8FEF706F8FDF7D7FFA3
:1026B00089E0E648007801285BD1E54800780128E8
:1026C00057D1E448007890BB0020E0490870E24907
:1026D0000870E2490870E2480078012812D1002011
:1026E000DF4908705B2108460EF056FE5B200EF0B5
:1026F00087FEDC49087008460078012832D10020A6
:1027000008702FE0D0480078062829D2DFE800F0D2
:10271000030910161C220120CB4908700FF0F3FDAD
:102720001FE00220C84908700FF0EDFD19E020E01D
:102730000320C54908700FF0E6FD12E00420C249ED
:1027400008700FF0E0FD0CE00520BF4908700FF0A5
:10275000DAFD06E00020BC4908700FF0D4FD00E06F
:1027600000BF00BFFDF7FFFFFDF7A6FFFDF777FFF6
:1027700029E0BD480078012825D1B648007810BB73
:102780000020B9490870B648007801281BD0012004
:10279000B34908705A2108460EF0FEFD5A200EF08B
:1027A0002FFEB049087008460078012801D10020AA
:1027B0000870012202211C200EF01FF800220321C4
:1027C0001C200EF01AF8DEE0A048007801284DD158
:1027D000A6480078012849D19E48007888BB00208F
:1027E0009D4908709D490870974908700EF079F866
:1027F0009748007820B1012806D002280CD107E0C4
:1028000001209349087008E002209149087004E013
:1028100000208F49087000E000BF00BF8C4800789E
:1028200028B90122032118200DF0E7FF13E08848A2
:102830000078012806D10122114618200DF0DDFF95
:1028400009E013E082480078022804D101221146F1
:1028500014200DF0D2FF012211461D200DF0CDFFF6
:10286000FDF7FDFEFDF728FFFDF77DFF8BE08048BB
:102870000078012835D174480078042817D17D48A4
:102880007149097800EB810090ED000ADFED7A0ACA
:1028900020EE200A7948D0ED000A80EE201A754813
:1028A0006949097800EB810080ED001A16E0714853
:1028B0006549097800EB810090ED000ADFED700AB0
:1028C00020EE200A6D48D0ED000A80EE201A6948FB
:1028D0005D49097800EB810080ED001A0CF0D4FE10
:1028E0004FE05A480078012826D100205749087047
:1028F0005848007810B1012808D103E0012055495B
:10290000087004E000205349087000E000BF00BFD9
:102910005048007810B101280CD105E000220121B7
:102920001C200DF06AFF06E0012211461C200DF06C
:1029300064FF00E000BF24E04B480078012820D16C
:102940000020494908704F48007810B1012808D18B
:1029500003E001204B49087004E000204949087059
:1029600000E000BF00BF4748007810B1012806D141
:1029700002E00FF0A8FD03E00FF0ACFD00E000BFA7
:1029800000BF00E000BF00BFF3E33F480078062827
:102990007CD2DFE800F00345A0CACBCC2B480078FE
:1029A00001283CD12B48007890BB00202A490870B0
:1029B0002A4908700DF095FF2C48007810B10128C5
:1029C00008D103E001202949087004E000202749CC
:1029D000087000E000BF00BF2448007810B1012853
:1029E00017D10AE00122002108460DF006FF01225E
:1029F000114619200DF001FF0CE0012211460020C4
:102A00000DF0FBFE0122032118200DF0F6FE01E07F
:102A100005E000BF00BFFDF722FEFDF74DFED8E048
:102A20000A480078012855D10A48007878BB002070
:102A300006490870094908700748007840B3012822
:102A40002BD0022831D12CE00E0000205C050020A4
:102A50000F000020100000200A0000200C000020C1
:102A6000130000206B0500205D05002008000020F9
:102A7000000000208471002000007A44B40000208F
:102A800000409C451100002061050020A0E021E0ED
:102A9000FFE70120FE49087008E00220FC490870A9
:102AA00004E00020FA49087000E000BF00BFFDF715
:102AB000D6FDFDF701FEF648007801280AD1F54859
:102AC00090ED000AF44880ED000A90ED000AF3480A
:102AD00080ED000A7DE0F2480078012824D1F14819
:102AE000007808BB0020EE490870E9490870EE48FC
:102AF000007810B1012808D103E00120EA490870EC
:102B000004E00020E849087000E000BF00BFFDF7C6
:102B1000D3FDFDF7A4FDE448007828B1DD4890ED31
:102B2000000AE24880ED000A53E052E051E0DC4840
:102B30000078012826D10020D9490870D9480078AA
:102B400010B1012808D103E00120D649087004E043
:102B50000020D449087000E000BF00BFD1480078D1
:102B600010B101280CD105E0002201211C200DF03C
:102B700044FE06E0012211461C200DF03EFE00E05E
:102B800000BF24E0CA480078012820D10020C849AD
:102B90000870C848007810B1012808D103E001206E
:102BA000C449087004E00020C249087000E000BF7A
:102BB00000BFC048007810B1012806D102E00FF034
:102BC00082FC03E00FF086FC00E000BF00BF00E0E5
:102BD00000BF00BF63E3B8480078062878D2DFE87A
:102BE00000F003639AF2F1F0AD48007801285AD161
:102BF000AC48007888BB0020A5490870AA49087035
:102C0000AE4908700120AE4908700DF06AFEAD486B
:102C1000007830B1012808D002280AD0032810D14A
:102C20000BE00120A74908700CE00220A5490870BC
:102C300008E00320A349087004E00020A1490870BF
:102C400000E000BF00BF9F48007838B1012810D0D5
:102C5000022814D003281ED117E024E001221146D7
:102C600019200DF0CAFD012202211C200DF0C5FD26
:102C700012E00122032119200DF0BFFD0CE001221A
:102C8000114615200DF0B9FD06E0012200211620A5
:102C90000DF0B3FD00E000BF00BFFDF7E0FCFDF765
:102CA0000BFDFDF760FDF7E27D480078012831D18A
:102CB0007C48007870BB0020794908707A49087018
:102CC0007348007828B1012807D002280DD108E008
:102CD000E1E201206E49087008E002206C490870AA
:102CE00004E000206A49087000E000BF00BFFDF763
:102CF000B6FCFDF7E1FC6648007801280AD165487A
:102D000090ED000A644880ED000A90ED000A6348E7
:102D100080ED000AC0E26C48007801287DD1694846
:102D2000007810B1012876D120E06848634909781D
:102D300000EB810090ED000A6548D0ED000A80EEBE
:102D4000801A624818385D49097800EB810090EDDF
:102D5000000A31EE000A5D4818385849097800EB3E
:102D6000810080ED000A0CF08FFC55E0534800789C
:102D7000012806D0032814D0052825D0062845D1DF
:102D800032E0544890ED560A5348D0ED000A80EEE8
:102D9000801A504890ED520A31EE000A80ED520A36
:102DA00035E04C4890ED570A4B48D0ED000A80EED4
:102DB000801A484890ED530A31EE000A80ED530A1C
:102DC00025E06FE16DE152E0424890ED580A42483B
:102DD000D0ED000A80EE801A3E4890ED540A31EEA4
:102DE000000A80ED540A12E03A4890ED560A3A483B
:102DF000D0ED000A80EE801A364890ED550A31EE8B
:102E0000000A80ED550A02E007E004E000BF00BFC1
:102E10000CF03AFC00E000BF28E0214800780128CF
:102E200024D12048007808BB00201D4908701849AB
:102E300008701D48007810B1012808D103E0012076
:102E40001949087004E000201749087000E000BF2D
:102E500000BFFDF731FCFDF702FC1348007828B1F4
:102E60000C4890ED000A114880ED000A14E20C486D
:102E70000078012832D10B48007878BB002008493F
:102E8000087003490870084908700E48007826E069
:102E90000A000020700500201C00002020000020F7
:102EA0005C050020100000200C0000202C000020F9
:102EB0005D05002011000020610500200E000020AB
:102EC000130000200800002000000020B071002046
:102ED000B800002080700020BC000020B6E030B1B7
:102EE00001284BD0022871D0032870D1A4E0F64805
:102EF0000078012812D10020F34908705B210846B0
:102F00000EF04AFA5B200EF07BFAF0490870084692
:102F10000078012831D1002008702EE0EC480078BC
:102F2000062828D2DFE800F003090F151B21012035
:102F3000E74908700FF0E7F91EE00220E449087045
:102F40000FF0E1F918E00320E14908700FF0DBF918
:102F500012E00420DE4908700FF0D5F90CE00520DE
:102F6000DB4908700FF0CFF906E00020D84908705F
:102F70000FF0C9F900E000BF00BF5FE0D248007861
:102F8000012812D10020D04908705B2108460EF0BC
:102F900003FA5B200EF034FACC490870084600783A
:102FA000012847D10020087044E0C948007808286B
:102FB0003ED2DFE800F0040D141B22293037012037
:102FC000C349087000200FF09EF932E033E034E08E
:102FD0000220BF49087000200FF095F929E0032076
:102FE000BB49087001200FF08EF922E00420B84997
:102FF000087002200FF087F91BE00520B449087023
:1030000002200FF080F914E00620B1490870032077
:103010000FF079F90DE00720AD49087003200FF09B
:1030200072F906E00020AA4908700FF06CF900E080
:1030300000BF00BF02E001E000E000BF00BFFDF7FD
:1030400092FBFDF739FBFDF70AFB29E0A148007868
:10305000012825D1A048007810BB00209D490870A8
:103060009948007801281BD00120974908705A21FF
:1030700008460EF091F95A200EF0C2F993490870F3
:1030800008460078012801D10020087001220221A1
:103090001C200DF0B2FB002203211C200DF0ADFB23
:1030A000FAE0F9E08D48007801287DD18C4800785D
:1030B00030B101281ED0022877D0032876D196E0BF
:1030C00088488349097800EB810090ED000ADFED24
:1030D000860A20EE200A8548D0ED000A80EE201AEC
:1030E00080487B49097800EB810080ED001A0CF0E4
:1030F000CBFA7EE076480078012806D003281ED05F
:10310000052837D006286CD151E0794890ED000AA7
:10311000F3EE0E0AB4EEE00AF1EE10FA0EDD754899
:1031200090ED560ADFED740A20EE200A7048D0EDCB
:10313000000A80EE201A6F4880ED561A52E06C4863
:1031400090ED000ADFED6D0AB4EEE00AF1EE10FA40
:103150000EDD684890ED570ADFED630A20EE200A85
:103160006348D0ED000A80EE201A624880ED571ABD
:1031700038E094E05E4890ED000ADFED610AB4EEBD
:10318000E00AF1EE10FA0EDD5A4890ED580ADFED34
:103190005D0A20EE200A5648D0ED000A80EE201A83
:1031A000544880ED581A1DE024E01FE020E050480C
:1031B00090ED000ADFED540AB4EEE00AF1EE10FAE9
:1031C0000EDD4C4890ED590ADFED500A20EE200A42
:1031D0004748D0ED000A80EE201A464880ED591A83
:1031E00000E000BF00BF0CF04FFA02E001E000E099
:1031F00000BF4FE046480078012826D1002044490E
:1032000008703548007810B1012808D103E001208A
:103210003149087004E000202F49087000E000BF29
:1032200000BF2D48007810B101280CD105E0002224
:1032300001211C200DF0E1FA06E0012211461C20BC
:103240000DF0DBFA00E000BF24E0224800780128FE
:1032500020D100201F4908702E48007810B10128A5
:1032600008D103E001202B49087004E0002029491F
:10327000087000E000BF00BF2648007810B10128A8
:1032800006D102E00FF01FF903E00FF023F900E090
:1032900000BF00BF00E000BF00BF00E000BF00BFF4
:1032A0001D48007878B90B480078012851D10A48A8
:1032B000007840B90020074908701848007878B3B2
:1032C000012836D131E044E0130000206B050020D6
:1032D0000E0000205D0500201000002000000020EE
:1032E00008000020B071002000409C45B80000207C
:1032F000BC000020807000200000484200803B4558
:10330000007C92480024F448001B374A8096984A73
:103310005C0500201100002061050020090000204C
:10332000FFE70120FE49087004E00020FC49087016
:1033300000E000BF00BFFA48007810B1012806D1B4
:1033400002E00FF0E7FC03E00FF0DDFC00E000BF5F
:1033500000BFFDF76EF9F348007898B9F24800789D
:1033600001280FD1F148007860B90020EE490870BB
:10337000EF480078082802D1EE480078D0B9FDF770
:1033800035F817E0EA480078082813D1E5480078B6
:1033900004280FD1E448007801280BD1E6480078D2
:1033A000012807D1E148007820B90020DE490870E3
:1033B000FDF71CF810BD00B595B000200490DB4867
:1033C0000078002845F00786FDF78CFAD848007889
:1033D000801F052885F0FD85DFE810F005009B12B1
:1033E0001618B5224823D54890ED000AD44880ED40
:1033F000000A90ED000AF3EE0E0AB4EEE00AF1EED8
:1034000010FA05DD0122032100200DF0F6F904E099
:103410000022032110460DF0F0F9C648007800287C
:1034200041F0F485C74800780028F9D1C6480078F3
:103430000028F5D1C54800780028F1D1BE480078B1
:1034400000287AD1BD4890ED000AC148D0ED000AAD
:1034500030EE600ABF4880ED000ABF4890ED000AD8
:10346000BE48D0ED000A30EE600ABD4880ED000A8B
:103470000120B84991ED000AFDF7FBF9B94880ED4C
:10348000000A0220B64991ED000AFDF7F2F9B648AC
:1034900080ED000AB548007806287DD2DFE800F00C
:1034A0000397F6F5F4F3B2480078012846D1A9480D
:1034B00090ED000AF1EE080AB4EEE00AF1EE10FA1F
:1034C00009D801210846A74A92ED000A0DF0CFFA6B
:1034D000A84908700CE001200DF000FE0122002137
:1034E00002200DF08AF9A1480078401C9F4908701D
:1034F0009B4890ED000ADFEDA00AB4EEE00AF1EE81
:1035000010FA09D803210220974A92ED000A0DF023
:10351000AEFA9849087023E002200DF0DFFD012289
:10352000002111200DF069F990480078C01C8F49E6
:10353000087000200FF0D8F912E0FDE301210846E1
:10354000884A92ED000A0DF092FA8A490870032128
:103550000220854A92ED000A0DF089FA854908702B
:1035600086A1874810F0B4F87E48006810F07DFA14
:10357000CDE902019DED020B53EC102B81A105A8B2
:1035800010F0E0FC05A97E4810F088F87FA17C4887
:1035900010F084F87FA100E0FEE3794810F07EF897
:1035A0007148006810F061FACDE902019DED020B4F
:1035B00053EC102B78A105A810F0C4FC05A97048A5
:1035C00010F06CF876A16E4810F068F8F0E36848E7
:1035D000007801286CD15F4890ED000ADFED720A97
:1035E000B4EEE00AF1EE10FA12D890ED000AF1EE16
:1035F000080AB4EEE00AF1EE10FA09DD022101201A
:10360000584A92ED000A0DF032FA5A49087026E045
:10361000504890ED000AF1EE080AB4EEE00AF1EE2F
:1036200010FA05D851480078401E504908700EE045
:10363000484890ED000ADFED5C0AB4EEE00AF1EED6
:1036400010FA04DD49480078401C48490870012000
:103650000DF044FD0122002104200DF0CEF8404879
:1036600090ED000ADFED440AB4EEE00AF1EE10FA44
:103670000DD8032102203C4A92ED000A0DF0F7F923
:103680003C49087026E0D6E2F5E150E1A5E00220D1
:103690000DF024FD0122002111200DF0AEF8334879
:1036A0000078C01C3149087000200FF01DF911E0AE
:1036B000022101202B4A92ED000A0DF0D8F92D4984
:1036C000087003210220284A92ED000A0DF0CFF97C
:1036D0002849087029A12A480FF0FAFF21480068FC
:1036E00010F0C3F9CDE902019DED020B53EC102B54
:1036F0002EA105A810F026FC05A921480FF0CEFF49
:1037000022A11F480FF0CAFF22A11D480FF0C6FFDB
:103710001548006810F0A9F9CDE902014AE000005F
:1037200009000020610500205C0500201000002039
:103730005F0500200F00002008000020D4030020B7
:1037400090000020120000200B0000200D0000203F
:103750008804002088000020D80300208C0400206A
:103760008C000020780000207C0000200E0000204B
:103770001300002074000020000016444D200000BB
:10378000CC060020252E3366000000002041435661
:103790000D0A000053200000252E316600000000B5
:1037A000204143410D0A000000007042252E326680
:1037B000000000009DED020B53EC102BAFF228012E
:1037C00005A810F0BFFB05A9FE480FF067FFAFF298
:1037D0003001FC480FF062FFEAE2FB480078012864
:1037E00058D1FA4890ED000A5FED1D0AB4EEE00AE8
:1037F000F1EE10FA12D890ED000A5FED150AB4EE62
:10380000E00AF1EE10FA09DD03210120F04A92ED01
:10381000000A0DF02CF9EF49087016E0EB4890ED26
:10382000000A5FED1F0AB4EEE00AF1EE10FA04D8C8
:10383000E9480078401EE849087001200DF04EFC70
:103840000122002106200CF0D8FFE44890ED000A88
:103850005FED370AB4EEE00AF1EE10FA09D8032161
:103860000220DF4A92ED000A0DF001F9D9490870F3
:1038700022E002200DF032FC0122002111200CF088
:10388000BCFFD5480078C01CD349087000200FF059
:103890002BF811E003210120CD4A92ED000A0DF032
:1038A000E6F8CC49087003210220CD4A92ED000AC7
:1038B0000DF0DDF8C7490870AFF24011C1480FF0B4
:1038C00007FFC348006810F0D0F8CDE902019DED74
:1038D000020B53EC102BAFF2401105A810F032FB95
:1038E00005A9B8480FF0DAFEAFF26011B5480FF045
:1038F000D5FEAFF26011B3480FF0D0FEB8480068B3
:1039000010F0B3F8CDE902019DED020B53EC102B42
:10391000AFF27C1105A810F015FB05A9A9480FF01E
:10392000BDFEAFF28411A7480FF0B8FE40E2A648F2
:103930000078012853D1A54890ED000AF1EE080A5D
:10394000B4EEE00AF1EE10FA09D801210846A04AC7
:1039500092ED000A0DF08BF89E4908700CE00120F2
:103960000DF0BCFB0122002102200CF046FF9A481A
:103970000078401C98490870984890ED000ADFEDE7
:10398000990AB4EEE00AF1EE10FA12D890ED000AAE
:103990005FED870AB4EEE00AF1EE10FA09DD0421CA
:1039A00002208F4A92ED000A0DF061F889490870F3
:1039B00027E08A4890ED000A5FED910AB4EEE00A34
:1039C000F1EE10FA1DD802200DF088FB8248007835
:1039D000C01E8149087001200EF086FF11E0012110
:1039E00008467B4A92ED000A0DF041F879490870CB
:1039F000042102207A4A92ED000A0DF038F8754948
:103A00000870AFF288216F480FF062FE70480068BE
:103A100010F02BF8CDE902019DED020B53EC102BB9
:103A2000AFF2A02105A810F08DFA05A965480FF0A6
:103A300035FEAFF2A82163480FF030FEAFF2AC21A3
:103A400060480FF02BFE6648006810F00EF8CDE9D4
:103A500002019DED020B53EC102B63A105A810F0A1
:103A600071FA05A957480FF019FEAFF2CC2155485D
:103A70000FF014FE9CE154480078012877D1534898
:103A800090ED000A5FEDB80AB4EEE00AF1EE10FA2C
:103A900012D890ED000AF1EE080AB4EEE00AF1EE59
:103AA00010FA09DD02210120494A92ED000A0CF0CA
:103AB000DEFF4849087026E0444890ED000AF1EE28
:103AC000080AB4EEE00AF1EE10FA05D84248007890
:103AD000401E414908700EE03C4890ED000A5FED41
:103AE000CE0AB4EEE00AF1EE10FA04DD3A480078AE
:103AF000401C3949087001200DF0F0FA0122002124
:103B000004200CF07AFE354890ED000ADFED350A0E
:103B1000B4EEE00AF1EE10FA12D890ED000A5FED73
:103B2000EA0AB4EEE00AF1EE10FA09DD04210220FF
:103B30002B4A92ED000A0CF09AFF2649087028E003
:103B4000264890ED000A5FEDF40AB4EEE00AF1EECB
:103B500010FA1ED802200DF0C1FA1F480078C01ECE
:103B60001D49087001200EF0BFFE12E0FFE70221A0
:103B70000120174A92ED000A0CF079FF15490870F0
:103B800004210220164A92ED000A0CF070FF114940
:103B90000870AFF218410B480FF09AFD0C4800680E
:103BA0000FF063FFCDE902019DED020B53EC102BEA
:103BB000AFF2084105A810F0C5F905A901480FF0BA
:103BC0006DFD15E0CC0600201300002088000020C9
:103BD00078000020740000200E0000208C000020DF
:103BE0007C0000200000FA44252E30660000000012
:103BF000AFF26841FE480FF051FDAFF26841FC485A
:103C00000FF04CFDFB4800680FF02FFFCDE90201DB
:103C10009DED020B53EC102BAFF2340105A810F010
:103C200091F905A9F2480FF039FDAFF28C41F04847
:103C30000FF034FDBCE0F0480078012866D1EF4871
:103C400090ED000ADFEDEE0AB4EEE00AF1EE10FAB4
:103C500012D890ED000ADFEDEB0AB4EEE00AF1EEC7
:103C600010FA09DD03210120E74A92ED000A0CF069
:103C7000FEFEE649087016E0E04890ED000ADFED30
:103C8000E10AB4EEE00AF1EE10FA04D8E048007858
:103C9000401EDF49087001200DF020FA01220021AA
:103CA00006200CF0AAFDDB4890ED000A5FED330A18
:103CB000B4EEE00AF1EE10FA12D890ED000ADFED52
:103CC000D00AB4EEE00AF1EE10FA09DD0421022078
:103CD000C84A92ED000A0CF0CAFECC49087027E0F1
:103CE000CC4890ED000ADFEDC60AB4EEE00AF1EE32
:103CF00010FA1DD802200DF0F1F9C5480078C01E59
:103D0000C349087001200EF0EFFD11E003210120EE
:103D1000BD4A92ED000A0CF0AAFEBC4908700421CD
:103D20000220B44A92ED000A0CF0A1FEB7490870D7
:103D3000AFF2B851AE4800E03CE00FF0C9FCB24829
:103D400000680FF092FECDE902019DED020B53ECED
:103D5000102BAFF2BC5105A810F0F4F805A9A44847
:103D60000FF09CFCAFF2DC51A1480FF097FCAFF2D2
:103D7000DC519F480FF092FC9E4800680FF075FEE2
:103D8000CDE902019DED020B53EC102BAFF2A8110F
:103D900005A810F0D7F800E009E005A994480FF055
:103DA0007DFCAFF2046192480FF078FC00E000BFA8
:103DB00001F0ADBD98480078012873D1974890ED87
:103DC000000A8E4880ED000A954890ED000A91485F
:103DD00080ED000A0120894991ED000AFCF749FDB8
:103DE000894880ED000A02208A4991ED000AFCF71B
:103DF00040FD804880ED000A804800680FF035FEE5
:103E0000CDE900019DED000B10F092FB8DED020B52
:103E10009DED020B51EC100B0FF06AFE814908601A
:103E20007B48007806287CD2DFE800F0039BE0DFC7
:103E3000DEDD71480078012846D17A4890ED000A0D
:103E4000F1EE080AB4EEE00AF1EE10FA09D8012109
:103E500008466D4A92ED000A0CF009FE6B490870A5
:103E60000CE001200DF03AF90122002102200CF0B3
:103E7000C4FC67480078401C65490870654890EDAF
:103E8000000ADFED5F0AB4EEE00AF1EE10FA0AD89C
:103E900003210220574A92ED000A0CF0E8FD5B492D
:103EA000087023E0FDE302200DF018F90122002143
:103EB00011200CF0A2FC56480078C01C5449087030
:103EC00000200EF011FD11E0012108464E4A92ED4E
:103ED000000A0CF0CCFD4D49087003210220454A30
:103EE00092ED000A0CF0C3FD48490870AFF27471FE
:103EF0003F480FF0EDFB444800680FF0B6FDCDE9F8
:103F000002019DED020B53EC102BAFF2887105A856
:103F100010F018F805A936480FF0C0FB42A134484C
:103F200000E0E8E30FF0BAFBAFF2987130480FF011
:103F3000B5FB304800680FF098FDCDE902019DED1A
:103F4000020B53EC102BAFF2B07105A80FF0FAFF83
:103F500005A927480FF0A2FB35A125480FF09EFBCD
:103F6000CAE325480078012841D12E4890ED000A87
:103F7000DFED240AB4EEE00AF1EE10FA12D890ED6B
:103F8000000AF1EE080AB4EEE00AF1EE10FA09DDDB
:103F9000022101201C4A92ED000A0CF068FD1B4929
:103FA000087050E01F4890ED000AF1EE080AB4EEE8
:103FB000E00AF1EE10FA05D815480078401E1449C1
:103FC00008700EE0174890ED000ADFED0E0AB4EE1F
:103FD000E00AF1EE10FA04DD0D480078401C0C49AF
:103FE0000870012028E0CCE2EFE148E19DE04FE0DD
:103FF000CC0600207C000020130000208800002058
:104000000000164400007042780000207400002078
:104010000E0000208C0000200800002088040020F2
:104020008C04002094000020204443560D0A000018
:10403000204443410D0A00000DF050F801220021F8
:1040400004200CF0DAFBF94890ED000A5FED140A49
:10405000B4EEE00AF1EE10FA09D803210220F44A86
:1040600092ED000A0CF003FDF249087022E00220F4
:104070000DF034F80122002111200CF0BEFBEE48B7
:104080000078C01CEC49087000200EF02DFC11E0F7
:1040900002210120E94A92ED000A0CF0E8FCE54912
:1040A000087003210220E24A92ED000A0CF0DFFCC6
:1040B000E0490870AFF63C11E1480FF009FBDF481A
:1040C00000680FF0D2FCCDE902019DED020B53EC2C
:1040D000102BAFF6281105A80FF034FF05A9D8481A
:1040E0000FF0DCFAAFF2C001D5480FF0D7FAAFF607
:1040F0005C11D3480FF0D2FACD4800680FF0B5FC40
:10410000CDE902019DED020B53EC102BAFF67811B7
:1041100005A80FF017FF05A9C9480FF0BFFAAFF2C5
:10412000F001C7480FF0BAFAE6E2C6480078012865
:1041300058D1C54890ED000A5FED4F0AB4EEE00A91
:10414000F1EE10FA12D890ED000A5FED520AB4EECB
:10415000E00AF1EE10FA09DD03210120B74A92EDE1
:10416000000A0CF084FCB349087016E0B64890EDE4
:10417000000A5FED5C0AB4EEE00AF1EE10FA04D832
:10418000AD480078401EAC49087001200CF0A6FF35
:104190000122002106200CF030FBA44890ED000A1B
:1041A0005FED690AB4EEE00AF1EE10FA09D80321D6
:1041B00002209F4A92ED000A0CF059FC9D490870BC
:1041C00022E002200CF08AFF0122002111200CF0D5
:1041D00014FB99480078C01C9749087000200EF025
:1041E00083FB11E003210120944A92ED000A0CF0B8
:1041F0003EFC90490870032102208D4A92ED000A8E
:104200000CF035FC8B490870AFF690218C480FF00C
:104210005FFA8A4800680FF028FCCDE902019DEDA5
:10422000020B53EC102BAFF6902105A80FF08AFE7D
:1042300005A983480FF032FAAFF2142180480FF03D
:104240002DFAAFF6B0217E480FF028FA78480068C2
:104250000FF00BFCCDE902019DED020B53EC102B8E
:10426000AFF6CC2105A80FF06DFE05A974480FF03C
:1042700015FAAFF2442172480FF010FA3CE271488F
:104280000078012854D1704890ED000AF1EE080A38
:10429000B4EEE00AF1EE10FA09D801210846674AA7
:1042A00092ED000A0CF0E3FB624908700DE001207A
:1042B0000CF014FF0122002102200CF09EFA5E484F
:1042C0000078401CC1B25C480170584890ED000A6B
:1042D000DFED5E0AB4EEE00AF1EE10FA12D890EDCE
:1042E000000A5FEDB90AB4EEE00AF1EE10FA09DD5A
:1042F000042102204E4A92ED000A0CF0B8FB4D4911
:10430000087027E0494890ED000A5FEDC30AB4EE5B
:10431000E00AF1EE10FA1DD802200CF0DFFE46484C
:104320000078C01E4449087001200EF0DDFA11E04B
:1043300001210846414A92ED000A0CF098FB3D49E4
:104340000870042102203A4A92ED000A0CF08FFB1B
:1043500038490870AFF6DC3139480FF0B9F9374801
:1043600000680FF082FBCDE902019DED020B53ECDA
:10437000102BAFF6F03105A80FF0E4FD05A9304889
:104380000FF08CF9AFF260312D480FF087F9AFF6DE
:10439000FC312B480FF082F9254800680FF065FBCF
:1043A000CDE902019DED020B53EC102BAFF2C87169
:1043B00005A80FF0C7FD05A921480FF06FF9AFF26E
:1043C00090311F480FF06AF996E11E4800780128E5
:1043D00072D11D4890ED000A5FEDF60AB4EEE00AD6
:1043E000F1EE10FA12D890ED000AF1EE080AB4EEE0
:1043F000E00AF1EE10FA09DD022101200F4A92EDE8
:10440000000A0CF034FB0B49087038E00E4890EDC0
:10441000000AF1EE080AB4EEE00AF1EE10FA17D83D
:1044200005480078401E0449087020E08C000020F8
:104430007C000020740000200E0000207800002086
:10444000CC060020130000209400002000803B4593
:10445000FA4890ED000ADFEDFA0AB4EEE00AF1EE58
:1044600010FA04DDF7480078401CF6490870012076
:104470000CF034FE0122002104200CF0BEF9F248B9
:1044800090ED000A5FED0F0AB4EEE00AF1EE10FACB
:1044900013D890ED000ADFEDED0AB4EEE00AF1EE7C
:1044A00010FA0ADD04210220E94A92ED000A0CF01C
:1044B000DEFAE849087029E016E0E34890ED000ACA
:1044C000DFEDE20AB4EEE00AF1EE10FA1ED80220A7
:1044D0000CF004FEDB480078C01EC1B2D948017060
:1044E00001200EF001FA11E002210120DA4A92EDDA
:1044F000000A0CF0BCFAD749087004210220D44A03
:1045000092ED000A0CF0B3FAD2490870AFF694515C
:10451000D2480FF0DDF8D04800680FF0A6FACDE9D8
:1045200002019DED020B53EC102BAFF6805105A854
:104530000FF008FD05A9C9480FF0B0F8AFF2185107
:10454000C6480FF0ABF8AFF6B451C4480FF0A6F868
:10455000BF4800680FF089FACDE902019DED020B1A
:1045600053EC102BAFF6801105A80FF0EBFC05A95A
:10457000BA480FF093F8AFF24851B8480FF08EF8F0
:10458000BAE0B7480078012866D1AC4890ED000A3F
:10459000DFEDAE0AB4EEE00AF1EE10FA12D890EDBB
:1045A000000ADFEDA70AB4EEE00AF1EE10FA09DD29
:1045B00003210120A84A92ED000A0CF058FAA549FF
:1045C000087016E09D4890ED000ADFED9D0AB4EEFC
:1045D000E00AF1EE10FA04D89A480078401E994992
:1045E000087001200CF07AFD0122002106200CF059
:1045F00004F9954890ED000ADFED9A0AB4EEE00A5E
:10460000F1EE10FA12D890ED000ADFED900AB4EE48
:10461000E00AF1EE10FA09DD042102208C4A92ED45
:10462000000A0CF024FA8B49087027E0864890EDC8
:10463000000ADFED860AB4EEE00AF1EE10FA1DD8AA
:1046400002200CF04BFD7F480078C01E7D490870A9
:1046500001200EF049F911E0032101207E4A92ED7C
:10466000000A0CF004FA7B49087004210220784A01
:1046700092ED000A0CF0FBF976490870AFF6047170
:1046800076480FF025F8744800680FF0EEF9CDE990
:1046900002019DED020B53EC102BAFF6047105A83F
:1046A00000E02BE00FF04EFC05A96C480EF0F6FF81
:1046B000AFF28C6169480EF0F1FFAFF628716748E0
:1046C0000EF0ECFF624800680FF0CFF9CDE902016F
:1046D0009DED020B53EC102BAFF6F42105A80FF063
:1046E00031FC05A95D480EF0D9FFAFF2BC615B4813
:1046F0000EF0D4FF00E000BF01F009B95A4800787D
:104700000228F9D1594890ED000A594880ED000A75
:10471000584890ED000A4C4880ED000A01205449A9
:1047200091ED000AFCF7A5F84B4880ED000A022045
:10473000454991ED000AFCF79CF8454880ED000AD8
:1047400040480078062877D2DFE800F003B9FDFC86
:10475000FBFA43480078012845D1454890ED000A0E
:10476000F1EE080AB4EEE00AF1EE10FA09D80121E0
:104770000846394A92ED000A0CF079F9354908707B
:104780000CE001200CF0AAFC0122002102200CF018
:1047900034F82C480078401C2A4908702A4890EDCB
:1047A000000ADFED2A0AB4EEE00AF1EE10FA09D8A9
:1047B00003210220264A92ED000A0CF058F92549FF
:1047C000087022E002200CF089FC01220021112057
:1047D0000CF013F81B480078C01C1A490870002020
:1047E0000EF082F811E0012108461B4A92ED000A02
:1047F0000CF03DF91749087003210220144A92ED8C
:10480000000A0CF034F9134908701BA113480EF08C
:104810005FFF114800680FF028F9CDE902019DED16
:10482000020B53EC102B154905A80FF08BFB05A9C3
:104830000A480EF033FF23E0E6E300009400002076
:10484000000070420E0000208C0000200000164482
:104850007C0000207400002078000020CC0600209E
:10486000130000200000FA4408000020D4030020B8
:1048700088000020D80300204D2000008437000865
:10488000FBA1FE480EF00AFFFDA1FC480EF006FF5A
:10489000FC4800680FF0E9F8CDE902019DED020B3C
:1048A00053EC102BF84905A80FF04CFB05A9F34871
:1048B0000EF0F4FEF5A1F1480EF0F0FEA5E3F64887
:1048C000007801286DD1F54890ED000A5FED240ACB
:1048D000B4EEE00AF1EE10FA12D890ED000AF1EE13
:1048E000080AB4EEE00AF1EE10FA09DD0221012017
:1048F000EB4A92ED000A0CF0BAF8EA4908702BE096
:10490000E64890ED000AF1EE080AB4EEE00AF1EE96
:1049100010FA05D8E4480078401EE34908700EE01C
:10492000DE4890ED000A5FED3A0AB4EEE00AF1EEDF
:1049300010FA04DDDC480078401CDB49087003E015
:10494000ABE2E1E11BE175E001200CF0C7FB0122C5
:10495000002104200BF051FFD44890ED000A5FEDD8
:10496000450AB4EEE00AF1EE10FA09D8032102205C
:10497000C44A92ED000A0CF07AF8CA49087022E0A5
:1049800002200CF0ABFB0122002111200BF035FFBF
:10499000C5480078C01CC449087000200DF0A4FF71
:1049A00011E002210120BE4A92ED000A0CF05FF8EE
:1049B000BC49087003210220B24A92ED000A0CF0B3
:1049C00056F8B8490870AFF25011AC480EF080FEAE
:1049D000B34800680FF049F8CDE902019DED020BE4
:1049E00053EC102BA849143105A80FF0ABFA05A918
:1049F000A2480EF053FE9EA1A0480EF04FFEA0A1CB
:104A00009E480EF04BFE9F4800680FF02EF8CDE94F
:104A100002019DED020B53EC102B9B4905A80FF0F2
:104A200091FA05A995480EF039FE98A193480EF029
:104A300035FEEAE298480078012858D1974890ED71
:104A4000000A5FED7E0AB4EEE00AF1EE10FA12D829
:104A500090ED000A5FED860AB4EEE00AF1EE10FA7E
:104A600009DD032101208E4A92ED000A0BF0FFFFC1
:104A70008C49087016E0894890ED000A5FED900AB5
:104A8000B4EEE00AF1EE10FA04D887480078401E30
:104A90008549087001200CF021FB0122002106202D
:104AA0000BF0ABFE814890ED000A5FED980AB4EE82
:104AB000E00AF1EE10FA09D803210220714A92EDC2
:104AC000000A0BF0D4FF7749087022E002200CF0B6
:104AD00005FB0122002111200BF08FFE72480078A7
:104AE000C01C7149087000200DF0FEFE11E003218A
:104AF00001206B4A92ED000A0BF0B9FF694908707A
:104B0000032102205F4A92ED000A0BF0B0FF6549D5
:104B10000870AFF29C2159480EF0DAFD6048006839
:104B20000EF0A3FFCDE902019DED020B53EC102B1B
:104B3000554905A80FF006FA05A950480EF0AEFD3C
:104B40004BA14E480EF0AAFD4DA14C480EF0A6FD1B
:104B50004C4800680EF089FFCDE902019DED020B83
:104B600053EC102B484905A80FF0ECF905A9434870
:104B70000EF094FD45A141480EF090FD45E24648F7
:104B80000078012853D1454890ED000AF1EE080A5B
:104B9000B4EEE00AF1EE10FA09D801210846404AC5
:104BA00092ED000A0BF063FF3E4908700CE0012013
:104BB0000CF094FA0122002102200BF01EFE3A486C
:104BC0000078401C38490870384890ED000A5FEDC5
:104BD000DB0AB4EEE00AF1EE10FA12D890ED000A0A
:104BE0005FEDE60AB4EEE00AF1EE10FA09DD042109
:104BF0000220244A92ED000A0BF039FF294908707F
:104C000027E02A4890ED000A5FEDF00AB4EEE00AD2
:104C1000F1EE10FA1DD802200CF060FA224800785C
:104C2000C01E2149087001200DF05EFE11E0012137
:104C300008461B4A92ED000A0BF019FF194908704B
:104C4000042102200F4A92ED000A0BF010FF1549D3
:104C50000870AFF2DC3109480EF03AFD10480068E8
:104C60000EF003FFCDE902019DED020B20E00000F4
:104C70002041432B4443560D0A000000CC0600207F
:104C8000532000007C000020983700082041432B6F
:104C90004443410D0A00000013000020880000205A
:104CA00078000020740000200E0000208C000020FE
:104CB00053EC102BFE4905A80FF044F905A9FD4857
:104CC0000EF0ECFCAFF25801FA480EF0E7FCAFF240
:104CD0005001F8480EF0E2FCF74800680EF0C5FEFF
:104CE000CDE902019DED020B53EC102BF34905A811
:104CF0000FF028F905A9EF480EF0D0FCAFF27401CF
:104D0000EC480EF0CBFC80E1ED480078012878D12A
:104D1000EC4890ED000ADFEDEC0AB4EEE00AF1EEAB
:104D200010FA12D890ED000AF1EE080AB4EEE00A8B
:104D3000F1EE10FA09DD02210120E44A92ED000AA9
:104D40000BF095FEE249087027E0DE4890ED000A7E
:104D5000F1EE080AB4EEE00AF1EE10FA06D8DD48EA
:104D60000078401EC1B2DB4801700EE0D54890EDDE
:104D7000000ADFEDD50AB4EEE00AF1EE10FA04DD28
:104D8000D4480078401CD349087001200CF0A6F9E3
:104D90000122002104200BF030FDCF4890ED000AE5
:104DA000DFEDCE0AB4EEE00AF1EE10FA12D890ED83
:104DB000000ADFEDCB0AB4EEE00AF1EE10FA09DDED
:104DC00004210220BC4A92ED000A0BF050FEC049BB
:104DD000087028E0C04890ED000ADFEDC10AB4EE8B
:104DE000E00AF1EE10FA1ED802200CF077F9B9486B
:104DF0000078C01EB749087001200DF075FD12E063
:104E0000FFE702210120B14A92ED000A0BF02FFECC
:104E1000AF49087004210220A74A92ED000A0BF066
:104E200026FEAB490870AFF2B051A2480EF050FC1C
:104E3000A64800680EF019FECDE902019DED020BB7
:104E400053EC102B9A49283105A80FF07BF805A9DF
:104E500098480EF023FCAFF2E81196480EF01EFCC5
:104E6000AFF2E41193480EF019FC934800680EF07D
:104E7000FCFDCDE902019DED020B53EC102B8F4997
:104E800005A80FF05FF805A98A480EF007FCAFF2FD
:104E9000042188480EF002FCB7E089480078012818
:104EA00066D1884890ED000ADFED8D0AB4EEE00A85
:104EB000F1EE10FA12D890ED000ADFED830AB4EE9D
:104EC000E00AF1EE10FA09DD032101207F4A92ED9C
:104ED000000A0BF0CCFD7E49087016E0794890ED91
:104EE000000ADFED790AB4EEE00AF1EE10FA04D818
:104EF00078480078401E7749087001200CF0EEF8E1
:104F00000122002106200BF078FC734890ED000A86
:104F1000DFED720AB4EEE00AF1EE10FA12D890ED6D
:104F2000000ADFED6F0AB4EEE00AF1EE10FA09DDD7
:104F300004210220604A92ED000A0BF098FD6449BA
:104F4000087027E0644890ED000ADFED650AB4EED2
:104F5000E00AF1EE10FA1DD802200CF0BFF85D480F
:104F60000078C01E5B49087001200DF0BDFC11E007
:104F700003210120554A92ED000A0BF078FD5449B7
:104F80000870042102204C4A92ED000A0BF06FFDDC
:104F90004F490870AFF2207146480EF099FB4B481C
:104FA00000680EF062FDCDE902019DED020B53ECAD
:104FB000102B3F49143105A80EF0C4FF05A93D4848
:104FC0000EF06CFBAFF258313A480EF067FBAFF2CF
:104FD000503138480EF062FB374800680EF045FD4E
:104FE000CDE902019DED020B53EC102B334905A8CE
:104FF0000EF0A8FF05A92F480EF050FBAFF2743158
:105000002C480EF04BFB00E000BF45E2354800782D
:1050100000286DD033480078012804D0022868D0D9
:10502000032867D1F1E0304890ED000A254880ED73
:10503000000A0120234991ED000AFBF71AFC2348DE
:1050400080ED000A0A210120204A92ED000A0BF0AF
:105050000EFD1F490870254890ED000A1E4880ED9E
:10506000000A02201C4991ED000AFBF702FC1248DD
:1050700080ED000A0A2102200F4A92ED000A0BF08F
:10508000F6FC13490870AFF610010A480EF020FB39
:105090000E4800680EF0E9FCCDE902019DED020B1F
:1050A00053EC102B024905A80EF04CFF05A922E095
:1050B00084370008CC0600207C000020E83B000874
:1050C00013000020880000200000704278000020BB
:1050D000740000200E0000208C0000200000FA4424
:1050E000000016440F000020240400202C0400209F
:1050F000F4E023E0F0E0FA480EF0D0FAF9A1F84825
:105100000EF0CCFAAFF28841F5480EF0C7FAF84835
:1051100000680EF0AAFCCDE902019DED020B53ECF4
:10512000102BF44905A80EF00DFF05A9EC480EF070
:10513000B5FAF1A1EA480EF0B1FACEE0F14890EDEF
:10514000000AF14880ED000A0120EF4991ED000AC4
:10515000FBF78FFBED4880ED000A0A210120EB4AA6
:1051600092ED000A0BF083FCE9490870E94890EDE4
:10517000000AE94880ED000A0220E74991ED000AA3
:10518000FBF777FBDA4880ED000A0A210220D84AB3
:1051900092ED000A0BF06BFCDD490870AFF62811A8
:1051A000CF480EF095FAD94800680EF05EFCCDE9C4
:1051B00002019DED020B53EC102BCE4905A80EF019
:1051C000C1FE05A9C6480EF069FAC6A1C4480EF092
:1051D00065FAAFF25451C2480EF060FAC448006854
:1051E0000EF043FCCDE902019DED020B53EC102BB8
:1051F000C04905A80EF0A6FE05A9B9480EF04EFA62
:10520000BDA1B7480EF04AFA67E0C44890ED000A25
:10521000BD4880ED000A0120BB4991ED000AFBF773
:1052200028FBBA4880ED000A02210120B74A92ED1E
:10523000000A0BF01CFCB6490870B94890ED000A52
:10524000B54880ED000A0220B34991ED000AFBF752
:1052500010FBA74880ED000A02210846A44A92EDFF
:10526000000A0BF004FCAA490870AFF6F4119C4840
:105270000EF02EFAA54800680EF0F7FBCDE902010A
:105280009DED020B53EC102B9A4905A80EF05AFE27
:1052900005A993480EF002FAA2A191480EF0FEF97A
:1052A000AFF224618E480EF0F9F9914800680EF0D3
:1052B000DCFBCDE902019DED020B53EC102B8D4977
:1052C00005A80EF03FFE05A985480EF0E7F997A165
:1052D00083480EF0E3F900E000BF18E3954800783A
:1052E00068B1954800780228F7D10A210120934A35
:1052F00092ED000A0BF0BBFB8549087007E390486C
:105300000078E0B38F480078012802D002287CD1D1
:1053100060E08D4890ED000A7B4880ED000A90ED3A
:10532000000A7A4880ED000A0A210120774A92EDAE
:10533000000A0BF09CFB76490870844890ED000A47
:10534000754880ED000A90ED000A694880ED000A7A
:105350000A210220664A92ED000A0BF088FB6C4994
:105360000870AFF6EC215E480EF0B2F967480068AD
:105370000EF07BFBCDE902019DED020B00E08CE01D
:1053800053EC102B5B4905A80EF0DCFD05A9544831
:105390000EF084F96EA152480EF080F9AFF2207140
:1053A0004F480EF07BF9524800680EF05EFBCDE9E5
:1053B00002019DED020B53EC102B4E4905A80EF097
:1053C000C1FD05A946480EF069F964A144480EF0F4
:1053D00065F961E0644890ED000A4B4880ED000AF1
:1053E00090ED000A494880ED000A0A210120474A51
:1053F00092ED000A0BF03BFB454908705B4890EDCD
:10540000000A454880ED000A00E044E090ED000A03
:10541000374880ED000A0A210220354A92ED000A41
:105420000BF025FB3A490870AFF6B4312C480EF06A
:105430004FF9364800680EF018FBCDE902019DEDEA
:10544000020B53EC102B2B4905A80EF07BFD05A990
:1054500023480EF023F946A121480EF01FF9AFF2C0
:10546000E0711F480EF01AF9214800680EF0FDFAAD
:10547000CDE902019DED020B53EC102B1D4905A84F
:105480000EF060FD05A916480EF008F93BA114487E
:105490000EF004F900E000BF39E23B480078002834
:1054A000FAD03A48008800F40040B8B13848007893
:1054B000042813D1374800680290002801DB0298C5
:1054C00001E00298404214286ADB32480068A0F5E7
:1054D000B470039000285FDB03985FE095E05FE025
:1054E000CC0600202054484425665F560D0A000073
:1054F0007C000020843700082054484425665F4122
:105500000D0A000020040020880000207800002000
:1055100074000020280400208C000020F4030020E8
:10552000F80300202043465F560D0A002043465FE3
:10553000410D0A0012000020D0030020DC030020EF
:105540000B0000200A000020E4030020E8030020F4
:10555000204D41585F560D0A00000000204D415873
:105560005F410D0A00000000EC030020F003002062
:10557000204D494E5F560D0A00000000204D494E57
:105580005F410D0A000000000D0000207C05002096
:10559000140000207000002003984042142802DA12
:1055A00002200BF0AFFDFD4800687838039000281A
:1055B00001DB039801E003984042142803DA02203B
:1055C0000BF0AAFD12E0F5480068F03803900028BF
:1055D00001DB039801E003984042142803DA02201B
:1055E0000BF0A4FD02E002200BF065FD0A21012072
:1055F000EA4A92ED000AB8EE400A0BF038FAE849A0
:1056000008700520E749087054E0E748008800F476
:10561000804048B3E3480078042825DAE34800785E
:10562000012847D10020E1490870E148007810B115
:10563000012808D103E00120DD49087004E00020C2
:10564000DB49087000E000BF00BFD948007801289E
:1056500003D102200BF074FD02E002200BF035FDB7
:1056600001200BF04FFD25E0CF48008800F480407A
:1056700000BBCE48007801281CD10020CB4908701F
:10568000CB48007810B1012808D103E00120C849B7
:10569000087004E00020C649087000E000BF00BFA9
:1056A000C3480078012802D10BF022FD02E001205E
:1056B0000BF00BFDBC48008800F4004010B3B94863
:1056C000007803281ED10021BA4805F00BFFBA4824
:1056D0000068BA490988B0FBF1F201FB1201B84831
:1056E000016000684FF4B4714843B4490988B0FBC5
:1056F000F1F1B34801600068A84908600420A94995
:10570000087004E1A848008800F48040D8B3AD4890
:1057100090ED000AAC4880ED000A0A210220AA4A56
:1057200092ED000A0BF0A3F99D490870A64890ED90
:10573000000AF2EE040AB4EEE00AF1EE10FA0AD220
:1057400098480078012806D1022096490870002068
:105750000CF095FE0FE09C4890ED000AF2EE040A72
:10576000B4EEE00AF1EE10FA05DD8E48007801286B
:1057700001D18C4908708B480078022842D19248A8
:1057800090ED000A00E04FE0DFED900AB4EEE00A91
:10579000F1EE10FA31DD8E480078401C8C4908701B
:1057A00008460078012805D1874890ED000A89480D
:1057B00080ED000A8648007805281ED1824890EDC9
:1057C000000A8448D0ED000A30EE600ABDEEC00A3F
:1057D0008DED030A0398002801DB039801E003988C
:1057E000404205280ADA0121002004F055FE00207D
:1057F0007749087003206B49087088E000217448DD
:10580000017084E06748007803280CD16E4890ED61
:10581000000AF2EE040AB4EEE00AF1EE10FA76D2D3
:1058200002206049087072E05F48008800F4804000
:10583000D8BB644890ED000A634880ED000A0A2155
:105840000220614A92ED000A0BF011F954490870E8
:105850005D4890ED000ADFED5D0AB4EEE00AF1EE7E
:1058600010FA3CDD4F48007878BB59480078012891
:1058700006D1554890ED000A564880ED000A28E010
:1058800053480078052824D14F4890ED000A51482C
:10589000D0ED000A30EE600ABDEEC00A8DED030ABD
:1058A0000398002802DB039802E030E003984042AE
:1058B00005280BDA0121002004F0EEFD0020444908
:1058C000087001203749087003E008E000204049D3
:1058D00008703F480078401C3D49087017E03A487E
:1058E00090ED000ADFED390AB4EEE00AF1EE10FAAD
:1058F0000DD22C480078012809D1002129480170D7
:10590000084604F0C9FD00212A4805F0EBFD03F02C
:1059100061BB2C4890ED000A2F4880ED000A90ED05
:10592000000AF3EE0E0AB4EEE00AF1EE10FA05DD1D
:105930000122032100200AF060FF04E0002203217D
:1059400010460AF05AFF2548007800287ED12448E6
:1059500000780028FAD12348007820B1012876D0B9
:10596000022875D1E0E0204890ED000A1F4880ED44
:10597000000A01201D4991ED000AFAF77AFF1C4840
:1059800080ED000A90ED000ABDEEC00A8DED030A1D
:10599000039800282EDB03982EE000007000002002
:1059A00074000020140000207C05002095050020D4
:1059B00018000020000C0040800500208405002015
:1059C00038000020D40300208C0000200000C842D2
:1059D0009C00002098000020900000200B00002078
:1059E0001200002008000020FC0300208800002096
:1059F000780000200398404242F20F7188420EDD89
:105A0000FD4890ED000ADFEDFD0A80EE201A80EDE2
:105A1000001A0122002108200AF0EFFE04E0002213
:105A2000114608200AF0E9FE0A210120F24A92ED0F
:105A3000000A0BF01CF8F2490870F2A1F2480DF0D0
:105A400047FEED4800680EF010F802E0A5E113E013
:105A5000C2E0CDE902019DED020B53EC102BEB49A6
:105A600005A80EF06FFA05A9E7480DF017FEE8A1AA
:105A7000E5480DF013FEB0E0E74890ED000AE74876
:105A800080ED000A0120E54991ED000AFAF7F1FEE8
:105A9000D94880ED000A90ED000ABDEEC00A8DEDF8
:105AA000030A0398002801DB039801E003984042B1
:105AB00042F20F7188420EDDCF4890ED000ADFED13
:105AC000CF0A80EE201A80ED001A01220021082062
:105AD0000AF093FE04E00022114608200AF08DFE31
